{
  "address": "0xBaE63ee7d8E2972A47B7d1e05336bbB76c83aCAa",
  "abi": [
    {
      "inputs": [
        {
          "internalType": "address",
          "name": "weth_",
          "type": "address"
        }
      ],
      "stateMutability": "nonpayable",
      "type": "constructor"
    },
    {
      "inputs": [],
      "name": "AlreadyTrading",
      "type": "error"
    },
    {
      "inputs": [],
      "name": "ETHTransferFailed",
      "type": "error"
    },
    {
      "inputs": [],
      "name": "InputArrayMismatch",
      "type": "error"
    },
    {
      "inputs": [],
      "name": "InsufficientAmount",
      "type": "error"
    },
    {
      "inputs": [],
      "name": "InvalidAssetPrice",
      "type": "error"
    },
    {
      "inputs": [],
      "name": "InvalidDelegatee",
      "type": "error"
    },
    {
      "inputs": [],
      "name": "InvalidLockTime",
      "type": "error"
    },
    {
      "inputs": [],
      "name": "InvalidLocker",
      "type": "error"
    },
    {
      "inputs": [],
      "name": "InvalidMarketCap",
      "type": "error"
    },
    {
      "inputs": [],
      "name": "InvalidOracle",
      "type": "error"
    },
    {
      "inputs": [],
      "name": "InvalidRate",
      "type": "error"
    },
    {
      "inputs": [],
      "name": "InvalidReserves",
      "type": "error"
    },
    {
      "inputs": [],
      "name": "InvalidStage",
      "type": "error"
    },
    {
      "inputs": [],
      "name": "InvalidThreshold",
      "type": "error"
    },
    {
      "inputs": [],
      "name": "InvalidToken",
      "type": "error"
    },
    {
      "inputs": [],
      "name": "LiquidityTooLow",
      "type": "error"
    },
    {
      "inputs": [],
      "name": "MarketCapTooLow",
      "type": "error"
    },
    {
      "inputs": [],
      "name": "NotTrading",
      "type": "error"
    },
    {
      "inputs": [],
      "name": "NotWETHMode",
      "type": "error"
    },
    {
      "inputs": [],
      "name": "ProfileNotExist",
      "type": "error"
    },
    {
      "inputs": [],
      "name": "Unauthorized",
      "type": "error"
    },
    {
      "inputs": [],
      "name": "WrongBoostStage",
      "type": "error"
    },
    {
      "anonymous": false,
      "inputs": [
        {
          "indexed": false,
          "internalType": "address",
          "name": "newAssetToken",
          "type": "address"
        }
      ],
      "name": "AssetTokenSet",
      "type": "event"
    },
    {
      "anonymous": false,
      "inputs": [
        {
          "indexed": false,
          "internalType": "uint8",
          "name": "stage",
          "type": "uint8"
        },
        {
          "indexed": false,
          "internalType": "uint256",
          "name": "threshold",
          "type": "uint256"
        }
      ],
      "name": "BoostStageThresholdUpdated",
      "type": "event"
    },
    {
      "anonymous": false,
      "inputs": [
        {
          "indexed": true,
          "internalType": "address",
          "name": "token",
          "type": "address"
        },
        {
          "indexed": false,
          "internalType": "uint8",
          "name": "stage",
          "type": "uint8"
        },
        {
          "indexed": false,
          "internalType": "uint256",
          "name": "amount",
          "type": "uint256"
        },
        {
          "indexed": false,
          "internalType": "uint256",
          "name": "assetAmount",
          "type": "uint256"
        }
      ],
      "name": "Boosted",
      "type": "event"
    },
    {
      "anonymous": false,
      "inputs": [
        {
          "indexed": true,
          "internalType": "address",
          "name": "token",
          "type": "address"
        },
        {
          "indexed": true,
          "internalType": "address",
          "name": "delegatee",
          "type": "address"
        }
      ],
      "name": "DelegateLPTo",
      "type": "event"
    },
    {
      "anonymous": false,
      "inputs": [
        {
          "indexed": false,
          "internalType": "address",
          "name": "newExtRouter",
          "type": "address"
        }
      ],
      "name": "ExtRouterSet",
      "type": "event"
    },
    {
      "anonymous": false,
      "inputs": [
        {
          "indexed": false,
          "internalType": "address",
          "name": "newFactory",
          "type": "address"
        }
      ],
      "name": "FactorySet",
      "type": "event"
    },
    {
      "anonymous": false,
      "inputs": [
        {
          "indexed": false,
          "internalType": "uint256",
          "name": "newFee",
          "type": "uint256"
        },
        {
          "indexed": false,
          "internalType": "address",
          "name": "newFeeTo",
          "type": "address"
        }
      ],
      "name": "FeeSet",
      "type": "event"
    },
    {
      "anonymous": false,
      "inputs": [
        {
          "indexed": false,
          "internalType": "uint256",
          "name": "newFeeType",
          "type": "uint256"
        }
      ],
      "name": "FeeTypeSet",
      "type": "event"
    },
    {
      "anonymous": false,
      "inputs": [
        {
          "indexed": false,
          "internalType": "uint256",
          "name": "newMarketCap",
          "type": "uint256"
        }
      ],
      "name": "GradMarketCapSet",
      "type": "event"
    },
    {
      "anonymous": false,
      "inputs": [
        {
          "indexed": true,
          "internalType": "address",
          "name": "token",
          "type": "address"
        },
        {
          "indexed": true,
          "internalType": "address",
          "name": "lp",
          "type": "address"
        }
      ],
      "name": "Graduated",
      "type": "event"
    },
    {
      "anonymous": false,
      "inputs": [
        {
          "indexed": false,
          "internalType": "uint256",
          "name": "newMarketCap",
          "type": "uint256"
        }
      ],
      "name": "InitialMarketCapSet",
      "type": "event"
    },
    {
      "anonymous": false,
      "inputs": [
        {
          "indexed": false,
          "internalType": "uint256",
          "name": "newSupply",
          "type": "uint256"
        }
      ],
      "name": "InitializeSupplySet",
      "type": "event"
    },
    {
      "anonymous": false,
      "inputs": [
        {
          "indexed": false,
          "internalType": "uint8",
          "name": "version",
          "type": "uint8"
        }
      ],
      "name": "Initialized",
      "type": "event"
    },
    {
      "anonymous": false,
      "inputs": [
        {
          "indexed": true,
          "internalType": "address",
          "name": "token",
          "type": "address"
        },
        {
          "indexed": true,
          "internalType": "address",
          "name": "pair",
          "type": "address"
        },
        {
          "indexed": false,
          "internalType": "uint256",
          "name": "totalTokens",
          "type": "uint256"
        },
        {
          "indexed": false,
          "internalType": "uint8",
          "name": "tokenType",
          "type": "uint8"
        },
        {
          "indexed": false,
          "internalType": "uint256",
          "name": "timestamp",
          "type": "uint256"
        }
      ],
      "name": "Launched",
      "type": "event"
    },
    {
      "anonymous": false,
      "inputs": [
        {
          "indexed": false,
          "internalType": "address",
          "name": "newLockFactory",
          "type": "address"
        }
      ],
      "name": "LockFactorySet",
      "type": "event"
    },
    {
      "anonymous": false,
      "inputs": [
        {
          "indexed": false,
          "internalType": "uint256",
          "name": "newLockedTime",
          "type": "uint256"
        }
      ],
      "name": "LockedTimeSet",
      "type": "event"
    },
    {
      "anonymous": false,
      "inputs": [
        {
          "indexed": false,
          "internalType": "address",
          "name": "newOracle",
          "type": "address"
        }
      ],
      "name": "OracleSet",
      "type": "event"
    },
    {
      "anonymous": false,
      "inputs": [
        {
          "indexed": true,
          "internalType": "address",
          "name": "previousOwner",
          "type": "address"
        },
        {
          "indexed": true,
          "internalType": "address",
          "name": "newOwner",
          "type": "address"
        }
      ],
      "name": "OwnershipTransferStarted",
      "type": "event"
    },
    {
      "anonymous": false,
      "inputs": [
        {
          "indexed": true,
          "internalType": "address",
          "name": "previousOwner",
          "type": "address"
        },
        {
          "indexed": true,
          "internalType": "address",
          "name": "newOwner",
          "type": "address"
        }
      ],
      "name": "OwnershipTransferred",
      "type": "event"
    },
    {
      "anonymous": false,
      "inputs": [
        {
          "indexed": true,
          "internalType": "bytes32",
          "name": "role",
          "type": "bytes32"
        },
        {
          "indexed": true,
          "internalType": "bytes32",
          "name": "previousAdminRole",
          "type": "bytes32"
        },
        {
          "indexed": true,
          "internalType": "bytes32",
          "name": "newAdminRole",
          "type": "bytes32"
        }
      ],
      "name": "RoleAdminChanged",
      "type": "event"
    },
    {
      "anonymous": false,
      "inputs": [
        {
          "indexed": true,
          "internalType": "bytes32",
          "name": "role",
          "type": "bytes32"
        },
        {
          "indexed": true,
          "internalType": "address",
          "name": "account",
          "type": "address"
        },
        {
          "indexed": true,
          "internalType": "address",
          "name": "sender",
          "type": "address"
        }
      ],
      "name": "RoleGranted",
      "type": "event"
    },
    {
      "anonymous": false,
      "inputs": [
        {
          "indexed": true,
          "internalType": "bytes32",
          "name": "role",
          "type": "bytes32"
        },
        {
          "indexed": true,
          "internalType": "address",
          "name": "account",
          "type": "address"
        },
        {
          "indexed": true,
          "internalType": "address",
          "name": "sender",
          "type": "address"
        }
      ],
      "name": "RoleRevoked",
      "type": "event"
    },
    {
      "anonymous": false,
      "inputs": [
        {
          "indexed": false,
          "internalType": "address",
          "name": "newRouter",
          "type": "address"
        }
      ],
      "name": "RouterSet",
      "type": "event"
    },
    {
      "anonymous": false,
      "inputs": [
        {
          "indexed": false,
          "internalType": "address",
          "name": "newTokenFactory",
          "type": "address"
        }
      ],
      "name": "TokenFactorySet",
      "type": "event"
    },
    {
      "stateMutability": "payable",
      "type": "fallback"
    },
    {
      "inputs": [],
      "name": "BOOSTER_ROLE",
      "outputs": [
        {
          "internalType": "bytes32",
          "name": "",
          "type": "bytes32"
        }
      ],
      "stateMutability": "view",
      "type": "function"
    },
    {
      "inputs": [],
      "name": "DEFAULT_ADMIN_ROLE",
      "outputs": [
        {
          "internalType": "bytes32",
          "name": "",
          "type": "bytes32"
        }
      ],
      "stateMutability": "view",
      "type": "function"
    },
    {
      "inputs": [],
      "name": "acceptOwnership",
      "outputs": [],
      "stateMutability": "nonpayable",
      "type": "function"
    },
    {
      "inputs": [],
      "name": "assetToken",
      "outputs": [
        {
          "internalType": "address",
          "name": "",
          "type": "address"
        }
      ],
      "stateMutability": "view",
      "type": "function"
    },
    {
      "inputs": [
        {
          "internalType": "string",
          "name": "name",
          "type": "string"
        },
        {
          "internalType": "string",
          "name": "ticker",
          "type": "string"
        },
        {
          "internalType": "uint8[]",
          "name": "cores",
          "type": "uint8[]"
        },
        {
          "internalType": "string",
          "name": "desc",
          "type": "string"
        },
        {
          "internalType": "string",
          "name": "img",
          "type": "string"
        },
        {
          "internalType": "string[4]",
          "name": "urls",
          "type": "string[4]"
        },
        {
          "internalType": "uint256",
          "name": "tokenAmount",
          "type": "uint256"
        },
        {
          "internalType": "uint256",
          "name": "assetAmount",
          "type": "uint256"
        },
        {
          "internalType": "uint256",
          "name": "tokenAmountMin",
          "type": "uint256"
        },
        {
          "internalType": "uint256",
          "name": "assetAmountMin",
          "type": "uint256"
        },
        {
          "internalType": "uint256",
          "name": "minLiquidity",
          "type": "uint256"
        },
        {
          "internalType": "uint256",
          "name": "deadline",
          "type": "uint256"
        }
      ],
      "name": "boost1",
      "outputs": [],
      "stateMutability": "nonpayable",
      "type": "function"
    },
    {
      "inputs": [
        {
          "internalType": "address",
          "name": "creator",
          "type": "address"
        },
        {
          "internalType": "string",
          "name": "name",
          "type": "string"
        },
        {
          "internalType": "string",
          "name": "ticker",
          "type": "string"
        },
        {
          "internalType": "uint8[]",
          "name": "cores",
          "type": "uint8[]"
        },
        {
          "internalType": "string",
          "name": "desc",
          "type": "string"
        },
        {
          "internalType": "string",
          "name": "img",
          "type": "string"
        },
        {
          "internalType": "string[4]",
          "name": "urls",
          "type": "string[4]"
        },
        {
          "internalType": "uint256",
          "name": "tokenAmount",
          "type": "uint256"
        },
        {
          "internalType": "uint256",
          "name": "assetAmount",
          "type": "uint256"
        },
        {
          "internalType": "uint256",
          "name": "tokenAmountMin",
          "type": "uint256"
        },
        {
          "internalType": "uint256",
          "name": "assetAmountMin",
          "type": "uint256"
        },
        {
          "internalType": "uint256",
          "name": "minLiquidity",
          "type": "uint256"
        },
        {
          "internalType": "uint256",
          "name": "deadline",
          "type": "uint256"
        }
      ],
      "name": "boost1For",
      "outputs": [],
      "stateMutability": "nonpayable",
      "type": "function"
    },
    {
      "inputs": [
        {
          "internalType": "address",
          "name": "token",
          "type": "address"
        },
        {
          "internalType": "uint256",
          "name": "tokenAmount",
          "type": "uint256"
        },
        {
          "internalType": "uint256",
          "name": "assetAmount",
          "type": "uint256"
        },
        {
          "internalType": "uint256",
          "name": "tokenAmountMin",
          "type": "uint256"
        },
        {
          "internalType": "uint256",
          "name": "assetAmountMin",
          "type": "uint256"
        },
        {
          "internalType": "uint256",
          "name": "minLiquidity",
          "type": "uint256"
        },
        {
          "internalType": "uint256",
          "name": "deadline",
          "type": "uint256"
        }
      ],
      "name": "boost2",
      "outputs": [],
      "stateMutability": "nonpayable",
      "type": "function"
    },
    {
      "inputs": [
        {
          "internalType": "address",
          "name": "token",
          "type": "address"
        },
        {
          "internalType": "uint256",
          "name": "tokenAmount",
          "type": "uint256"
        },
        {
          "internalType": "uint256",
          "name": "assetAmount",
          "type": "uint256"
        },
        {
          "internalType": "uint256",
          "name": "tokenAmountMin",
          "type": "uint256"
        },
        {
          "internalType": "uint256",
          "name": "assetAmountMin",
          "type": "uint256"
        },
        {
          "internalType": "uint256",
          "name": "minLiquidity",
          "type": "uint256"
        },
        {
          "internalType": "uint256",
          "name": "deadline",
          "type": "uint256"
        }
      ],
      "name": "boost3",
      "outputs": [],
      "stateMutability": "nonpayable",
      "type": "function"
    },
    {
      "inputs": [
        {
          "internalType": "address",
          "name": "",
          "type": "address"
        }
      ],
      "name": "boostInfo",
      "outputs": [
        {
          "internalType": "uint8",
          "name": "stage",
          "type": "uint8"
        }
      ],
      "stateMutability": "view",
      "type": "function"
    },
    {
      "inputs": [
        {
          "internalType": "uint256",
          "name": "",
          "type": "uint256"
        }
      ],
      "name": "boostInfos",
      "outputs": [
        {
          "internalType": "address",
          "name": "",
          "type": "address"
        }
      ],
      "stateMutability": "view",
      "type": "function"
    },
    {
      "inputs": [
        {
          "internalType": "uint8",
          "name": "",
          "type": "uint8"
        }
      ],
      "name": "boostStageThresholds",
      "outputs": [
        {
          "internalType": "uint256",
          "name": "",
          "type": "uint256"
        }
      ],
      "stateMutability": "view",
      "type": "function"
    },
    {
      "inputs": [
        {
          "internalType": "uint256",
          "name": "amountIn",
          "type": "uint256"
        },
        {
          "internalType": "address",
          "name": "tokenAddress",
          "type": "address"
        }
      ],
      "name": "buy",
      "outputs": [
        {
          "internalType": "bool",
          "name": "",
          "type": "bool"
        }
      ],
      "stateMutability": "nonpayable",
      "type": "function"
    },
    {
      "inputs": [
        {
          "internalType": "address",
          "name": "tokenAddress",
          "type": "address"
        }
      ],
      "name": "buyWithETH",
      "outputs": [
        {
          "internalType": "bool",
          "name": "",
          "type": "bool"
        }
      ],
      "stateMutability": "payable",
      "type": "function"
    },
    {
      "inputs": [
        {
          "internalType": "address",
          "name": "token",
          "type": "address"
        }
      ],
      "name": "calculateMarketCap",
      "outputs": [
        {
          "internalType": "uint256",
          "name": "",
          "type": "uint256"
        }
      ],
      "stateMutability": "nonpayable",
      "type": "function"
    },
    {
      "inputs": [
        {
          "internalType": "address",
          "name": "tokenAddr",
          "type": "address"
        },
        {
          "internalType": "address",
          "name": "delegatee",
          "type": "address"
        }
      ],
      "name": "delegateLPTo",
      "outputs": [],
      "stateMutability": "nonpayable",
      "type": "function"
    },
    {
      "inputs": [
        {
          "internalType": "address[]",
          "name": "tokens",
          "type": "address[]"
        },
        {
          "internalType": "address[]",
          "name": "delegatees",
          "type": "address[]"
        }
      ],
      "name": "delegateLPToBatch",
      "outputs": [],
      "stateMutability": "nonpayable",
      "type": "function"
    },
    {
      "inputs": [],
      "name": "extRouter",
      "outputs": [
        {
          "internalType": "contract IExtRouter",
          "name": "",
          "type": "address"
        }
      ],
      "stateMutability": "view",
      "type": "function"
    },
    {
      "inputs": [],
      "name": "factory",
      "outputs": [
        {
          "internalType": "contract INTFactory",
          "name": "",
          "type": "address"
        }
      ],
      "stateMutability": "view",
      "type": "function"
    },
    {
      "inputs": [],
      "name": "fee",
      "outputs": [
        {
          "internalType": "uint256",
          "name": "",
          "type": "uint256"
        }
      ],
      "stateMutability": "view",
      "type": "function"
    },
    {
      "inputs": [],
      "name": "feeTo",
      "outputs": [
        {
          "internalType": "address",
          "name": "",
          "type": "address"
        }
      ],
      "stateMutability": "view",
      "type": "function"
    },
    {
      "inputs": [],
      "name": "feeType",
      "outputs": [
        {
          "internalType": "uint256",
          "name": "",
          "type": "uint256"
        }
      ],
      "stateMutability": "view",
      "type": "function"
    },
    {
      "inputs": [],
      "name": "getBoostCount",
      "outputs": [
        {
          "internalType": "uint256",
          "name": "",
          "type": "uint256"
        }
      ],
      "stateMutability": "view",
      "type": "function"
    },
    {
      "inputs": [
        {
          "internalType": "address",
          "name": "token",
          "type": "address"
        }
      ],
      "name": "getBoostInfo",
      "outputs": [
        {
          "components": [
            {
              "internalType": "uint8",
              "name": "stage",
              "type": "uint8"
            }
          ],
          "internalType": "struct Bonding.BoostInfo",
          "name": "",
          "type": "tuple"
        }
      ],
      "stateMutability": "view",
      "type": "function"
    },
    {
      "inputs": [
        {
          "internalType": "bytes32",
          "name": "role",
          "type": "bytes32"
        }
      ],
      "name": "getRoleAdmin",
      "outputs": [
        {
          "internalType": "bytes32",
          "name": "",
          "type": "bytes32"
        }
      ],
      "stateMutability": "view",
      "type": "function"
    },
    {
      "inputs": [],
      "name": "getTokenCount",
      "outputs": [
        {
          "internalType": "uint256",
          "name": "",
          "type": "uint256"
        }
      ],
      "stateMutability": "view",
      "type": "function"
    },
    {
      "inputs": [
        {
          "internalType": "address",
          "name": "tokenAddress",
          "type": "address"
        }
      ],
      "name": "getTokenCreator",
      "outputs": [
        {
          "internalType": "address",
          "name": "",
          "type": "address"
        }
      ],
      "stateMutability": "view",
      "type": "function"
    },
    {
      "inputs": [
        {
          "internalType": "address",
          "name": "tokenAddress",
          "type": "address"
        }
      ],
      "name": "getTokenLocker",
      "outputs": [
        {
          "internalType": "address",
          "name": "",
          "type": "address"
        }
      ],
      "stateMutability": "view",
      "type": "function"
    },
    {
      "inputs": [],
      "name": "gradMarketCap",
      "outputs": [
        {
          "internalType": "uint256",
          "name": "",
          "type": "uint256"
        }
      ],
      "stateMutability": "view",
      "type": "function"
    },
    {
      "inputs": [
        {
          "internalType": "bytes32",
          "name": "role",
          "type": "bytes32"
        },
        {
          "internalType": "address",
          "name": "account",
          "type": "address"
        }
      ],
      "name": "grantRole",
      "outputs": [],
      "stateMutability": "nonpayable",
      "type": "function"
    },
    {
      "inputs": [
        {
          "internalType": "address",
          "name": "tokenAddress",
          "type": "address"
        }
      ],
      "name": "hasGraduated",
      "outputs": [
        {
          "internalType": "bool",
          "name": "",
          "type": "bool"
        }
      ],
      "stateMutability": "view",
      "type": "function"
    },
    {
      "inputs": [
        {
          "internalType": "bytes32",
          "name": "role",
          "type": "bytes32"
        },
        {
          "internalType": "address",
          "name": "account",
          "type": "address"
        }
      ],
      "name": "hasRole",
      "outputs": [
        {
          "internalType": "bool",
          "name": "",
          "type": "bool"
        }
      ],
      "stateMutability": "view",
      "type": "function"
    },
    {
      "inputs": [],
      "name": "initialMarketCap",
      "outputs": [
        {
          "internalType": "uint256",
          "name": "",
          "type": "uint256"
        }
      ],
      "stateMutability": "view",
      "type": "function"
    },
    {
      "inputs": [],
      "name": "initialSupply",
      "outputs": [
        {
          "internalType": "uint256",
          "name": "",
          "type": "uint256"
        }
      ],
      "stateMutability": "view",
      "type": "function"
    },
    {
      "inputs": [
        {
          "internalType": "address",
          "name": "assetToken_",
          "type": "address"
        },
        {
          "internalType": "address",
          "name": "factory_",
          "type": "address"
        },
        {
          "internalType": "address",
          "name": "feeTo_",
          "type": "address"
        },
        {
          "internalType": "uint256",
          "name": "fee_",
          "type": "uint256"
        },
        {
          "internalType": "uint256",
          "name": "initialSupply_",
          "type": "uint256"
        },
        {
          "internalType": "address",
          "name": "extRouter_",
          "type": "address"
        },
        {
          "internalType": "address",
          "name": "tokenFactory_",
          "type": "address"
        },
        {
          "internalType": "address",
          "name": "lockFactory_",
          "type": "address"
        },
        {
          "internalType": "uint256",
          "name": "lockedTime_",
          "type": "uint256"
        },
        {
          "internalType": "address",
          "name": "oracle_",
          "type": "address"
        },
        {
          "internalType": "uint256",
          "name": "initialMarketCap_",
          "type": "uint256"
        },
        {
          "internalType": "uint256",
          "name": "gradMarketCap_",
          "type": "uint256"
        },
        {
          "internalType": "uint256",
          "name": "feeType_",
          "type": "uint256"
        }
      ],
      "name": "initialize",
      "outputs": [],
      "stateMutability": "nonpayable",
      "type": "function"
    },
    {
      "inputs": [
        {
          "internalType": "address",
          "name": "token",
          "type": "address"
        }
      ],
      "name": "isBoostToken",
      "outputs": [
        {
          "internalType": "bool",
          "name": "",
          "type": "bool"
        }
      ],
      "stateMutability": "view",
      "type": "function"
    },
    {
      "inputs": [
        {
          "internalType": "string",
          "name": "_name",
          "type": "string"
        },
        {
          "internalType": "string",
          "name": "_ticker",
          "type": "string"
        },
        {
          "internalType": "uint8[]",
          "name": "cores",
          "type": "uint8[]"
        },
        {
          "internalType": "string",
          "name": "desc",
          "type": "string"
        },
        {
          "internalType": "string",
          "name": "img",
          "type": "string"
        },
        {
          "internalType": "string[4]",
          "name": "urls",
          "type": "string[4]"
        },
        {
          "internalType": "uint256",
          "name": "purchaseAmount",
          "type": "uint256"
        }
      ],
      "name": "launch",
      "outputs": [
        {
          "internalType": "address",
          "name": "",
          "type": "address"
        },
        {
          "internalType": "address",
          "name": "",
          "type": "address"
        },
        {
          "internalType": "uint256",
          "name": "",
          "type": "uint256"
        }
      ],
      "stateMutability": "nonpayable",
      "type": "function"
    },
    {
      "inputs": [
        {
          "internalType": "address",
          "name": "_creator",
          "type": "address"
        },
        {
          "internalType": "string",
          "name": "_name",
          "type": "string"
        },
        {
          "internalType": "string",
          "name": "_ticker",
          "type": "string"
        },
        {
          "internalType": "uint8[]",
          "name": "cores",
          "type": "uint8[]"
        },
        {
          "internalType": "string",
          "name": "desc",
          "type": "string"
        },
        {
          "internalType": "string",
          "name": "img",
          "type": "string"
        },
        {
          "internalType": "string[4]",
          "name": "urls",
          "type": "string[4]"
        },
        {
          "internalType": "uint256",
          "name": "purchaseAmount",
          "type": "uint256"
        }
      ],
      "name": "launchFor",
      "outputs": [
        {
          "internalType": "address",
          "name": "",
          "type": "address"
        },
        {
          "internalType": "address",
          "name": "",
          "type": "address"
        },
        {
          "internalType": "uint256",
          "name": "",
          "type": "uint256"
        }
      ],
      "stateMutability": "nonpayable",
      "type": "function"
    },
    {
      "inputs": [
        {
          "internalType": "address",
          "name": "_creator",
          "type": "address"
        },
        {
          "internalType": "string",
          "name": "_name",
          "type": "string"
        },
        {
          "internalType": "string",
          "name": "_ticker",
          "type": "string"
        },
        {
          "internalType": "uint8[]",
          "name": "cores",
          "type": "uint8[]"
        },
        {
          "internalType": "string",
          "name": "desc",
          "type": "string"
        },
        {
          "internalType": "string",
          "name": "img",
          "type": "string"
        },
        {
          "internalType": "string[4]",
          "name": "urls",
          "type": "string[4]"
        }
      ],
      "name": "launchForWithETH",
      "outputs": [
        {
          "internalType": "address",
          "name": "",
          "type": "address"
        },
        {
          "internalType": "address",
          "name": "",
          "type": "address"
        },
        {
          "internalType": "uint256",
          "name": "",
          "type": "uint256"
        }
      ],
      "stateMutability": "payable",
      "type": "function"
    },
    {
      "inputs": [
        {
          "internalType": "string",
          "name": "_name",
          "type": "string"
        },
        {
          "internalType": "string",
          "name": "_ticker",
          "type": "string"
        },
        {
          "internalType": "uint8[]",
          "name": "cores",
          "type": "uint8[]"
        },
        {
          "internalType": "string",
          "name": "desc",
          "type": "string"
        },
        {
          "internalType": "string",
          "name": "img",
          "type": "string"
        },
        {
          "internalType": "string[4]",
          "name": "urls",
          "type": "string[4]"
        }
      ],
      "name": "launchWithETH",
      "outputs": [
        {
          "internalType": "address",
          "name": "",
          "type": "address"
        },
        {
          "internalType": "address",
          "name": "",
          "type": "address"
        },
        {
          "internalType": "uint256",
          "name": "",
          "type": "uint256"
        }
      ],
      "stateMutability": "payable",
      "type": "function"
    },
    {
      "inputs": [],
      "name": "lockFactory",
      "outputs": [
        {
          "internalType": "contract LockFactory",
          "name": "",
          "type": "address"
        }
      ],
      "stateMutability": "view",
      "type": "function"
    },
    {
      "inputs": [],
      "name": "lockedTime",
      "outputs": [
        {
          "internalType": "uint256",
          "name": "",
          "type": "uint256"
        }
      ],
      "stateMutability": "view",
      "type": "function"
    },
    {
      "inputs": [],
      "name": "oracle",
      "outputs": [
        {
          "internalType": "contract IOracle",
          "name": "",
          "type": "address"
        }
      ],
      "stateMutability": "view",
      "type": "function"
    },
    {
      "inputs": [],
      "name": "owner",
      "outputs": [
        {
          "internalType": "address",
          "name": "",
          "type": "address"
        }
      ],
      "stateMutability": "view",
      "type": "function"
    },
    {
      "inputs": [],
      "name": "pendingOwner",
      "outputs": [
        {
          "internalType": "address",
          "name": "",
          "type": "address"
        }
      ],
      "stateMutability": "view",
      "type": "function"
    },
    {
      "inputs": [
        {
          "internalType": "address",
          "name": "token_",
          "type": "address"
        },
        {
          "internalType": "uint256",
          "name": "amountIn_",
          "type": "uint256"
        }
      ],
      "name": "quoteBuy",
      "outputs": [
        {
          "internalType": "uint256",
          "name": "",
          "type": "uint256"
        },
        {
          "internalType": "uint256",
          "name": "",
          "type": "uint256"
        }
      ],
      "stateMutability": "view",
      "type": "function"
    },
    {
      "inputs": [
        {
          "internalType": "address",
          "name": "token_",
          "type": "address"
        },
        {
          "internalType": "uint256",
          "name": "amountIn_",
          "type": "uint256"
        }
      ],
      "name": "quoteSell",
      "outputs": [
        {
          "internalType": "uint256",
          "name": "",
          "type": "uint256"
        },
        {
          "internalType": "uint256",
          "name": "",
          "type": "uint256"
        }
      ],
      "stateMutability": "view",
      "type": "function"
    },
    {
      "inputs": [],
      "name": "renounceOwnership",
      "outputs": [],
      "stateMutability": "nonpayable",
      "type": "function"
    },
    {
      "inputs": [
        {
          "internalType": "bytes32",
          "name": "role",
          "type": "bytes32"
        },
        {
          "internalType": "address",
          "name": "account",
          "type": "address"
        }
      ],
      "name": "renounceRole",
      "outputs": [],
      "stateMutability": "nonpayable",
      "type": "function"
    },
    {
      "inputs": [
        {
          "internalType": "bytes32",
          "name": "role",
          "type": "bytes32"
        },
        {
          "internalType": "address",
          "name": "account",
          "type": "address"
        }
      ],
      "name": "revokeRole",
      "outputs": [],
      "stateMutability": "nonpayable",
      "type": "function"
    },
    {
      "inputs": [
        {
          "internalType": "uint256",
          "name": "amountIn",
          "type": "uint256"
        },
        {
          "internalType": "address",
          "name": "tokenAddress",
          "type": "address"
        }
      ],
      "name": "sell",
      "outputs": [
        {
          "internalType": "bool",
          "name": "",
          "type": "bool"
        }
      ],
      "stateMutability": "nonpayable",
      "type": "function"
    },
    {
      "inputs": [
        {
          "internalType": "uint256",
          "name": "amountIn",
          "type": "uint256"
        },
        {
          "internalType": "address",
          "name": "tokenAddress",
          "type": "address"
        }
      ],
      "name": "sellForETH",
      "outputs": [
        {
          "internalType": "bool",
          "name": "success",
          "type": "bool"
        }
      ],
      "stateMutability": "nonpayable",
      "type": "function"
    },
    {
      "inputs": [
        {
          "internalType": "address",
          "name": "newAssetToken",
          "type": "address"
        }
      ],
      "name": "setAssetToken",
      "outputs": [],
      "stateMutability": "nonpayable",
      "type": "function"
    },
    {
      "inputs": [
        {
          "internalType": "uint8",
          "name": "stage",
          "type": "uint8"
        },
        {
          "internalType": "uint256",
          "name": "threshold",
          "type": "uint256"
        }
      ],
      "name": "setBoostStageThreshold",
      "outputs": [],
      "stateMutability": "nonpayable",
      "type": "function"
    },
    {
      "inputs": [
        {
          "internalType": "uint256[]",
          "name": "thresholds",
          "type": "uint256[]"
        }
      ],
      "name": "setBoostStageThresholds",
      "outputs": [],
      "stateMutability": "nonpayable",
      "type": "function"
    },
    {
      "inputs": [
        {
          "internalType": "address",
          "name": "newExtRouter",
          "type": "address"
        }
      ],
      "name": "setExtRouter",
      "outputs": [],
      "stateMutability": "nonpayable",
      "type": "function"
    },
    {
      "inputs": [
        {
          "internalType": "address",
          "name": "newFactory",
          "type": "address"
        }
      ],
      "name": "setFactory",
      "outputs": [],
      "stateMutability": "nonpayable",
      "type": "function"
    },
    {
      "inputs": [
        {
          "internalType": "uint256",
          "name": "newFee",
          "type": "uint256"
        },
        {
          "internalType": "address",
          "name": "newFeeTo",
          "type": "address"
        }
      ],
      "name": "setFee",
      "outputs": [],
      "stateMutability": "nonpayable",
      "type": "function"
    },
    {
      "inputs": [
        {
          "internalType": "uint256",
          "name": "newFeeType",
          "type": "uint256"
        }
      ],
      "name": "setFeeType",
      "outputs": [],
      "stateMutability": "nonpayable",
      "type": "function"
    },
    {
      "inputs": [
        {
          "internalType": "uint256",
          "name": "newMarketCap",
          "type": "uint256"
        }
      ],
      "name": "setGradMarketCap",
      "outputs": [],
      "stateMutability": "nonpayable",
      "type": "function"
    },
    {
      "inputs": [
        {
          "internalType": "uint256",
          "name": "newMarketCap",
          "type": "uint256"
        }
      ],
      "name": "setInitialMarketCap",
      "outputs": [],
      "stateMutability": "nonpayable",
      "type": "function"
    },
    {
      "inputs": [
        {
          "internalType": "uint256",
          "name": "newSupply",
          "type": "uint256"
        }
      ],
      "name": "setInitialSupply",
      "outputs": [],
      "stateMutability": "nonpayable",
      "type": "function"
    },
    {
      "inputs": [
        {
          "internalType": "address",
          "name": "newLockFactory",
          "type": "address"
        }
      ],
      "name": "setLockFactory",
      "outputs": [],
      "stateMutability": "nonpayable",
      "type": "function"
    },
    {
      "inputs": [
        {
          "internalType": "uint256",
          "name": "newLockedTime",
          "type": "uint256"
        }
      ],
      "name": "setLockedTime",
      "outputs": [],
      "stateMutability": "nonpayable",
      "type": "function"
    },
    {
      "inputs": [
        {
          "internalType": "address",
          "name": "newOracle",
          "type": "address"
        }
      ],
      "name": "setOracle",
      "outputs": [],
      "stateMutability": "nonpayable",
      "type": "function"
    },
    {
      "inputs": [
        {
          "internalType": "address",
          "name": "newTokenFactory",
          "type": "address"
        }
      ],
      "name": "setTokenFactory",
      "outputs": [],
      "stateMutability": "nonpayable",
      "type": "function"
    },
    {
      "inputs": [
        {
          "internalType": "bytes4",
          "name": "interfaceId",
          "type": "bytes4"
        }
      ],
      "name": "supportsInterface",
      "outputs": [
        {
          "internalType": "bool",
          "name": "",
          "type": "bool"
        }
      ],
      "stateMutability": "view",
      "type": "function"
    },
    {
      "inputs": [],
      "name": "tokenFactory",
      "outputs": [
        {
          "internalType": "contract INTERC20Factory",
          "name": "",
          "type": "address"
        }
      ],
      "stateMutability": "view",
      "type": "function"
    },
    {
      "inputs": [
        {
          "internalType": "address",
          "name": "",
          "type": "address"
        }
      ],
      "name": "tokenInfo",
      "outputs": [
        {
          "internalType": "address",
          "name": "creator",
          "type": "address"
        },
        {
          "internalType": "address",
          "name": "token",
          "type": "address"
        },
        {
          "internalType": "address",
          "name": "pair",
          "type": "address"
        },
        {
          "internalType": "address",
          "name": "locker",
          "type": "address"
        },
        {
          "internalType": "string",
          "name": "description",
          "type": "string"
        },
        {
          "internalType": "string",
          "name": "image",
          "type": "string"
        },
        {
          "internalType": "string",
          "name": "twitter",
          "type": "string"
        },
        {
          "internalType": "string",
          "name": "telegram",
          "type": "string"
        },
        {
          "internalType": "string",
          "name": "farcaster",
          "type": "string"
        },
        {
          "internalType": "string",
          "name": "website",
          "type": "string"
        },
        {
          "internalType": "enum Bonding.TokenStatus",
          "name": "status",
          "type": "uint8"
        }
      ],
      "stateMutability": "view",
      "type": "function"
    },
    {
      "inputs": [
        {
          "internalType": "uint256",
          "name": "",
          "type": "uint256"
        }
      ],
      "name": "tokenInfos",
      "outputs": [
        {
          "internalType": "address",
          "name": "",
          "type": "address"
        }
      ],
      "stateMutability": "view",
      "type": "function"
    },
    {
      "inputs": [
        {
          "internalType": "address",
          "name": "newOwner",
          "type": "address"
        }
      ],
      "name": "transferOwnership",
      "outputs": [],
      "stateMutability": "nonpayable",
      "type": "function"
    },
    {
      "inputs": [],
      "name": "weth",
      "outputs": [
        {
          "internalType": "address",
          "name": "",
          "type": "address"
        }
      ],
      "stateMutability": "view",
      "type": "function"
    },
    {
      "stateMutability": "payable",
      "type": "receive"
    }
  ],
  "transactionHash": "0xca89e60ba6a3025684b8b4f53f1b4c66cd8a93d62c986fb8f5d92d0917f51740",
  "args": [
    "0xbb4CdB9CBd36B01bD1cBaEBF2De08d9173bc095c"
  ],
  "numDeployments": 1,
  "solcInputHash": "965899d4604f654232a395523596359a",
  "bytecode": "0x60a0346200012257601f62005c2038819003918201601f19168301916001600160401b0383118484101762000126578084926020946040528339810103126200012257516001600160a01b038116810362000122575f5460ff8160081c16620000cd5760ff8082160362000092575b50608052604051615ae590816200013b8239608051818181610b950152611c960152f35b60ff90811916175f557f7f26b83ff96e1f2b6a682f133852f6798a09c465da95921460cefb3847402498602060405160ff8152a15f6200006e565b60405162461bcd60e51b815260206004820152602760248201527f496e697469616c697a61626c653a20636f6e747261637420697320696e697469604482015266616c697a696e6760c81b6064820152608490fd5b5f80fd5b634e487b7160e01b5f52604160045260245ffdfe60a060408181526004918236101561007d575b50361561005c57906020606492519162461bcd60e51b8352820152602060248201527f44697265637420455448207472616e7366657273206e6f7420616c6c6f7765646044820152fd5b610134546001600160a01b0316330361007157005b516282b42960e81b8152fd5b5f90813560e01c908163017e7e58146123985750806301b964d21461232857806301ffc9a7146122d257806302b6b15a146121fc5780630d63237f146121a55780630d7a94f6146121415780631083f7611461211757806318b74a8c146120c85780631db9be1b1461209e578063248a9ca31461207357806326bde5aa146120035780632f2ff15d14611f565780632f73a9f814611ee657806336568abe14611e555780633744cfdd14611dd0578063378dc3dc14611db05780633b5f193514611d905780633c0b93aa14611cc55780633fc8cef314611c8157806341344d5d14611c545780634189a68e14611c29578063444aa92f14611bac578063456f5e1514611ad65780634d86030314611a96578063548186051461198a5780635823892a146118de5780635bb478081461186e5780635e7b8d951461174d5780635edb9eb01461172d57806361402596146116de578063715018a61461160a57806372641aa6146115d857806377796ace1461156857806378a895671461154857806379ba5097146114c25780637adbf973146113d75780637c13774b146113805780637dc0d1d0146113565780637deb6025146113225780637f7ee431146112435780638da5cb5b1461121a5780638f876f8c146110c957806391d1485414611082578063a217fddf14611067578063a240de031461103d578063a3e01ce314610f01578063a8b3820514610ee1578063ae29d56814610eaf578063b4f2e8b814610e35578063b758ba8814610dfa578063bc2db5d214610acd578063c17ac35a14610a75578063c1ba290714610a55578063c45a015514610a2b578063c75ed644146109cf578063c78418b914610993578063d547741f14610957578063d723a3d21461091a578063d98b2f5c1461084d578063ddca3f431461082d578063df1dcaa9146107c1578063e30c397814610798578063e77772fe1461076e578063e84ca7cb1461072f578063ee3cd15b14610683578063f2fde38b14610615578063f5dab711146104ce578063f943ce0714610468578063fa1653bd14610404578063fb8dc179146103e05763feab61eb036100125791346103dc57816003193601126103dc576103ab61251a565b916103b4612baa565b600360ff8416116103cf57836103cc602435856156b1565b80f35b5163e82a532960e01b8152fd5b8280fd5b50903461040057816003193601126104005760209061013e549051908152f35b5080fd5b50829034610465576020366003190112610465576001600160a01b036104286123be565b16815261013560205260ff600b848320015416916003831015610452576020836002865191148152f35b634e487b7160e01b825260219052602490fd5b80fd5b509190346103dc5760203660031901126103dc57813591610487612baa565b82156104c05750816020917f51dfcc99f9c590c7a4bcf74fc4e9ae6b407ec6689eb354e3215563a0b5bcd00d9361013c5551908152a180f35b90516338c51d2560e21b8152fd5b5034610465576020366003190112610465576001600160a01b03806104f16123be565b168252610135602052828220818154169382600183015416928060028401541690600384015416878401610524906126a2565b610530600686016126a2565b9061053d600787016126a2565b9261054a600888016126a2565b94610557600989016126a2565b96610564600a8a016126a2565b98600b015460ff169981519c8d5260208d01528b015260608a01526101608060808b0152890161059391612764565b88810360a08a01526105a491612764565b87810360c08901526105b591612764565b86810360e08801526105c691612764565b8581036101008701526105d891612764565b8481036101208601526105ea91612764565b91600382101561060257508293506101408301520390f35b634e487b7160e01b815260218552602490fd5b50346104655760203660031901126104655761062f6123be565b610637612baa565b609780546001600160a01b0319166001600160a01b039283169081179091556065549091167f38d16b8cac22d99fc7c124b9cd0de2d3fa1faef420bfe791d8c362d765e227008380a380f35b50346104655781600319360112610465576106aa61069f6123d8565b30903390863561422a565b61013454909291506001600160a01b0316803b15610400578180916024865180948193632e1a7d4d60e01b8352888b8401525af1801561072557610716575b5080808093335af16106f9613678565b5015610709576020905160018152f35b5163b12d13eb60e01b8152fd5b61071f906123ee565b5f6106e9565b84513d84823e3d90fd5b5090346104005760203660031901126104005760209160ff9082906001600160a01b0361075a6123be565b168152610137855220541615159051908152f35b50903461040057816003193601126104005761012f5490516001600160a01b039091168152602090f35b50903461040057816003193601126104005760975490516001600160a01b039091168152602090f35b509190346103dc5760203660031901126103dc578135916107e0612baa565b6301e1338083111561081f5750816020917fbeaba78e9fea37c532e9c93af5e8e120a48902131aeb7d3146e3ca49dec45a239361013a5551908152a180f35b905163abf20e8f60e01b8152fd5b509034610400578160031936011261040057602090610132549051908152f35b508234610400578260031936011261040057826108686123be565b61012e5461013454835163a6b8918760e01b81526001600160a01b03928316958101958652908216602086015291166040840152602435606084015291829081906080015b0381736FAbAC8069BC09cAD727fe49157ad69729222e8B5af49081156109105782916108e1575b5082519182526020820152f35b90506109039150823d8411610909575b6108fb8183612481565b810190612f26565b836108d4565b503d6108f1565b83513d84823e3d90fd5b5090346104005760203660031901126104005760209160ff9082906001600160a01b036109456123be565b16815261013785522054169051908152f35b509190346103dc57806003193601126103dc576103cc913561098e600161097c6123d8565b9383875260fb602052862001546129a2565b612b35565b509034610400576020366003190112610400576020916001600160a01b03908290826109bd6123be565b16815261013585522054169051908152f35b509190346103dc5760203660031901126103dc578135916109ee612baa565b61013c5483106104c05750816020917fc598615f3cd2c393145f278de5a6921fd815849d1ee5aab7b66bdda0efb33ada9361013d5551908152a180f35b50903461040057816003193601126104005761012e5490516001600160a01b039091168152602090f35b50903461040057816003193601126104005760209061013d549051908152f35b5090346104005760203660031901126104005780602092610a946123be565b818351610aa081612415565b526001600160a01b031681526101378452208151919060ff90610ac284612415565b541680925251908152f35b5091346103dc576101a03660031901126103dc57610ae96123be565b610af16123d8565b906044356001600160a01b0381168103610df65760a435916001600160a01b0383168303610df25760c435926001600160a01b0384168403610dee5760e435926001600160a01b0384168403610dea5761012435936001600160a01b0385168503610de65789549760ff8960081c16159889809a610dd9575b8015610dc2575b610b7a906159ec565b60ff1981166001178c5589610db1575b506001600160a01b037f0000000000000000000000000000000000000000000000000000000000000000811690861603610da3575089549560ff8760081c161596878098610d96575b8015610d7f575b610be3906159ec565b60ff1981166001178c5587610d6e575b50610c0d60ff8c5460081c16610c0881615a4f565b615a4f565b610c1633612d49565b8a5497610c3e60ff8a60081c16610c2c81615a4f565b610c3581615a4f565b60018055615a4f565b61013480546001600160a01b03199081166001600160a01b039889161790915561012e805482169288169290921790915561012f8054821692871692909217909155610130805482169286169290921790915561012d8054821692851692909217909155606435610132556084356101315561013380548216928416929092179091556101043561013a5561013b8054909116929091169190911790556101443561013c556101643561013d556101843561013e55610d37575b50610d01575080f35b60207f7f26b83ff96e1f2b6a682f133852f6798a09c465da95921460cefb38474024989161ff001984541684555160018152a180f35b61ff00191683557f7f26b83ff96e1f2b6a682f133852f6798a09c465da95921460cefb38474024986020835160018152a15f610cf8565b61ffff1916610101178b555f610bf3565b50303b158015610bda575060ff8116600114610bda565b50600160ff821610610bd3565b8951633bb31a5160e21b8152fd5b61ffff1916610101178b555f610b8a565b50303b158015610b71575060ff8116600114610b71565b50600160ff821610610b6a565b8980fd5b8880fd5b8780fd5b8680fd5b8580fd5b509034610400578160031936011261040057602090517f62229496573be0b0846a2fb48a94de962b501adb0b8eaf7f99924b10a81a19fe8152f35b509190346103dc57806003193601126103dc577fc8242dc5446855370b781abbfc5d882af1d1a3cc29143216aba3558feb0ce9259135610e736123d8565b610e7b612baa565b61013282905561012d80546001600160a01b0319166001600160a01b0392909216918217905582519182526020820152a180f35b509034610400576020366003190112610400578060209260ff610ed061251a565b168152610139845220549051908152f35b50903461040057816003193601126104005760209061013a549051908152f35b5091346103dc57610f1136612630565b94610f23989698949194939293612789565b6001600160a01b03898116808c52610137602052888c208054919b909a909291610f4f9060ff16615168565b60ff1660020361102f578c8a610f6485615754565b9160028152610139602052205411611021575092610ff295928b7f4e8e1b96afa9116446f71ff323ac93786664fcbea87475ece33519357750f7909b9996938b99968f9c8d8460609f5261013560205220908060028160038501541693610fe68861013498610fde8c878c54168861012d5416309161352e565b87309161352e565b015416935416926151be565b92915092805460ff61100581831661517a565b169060ff1916179055805192600284526020840152820152a280f35b8951639dc93e9f60e01b8152fd5b8951636dfb3ae160e01b8152fd5b5090346104005781600319360112610400576101335490516001600160a01b039091168152602090f35b50903461040057816003193601126104005751908152602090f35b5091346103dc57816003193601126103dc578160209360ff926110a36123d8565b9035825260fb86528282206001600160a01b039091168252855220549151911615158152f35b5060c0366003190112610465576001600160401b03908335828111610400576110f590369086016124bd565b906024358381116104005761110d90369087016124bd565b926044358181116103dc57611125903690880161252a565b956064358281116112165761113d90369083016124bd565b906084358381116112125761115590369083016124bd565b9260a4359081116112125761116d9036908301612592565b93611176612e16565b610134546001600160a01b0316803b15610400578190895193848092630d0e30db60e41b825234905af19081156112075750916111f4989593916111c89795936111f8575b5033953095349533612f83565b6001805592516001600160a01b0392831681529116602082015260408101919091529081906060820190565b0390f35b611201906123ee565b5f6111bb565b8851903d90823e3d90fd5b8480fd5b8380fd5b50903461040057816003193601126104005760655490516001600160a01b039091168152602090f35b508234610400576101a03660031901126104005761125f6123be565b6001600160401b03906024358281116112125761127f90369085016124bd565b604435838111610df65761129690369086016124bd565b606435848111610df2576112ad903690870161252a565b91608435858111610dee576112c590369088016124bd565b9360a435868111610dea576112dd90369089016124bd565b9560c435908111610dea576103cc976112f891369101612592565b611300612789565b6101843596610164359661014435966101243596610104359660e43596614c1e565b50346104655781600319360112610465575061134d6020926113426123d8565b903391339135614313565b50505160018152f35b50903461040057816003193601126104005761013b5490516001600160a01b039091168152602090f35b5091346103dc5760203660031901126103dc57356101368054821015611216576020935260018060a01b03907f39da2db355130acf428d669fbf1c14faa9d51399a25b793fc254bbbde66f02e20154169051908152f35b50903461040057602090816003193601126103dc576113f46123be565b906113fd612baa565b61013454815163fc57d4df60e01b81526001600160a01b0391821687820152921691838160248188875af19081156114b857859161148b575b501561147c5761013b80546001600160a01b03191683179055519081529192507f3f32684a32a11dabdbb8c0177de80aa3ae36a004d75210335b49e544e48cd0aa91a180f35b51639589a27d60e01b81528490fd5b90508381813d83116114b1575b6114a28183612481565b8101031261121257515f611436565b503d611498565b82513d87823e3d90fd5b509190346103dc57826003193601126103dc57609754336001600160a01b03909116036114f357826103cc33612d49565b906020608492519162461bcd60e51b8352820152602960248201527f4f776e61626c6532537465703a2063616c6c6572206973206e6f7420746865206044820152683732bb9037bbb732b960b91b6064820152fd5b509034610400578160031936011261040057602090610136549051908152f35b5090346104005760203660031901126104005760207f0454b4498edcb0a2c7058cfd107bb0e6551b3820f891c725db307ed66e740f20916115a76123be565b6115af612baa565b61013380546001600160a01b0319166001600160a01b039290921691821790559051908152a180f35b50903461040057366003190112610465576103cc6115f46123be565b6115fc6123d8565b90611605612baa565b614b3e565b509034610400578160031936011261040057611624612baa565b60655482906001600160a01b039061163d908216612aab565b6001600160601b0360a01b8060975416609755606554908116606555167f8be0079c531659141344cd1fd0a4f28419497f9722a3daafe3b4186f6b6457e08280a381805260fb60205280822060205260ff81832054161561169c575080f35b60fb6020528082206020528120600160ff198254161790553381807f2f8788117e7eff1d82e926ec794901d17c78024a50270940304540a733656f0d8180a480f35b5091346103dc5760203660031901126103dc577fedbbbd0f3b9ac5d8f4d9142fe0b31c73d786619eab0d7f8df600fe84282a4d43916020913590611720612baa565b816101315551908152a180f35b509034610400578160031936011261040057602090610138549051908152f35b5060e0366003190112610465576117626123be565b6001600160401b03916024358381116104005761178290369087016124bd565b926044358181116103dc5761179a90369088016124bd565b95606435828111611216576117b2903690830161252a565b608435838111611212576117c990369084016124bd565b9160a435848111610df6576117e190369083016124bd565b9360c435908111610df6576117f99036908301612592565b94611802612e16565b610134546001600160a01b0316803b156104005781908a5193848092630d0e30db60e41b825234905af19081156118635750916111c8979593916111f49a979593611854575b50339630963496612f83565b61185d906123ee565b5f611848565b8951903d90823e3d90fd5b5090346104005760203660031901126104005760207f1edf3afd4ac789736e00d216cd88be164ddcef26a6eedcc30cdb0cb62f3741b1916118ad6123be565b6118b5612baa565b61012e80546001600160a01b0319166001600160a01b039290921691821790559051908152a180f35b509190346103dc57806003193601126103dc576001600160401b03918035838111611212576119109036908301612600565b9093602435908111610df6576119299036908401612600565b929093611934612baa565b83830361197d575050845b81811061194a578580f35b8061197761196361195e600194868a614bfa565b614c0a565b61197161195e84888a614bfa565b90614b3e565b0161193f565b516305e8333d60e11b8152fd5b5091346103dc5761199a36612630565b946119ac989698949194939293612789565b6001600160a01b03898116808c52610137602052888c208054919b909a9092916119d89060ff16615168565b60ff1660030361102f578c8a6119ed85615754565b9160038152610139602052205411611021575092611a6795928b7f4e8e1b96afa9116446f71ff323ac93786664fcbea87475ece33519357750f7909b9996938b99968f9c8d8460609f5261013560205220908060028160038501541693610fe68861013498610fde8c878c54168861012d5416309161352e565b92915092805460ff611a7a81831661517a565b169060ff1916179055805192600384526020840152820152a280f35b509034610400576020366003190112610400576020916001600160a01b0390600390839083611ac36123be565b1681526101358652200154169051908152f35b50346104655761010036600319011261046557611af16123be565b6001600160401b039360243585811161121657611b1190369083016124bd565b9260443586811161040057611b2990369084016124bd565b956064358181116103dc57611b41903690850161252a565b9260843582811161121657611b5990369083016124bd565b9160a43581811161121257611b7190369084016124bd565b9360c435918211610465575091611b966111f4999694926111c8989694369101612592565b92611b9f612e16565b3396339660e43596612f83565b509160203660031901126103dc57611bc26123be565b610134549093906001600160a01b0316803b15610400578190845193848092630d0e30db60e41b825234905af1908115611c1e57509261134d91602094611c0f575b503390309034614313565b611c18906123ee565b5f611c04565b8351903d90823e3d90fd5b50346104655781600319360112610465575061134d602092611c496123d8565b90339133913561422a565b50903461040057602036600319011261040057602090611c7a611c756123be565b615754565b9051908152f35b509034610400578160031936011261040057517f00000000000000000000000000000000000000000000000000000000000000006001600160a01b03168152602090f35b50346104655760e0366003190112610465576001600160401b0383358181116103dc57611cf590369086016124bd565b9060243581811161121657611d0d90369087016124bd565b9260443582811161040057611d25903690880161252a565b956064358381116103dc57611d3d90369083016124bd565b9260843581811161121657611d5590369084016124bd565b9260a435918211610465575091611d796111c89694926111f4999694369101612592565b91611d82612e16565b3395339560c4359533612f83565b50903461040057816003193601126104005760209061013c549051908152f35b509034610400578160031936011261040057602090610131549051908152f35b5090346104005760203660031901126104005782356001600160401b0381116103dc57611e009036908501612600565b9093611e0a612baa565b60039283830361197d575050825b60ff811683811015611e515790611e47611e4c92611e40611e3884615168565b91868a614bfa565b35906156b1565b61517a565b611e18565b8480f35b508234610400578260031936011261040057611e6f6123d8565b90336001600160a01b03831603611e8b57906103cc9135612b35565b608490602085519162461bcd60e51b8352820152602f60248201527f416363657373436f6e74726f6c3a2063616e206f6e6c792072656e6f756e636560448201526e103937b632b9903337b91039b2b63360891b6064820152fd5b5090346104005760203660031901126104005760207fcf4be1c851767114c1f4b298dc84eab48d103473908393f6d408c82ba7cda0e891611f256123be565b611f2d612baa565b61012f80546001600160a01b0319166001600160a01b039290921691821790559051908152a180f35b5091346103dc57816003193601126103dc573590611f726123d8565b9082845260fb602052611f8a600182862001546129a2565b82845260fb60209081528185206001600160a01b039093168086529290528084205460ff1615611fb8578380f35b82845260fb6020528084208285526020528320600160ff1982541617905533917f2f8788117e7eff1d82e926ec794901d17c78024a50270940304540a733656f0d8480a45f80808380f35b5090346104005760203660031901126104005760207fbdaa8f7ade01473981aef419539e6c190d409f50b144a7a796efd2777607920c916120426123be565b61204a612baa565b61013480546001600160a01b0319166001600160a01b039290921691821790559051908152a180f35b5091346103dc5760203660031901126103dc578160209360019235815260fb85522001549051908152f35b5090346104005781600319360112610400576101305490516001600160a01b039091168152602090f35b5091346103dc5760203660031901126103dc577f331a39a6518952c9d923c75bc89cd4d27c2a3cf1ee4295c830e41dca8168eb8291602091359061210a612baa565b8161013e5551908152a180f35b5090346104005781600319360112610400576101345490516001600160a01b039091168152602090f35b5082346104005782600319360112610400578261215c6123be565b61012e54610134548351631d486c9760e21b81526001600160a01b03928316958101958652908216602086015291166040840152602435606084015291829081906080016108ad565b5091346103dc5760203660031901126103dc57356101388054821015611216576020935260018060a01b03907ff79a63dcec80ed75c82f36161f17b9c2f407860160383a7be0a0ee7962c527ae0154169051908152f35b50823461040057610180366003190112610400576001600160401b0381358181116112165761222e90369084016124bd565b906024358181116112125761224690369085016124bd565b604435828111610df65761225d903690860161252a565b606435838111610df25761227490369087016124bd565b91608435848111610dee5761228c90369088016124bd565b9360a435908111610dee576103cc966122a791369101612592565b946122b0612789565b610164359561014435956101243595610104359560e4359560c4359533614c1e565b5091346103dc5760203660031901126103dc57359063ffffffff60e01b82168092036103dc5760209250637965db0b60e01b8214918215612317575b50519015158152f35b6301ffc9a760e01b1491505f61230e565b5090346104005760203660031901126104005760207f3587ea62a24fc6959886ef88a458920ef0762b7ecbae1e87892c731869362d69916123676123be565b61236f612baa565b61013080546001600160a01b0319166001600160a01b039290921691821790559051908152a180f35b90503461040057816003193601126104005761012d546001600160a01b03168152602090f35b600435906001600160a01b03821682036123d457565b5f80fd5b602435906001600160a01b03821682036123d457565b6001600160401b03811161240157604052565b634e487b7160e01b5f52604160045260245ffd5b602081019081106001600160401b0382111761240157604052565b606081019081106001600160401b0382111761240157604052565b604081019081106001600160401b0382111761240157604052565b608081019081106001600160401b0382111761240157604052565b90601f801991011681019081106001600160401b0382111761240157604052565b6001600160401b03811161240157601f01601f191660200190565b81601f820112156123d4578035906124d4826124a2565b926124e26040519485612481565b828452602083830101116123d457815f926020809301838601378301015290565b6001600160401b0381116124015760051b60200190565b6004359060ff821682036123d457565b81601f820112156123d45780359161254183612503565b9261254f6040519485612481565b808452602092838086019260051b8201019283116123d4578301905b828210612579575050505090565b813560ff811681036123d457815290830190830161256b565b9080601f830112156123d457604051916001600160401b036080840181811185821017612401576040528360808301928484116123d45780915b8483106125dc5750505050505090565b82358481116123d4576020916125f588849386016124bd565b8152019201916125cc565b9181601f840112156123d4578235916001600160401b0383116123d4576020808501948460051b0101116123d457565b60e09060031901126123d4576004356001600160a01b03811681036123d457906024359060443590606435906084359060a4359060c43590565b90600182811c92168015612698575b602083101461268457565b634e487b7160e01b5f52602260045260245ffd5b91607f1691612679565b9060405191825f8254926126b58461266a565b9081845260019485811690815f1461272057506001146126e0575b50506126de92500383612481565b565b909391505f52602090815f20935f915b8183106127085750506126de93508201015f806126d0565b855488840185015294850194879450918301916126f0565b9150506126de94506020925060ff191682840152151560051b8201015f806126d0565b5f5b8381106127545750505f910152565b8181015183820152602001612745565b9060209161277d81518092818552858086019101612743565b601f01601f1916010190565b335f9081527f08f584bb5334faafa280854191c286de8f907d6af8dd5e653110c56d426e0054602090815260408083205490927f62229496573be0b0846a2fb48a94de962b501adb0b8eaf7f99924b10a81a19fe9160ff16156127ec5750505050565b6127f533612c4e565b9184519061280282612466565b6042825284820192606036853782511561298e576030845382519060019182101561298e5790607860218501536041915b818311612921575050506128df5760486128db9386936128bf936128b0985198899376020b1b1b2b9b9a1b7b73a3937b61d1030b1b1b7bab73a1604d1b8a860152612887815180928c603789019101612743565b8401917001034b99036b4b9b9b4b733903937b6329607d1b603784015251809386840190612743565b01036028810187520185612481565b5192839262461bcd60e51b845260048401526024830190612764565b0390fd5b60648486519062461bcd60e51b825280600483015260248201527f537472696e67733a20686578206c656e67746820696e73756666696369656e746044820152fd5b909192600f8116601081101561297a576f181899199a1a9b1b9c1cb0b131b232b360811b901a6129518587612c29565b5360041c928015612966575f19019190612833565b634e487b7160e01b82526011600452602482fd5b634e487b7160e01b83526032600452602483fd5b634e487b7160e01b81526032600452602490fd5b5f9080825260209060fb8252604092838120338252835260ff8482205416156129cb5750505050565b6129d433612c4e565b918451906129e182612466565b6042825284820192606036853782511561298e576030845382519060019182101561298e5790607860218501536041915b818311612a66575050506128df5760486128db9386936128bf936128b0985198899376020b1b1b2b9b9a1b7b73a3937b61d1030b1b1b7bab73a1604d1b8a860152612887815180928c603789019101612743565b909192600f8116601081101561297a576f181899199a1a9b1b9c1cb0b131b232b360811b901a612a968587612c29565b5360041c928015612966575f19019190612a12565b6001600160a01b03165f8181527fc88390e7e62175be0932452175b6a7222b6b094ab0ef984a5153c620345d8975602052604081205490919060ff16612aef575050565b81805260fb602052604082208183526020526040822060ff19815416905533917ff6391f5c32d9c69d2a47ea670b442974b53935d1edc7fd64eb21e047a839171b8180a4565b905f9180835260fb602052604083209160018060a01b03169182845260205260ff604084205416612b6557505050565b80835260fb602052604083208284526020526040832060ff1981541690557ff6391f5c32d9c69d2a47ea670b442974b53935d1edc7fd64eb21e047a839171b339380a4565b6065546001600160a01b03163303612bbe57565b606460405162461bcd60e51b815260206004820152602060248201527f4f776e61626c653a2063616c6c6572206973206e6f7420746865206f776e65726044820152fd5b81810292918115918404141715612c1557565b634e487b7160e01b5f52601160045260245ffd5b908151811015612c3a570160200190565b634e487b7160e01b5f52603260045260245ffd5b60405190612c5b82612430565b602a8252602082016040368237825115612c3a57603090538151600190811015612c3a57607860218401536029905b808211612cde575050612c9a5790565b606460405162461bcd60e51b815260206004820152602060248201527f537472696e67733a20686578206c656e67746820696e73756666696369656e746044820152fd5b9091600f81166010811015612d35576f181899199a1a9b1b9c1cb0b131b232b360811b901a612d0d8486612c29565b5360041c918015612d21575f190190612c8a565b60245f634e487b7160e01b81526011600452fd5b60245f634e487b7160e01b81526032600452fd5b6065546001600160a01b0390612d60908216612aab565b6001600160601b0360a01b8060975416609755816065549316918280928516176065555f93167f8be0079c531659141344cd1fd0a4f28419497f9722a3daafe3b4186f6b6457e08480a381805260fb6020526040822081835260205260ff60408320541615612dcd575050565b81805260fb6020526040822081835260205260408220600160ff1982541617905533917f2f8788117e7eff1d82e926ec794901d17c78024a50270940304540a733656f0d8180a4565b600260015414612e27576002600155565b60405162461bcd60e51b815260206004820152601f60248201527f5265656e7472616e637947756172643a207265656e7472616e742063616c6c006044820152606490fd5b51906001600160a01b03821682036123d457565b805115612c3a5760200190565b805160011015612c3a5760400190565b9081518082526020808093019301915f5b828110612ebc575050505090565b83516001600160a01b031685529381019392810192600101612eae565b9091612ef0612f0593606084526060840190612e9d565b91600160208201526040818403910152612764565b90565b8115612f12570490565b634e487b7160e01b5f52601260045260245ffd5b91908260409103126123d4576020825192015190565b91908203918211612c1557565b6001600160a01b0391821681529181166020830152604082019290925291811660608301529182166080820152911660a082015260c00190565b92969893999795919994909461013454975f9b8c8a60208b6024604051809481936370a0823160e01b835260018060a01b0316600483015260018060a01b03165afa908115613523578e92916134ea575b50106134d8578c97612ff396610132549b8c806134b5575b5050613756565b61012e54610134546040516364e329cb60e11b81526001600160a01b0380851660048301529182166024820152999296926020928b9260449284929091165af19788156134aa57839861346e575b5060405161304e81612430565b600281526040366020830137610134546001600160a01b031661307082612e80565b526001600160a01b03861661308482612e8d565b526101335460405163c45a015560e01b815290602090829060049082906001600160a01b03165afa908115613463578591613421575b506130f89160209161013e549160405192848401528383526130db8361244b565b87604051809681958294632a422c2b60e21b845260048401612ed9565b03926001600160a01b03165af18015613375576133e8575b506001600160a01b0385163b156103dc57604051631e59818360e31b81526001600160a01b03898116600483015284908290602490829084908b165af18015613375576133d5575b5061013c54670de0b6b3a764000081818102048114821517156133c15761013b546101345460405163fc57d4df60e01b81526001600160a01b039182166004820152939291602091859160249183918b91165af19182156133b6578692613380575b6131c5935002612f08565b61012e54610134546101315460408051630afbf7f360e01b81526001600160a01b03948516600482015292841660248401529289166044830152606482015260848101929092528160a481736FAbAC8069BC09cAD727fe49157ad69729222e8B5af4801561337557906132b19291613357575b506001600160a01b038681168086526101356020908152604080882060020180546001600160a01b031916948e16948517905561013654815181815292830189905242918301919091529a9291907f58d1495ede629d89cfe4c00a5ad620a9ba231de4b1a5040c7b355d43092ff86b90606090a3612f3c565b92836132c1575b50505050929190565b61012e546101345460408051633c529ea760e01b8152969094879485946132ff94929391928b92916001600160a01b03918216911660048801612f49565b0381736FAbAC8069BC09cAD727fe49157ad69729222e8B5af490811561334b575061332d575b8080806132b8565b6133459060403d604011610909576108fb8183612481565b50613325565b604051903d90823e3d90fd5b61336f9060403d604011610909576108fb8183612481565b50613238565b6040513d86823e3d90fd5b91506020833d6020116133ae575b8161339b60209383612481565b810103126123d4576131c59251916131ba565b3d915061338e565b6040513d88823e3d90fd5b634e487b7160e01b85526011600452602485fd5b6133e1909391936123ee565b915f613158565b6020813d602011613419575b8161340160209383612481565b810103126112165761341290612e6c565b505f613110565b3d91506133f4565b90506020813d60201161345b575b8161343c60209383612481565b81010312611212576130f891613453602092612e6c565b9150916130ba565b3d915061342f565b6040513d87823e3d90fd5b9097506020813d6020116134a2575b8161348a60209383612481565b810103126103dc5761349b90612e6c565b965f613041565b3d915061347d565b6040513d85823e3d90fd5b61012d546134d1926001600160a01b03918216918f911661352e565b5f8c612fec565b604051632ca2f52b60e11b8152600490fd5b9150506020813d60201161351b575b8161350660209383612481565b81010312613517578c90515f612fd4565b8d80fd5b3d91506134f9565b6040513d84823e3d90fd5b6040516323b872dd60e01b60208201526001600160a01b03928316602482015292909116604483015260648201929092526126de9161357a82608481015b03601f198101845283612481565b61358c565b519081151582036123d457565b6040516135e9916001600160a01b03166135a58261244b565b5f806020958685527f5361666545524332303a206c6f772d6c6576656c2063616c6c206661696c656487860152868151910182855af16135e3613678565b916136a7565b8051828115918215613659575b50509050156136025750565b6084906040519062461bcd60e51b82526004820152602a60248201527f5361666545524332303a204552433230206f7065726174696f6e20646964206e6044820152691bdd081cdd58d8d9595960b21b6064820152fd5b83809293500103126123d45781613670910161357f565b80825f6135f6565b3d156136a2573d90613689826124a2565b916136976040519384612481565b82523d5f602084013e565b606090565b9192901561370957508151156136bb575090565b3b156136c45790565b60405162461bcd60e51b815260206004820152601d60248201527f416464726573733a2063616c6c20746f206e6f6e2d636f6e74726163740000006044820152606490fd5b82519091501561371c5750805190602001fd5b60405162461bcd60e51b8152602060048201529081906128db906024830190612764565b81811061374b575050565b5f8155600101613740565b93906137ee95939796926020916137dc5f60018060a01b0361012f5416926137b3602b6040518361379082955180928c8086019101612743565b81016a08189e48125b9d1953995d60aa1b8a82015203600b810184520182612481565b610131546040516334f359f960e01b8152608060048201529b8c96879586946084860190612764565b84810360031901602486015290612764565b90604483015230606483015203925af19485156141e3575f956141ee575b50610130546101345461013a546040516309394e6160e11b81526001600160a01b03808a16600483015292831660248201523060448201526064810191909152969889979590929091602091879160849183915f91165af19485156141e3575f956141a7575b50835191602085015193606060408701519601519660405198896101808101106001600160401b036101808c011117612401576101808a0160405260018060a01b0316895260018060a01b038a1660208a01525f60408a015260018060a01b03166060890152608088015260a087015260c086015260e0850152610100840152610120830152610140820152600161016082015260018060a01b0382165f5261013560205260405f2060018060a01b038251166001600160601b0360a01b8254161781556001810160018060a01b036020840151166001600160601b0360a01b8254161790556002810160018060a01b036040840151166001600160601b0360a01b8254161790556003810160018060a01b036060840151166001600160601b0360a01b82541617905560808201518051906001600160401b0382116124015781906139c1600485015461266a565b601f8111614174575b50602090601f8311600114614106575f926140fb575b50508160011b915f199060031b1c19161760048201555b60a08201518051906001600160401b03821161240157600160401b82116124015760209060058401548360058601558084106140a7575b500190600583015f5260205f20905f5b8160051c81106140685750601f198116810361401a575b50505060c08201518051906001600160401b038211612401578190613a7d600685015461266a565b601f8111613fe7575b50602090601f8311600114613f79575f92613f6e575b50508160011b915f199060031b1c19161760068201555b60e08201518051906001600160401b038211612401578190613ad8600785015461266a565b601f8111613f3b575b50602090601f8311600114613ecd575f92613ec2575b50508160011b915f199060031b1c19161760078201555b6101008201518051906001600160401b038211612401578190613b34600885015461266a565b601f8111613e8f575b50602090601f8311600114613e21575f92613e16575b50508160011b915f199060031b1c19161760088201555b6101208201518051906001600160401b038211612401578190613b90600985015461266a565b601f8111613de3575b50602090601f8311600114613d75575f92613d6a575b50508160011b915f199060031b1c19161760098201555b600a81016101408301518051906001600160401b03821161240157613beb835461266a565b601f8111613d2f575b50602090601f8311600114613cc4579180600b949261016096945f92613cb9575b50508160011b915f199060031b1c19161790555b019101516003811015613ca55760ff80198354169116179055610136805490600160401b8210156124015760018201808255821015612c3a575f527f39da2db355130acf428d669fbf1c14faa9d51399a25b793fc254bbbde66f02e20180546001600160a01b0319166001600160a01b03909216919091179055565b634e487b7160e01b5f52602160045260245ffd5b015190505f80613c15565b90601f19831691845f5260205f20925f5b818110613d1757509260019285926101609896600b989610613cff575b505050811b019055613c29565b01515f1960f88460031b161c191690555f8080613cf2565b92936020600181928786015181550195019301613cd5565b613d5a90845f5260205f20601f850160051c81019160208610613d60575b601f0160051c0190613740565b5f613bf4565b9091508190613d4d565b015190505f80613baf565b9250600984015f5260205f20905f935b601f1984168510613dc8576001945083601f19811610613db0575b505050811b016009820155613bc6565b01515f1960f88460031b161c191690555f8080613da0565b81810151835560209485019460019093019290910190613d85565b613e1090600986015f5260205f20601f850160051c81019160208610613d6057601f0160051c0190613740565b5f613b99565b015190505f80613b53565b9250600884015f5260205f20905f935b601f1984168510613e74576001945083601f19811610613e5c575b505050811b016008820155613b6a565b01515f1960f88460031b161c191690555f8080613e4c565b81810151835560209485019460019093019290910190613e31565b613ebc90600886015f5260205f20601f850160051c81019160208610613d6057601f0160051c0190613740565b5f613b3d565b015190505f80613af7565b9250600784015f5260205f20905f935b601f1984168510613f20576001945083601f19811610613f08575b505050811b016007820155613b0e565b01515f1960f88460031b161c191690555f8080613ef8565b81810151835560209485019460019093019290910190613edd565b613f6890600786015f5260205f20601f850160051c81019160208610613d6057601f0160051c0190613740565b5f613ae1565b015190505f80613a9c565b9250600684015f5260205f20905f935b601f1984168510613fcc576001945083601f19811610613fb4575b505050811b016006820155613ab3565b01515f1960f88460031b161c191690555f8080613fa4565b81810151835560209485019460019093019290910190613f89565b61401490600686015f5260205f20601f850160051c81019160208610613d6057601f0160051c0190613740565b5f613a86565b5f925f5b601f1983168303811061403a57505060051c01555f8080613a55565b9093602061405f6001928460ff895116919060ff809160031b9316831b921b19161790565b9501910161401e565b5f805b60208110614080575083820155600101613a3e565b855190959160019160209160ff60038a901b81811b199092169216901b179201950161406b565b6140d590600586015f52601f845f2091818716806140db575b500160051c810190601f860160051c01613740565b5f613a2e565b5f199081848a0160051c86010191825491890360031b1c1690555f6140c0565b015190505f806139e0565b9250600484015f5260205f20905f935b601f1984168510614159576001945083601f19811610614141575b505050811b0160048201556139f7565b01515f1960f88460031b161c191690555f8080614131565b81810151835560209485019460019093019290910190614116565b6141a190600486015f5260205f20601f850160051c81019160208610613d6057601f0160051c0190613740565b5f6139ca565b9094506020813d6020116141db575b816141c360209383612481565b810103126123d4576141d490612e6c565b935f613872565b3d91506141b6565b6040513d5f823e3d90fd5b9094506020813d602011614222575b8161420a60209383612481565b810103126123d45761421b90612e6c565b935f61380c565b3d91506141fd565b6001600160a01b038083165f9081526101356020526040808220600b015490979691959394939060ff1660038110156142ff576001036142ee5782916142929189959461012e54169361013454169486519788968796627e8ae960e01b885260048801612f49565b0381736FAbAC8069BC09cAD727fe49157ad69729222e8B5af49384156142e35782946142bf575b50509190565b6142da93945080919250903d10610909576108fb8183612481565b91905f806142b9565b51913d9150823e3d90fd5b87516305e1dfe360e11b8152600490fd5b634e487b7160e01b87526021600452602487fd5b929391935f9060018060a01b0383168252610135958660205260ff600b604085200154166003811015614b2a57600103614b185761012e805461013454604051633c529ea760e01b8152989294899461438394919390928992916001600160a01b03918216911660048801612f49565b03604086736FAbAC8069BC09cAD727fe49157ad69729222e8B9281845af480156134aa5783968491614af3575b5095966143bc85615754565b61013d5411156143ce575b5050505050565b6001600160a01b038516845260205260408320600b8101805490919060ff166003811015614adf57600214614acd5760028101805460405163c66f245560e01b815295919491906001600160a01b0316602087600481845afa9687156149de578897614a98575b509060206004949392604051958680926316d3df1560e31b82525afa9384156149de578894614a64575b5054610134546001600160a01b039081169116823b15610dea579060648992604051948593849263e743240d60e01b84526004840152602483015260018060a01b038d1660448301525af48015614a3257614a51575b506001600160a01b0387163b15610df65760405163f1b50c1d60e01b81528681600481836001600160a01b038d165af18015614a3257908791614a3d575b50509061456c9392916040805161450981612430565b6002815281366020830137610134546001600160a01b031661452a82612e80565b526001600160a01b038a1661453e82612e8d565b5260018060a01b0361013354168251808099819463237c65f960e01b83528660048401526044830190612e9d565b6001602483015203915afa948515614a325787956149e9575b50600301546001600160a01b031694853b15610df25760405163179a694160e11b81526001600160a01b03861660048201528781602481838b5af180156149de57899189916149c7575b50506146ea916146fd60018060a01b036101345416945f948580946146af604051916145fa83612430565b6002835260403660208501378a61461084612e80565b526001600160a01b03891661462484612e8d565b5261469c6040519661463588612430565b6002885260403660208a01378261464b89612e80565b528061465689612e8d565b526040519a6146648c612430565b60028c5260403660208e01378361467a8d612e80565b52816146858d612e8d565b52610133546001600160a01b03908116911661558e565b610133546001600160a01b03168b61558e565b61470c60018060a01b0361013354169460405198899788968795623c7cd360e91b87526001600488015260e0602488015260e4870190612e9d565b600319938487830301604488015261518b565b9184830301606485015261518b565b8260848301523060a48301524260c483015203925af1908115613523578290839261491c575b508061474061474692612e80565b50612e8d565b5061475b81886001600160a01b03891661558e565b863b1561040057604051906340519a5360e01b825260048201528181602481838b5af180156135235761490d575b506040516370a0823160e01b80825230600483015296906020816024816001600160a01b038e165afa9081156134aa5783916148db575b50604051978852306004890152602088602481875afa92831561334b5792614887575b7f381d54fa425631e6266af114239150fae1d5db67bb65b4fa9ecc65013107e07e97508061486d575b50508061484d575b5050805460ff1916600217905580546001600160a01b0319166001600160a01b0392831690811790915593169180a35f808080806143c7565b61012d54614866926001600160a01b0390911690615555565b5f80614814565b614880916001600160a01b038b16615555565b5f8061480c565b91506020873d6020116148d3575b816148a260209383612481565b810103126123d4577f381d54fa425631e6266af114239150fae1d5db67bb65b4fa9ecc65013107e07e9651916147e3565b3d9150614895565b90506020813d602011614905575b816148f660209383612481565b810103126123d457515f6147c0565b3d91506148e9565b614916906123ee565b5f614789565b9150503d8083833e61492e8183612481565b8101906040818303126103dc578051916001600160401b0383116112165780601f84840101121561121657828201519061496782612503565b936149756040519586612481565b828552602085019160208460051b838701010111610df657602081850101915b60208460051b838701010183106149b757505050506020015190614746614732565b8251815260209283019201614995565b6149d29192506123ee565b610df25787875f6145cf565b6040513d8a823e3d90fd5b9094506040813d604011614a2a575b81614a0560409383612481565b81010312610df257614a226020614a1b83612e6c565b920161357f565b50935f614585565b3d91506149f8565b6040513d89823e3d90fd5b614a46906123ee565b610df657855f6144f3565b614a5d909691966123ee565b945f6144b5565b9093506020813d602011614a90575b81614a8060209383612481565b81010312610dee5751925f61445f565b3d9150614a73565b9096506020813d602011614ac5575b81614ab460209383612481565b81010312610dee5751956020614435565b3d9150614aa7565b604051633a2cc0e960e11b8152600490fd5b634e487b7160e01b86526021600452602486fd5b9050614b0f91965060403d604011610909576108fb8183612481565b9590955f6143b0565b6040516305e1dfe360e11b8152600490fd5b634e487b7160e01b84526021600452602484fd5b6001600160a01b0391821691905f908315614be8578216918282526101356020526003604083200154168015614bd657803b1561040057818091602460405180948193631bf3091560e11b83528960048401525af1801561352357907f7363600ac233591b10e402fcff7bdaf80647430d9e03638e669d4834950433229291614bc7575b5080a3565b614bd0906123ee565b5f614bc2565b60405163ab54b81360e01b8152600490fd5b60405163e04bb5d960e01b8152600490fd5b9190811015612c3a5760051b0190565b356001600160a01b03811681036123d45790565b9594939291906020999d9b979c9860805261013b545f9a8b91602460018060a01b036101345416604051948593849263fc57d4df60e01b8452600484015260018060a01b03165af1801561515d578b90615125575b614c809150608051612c02565b808060011b04600214811517156151115760018b5261013960205260408b205490670de0b6b3a7640000918281029281840414901517156150fd5760011b106150eb57614ccc96613756565b6001600160a01b0381168452610135602052604080852090519891959190614cf38a612430565b60028a5260403660208c0137610134546001600160a01b0316614d158b612e80565b526001600160a01b038716614d298b612e8d565b526101335460405163c45a015560e01b815290602090829060049082906001600160a01b03165afa908115614a325787916150a5575b50614d9f98999a60209161013e54916040519284840152838352614d828361244b565b89604051809d81958294632a422c2b60e21b845260048401612ed9565b03926001600160a01b03165af19788156133b6578698615069575b50600b8101805460ff19166002908117909155810180546001600160a01b0319166001600160a01b038a8116919091179091556003909101541696873b15610df65760405163179a694160e11b81526001600160a01b03821660048201528681602481838d5af18015614a3257615056575b50604051614e3981612415565b600181526001600160a01b0388168752610137602052604087209051815460ff191660ff9190911617905561013854600160401b81101561240157600181018061013855811015612c3a576101385f527ff79a63dcec80ed75c82f36161f17b9c2f407860160383a7be0a0ee7962c527ae0180546001600160a01b0319166001600160a01b0389169081179091553b15610df65760405163f1b50c1d60e01b81528681600481836001600160a01b038d165af18015614a3257615042575b50614f8c9596979899610136546040519081526001602082015242604082015260018060a01b038316907f58d1495ede629d89cfe4c00a5ad620a9ba231de4b1a5040c7b355d43092ff86b606060018060a01b038d1692a36101345461012d54608051614f7492909130916001600160a01b03918216911661352e565b60805191898b60018060a01b036101345416926151be565b92915093614f9d8561013154612f3c565b813b156103dc5760405163da3e339760e01b81526001600160a01b038616600482015230602482015260448101919091529082908290606490829084905af180156135235761502e575b5050604080516001815260208101949094528301526001600160a01b0316907f4e8e1b96afa9116446f71ff323ac93786664fcbea87475ece33519357750f79090606090a2565b61503882916123ee565b6104655780614fe7565b61504c87916123ee565b610df6575f614ef7565b615062909691966123ee565b945f614e2c565b9097506020813d60201161509d575b8161508560209383612481565b81010312610df65761509690612e6c565b965f614dba565b3d9150615078565b90506020813d6020116150e3575b816150c060209383612481565b81010312610df257614d9f98999a6150d9602092612e6c565b91509a9998614d5f565b3d91506150b3565b604051634088b74160e01b8152600490fd5b634e487b7160e01b8c52601160045260248cfd5b634e487b7160e01b8b52601160045260248bfd5b506020813d602011615155575b8161513f60209383612481565b8101031261515157614c809051614c73565b8a80fd5b3d9150615132565b6040513d8d823e3d90fd5b60ff60019116019060ff8211612c1557565b60ff1660ff8114612c155760010190565b9081518082526020808093019301915f5b8281106151aa575050505090565b83518552938101939281019260010161519c565b9897909996919392955f80968195604051916151d983612430565b6002835260403660208501376151ee83612e80565b6001600160a01b038c16905261520383612e8d565b6001600160a01b038a1690526040519461521c86612430565b6002865260403660208801378161523287612e80565b528261523d87612e8d565b526040519761524b89612430565b6002895260403660208b013761526089612e80565b5261526a88612e8d565b5261013380549092615289916001600160a01b03908116908c1661558e565b81546152a391906001600160a01b03908116908d1661558e565b54604051623c7cd360e91b81526001600482015260e060248201529b8c966001600160a01b0390921695879586949193916152e29060e4870190612e9d565b9060031991828782030160448801526152fa9161518b565b9085820301606486015261530d9161518b565b9160848401523060a484015260c483015203925af196871561352357829583986154be575b508761535c818361534c6153458b612e80565b519a612e8d565b519a6001600160a01b031661558e565b6001600160a01b03821690813b156112125784916024839260405194859384926340519a5360e01b845260048401525af18015613375576154ab575b506040516370a0823160e01b8082523060048301529091906020836024816001600160a01b0388165afa928315613463578593615477575b506040519081523060048201526020816024816001600160a01b038a165afa94851561334b5794615443575b5081615429575b5050508061540f575050565b61012d546126de926001600160a01b039182169116615555565b61543b926001600160a01b0316615555565b5f8080615403565b9093506020813d60201161546f575b8161545f60209383612481565b810103126123d45751925f6153fc565b3d9150615452565b9092506020813d6020116154a3575b8161549360209383612481565b810103126123d45751915f6153d0565b3d9150615486565b6154b7909391936123ee565b915f615398565b955096503d8083873e6154d18187612481565b8501946040818703126103dc5780516001600160401b0381116112165781019580601f8801121561121657865161550781612503565b97615515604051998a612481565b8189526020808a019260051b820101928311610df657602001905b8282106155455750505060200151965f615332565b8151815260209182019101615530565b60405163a9059cbb60e01b60208201526001600160a01b03909216602483015260448201929092526126de9161357a826064810161356c565b60405163095ea7b360e01b602082018181526001600160a01b0385166024840152604480840196909652948252949390926155ca606485612481565b83515f926001600160a01b039291858416918591829182855af1906155ed613678565b82615677575b508161566c575b501561560a575b50505050509050565b6040519660208801521660248601528060448601526044855260808501908582106001600160401b03831117615658575061564d939461357a916040528261358c565b805f80808080615601565b634e487b7160e01b81526041600452602490fd5b90503b15155f6155fa565b8051919250811591821561568f575b5050905f6155f3565b81925090602091810103126112125760206156aa910161357f565b5f80615686565b60ff16801561572e575f19810160ff8111612c155760ff165f52610139908160205260405f205483111561571c577f1d518eb390459a1912a9b14c91cc0e67b8449b23fe75f7766658bd86057cb1a392604092825f5260205280835f205582519182526020820152a1565b60405163aabd5a0960e01b8152600490fd5b60405163e82a532960e01b8152600490fd5b51906001600160701b03821682036123d457565b60018060a01b03809116905f828152602090610135825260409182822060ff600b82015416906003821015614b2a5781156159db57908392918661013b5416966101349184828454169960248a51809a819363fc57d4df60e01b835260049e8f8401525af19687156159d15786976159a2575b50861561599257600201548116926001036158e05750509084869392815197888092630240bc6b60e21b82525afa80156158d657829683916158b3575b5095965b871580156158ab575b61589b5781908651948580926318160ddd60e01b82525afa9485156142e357508194615864575b50505061586092615856670de0b6b3a7640000959361585b93612c02565b612c02565b612f08565b0490565b909180939450813d8311615894575b61587d8183612481565b81010312610465575051908261585661585b615838565b503d615873565b8551633dce448b60e11b81528490fd5b508615615811565b90506158cd919650853d8711610909576108fb8183612481565b9590955f615804565b85513d84823e3d90fd5b8651630240bc6b60e21b815291979493926060908390879082905afa9182156159885784908593615933575b506001600160701b03809116921697541688105f1461592e57955b9596615808565b615927565b9250506060823d8211615980575b8161594e60609383612481565b810103126112165761595f82615740565b8761596b858501615740565b93015163ffffffff811603611212575f61590c565b3d9150615941565b87513d86823e3d90fd5b8751631d59567b60e11b81528990fd5b9096508481813d83116159ca575b6159ba8183612481565b81010312610df65751955f6157c7565b503d6159b0565b88513d88823e3d90fd5b845163c1ab6dc160e01b8152600490fd5b156159f357565b60405162461bcd60e51b815260206004820152602e60248201527f496e697469616c697a61626c653a20636f6e747261637420697320616c72656160448201526d191e481a5b9a5d1a585b1a5e995960921b6064820152608490fd5b15615a5657565b60405162461bcd60e51b815260206004820152602b60248201527f496e697469616c697a61626c653a20636f6e7472616374206973206e6f74206960448201526a6e697469616c697a696e6760a81b6064820152608490fdfea2646970667358221220ab91fb5e4a9ed1650c4da4d4547b1e7afd463d6008fd27a39e7d4056386cd2a364736f6c63430008140033",
  "deployedBytecode": "0x60a060408181526004918236101561007d575b50361561005c57906020606492519162461bcd60e51b8352820152602060248201527f44697265637420455448207472616e7366657273206e6f7420616c6c6f7765646044820152fd5b610134546001600160a01b0316330361007157005b516282b42960e81b8152fd5b5f90813560e01c908163017e7e58146123985750806301b964d21461232857806301ffc9a7146122d257806302b6b15a146121fc5780630d63237f146121a55780630d7a94f6146121415780631083f7611461211757806318b74a8c146120c85780631db9be1b1461209e578063248a9ca31461207357806326bde5aa146120035780632f2ff15d14611f565780632f73a9f814611ee657806336568abe14611e555780633744cfdd14611dd0578063378dc3dc14611db05780633b5f193514611d905780633c0b93aa14611cc55780633fc8cef314611c8157806341344d5d14611c545780634189a68e14611c29578063444aa92f14611bac578063456f5e1514611ad65780634d86030314611a96578063548186051461198a5780635823892a146118de5780635bb478081461186e5780635e7b8d951461174d5780635edb9eb01461172d57806361402596146116de578063715018a61461160a57806372641aa6146115d857806377796ace1461156857806378a895671461154857806379ba5097146114c25780637adbf973146113d75780637c13774b146113805780637dc0d1d0146113565780637deb6025146113225780637f7ee431146112435780638da5cb5b1461121a5780638f876f8c146110c957806391d1485414611082578063a217fddf14611067578063a240de031461103d578063a3e01ce314610f01578063a8b3820514610ee1578063ae29d56814610eaf578063b4f2e8b814610e35578063b758ba8814610dfa578063bc2db5d214610acd578063c17ac35a14610a75578063c1ba290714610a55578063c45a015514610a2b578063c75ed644146109cf578063c78418b914610993578063d547741f14610957578063d723a3d21461091a578063d98b2f5c1461084d578063ddca3f431461082d578063df1dcaa9146107c1578063e30c397814610798578063e77772fe1461076e578063e84ca7cb1461072f578063ee3cd15b14610683578063f2fde38b14610615578063f5dab711146104ce578063f943ce0714610468578063fa1653bd14610404578063fb8dc179146103e05763feab61eb036100125791346103dc57816003193601126103dc576103ab61251a565b916103b4612baa565b600360ff8416116103cf57836103cc602435856156b1565b80f35b5163e82a532960e01b8152fd5b8280fd5b50903461040057816003193601126104005760209061013e549051908152f35b5080fd5b50829034610465576020366003190112610465576001600160a01b036104286123be565b16815261013560205260ff600b848320015416916003831015610452576020836002865191148152f35b634e487b7160e01b825260219052602490fd5b80fd5b509190346103dc5760203660031901126103dc57813591610487612baa565b82156104c05750816020917f51dfcc99f9c590c7a4bcf74fc4e9ae6b407ec6689eb354e3215563a0b5bcd00d9361013c5551908152a180f35b90516338c51d2560e21b8152fd5b5034610465576020366003190112610465576001600160a01b03806104f16123be565b168252610135602052828220818154169382600183015416928060028401541690600384015416878401610524906126a2565b610530600686016126a2565b9061053d600787016126a2565b9261054a600888016126a2565b94610557600989016126a2565b96610564600a8a016126a2565b98600b015460ff169981519c8d5260208d01528b015260608a01526101608060808b0152890161059391612764565b88810360a08a01526105a491612764565b87810360c08901526105b591612764565b86810360e08801526105c691612764565b8581036101008701526105d891612764565b8481036101208601526105ea91612764565b91600382101561060257508293506101408301520390f35b634e487b7160e01b815260218552602490fd5b50346104655760203660031901126104655761062f6123be565b610637612baa565b609780546001600160a01b0319166001600160a01b039283169081179091556065549091167f38d16b8cac22d99fc7c124b9cd0de2d3fa1faef420bfe791d8c362d765e227008380a380f35b50346104655781600319360112610465576106aa61069f6123d8565b30903390863561422a565b61013454909291506001600160a01b0316803b15610400578180916024865180948193632e1a7d4d60e01b8352888b8401525af1801561072557610716575b5080808093335af16106f9613678565b5015610709576020905160018152f35b5163b12d13eb60e01b8152fd5b61071f906123ee565b5f6106e9565b84513d84823e3d90fd5b5090346104005760203660031901126104005760209160ff9082906001600160a01b0361075a6123be565b168152610137855220541615159051908152f35b50903461040057816003193601126104005761012f5490516001600160a01b039091168152602090f35b50903461040057816003193601126104005760975490516001600160a01b039091168152602090f35b509190346103dc5760203660031901126103dc578135916107e0612baa565b6301e1338083111561081f5750816020917fbeaba78e9fea37c532e9c93af5e8e120a48902131aeb7d3146e3ca49dec45a239361013a5551908152a180f35b905163abf20e8f60e01b8152fd5b509034610400578160031936011261040057602090610132549051908152f35b508234610400578260031936011261040057826108686123be565b61012e5461013454835163a6b8918760e01b81526001600160a01b03928316958101958652908216602086015291166040840152602435606084015291829081906080015b038173__$57bf2248a10612b83e4be7103a658af84f$__5af49081156109105782916108e1575b5082519182526020820152f35b90506109039150823d8411610909575b6108fb8183612481565b810190612f26565b836108d4565b503d6108f1565b83513d84823e3d90fd5b5090346104005760203660031901126104005760209160ff9082906001600160a01b036109456123be565b16815261013785522054169051908152f35b509190346103dc57806003193601126103dc576103cc913561098e600161097c6123d8565b9383875260fb602052862001546129a2565b612b35565b509034610400576020366003190112610400576020916001600160a01b03908290826109bd6123be565b16815261013585522054169051908152f35b509190346103dc5760203660031901126103dc578135916109ee612baa565b61013c5483106104c05750816020917fc598615f3cd2c393145f278de5a6921fd815849d1ee5aab7b66bdda0efb33ada9361013d5551908152a180f35b50903461040057816003193601126104005761012e5490516001600160a01b039091168152602090f35b50903461040057816003193601126104005760209061013d549051908152f35b5090346104005760203660031901126104005780602092610a946123be565b818351610aa081612415565b526001600160a01b031681526101378452208151919060ff90610ac284612415565b541680925251908152f35b5091346103dc576101a03660031901126103dc57610ae96123be565b610af16123d8565b906044356001600160a01b0381168103610df65760a435916001600160a01b0383168303610df25760c435926001600160a01b0384168403610dee5760e435926001600160a01b0384168403610dea5761012435936001600160a01b0385168503610de65789549760ff8960081c16159889809a610dd9575b8015610dc2575b610b7a906159ec565b60ff1981166001178c5589610db1575b506001600160a01b037f0000000000000000000000000000000000000000000000000000000000000000811690861603610da3575089549560ff8760081c161596878098610d96575b8015610d7f575b610be3906159ec565b60ff1981166001178c5587610d6e575b50610c0d60ff8c5460081c16610c0881615a4f565b615a4f565b610c1633612d49565b8a5497610c3e60ff8a60081c16610c2c81615a4f565b610c3581615a4f565b60018055615a4f565b61013480546001600160a01b03199081166001600160a01b039889161790915561012e805482169288169290921790915561012f8054821692871692909217909155610130805482169286169290921790915561012d8054821692851692909217909155606435610132556084356101315561013380548216928416929092179091556101043561013a5561013b8054909116929091169190911790556101443561013c556101643561013d556101843561013e55610d37575b50610d01575080f35b60207f7f26b83ff96e1f2b6a682f133852f6798a09c465da95921460cefb38474024989161ff001984541684555160018152a180f35b61ff00191683557f7f26b83ff96e1f2b6a682f133852f6798a09c465da95921460cefb38474024986020835160018152a15f610cf8565b61ffff1916610101178b555f610bf3565b50303b158015610bda575060ff8116600114610bda565b50600160ff821610610bd3565b8951633bb31a5160e21b8152fd5b61ffff1916610101178b555f610b8a565b50303b158015610b71575060ff8116600114610b71565b50600160ff821610610b6a565b8980fd5b8880fd5b8780fd5b8680fd5b8580fd5b509034610400578160031936011261040057602090517f62229496573be0b0846a2fb48a94de962b501adb0b8eaf7f99924b10a81a19fe8152f35b509190346103dc57806003193601126103dc577fc8242dc5446855370b781abbfc5d882af1d1a3cc29143216aba3558feb0ce9259135610e736123d8565b610e7b612baa565b61013282905561012d80546001600160a01b0319166001600160a01b0392909216918217905582519182526020820152a180f35b509034610400576020366003190112610400578060209260ff610ed061251a565b168152610139845220549051908152f35b50903461040057816003193601126104005760209061013a549051908152f35b5091346103dc57610f1136612630565b94610f23989698949194939293612789565b6001600160a01b03898116808c52610137602052888c208054919b909a909291610f4f9060ff16615168565b60ff1660020361102f578c8a610f6485615754565b9160028152610139602052205411611021575092610ff295928b7f4e8e1b96afa9116446f71ff323ac93786664fcbea87475ece33519357750f7909b9996938b99968f9c8d8460609f5261013560205220908060028160038501541693610fe68861013498610fde8c878c54168861012d5416309161352e565b87309161352e565b015416935416926151be565b92915092805460ff61100581831661517a565b169060ff1916179055805192600284526020840152820152a280f35b8951639dc93e9f60e01b8152fd5b8951636dfb3ae160e01b8152fd5b5090346104005781600319360112610400576101335490516001600160a01b039091168152602090f35b50903461040057816003193601126104005751908152602090f35b5091346103dc57816003193601126103dc578160209360ff926110a36123d8565b9035825260fb86528282206001600160a01b039091168252855220549151911615158152f35b5060c0366003190112610465576001600160401b03908335828111610400576110f590369086016124bd565b906024358381116104005761110d90369087016124bd565b926044358181116103dc57611125903690880161252a565b956064358281116112165761113d90369083016124bd565b906084358381116112125761115590369083016124bd565b9260a4359081116112125761116d9036908301612592565b93611176612e16565b610134546001600160a01b0316803b15610400578190895193848092630d0e30db60e41b825234905af19081156112075750916111f4989593916111c89795936111f8575b5033953095349533612f83565b6001805592516001600160a01b0392831681529116602082015260408101919091529081906060820190565b0390f35b611201906123ee565b5f6111bb565b8851903d90823e3d90fd5b8480fd5b8380fd5b50903461040057816003193601126104005760655490516001600160a01b039091168152602090f35b508234610400576101a03660031901126104005761125f6123be565b6001600160401b03906024358281116112125761127f90369085016124bd565b604435838111610df65761129690369086016124bd565b606435848111610df2576112ad903690870161252a565b91608435858111610dee576112c590369088016124bd565b9360a435868111610dea576112dd90369089016124bd565b9560c435908111610dea576103cc976112f891369101612592565b611300612789565b6101843596610164359661014435966101243596610104359660e43596614c1e565b50346104655781600319360112610465575061134d6020926113426123d8565b903391339135614313565b50505160018152f35b50903461040057816003193601126104005761013b5490516001600160a01b039091168152602090f35b5091346103dc5760203660031901126103dc57356101368054821015611216576020935260018060a01b03907f39da2db355130acf428d669fbf1c14faa9d51399a25b793fc254bbbde66f02e20154169051908152f35b50903461040057602090816003193601126103dc576113f46123be565b906113fd612baa565b61013454815163fc57d4df60e01b81526001600160a01b0391821687820152921691838160248188875af19081156114b857859161148b575b501561147c5761013b80546001600160a01b03191683179055519081529192507f3f32684a32a11dabdbb8c0177de80aa3ae36a004d75210335b49e544e48cd0aa91a180f35b51639589a27d60e01b81528490fd5b90508381813d83116114b1575b6114a28183612481565b8101031261121257515f611436565b503d611498565b82513d87823e3d90fd5b509190346103dc57826003193601126103dc57609754336001600160a01b03909116036114f357826103cc33612d49565b906020608492519162461bcd60e51b8352820152602960248201527f4f776e61626c6532537465703a2063616c6c6572206973206e6f7420746865206044820152683732bb9037bbb732b960b91b6064820152fd5b509034610400578160031936011261040057602090610136549051908152f35b5090346104005760203660031901126104005760207f0454b4498edcb0a2c7058cfd107bb0e6551b3820f891c725db307ed66e740f20916115a76123be565b6115af612baa565b61013380546001600160a01b0319166001600160a01b039290921691821790559051908152a180f35b50903461040057366003190112610465576103cc6115f46123be565b6115fc6123d8565b90611605612baa565b614b3e565b509034610400578160031936011261040057611624612baa565b60655482906001600160a01b039061163d908216612aab565b6001600160601b0360a01b8060975416609755606554908116606555167f8be0079c531659141344cd1fd0a4f28419497f9722a3daafe3b4186f6b6457e08280a381805260fb60205280822060205260ff81832054161561169c575080f35b60fb6020528082206020528120600160ff198254161790553381807f2f8788117e7eff1d82e926ec794901d17c78024a50270940304540a733656f0d8180a480f35b5091346103dc5760203660031901126103dc577fedbbbd0f3b9ac5d8f4d9142fe0b31c73d786619eab0d7f8df600fe84282a4d43916020913590611720612baa565b816101315551908152a180f35b509034610400578160031936011261040057602090610138549051908152f35b5060e0366003190112610465576117626123be565b6001600160401b03916024358381116104005761178290369087016124bd565b926044358181116103dc5761179a90369088016124bd565b95606435828111611216576117b2903690830161252a565b608435838111611212576117c990369084016124bd565b9160a435848111610df6576117e190369083016124bd565b9360c435908111610df6576117f99036908301612592565b94611802612e16565b610134546001600160a01b0316803b156104005781908a5193848092630d0e30db60e41b825234905af19081156118635750916111c8979593916111f49a979593611854575b50339630963496612f83565b61185d906123ee565b5f611848565b8951903d90823e3d90fd5b5090346104005760203660031901126104005760207f1edf3afd4ac789736e00d216cd88be164ddcef26a6eedcc30cdb0cb62f3741b1916118ad6123be565b6118b5612baa565b61012e80546001600160a01b0319166001600160a01b039290921691821790559051908152a180f35b509190346103dc57806003193601126103dc576001600160401b03918035838111611212576119109036908301612600565b9093602435908111610df6576119299036908401612600565b929093611934612baa565b83830361197d575050845b81811061194a578580f35b8061197761196361195e600194868a614bfa565b614c0a565b61197161195e84888a614bfa565b90614b3e565b0161193f565b516305e8333d60e11b8152fd5b5091346103dc5761199a36612630565b946119ac989698949194939293612789565b6001600160a01b03898116808c52610137602052888c208054919b909a9092916119d89060ff16615168565b60ff1660030361102f578c8a6119ed85615754565b9160038152610139602052205411611021575092611a6795928b7f4e8e1b96afa9116446f71ff323ac93786664fcbea87475ece33519357750f7909b9996938b99968f9c8d8460609f5261013560205220908060028160038501541693610fe68861013498610fde8c878c54168861012d5416309161352e565b92915092805460ff611a7a81831661517a565b169060ff1916179055805192600384526020840152820152a280f35b509034610400576020366003190112610400576020916001600160a01b0390600390839083611ac36123be565b1681526101358652200154169051908152f35b50346104655761010036600319011261046557611af16123be565b6001600160401b039360243585811161121657611b1190369083016124bd565b9260443586811161040057611b2990369084016124bd565b956064358181116103dc57611b41903690850161252a565b9260843582811161121657611b5990369083016124bd565b9160a43581811161121257611b7190369084016124bd565b9360c435918211610465575091611b966111f4999694926111c8989694369101612592565b92611b9f612e16565b3396339660e43596612f83565b509160203660031901126103dc57611bc26123be565b610134549093906001600160a01b0316803b15610400578190845193848092630d0e30db60e41b825234905af1908115611c1e57509261134d91602094611c0f575b503390309034614313565b611c18906123ee565b5f611c04565b8351903d90823e3d90fd5b50346104655781600319360112610465575061134d602092611c496123d8565b90339133913561422a565b50903461040057602036600319011261040057602090611c7a611c756123be565b615754565b9051908152f35b509034610400578160031936011261040057517f00000000000000000000000000000000000000000000000000000000000000006001600160a01b03168152602090f35b50346104655760e0366003190112610465576001600160401b0383358181116103dc57611cf590369086016124bd565b9060243581811161121657611d0d90369087016124bd565b9260443582811161040057611d25903690880161252a565b956064358381116103dc57611d3d90369083016124bd565b9260843581811161121657611d5590369084016124bd565b9260a435918211610465575091611d796111c89694926111f4999694369101612592565b91611d82612e16565b3395339560c4359533612f83565b50903461040057816003193601126104005760209061013c549051908152f35b509034610400578160031936011261040057602090610131549051908152f35b5090346104005760203660031901126104005782356001600160401b0381116103dc57611e009036908501612600565b9093611e0a612baa565b60039283830361197d575050825b60ff811683811015611e515790611e47611e4c92611e40611e3884615168565b91868a614bfa565b35906156b1565b61517a565b611e18565b8480f35b508234610400578260031936011261040057611e6f6123d8565b90336001600160a01b03831603611e8b57906103cc9135612b35565b608490602085519162461bcd60e51b8352820152602f60248201527f416363657373436f6e74726f6c3a2063616e206f6e6c792072656e6f756e636560448201526e103937b632b9903337b91039b2b63360891b6064820152fd5b5090346104005760203660031901126104005760207fcf4be1c851767114c1f4b298dc84eab48d103473908393f6d408c82ba7cda0e891611f256123be565b611f2d612baa565b61012f80546001600160a01b0319166001600160a01b039290921691821790559051908152a180f35b5091346103dc57816003193601126103dc573590611f726123d8565b9082845260fb602052611f8a600182862001546129a2565b82845260fb60209081528185206001600160a01b039093168086529290528084205460ff1615611fb8578380f35b82845260fb6020528084208285526020528320600160ff1982541617905533917f2f8788117e7eff1d82e926ec794901d17c78024a50270940304540a733656f0d8480a45f80808380f35b5090346104005760203660031901126104005760207fbdaa8f7ade01473981aef419539e6c190d409f50b144a7a796efd2777607920c916120426123be565b61204a612baa565b61013480546001600160a01b0319166001600160a01b039290921691821790559051908152a180f35b5091346103dc5760203660031901126103dc578160209360019235815260fb85522001549051908152f35b5090346104005781600319360112610400576101305490516001600160a01b039091168152602090f35b5091346103dc5760203660031901126103dc577f331a39a6518952c9d923c75bc89cd4d27c2a3cf1ee4295c830e41dca8168eb8291602091359061210a612baa565b8161013e5551908152a180f35b5090346104005781600319360112610400576101345490516001600160a01b039091168152602090f35b5082346104005782600319360112610400578261215c6123be565b61012e54610134548351631d486c9760e21b81526001600160a01b03928316958101958652908216602086015291166040840152602435606084015291829081906080016108ad565b5091346103dc5760203660031901126103dc57356101388054821015611216576020935260018060a01b03907ff79a63dcec80ed75c82f36161f17b9c2f407860160383a7be0a0ee7962c527ae0154169051908152f35b50823461040057610180366003190112610400576001600160401b0381358181116112165761222e90369084016124bd565b906024358181116112125761224690369085016124bd565b604435828111610df65761225d903690860161252a565b606435838111610df25761227490369087016124bd565b91608435848111610dee5761228c90369088016124bd565b9360a435908111610dee576103cc966122a791369101612592565b946122b0612789565b610164359561014435956101243595610104359560e4359560c4359533614c1e565b5091346103dc5760203660031901126103dc57359063ffffffff60e01b82168092036103dc5760209250637965db0b60e01b8214918215612317575b50519015158152f35b6301ffc9a760e01b1491505f61230e565b5090346104005760203660031901126104005760207f3587ea62a24fc6959886ef88a458920ef0762b7ecbae1e87892c731869362d69916123676123be565b61236f612baa565b61013080546001600160a01b0319166001600160a01b039290921691821790559051908152a180f35b90503461040057816003193601126104005761012d546001600160a01b03168152602090f35b600435906001600160a01b03821682036123d457565b5f80fd5b602435906001600160a01b03821682036123d457565b6001600160401b03811161240157604052565b634e487b7160e01b5f52604160045260245ffd5b602081019081106001600160401b0382111761240157604052565b606081019081106001600160401b0382111761240157604052565b604081019081106001600160401b0382111761240157604052565b608081019081106001600160401b0382111761240157604052565b90601f801991011681019081106001600160401b0382111761240157604052565b6001600160401b03811161240157601f01601f191660200190565b81601f820112156123d4578035906124d4826124a2565b926124e26040519485612481565b828452602083830101116123d457815f926020809301838601378301015290565b6001600160401b0381116124015760051b60200190565b6004359060ff821682036123d457565b81601f820112156123d45780359161254183612503565b9261254f6040519485612481565b808452602092838086019260051b8201019283116123d4578301905b828210612579575050505090565b813560ff811681036123d457815290830190830161256b565b9080601f830112156123d457604051916001600160401b036080840181811185821017612401576040528360808301928484116123d45780915b8483106125dc5750505050505090565b82358481116123d4576020916125f588849386016124bd565b8152019201916125cc565b9181601f840112156123d4578235916001600160401b0383116123d4576020808501948460051b0101116123d457565b60e09060031901126123d4576004356001600160a01b03811681036123d457906024359060443590606435906084359060a4359060c43590565b90600182811c92168015612698575b602083101461268457565b634e487b7160e01b5f52602260045260245ffd5b91607f1691612679565b9060405191825f8254926126b58461266a565b9081845260019485811690815f1461272057506001146126e0575b50506126de92500383612481565b565b909391505f52602090815f20935f915b8183106127085750506126de93508201015f806126d0565b855488840185015294850194879450918301916126f0565b9150506126de94506020925060ff191682840152151560051b8201015f806126d0565b5f5b8381106127545750505f910152565b8181015183820152602001612745565b9060209161277d81518092818552858086019101612743565b601f01601f1916010190565b335f9081527f08f584bb5334faafa280854191c286de8f907d6af8dd5e653110c56d426e0054602090815260408083205490927f62229496573be0b0846a2fb48a94de962b501adb0b8eaf7f99924b10a81a19fe9160ff16156127ec5750505050565b6127f533612c4e565b9184519061280282612466565b6042825284820192606036853782511561298e576030845382519060019182101561298e5790607860218501536041915b818311612921575050506128df5760486128db9386936128bf936128b0985198899376020b1b1b2b9b9a1b7b73a3937b61d1030b1b1b7bab73a1604d1b8a860152612887815180928c603789019101612743565b8401917001034b99036b4b9b9b4b733903937b6329607d1b603784015251809386840190612743565b01036028810187520185612481565b5192839262461bcd60e51b845260048401526024830190612764565b0390fd5b60648486519062461bcd60e51b825280600483015260248201527f537472696e67733a20686578206c656e67746820696e73756666696369656e746044820152fd5b909192600f8116601081101561297a576f181899199a1a9b1b9c1cb0b131b232b360811b901a6129518587612c29565b5360041c928015612966575f19019190612833565b634e487b7160e01b82526011600452602482fd5b634e487b7160e01b83526032600452602483fd5b634e487b7160e01b81526032600452602490fd5b5f9080825260209060fb8252604092838120338252835260ff8482205416156129cb5750505050565b6129d433612c4e565b918451906129e182612466565b6042825284820192606036853782511561298e576030845382519060019182101561298e5790607860218501536041915b818311612a66575050506128df5760486128db9386936128bf936128b0985198899376020b1b1b2b9b9a1b7b73a3937b61d1030b1b1b7bab73a1604d1b8a860152612887815180928c603789019101612743565b909192600f8116601081101561297a576f181899199a1a9b1b9c1cb0b131b232b360811b901a612a968587612c29565b5360041c928015612966575f19019190612a12565b6001600160a01b03165f8181527fc88390e7e62175be0932452175b6a7222b6b094ab0ef984a5153c620345d8975602052604081205490919060ff16612aef575050565b81805260fb602052604082208183526020526040822060ff19815416905533917ff6391f5c32d9c69d2a47ea670b442974b53935d1edc7fd64eb21e047a839171b8180a4565b905f9180835260fb602052604083209160018060a01b03169182845260205260ff604084205416612b6557505050565b80835260fb602052604083208284526020526040832060ff1981541690557ff6391f5c32d9c69d2a47ea670b442974b53935d1edc7fd64eb21e047a839171b339380a4565b6065546001600160a01b03163303612bbe57565b606460405162461bcd60e51b815260206004820152602060248201527f4f776e61626c653a2063616c6c6572206973206e6f7420746865206f776e65726044820152fd5b81810292918115918404141715612c1557565b634e487b7160e01b5f52601160045260245ffd5b908151811015612c3a570160200190565b634e487b7160e01b5f52603260045260245ffd5b60405190612c5b82612430565b602a8252602082016040368237825115612c3a57603090538151600190811015612c3a57607860218401536029905b808211612cde575050612c9a5790565b606460405162461bcd60e51b815260206004820152602060248201527f537472696e67733a20686578206c656e67746820696e73756666696369656e746044820152fd5b9091600f81166010811015612d35576f181899199a1a9b1b9c1cb0b131b232b360811b901a612d0d8486612c29565b5360041c918015612d21575f190190612c8a565b60245f634e487b7160e01b81526011600452fd5b60245f634e487b7160e01b81526032600452fd5b6065546001600160a01b0390612d60908216612aab565b6001600160601b0360a01b8060975416609755816065549316918280928516176065555f93167f8be0079c531659141344cd1fd0a4f28419497f9722a3daafe3b4186f6b6457e08480a381805260fb6020526040822081835260205260ff60408320541615612dcd575050565b81805260fb6020526040822081835260205260408220600160ff1982541617905533917f2f8788117e7eff1d82e926ec794901d17c78024a50270940304540a733656f0d8180a4565b600260015414612e27576002600155565b60405162461bcd60e51b815260206004820152601f60248201527f5265656e7472616e637947756172643a207265656e7472616e742063616c6c006044820152606490fd5b51906001600160a01b03821682036123d457565b805115612c3a5760200190565b805160011015612c3a5760400190565b9081518082526020808093019301915f5b828110612ebc575050505090565b83516001600160a01b031685529381019392810192600101612eae565b9091612ef0612f0593606084526060840190612e9d565b91600160208201526040818403910152612764565b90565b8115612f12570490565b634e487b7160e01b5f52601260045260245ffd5b91908260409103126123d4576020825192015190565b91908203918211612c1557565b6001600160a01b0391821681529181166020830152604082019290925291811660608301529182166080820152911660a082015260c00190565b92969893999795919994909461013454975f9b8c8a60208b6024604051809481936370a0823160e01b835260018060a01b0316600483015260018060a01b03165afa908115613523578e92916134ea575b50106134d8578c97612ff396610132549b8c806134b5575b5050613756565b61012e54610134546040516364e329cb60e11b81526001600160a01b0380851660048301529182166024820152999296926020928b9260449284929091165af19788156134aa57839861346e575b5060405161304e81612430565b600281526040366020830137610134546001600160a01b031661307082612e80565b526001600160a01b03861661308482612e8d565b526101335460405163c45a015560e01b815290602090829060049082906001600160a01b03165afa908115613463578591613421575b506130f89160209161013e549160405192848401528383526130db8361244b565b87604051809681958294632a422c2b60e21b845260048401612ed9565b03926001600160a01b03165af18015613375576133e8575b506001600160a01b0385163b156103dc57604051631e59818360e31b81526001600160a01b03898116600483015284908290602490829084908b165af18015613375576133d5575b5061013c54670de0b6b3a764000081818102048114821517156133c15761013b546101345460405163fc57d4df60e01b81526001600160a01b039182166004820152939291602091859160249183918b91165af19182156133b6578692613380575b6131c5935002612f08565b61012e54610134546101315460408051630afbf7f360e01b81526001600160a01b03948516600482015292841660248401529289166044830152606482015260848101929092528160a48173__$57bf2248a10612b83e4be7103a658af84f$__5af4801561337557906132b19291613357575b506001600160a01b038681168086526101356020908152604080882060020180546001600160a01b031916948e16948517905561013654815181815292830189905242918301919091529a9291907f58d1495ede629d89cfe4c00a5ad620a9ba231de4b1a5040c7b355d43092ff86b90606090a3612f3c565b92836132c1575b50505050929190565b61012e546101345460408051633c529ea760e01b8152969094879485946132ff94929391928b92916001600160a01b03918216911660048801612f49565b038173__$57bf2248a10612b83e4be7103a658af84f$__5af490811561334b575061332d575b8080806132b8565b6133459060403d604011610909576108fb8183612481565b50613325565b604051903d90823e3d90fd5b61336f9060403d604011610909576108fb8183612481565b50613238565b6040513d86823e3d90fd5b91506020833d6020116133ae575b8161339b60209383612481565b810103126123d4576131c59251916131ba565b3d915061338e565b6040513d88823e3d90fd5b634e487b7160e01b85526011600452602485fd5b6133e1909391936123ee565b915f613158565b6020813d602011613419575b8161340160209383612481565b810103126112165761341290612e6c565b505f613110565b3d91506133f4565b90506020813d60201161345b575b8161343c60209383612481565b81010312611212576130f891613453602092612e6c565b9150916130ba565b3d915061342f565b6040513d87823e3d90fd5b9097506020813d6020116134a2575b8161348a60209383612481565b810103126103dc5761349b90612e6c565b965f613041565b3d915061347d565b6040513d85823e3d90fd5b61012d546134d1926001600160a01b03918216918f911661352e565b5f8c612fec565b604051632ca2f52b60e11b8152600490fd5b9150506020813d60201161351b575b8161350660209383612481565b81010312613517578c90515f612fd4565b8d80fd5b3d91506134f9565b6040513d84823e3d90fd5b6040516323b872dd60e01b60208201526001600160a01b03928316602482015292909116604483015260648201929092526126de9161357a82608481015b03601f198101845283612481565b61358c565b519081151582036123d457565b6040516135e9916001600160a01b03166135a58261244b565b5f806020958685527f5361666545524332303a206c6f772d6c6576656c2063616c6c206661696c656487860152868151910182855af16135e3613678565b916136a7565b8051828115918215613659575b50509050156136025750565b6084906040519062461bcd60e51b82526004820152602a60248201527f5361666545524332303a204552433230206f7065726174696f6e20646964206e6044820152691bdd081cdd58d8d9595960b21b6064820152fd5b83809293500103126123d45781613670910161357f565b80825f6135f6565b3d156136a2573d90613689826124a2565b916136976040519384612481565b82523d5f602084013e565b606090565b9192901561370957508151156136bb575090565b3b156136c45790565b60405162461bcd60e51b815260206004820152601d60248201527f416464726573733a2063616c6c20746f206e6f6e2d636f6e74726163740000006044820152606490fd5b82519091501561371c5750805190602001fd5b60405162461bcd60e51b8152602060048201529081906128db906024830190612764565b81811061374b575050565b5f8155600101613740565b93906137ee95939796926020916137dc5f60018060a01b0361012f5416926137b3602b6040518361379082955180928c8086019101612743565b81016a08189e48125b9d1953995d60aa1b8a82015203600b810184520182612481565b610131546040516334f359f960e01b8152608060048201529b8c96879586946084860190612764565b84810360031901602486015290612764565b90604483015230606483015203925af19485156141e3575f956141ee575b50610130546101345461013a546040516309394e6160e11b81526001600160a01b03808a16600483015292831660248201523060448201526064810191909152969889979590929091602091879160849183915f91165af19485156141e3575f956141a7575b50835191602085015193606060408701519601519660405198896101808101106001600160401b036101808c011117612401576101808a0160405260018060a01b0316895260018060a01b038a1660208a01525f60408a015260018060a01b03166060890152608088015260a087015260c086015260e0850152610100840152610120830152610140820152600161016082015260018060a01b0382165f5261013560205260405f2060018060a01b038251166001600160601b0360a01b8254161781556001810160018060a01b036020840151166001600160601b0360a01b8254161790556002810160018060a01b036040840151166001600160601b0360a01b8254161790556003810160018060a01b036060840151166001600160601b0360a01b82541617905560808201518051906001600160401b0382116124015781906139c1600485015461266a565b601f8111614174575b50602090601f8311600114614106575f926140fb575b50508160011b915f199060031b1c19161760048201555b60a08201518051906001600160401b03821161240157600160401b82116124015760209060058401548360058601558084106140a7575b500190600583015f5260205f20905f5b8160051c81106140685750601f198116810361401a575b50505060c08201518051906001600160401b038211612401578190613a7d600685015461266a565b601f8111613fe7575b50602090601f8311600114613f79575f92613f6e575b50508160011b915f199060031b1c19161760068201555b60e08201518051906001600160401b038211612401578190613ad8600785015461266a565b601f8111613f3b575b50602090601f8311600114613ecd575f92613ec2575b50508160011b915f199060031b1c19161760078201555b6101008201518051906001600160401b038211612401578190613b34600885015461266a565b601f8111613e8f575b50602090601f8311600114613e21575f92613e16575b50508160011b915f199060031b1c19161760088201555b6101208201518051906001600160401b038211612401578190613b90600985015461266a565b601f8111613de3575b50602090601f8311600114613d75575f92613d6a575b50508160011b915f199060031b1c19161760098201555b600a81016101408301518051906001600160401b03821161240157613beb835461266a565b601f8111613d2f575b50602090601f8311600114613cc4579180600b949261016096945f92613cb9575b50508160011b915f199060031b1c19161790555b019101516003811015613ca55760ff80198354169116179055610136805490600160401b8210156124015760018201808255821015612c3a575f527f39da2db355130acf428d669fbf1c14faa9d51399a25b793fc254bbbde66f02e20180546001600160a01b0319166001600160a01b03909216919091179055565b634e487b7160e01b5f52602160045260245ffd5b015190505f80613c15565b90601f19831691845f5260205f20925f5b818110613d1757509260019285926101609896600b989610613cff575b505050811b019055613c29565b01515f1960f88460031b161c191690555f8080613cf2565b92936020600181928786015181550195019301613cd5565b613d5a90845f5260205f20601f850160051c81019160208610613d60575b601f0160051c0190613740565b5f613bf4565b9091508190613d4d565b015190505f80613baf565b9250600984015f5260205f20905f935b601f1984168510613dc8576001945083601f19811610613db0575b505050811b016009820155613bc6565b01515f1960f88460031b161c191690555f8080613da0565b81810151835560209485019460019093019290910190613d85565b613e1090600986015f5260205f20601f850160051c81019160208610613d6057601f0160051c0190613740565b5f613b99565b015190505f80613b53565b9250600884015f5260205f20905f935b601f1984168510613e74576001945083601f19811610613e5c575b505050811b016008820155613b6a565b01515f1960f88460031b161c191690555f8080613e4c565b81810151835560209485019460019093019290910190613e31565b613ebc90600886015f5260205f20601f850160051c81019160208610613d6057601f0160051c0190613740565b5f613b3d565b015190505f80613af7565b9250600784015f5260205f20905f935b601f1984168510613f20576001945083601f19811610613f08575b505050811b016007820155613b0e565b01515f1960f88460031b161c191690555f8080613ef8565b81810151835560209485019460019093019290910190613edd565b613f6890600786015f5260205f20601f850160051c81019160208610613d6057601f0160051c0190613740565b5f613ae1565b015190505f80613a9c565b9250600684015f5260205f20905f935b601f1984168510613fcc576001945083601f19811610613fb4575b505050811b016006820155613ab3565b01515f1960f88460031b161c191690555f8080613fa4565b81810151835560209485019460019093019290910190613f89565b61401490600686015f5260205f20601f850160051c81019160208610613d6057601f0160051c0190613740565b5f613a86565b5f925f5b601f1983168303811061403a57505060051c01555f8080613a55565b9093602061405f6001928460ff895116919060ff809160031b9316831b921b19161790565b9501910161401e565b5f805b60208110614080575083820155600101613a3e565b855190959160019160209160ff60038a901b81811b199092169216901b179201950161406b565b6140d590600586015f52601f845f2091818716806140db575b500160051c810190601f860160051c01613740565b5f613a2e565b5f199081848a0160051c86010191825491890360031b1c1690555f6140c0565b015190505f806139e0565b9250600484015f5260205f20905f935b601f1984168510614159576001945083601f19811610614141575b505050811b0160048201556139f7565b01515f1960f88460031b161c191690555f8080614131565b81810151835560209485019460019093019290910190614116565b6141a190600486015f5260205f20601f850160051c81019160208610613d6057601f0160051c0190613740565b5f6139ca565b9094506020813d6020116141db575b816141c360209383612481565b810103126123d4576141d490612e6c565b935f613872565b3d91506141b6565b6040513d5f823e3d90fd5b9094506020813d602011614222575b8161420a60209383612481565b810103126123d45761421b90612e6c565b935f61380c565b3d91506141fd565b6001600160a01b038083165f9081526101356020526040808220600b015490979691959394939060ff1660038110156142ff576001036142ee5782916142929189959461012e54169361013454169486519788968796627e8ae960e01b885260048801612f49565b038173__$57bf2248a10612b83e4be7103a658af84f$__5af49384156142e35782946142bf575b50509190565b6142da93945080919250903d10610909576108fb8183612481565b91905f806142b9565b51913d9150823e3d90fd5b87516305e1dfe360e11b8152600490fd5b634e487b7160e01b87526021600452602487fd5b929391935f9060018060a01b0383168252610135958660205260ff600b604085200154166003811015614b2a57600103614b185761012e805461013454604051633c529ea760e01b8152989294899461438394919390928992916001600160a01b03918216911660048801612f49565b0360408673__$57bf2248a10612b83e4be7103a658af84f$__9281845af480156134aa5783968491614af3575b5095966143bc85615754565b61013d5411156143ce575b5050505050565b6001600160a01b038516845260205260408320600b8101805490919060ff166003811015614adf57600214614acd5760028101805460405163c66f245560e01b815295919491906001600160a01b0316602087600481845afa9687156149de578897614a98575b509060206004949392604051958680926316d3df1560e31b82525afa9384156149de578894614a64575b5054610134546001600160a01b039081169116823b15610dea579060648992604051948593849263e743240d60e01b84526004840152602483015260018060a01b038d1660448301525af48015614a3257614a51575b506001600160a01b0387163b15610df65760405163f1b50c1d60e01b81528681600481836001600160a01b038d165af18015614a3257908791614a3d575b50509061456c9392916040805161450981612430565b6002815281366020830137610134546001600160a01b031661452a82612e80565b526001600160a01b038a1661453e82612e8d565b5260018060a01b0361013354168251808099819463237c65f960e01b83528660048401526044830190612e9d565b6001602483015203915afa948515614a325787956149e9575b50600301546001600160a01b031694853b15610df25760405163179a694160e11b81526001600160a01b03861660048201528781602481838b5af180156149de57899189916149c7575b50506146ea916146fd60018060a01b036101345416945f948580946146af604051916145fa83612430565b6002835260403660208501378a61461084612e80565b526001600160a01b03891661462484612e8d565b5261469c6040519661463588612430565b6002885260403660208a01378261464b89612e80565b528061465689612e8d565b526040519a6146648c612430565b60028c5260403660208e01378361467a8d612e80565b52816146858d612e8d565b52610133546001600160a01b03908116911661558e565b610133546001600160a01b03168b61558e565b61470c60018060a01b0361013354169460405198899788968795623c7cd360e91b87526001600488015260e0602488015260e4870190612e9d565b600319938487830301604488015261518b565b9184830301606485015261518b565b8260848301523060a48301524260c483015203925af1908115613523578290839261491c575b508061474061474692612e80565b50612e8d565b5061475b81886001600160a01b03891661558e565b863b1561040057604051906340519a5360e01b825260048201528181602481838b5af180156135235761490d575b506040516370a0823160e01b80825230600483015296906020816024816001600160a01b038e165afa9081156134aa5783916148db575b50604051978852306004890152602088602481875afa92831561334b5792614887575b7f381d54fa425631e6266af114239150fae1d5db67bb65b4fa9ecc65013107e07e97508061486d575b50508061484d575b5050805460ff1916600217905580546001600160a01b0319166001600160a01b0392831690811790915593169180a35f808080806143c7565b61012d54614866926001600160a01b0390911690615555565b5f80614814565b614880916001600160a01b038b16615555565b5f8061480c565b91506020873d6020116148d3575b816148a260209383612481565b810103126123d4577f381d54fa425631e6266af114239150fae1d5db67bb65b4fa9ecc65013107e07e9651916147e3565b3d9150614895565b90506020813d602011614905575b816148f660209383612481565b810103126123d457515f6147c0565b3d91506148e9565b614916906123ee565b5f614789565b9150503d8083833e61492e8183612481565b8101906040818303126103dc578051916001600160401b0383116112165780601f84840101121561121657828201519061496782612503565b936149756040519586612481565b828552602085019160208460051b838701010111610df657602081850101915b60208460051b838701010183106149b757505050506020015190614746614732565b8251815260209283019201614995565b6149d29192506123ee565b610df25787875f6145cf565b6040513d8a823e3d90fd5b9094506040813d604011614a2a575b81614a0560409383612481565b81010312610df257614a226020614a1b83612e6c565b920161357f565b50935f614585565b3d91506149f8565b6040513d89823e3d90fd5b614a46906123ee565b610df657855f6144f3565b614a5d909691966123ee565b945f6144b5565b9093506020813d602011614a90575b81614a8060209383612481565b81010312610dee5751925f61445f565b3d9150614a73565b9096506020813d602011614ac5575b81614ab460209383612481565b81010312610dee5751956020614435565b3d9150614aa7565b604051633a2cc0e960e11b8152600490fd5b634e487b7160e01b86526021600452602486fd5b9050614b0f91965060403d604011610909576108fb8183612481565b9590955f6143b0565b6040516305e1dfe360e11b8152600490fd5b634e487b7160e01b84526021600452602484fd5b6001600160a01b0391821691905f908315614be8578216918282526101356020526003604083200154168015614bd657803b1561040057818091602460405180948193631bf3091560e11b83528960048401525af1801561352357907f7363600ac233591b10e402fcff7bdaf80647430d9e03638e669d4834950433229291614bc7575b5080a3565b614bd0906123ee565b5f614bc2565b60405163ab54b81360e01b8152600490fd5b60405163e04bb5d960e01b8152600490fd5b9190811015612c3a5760051b0190565b356001600160a01b03811681036123d45790565b9594939291906020999d9b979c9860805261013b545f9a8b91602460018060a01b036101345416604051948593849263fc57d4df60e01b8452600484015260018060a01b03165af1801561515d578b90615125575b614c809150608051612c02565b808060011b04600214811517156151115760018b5261013960205260408b205490670de0b6b3a7640000918281029281840414901517156150fd5760011b106150eb57614ccc96613756565b6001600160a01b0381168452610135602052604080852090519891959190614cf38a612430565b60028a5260403660208c0137610134546001600160a01b0316614d158b612e80565b526001600160a01b038716614d298b612e8d565b526101335460405163c45a015560e01b815290602090829060049082906001600160a01b03165afa908115614a325787916150a5575b50614d9f98999a60209161013e54916040519284840152838352614d828361244b565b89604051809d81958294632a422c2b60e21b845260048401612ed9565b03926001600160a01b03165af19788156133b6578698615069575b50600b8101805460ff19166002908117909155810180546001600160a01b0319166001600160a01b038a8116919091179091556003909101541696873b15610df65760405163179a694160e11b81526001600160a01b03821660048201528681602481838d5af18015614a3257615056575b50604051614e3981612415565b600181526001600160a01b0388168752610137602052604087209051815460ff191660ff9190911617905561013854600160401b81101561240157600181018061013855811015612c3a576101385f527ff79a63dcec80ed75c82f36161f17b9c2f407860160383a7be0a0ee7962c527ae0180546001600160a01b0319166001600160a01b0389169081179091553b15610df65760405163f1b50c1d60e01b81528681600481836001600160a01b038d165af18015614a3257615042575b50614f8c9596979899610136546040519081526001602082015242604082015260018060a01b038316907f58d1495ede629d89cfe4c00a5ad620a9ba231de4b1a5040c7b355d43092ff86b606060018060a01b038d1692a36101345461012d54608051614f7492909130916001600160a01b03918216911661352e565b60805191898b60018060a01b036101345416926151be565b92915093614f9d8561013154612f3c565b813b156103dc5760405163da3e339760e01b81526001600160a01b038616600482015230602482015260448101919091529082908290606490829084905af180156135235761502e575b5050604080516001815260208101949094528301526001600160a01b0316907f4e8e1b96afa9116446f71ff323ac93786664fcbea87475ece33519357750f79090606090a2565b61503882916123ee565b6104655780614fe7565b61504c87916123ee565b610df6575f614ef7565b615062909691966123ee565b945f614e2c565b9097506020813d60201161509d575b8161508560209383612481565b81010312610df65761509690612e6c565b965f614dba565b3d9150615078565b90506020813d6020116150e3575b816150c060209383612481565b81010312610df257614d9f98999a6150d9602092612e6c565b91509a9998614d5f565b3d91506150b3565b604051634088b74160e01b8152600490fd5b634e487b7160e01b8c52601160045260248cfd5b634e487b7160e01b8b52601160045260248bfd5b506020813d602011615155575b8161513f60209383612481565b8101031261515157614c809051614c73565b8a80fd5b3d9150615132565b6040513d8d823e3d90fd5b60ff60019116019060ff8211612c1557565b60ff1660ff8114612c155760010190565b9081518082526020808093019301915f5b8281106151aa575050505090565b83518552938101939281019260010161519c565b9897909996919392955f80968195604051916151d983612430565b6002835260403660208501376151ee83612e80565b6001600160a01b038c16905261520383612e8d565b6001600160a01b038a1690526040519461521c86612430565b6002865260403660208801378161523287612e80565b528261523d87612e8d565b526040519761524b89612430565b6002895260403660208b013761526089612e80565b5261526a88612e8d565b5261013380549092615289916001600160a01b03908116908c1661558e565b81546152a391906001600160a01b03908116908d1661558e565b54604051623c7cd360e91b81526001600482015260e060248201529b8c966001600160a01b0390921695879586949193916152e29060e4870190612e9d565b9060031991828782030160448801526152fa9161518b565b9085820301606486015261530d9161518b565b9160848401523060a484015260c483015203925af196871561352357829583986154be575b508761535c818361534c6153458b612e80565b519a612e8d565b519a6001600160a01b031661558e565b6001600160a01b03821690813b156112125784916024839260405194859384926340519a5360e01b845260048401525af18015613375576154ab575b506040516370a0823160e01b8082523060048301529091906020836024816001600160a01b0388165afa928315613463578593615477575b506040519081523060048201526020816024816001600160a01b038a165afa94851561334b5794615443575b5081615429575b5050508061540f575050565b61012d546126de926001600160a01b039182169116615555565b61543b926001600160a01b0316615555565b5f8080615403565b9093506020813d60201161546f575b8161545f60209383612481565b810103126123d45751925f6153fc565b3d9150615452565b9092506020813d6020116154a3575b8161549360209383612481565b810103126123d45751915f6153d0565b3d9150615486565b6154b7909391936123ee565b915f615398565b955096503d8083873e6154d18187612481565b8501946040818703126103dc5780516001600160401b0381116112165781019580601f8801121561121657865161550781612503565b97615515604051998a612481565b8189526020808a019260051b820101928311610df657602001905b8282106155455750505060200151965f615332565b8151815260209182019101615530565b60405163a9059cbb60e01b60208201526001600160a01b03909216602483015260448201929092526126de9161357a826064810161356c565b60405163095ea7b360e01b602082018181526001600160a01b0385166024840152604480840196909652948252949390926155ca606485612481565b83515f926001600160a01b039291858416918591829182855af1906155ed613678565b82615677575b508161566c575b501561560a575b50505050509050565b6040519660208801521660248601528060448601526044855260808501908582106001600160401b03831117615658575061564d939461357a916040528261358c565b805f80808080615601565b634e487b7160e01b81526041600452602490fd5b90503b15155f6155fa565b8051919250811591821561568f575b5050905f6155f3565b81925090602091810103126112125760206156aa910161357f565b5f80615686565b60ff16801561572e575f19810160ff8111612c155760ff165f52610139908160205260405f205483111561571c577f1d518eb390459a1912a9b14c91cc0e67b8449b23fe75f7766658bd86057cb1a392604092825f5260205280835f205582519182526020820152a1565b60405163aabd5a0960e01b8152600490fd5b60405163e82a532960e01b8152600490fd5b51906001600160701b03821682036123d457565b60018060a01b03809116905f828152602090610135825260409182822060ff600b82015416906003821015614b2a5781156159db57908392918661013b5416966101349184828454169960248a51809a819363fc57d4df60e01b835260049e8f8401525af19687156159d15786976159a2575b50861561599257600201548116926001036158e05750509084869392815197888092630240bc6b60e21b82525afa80156158d657829683916158b3575b5095965b871580156158ab575b61589b5781908651948580926318160ddd60e01b82525afa9485156142e357508194615864575b50505061586092615856670de0b6b3a7640000959361585b93612c02565b612c02565b612f08565b0490565b909180939450813d8311615894575b61587d8183612481565b81010312610465575051908261585661585b615838565b503d615873565b8551633dce448b60e11b81528490fd5b508615615811565b90506158cd919650853d8711610909576108fb8183612481565b9590955f615804565b85513d84823e3d90fd5b8651630240bc6b60e21b815291979493926060908390879082905afa9182156159885784908593615933575b506001600160701b03809116921697541688105f1461592e57955b9596615808565b615927565b9250506060823d8211615980575b8161594e60609383612481565b810103126112165761595f82615740565b8761596b858501615740565b93015163ffffffff811603611212575f61590c565b3d9150615941565b87513d86823e3d90fd5b8751631d59567b60e11b81528990fd5b9096508481813d83116159ca575b6159ba8183612481565b81010312610df65751955f6157c7565b503d6159b0565b88513d88823e3d90fd5b845163c1ab6dc160e01b8152600490fd5b156159f357565b60405162461bcd60e51b815260206004820152602e60248201527f496e697469616c697a61626c653a20636f6e747261637420697320616c72656160448201526d191e481a5b9a5d1a585b1a5e995960921b6064820152608490fd5b15615a5657565b60405162461bcd60e51b815260206004820152602b60248201527f496e697469616c697a61626c653a20636f6e7472616374206973206e6f74206960448201526a6e697469616c697a696e6760a81b6064820152608490fdfea2646970667358221220ab91fb5e4a9ed1650c4da4d4547b1e7afd463d6008fd27a39e7d4056386cd2a364736f6c63430008140033",
  "libraries": {
    "INTRouterLibrary": "0x6FAbAC8069BC09cAD727fe49157ad69729222e8B"
  },
  "devdoc": {
    "events": {
      "Initialized(uint8)": {
        "details": "Triggered when the contract has been initialized or reinitialized."
      },
      "RoleAdminChanged(bytes32,bytes32,bytes32)": {
        "details": "Emitted when `newAdminRole` is set as ``role``'s admin role, replacing `previousAdminRole` `DEFAULT_ADMIN_ROLE` is the starting admin for all roles, despite {RoleAdminChanged} not being emitted signaling this. _Available since v3.1._"
      },
      "RoleGranted(bytes32,address,address)": {
        "details": "Emitted when `account` is granted `role`. `sender` is the account that originated the contract call, an admin role bearer except when using {AccessControl-_setupRole}."
      },
      "RoleRevoked(bytes32,address,address)": {
        "details": "Emitted when `account` is revoked `role`. `sender` is the account that originated the contract call:   - if using `revokeRole`, it is the admin role bearer   - if using `renounceRole`, it is the role bearer (i.e. `account`)"
      }
    },
    "kind": "dev",
    "methods": {
      "acceptOwnership()": {
        "details": "The new owner accepts the ownership transfer."
      },
      "boost1(string,string,uint8[],string,string,string[4],uint256,uint256,uint256,uint256,uint256,uint256)": {
        "details": "Only callable by owner. Adds liquidity via external router",
        "params": {
          "assetAmount": "Amount of asset tokens to add as liquidity",
          "assetAmountMin": "Minimum amount of asset tokens that must be added as liquidity",
          "cores": "Array of core values",
          "deadline": "Timestamp after which the transaction will revert",
          "desc": "Description of the token",
          "img": "Image URL for the token",
          "minLiquidity": "Minimum amount of liquidity tokens that must be minted",
          "name": "The name of the token",
          "ticker": "The ticker symbol of the token",
          "tokenAmount": "Amount of tokens to add as liquidity",
          "tokenAmountMin": "Minimum amount of tokens that must be added as liquidity",
          "urls": "Array of 4 URLs (twitter, telegram, farcaster, website)"
        }
      },
      "boost1For(address,string,string,uint8[],string,string,string[4],uint256,uint256,uint256,uint256,uint256,uint256)": {
        "details": "Only callable by owner. Adds liquidity via external router",
        "params": {
          "assetAmount": "Amount of asset tokens to add as liquidity",
          "assetAmountMin": "Minimum amount of asset tokens that must be added as liquidity",
          "cores": "Array of core values",
          "creator": "The creator of the token",
          "deadline": "Timestamp after which the transaction will revert",
          "desc": "Description of the token",
          "img": "Image URL for the token",
          "minLiquidity": "Minimum amount of liquidity tokens that must be minted",
          "name": "The name of the token",
          "ticker": "The ticker symbol of the token",
          "tokenAmount": "Amount of tokens to add as liquidity",
          "tokenAmountMin": "Minimum amount of tokens that must be added as liquidity",
          "urls": "Array of 4 URLs (twitter, telegram, farcaster, website)"
        }
      },
      "boost2(address,uint256,uint256,uint256,uint256,uint256,uint256)": {
        "details": "Only callable by booster. Adds liquidity via external router",
        "params": {
          "assetAmount": "Amount of asset tokens to add as liquidity",
          "assetAmountMin": "Minimum amount of asset tokens that must be added as liquidity",
          "deadline": "Timestamp after which the transaction will revert",
          "minLiquidity": "Minimum amount of liquidity tokens that must be minted",
          "token": "Address of token to boost",
          "tokenAmount": "Amount of tokens to add as liquidity",
          "tokenAmountMin": "Minimum amount of tokens that must be added as liquidity"
        }
      },
      "boost3(address,uint256,uint256,uint256,uint256,uint256,uint256)": {
        "details": "Only callable by owner. Adds liquidity via external router",
        "params": {
          "assetAmount": "Amount of asset tokens to add as liquidity",
          "assetAmountMin": "Minimum amount of asset tokens that must be added as liquidity",
          "deadline": "Timestamp after which the transaction will revert",
          "minLiquidity": "Minimum amount of liquidity tokens that must be minted",
          "token": "Address of token to boost",
          "tokenAmount": "Amount of tokens to add as liquidity",
          "tokenAmountMin": "Minimum amount of tokens that must be added as liquidity"
        }
      },
      "calculateMarketCap(address)": {
        "params": {
          "token": "The token address to calculate market cap for"
        },
        "returns": {
          "_0": "marketCap The calculated market cap in asset token value in 18 decimals"
        }
      },
      "delegateLPTo(address,address)": {
        "details": "Delegate LP token to the specified address.",
        "params": {
          "delegatee": "The address to delegate the LP token to.",
          "tokenAddr": "The address of the token to delegate its LP token."
        }
      },
      "delegateLPToBatch(address[],address[])": {
        "details": "Delegate LP token to the specified address for multiple tokens.",
        "params": {
          "delegatees": "The addresses to delegate the LP tokens to.",
          "tokens": "The addresses of the tokens to delegate their LP tokens."
        }
      },
      "getBoostCount()": {
        "returns": {
          "_0": "The length of boostInfos array"
        }
      },
      "getRoleAdmin(bytes32)": {
        "details": "Returns the admin role that controls `role`. See {grantRole} and {revokeRole}. To change a role's admin, use {_setRoleAdmin}."
      },
      "getTokenCount()": {
        "returns": {
          "_0": "The length of tokenInfos array"
        }
      },
      "grantRole(bytes32,address)": {
        "details": "Grants `role` to `account`. If `account` had not been already granted `role`, emits a {RoleGranted} event. Requirements: - the caller must have ``role``'s admin role. May emit a {RoleGranted} event."
      },
      "hasRole(bytes32,address)": {
        "details": "Returns `true` if `account` has been granted `role`."
      },
      "owner()": {
        "details": "Returns the address of the current owner."
      },
      "pendingOwner()": {
        "details": "Returns the address of the pending owner."
      },
      "renounceOwnership()": {
        "details": "Leaves the contract without owner. It will not be possible to call `onlyOwner` functions. Can only be called by the current owner. NOTE: Renouncing ownership will leave the contract without an owner, thereby disabling any functionality that is only available to the owner."
      },
      "renounceRole(bytes32,address)": {
        "details": "Revokes `role` from the calling account. Roles are often managed via {grantRole} and {revokeRole}: this function's purpose is to provide a mechanism for accounts to lose their privileges if they are compromised (such as when a trusted device is misplaced). If the calling account had been revoked `role`, emits a {RoleRevoked} event. Requirements: - the caller must be `account`. May emit a {RoleRevoked} event."
      },
      "revokeRole(bytes32,address)": {
        "details": "Revokes `role` from `account`. If `account` had been granted `role`, emits a {RoleRevoked} event. Requirements: - the caller must have ``role``'s admin role. May emit a {RoleRevoked} event."
      },
      "setAssetToken(address)": {
        "details": "Set the asset token address",
        "params": {
          "newAssetToken": "The new asset token address"
        }
      },
      "setBoostStageThreshold(uint8,uint256)": {
        "params": {
          "stage": "The boost stage number (1-3)",
          "threshold": "The threshold amount required for this stage"
        }
      },
      "setBoostStageThresholds(uint256[])": {
        "params": {
          "thresholds": "Array of threshold amounts for stages 1-3"
        }
      },
      "setExtRouter(address)": {
        "details": "Set the external router address",
        "params": {
          "newExtRouter": "The new external router address"
        }
      },
      "setFactory(address)": {
        "details": "Set the factory address",
        "params": {
          "newFactory": "The new factory address"
        }
      },
      "setFee(uint256,address)": {
        "details": "Set the fee and fee recipient",
        "params": {
          "newFee": "New fee amount",
          "newFeeTo": "New fee recipient"
        }
      },
      "setFeeType(uint256)": {
        "details": "Set the fee type of external AMM",
        "params": {
          "newFeeType": "The new asset token address"
        }
      },
      "setGradMarketCap(uint256)": {
        "details": "Set the graduation market cap threshold",
        "params": {
          "newMarketCap": "The new graduation market cap threshold"
        }
      },
      "setInitialMarketCap(uint256)": {
        "details": "Set the initial market cap threshold",
        "params": {
          "newMarketCap": "The new initial market cap threshold"
        }
      },
      "setInitialSupply(uint256)": {
        "details": "Set the initial supply for generating a new token",
        "params": {
          "newSupply": "New initial supply"
        }
      },
      "setLockFactory(address)": {
        "details": "Set the lock factory address",
        "params": {
          "newLockFactory": "The new lock factory address"
        }
      },
      "setLockedTime(uint256)": {
        "details": "Set the locked time for lp tokens that locked in the locker contract",
        "params": {
          "newLockedTime": "The new locked time"
        }
      },
      "setOracle(address)": {
        "details": "Set the oracle address",
        "params": {
          "newOracle": "The new oracle address"
        }
      },
      "setTokenFactory(address)": {
        "details": "Set the token factory address",
        "params": {
          "newTokenFactory": "The new token factory address"
        }
      },
      "supportsInterface(bytes4)": {
        "details": "See {IERC165-supportsInterface}."
      },
      "transferOwnership(address)": {
        "details": "Starts the ownership transfer of the contract to a new account. Replaces the pending transfer if there is one. Can only be called by the current owner."
      }
    },
    "version": 1
  },
  "userdoc": {
    "errors": {
      "ProfileNotExist()": [
        {
          "notice": "============================================ =                  ERRORS                  = ============================================"
        }
      ]
    },
    "events": {
      "Launched(address,address,uint256,uint8,uint256)": {
        "notice": "============================================ =                 EVENTS                   = ============================================"
      }
    },
    "kind": "user",
    "methods": {
      "boost1(string,string,uint8[],string,string,string[4],uint256,uint256,uint256,uint256,uint256,uint256)": {
        "notice": "Boost liquidity for a token by adding token and asset pairs"
      },
      "boost1For(address,string,string,uint8[],string,string,string[4],uint256,uint256,uint256,uint256,uint256,uint256)": {
        "notice": "Boost liquidity for a token by adding token and asset pairs"
      },
      "boost2(address,uint256,uint256,uint256,uint256,uint256,uint256)": {
        "notice": "Boost Stage 2 for a token by adding token and asset pairs"
      },
      "boost3(address,uint256,uint256,uint256,uint256,uint256,uint256)": {
        "notice": "Boost Stage 3 for a token by adding token and asset pairs"
      },
      "calculateMarketCap(address)": {
        "notice": "Calculate the market cap of a token using oracle price and liquidity reserves"
      },
      "delegateLPTo(address,address)": {
        "notice": "LP token should have been released in its locker contract."
      },
      "delegateLPToBatch(address[],address[])": {
        "notice": "LP token should have been released in its locker contract."
      },
      "getBoostCount()": {
        "notice": "Get the total number of boost created through bonding"
      },
      "getTokenCount()": {
        "notice": "Get the total number of tokens created through bonding"
      },
      "setAssetToken(address)": {
        "notice": "Owner should ensure the asset token address is correct"
      },
      "setBoostStageThreshold(uint8,uint256)": {
        "notice": "Set threshold for a boost stage"
      },
      "setBoostStageThresholds(uint256[])": {
        "notice": "Set thresholds for all boost stages in one transaction"
      },
      "setExtRouter(address)": {
        "notice": "Owner should ensure the external router address is correct"
      },
      "setFactory(address)": {
        "notice": "Owner should ensure the factory address is correct"
      },
      "setFeeType(uint256)": {
        "notice": "Owner should ensure the fee type is correct"
      },
      "setLockFactory(address)": {
        "notice": "Owner should ensure the lock factory address is correct"
      },
      "setTokenFactory(address)": {
        "notice": "Owner should ensure the token factory address is correct"
      }
    },
    "version": 1
  },
  "storageLayout": {
    "storage": [
      {
        "astId": 653,
        "contract": "src/BondingETH.sol:BondingETH",
        "label": "_initialized",
        "offset": 0,
        "slot": "0",
        "type": "t_uint8"
      },
      {
        "astId": 656,
        "contract": "src/BondingETH.sol:BondingETH",
        "label": "_initializing",
        "offset": 1,
        "slot": "0",
        "type": "t_bool"
      },
      {
        "astId": 829,
        "contract": "src/BondingETH.sol:BondingETH",
        "label": "_status",
        "offset": 0,
        "slot": "1",
        "type": "t_uint256"
      },
      {
        "astId": 898,
        "contract": "src/BondingETH.sol:BondingETH",
        "label": "__gap",
        "offset": 0,
        "slot": "2",
        "type": "t_array(t_uint256)49_storage"
      },
      {
        "astId": 1270,
        "contract": "src/BondingETH.sol:BondingETH",
        "label": "__gap",
        "offset": 0,
        "slot": "51",
        "type": "t_array(t_uint256)50_storage"
      },
      {
        "astId": 525,
        "contract": "src/BondingETH.sol:BondingETH",
        "label": "_owner",
        "offset": 0,
        "slot": "101",
        "type": "t_address"
      },
      {
        "astId": 645,
        "contract": "src/BondingETH.sol:BondingETH",
        "label": "__gap",
        "offset": 0,
        "slot": "102",
        "type": "t_array(t_uint256)49_storage"
      },
      {
        "astId": 434,
        "contract": "src/BondingETH.sol:BondingETH",
        "label": "_pendingOwner",
        "offset": 0,
        "slot": "151",
        "type": "t_address"
      },
      {
        "astId": 513,
        "contract": "src/BondingETH.sol:BondingETH",
        "label": "__gap",
        "offset": 0,
        "slot": "152",
        "type": "t_array(t_uint256)49_storage"
      },
      {
        "astId": 1543,
        "contract": "src/BondingETH.sol:BondingETH",
        "label": "__gap",
        "offset": 0,
        "slot": "201",
        "type": "t_array(t_uint256)50_storage"
      },
      {
        "astId": 39,
        "contract": "src/BondingETH.sol:BondingETH",
        "label": "_roles",
        "offset": 0,
        "slot": "251",
        "type": "t_mapping(t_bytes32,t_struct(RoleData)34_storage)"
      },
      {
        "astId": 334,
        "contract": "src/BondingETH.sol:BondingETH",
        "label": "__gap",
        "offset": 0,
        "slot": "252",
        "type": "t_array(t_uint256)49_storage"
      },
      {
        "astId": 6801,
        "contract": "src/BondingETH.sol:BondingETH",
        "label": "feeTo",
        "offset": 0,
        "slot": "301",
        "type": "t_address"
      },
      {
        "astId": 6804,
        "contract": "src/BondingETH.sol:BondingETH",
        "label": "factory",
        "offset": 0,
        "slot": "302",
        "type": "t_contract(INTFactory)10151"
      },
      {
        "astId": 6807,
        "contract": "src/BondingETH.sol:BondingETH",
        "label": "tokenFactory",
        "offset": 0,
        "slot": "303",
        "type": "t_contract(INTERC20Factory)9753"
      },
      {
        "astId": 6810,
        "contract": "src/BondingETH.sol:BondingETH",
        "label": "lockFactory",
        "offset": 0,
        "slot": "304",
        "type": "t_contract(LockFactory)10912"
      },
      {
        "astId": 6812,
        "contract": "src/BondingETH.sol:BondingETH",
        "label": "initialSupply",
        "offset": 0,
        "slot": "305",
        "type": "t_uint256"
      },
      {
        "astId": 6814,
        "contract": "src/BondingETH.sol:BondingETH",
        "label": "fee",
        "offset": 0,
        "slot": "306",
        "type": "t_uint256"
      },
      {
        "astId": 6817,
        "contract": "src/BondingETH.sol:BondingETH",
        "label": "extRouter",
        "offset": 0,
        "slot": "307",
        "type": "t_contract(IExtRouter)11252"
      },
      {
        "astId": 6819,
        "contract": "src/BondingETH.sol:BondingETH",
        "label": "assetToken",
        "offset": 0,
        "slot": "308",
        "type": "t_address"
      },
      {
        "astId": 6855,
        "contract": "src/BondingETH.sol:BondingETH",
        "label": "tokenInfo",
        "offset": 0,
        "slot": "309",
        "type": "t_mapping(t_address,t_struct(Token)6850_storage)"
      },
      {
        "astId": 6858,
        "contract": "src/BondingETH.sol:BondingETH",
        "label": "tokenInfos",
        "offset": 0,
        "slot": "310",
        "type": "t_array(t_address)dyn_storage"
      },
      {
        "astId": 6866,
        "contract": "src/BondingETH.sol:BondingETH",
        "label": "boostInfo",
        "offset": 0,
        "slot": "311",
        "type": "t_mapping(t_address,t_struct(BoostInfo)6861_storage)"
      },
      {
        "astId": 6869,
        "contract": "src/BondingETH.sol:BondingETH",
        "label": "boostInfos",
        "offset": 0,
        "slot": "312",
        "type": "t_array(t_address)dyn_storage"
      },
      {
        "astId": 6878,
        "contract": "src/BondingETH.sol:BondingETH",
        "label": "boostStageThresholds",
        "offset": 0,
        "slot": "313",
        "type": "t_mapping(t_uint8,t_uint256)"
      },
      {
        "astId": 6880,
        "contract": "src/BondingETH.sol:BondingETH",
        "label": "lockedTime",
        "offset": 0,
        "slot": "314",
        "type": "t_uint256"
      },
      {
        "astId": 6883,
        "contract": "src/BondingETH.sol:BondingETH",
        "label": "oracle",
        "offset": 0,
        "slot": "315",
        "type": "t_contract(IOracle)11379"
      },
      {
        "astId": 6885,
        "contract": "src/BondingETH.sol:BondingETH",
        "label": "initialMarketCap",
        "offset": 0,
        "slot": "316",
        "type": "t_uint256"
      },
      {
        "astId": 6887,
        "contract": "src/BondingETH.sol:BondingETH",
        "label": "gradMarketCap",
        "offset": 0,
        "slot": "317",
        "type": "t_uint256"
      },
      {
        "astId": 6889,
        "contract": "src/BondingETH.sol:BondingETH",
        "label": "feeType",
        "offset": 0,
        "slot": "318",
        "type": "t_uint256"
      }
    ],
    "types": {
      "t_address": {
        "encoding": "inplace",
        "label": "address",
        "numberOfBytes": "20"
      },
      "t_array(t_address)dyn_storage": {
        "base": "t_address",
        "encoding": "dynamic_array",
        "label": "address[]",
        "numberOfBytes": "32"
      },
      "t_array(t_uint256)49_storage": {
        "base": "t_uint256",
        "encoding": "inplace",
        "label": "uint256[49]",
        "numberOfBytes": "1568"
      },
      "t_array(t_uint256)50_storage": {
        "base": "t_uint256",
        "encoding": "inplace",
        "label": "uint256[50]",
        "numberOfBytes": "1600"
      },
      "t_array(t_uint8)dyn_storage": {
        "base": "t_uint8",
        "encoding": "dynamic_array",
        "label": "uint8[]",
        "numberOfBytes": "32"
      },
      "t_bool": {
        "encoding": "inplace",
        "label": "bool",
        "numberOfBytes": "1"
      },
      "t_bytes32": {
        "encoding": "inplace",
        "label": "bytes32",
        "numberOfBytes": "32"
      },
      "t_contract(IExtRouter)11252": {
        "encoding": "inplace",
        "label": "contract IExtRouter",
        "numberOfBytes": "20"
      },
      "t_contract(INTERC20Factory)9753": {
        "encoding": "inplace",
        "label": "contract INTERC20Factory",
        "numberOfBytes": "20"
      },
      "t_contract(INTFactory)10151": {
        "encoding": "inplace",
        "label": "contract INTFactory",
        "numberOfBytes": "20"
      },
      "t_contract(IOracle)11379": {
        "encoding": "inplace",
        "label": "contract IOracle",
        "numberOfBytes": "20"
      },
      "t_contract(LockFactory)10912": {
        "encoding": "inplace",
        "label": "contract LockFactory",
        "numberOfBytes": "20"
      },
      "t_enum(TokenStatus)6823": {
        "encoding": "inplace",
        "label": "enum Bonding.TokenStatus",
        "numberOfBytes": "1"
      },
      "t_mapping(t_address,t_bool)": {
        "encoding": "mapping",
        "key": "t_address",
        "label": "mapping(address => bool)",
        "numberOfBytes": "32",
        "value": "t_bool"
      },
      "t_mapping(t_address,t_struct(BoostInfo)6861_storage)": {
        "encoding": "mapping",
        "key": "t_address",
        "label": "mapping(address => struct Bonding.BoostInfo)",
        "numberOfBytes": "32",
        "value": "t_struct(BoostInfo)6861_storage"
      },
      "t_mapping(t_address,t_struct(Token)6850_storage)": {
        "encoding": "mapping",
        "key": "t_address",
        "label": "mapping(address => struct Bonding.Token)",
        "numberOfBytes": "32",
        "value": "t_struct(Token)6850_storage"
      },
      "t_mapping(t_bytes32,t_struct(RoleData)34_storage)": {
        "encoding": "mapping",
        "key": "t_bytes32",
        "label": "mapping(bytes32 => struct AccessControlUpgradeable.RoleData)",
        "numberOfBytes": "32",
        "value": "t_struct(RoleData)34_storage"
      },
      "t_mapping(t_uint8,t_uint256)": {
        "encoding": "mapping",
        "key": "t_uint8",
        "label": "mapping(uint8 => uint256)",
        "numberOfBytes": "32",
        "value": "t_uint256"
      },
      "t_string_storage": {
        "encoding": "bytes",
        "label": "string",
        "numberOfBytes": "32"
      },
      "t_struct(BoostInfo)6861_storage": {
        "encoding": "inplace",
        "label": "struct Bonding.BoostInfo",
        "members": [
          {
            "astId": 6860,
            "contract": "src/BondingETH.sol:BondingETH",
            "label": "stage",
            "offset": 0,
            "slot": "0",
            "type": "t_uint8"
          }
        ],
        "numberOfBytes": "32"
      },
      "t_struct(RoleData)34_storage": {
        "encoding": "inplace",
        "label": "struct AccessControlUpgradeable.RoleData",
        "members": [
          {
            "astId": 31,
            "contract": "src/BondingETH.sol:BondingETH",
            "label": "members",
            "offset": 0,
            "slot": "0",
            "type": "t_mapping(t_address,t_bool)"
          },
          {
            "astId": 33,
            "contract": "src/BondingETH.sol:BondingETH",
            "label": "adminRole",
            "offset": 0,
            "slot": "1",
            "type": "t_bytes32"
          }
        ],
        "numberOfBytes": "64"
      },
      "t_struct(Token)6850_storage": {
        "encoding": "inplace",
        "label": "struct Bonding.Token",
        "members": [
          {
            "astId": 6825,
            "contract": "src/BondingETH.sol:BondingETH",
            "label": "creator",
            "offset": 0,
            "slot": "0",
            "type": "t_address"
          },
          {
            "astId": 6827,
            "contract": "src/BondingETH.sol:BondingETH",
            "label": "token",
            "offset": 0,
            "slot": "1",
            "type": "t_address"
          },
          {
            "astId": 6829,
            "contract": "src/BondingETH.sol:BondingETH",
            "label": "pair",
            "offset": 0,
            "slot": "2",
            "type": "t_address"
          },
          {
            "astId": 6831,
            "contract": "src/BondingETH.sol:BondingETH",
            "label": "locker",
            "offset": 0,
            "slot": "3",
            "type": "t_address"
          },
          {
            "astId": 6833,
            "contract": "src/BondingETH.sol:BondingETH",
            "label": "description",
            "offset": 0,
            "slot": "4",
            "type": "t_string_storage"
          },
          {
            "astId": 6836,
            "contract": "src/BondingETH.sol:BondingETH",
            "label": "cores",
            "offset": 0,
            "slot": "5",
            "type": "t_array(t_uint8)dyn_storage"
          },
          {
            "astId": 6838,
            "contract": "src/BondingETH.sol:BondingETH",
            "label": "image",
            "offset": 0,
            "slot": "6",
            "type": "t_string_storage"
          },
          {
            "astId": 6840,
            "contract": "src/BondingETH.sol:BondingETH",
            "label": "twitter",
            "offset": 0,
            "slot": "7",
            "type": "t_string_storage"
          },
          {
            "astId": 6842,
            "contract": "src/BondingETH.sol:BondingETH",
            "label": "telegram",
            "offset": 0,
            "slot": "8",
            "type": "t_string_storage"
          },
          {
            "astId": 6844,
            "contract": "src/BondingETH.sol:BondingETH",
            "label": "farcaster",
            "offset": 0,
            "slot": "9",
            "type": "t_string_storage"
          },
          {
            "astId": 6846,
            "contract": "src/BondingETH.sol:BondingETH",
            "label": "website",
            "offset": 0,
            "slot": "10",
            "type": "t_string_storage"
          },
          {
            "astId": 6849,
            "contract": "src/BondingETH.sol:BondingETH",
            "label": "status",
            "offset": 0,
            "slot": "11",
            "type": "t_enum(TokenStatus)6823"
          }
        ],
        "numberOfBytes": "384"
      },
      "t_uint256": {
        "encoding": "inplace",
        "label": "uint256",
        "numberOfBytes": "32"
      },
      "t_uint8": {
        "encoding": "inplace",
        "label": "uint8",
        "numberOfBytes": "1"
      }
    }
  }
}