{
  "address": "0x5Df7409F43e1E0211027836078dcf515DCA52615",
  "abi": [
    {
      "inputs": [],
      "stateMutability": "nonpayable",
      "type": "constructor"
    },
    {
      "inputs": [],
      "name": "AlreadyTrading",
      "type": "error"
    },
    {
      "inputs": [],
      "name": "InputArrayMismatch",
      "type": "error"
    },
    {
      "inputs": [],
      "name": "InsufficientAmount",
      "type": "error"
    },
    {
      "inputs": [],
      "name": "InvalidAssetPrice",
      "type": "error"
    },
    {
      "inputs": [],
      "name": "InvalidDelegatee",
      "type": "error"
    },
    {
      "inputs": [],
      "name": "InvalidLockTime",
      "type": "error"
    },
    {
      "inputs": [],
      "name": "InvalidLocker",
      "type": "error"
    },
    {
      "inputs": [],
      "name": "InvalidMarketCap",
      "type": "error"
    },
    {
      "inputs": [],
      "name": "InvalidOracle",
      "type": "error"
    },
    {
      "inputs": [],
      "name": "InvalidRate",
      "type": "error"
    },
    {
      "inputs": [],
      "name": "InvalidReserves",
      "type": "error"
    },
    {
      "inputs": [],
      "name": "InvalidStage",
      "type": "error"
    },
    {
      "inputs": [],
      "name": "InvalidThreshold",
      "type": "error"
    },
    {
      "inputs": [],
      "name": "InvalidToken",
      "type": "error"
    },
    {
      "inputs": [],
      "name": "LiquidityTooLow",
      "type": "error"
    },
    {
      "inputs": [],
      "name": "MarketCapTooLow",
      "type": "error"
    },
    {
      "inputs": [],
      "name": "NotTrading",
      "type": "error"
    },
    {
      "inputs": [],
      "name": "ProfileNotExist",
      "type": "error"
    },
    {
      "inputs": [],
      "name": "WrongBoostStage",
      "type": "error"
    },
    {
      "anonymous": false,
      "inputs": [
        {
          "indexed": false,
          "internalType": "address",
          "name": "newAssetToken",
          "type": "address"
        }
      ],
      "name": "AssetTokenSet",
      "type": "event"
    },
    {
      "anonymous": false,
      "inputs": [
        {
          "indexed": false,
          "internalType": "uint8",
          "name": "stage",
          "type": "uint8"
        },
        {
          "indexed": false,
          "internalType": "uint256",
          "name": "threshold",
          "type": "uint256"
        }
      ],
      "name": "BoostStageThresholdUpdated",
      "type": "event"
    },
    {
      "anonymous": false,
      "inputs": [
        {
          "indexed": true,
          "internalType": "address",
          "name": "token",
          "type": "address"
        },
        {
          "indexed": false,
          "internalType": "uint8",
          "name": "stage",
          "type": "uint8"
        },
        {
          "indexed": false,
          "internalType": "uint256",
          "name": "amount",
          "type": "uint256"
        },
        {
          "indexed": false,
          "internalType": "uint256",
          "name": "assetAmount",
          "type": "uint256"
        }
      ],
      "name": "Boosted",
      "type": "event"
    },
    {
      "anonymous": false,
      "inputs": [
        {
          "indexed": true,
          "internalType": "address",
          "name": "token",
          "type": "address"
        },
        {
          "indexed": true,
          "internalType": "address",
          "name": "delegatee",
          "type": "address"
        }
      ],
      "name": "DelegateLPTo",
      "type": "event"
    },
    {
      "anonymous": false,
      "inputs": [
        {
          "indexed": false,
          "internalType": "address",
          "name": "newExtRouter",
          "type": "address"
        }
      ],
      "name": "ExtRouterSet",
      "type": "event"
    },
    {
      "anonymous": false,
      "inputs": [
        {
          "indexed": false,
          "internalType": "address",
          "name": "newFactory",
          "type": "address"
        }
      ],
      "name": "FactorySet",
      "type": "event"
    },
    {
      "anonymous": false,
      "inputs": [
        {
          "indexed": false,
          "internalType": "uint256",
          "name": "newFee",
          "type": "uint256"
        },
        {
          "indexed": false,
          "internalType": "address",
          "name": "newFeeTo",
          "type": "address"
        }
      ],
      "name": "FeeSet",
      "type": "event"
    },
    {
      "anonymous": false,
      "inputs": [
        {
          "indexed": false,
          "internalType": "uint256",
          "name": "newFeeType",
          "type": "uint256"
        }
      ],
      "name": "FeeTypeSet",
      "type": "event"
    },
    {
      "anonymous": false,
      "inputs": [
        {
          "indexed": false,
          "internalType": "uint256",
          "name": "newMarketCap",
          "type": "uint256"
        }
      ],
      "name": "GradMarketCapSet",
      "type": "event"
    },
    {
      "anonymous": false,
      "inputs": [
        {
          "indexed": true,
          "internalType": "address",
          "name": "token",
          "type": "address"
        },
        {
          "indexed": true,
          "internalType": "address",
          "name": "lp",
          "type": "address"
        }
      ],
      "name": "Graduated",
      "type": "event"
    },
    {
      "anonymous": false,
      "inputs": [
        {
          "indexed": false,
          "internalType": "uint256",
          "name": "newMarketCap",
          "type": "uint256"
        }
      ],
      "name": "InitialMarketCapSet",
      "type": "event"
    },
    {
      "anonymous": false,
      "inputs": [
        {
          "indexed": false,
          "internalType": "uint256",
          "name": "newSupply",
          "type": "uint256"
        }
      ],
      "name": "InitializeSupplySet",
      "type": "event"
    },
    {
      "anonymous": false,
      "inputs": [
        {
          "indexed": false,
          "internalType": "uint8",
          "name": "version",
          "type": "uint8"
        }
      ],
      "name": "Initialized",
      "type": "event"
    },
    {
      "anonymous": false,
      "inputs": [
        {
          "indexed": true,
          "internalType": "address",
          "name": "token",
          "type": "address"
        },
        {
          "indexed": true,
          "internalType": "address",
          "name": "pair",
          "type": "address"
        },
        {
          "indexed": false,
          "internalType": "uint256",
          "name": "totalTokens",
          "type": "uint256"
        },
        {
          "indexed": false,
          "internalType": "uint8",
          "name": "tokenType",
          "type": "uint8"
        },
        {
          "indexed": false,
          "internalType": "uint256",
          "name": "timestamp",
          "type": "uint256"
        }
      ],
      "name": "Launched",
      "type": "event"
    },
    {
      "anonymous": false,
      "inputs": [
        {
          "indexed": false,
          "internalType": "address",
          "name": "newLockFactory",
          "type": "address"
        }
      ],
      "name": "LockFactorySet",
      "type": "event"
    },
    {
      "anonymous": false,
      "inputs": [
        {
          "indexed": false,
          "internalType": "uint256",
          "name": "newLockedTime",
          "type": "uint256"
        }
      ],
      "name": "LockedTimeSet",
      "type": "event"
    },
    {
      "anonymous": false,
      "inputs": [
        {
          "indexed": false,
          "internalType": "address",
          "name": "newOracle",
          "type": "address"
        }
      ],
      "name": "OracleSet",
      "type": "event"
    },
    {
      "anonymous": false,
      "inputs": [
        {
          "indexed": true,
          "internalType": "address",
          "name": "previousOwner",
          "type": "address"
        },
        {
          "indexed": true,
          "internalType": "address",
          "name": "newOwner",
          "type": "address"
        }
      ],
      "name": "OwnershipTransferStarted",
      "type": "event"
    },
    {
      "anonymous": false,
      "inputs": [
        {
          "indexed": true,
          "internalType": "address",
          "name": "previousOwner",
          "type": "address"
        },
        {
          "indexed": true,
          "internalType": "address",
          "name": "newOwner",
          "type": "address"
        }
      ],
      "name": "OwnershipTransferred",
      "type": "event"
    },
    {
      "anonymous": false,
      "inputs": [
        {
          "indexed": true,
          "internalType": "bytes32",
          "name": "role",
          "type": "bytes32"
        },
        {
          "indexed": true,
          "internalType": "bytes32",
          "name": "previousAdminRole",
          "type": "bytes32"
        },
        {
          "indexed": true,
          "internalType": "bytes32",
          "name": "newAdminRole",
          "type": "bytes32"
        }
      ],
      "name": "RoleAdminChanged",
      "type": "event"
    },
    {
      "anonymous": false,
      "inputs": [
        {
          "indexed": true,
          "internalType": "bytes32",
          "name": "role",
          "type": "bytes32"
        },
        {
          "indexed": true,
          "internalType": "address",
          "name": "account",
          "type": "address"
        },
        {
          "indexed": true,
          "internalType": "address",
          "name": "sender",
          "type": "address"
        }
      ],
      "name": "RoleGranted",
      "type": "event"
    },
    {
      "anonymous": false,
      "inputs": [
        {
          "indexed": true,
          "internalType": "bytes32",
          "name": "role",
          "type": "bytes32"
        },
        {
          "indexed": true,
          "internalType": "address",
          "name": "account",
          "type": "address"
        },
        {
          "indexed": true,
          "internalType": "address",
          "name": "sender",
          "type": "address"
        }
      ],
      "name": "RoleRevoked",
      "type": "event"
    },
    {
      "anonymous": false,
      "inputs": [
        {
          "indexed": false,
          "internalType": "address",
          "name": "newRouter",
          "type": "address"
        }
      ],
      "name": "RouterSet",
      "type": "event"
    },
    {
      "anonymous": false,
      "inputs": [
        {
          "indexed": false,
          "internalType": "address",
          "name": "newTokenFactory",
          "type": "address"
        }
      ],
      "name": "TokenFactorySet",
      "type": "event"
    },
    {
      "inputs": [],
      "name": "BOOSTER_ROLE",
      "outputs": [
        {
          "internalType": "bytes32",
          "name": "",
          "type": "bytes32"
        }
      ],
      "stateMutability": "view",
      "type": "function"
    },
    {
      "inputs": [],
      "name": "DEFAULT_ADMIN_ROLE",
      "outputs": [
        {
          "internalType": "bytes32",
          "name": "",
          "type": "bytes32"
        }
      ],
      "stateMutability": "view",
      "type": "function"
    },
    {
      "inputs": [],
      "name": "acceptOwnership",
      "outputs": [],
      "stateMutability": "nonpayable",
      "type": "function"
    },
    {
      "inputs": [],
      "name": "assetToken",
      "outputs": [
        {
          "internalType": "address",
          "name": "",
          "type": "address"
        }
      ],
      "stateMutability": "view",
      "type": "function"
    },
    {
      "inputs": [
        {
          "internalType": "string",
          "name": "name",
          "type": "string"
        },
        {
          "internalType": "string",
          "name": "ticker",
          "type": "string"
        },
        {
          "internalType": "uint8[]",
          "name": "cores",
          "type": "uint8[]"
        },
        {
          "internalType": "string",
          "name": "desc",
          "type": "string"
        },
        {
          "internalType": "string",
          "name": "img",
          "type": "string"
        },
        {
          "internalType": "string[4]",
          "name": "urls",
          "type": "string[4]"
        },
        {
          "internalType": "uint256",
          "name": "tokenAmount",
          "type": "uint256"
        },
        {
          "internalType": "uint256",
          "name": "assetAmount",
          "type": "uint256"
        },
        {
          "internalType": "uint256",
          "name": "tokenAmountMin",
          "type": "uint256"
        },
        {
          "internalType": "uint256",
          "name": "assetAmountMin",
          "type": "uint256"
        },
        {
          "internalType": "uint256",
          "name": "minLiquidity",
          "type": "uint256"
        },
        {
          "internalType": "uint256",
          "name": "deadline",
          "type": "uint256"
        }
      ],
      "name": "boost1",
      "outputs": [],
      "stateMutability": "nonpayable",
      "type": "function"
    },
    {
      "inputs": [
        {
          "internalType": "address",
          "name": "creator",
          "type": "address"
        },
        {
          "internalType": "string",
          "name": "name",
          "type": "string"
        },
        {
          "internalType": "string",
          "name": "ticker",
          "type": "string"
        },
        {
          "internalType": "uint8[]",
          "name": "cores",
          "type": "uint8[]"
        },
        {
          "internalType": "string",
          "name": "desc",
          "type": "string"
        },
        {
          "internalType": "string",
          "name": "img",
          "type": "string"
        },
        {
          "internalType": "string[4]",
          "name": "urls",
          "type": "string[4]"
        },
        {
          "internalType": "uint256",
          "name": "tokenAmount",
          "type": "uint256"
        },
        {
          "internalType": "uint256",
          "name": "assetAmount",
          "type": "uint256"
        },
        {
          "internalType": "uint256",
          "name": "tokenAmountMin",
          "type": "uint256"
        },
        {
          "internalType": "uint256",
          "name": "assetAmountMin",
          "type": "uint256"
        },
        {
          "internalType": "uint256",
          "name": "minLiquidity",
          "type": "uint256"
        },
        {
          "internalType": "uint256",
          "name": "deadline",
          "type": "uint256"
        }
      ],
      "name": "boost1For",
      "outputs": [],
      "stateMutability": "nonpayable",
      "type": "function"
    },
    {
      "inputs": [
        {
          "internalType": "address",
          "name": "token",
          "type": "address"
        },
        {
          "internalType": "uint256",
          "name": "tokenAmount",
          "type": "uint256"
        },
        {
          "internalType": "uint256",
          "name": "assetAmount",
          "type": "uint256"
        },
        {
          "internalType": "uint256",
          "name": "tokenAmountMin",
          "type": "uint256"
        },
        {
          "internalType": "uint256",
          "name": "assetAmountMin",
          "type": "uint256"
        },
        {
          "internalType": "uint256",
          "name": "minLiquidity",
          "type": "uint256"
        },
        {
          "internalType": "uint256",
          "name": "deadline",
          "type": "uint256"
        }
      ],
      "name": "boost2",
      "outputs": [],
      "stateMutability": "nonpayable",
      "type": "function"
    },
    {
      "inputs": [
        {
          "internalType": "address",
          "name": "token",
          "type": "address"
        },
        {
          "internalType": "uint256",
          "name": "tokenAmount",
          "type": "uint256"
        },
        {
          "internalType": "uint256",
          "name": "assetAmount",
          "type": "uint256"
        },
        {
          "internalType": "uint256",
          "name": "tokenAmountMin",
          "type": "uint256"
        },
        {
          "internalType": "uint256",
          "name": "assetAmountMin",
          "type": "uint256"
        },
        {
          "internalType": "uint256",
          "name": "minLiquidity",
          "type": "uint256"
        },
        {
          "internalType": "uint256",
          "name": "deadline",
          "type": "uint256"
        }
      ],
      "name": "boost3",
      "outputs": [],
      "stateMutability": "nonpayable",
      "type": "function"
    },
    {
      "inputs": [
        {
          "internalType": "address",
          "name": "",
          "type": "address"
        }
      ],
      "name": "boostInfo",
      "outputs": [
        {
          "internalType": "uint8",
          "name": "stage",
          "type": "uint8"
        }
      ],
      "stateMutability": "view",
      "type": "function"
    },
    {
      "inputs": [
        {
          "internalType": "uint256",
          "name": "",
          "type": "uint256"
        }
      ],
      "name": "boostInfos",
      "outputs": [
        {
          "internalType": "address",
          "name": "",
          "type": "address"
        }
      ],
      "stateMutability": "view",
      "type": "function"
    },
    {
      "inputs": [
        {
          "internalType": "uint8",
          "name": "",
          "type": "uint8"
        }
      ],
      "name": "boostStageThresholds",
      "outputs": [
        {
          "internalType": "uint256",
          "name": "",
          "type": "uint256"
        }
      ],
      "stateMutability": "view",
      "type": "function"
    },
    {
      "inputs": [
        {
          "internalType": "uint256",
          "name": "amountIn",
          "type": "uint256"
        },
        {
          "internalType": "address",
          "name": "tokenAddress",
          "type": "address"
        }
      ],
      "name": "buy",
      "outputs": [
        {
          "internalType": "bool",
          "name": "",
          "type": "bool"
        }
      ],
      "stateMutability": "nonpayable",
      "type": "function"
    },
    {
      "inputs": [
        {
          "internalType": "address",
          "name": "token",
          "type": "address"
        }
      ],
      "name": "calculateMarketCap",
      "outputs": [
        {
          "internalType": "uint256",
          "name": "",
          "type": "uint256"
        }
      ],
      "stateMutability": "nonpayable",
      "type": "function"
    },
    {
      "inputs": [
        {
          "internalType": "address",
          "name": "tokenAddr",
          "type": "address"
        },
        {
          "internalType": "address",
          "name": "delegatee",
          "type": "address"
        }
      ],
      "name": "delegateLPTo",
      "outputs": [],
      "stateMutability": "nonpayable",
      "type": "function"
    },
    {
      "inputs": [
        {
          "internalType": "address[]",
          "name": "tokens",
          "type": "address[]"
        },
        {
          "internalType": "address[]",
          "name": "delegatees",
          "type": "address[]"
        }
      ],
      "name": "delegateLPToBatch",
      "outputs": [],
      "stateMutability": "nonpayable",
      "type": "function"
    },
    {
      "inputs": [],
      "name": "extRouter",
      "outputs": [
        {
          "internalType": "contract IExtRouter",
          "name": "",
          "type": "address"
        }
      ],
      "stateMutability": "view",
      "type": "function"
    },
    {
      "inputs": [],
      "name": "factory",
      "outputs": [
        {
          "internalType": "contract INTFactory",
          "name": "",
          "type": "address"
        }
      ],
      "stateMutability": "view",
      "type": "function"
    },
    {
      "inputs": [],
      "name": "fee",
      "outputs": [
        {
          "internalType": "uint256",
          "name": "",
          "type": "uint256"
        }
      ],
      "stateMutability": "view",
      "type": "function"
    },
    {
      "inputs": [],
      "name": "feeTo",
      "outputs": [
        {
          "internalType": "address",
          "name": "",
          "type": "address"
        }
      ],
      "stateMutability": "view",
      "type": "function"
    },
    {
      "inputs": [],
      "name": "feeType",
      "outputs": [
        {
          "internalType": "uint256",
          "name": "",
          "type": "uint256"
        }
      ],
      "stateMutability": "view",
      "type": "function"
    },
    {
      "inputs": [],
      "name": "getBoostCount",
      "outputs": [
        {
          "internalType": "uint256",
          "name": "",
          "type": "uint256"
        }
      ],
      "stateMutability": "view",
      "type": "function"
    },
    {
      "inputs": [
        {
          "internalType": "address",
          "name": "token",
          "type": "address"
        }
      ],
      "name": "getBoostInfo",
      "outputs": [
        {
          "components": [
            {
              "internalType": "uint8",
              "name": "stage",
              "type": "uint8"
            }
          ],
          "internalType": "struct Bonding.BoostInfo",
          "name": "",
          "type": "tuple"
        }
      ],
      "stateMutability": "view",
      "type": "function"
    },
    {
      "inputs": [
        {
          "internalType": "bytes32",
          "name": "role",
          "type": "bytes32"
        }
      ],
      "name": "getRoleAdmin",
      "outputs": [
        {
          "internalType": "bytes32",
          "name": "",
          "type": "bytes32"
        }
      ],
      "stateMutability": "view",
      "type": "function"
    },
    {
      "inputs": [],
      "name": "getTokenCount",
      "outputs": [
        {
          "internalType": "uint256",
          "name": "",
          "type": "uint256"
        }
      ],
      "stateMutability": "view",
      "type": "function"
    },
    {
      "inputs": [
        {
          "internalType": "address",
          "name": "tokenAddress",
          "type": "address"
        }
      ],
      "name": "getTokenCreator",
      "outputs": [
        {
          "internalType": "address",
          "name": "",
          "type": "address"
        }
      ],
      "stateMutability": "view",
      "type": "function"
    },
    {
      "inputs": [
        {
          "internalType": "address",
          "name": "tokenAddress",
          "type": "address"
        }
      ],
      "name": "getTokenLocker",
      "outputs": [
        {
          "internalType": "address",
          "name": "",
          "type": "address"
        }
      ],
      "stateMutability": "view",
      "type": "function"
    },
    {
      "inputs": [],
      "name": "gradMarketCap",
      "outputs": [
        {
          "internalType": "uint256",
          "name": "",
          "type": "uint256"
        }
      ],
      "stateMutability": "view",
      "type": "function"
    },
    {
      "inputs": [
        {
          "internalType": "bytes32",
          "name": "role",
          "type": "bytes32"
        },
        {
          "internalType": "address",
          "name": "account",
          "type": "address"
        }
      ],
      "name": "grantRole",
      "outputs": [],
      "stateMutability": "nonpayable",
      "type": "function"
    },
    {
      "inputs": [
        {
          "internalType": "address",
          "name": "tokenAddress",
          "type": "address"
        }
      ],
      "name": "hasGraduated",
      "outputs": [
        {
          "internalType": "bool",
          "name": "",
          "type": "bool"
        }
      ],
      "stateMutability": "view",
      "type": "function"
    },
    {
      "inputs": [
        {
          "internalType": "bytes32",
          "name": "role",
          "type": "bytes32"
        },
        {
          "internalType": "address",
          "name": "account",
          "type": "address"
        }
      ],
      "name": "hasRole",
      "outputs": [
        {
          "internalType": "bool",
          "name": "",
          "type": "bool"
        }
      ],
      "stateMutability": "view",
      "type": "function"
    },
    {
      "inputs": [],
      "name": "initialMarketCap",
      "outputs": [
        {
          "internalType": "uint256",
          "name": "",
          "type": "uint256"
        }
      ],
      "stateMutability": "view",
      "type": "function"
    },
    {
      "inputs": [],
      "name": "initialSupply",
      "outputs": [
        {
          "internalType": "uint256",
          "name": "",
          "type": "uint256"
        }
      ],
      "stateMutability": "view",
      "type": "function"
    },
    {
      "inputs": [
        {
          "internalType": "address",
          "name": "assetToken_",
          "type": "address"
        },
        {
          "internalType": "address",
          "name": "factory_",
          "type": "address"
        },
        {
          "internalType": "address",
          "name": "feeTo_",
          "type": "address"
        },
        {
          "internalType": "uint256",
          "name": "fee_",
          "type": "uint256"
        },
        {
          "internalType": "uint256",
          "name": "initialSupply_",
          "type": "uint256"
        },
        {
          "internalType": "address",
          "name": "extRouter_",
          "type": "address"
        },
        {
          "internalType": "address",
          "name": "tokenFactory_",
          "type": "address"
        },
        {
          "internalType": "address",
          "name": "lockFactory_",
          "type": "address"
        },
        {
          "internalType": "uint256",
          "name": "lockedTime_",
          "type": "uint256"
        },
        {
          "internalType": "address",
          "name": "oracle_",
          "type": "address"
        },
        {
          "internalType": "uint256",
          "name": "initialMarketCap_",
          "type": "uint256"
        },
        {
          "internalType": "uint256",
          "name": "gradMarketCap_",
          "type": "uint256"
        },
        {
          "internalType": "uint256",
          "name": "feeType_",
          "type": "uint256"
        }
      ],
      "name": "initialize",
      "outputs": [],
      "stateMutability": "nonpayable",
      "type": "function"
    },
    {
      "inputs": [
        {
          "internalType": "address",
          "name": "token",
          "type": "address"
        }
      ],
      "name": "isBoostToken",
      "outputs": [
        {
          "internalType": "bool",
          "name": "",
          "type": "bool"
        }
      ],
      "stateMutability": "view",
      "type": "function"
    },
    {
      "inputs": [
        {
          "internalType": "string",
          "name": "_name",
          "type": "string"
        },
        {
          "internalType": "string",
          "name": "_ticker",
          "type": "string"
        },
        {
          "internalType": "uint8[]",
          "name": "cores",
          "type": "uint8[]"
        },
        {
          "internalType": "string",
          "name": "desc",
          "type": "string"
        },
        {
          "internalType": "string",
          "name": "img",
          "type": "string"
        },
        {
          "internalType": "string[4]",
          "name": "urls",
          "type": "string[4]"
        },
        {
          "internalType": "uint256",
          "name": "purchaseAmount",
          "type": "uint256"
        }
      ],
      "name": "launch",
      "outputs": [
        {
          "internalType": "address",
          "name": "",
          "type": "address"
        },
        {
          "internalType": "address",
          "name": "",
          "type": "address"
        },
        {
          "internalType": "uint256",
          "name": "",
          "type": "uint256"
        }
      ],
      "stateMutability": "nonpayable",
      "type": "function"
    },
    {
      "inputs": [
        {
          "internalType": "address",
          "name": "_creator",
          "type": "address"
        },
        {
          "internalType": "string",
          "name": "_name",
          "type": "string"
        },
        {
          "internalType": "string",
          "name": "_ticker",
          "type": "string"
        },
        {
          "internalType": "uint8[]",
          "name": "cores",
          "type": "uint8[]"
        },
        {
          "internalType": "string",
          "name": "desc",
          "type": "string"
        },
        {
          "internalType": "string",
          "name": "img",
          "type": "string"
        },
        {
          "internalType": "string[4]",
          "name": "urls",
          "type": "string[4]"
        },
        {
          "internalType": "uint256",
          "name": "purchaseAmount",
          "type": "uint256"
        }
      ],
      "name": "launchFor",
      "outputs": [
        {
          "internalType": "address",
          "name": "",
          "type": "address"
        },
        {
          "internalType": "address",
          "name": "",
          "type": "address"
        },
        {
          "internalType": "uint256",
          "name": "",
          "type": "uint256"
        }
      ],
      "stateMutability": "nonpayable",
      "type": "function"
    },
    {
      "inputs": [],
      "name": "lockFactory",
      "outputs": [
        {
          "internalType": "contract LockFactory",
          "name": "",
          "type": "address"
        }
      ],
      "stateMutability": "view",
      "type": "function"
    },
    {
      "inputs": [],
      "name": "lockedTime",
      "outputs": [
        {
          "internalType": "uint256",
          "name": "",
          "type": "uint256"
        }
      ],
      "stateMutability": "view",
      "type": "function"
    },
    {
      "inputs": [],
      "name": "oracle",
      "outputs": [
        {
          "internalType": "contract IOracle",
          "name": "",
          "type": "address"
        }
      ],
      "stateMutability": "view",
      "type": "function"
    },
    {
      "inputs": [],
      "name": "owner",
      "outputs": [
        {
          "internalType": "address",
          "name": "",
          "type": "address"
        }
      ],
      "stateMutability": "view",
      "type": "function"
    },
    {
      "inputs": [],
      "name": "pendingOwner",
      "outputs": [
        {
          "internalType": "address",
          "name": "",
          "type": "address"
        }
      ],
      "stateMutability": "view",
      "type": "function"
    },
    {
      "inputs": [
        {
          "internalType": "address",
          "name": "token_",
          "type": "address"
        },
        {
          "internalType": "uint256",
          "name": "amountIn_",
          "type": "uint256"
        }
      ],
      "name": "quoteBuy",
      "outputs": [
        {
          "internalType": "uint256",
          "name": "",
          "type": "uint256"
        },
        {
          "internalType": "uint256",
          "name": "",
          "type": "uint256"
        }
      ],
      "stateMutability": "view",
      "type": "function"
    },
    {
      "inputs": [
        {
          "internalType": "address",
          "name": "token_",
          "type": "address"
        },
        {
          "internalType": "uint256",
          "name": "amountIn_",
          "type": "uint256"
        }
      ],
      "name": "quoteSell",
      "outputs": [
        {
          "internalType": "uint256",
          "name": "",
          "type": "uint256"
        },
        {
          "internalType": "uint256",
          "name": "",
          "type": "uint256"
        }
      ],
      "stateMutability": "view",
      "type": "function"
    },
    {
      "inputs": [],
      "name": "renounceOwnership",
      "outputs": [],
      "stateMutability": "nonpayable",
      "type": "function"
    },
    {
      "inputs": [
        {
          "internalType": "bytes32",
          "name": "role",
          "type": "bytes32"
        },
        {
          "internalType": "address",
          "name": "account",
          "type": "address"
        }
      ],
      "name": "renounceRole",
      "outputs": [],
      "stateMutability": "nonpayable",
      "type": "function"
    },
    {
      "inputs": [
        {
          "internalType": "bytes32",
          "name": "role",
          "type": "bytes32"
        },
        {
          "internalType": "address",
          "name": "account",
          "type": "address"
        }
      ],
      "name": "revokeRole",
      "outputs": [],
      "stateMutability": "nonpayable",
      "type": "function"
    },
    {
      "inputs": [
        {
          "internalType": "uint256",
          "name": "amountIn",
          "type": "uint256"
        },
        {
          "internalType": "address",
          "name": "tokenAddress",
          "type": "address"
        }
      ],
      "name": "sell",
      "outputs": [
        {
          "internalType": "bool",
          "name": "",
          "type": "bool"
        }
      ],
      "stateMutability": "nonpayable",
      "type": "function"
    },
    {
      "inputs": [
        {
          "internalType": "address",
          "name": "newAssetToken",
          "type": "address"
        }
      ],
      "name": "setAssetToken",
      "outputs": [],
      "stateMutability": "nonpayable",
      "type": "function"
    },
    {
      "inputs": [
        {
          "internalType": "uint8",
          "name": "stage",
          "type": "uint8"
        },
        {
          "internalType": "uint256",
          "name": "threshold",
          "type": "uint256"
        }
      ],
      "name": "setBoostStageThreshold",
      "outputs": [],
      "stateMutability": "nonpayable",
      "type": "function"
    },
    {
      "inputs": [
        {
          "internalType": "uint256[]",
          "name": "thresholds",
          "type": "uint256[]"
        }
      ],
      "name": "setBoostStageThresholds",
      "outputs": [],
      "stateMutability": "nonpayable",
      "type": "function"
    },
    {
      "inputs": [
        {
          "internalType": "address",
          "name": "newExtRouter",
          "type": "address"
        }
      ],
      "name": "setExtRouter",
      "outputs": [],
      "stateMutability": "nonpayable",
      "type": "function"
    },
    {
      "inputs": [
        {
          "internalType": "address",
          "name": "newFactory",
          "type": "address"
        }
      ],
      "name": "setFactory",
      "outputs": [],
      "stateMutability": "nonpayable",
      "type": "function"
    },
    {
      "inputs": [
        {
          "internalType": "uint256",
          "name": "newFee",
          "type": "uint256"
        },
        {
          "internalType": "address",
          "name": "newFeeTo",
          "type": "address"
        }
      ],
      "name": "setFee",
      "outputs": [],
      "stateMutability": "nonpayable",
      "type": "function"
    },
    {
      "inputs": [
        {
          "internalType": "uint256",
          "name": "newFeeType",
          "type": "uint256"
        }
      ],
      "name": "setFeeType",
      "outputs": [],
      "stateMutability": "nonpayable",
      "type": "function"
    },
    {
      "inputs": [
        {
          "internalType": "uint256",
          "name": "newMarketCap",
          "type": "uint256"
        }
      ],
      "name": "setGradMarketCap",
      "outputs": [],
      "stateMutability": "nonpayable",
      "type": "function"
    },
    {
      "inputs": [
        {
          "internalType": "uint256",
          "name": "newMarketCap",
          "type": "uint256"
        }
      ],
      "name": "setInitialMarketCap",
      "outputs": [],
      "stateMutability": "nonpayable",
      "type": "function"
    },
    {
      "inputs": [
        {
          "internalType": "uint256",
          "name": "newSupply",
          "type": "uint256"
        }
      ],
      "name": "setInitialSupply",
      "outputs": [],
      "stateMutability": "nonpayable",
      "type": "function"
    },
    {
      "inputs": [
        {
          "internalType": "address",
          "name": "newLockFactory",
          "type": "address"
        }
      ],
      "name": "setLockFactory",
      "outputs": [],
      "stateMutability": "nonpayable",
      "type": "function"
    },
    {
      "inputs": [
        {
          "internalType": "uint256",
          "name": "newLockedTime",
          "type": "uint256"
        }
      ],
      "name": "setLockedTime",
      "outputs": [],
      "stateMutability": "nonpayable",
      "type": "function"
    },
    {
      "inputs": [
        {
          "internalType": "address",
          "name": "newOracle",
          "type": "address"
        }
      ],
      "name": "setOracle",
      "outputs": [],
      "stateMutability": "nonpayable",
      "type": "function"
    },
    {
      "inputs": [
        {
          "internalType": "address",
          "name": "newTokenFactory",
          "type": "address"
        }
      ],
      "name": "setTokenFactory",
      "outputs": [],
      "stateMutability": "nonpayable",
      "type": "function"
    },
    {
      "inputs": [
        {
          "internalType": "bytes4",
          "name": "interfaceId",
          "type": "bytes4"
        }
      ],
      "name": "supportsInterface",
      "outputs": [
        {
          "internalType": "bool",
          "name": "",
          "type": "bool"
        }
      ],
      "stateMutability": "view",
      "type": "function"
    },
    {
      "inputs": [],
      "name": "tokenFactory",
      "outputs": [
        {
          "internalType": "contract INTERC20Factory",
          "name": "",
          "type": "address"
        }
      ],
      "stateMutability": "view",
      "type": "function"
    },
    {
      "inputs": [
        {
          "internalType": "address",
          "name": "",
          "type": "address"
        }
      ],
      "name": "tokenInfo",
      "outputs": [
        {
          "internalType": "address",
          "name": "creator",
          "type": "address"
        },
        {
          "internalType": "address",
          "name": "token",
          "type": "address"
        },
        {
          "internalType": "address",
          "name": "pair",
          "type": "address"
        },
        {
          "internalType": "address",
          "name": "locker",
          "type": "address"
        },
        {
          "internalType": "string",
          "name": "description",
          "type": "string"
        },
        {
          "internalType": "string",
          "name": "image",
          "type": "string"
        },
        {
          "internalType": "string",
          "name": "twitter",
          "type": "string"
        },
        {
          "internalType": "string",
          "name": "telegram",
          "type": "string"
        },
        {
          "internalType": "string",
          "name": "farcaster",
          "type": "string"
        },
        {
          "internalType": "string",
          "name": "website",
          "type": "string"
        },
        {
          "internalType": "enum Bonding.TokenStatus",
          "name": "status",
          "type": "uint8"
        }
      ],
      "stateMutability": "view",
      "type": "function"
    },
    {
      "inputs": [
        {
          "internalType": "uint256",
          "name": "",
          "type": "uint256"
        }
      ],
      "name": "tokenInfos",
      "outputs": [
        {
          "internalType": "address",
          "name": "",
          "type": "address"
        }
      ],
      "stateMutability": "view",
      "type": "function"
    },
    {
      "inputs": [
        {
          "internalType": "address",
          "name": "newOwner",
          "type": "address"
        }
      ],
      "name": "transferOwnership",
      "outputs": [],
      "stateMutability": "nonpayable",
      "type": "function"
    }
  ],
  "transactionHash": "0xc03526fcc7bca506f1befa954473c1bd8148bc33562dfc5fdf48d4c78312f2eb",
  "args": [],
  "numDeployments": 1,
  "solcInputHash": "965899d4604f654232a395523596359a",
  "bytecode": "0x60808060405234620000c4575f549060ff8260081c1662000072575060ff8082160362000037575b6040516155489081620000c98239f35b60ff90811916175f557f7f26b83ff96e1f2b6a682f133852f6798a09c465da95921460cefb3847402498602060405160ff8152a15f62000027565b62461bcd60e51b815260206004820152602760248201527f496e697469616c697a61626c653a20636f6e747261637420697320696e697469604482015266616c697a696e6760c81b6064820152608490fd5b5f80fdfe60a0806040526004361015610012575f80fd5b5f90813560e01c908163017e7e58146127b55750806301b964d21461274657806301ffc9a7146126ef57806302b6b15a146126145780630d63237f146125b85780630d7a94f61461254f5780631083f7611461252557806318b74a8c146124d65780631db9be1b146124ac578063248a9ca31461247f57806326bde5aa146124105780632f2ff15d146123615780632f73a9f8146122f257806336568abe1461225f5780633744cfdd146121da578063378dc3dc146121bb5780633b5f19351461219c5780633c0b93aa146120cd57806341344d5d146120a15780634189a68e14611fd3578063456f5e1514611ec95780634d86030314611e885780635481860514611d8d5780635823892a14611cde5780635bb4780814611c6f5780635edb9eb014611c505780636140259614611c01578063715018a614611b2a57806372641aa614611af757806377796ace14611a8857806378a8956714611a6957806379ba5097146119e45780637adbf973146118f65780637c13774b1461189a5780637dc0d1d0146118705780637deb602514610fe65780637f7ee43114610eee5780638da5cb5b14610ec557806391d1485414610e7b578063a217fddf14610e5f578063a240de0314610e35578063a3e01ce314610ce5578063a8b3820514610cc6578063ae29d56814610c93578063b4f2e8b814610c17578063b758ba8814610bdc578063bc2db5d214610995578063c17ac35a1461093b578063c1ba29071461091c578063c45a0155146108f2578063c75ed64414610898578063c78418b91461085b578063d547741f1461081d578063d723a3d2146107df578063d98b2f5c14610708578063ddca3f43146106e9578063df1dcaa91461067b578063e30c397814610652578063e77772fe14610628578063e84ca7cb146105e8578063f2fde38b1461057a578063f5dab7111461042e578063f943ce07146103c6578063fa1653bd14610364578063fb8dc179146103455763feab61eb146102f4575f80fd5b346103425760403660031901126103425761030d612933565b610315612fc3565b600360ff8216116103305761032d90602435906151de565b80f35b60405163e82a532960e01b8152600490fd5b80fd5b5034610342578060031936011261034257602061013e54604051908152f35b5034610342576020366003190112610342576001600160a01b036103866127db565b16815261013560205260ff600b604083200154169060038210156103b257602082600260405191148152f35b634e487b7160e01b81526021600452602490fd5b5034610342576020366003190112610342576004356103e3612fc3565b801561041c576020817f51dfcc99f9c590c7a4bcf74fc4e9ae6b407ec6689eb354e3215563a0b5bcd00d9261013c55604051908152a180f35b6040516338c51d2560e21b8152600490fd5b5034610342576020366003190112610342576001600160a01b03806104516127db565b16825261013560205260408220908082541691816001820154169180600283015416906003830154166004830161048790612abb565b61049360068501612abb565b61049f60078601612abb565b916104ac60088701612abb565b936104b960098801612abb565b956104c6600a8901612abb565b97600b015460ff16986040519a8b5260208b015260408a015260608901526101608060808a015288016104f891612b7d565b87810360a089015261050991612b7d565b86810360c088015261051a91612b7d565b85810360e087015261052b91612b7d565b84810361010086015261053d91612b7d565b83810361012085015261054f91612b7d565b906003811015610566578293506101408301520390f35b634e487b7160e01b84526021600452602484fd5b5034610342576020366003190112610342576105946127db565b61059c612fc3565b609780546001600160a01b0319166001600160a01b039283169081179091556065549091167f38d16b8cac22d99fc7c124b9cd0de2d3fa1faef420bfe791d8c362d765e227008380a380f35b50346103425760203660031901126103425760209060ff906040906001600160a01b036106136127db565b16815261013784522054161515604051908152f35b503461034257806003193601126103425761012f546040516001600160a01b039091168152602090f35b50346103425780600319360112610342576097546040516001600160a01b039091168152602090f35b503461034257602036600319011261034257600435610698612fc3565b6301e133808111156106d7576020817fbeaba78e9fea37c532e9c93af5e8e120a48902131aeb7d3146e3ca49dec45a239261013a55604051908152a180f35b60405163abf20e8f60e01b8152600490fd5b5034610342578060031936011261034257602061013254604051908152f35b5034610342576040366003190112610342576107226127db565b61012e54610134546040805163a6b8918760e01b81526001600160a01b0393841660048201529183166024808401919091529290931660448201529035606482015291908280608481015b0381736FAbAC8069BC09cAD727fe49157ad69729222e8B5af480156107d25760409282916107a3575b5082519182526020820152f35b90506107c59150823d84116107cb575b6107bd818361289a565b81019061339f565b5f610796565b503d6107b3565b50604051903d90823e3d90fd5b50346103425760203660031901126103425760209060ff906040906001600160a01b0361080a6127db565b1681526101378452205416604051908152f35b50346103425760403660031901126103425761032d60043561083d6127f1565b9080845260fb6020526108566001604086200154612dbb565b612f4e565b5034610342576020366003190112610342576020906001600160a01b0390604090826108856127db565b1681526101358452205416604051908152f35b5034610342576020366003190112610342576004356108b5612fc3565b61013c54811061041c576020817fc598615f3cd2c393145f278de5a6921fd815849d1ee5aab7b66bdda0efb33ada9261013d55604051908152a180f35b503461034257806003193601126103425761012e546040516001600160a01b039091168152602090f35b5034610342578060031936011261034257602061013d54604051908152f35b503461034257602036600319011261034257604060209161095a6127db565b8183516109668161282e565b526001600160a01b031681526101378352206040519060ff906109888361282e565b5416809152604051908152f35b5034610342576101a0366003190112610342576109b06127db565b6109b86127f1565b6001600160a01b039160443583811690819003610bd85760a435848116809103610bd85760c43591858316809303610bd85760e435868116809103610bd8576101243593878516809503610bd85788549660ff8860081c161597888099610bcb575b8015610bb4575b15610b585760ff1981166001178b5588610b47575b50610a5060ff8b5460081c16610a4b81613162565b613162565b610a59336131c2565b895498610a8160ff8b60081c16610a6f81613162565b610a7881613162565b60018055613162565b6001600160601b0360a01b978161013491168982541617905561012e91168782541617905561012f9086825416179055610130908582541617905561012d9084825416179055606435610132556084356101315561013390838254161790556101043561013a5561013b918254161790556101443561013c556101643561013d556101843561013e55610b12575080f35b61ff00191681557f7f26b83ff96e1f2b6a682f133852f6798a09c465da95921460cefb3847402498602060405160018152a180f35b61ffff1916610101178a555f610a36565b60405162461bcd60e51b815260206004820152602e60248201527f496e697469616c697a61626c653a20636f6e747261637420697320616c72656160448201526d191e481a5b9a5d1a585b1a5e995960921b6064820152608490fd5b50303b158015610a215750600160ff821614610a21565b50600160ff821610610a1a565b5f80fd5b503461034257806003193601126103425760206040517f62229496573be0b0846a2fb48a94de962b501adb0b8eaf7f99924b10a81a19fe8152f35b5034610342576040366003190112610342577fc8242dc5446855370b781abbfc5d882af1d1a3cc29143216aba3558feb0ce9256040600435610c576127f1565b610c5f612fc3565b61013282905561012d80546001600160a01b0319166001600160a01b0392909216918217905582519182526020820152a180f35b503461034257602036600319011261034257604060209160ff610cb4612933565b16815261013983522054604051908152f35b5034610342578060031936011261034257602061013a54604051908152f35b503461034257610cf436612a49565b90610d029692949396612ba2565b60018060a01b039485841697885f5261013760205260405f2095600260ff610d2c818a5416614c95565b1603610e2357610d3b8661526f565b60025f526101396020527fb43cc3dce73ad2c82cb640e429b0bd3222005d4a0d6ac642dad7ae5128bf1dc65411610e11577f4e8e1b96afa9116446f71ff323ac93786664fcbea87475ece33519357750f790988a610de09760609a825f5261013560205260405f20908060028160038501541693610dd48861013498610dcc8c878c54168861012d5416309161396f565b87309161396f565b01541693541692614ceb565b915091805460ff610df2818316614ca7565b169060ff1916179055604051916002835260208301526040820152a280f35b604051639dc93e9f60e01b8152600490fd5b604051636dfb3ae160e01b8152600490fd5b5034610342578060031936011261034257610133546040516001600160a01b039091168152602090f35b5034610342578060031936011261034257602090604051908152f35b5034610342576040366003190112610342576040610e976127f1565b91600435815260fb602052209060018060a01b03165f52602052602060ff60405f2054166040519015158152f35b50346103425780600319360112610342576065546040516001600160a01b039091168152602090f35b5034610342576101a036600319011261034257610f096127db565b6001600160401b0390602435828111610fe257610f2a9036906004016128d6565b604435838111610fde57610f429036906004016128d6565b606435848111610fda57610f5a903690600401612943565b90608435858111610fd657610f739036906004016128d6565b9260a435868111610fd257610f8c9036906004016128d6565b9460c435968711610fd257610fa861032d9736906004016129ab565b610fb0612ba2565b6101843596610164359661014435966101243596610104359660e4359661474b565b8780fd5b8680fd5b8580fd5b8480fd5b8380fd5b5034610342576040366003190112610342576110006127f1565b6001600160a01b0381168252610135602081905260408320600b015491929160ff16600381101561185c5760010361184a5761012e546101345460408051633c529ea760e01b81529290918391829161107391339182918b9160048035926001600160a01b0392831692169088016133c2565b0381736FAbAC8069BC09cAD727fe49157ad69729222e8B5af4801561183f57611821575b506110a18361526f565b61013d5411156110b7575b602060405160018152f35b6001600160a01b038316825260205260408120600b8101805460ff1660038110156105665760021461180f5760028201805460405163c66f245560e01b815293919291906001600160a01b0316602085600481845afa9485156117cf5786956117da575b50906020600492604051938480926316d3df1560e31b82525afa9182156117cf57869261179b575b5061012e54610134546001600160a01b039182169116736FAbAC8069BC09cAD727fe49157ad69729222e8B3b15610fd25760405163e743240d60e01b8152600481019290925260248201526001600160a01b03881660448201528681606481736FAbAC8069BC09cAD727fe49157ad69729222e8B5af4801561176957611788575b506001600160a01b0387163b15610fda5760405163f1b50c1d60e01b81528681600481836001600160a01b038d165af1801561176957908791611774575b50509061127b9392916040805161121881612849565b6002815281366020830137610134546001600160a01b0316611239826132f9565b526001600160a01b038a1661124d82613306565b5260018060a01b0361013354168251808099819463237c65f960e01b83528660048401526044830190613316565b6001602483015203915afa948515611769578795611720575b50600301546001600160a01b031694853b15610fd65760405163179a694160e11b81526001600160a01b03861660048201528781602481838b5af1801561171557908891611701575b505061140b6113f99160018060a01b036101345416938a5f948580946113be6040519161130983612849565b6002835260403660208501378a61131f846132f9565b526001600160a01b03861661133384613306565b526113ab6040519761134489612849565b6002895260403660208b01378261135a8a6132f9565b52806113658a613306565b526040519761137389612849565b6002895260403660208b0137836113898a6132f9565b52816113948a613306565b52610133546001600160a01b0390811691166150bb565b610133546001600160a01b03168b6150bb565b61141d60018060a01b0361013354169460405198899788968795623c7cd360e91b87526001600488015260e0602488015260e4870190613316565b85810360031901604487015290614cb8565b83810360031901606485015290614cb8565b8260848301523060a48301524260c483015203925af1908115611630578290839261164e575b5080611451611457926132f9565b50613306565b5061146c81886001600160a01b0389166150bb565b863b1561164a57604051906340519a5360e01b825260048201528181602481838b5af180156116305761163b575b506040516370a0823160e01b8152306004820152956020876024816001600160a01b038d165afa9687156116305782976115fc575b506040516370a0823160e01b815230600482015296602088602481875afa9283156115f0579261159c575b7f381d54fa425631e6266af114239150fae1d5db67bb65b4fa9ecc65013107e07e975080611582575b505080611562575b5050805460ff1916600217905580546001600160a01b0319166001600160a01b0392831690811790915593169180a35f80806110ac565b61012d5461157b926001600160a01b0390911690615082565b5f8061152b565b611595916001600160a01b038b16615082565b5f80611523565b91506020873d6020116115e8575b816115b76020938361289a565b81010312610bd8577f381d54fa425631e6266af114239150fae1d5db67bb65b4fa9ecc65013107e07e9651916114fa565b3d91506115aa565b604051903d90823e3d90fd5b9096506020813d602011611628575b816116186020938361289a565b81010312610bd85751955f6114cf565b3d915061160b565b6040513d84823e3d90fd5b61164490612807565b5f61149a565b5080fd5b9150503d908183823e611661828261289a565b60408183810103126116fd578051916001600160401b038311610fe257808201601f848401011215610fe257828201519061169b8261291c565b936116a9604051958661289a565b8285526020850191840160208460051b838701010111610fda57602081850101915b60208460051b838701010183106116ed57505050506020015190611457611443565b82518152602092830192016116cb565b8280fd5b61170a90612807565b610fd657865f6112dd565b6040513d8a823e3d90fd5b9094506040813d604011611761575b8161173c6040938361289a565b81010312610fd6576117596020611752836132e5565b92016139c0565b50935f611294565b3d915061172f565b6040513d89823e3d90fd5b61177d90612807565b610fda57855f611202565b61179490969196612807565b945f6111c4565b9091506020813d6020116117c7575b816117b76020938361289a565b81010312610fda5751905f611143565b3d91506117aa565b6040513d88823e3d90fd5b9094506020813d602011611807575b816117f66020938361289a565b81010312610fda575193602061111b565b3d91506117e9565b604051633a2cc0e960e11b8152600490fd5b6118399060403d6040116107cb576107bd818361289a565b50611097565b6040513d85823e3d90fd5b6040516305e1dfe360e11b8152600490fd5b634e487b7160e01b83526021600452602483fd5b503461034257806003193601126103425761013b546040516001600160a01b039091168152602090f35b50346103425760203660031901126103425760043561013680548210156116fd579091527f39da2db355130acf428d669fbf1c14faa9d51399a25b793fc254bbbde66f02e201546040516001600160a01b039091168152602090f35b50346103425760208060031936011261164a576119116127db565b9061191a612fc3565b6101345460405163fc57d4df60e01b81526001600160a01b039182166004820152921691818160248187875af19081156119d95784916119ac575b501561199a5761013b80546001600160a01b031916831790556040519182527f3f32684a32a11dabdbb8c0177de80aa3ae36a004d75210335b49e544e48cd0aa91a180f35b604051639589a27d60e01b8152600490fd5b90508181813d83116119d2575b6119c3818361289a565b81010312610fe257515f611955565b503d6119b9565b6040513d86823e3d90fd5b5034610342578060031936011261034257609754336001600160a01b0390911603611a125761032d336131c2565b60405162461bcd60e51b815260206004820152602960248201527f4f776e61626c6532537465703a2063616c6c6572206973206e6f7420746865206044820152683732bb9037bbb732b960b91b6064820152608490fd5b5034610342578060031936011261034257602061013654604051908152f35b5034610342576020366003190112610342577f0454b4498edcb0a2c7058cfd107bb0e6551b3820f891c725db307ed66e740f206020611ac56127db565b611acd612fc3565b61013380546001600160a01b0319166001600160a01b03929092169182179055604051908152a180f35b50346103425760403660031901126103425761032d611b146127db565b611b1c6127f1565b90611b25612fc3565b61466b565b5034610342578060031936011261034257611b43612fc3565b60655481906001600160a01b0390611b5c908216612ec4565b6001600160601b0360a01b8060975416609755606554908116606555167f8be0079c531659141344cd1fd0a4f28419497f9722a3daafe3b4186f6b6457e08280a380805260fb6020526040812060205260ff60408220541615611bbc5780f35b60fb6020526040812060205260408120600160ff198254161790553381807f2f8788117e7eff1d82e926ec794901d17c78024a50270940304540a733656f0d8180a480f35b5034610342576020366003190112610342577fedbbbd0f3b9ac5d8f4d9142fe0b31c73d786619eab0d7f8df600fe84282a4d436020600435611c41612fc3565b8061013155604051908152a180f35b5034610342578060031936011261034257602061013854604051908152f35b5034610342576020366003190112610342577f1edf3afd4ac789736e00d216cd88be164ddcef26a6eedcc30cdb0cb62f3741b16020611cac6127db565b611cb4612fc3565b61012e80546001600160a01b0319166001600160a01b03929092169182179055604051908152a180f35b5034610342576040366003190112610342576001600160401b036004358181116116fd57611d10903690600401612a19565b9091602435908111610fe257611d2a903690600401612a19565b9091611d34612fc3565b818103611d7b57845b818110611d48578580f35b80611d75611d61611d5c600194868a614727565b614737565b611d6f611d5c84888a614727565b9061466b565b01611d3d565b6040516305e8333d60e11b8152600490fd5b503461034257611d9c36612a49565b90611daa9692949396612ba2565b60018060a01b039485841697888a5261013760205260408a2095600360ff611dd4818a5416614c95565b1603610e2357611de38661526f565b60038c5261013960205260408c205411610e11577f4e8e1b96afa9116446f71ff323ac93786664fcbea87475ece33519357750f790988a611e579760609a60408f84815261013560205220908060028160038501541693610dd48861013498610dcc8c878c54168861012d5416309161396f565b915091805460ff611e69818316614ca7565b169060ff1916179055604051916003835260208301526040820152a280f35b5034610342576020366003190112610342576020906001600160a01b039060039060409083611eb56127db565b168152610135855220015416604051908152f35b50346103425761010036600319011261034257611ee46127db565b6001600160401b0390602435828111610fe257611f059036906004016128d6565b91604435818111610fde57611f1e9036906004016128d6565b9360643582811161164a57611f37903690600401612943565b916084358181116116fd57611f509036906004016128d6565b9060a435818111610fe257611f699036906004016128d6565b9260c43591821161034257611fcf611fa3898989898989611f8d3660048c016129ab565b92611f9661328f565b3396339660e435966133fc565b60018055604080516001600160a01b039485168152939092166020840152908201529081906060820190565b0390f35b503461034257604036600319011261034257611fed6127f1565b6001600160a01b03808216835261013560205260408320600b01549092919060ff16600381101561185c5760010361184a576040908361012e54169361013454169061205383519586938493627e8ae960e01b85523392339260043591600488016133c2565b0381736FAbAC8069BC09cAD727fe49157ad69729222e8B5af49081156115f0575061208357602060405160018152f35b61209b9060403d6040116107cb576107bd818361289a565b506110ac565b50346103425760203660031901126103425760206120c56120c06127db565b61526f565b604051908152f35b50346103425760e0366003190112610342576001600160401b036004358181116116fd576120ff9036906004016128d6565b602435828111610fe2576121179036906004016128d6565b91604435818111610fde57612130903690600401612943565b9360643582811161164a576121499036906004016128d6565b916084358181116116fd576121629036906004016128d6565b9160a43591821161034257611fcf611fa388888888886121853660048b016129ab565b9161218e61328f565b3395339560c43595336133fc565b5034610342578060031936011261034257602061013c54604051908152f35b5034610342578060031936011261034257602061013154604051908152f35b5034610342576020366003190112610342576004356001600160401b03811161164a5761220b903690600401612a19565b612216929192612fc3565b600390818103611d7b57825b60ff81168381101561225b57906122516122569261224a61224284614c95565b91868a614727565b35906151de565b614ca7565b612222565b8480f35b5034610342576040366003190112610342576122796127f1565b336001600160a01b038216036122955761032d90600435612f4e565b60405162461bcd60e51b815260206004820152602f60248201527f416363657373436f6e74726f6c3a2063616e206f6e6c792072656e6f756e636560448201526e103937b632b9903337b91039b2b63360891b6064820152608490fd5b5034610342576020366003190112610342577fcf4be1c851767114c1f4b298dc84eab48d103473908393f6d408c82ba7cda0e8602061232f6127db565b612337612fc3565b61012f80546001600160a01b0319166001600160a01b03929092169182179055604051908152a180f35b50346103425760403660031901126103425760043561237e6127f1565b81835260fb6020526123966001604085200154612dbb565b81835260fb602052604083209060018060a01b03169081845260205260ff604084205416156123c3578280f35b81835260fb6020526040832081845260205260408320600160ff1982541617905533917f2f8788117e7eff1d82e926ec794901d17c78024a50270940304540a733656f0d8480a45f808280f35b5034610342576020366003190112610342577fbdaa8f7ade01473981aef419539e6c190d409f50b144a7a796efd2777607920c602061244d6127db565b612455612fc3565b61013480546001600160a01b0319166001600160a01b03929092169182179055604051908152a180f35b50346103425760203660031901126103425760016040602092600435815260fb8452200154604051908152f35b5034610342578060031936011261034257610130546040516001600160a01b039091168152602090f35b5034610342576020366003190112610342577f331a39a6518952c9d923c75bc89cd4d27c2a3cf1ee4295c830e41dca8168eb826020600435612516612fc3565b8061013e55604051908152a180f35b5034610342578060031936011261034257610134546040516001600160a01b039091168152602090f35b5034610342576040366003190112610342576125696127db565b61012e546101345460408051631d486c9760e21b81526001600160a01b03938416600482015291831660248084019190915292909316604482015290356064820152919082806084810161076d565b50346103425760203660031901126103425760043561013880548210156116fd579091527ff79a63dcec80ed75c82f36161f17b9c2f407860160383a7be0a0ee7962c527ae01546040516001600160a01b039091168152602090f35b503461034257610180366003190112610342576001600160401b036004358181116116fd576126479036906004016128d6565b602435828111610fe25761265f9036906004016128d6565b604435838111610fde57612677903690600401612943565b606435848111610fda5761268f9036906004016128d6565b90608435858111610fd6576126a89036906004016128d6565b9260a435958611610fd6576126c461032d9636906004016129ab565b946126cd612ba2565b610164359561014435956101243595610104359560e4359560c435953361474b565b50346103425760203660031901126103425760043563ffffffff60e01b811680910361164a57602090637965db0b60e01b8114908115612735575b506040519015158152f35b6301ffc9a760e01b1490508261272a565b5034610342576020366003190112610342577f3587ea62a24fc6959886ef88a458920ef0762b7ecbae1e87892c731869362d6960206127836127db565b61278b612fc3565b61013080546001600160a01b0319166001600160a01b03929092169182179055604051908152a180f35b90503461164a578160031936011261164a5761012d546001600160a01b03168152602090f35b600435906001600160a01b0382168203610bd857565b602435906001600160a01b0382168203610bd857565b6001600160401b03811161281a57604052565b634e487b7160e01b5f52604160045260245ffd5b602081019081106001600160401b0382111761281a57604052565b606081019081106001600160401b0382111761281a57604052565b604081019081106001600160401b0382111761281a57604052565b608081019081106001600160401b0382111761281a57604052565b90601f801991011681019081106001600160401b0382111761281a57604052565b6001600160401b03811161281a57601f01601f191660200190565b81601f82011215610bd8578035906128ed826128bb565b926128fb604051948561289a565b82845260208383010111610bd857815f926020809301838601378301015290565b6001600160401b03811161281a5760051b60200190565b6004359060ff82168203610bd857565b81601f82011215610bd85780359161295a8361291c565b92612968604051948561289a565b808452602092838086019260051b820101928311610bd8578301905b828210612992575050505090565b813560ff81168103610bd8578152908301908301612984565b9080601f83011215610bd857604051916001600160401b03608084018181118582101761281a57604052836080830192848411610bd85780915b8483106129f55750505050505090565b8235848111610bd857602091612a0e88849386016128d6565b8152019201916129e5565b9181601f84011215610bd8578235916001600160401b038311610bd8576020808501948460051b010111610bd857565b60e0906003190112610bd8576004356001600160a01b0381168103610bd857906024359060443590606435906084359060a4359060c43590565b90600182811c92168015612ab1575b6020831014612a9d57565b634e487b7160e01b5f52602260045260245ffd5b91607f1691612a92565b9060405191825f825492612ace84612a83565b9081845260019485811690815f14612b395750600114612af9575b5050612af79250038361289a565b565b909391505f52602090815f20935f915b818310612b21575050612af793508201015f80612ae9565b85548884018501529485019487945091830191612b09565b915050612af794506020925060ff191682840152151560051b8201015f80612ae9565b5f5b838110612b6d5750505f910152565b8181015183820152602001612b5e565b90602091612b9681518092818552858086019101612b5c565b601f01601f1916010190565b335f9081527f08f584bb5334faafa280854191c286de8f907d6af8dd5e653110c56d426e0054602090815260408083205490927f62229496573be0b0846a2fb48a94de962b501adb0b8eaf7f99924b10a81a19fe9160ff1615612c055750505050565b612c0e33613067565b91845190612c1b8261287f565b60428252848201926060368537825115612da75760308453825190600191821015612da75790607860218501536041915b818311612d3a57505050612cf8576048612cf4938693612cd893612cc9985198899376020b1b1b2b9b9a1b7b73a3937b61d1030b1b1b7bab73a1604d1b8a860152612ca0815180928c603789019101612b5c565b8401917001034b99036b4b9b9b4b733903937b6329607d1b603784015251809386840190612b5c565b0103602881018752018561289a565b5192839262461bcd60e51b845260048401526024830190612b7d565b0390fd5b60648486519062461bcd60e51b825280600483015260248201527f537472696e67733a20686578206c656e67746820696e73756666696369656e746044820152fd5b909192600f81166010811015612d93576f181899199a1a9b1b9c1cb0b131b232b360811b901a612d6a8587613042565b5360041c928015612d7f575f19019190612c4c565b634e487b7160e01b82526011600452602482fd5b634e487b7160e01b83526032600452602483fd5b634e487b7160e01b81526032600452602490fd5b5f9080825260209060fb8252604092838120338252835260ff848220541615612de45750505050565b612ded33613067565b91845190612dfa8261287f565b60428252848201926060368537825115612da75760308453825190600191821015612da75790607860218501536041915b818311612e7f57505050612cf8576048612cf4938693612cd893612cc9985198899376020b1b1b2b9b9a1b7b73a3937b61d1030b1b1b7bab73a1604d1b8a860152612ca0815180928c603789019101612b5c565b909192600f81166010811015612d93576f181899199a1a9b1b9c1cb0b131b232b360811b901a612eaf8587613042565b5360041c928015612d7f575f19019190612e2b565b6001600160a01b03165f8181527fc88390e7e62175be0932452175b6a7222b6b094ab0ef984a5153c620345d8975602052604081205490919060ff16612f08575050565b81805260fb602052604082208183526020526040822060ff19815416905533917ff6391f5c32d9c69d2a47ea670b442974b53935d1edc7fd64eb21e047a839171b8180a4565b905f9180835260fb602052604083209160018060a01b03169182845260205260ff604084205416612f7e57505050565b80835260fb602052604083208284526020526040832060ff1981541690557ff6391f5c32d9c69d2a47ea670b442974b53935d1edc7fd64eb21e047a839171b339380a4565b6065546001600160a01b03163303612fd757565b606460405162461bcd60e51b815260206004820152602060248201527f4f776e61626c653a2063616c6c6572206973206e6f7420746865206f776e65726044820152fd5b8181029291811591840414171561302e57565b634e487b7160e01b5f52601160045260245ffd5b908151811015613053570160200190565b634e487b7160e01b5f52603260045260245ffd5b6040519061307482612849565b602a82526020820160403682378251156130535760309053815160019081101561305357607860218401536029905b8082116130f75750506130b35790565b606460405162461bcd60e51b815260206004820152602060248201527f537472696e67733a20686578206c656e67746820696e73756666696369656e746044820152fd5b9091600f8116601081101561314e576f181899199a1a9b1b9c1cb0b131b232b360811b901a6131268486613042565b5360041c91801561313a575f1901906130a3565b60245f634e487b7160e01b81526011600452fd5b60245f634e487b7160e01b81526032600452fd5b1561316957565b60405162461bcd60e51b815260206004820152602b60248201527f496e697469616c697a61626c653a20636f6e7472616374206973206e6f74206960448201526a6e697469616c697a696e6760a81b6064820152608490fd5b6065546001600160a01b03906131d9908216612ec4565b6001600160601b0360a01b8060975416609755816065549316918280928516176065555f93167f8be0079c531659141344cd1fd0a4f28419497f9722a3daafe3b4186f6b6457e08480a381805260fb6020526040822081835260205260ff60408320541615613246575050565b81805260fb6020526040822081835260205260408220600160ff1982541617905533917f2f8788117e7eff1d82e926ec794901d17c78024a50270940304540a733656f0d8180a4565b6002600154146132a0576002600155565b60405162461bcd60e51b815260206004820152601f60248201527f5265656e7472616e637947756172643a207265656e7472616e742063616c6c006044820152606490fd5b51906001600160a01b0382168203610bd857565b8051156130535760200190565b8051600110156130535760400190565b9081518082526020808093019301915f5b828110613335575050505090565b83516001600160a01b031685529381019392810192600101613327565b909161336961337e93606084526060840190613316565b91600160208201526040818403910152612b7d565b90565b811561338b570490565b634e487b7160e01b5f52601260045260245ffd5b9190826040910312610bd8576020825192015190565b9190820391821161302e57565b6001600160a01b0391821681529181166020830152604082019290925291811660608301529182166080820152911660a082015260c00190565b92969893999795919994909461013454975f9b8c8a60208b6024604051809481936370a0823160e01b835260018060a01b0316600483015260018060a01b03165afa908115611630578e9291613936575b5010613924578c9761346c96610132549b8c80613901575b5050613b97565b61012e54610134546040516364e329cb60e11b81526001600160a01b0380851660048301529182166024820152999296926020928b9260449284929091165af197881561183f5783986138c5575b506040516134c781612849565b600281526040366020830137610134546001600160a01b03166134e9826132f9565b526001600160a01b0386166134fd82613306565b526101335460405163c45a015560e01b815290602090829060049082906001600160a01b03165afa9081156138ba578591613878575b506135719160209161013e5491604051928484015283835261355483612864565b87604051809681958294632a422c2b60e21b845260048401613352565b03926001600160a01b03165af180156119d95761383f575b506001600160a01b0385163b156116fd57604051631e59818360e31b81526001600160a01b03898116600483015284908290602490829084908b165af180156119d95761382c575b5061013c54670de0b6b3a764000081818102048114821517156138185761013b546101345460405163fc57d4df60e01b81526001600160a01b039182166004820152939291602091859160249183918b91165af19182156117cf5786926137e2575b61363e935002613381565b61012e54610134546101315460408051630afbf7f360e01b81526001600160a01b03948516600482015292841660248401529289166044830152606482015260848101929092528160a481736FAbAC8069BC09cAD727fe49157ad69729222e8B5af480156119d9579061372a92916137c4575b506001600160a01b038681168086526101356020908152604080882060020180546001600160a01b031916948e16948517905561013654815181815292830189905242918301919091529a9291907f58d1495ede629d89cfe4c00a5ad620a9ba231de4b1a5040c7b355d43092ff86b90606090a36133b5565b928361373a575b50505050929190565b61012e546101345460408051633c529ea760e01b81529690948794859461377894929391928b92916001600160a01b039182169116600488016133c2565b0381736FAbAC8069BC09cAD727fe49157ad69729222e8B5af49081156115f057506137a6575b808080613731565b6137be9060403d6040116107cb576107bd818361289a565b5061379e565b6137dc9060403d6040116107cb576107bd818361289a565b506136b1565b91506020833d602011613810575b816137fd6020938361289a565b81010312610bd85761363e925191613633565b3d91506137f0565b634e487b7160e01b85526011600452602485fd5b61383890939193612807565b915f6135d1565b6020813d602011613870575b816138586020938361289a565b81010312610fe257613869906132e5565b505f613589565b3d915061384b565b90506020813d6020116138b2575b816138936020938361289a565b81010312610fde57613571916138aa6020926132e5565b915091613533565b3d9150613886565b6040513d87823e3d90fd5b9097506020813d6020116138f9575b816138e16020938361289a565b810103126116fd576138f2906132e5565b965f6134ba565b3d91506138d4565b61012d5461391d926001600160a01b03918216918f911661396f565b5f8c613465565b604051632ca2f52b60e11b8152600490fd5b9150506020813d602011613967575b816139526020938361289a565b81010312613963578c90515f61344d565b8d80fd5b3d9150613945565b6040516323b872dd60e01b60208201526001600160a01b0392831660248201529290911660448301526064820192909252612af7916139bb82608481015b03601f19810184528361289a565b6139cd565b51908115158203610bd857565b604051613a2a916001600160a01b03166139e682612864565b5f806020958685527f5361666545524332303a206c6f772d6c6576656c2063616c6c206661696c656487860152868151910182855af1613a24613ab9565b91613ae8565b8051828115918215613a9a575b5050905015613a435750565b6084906040519062461bcd60e51b82526004820152602a60248201527f5361666545524332303a204552433230206f7065726174696f6e20646964206e6044820152691bdd081cdd58d8d9595960b21b6064820152fd5b8380929350010312610bd85781613ab191016139c0565b80825f613a37565b3d15613ae3573d90613aca826128bb565b91613ad8604051938461289a565b82523d5f602084013e565b606090565b91929015613b4a5750815115613afc575090565b3b15613b055790565b60405162461bcd60e51b815260206004820152601d60248201527f416464726573733a2063616c6c20746f206e6f6e2d636f6e74726163740000006044820152606490fd5b825190915015613b5d5750805190602001fd5b60405162461bcd60e51b815260206004820152908190612cf4906024830190612b7d565b818110613b8c575050565b5f8155600101613b81565b9390613c2f9593979692602091613c1d5f60018060a01b0361012f541692613bf4602b60405183613bd182955180928c8086019101612b5c565b81016a08189e48125b9d1953995d60aa1b8a82015203600b81018452018261289a565b610131546040516334f359f960e01b8152608060048201529b8c96879586946084860190612b7d565b84810360031901602486015290612b7d565b90604483015230606483015203925af1948515614624575f9561462f575b50610130546101345461013a546040516309394e6160e11b81526001600160a01b03808a16600483015292831660248201523060448201526064810191909152969889979590929091602091879160849183915f91165af1948515614624575f956145e8575b50835191602085015193606060408701519601519660405198896101808101106001600160401b036101808c01111761281a576101808a0160405260018060a01b0316895260018060a01b038a1660208a01525f60408a015260018060a01b03166060890152608088015260a087015260c086015260e0850152610100840152610120830152610140820152600161016082015260018060a01b0382165f5261013560205260405f2060018060a01b038251166001600160601b0360a01b8254161781556001810160018060a01b036020840151166001600160601b0360a01b8254161790556002810160018060a01b036040840151166001600160601b0360a01b8254161790556003810160018060a01b036060840151166001600160601b0360a01b82541617905560808201518051906001600160401b03821161281a578190613e026004850154612a83565b601f81116145b5575b50602090601f8311600114614547575f9261453c575b50508160011b915f199060031b1c19161760048201555b60a08201518051906001600160401b03821161281a57600160401b821161281a5760209060058401548360058601558084106144e8575b500190600583015f5260205f20905f5b8160051c81106144a95750601f198116810361445b575b50505060c08201518051906001600160401b03821161281a578190613ebe6006850154612a83565b601f8111614428575b50602090601f83116001146143ba575f926143af575b50508160011b915f199060031b1c19161760068201555b60e08201518051906001600160401b03821161281a578190613f196007850154612a83565b601f811161437c575b50602090601f831160011461430e575f92614303575b50508160011b915f199060031b1c19161760078201555b6101008201518051906001600160401b03821161281a578190613f756008850154612a83565b601f81116142d0575b50602090601f8311600114614262575f92614257575b50508160011b915f199060031b1c19161760088201555b6101208201518051906001600160401b03821161281a578190613fd16009850154612a83565b601f8111614224575b50602090601f83116001146141b6575f926141ab575b50508160011b915f199060031b1c19161760098201555b600a81016101408301518051906001600160401b03821161281a5761402c8354612a83565b601f8111614170575b50602090601f8311600114614105579180600b949261016096945f926140fa575b50508160011b915f199060031b1c19161790555b0191015160038110156140e65760ff80198354169116179055610136805490600160401b82101561281a5760018201808255821015613053575f527f39da2db355130acf428d669fbf1c14faa9d51399a25b793fc254bbbde66f02e20180546001600160a01b0319166001600160a01b03909216919091179055565b634e487b7160e01b5f52602160045260245ffd5b015190505f80614056565b90601f19831691845f5260205f20925f5b81811061415857509260019285926101609896600b989610614140575b505050811b01905561406a565b01515f1960f88460031b161c191690555f8080614133565b92936020600181928786015181550195019301614116565b61419b90845f5260205f20601f850160051c810191602086106141a1575b601f0160051c0190613b81565b5f614035565b909150819061418e565b015190505f80613ff0565b9250600984015f5260205f20905f935b601f1984168510614209576001945083601f198116106141f1575b505050811b016009820155614007565b01515f1960f88460031b161c191690555f80806141e1565b818101518355602094850194600190930192909101906141c6565b61425190600986015f5260205f20601f850160051c810191602086106141a157601f0160051c0190613b81565b5f613fda565b015190505f80613f94565b9250600884015f5260205f20905f935b601f19841685106142b5576001945083601f1981161061429d575b505050811b016008820155613fab565b01515f1960f88460031b161c191690555f808061428d565b81810151835560209485019460019093019290910190614272565b6142fd90600886015f5260205f20601f850160051c810191602086106141a157601f0160051c0190613b81565b5f613f7e565b015190505f80613f38565b9250600784015f5260205f20905f935b601f1984168510614361576001945083601f19811610614349575b505050811b016007820155613f4f565b01515f1960f88460031b161c191690555f8080614339565b8181015183556020948501946001909301929091019061431e565b6143a990600786015f5260205f20601f850160051c810191602086106141a157601f0160051c0190613b81565b5f613f22565b015190505f80613edd565b9250600684015f5260205f20905f935b601f198416851061440d576001945083601f198116106143f5575b505050811b016006820155613ef4565b01515f1960f88460031b161c191690555f80806143e5565b818101518355602094850194600190930192909101906143ca565b61445590600686015f5260205f20601f850160051c810191602086106141a157601f0160051c0190613b81565b5f613ec7565b5f925f5b601f1983168303811061447b57505060051c01555f8080613e96565b909360206144a06001928460ff895116919060ff809160031b9316831b921b19161790565b9501910161445f565b5f805b602081106144c1575083820155600101613e7f565b855190959160019160209160ff60038a901b81811b199092169216901b17920195016144ac565b61451690600586015f52601f845f20918187168061451c575b500160051c810190601f860160051c01613b81565b5f613e6f565b5f199081848a0160051c86010191825491890360031b1c1690555f614501565b015190505f80613e21565b9250600484015f5260205f20905f935b601f198416851061459a576001945083601f19811610614582575b505050811b016004820155613e38565b01515f1960f88460031b161c191690555f8080614572565b81810151835560209485019460019093019290910190614557565b6145e290600486015f5260205f20601f850160051c810191602086106141a157601f0160051c0190613b81565b5f613e0b565b9094506020813d60201161461c575b816146046020938361289a565b81010312610bd857614615906132e5565b935f613cb3565b3d91506145f7565b6040513d5f823e3d90fd5b9094506020813d602011614663575b8161464b6020938361289a565b81010312610bd85761465c906132e5565b935f613c4d565b3d915061463e565b6001600160a01b0391821691905f90831561471557821691828252610135602052600360408320015416801561470357803b1561164a57818091602460405180948193631bf3091560e11b83528960048401525af1801561163057907f7363600ac233591b10e402fcff7bdaf80647430d9e03638e669d48349504332292916146f4575b5080a3565b6146fd90612807565b5f6146ef565b60405163ab54b81360e01b8152600490fd5b60405163e04bb5d960e01b8152600490fd5b91908110156130535760051b0190565b356001600160a01b0381168103610bd85790565b9594939291906020999d9b979c9860805261013b545f9a8b91602460018060a01b036101345416604051948593849263fc57d4df60e01b8452600484015260018060a01b03165af18015614c8a578b90614c52575b6147ad915060805161301b565b808060011b0460021481151715614c3e5760018b5261013960205260408b205490670de0b6b3a764000091828102928184041490151715614c2a5760011b10614c18576147f996613b97565b6001600160a01b03811684526101356020526040808520905198919591906148208a612849565b60028a5260403660208c0137610134546001600160a01b03166148428b6132f9565b526001600160a01b0387166148568b613306565b526101335460405163c45a015560e01b815290602090829060049082906001600160a01b03165afa908115611769578791614bd2575b506148cc98999a60209161013e549160405192848401528383526148af83612864565b89604051809d81958294632a422c2b60e21b845260048401613352565b03926001600160a01b03165af19788156117cf578698614b96575b50600b8101805460ff19166002908117909155810180546001600160a01b0319166001600160a01b038a8116919091179091556003909101541696873b15610fda5760405163179a694160e11b81526001600160a01b03821660048201528681602481838d5af1801561176957614b83575b506040516149668161282e565b600181526001600160a01b0388168752610137602052604087209051815460ff191660ff9190911617905561013854600160401b81101561281a57600181018061013855811015613053576101385f527ff79a63dcec80ed75c82f36161f17b9c2f407860160383a7be0a0ee7962c527ae0180546001600160a01b0319166001600160a01b0389169081179091553b15610fda5760405163f1b50c1d60e01b81528681600481836001600160a01b038d165af1801561176957614b6f575b50614ab99596979899610136546040519081526001602082015242604082015260018060a01b038316907f58d1495ede629d89cfe4c00a5ad620a9ba231de4b1a5040c7b355d43092ff86b606060018060a01b038d1692a36101345461012d54608051614aa192909130916001600160a01b03918216911661396f565b60805191898b60018060a01b03610134541692614ceb565b92915093614aca85610131546133b5565b813b156116fd5760405163da3e339760e01b81526001600160a01b038616600482015230602482015260448101919091529082908290606490829084905af1801561163057614b5b575b5050604080516001815260208101949094528301526001600160a01b0316907f4e8e1b96afa9116446f71ff323ac93786664fcbea87475ece33519357750f79090606090a2565b614b658291612807565b6103425780614b14565b614b798791612807565b610fda575f614a24565b614b8f90969196612807565b945f614959565b9097506020813d602011614bca575b81614bb26020938361289a565b81010312610fda57614bc3906132e5565b965f6148e7565b3d9150614ba5565b90506020813d602011614c10575b81614bed6020938361289a565b81010312610fd6576148cc98999a614c066020926132e5565b91509a999861488c565b3d9150614be0565b604051634088b74160e01b8152600490fd5b634e487b7160e01b8c52601160045260248cfd5b634e487b7160e01b8b52601160045260248bfd5b506020813d602011614c82575b81614c6c6020938361289a565b81010312614c7e576147ad90516147a0565b8a80fd5b3d9150614c5f565b6040513d8d823e3d90fd5b60ff60019116019060ff821161302e57565b60ff1660ff811461302e5760010190565b9081518082526020808093019301915f5b828110614cd7575050505090565b835185529381019392810192600101614cc9565b9897909996919392955f8096819560405191614d0683612849565b600283526040366020850137614d1b836132f9565b6001600160a01b038c169052614d3083613306565b6001600160a01b038a16905260405194614d4986612849565b60028652604036602088013781614d5f876132f9565b5282614d6a87613306565b5260405197614d7889612849565b6002895260403660208b0137614d8d896132f9565b52614d9788613306565b5261013380549092614db6916001600160a01b03908116908c166150bb565b8154614dd091906001600160a01b03908116908d166150bb565b54604051623c7cd360e91b81526001600482015260e060248201529b8c966001600160a01b039092169587958694919391614e0f9060e4870190613316565b906003199182878203016044880152614e2791614cb8565b90858203016064860152614e3a91614cb8565b9160848401523060a484015260c483015203925af19687156116305782958398614feb575b5087614e898183614e79614e728b6132f9565b519a613306565b519a6001600160a01b03166150bb565b6001600160a01b03821690813b15610fde5784916024839260405194859384926340519a5360e01b845260048401525af180156119d957614fd8575b506040516370a0823160e01b8082523060048301529091906020836024816001600160a01b0388165afa9283156138ba578593614fa4575b506040519081523060048201526020816024816001600160a01b038a165afa9485156115f05794614f70575b5081614f56575b50505080614f3c575050565b61012d54612af7926001600160a01b039182169116615082565b614f68926001600160a01b0316615082565b5f8080614f30565b9093506020813d602011614f9c575b81614f8c6020938361289a565b81010312610bd85751925f614f29565b3d9150614f7f565b9092506020813d602011614fd0575b81614fc06020938361289a565b81010312610bd85751915f614efd565b3d9150614fb3565b614fe490939193612807565b915f614ec5565b955096503d8083873e614ffe818761289a565b8501946040818703126116fd5780516001600160401b038111610fe25781019580601f88011215610fe25786516150348161291c565b97615042604051998a61289a565b8189526020808a019260051b820101928311610fda57602001905b8282106150725750505060200151965f614e5f565b815181526020918201910161505d565b60405163a9059cbb60e01b60208201526001600160a01b0390921660248301526044820192909252612af7916139bb82606481016139ad565b60405163095ea7b360e01b602082018181526001600160a01b0385166024840152604480840196909652948252949390926150f760648561289a565b83515f926001600160a01b039291858416918591829182855af19061511a613ab9565b826151a4575b5081615199575b5015615137575b50505050509050565b6040519660208801521660248601528060448601526044855260808501908582106001600160401b03831117615185575061517a93946139bb91604052826139cd565b805f8080808061512e565b634e487b7160e01b81526041600452602490fd5b90503b15155f615127565b805191925081159182156151bc575b5050905f615120565b8192509060209181010312610fde5760206151d791016139c0565b5f806151b3565b60ff168015610330575f19810160ff811161302e5760ff165f52610139908160205260405f2054831115615249577f1d518eb390459a1912a9b14c91cc0e67b8449b23fe75f7766658bd86057cb1a392604092825f5260205280835f205582519182526020820152a1565b60405163aabd5a0960e01b8152600490fd5b51906001600160701b0382168203610bd857565b60018060a01b03809116905f828152602090610135825260409182822060ff600b8201541690600382101561056657811561550157908392918661013b5416966101349184828454169960248a51809a819363fc57d4df60e01b835260049e8f8401525af19687156154f75786976154c8575b5086156154b857600201548116926001036154065750509084869392815197888092630240bc6b60e21b82525afa80156153fc57829683916153d9575b5095965b871580156153d1575b6153c15781908651948580926318160ddd60e01b82525afa9485156153b65750819461537f575b50505061537b92615371670de0b6b3a764000095936153769361301b565b61301b565b613381565b0490565b909180939450813d83116153af575b615398818361289a565b810103126103425750519082615371615376615353565b503d61538e565b51913d9150823e3d90fd5b8551633dce448b60e11b81528490fd5b50861561532c565b90506153f3919650853d87116107cb576107bd818361289a565b9590955f61531f565b85513d84823e3d90fd5b8651630240bc6b60e21b815291979493926060908390879082905afa9182156154ae5784908593615459575b506001600160701b03809116921697541688105f1461545457955b9596615323565b61544d565b9250506060823d82116154a6575b816154746060938361289a565b81010312610fe2576154858261525b565b8761549185850161525b565b93015163ffffffff811603610fde575f615432565b3d9150615467565b87513d86823e3d90fd5b8751631d59567b60e11b81528990fd5b9096508481813d83116154f0575b6154e0818361289a565b81010312610fda5751955f6152e2565b503d6154d6565b88513d88823e3d90fd5b845163c1ab6dc160e01b8152600490fdfea2646970667358221220ec0ce624931e6dc7ca7a71d7d931cf4e980745a9e084c92cc8c5ebb2c3ad53bd64736f6c63430008140033",
  "deployedBytecode": "0x60a0806040526004361015610012575f80fd5b5f90813560e01c908163017e7e58146127b55750806301b964d21461274657806301ffc9a7146126ef57806302b6b15a146126145780630d63237f146125b85780630d7a94f61461254f5780631083f7611461252557806318b74a8c146124d65780631db9be1b146124ac578063248a9ca31461247f57806326bde5aa146124105780632f2ff15d146123615780632f73a9f8146122f257806336568abe1461225f5780633744cfdd146121da578063378dc3dc146121bb5780633b5f19351461219c5780633c0b93aa146120cd57806341344d5d146120a15780634189a68e14611fd3578063456f5e1514611ec95780634d86030314611e885780635481860514611d8d5780635823892a14611cde5780635bb4780814611c6f5780635edb9eb014611c505780636140259614611c01578063715018a614611b2a57806372641aa614611af757806377796ace14611a8857806378a8956714611a6957806379ba5097146119e45780637adbf973146118f65780637c13774b1461189a5780637dc0d1d0146118705780637deb602514610fe65780637f7ee43114610eee5780638da5cb5b14610ec557806391d1485414610e7b578063a217fddf14610e5f578063a240de0314610e35578063a3e01ce314610ce5578063a8b3820514610cc6578063ae29d56814610c93578063b4f2e8b814610c17578063b758ba8814610bdc578063bc2db5d214610995578063c17ac35a1461093b578063c1ba29071461091c578063c45a0155146108f2578063c75ed64414610898578063c78418b91461085b578063d547741f1461081d578063d723a3d2146107df578063d98b2f5c14610708578063ddca3f43146106e9578063df1dcaa91461067b578063e30c397814610652578063e77772fe14610628578063e84ca7cb146105e8578063f2fde38b1461057a578063f5dab7111461042e578063f943ce07146103c6578063fa1653bd14610364578063fb8dc179146103455763feab61eb146102f4575f80fd5b346103425760403660031901126103425761030d612933565b610315612fc3565b600360ff8216116103305761032d90602435906151de565b80f35b60405163e82a532960e01b8152600490fd5b80fd5b5034610342578060031936011261034257602061013e54604051908152f35b5034610342576020366003190112610342576001600160a01b036103866127db565b16815261013560205260ff600b604083200154169060038210156103b257602082600260405191148152f35b634e487b7160e01b81526021600452602490fd5b5034610342576020366003190112610342576004356103e3612fc3565b801561041c576020817f51dfcc99f9c590c7a4bcf74fc4e9ae6b407ec6689eb354e3215563a0b5bcd00d9261013c55604051908152a180f35b6040516338c51d2560e21b8152600490fd5b5034610342576020366003190112610342576001600160a01b03806104516127db565b16825261013560205260408220908082541691816001820154169180600283015416906003830154166004830161048790612abb565b61049360068501612abb565b61049f60078601612abb565b916104ac60088701612abb565b936104b960098801612abb565b956104c6600a8901612abb565b97600b015460ff16986040519a8b5260208b015260408a015260608901526101608060808a015288016104f891612b7d565b87810360a089015261050991612b7d565b86810360c088015261051a91612b7d565b85810360e087015261052b91612b7d565b84810361010086015261053d91612b7d565b83810361012085015261054f91612b7d565b906003811015610566578293506101408301520390f35b634e487b7160e01b84526021600452602484fd5b5034610342576020366003190112610342576105946127db565b61059c612fc3565b609780546001600160a01b0319166001600160a01b039283169081179091556065549091167f38d16b8cac22d99fc7c124b9cd0de2d3fa1faef420bfe791d8c362d765e227008380a380f35b50346103425760203660031901126103425760209060ff906040906001600160a01b036106136127db565b16815261013784522054161515604051908152f35b503461034257806003193601126103425761012f546040516001600160a01b039091168152602090f35b50346103425780600319360112610342576097546040516001600160a01b039091168152602090f35b503461034257602036600319011261034257600435610698612fc3565b6301e133808111156106d7576020817fbeaba78e9fea37c532e9c93af5e8e120a48902131aeb7d3146e3ca49dec45a239261013a55604051908152a180f35b60405163abf20e8f60e01b8152600490fd5b5034610342578060031936011261034257602061013254604051908152f35b5034610342576040366003190112610342576107226127db565b61012e54610134546040805163a6b8918760e01b81526001600160a01b0393841660048201529183166024808401919091529290931660448201529035606482015291908280608481015b038173__$57bf2248a10612b83e4be7103a658af84f$__5af480156107d25760409282916107a3575b5082519182526020820152f35b90506107c59150823d84116107cb575b6107bd818361289a565b81019061339f565b5f610796565b503d6107b3565b50604051903d90823e3d90fd5b50346103425760203660031901126103425760209060ff906040906001600160a01b0361080a6127db565b1681526101378452205416604051908152f35b50346103425760403660031901126103425761032d60043561083d6127f1565b9080845260fb6020526108566001604086200154612dbb565b612f4e565b5034610342576020366003190112610342576020906001600160a01b0390604090826108856127db565b1681526101358452205416604051908152f35b5034610342576020366003190112610342576004356108b5612fc3565b61013c54811061041c576020817fc598615f3cd2c393145f278de5a6921fd815849d1ee5aab7b66bdda0efb33ada9261013d55604051908152a180f35b503461034257806003193601126103425761012e546040516001600160a01b039091168152602090f35b5034610342578060031936011261034257602061013d54604051908152f35b503461034257602036600319011261034257604060209161095a6127db565b8183516109668161282e565b526001600160a01b031681526101378352206040519060ff906109888361282e565b5416809152604051908152f35b5034610342576101a0366003190112610342576109b06127db565b6109b86127f1565b6001600160a01b039160443583811690819003610bd85760a435848116809103610bd85760c43591858316809303610bd85760e435868116809103610bd8576101243593878516809503610bd85788549660ff8860081c161597888099610bcb575b8015610bb4575b15610b585760ff1981166001178b5588610b47575b50610a5060ff8b5460081c16610a4b81613162565b613162565b610a59336131c2565b895498610a8160ff8b60081c16610a6f81613162565b610a7881613162565b60018055613162565b6001600160601b0360a01b978161013491168982541617905561012e91168782541617905561012f9086825416179055610130908582541617905561012d9084825416179055606435610132556084356101315561013390838254161790556101043561013a5561013b918254161790556101443561013c556101643561013d556101843561013e55610b12575080f35b61ff00191681557f7f26b83ff96e1f2b6a682f133852f6798a09c465da95921460cefb3847402498602060405160018152a180f35b61ffff1916610101178a555f610a36565b60405162461bcd60e51b815260206004820152602e60248201527f496e697469616c697a61626c653a20636f6e747261637420697320616c72656160448201526d191e481a5b9a5d1a585b1a5e995960921b6064820152608490fd5b50303b158015610a215750600160ff821614610a21565b50600160ff821610610a1a565b5f80fd5b503461034257806003193601126103425760206040517f62229496573be0b0846a2fb48a94de962b501adb0b8eaf7f99924b10a81a19fe8152f35b5034610342576040366003190112610342577fc8242dc5446855370b781abbfc5d882af1d1a3cc29143216aba3558feb0ce9256040600435610c576127f1565b610c5f612fc3565b61013282905561012d80546001600160a01b0319166001600160a01b0392909216918217905582519182526020820152a180f35b503461034257602036600319011261034257604060209160ff610cb4612933565b16815261013983522054604051908152f35b5034610342578060031936011261034257602061013a54604051908152f35b503461034257610cf436612a49565b90610d029692949396612ba2565b60018060a01b039485841697885f5261013760205260405f2095600260ff610d2c818a5416614c95565b1603610e2357610d3b8661526f565b60025f526101396020527fb43cc3dce73ad2c82cb640e429b0bd3222005d4a0d6ac642dad7ae5128bf1dc65411610e11577f4e8e1b96afa9116446f71ff323ac93786664fcbea87475ece33519357750f790988a610de09760609a825f5261013560205260405f20908060028160038501541693610dd48861013498610dcc8c878c54168861012d5416309161396f565b87309161396f565b01541693541692614ceb565b915091805460ff610df2818316614ca7565b169060ff1916179055604051916002835260208301526040820152a280f35b604051639dc93e9f60e01b8152600490fd5b604051636dfb3ae160e01b8152600490fd5b5034610342578060031936011261034257610133546040516001600160a01b039091168152602090f35b5034610342578060031936011261034257602090604051908152f35b5034610342576040366003190112610342576040610e976127f1565b91600435815260fb602052209060018060a01b03165f52602052602060ff60405f2054166040519015158152f35b50346103425780600319360112610342576065546040516001600160a01b039091168152602090f35b5034610342576101a036600319011261034257610f096127db565b6001600160401b0390602435828111610fe257610f2a9036906004016128d6565b604435838111610fde57610f429036906004016128d6565b606435848111610fda57610f5a903690600401612943565b90608435858111610fd657610f739036906004016128d6565b9260a435868111610fd257610f8c9036906004016128d6565b9460c435968711610fd257610fa861032d9736906004016129ab565b610fb0612ba2565b6101843596610164359661014435966101243596610104359660e4359661474b565b8780fd5b8680fd5b8580fd5b8480fd5b8380fd5b5034610342576040366003190112610342576110006127f1565b6001600160a01b0381168252610135602081905260408320600b015491929160ff16600381101561185c5760010361184a5761012e546101345460408051633c529ea760e01b81529290918391829161107391339182918b9160048035926001600160a01b0392831692169088016133c2565b038173__$57bf2248a10612b83e4be7103a658af84f$__5af4801561183f57611821575b506110a18361526f565b61013d5411156110b7575b602060405160018152f35b6001600160a01b038316825260205260408120600b8101805460ff1660038110156105665760021461180f5760028201805460405163c66f245560e01b815293919291906001600160a01b0316602085600481845afa9485156117cf5786956117da575b50906020600492604051938480926316d3df1560e31b82525afa9182156117cf57869261179b575b5061012e54610134546001600160a01b03918216911673__$57bf2248a10612b83e4be7103a658af84f$__3b15610fd25760405163e743240d60e01b8152600481019290925260248201526001600160a01b0388166044820152868160648173__$57bf2248a10612b83e4be7103a658af84f$__5af4801561176957611788575b506001600160a01b0387163b15610fda5760405163f1b50c1d60e01b81528681600481836001600160a01b038d165af1801561176957908791611774575b50509061127b9392916040805161121881612849565b6002815281366020830137610134546001600160a01b0316611239826132f9565b526001600160a01b038a1661124d82613306565b5260018060a01b0361013354168251808099819463237c65f960e01b83528660048401526044830190613316565b6001602483015203915afa948515611769578795611720575b50600301546001600160a01b031694853b15610fd65760405163179a694160e11b81526001600160a01b03861660048201528781602481838b5af1801561171557908891611701575b505061140b6113f99160018060a01b036101345416938a5f948580946113be6040519161130983612849565b6002835260403660208501378a61131f846132f9565b526001600160a01b03861661133384613306565b526113ab6040519761134489612849565b6002895260403660208b01378261135a8a6132f9565b52806113658a613306565b526040519761137389612849565b6002895260403660208b0137836113898a6132f9565b52816113948a613306565b52610133546001600160a01b0390811691166150bb565b610133546001600160a01b03168b6150bb565b61141d60018060a01b0361013354169460405198899788968795623c7cd360e91b87526001600488015260e0602488015260e4870190613316565b85810360031901604487015290614cb8565b83810360031901606485015290614cb8565b8260848301523060a48301524260c483015203925af1908115611630578290839261164e575b5080611451611457926132f9565b50613306565b5061146c81886001600160a01b0389166150bb565b863b1561164a57604051906340519a5360e01b825260048201528181602481838b5af180156116305761163b575b506040516370a0823160e01b8152306004820152956020876024816001600160a01b038d165afa9687156116305782976115fc575b506040516370a0823160e01b815230600482015296602088602481875afa9283156115f0579261159c575b7f381d54fa425631e6266af114239150fae1d5db67bb65b4fa9ecc65013107e07e975080611582575b505080611562575b5050805460ff1916600217905580546001600160a01b0319166001600160a01b0392831690811790915593169180a35f80806110ac565b61012d5461157b926001600160a01b0390911690615082565b5f8061152b565b611595916001600160a01b038b16615082565b5f80611523565b91506020873d6020116115e8575b816115b76020938361289a565b81010312610bd8577f381d54fa425631e6266af114239150fae1d5db67bb65b4fa9ecc65013107e07e9651916114fa565b3d91506115aa565b604051903d90823e3d90fd5b9096506020813d602011611628575b816116186020938361289a565b81010312610bd85751955f6114cf565b3d915061160b565b6040513d84823e3d90fd5b61164490612807565b5f61149a565b5080fd5b9150503d908183823e611661828261289a565b60408183810103126116fd578051916001600160401b038311610fe257808201601f848401011215610fe257828201519061169b8261291c565b936116a9604051958661289a565b8285526020850191840160208460051b838701010111610fda57602081850101915b60208460051b838701010183106116ed57505050506020015190611457611443565b82518152602092830192016116cb565b8280fd5b61170a90612807565b610fd657865f6112dd565b6040513d8a823e3d90fd5b9094506040813d604011611761575b8161173c6040938361289a565b81010312610fd6576117596020611752836132e5565b92016139c0565b50935f611294565b3d915061172f565b6040513d89823e3d90fd5b61177d90612807565b610fda57855f611202565b61179490969196612807565b945f6111c4565b9091506020813d6020116117c7575b816117b76020938361289a565b81010312610fda5751905f611143565b3d91506117aa565b6040513d88823e3d90fd5b9094506020813d602011611807575b816117f66020938361289a565b81010312610fda575193602061111b565b3d91506117e9565b604051633a2cc0e960e11b8152600490fd5b6118399060403d6040116107cb576107bd818361289a565b50611097565b6040513d85823e3d90fd5b6040516305e1dfe360e11b8152600490fd5b634e487b7160e01b83526021600452602483fd5b503461034257806003193601126103425761013b546040516001600160a01b039091168152602090f35b50346103425760203660031901126103425760043561013680548210156116fd579091527f39da2db355130acf428d669fbf1c14faa9d51399a25b793fc254bbbde66f02e201546040516001600160a01b039091168152602090f35b50346103425760208060031936011261164a576119116127db565b9061191a612fc3565b6101345460405163fc57d4df60e01b81526001600160a01b039182166004820152921691818160248187875af19081156119d95784916119ac575b501561199a5761013b80546001600160a01b031916831790556040519182527f3f32684a32a11dabdbb8c0177de80aa3ae36a004d75210335b49e544e48cd0aa91a180f35b604051639589a27d60e01b8152600490fd5b90508181813d83116119d2575b6119c3818361289a565b81010312610fe257515f611955565b503d6119b9565b6040513d86823e3d90fd5b5034610342578060031936011261034257609754336001600160a01b0390911603611a125761032d336131c2565b60405162461bcd60e51b815260206004820152602960248201527f4f776e61626c6532537465703a2063616c6c6572206973206e6f7420746865206044820152683732bb9037bbb732b960b91b6064820152608490fd5b5034610342578060031936011261034257602061013654604051908152f35b5034610342576020366003190112610342577f0454b4498edcb0a2c7058cfd107bb0e6551b3820f891c725db307ed66e740f206020611ac56127db565b611acd612fc3565b61013380546001600160a01b0319166001600160a01b03929092169182179055604051908152a180f35b50346103425760403660031901126103425761032d611b146127db565b611b1c6127f1565b90611b25612fc3565b61466b565b5034610342578060031936011261034257611b43612fc3565b60655481906001600160a01b0390611b5c908216612ec4565b6001600160601b0360a01b8060975416609755606554908116606555167f8be0079c531659141344cd1fd0a4f28419497f9722a3daafe3b4186f6b6457e08280a380805260fb6020526040812060205260ff60408220541615611bbc5780f35b60fb6020526040812060205260408120600160ff198254161790553381807f2f8788117e7eff1d82e926ec794901d17c78024a50270940304540a733656f0d8180a480f35b5034610342576020366003190112610342577fedbbbd0f3b9ac5d8f4d9142fe0b31c73d786619eab0d7f8df600fe84282a4d436020600435611c41612fc3565b8061013155604051908152a180f35b5034610342578060031936011261034257602061013854604051908152f35b5034610342576020366003190112610342577f1edf3afd4ac789736e00d216cd88be164ddcef26a6eedcc30cdb0cb62f3741b16020611cac6127db565b611cb4612fc3565b61012e80546001600160a01b0319166001600160a01b03929092169182179055604051908152a180f35b5034610342576040366003190112610342576001600160401b036004358181116116fd57611d10903690600401612a19565b9091602435908111610fe257611d2a903690600401612a19565b9091611d34612fc3565b818103611d7b57845b818110611d48578580f35b80611d75611d61611d5c600194868a614727565b614737565b611d6f611d5c84888a614727565b9061466b565b01611d3d565b6040516305e8333d60e11b8152600490fd5b503461034257611d9c36612a49565b90611daa9692949396612ba2565b60018060a01b039485841697888a5261013760205260408a2095600360ff611dd4818a5416614c95565b1603610e2357611de38661526f565b60038c5261013960205260408c205411610e11577f4e8e1b96afa9116446f71ff323ac93786664fcbea87475ece33519357750f790988a611e579760609a60408f84815261013560205220908060028160038501541693610dd48861013498610dcc8c878c54168861012d5416309161396f565b915091805460ff611e69818316614ca7565b169060ff1916179055604051916003835260208301526040820152a280f35b5034610342576020366003190112610342576020906001600160a01b039060039060409083611eb56127db565b168152610135855220015416604051908152f35b50346103425761010036600319011261034257611ee46127db565b6001600160401b0390602435828111610fe257611f059036906004016128d6565b91604435818111610fde57611f1e9036906004016128d6565b9360643582811161164a57611f37903690600401612943565b916084358181116116fd57611f509036906004016128d6565b9060a435818111610fe257611f699036906004016128d6565b9260c43591821161034257611fcf611fa3898989898989611f8d3660048c016129ab565b92611f9661328f565b3396339660e435966133fc565b60018055604080516001600160a01b039485168152939092166020840152908201529081906060820190565b0390f35b503461034257604036600319011261034257611fed6127f1565b6001600160a01b03808216835261013560205260408320600b01549092919060ff16600381101561185c5760010361184a576040908361012e54169361013454169061205383519586938493627e8ae960e01b85523392339260043591600488016133c2565b038173__$57bf2248a10612b83e4be7103a658af84f$__5af49081156115f0575061208357602060405160018152f35b61209b9060403d6040116107cb576107bd818361289a565b506110ac565b50346103425760203660031901126103425760206120c56120c06127db565b61526f565b604051908152f35b50346103425760e0366003190112610342576001600160401b036004358181116116fd576120ff9036906004016128d6565b602435828111610fe2576121179036906004016128d6565b91604435818111610fde57612130903690600401612943565b9360643582811161164a576121499036906004016128d6565b916084358181116116fd576121629036906004016128d6565b9160a43591821161034257611fcf611fa388888888886121853660048b016129ab565b9161218e61328f565b3395339560c43595336133fc565b5034610342578060031936011261034257602061013c54604051908152f35b5034610342578060031936011261034257602061013154604051908152f35b5034610342576020366003190112610342576004356001600160401b03811161164a5761220b903690600401612a19565b612216929192612fc3565b600390818103611d7b57825b60ff81168381101561225b57906122516122569261224a61224284614c95565b91868a614727565b35906151de565b614ca7565b612222565b8480f35b5034610342576040366003190112610342576122796127f1565b336001600160a01b038216036122955761032d90600435612f4e565b60405162461bcd60e51b815260206004820152602f60248201527f416363657373436f6e74726f6c3a2063616e206f6e6c792072656e6f756e636560448201526e103937b632b9903337b91039b2b63360891b6064820152608490fd5b5034610342576020366003190112610342577fcf4be1c851767114c1f4b298dc84eab48d103473908393f6d408c82ba7cda0e8602061232f6127db565b612337612fc3565b61012f80546001600160a01b0319166001600160a01b03929092169182179055604051908152a180f35b50346103425760403660031901126103425760043561237e6127f1565b81835260fb6020526123966001604085200154612dbb565b81835260fb602052604083209060018060a01b03169081845260205260ff604084205416156123c3578280f35b81835260fb6020526040832081845260205260408320600160ff1982541617905533917f2f8788117e7eff1d82e926ec794901d17c78024a50270940304540a733656f0d8480a45f808280f35b5034610342576020366003190112610342577fbdaa8f7ade01473981aef419539e6c190d409f50b144a7a796efd2777607920c602061244d6127db565b612455612fc3565b61013480546001600160a01b0319166001600160a01b03929092169182179055604051908152a180f35b50346103425760203660031901126103425760016040602092600435815260fb8452200154604051908152f35b5034610342578060031936011261034257610130546040516001600160a01b039091168152602090f35b5034610342576020366003190112610342577f331a39a6518952c9d923c75bc89cd4d27c2a3cf1ee4295c830e41dca8168eb826020600435612516612fc3565b8061013e55604051908152a180f35b5034610342578060031936011261034257610134546040516001600160a01b039091168152602090f35b5034610342576040366003190112610342576125696127db565b61012e546101345460408051631d486c9760e21b81526001600160a01b03938416600482015291831660248084019190915292909316604482015290356064820152919082806084810161076d565b50346103425760203660031901126103425760043561013880548210156116fd579091527ff79a63dcec80ed75c82f36161f17b9c2f407860160383a7be0a0ee7962c527ae01546040516001600160a01b039091168152602090f35b503461034257610180366003190112610342576001600160401b036004358181116116fd576126479036906004016128d6565b602435828111610fe25761265f9036906004016128d6565b604435838111610fde57612677903690600401612943565b606435848111610fda5761268f9036906004016128d6565b90608435858111610fd6576126a89036906004016128d6565b9260a435958611610fd6576126c461032d9636906004016129ab565b946126cd612ba2565b610164359561014435956101243595610104359560e4359560c435953361474b565b50346103425760203660031901126103425760043563ffffffff60e01b811680910361164a57602090637965db0b60e01b8114908115612735575b506040519015158152f35b6301ffc9a760e01b1490508261272a565b5034610342576020366003190112610342577f3587ea62a24fc6959886ef88a458920ef0762b7ecbae1e87892c731869362d6960206127836127db565b61278b612fc3565b61013080546001600160a01b0319166001600160a01b03929092169182179055604051908152a180f35b90503461164a578160031936011261164a5761012d546001600160a01b03168152602090f35b600435906001600160a01b0382168203610bd857565b602435906001600160a01b0382168203610bd857565b6001600160401b03811161281a57604052565b634e487b7160e01b5f52604160045260245ffd5b602081019081106001600160401b0382111761281a57604052565b606081019081106001600160401b0382111761281a57604052565b604081019081106001600160401b0382111761281a57604052565b608081019081106001600160401b0382111761281a57604052565b90601f801991011681019081106001600160401b0382111761281a57604052565b6001600160401b03811161281a57601f01601f191660200190565b81601f82011215610bd8578035906128ed826128bb565b926128fb604051948561289a565b82845260208383010111610bd857815f926020809301838601378301015290565b6001600160401b03811161281a5760051b60200190565b6004359060ff82168203610bd857565b81601f82011215610bd85780359161295a8361291c565b92612968604051948561289a565b808452602092838086019260051b820101928311610bd8578301905b828210612992575050505090565b813560ff81168103610bd8578152908301908301612984565b9080601f83011215610bd857604051916001600160401b03608084018181118582101761281a57604052836080830192848411610bd85780915b8483106129f55750505050505090565b8235848111610bd857602091612a0e88849386016128d6565b8152019201916129e5565b9181601f84011215610bd8578235916001600160401b038311610bd8576020808501948460051b010111610bd857565b60e0906003190112610bd8576004356001600160a01b0381168103610bd857906024359060443590606435906084359060a4359060c43590565b90600182811c92168015612ab1575b6020831014612a9d57565b634e487b7160e01b5f52602260045260245ffd5b91607f1691612a92565b9060405191825f825492612ace84612a83565b9081845260019485811690815f14612b395750600114612af9575b5050612af79250038361289a565b565b909391505f52602090815f20935f915b818310612b21575050612af793508201015f80612ae9565b85548884018501529485019487945091830191612b09565b915050612af794506020925060ff191682840152151560051b8201015f80612ae9565b5f5b838110612b6d5750505f910152565b8181015183820152602001612b5e565b90602091612b9681518092818552858086019101612b5c565b601f01601f1916010190565b335f9081527f08f584bb5334faafa280854191c286de8f907d6af8dd5e653110c56d426e0054602090815260408083205490927f62229496573be0b0846a2fb48a94de962b501adb0b8eaf7f99924b10a81a19fe9160ff1615612c055750505050565b612c0e33613067565b91845190612c1b8261287f565b60428252848201926060368537825115612da75760308453825190600191821015612da75790607860218501536041915b818311612d3a57505050612cf8576048612cf4938693612cd893612cc9985198899376020b1b1b2b9b9a1b7b73a3937b61d1030b1b1b7bab73a1604d1b8a860152612ca0815180928c603789019101612b5c565b8401917001034b99036b4b9b9b4b733903937b6329607d1b603784015251809386840190612b5c565b0103602881018752018561289a565b5192839262461bcd60e51b845260048401526024830190612b7d565b0390fd5b60648486519062461bcd60e51b825280600483015260248201527f537472696e67733a20686578206c656e67746820696e73756666696369656e746044820152fd5b909192600f81166010811015612d93576f181899199a1a9b1b9c1cb0b131b232b360811b901a612d6a8587613042565b5360041c928015612d7f575f19019190612c4c565b634e487b7160e01b82526011600452602482fd5b634e487b7160e01b83526032600452602483fd5b634e487b7160e01b81526032600452602490fd5b5f9080825260209060fb8252604092838120338252835260ff848220541615612de45750505050565b612ded33613067565b91845190612dfa8261287f565b60428252848201926060368537825115612da75760308453825190600191821015612da75790607860218501536041915b818311612e7f57505050612cf8576048612cf4938693612cd893612cc9985198899376020b1b1b2b9b9a1b7b73a3937b61d1030b1b1b7bab73a1604d1b8a860152612ca0815180928c603789019101612b5c565b909192600f81166010811015612d93576f181899199a1a9b1b9c1cb0b131b232b360811b901a612eaf8587613042565b5360041c928015612d7f575f19019190612e2b565b6001600160a01b03165f8181527fc88390e7e62175be0932452175b6a7222b6b094ab0ef984a5153c620345d8975602052604081205490919060ff16612f08575050565b81805260fb602052604082208183526020526040822060ff19815416905533917ff6391f5c32d9c69d2a47ea670b442974b53935d1edc7fd64eb21e047a839171b8180a4565b905f9180835260fb602052604083209160018060a01b03169182845260205260ff604084205416612f7e57505050565b80835260fb602052604083208284526020526040832060ff1981541690557ff6391f5c32d9c69d2a47ea670b442974b53935d1edc7fd64eb21e047a839171b339380a4565b6065546001600160a01b03163303612fd757565b606460405162461bcd60e51b815260206004820152602060248201527f4f776e61626c653a2063616c6c6572206973206e6f7420746865206f776e65726044820152fd5b8181029291811591840414171561302e57565b634e487b7160e01b5f52601160045260245ffd5b908151811015613053570160200190565b634e487b7160e01b5f52603260045260245ffd5b6040519061307482612849565b602a82526020820160403682378251156130535760309053815160019081101561305357607860218401536029905b8082116130f75750506130b35790565b606460405162461bcd60e51b815260206004820152602060248201527f537472696e67733a20686578206c656e67746820696e73756666696369656e746044820152fd5b9091600f8116601081101561314e576f181899199a1a9b1b9c1cb0b131b232b360811b901a6131268486613042565b5360041c91801561313a575f1901906130a3565b60245f634e487b7160e01b81526011600452fd5b60245f634e487b7160e01b81526032600452fd5b1561316957565b60405162461bcd60e51b815260206004820152602b60248201527f496e697469616c697a61626c653a20636f6e7472616374206973206e6f74206960448201526a6e697469616c697a696e6760a81b6064820152608490fd5b6065546001600160a01b03906131d9908216612ec4565b6001600160601b0360a01b8060975416609755816065549316918280928516176065555f93167f8be0079c531659141344cd1fd0a4f28419497f9722a3daafe3b4186f6b6457e08480a381805260fb6020526040822081835260205260ff60408320541615613246575050565b81805260fb6020526040822081835260205260408220600160ff1982541617905533917f2f8788117e7eff1d82e926ec794901d17c78024a50270940304540a733656f0d8180a4565b6002600154146132a0576002600155565b60405162461bcd60e51b815260206004820152601f60248201527f5265656e7472616e637947756172643a207265656e7472616e742063616c6c006044820152606490fd5b51906001600160a01b0382168203610bd857565b8051156130535760200190565b8051600110156130535760400190565b9081518082526020808093019301915f5b828110613335575050505090565b83516001600160a01b031685529381019392810192600101613327565b909161336961337e93606084526060840190613316565b91600160208201526040818403910152612b7d565b90565b811561338b570490565b634e487b7160e01b5f52601260045260245ffd5b9190826040910312610bd8576020825192015190565b9190820391821161302e57565b6001600160a01b0391821681529181166020830152604082019290925291811660608301529182166080820152911660a082015260c00190565b92969893999795919994909461013454975f9b8c8a60208b6024604051809481936370a0823160e01b835260018060a01b0316600483015260018060a01b03165afa908115611630578e9291613936575b5010613924578c9761346c96610132549b8c80613901575b5050613b97565b61012e54610134546040516364e329cb60e11b81526001600160a01b0380851660048301529182166024820152999296926020928b9260449284929091165af197881561183f5783986138c5575b506040516134c781612849565b600281526040366020830137610134546001600160a01b03166134e9826132f9565b526001600160a01b0386166134fd82613306565b526101335460405163c45a015560e01b815290602090829060049082906001600160a01b03165afa9081156138ba578591613878575b506135719160209161013e5491604051928484015283835261355483612864565b87604051809681958294632a422c2b60e21b845260048401613352565b03926001600160a01b03165af180156119d95761383f575b506001600160a01b0385163b156116fd57604051631e59818360e31b81526001600160a01b03898116600483015284908290602490829084908b165af180156119d95761382c575b5061013c54670de0b6b3a764000081818102048114821517156138185761013b546101345460405163fc57d4df60e01b81526001600160a01b039182166004820152939291602091859160249183918b91165af19182156117cf5786926137e2575b61363e935002613381565b61012e54610134546101315460408051630afbf7f360e01b81526001600160a01b03948516600482015292841660248401529289166044830152606482015260848101929092528160a48173__$57bf2248a10612b83e4be7103a658af84f$__5af480156119d9579061372a92916137c4575b506001600160a01b038681168086526101356020908152604080882060020180546001600160a01b031916948e16948517905561013654815181815292830189905242918301919091529a9291907f58d1495ede629d89cfe4c00a5ad620a9ba231de4b1a5040c7b355d43092ff86b90606090a36133b5565b928361373a575b50505050929190565b61012e546101345460408051633c529ea760e01b81529690948794859461377894929391928b92916001600160a01b039182169116600488016133c2565b038173__$57bf2248a10612b83e4be7103a658af84f$__5af49081156115f057506137a6575b808080613731565b6137be9060403d6040116107cb576107bd818361289a565b5061379e565b6137dc9060403d6040116107cb576107bd818361289a565b506136b1565b91506020833d602011613810575b816137fd6020938361289a565b81010312610bd85761363e925191613633565b3d91506137f0565b634e487b7160e01b85526011600452602485fd5b61383890939193612807565b915f6135d1565b6020813d602011613870575b816138586020938361289a565b81010312610fe257613869906132e5565b505f613589565b3d915061384b565b90506020813d6020116138b2575b816138936020938361289a565b81010312610fde57613571916138aa6020926132e5565b915091613533565b3d9150613886565b6040513d87823e3d90fd5b9097506020813d6020116138f9575b816138e16020938361289a565b810103126116fd576138f2906132e5565b965f6134ba565b3d91506138d4565b61012d5461391d926001600160a01b03918216918f911661396f565b5f8c613465565b604051632ca2f52b60e11b8152600490fd5b9150506020813d602011613967575b816139526020938361289a565b81010312613963578c90515f61344d565b8d80fd5b3d9150613945565b6040516323b872dd60e01b60208201526001600160a01b0392831660248201529290911660448301526064820192909252612af7916139bb82608481015b03601f19810184528361289a565b6139cd565b51908115158203610bd857565b604051613a2a916001600160a01b03166139e682612864565b5f806020958685527f5361666545524332303a206c6f772d6c6576656c2063616c6c206661696c656487860152868151910182855af1613a24613ab9565b91613ae8565b8051828115918215613a9a575b5050905015613a435750565b6084906040519062461bcd60e51b82526004820152602a60248201527f5361666545524332303a204552433230206f7065726174696f6e20646964206e6044820152691bdd081cdd58d8d9595960b21b6064820152fd5b8380929350010312610bd85781613ab191016139c0565b80825f613a37565b3d15613ae3573d90613aca826128bb565b91613ad8604051938461289a565b82523d5f602084013e565b606090565b91929015613b4a5750815115613afc575090565b3b15613b055790565b60405162461bcd60e51b815260206004820152601d60248201527f416464726573733a2063616c6c20746f206e6f6e2d636f6e74726163740000006044820152606490fd5b825190915015613b5d5750805190602001fd5b60405162461bcd60e51b815260206004820152908190612cf4906024830190612b7d565b818110613b8c575050565b5f8155600101613b81565b9390613c2f9593979692602091613c1d5f60018060a01b0361012f541692613bf4602b60405183613bd182955180928c8086019101612b5c565b81016a08189e48125b9d1953995d60aa1b8a82015203600b81018452018261289a565b610131546040516334f359f960e01b8152608060048201529b8c96879586946084860190612b7d565b84810360031901602486015290612b7d565b90604483015230606483015203925af1948515614624575f9561462f575b50610130546101345461013a546040516309394e6160e11b81526001600160a01b03808a16600483015292831660248201523060448201526064810191909152969889979590929091602091879160849183915f91165af1948515614624575f956145e8575b50835191602085015193606060408701519601519660405198896101808101106001600160401b036101808c01111761281a576101808a0160405260018060a01b0316895260018060a01b038a1660208a01525f60408a015260018060a01b03166060890152608088015260a087015260c086015260e0850152610100840152610120830152610140820152600161016082015260018060a01b0382165f5261013560205260405f2060018060a01b038251166001600160601b0360a01b8254161781556001810160018060a01b036020840151166001600160601b0360a01b8254161790556002810160018060a01b036040840151166001600160601b0360a01b8254161790556003810160018060a01b036060840151166001600160601b0360a01b82541617905560808201518051906001600160401b03821161281a578190613e026004850154612a83565b601f81116145b5575b50602090601f8311600114614547575f9261453c575b50508160011b915f199060031b1c19161760048201555b60a08201518051906001600160401b03821161281a57600160401b821161281a5760209060058401548360058601558084106144e8575b500190600583015f5260205f20905f5b8160051c81106144a95750601f198116810361445b575b50505060c08201518051906001600160401b03821161281a578190613ebe6006850154612a83565b601f8111614428575b50602090601f83116001146143ba575f926143af575b50508160011b915f199060031b1c19161760068201555b60e08201518051906001600160401b03821161281a578190613f196007850154612a83565b601f811161437c575b50602090601f831160011461430e575f92614303575b50508160011b915f199060031b1c19161760078201555b6101008201518051906001600160401b03821161281a578190613f756008850154612a83565b601f81116142d0575b50602090601f8311600114614262575f92614257575b50508160011b915f199060031b1c19161760088201555b6101208201518051906001600160401b03821161281a578190613fd16009850154612a83565b601f8111614224575b50602090601f83116001146141b6575f926141ab575b50508160011b915f199060031b1c19161760098201555b600a81016101408301518051906001600160401b03821161281a5761402c8354612a83565b601f8111614170575b50602090601f8311600114614105579180600b949261016096945f926140fa575b50508160011b915f199060031b1c19161790555b0191015160038110156140e65760ff80198354169116179055610136805490600160401b82101561281a5760018201808255821015613053575f527f39da2db355130acf428d669fbf1c14faa9d51399a25b793fc254bbbde66f02e20180546001600160a01b0319166001600160a01b03909216919091179055565b634e487b7160e01b5f52602160045260245ffd5b015190505f80614056565b90601f19831691845f5260205f20925f5b81811061415857509260019285926101609896600b989610614140575b505050811b01905561406a565b01515f1960f88460031b161c191690555f8080614133565b92936020600181928786015181550195019301614116565b61419b90845f5260205f20601f850160051c810191602086106141a1575b601f0160051c0190613b81565b5f614035565b909150819061418e565b015190505f80613ff0565b9250600984015f5260205f20905f935b601f1984168510614209576001945083601f198116106141f1575b505050811b016009820155614007565b01515f1960f88460031b161c191690555f80806141e1565b818101518355602094850194600190930192909101906141c6565b61425190600986015f5260205f20601f850160051c810191602086106141a157601f0160051c0190613b81565b5f613fda565b015190505f80613f94565b9250600884015f5260205f20905f935b601f19841685106142b5576001945083601f1981161061429d575b505050811b016008820155613fab565b01515f1960f88460031b161c191690555f808061428d565b81810151835560209485019460019093019290910190614272565b6142fd90600886015f5260205f20601f850160051c810191602086106141a157601f0160051c0190613b81565b5f613f7e565b015190505f80613f38565b9250600784015f5260205f20905f935b601f1984168510614361576001945083601f19811610614349575b505050811b016007820155613f4f565b01515f1960f88460031b161c191690555f8080614339565b8181015183556020948501946001909301929091019061431e565b6143a990600786015f5260205f20601f850160051c810191602086106141a157601f0160051c0190613b81565b5f613f22565b015190505f80613edd565b9250600684015f5260205f20905f935b601f198416851061440d576001945083601f198116106143f5575b505050811b016006820155613ef4565b01515f1960f88460031b161c191690555f80806143e5565b818101518355602094850194600190930192909101906143ca565b61445590600686015f5260205f20601f850160051c810191602086106141a157601f0160051c0190613b81565b5f613ec7565b5f925f5b601f1983168303811061447b57505060051c01555f8080613e96565b909360206144a06001928460ff895116919060ff809160031b9316831b921b19161790565b9501910161445f565b5f805b602081106144c1575083820155600101613e7f565b855190959160019160209160ff60038a901b81811b199092169216901b17920195016144ac565b61451690600586015f52601f845f20918187168061451c575b500160051c810190601f860160051c01613b81565b5f613e6f565b5f199081848a0160051c86010191825491890360031b1c1690555f614501565b015190505f80613e21565b9250600484015f5260205f20905f935b601f198416851061459a576001945083601f19811610614582575b505050811b016004820155613e38565b01515f1960f88460031b161c191690555f8080614572565b81810151835560209485019460019093019290910190614557565b6145e290600486015f5260205f20601f850160051c810191602086106141a157601f0160051c0190613b81565b5f613e0b565b9094506020813d60201161461c575b816146046020938361289a565b81010312610bd857614615906132e5565b935f613cb3565b3d91506145f7565b6040513d5f823e3d90fd5b9094506020813d602011614663575b8161464b6020938361289a565b81010312610bd85761465c906132e5565b935f613c4d565b3d915061463e565b6001600160a01b0391821691905f90831561471557821691828252610135602052600360408320015416801561470357803b1561164a57818091602460405180948193631bf3091560e11b83528960048401525af1801561163057907f7363600ac233591b10e402fcff7bdaf80647430d9e03638e669d48349504332292916146f4575b5080a3565b6146fd90612807565b5f6146ef565b60405163ab54b81360e01b8152600490fd5b60405163e04bb5d960e01b8152600490fd5b91908110156130535760051b0190565b356001600160a01b0381168103610bd85790565b9594939291906020999d9b979c9860805261013b545f9a8b91602460018060a01b036101345416604051948593849263fc57d4df60e01b8452600484015260018060a01b03165af18015614c8a578b90614c52575b6147ad915060805161301b565b808060011b0460021481151715614c3e5760018b5261013960205260408b205490670de0b6b3a764000091828102928184041490151715614c2a5760011b10614c18576147f996613b97565b6001600160a01b03811684526101356020526040808520905198919591906148208a612849565b60028a5260403660208c0137610134546001600160a01b03166148428b6132f9565b526001600160a01b0387166148568b613306565b526101335460405163c45a015560e01b815290602090829060049082906001600160a01b03165afa908115611769578791614bd2575b506148cc98999a60209161013e549160405192848401528383526148af83612864565b89604051809d81958294632a422c2b60e21b845260048401613352565b03926001600160a01b03165af19788156117cf578698614b96575b50600b8101805460ff19166002908117909155810180546001600160a01b0319166001600160a01b038a8116919091179091556003909101541696873b15610fda5760405163179a694160e11b81526001600160a01b03821660048201528681602481838d5af1801561176957614b83575b506040516149668161282e565b600181526001600160a01b0388168752610137602052604087209051815460ff191660ff9190911617905561013854600160401b81101561281a57600181018061013855811015613053576101385f527ff79a63dcec80ed75c82f36161f17b9c2f407860160383a7be0a0ee7962c527ae0180546001600160a01b0319166001600160a01b0389169081179091553b15610fda5760405163f1b50c1d60e01b81528681600481836001600160a01b038d165af1801561176957614b6f575b50614ab99596979899610136546040519081526001602082015242604082015260018060a01b038316907f58d1495ede629d89cfe4c00a5ad620a9ba231de4b1a5040c7b355d43092ff86b606060018060a01b038d1692a36101345461012d54608051614aa192909130916001600160a01b03918216911661396f565b60805191898b60018060a01b03610134541692614ceb565b92915093614aca85610131546133b5565b813b156116fd5760405163da3e339760e01b81526001600160a01b038616600482015230602482015260448101919091529082908290606490829084905af1801561163057614b5b575b5050604080516001815260208101949094528301526001600160a01b0316907f4e8e1b96afa9116446f71ff323ac93786664fcbea87475ece33519357750f79090606090a2565b614b658291612807565b6103425780614b14565b614b798791612807565b610fda575f614a24565b614b8f90969196612807565b945f614959565b9097506020813d602011614bca575b81614bb26020938361289a565b81010312610fda57614bc3906132e5565b965f6148e7565b3d9150614ba5565b90506020813d602011614c10575b81614bed6020938361289a565b81010312610fd6576148cc98999a614c066020926132e5565b91509a999861488c565b3d9150614be0565b604051634088b74160e01b8152600490fd5b634e487b7160e01b8c52601160045260248cfd5b634e487b7160e01b8b52601160045260248bfd5b506020813d602011614c82575b81614c6c6020938361289a565b81010312614c7e576147ad90516147a0565b8a80fd5b3d9150614c5f565b6040513d8d823e3d90fd5b60ff60019116019060ff821161302e57565b60ff1660ff811461302e5760010190565b9081518082526020808093019301915f5b828110614cd7575050505090565b835185529381019392810192600101614cc9565b9897909996919392955f8096819560405191614d0683612849565b600283526040366020850137614d1b836132f9565b6001600160a01b038c169052614d3083613306565b6001600160a01b038a16905260405194614d4986612849565b60028652604036602088013781614d5f876132f9565b5282614d6a87613306565b5260405197614d7889612849565b6002895260403660208b0137614d8d896132f9565b52614d9788613306565b5261013380549092614db6916001600160a01b03908116908c166150bb565b8154614dd091906001600160a01b03908116908d166150bb565b54604051623c7cd360e91b81526001600482015260e060248201529b8c966001600160a01b039092169587958694919391614e0f9060e4870190613316565b906003199182878203016044880152614e2791614cb8565b90858203016064860152614e3a91614cb8565b9160848401523060a484015260c483015203925af19687156116305782958398614feb575b5087614e898183614e79614e728b6132f9565b519a613306565b519a6001600160a01b03166150bb565b6001600160a01b03821690813b15610fde5784916024839260405194859384926340519a5360e01b845260048401525af180156119d957614fd8575b506040516370a0823160e01b8082523060048301529091906020836024816001600160a01b0388165afa9283156138ba578593614fa4575b506040519081523060048201526020816024816001600160a01b038a165afa9485156115f05794614f70575b5081614f56575b50505080614f3c575050565b61012d54612af7926001600160a01b039182169116615082565b614f68926001600160a01b0316615082565b5f8080614f30565b9093506020813d602011614f9c575b81614f8c6020938361289a565b81010312610bd85751925f614f29565b3d9150614f7f565b9092506020813d602011614fd0575b81614fc06020938361289a565b81010312610bd85751915f614efd565b3d9150614fb3565b614fe490939193612807565b915f614ec5565b955096503d8083873e614ffe818761289a565b8501946040818703126116fd5780516001600160401b038111610fe25781019580601f88011215610fe25786516150348161291c565b97615042604051998a61289a565b8189526020808a019260051b820101928311610fda57602001905b8282106150725750505060200151965f614e5f565b815181526020918201910161505d565b60405163a9059cbb60e01b60208201526001600160a01b0390921660248301526044820192909252612af7916139bb82606481016139ad565b60405163095ea7b360e01b602082018181526001600160a01b0385166024840152604480840196909652948252949390926150f760648561289a565b83515f926001600160a01b039291858416918591829182855af19061511a613ab9565b826151a4575b5081615199575b5015615137575b50505050509050565b6040519660208801521660248601528060448601526044855260808501908582106001600160401b03831117615185575061517a93946139bb91604052826139cd565b805f8080808061512e565b634e487b7160e01b81526041600452602490fd5b90503b15155f615127565b805191925081159182156151bc575b5050905f615120565b8192509060209181010312610fde5760206151d791016139c0565b5f806151b3565b60ff168015610330575f19810160ff811161302e5760ff165f52610139908160205260405f2054831115615249577f1d518eb390459a1912a9b14c91cc0e67b8449b23fe75f7766658bd86057cb1a392604092825f5260205280835f205582519182526020820152a1565b60405163aabd5a0960e01b8152600490fd5b51906001600160701b0382168203610bd857565b60018060a01b03809116905f828152602090610135825260409182822060ff600b8201541690600382101561056657811561550157908392918661013b5416966101349184828454169960248a51809a819363fc57d4df60e01b835260049e8f8401525af19687156154f75786976154c8575b5086156154b857600201548116926001036154065750509084869392815197888092630240bc6b60e21b82525afa80156153fc57829683916153d9575b5095965b871580156153d1575b6153c15781908651948580926318160ddd60e01b82525afa9485156153b65750819461537f575b50505061537b92615371670de0b6b3a764000095936153769361301b565b61301b565b613381565b0490565b909180939450813d83116153af575b615398818361289a565b810103126103425750519082615371615376615353565b503d61538e565b51913d9150823e3d90fd5b8551633dce448b60e11b81528490fd5b50861561532c565b90506153f3919650853d87116107cb576107bd818361289a565b9590955f61531f565b85513d84823e3d90fd5b8651630240bc6b60e21b815291979493926060908390879082905afa9182156154ae5784908593615459575b506001600160701b03809116921697541688105f1461545457955b9596615323565b61544d565b9250506060823d82116154a6575b816154746060938361289a565b81010312610fe2576154858261525b565b8761549185850161525b565b93015163ffffffff811603610fde575f615432565b3d9150615467565b87513d86823e3d90fd5b8751631d59567b60e11b81528990fd5b9096508481813d83116154f0575b6154e0818361289a565b81010312610fda5751955f6152e2565b503d6154d6565b88513d88823e3d90fd5b845163c1ab6dc160e01b8152600490fdfea2646970667358221220ec0ce624931e6dc7ca7a71d7d931cf4e980745a9e084c92cc8c5ebb2c3ad53bd64736f6c63430008140033",
  "libraries": {
    "INTRouterLibrary": "0x6FAbAC8069BC09cAD727fe49157ad69729222e8B"
  },
  "devdoc": {
    "events": {
      "Initialized(uint8)": {
        "details": "Triggered when the contract has been initialized or reinitialized."
      },
      "RoleAdminChanged(bytes32,bytes32,bytes32)": {
        "details": "Emitted when `newAdminRole` is set as ``role``'s admin role, replacing `previousAdminRole` `DEFAULT_ADMIN_ROLE` is the starting admin for all roles, despite {RoleAdminChanged} not being emitted signaling this. _Available since v3.1._"
      },
      "RoleGranted(bytes32,address,address)": {
        "details": "Emitted when `account` is granted `role`. `sender` is the account that originated the contract call, an admin role bearer except when using {AccessControl-_setupRole}."
      },
      "RoleRevoked(bytes32,address,address)": {
        "details": "Emitted when `account` is revoked `role`. `sender` is the account that originated the contract call:   - if using `revokeRole`, it is the admin role bearer   - if using `renounceRole`, it is the role bearer (i.e. `account`)"
      }
    },
    "kind": "dev",
    "methods": {
      "acceptOwnership()": {
        "details": "The new owner accepts the ownership transfer."
      },
      "boost1(string,string,uint8[],string,string,string[4],uint256,uint256,uint256,uint256,uint256,uint256)": {
        "details": "Only callable by owner. Adds liquidity via external router",
        "params": {
          "assetAmount": "Amount of asset tokens to add as liquidity",
          "assetAmountMin": "Minimum amount of asset tokens that must be added as liquidity",
          "cores": "Array of core values",
          "deadline": "Timestamp after which the transaction will revert",
          "desc": "Description of the token",
          "img": "Image URL for the token",
          "minLiquidity": "Minimum amount of liquidity tokens that must be minted",
          "name": "The name of the token",
          "ticker": "The ticker symbol of the token",
          "tokenAmount": "Amount of tokens to add as liquidity",
          "tokenAmountMin": "Minimum amount of tokens that must be added as liquidity",
          "urls": "Array of 4 URLs (twitter, telegram, farcaster, website)"
        }
      },
      "boost1For(address,string,string,uint8[],string,string,string[4],uint256,uint256,uint256,uint256,uint256,uint256)": {
        "details": "Only callable by owner. Adds liquidity via external router",
        "params": {
          "assetAmount": "Amount of asset tokens to add as liquidity",
          "assetAmountMin": "Minimum amount of asset tokens that must be added as liquidity",
          "cores": "Array of core values",
          "creator": "The creator of the token",
          "deadline": "Timestamp after which the transaction will revert",
          "desc": "Description of the token",
          "img": "Image URL for the token",
          "minLiquidity": "Minimum amount of liquidity tokens that must be minted",
          "name": "The name of the token",
          "ticker": "The ticker symbol of the token",
          "tokenAmount": "Amount of tokens to add as liquidity",
          "tokenAmountMin": "Minimum amount of tokens that must be added as liquidity",
          "urls": "Array of 4 URLs (twitter, telegram, farcaster, website)"
        }
      },
      "boost2(address,uint256,uint256,uint256,uint256,uint256,uint256)": {
        "details": "Only callable by booster. Adds liquidity via external router",
        "params": {
          "assetAmount": "Amount of asset tokens to add as liquidity",
          "assetAmountMin": "Minimum amount of asset tokens that must be added as liquidity",
          "deadline": "Timestamp after which the transaction will revert",
          "minLiquidity": "Minimum amount of liquidity tokens that must be minted",
          "token": "Address of token to boost",
          "tokenAmount": "Amount of tokens to add as liquidity",
          "tokenAmountMin": "Minimum amount of tokens that must be added as liquidity"
        }
      },
      "boost3(address,uint256,uint256,uint256,uint256,uint256,uint256)": {
        "details": "Only callable by owner. Adds liquidity via external router",
        "params": {
          "assetAmount": "Amount of asset tokens to add as liquidity",
          "assetAmountMin": "Minimum amount of asset tokens that must be added as liquidity",
          "deadline": "Timestamp after which the transaction will revert",
          "minLiquidity": "Minimum amount of liquidity tokens that must be minted",
          "token": "Address of token to boost",
          "tokenAmount": "Amount of tokens to add as liquidity",
          "tokenAmountMin": "Minimum amount of tokens that must be added as liquidity"
        }
      },
      "calculateMarketCap(address)": {
        "params": {
          "token": "The token address to calculate market cap for"
        },
        "returns": {
          "_0": "marketCap The calculated market cap in asset token value in 18 decimals"
        }
      },
      "constructor": {
        "custom:oz-upgrades-unsafe-allow": "constructor"
      },
      "delegateLPTo(address,address)": {
        "details": "Delegate LP token to the specified address.",
        "params": {
          "delegatee": "The address to delegate the LP token to.",
          "tokenAddr": "The address of the token to delegate its LP token."
        }
      },
      "delegateLPToBatch(address[],address[])": {
        "details": "Delegate LP token to the specified address for multiple tokens.",
        "params": {
          "delegatees": "The addresses to delegate the LP tokens to.",
          "tokens": "The addresses of the tokens to delegate their LP tokens."
        }
      },
      "getBoostCount()": {
        "returns": {
          "_0": "The length of boostInfos array"
        }
      },
      "getRoleAdmin(bytes32)": {
        "details": "Returns the admin role that controls `role`. See {grantRole} and {revokeRole}. To change a role's admin, use {_setRoleAdmin}."
      },
      "getTokenCount()": {
        "returns": {
          "_0": "The length of tokenInfos array"
        }
      },
      "grantRole(bytes32,address)": {
        "details": "Grants `role` to `account`. If `account` had not been already granted `role`, emits a {RoleGranted} event. Requirements: - the caller must have ``role``'s admin role. May emit a {RoleGranted} event."
      },
      "hasRole(bytes32,address)": {
        "details": "Returns `true` if `account` has been granted `role`."
      },
      "owner()": {
        "details": "Returns the address of the current owner."
      },
      "pendingOwner()": {
        "details": "Returns the address of the pending owner."
      },
      "renounceOwnership()": {
        "details": "Leaves the contract without owner. It will not be possible to call `onlyOwner` functions. Can only be called by the current owner. NOTE: Renouncing ownership will leave the contract without an owner, thereby disabling any functionality that is only available to the owner."
      },
      "renounceRole(bytes32,address)": {
        "details": "Revokes `role` from the calling account. Roles are often managed via {grantRole} and {revokeRole}: this function's purpose is to provide a mechanism for accounts to lose their privileges if they are compromised (such as when a trusted device is misplaced). If the calling account had been revoked `role`, emits a {RoleRevoked} event. Requirements: - the caller must be `account`. May emit a {RoleRevoked} event."
      },
      "revokeRole(bytes32,address)": {
        "details": "Revokes `role` from `account`. If `account` had been granted `role`, emits a {RoleRevoked} event. Requirements: - the caller must have ``role``'s admin role. May emit a {RoleRevoked} event."
      },
      "setAssetToken(address)": {
        "details": "Set the asset token address",
        "params": {
          "newAssetToken": "The new asset token address"
        }
      },
      "setBoostStageThreshold(uint8,uint256)": {
        "params": {
          "stage": "The boost stage number (1-3)",
          "threshold": "The threshold amount required for this stage"
        }
      },
      "setBoostStageThresholds(uint256[])": {
        "params": {
          "thresholds": "Array of threshold amounts for stages 1-3"
        }
      },
      "setExtRouter(address)": {
        "details": "Set the external router address",
        "params": {
          "newExtRouter": "The new external router address"
        }
      },
      "setFactory(address)": {
        "details": "Set the factory address",
        "params": {
          "newFactory": "The new factory address"
        }
      },
      "setFee(uint256,address)": {
        "details": "Set the fee and fee recipient",
        "params": {
          "newFee": "New fee amount",
          "newFeeTo": "New fee recipient"
        }
      },
      "setFeeType(uint256)": {
        "details": "Set the fee type of external AMM",
        "params": {
          "newFeeType": "The new asset token address"
        }
      },
      "setGradMarketCap(uint256)": {
        "details": "Set the graduation market cap threshold",
        "params": {
          "newMarketCap": "The new graduation market cap threshold"
        }
      },
      "setInitialMarketCap(uint256)": {
        "details": "Set the initial market cap threshold",
        "params": {
          "newMarketCap": "The new initial market cap threshold"
        }
      },
      "setInitialSupply(uint256)": {
        "details": "Set the initial supply for generating a new token",
        "params": {
          "newSupply": "New initial supply"
        }
      },
      "setLockFactory(address)": {
        "details": "Set the lock factory address",
        "params": {
          "newLockFactory": "The new lock factory address"
        }
      },
      "setLockedTime(uint256)": {
        "details": "Set the locked time for lp tokens that locked in the locker contract",
        "params": {
          "newLockedTime": "The new locked time"
        }
      },
      "setOracle(address)": {
        "details": "Set the oracle address",
        "params": {
          "newOracle": "The new oracle address"
        }
      },
      "setTokenFactory(address)": {
        "details": "Set the token factory address",
        "params": {
          "newTokenFactory": "The new token factory address"
        }
      },
      "supportsInterface(bytes4)": {
        "details": "See {IERC165-supportsInterface}."
      },
      "transferOwnership(address)": {
        "details": "Starts the ownership transfer of the contract to a new account. Replaces the pending transfer if there is one. Can only be called by the current owner."
      }
    },
    "version": 1
  },
  "userdoc": {
    "errors": {
      "ProfileNotExist()": [
        {
          "notice": "============================================ =                  ERRORS                  = ============================================"
        }
      ]
    },
    "events": {
      "Launched(address,address,uint256,uint8,uint256)": {
        "notice": "============================================ =                 EVENTS                   = ============================================"
      }
    },
    "kind": "user",
    "methods": {
      "boost1(string,string,uint8[],string,string,string[4],uint256,uint256,uint256,uint256,uint256,uint256)": {
        "notice": "Boost liquidity for a token by adding token and asset pairs"
      },
      "boost1For(address,string,string,uint8[],string,string,string[4],uint256,uint256,uint256,uint256,uint256,uint256)": {
        "notice": "Boost liquidity for a token by adding token and asset pairs"
      },
      "boost2(address,uint256,uint256,uint256,uint256,uint256,uint256)": {
        "notice": "Boost Stage 2 for a token by adding token and asset pairs"
      },
      "boost3(address,uint256,uint256,uint256,uint256,uint256,uint256)": {
        "notice": "Boost Stage 3 for a token by adding token and asset pairs"
      },
      "calculateMarketCap(address)": {
        "notice": "Calculate the market cap of a token using oracle price and liquidity reserves"
      },
      "delegateLPTo(address,address)": {
        "notice": "LP token should have been released in its locker contract."
      },
      "delegateLPToBatch(address[],address[])": {
        "notice": "LP token should have been released in its locker contract."
      },
      "getBoostCount()": {
        "notice": "Get the total number of boost created through bonding"
      },
      "getTokenCount()": {
        "notice": "Get the total number of tokens created through bonding"
      },
      "setAssetToken(address)": {
        "notice": "Owner should ensure the asset token address is correct"
      },
      "setBoostStageThreshold(uint8,uint256)": {
        "notice": "Set threshold for a boost stage"
      },
      "setBoostStageThresholds(uint256[])": {
        "notice": "Set thresholds for all boost stages in one transaction"
      },
      "setExtRouter(address)": {
        "notice": "Owner should ensure the external router address is correct"
      },
      "setFactory(address)": {
        "notice": "Owner should ensure the factory address is correct"
      },
      "setFeeType(uint256)": {
        "notice": "Owner should ensure the fee type is correct"
      },
      "setLockFactory(address)": {
        "notice": "Owner should ensure the lock factory address is correct"
      },
      "setTokenFactory(address)": {
        "notice": "Owner should ensure the token factory address is correct"
      }
    },
    "version": 1
  },
  "storageLayout": {
    "storage": [
      {
        "astId": 653,
        "contract": "src/Bonding.sol:Bonding",
        "label": "_initialized",
        "offset": 0,
        "slot": "0",
        "type": "t_uint8"
      },
      {
        "astId": 656,
        "contract": "src/Bonding.sol:Bonding",
        "label": "_initializing",
        "offset": 1,
        "slot": "0",
        "type": "t_bool"
      },
      {
        "astId": 829,
        "contract": "src/Bonding.sol:Bonding",
        "label": "_status",
        "offset": 0,
        "slot": "1",
        "type": "t_uint256"
      },
      {
        "astId": 898,
        "contract": "src/Bonding.sol:Bonding",
        "label": "__gap",
        "offset": 0,
        "slot": "2",
        "type": "t_array(t_uint256)49_storage"
      },
      {
        "astId": 1270,
        "contract": "src/Bonding.sol:Bonding",
        "label": "__gap",
        "offset": 0,
        "slot": "51",
        "type": "t_array(t_uint256)50_storage"
      },
      {
        "astId": 525,
        "contract": "src/Bonding.sol:Bonding",
        "label": "_owner",
        "offset": 0,
        "slot": "101",
        "type": "t_address"
      },
      {
        "astId": 645,
        "contract": "src/Bonding.sol:Bonding",
        "label": "__gap",
        "offset": 0,
        "slot": "102",
        "type": "t_array(t_uint256)49_storage"
      },
      {
        "astId": 434,
        "contract": "src/Bonding.sol:Bonding",
        "label": "_pendingOwner",
        "offset": 0,
        "slot": "151",
        "type": "t_address"
      },
      {
        "astId": 513,
        "contract": "src/Bonding.sol:Bonding",
        "label": "__gap",
        "offset": 0,
        "slot": "152",
        "type": "t_array(t_uint256)49_storage"
      },
      {
        "astId": 1543,
        "contract": "src/Bonding.sol:Bonding",
        "label": "__gap",
        "offset": 0,
        "slot": "201",
        "type": "t_array(t_uint256)50_storage"
      },
      {
        "astId": 39,
        "contract": "src/Bonding.sol:Bonding",
        "label": "_roles",
        "offset": 0,
        "slot": "251",
        "type": "t_mapping(t_bytes32,t_struct(RoleData)34_storage)"
      },
      {
        "astId": 334,
        "contract": "src/Bonding.sol:Bonding",
        "label": "__gap",
        "offset": 0,
        "slot": "252",
        "type": "t_array(t_uint256)49_storage"
      },
      {
        "astId": 6801,
        "contract": "src/Bonding.sol:Bonding",
        "label": "feeTo",
        "offset": 0,
        "slot": "301",
        "type": "t_address"
      },
      {
        "astId": 6804,
        "contract": "src/Bonding.sol:Bonding",
        "label": "factory",
        "offset": 0,
        "slot": "302",
        "type": "t_contract(INTFactory)10151"
      },
      {
        "astId": 6807,
        "contract": "src/Bonding.sol:Bonding",
        "label": "tokenFactory",
        "offset": 0,
        "slot": "303",
        "type": "t_contract(INTERC20Factory)9753"
      },
      {
        "astId": 6810,
        "contract": "src/Bonding.sol:Bonding",
        "label": "lockFactory",
        "offset": 0,
        "slot": "304",
        "type": "t_contract(LockFactory)10912"
      },
      {
        "astId": 6812,
        "contract": "src/Bonding.sol:Bonding",
        "label": "initialSupply",
        "offset": 0,
        "slot": "305",
        "type": "t_uint256"
      },
      {
        "astId": 6814,
        "contract": "src/Bonding.sol:Bonding",
        "label": "fee",
        "offset": 0,
        "slot": "306",
        "type": "t_uint256"
      },
      {
        "astId": 6817,
        "contract": "src/Bonding.sol:Bonding",
        "label": "extRouter",
        "offset": 0,
        "slot": "307",
        "type": "t_contract(IExtRouter)11252"
      },
      {
        "astId": 6819,
        "contract": "src/Bonding.sol:Bonding",
        "label": "assetToken",
        "offset": 0,
        "slot": "308",
        "type": "t_address"
      },
      {
        "astId": 6855,
        "contract": "src/Bonding.sol:Bonding",
        "label": "tokenInfo",
        "offset": 0,
        "slot": "309",
        "type": "t_mapping(t_address,t_struct(Token)6850_storage)"
      },
      {
        "astId": 6858,
        "contract": "src/Bonding.sol:Bonding",
        "label": "tokenInfos",
        "offset": 0,
        "slot": "310",
        "type": "t_array(t_address)dyn_storage"
      },
      {
        "astId": 6866,
        "contract": "src/Bonding.sol:Bonding",
        "label": "boostInfo",
        "offset": 0,
        "slot": "311",
        "type": "t_mapping(t_address,t_struct(BoostInfo)6861_storage)"
      },
      {
        "astId": 6869,
        "contract": "src/Bonding.sol:Bonding",
        "label": "boostInfos",
        "offset": 0,
        "slot": "312",
        "type": "t_array(t_address)dyn_storage"
      },
      {
        "astId": 6878,
        "contract": "src/Bonding.sol:Bonding",
        "label": "boostStageThresholds",
        "offset": 0,
        "slot": "313",
        "type": "t_mapping(t_uint8,t_uint256)"
      },
      {
        "astId": 6880,
        "contract": "src/Bonding.sol:Bonding",
        "label": "lockedTime",
        "offset": 0,
        "slot": "314",
        "type": "t_uint256"
      },
      {
        "astId": 6883,
        "contract": "src/Bonding.sol:Bonding",
        "label": "oracle",
        "offset": 0,
        "slot": "315",
        "type": "t_contract(IOracle)11379"
      },
      {
        "astId": 6885,
        "contract": "src/Bonding.sol:Bonding",
        "label": "initialMarketCap",
        "offset": 0,
        "slot": "316",
        "type": "t_uint256"
      },
      {
        "astId": 6887,
        "contract": "src/Bonding.sol:Bonding",
        "label": "gradMarketCap",
        "offset": 0,
        "slot": "317",
        "type": "t_uint256"
      },
      {
        "astId": 6889,
        "contract": "src/Bonding.sol:Bonding",
        "label": "feeType",
        "offset": 0,
        "slot": "318",
        "type": "t_uint256"
      }
    ],
    "types": {
      "t_address": {
        "encoding": "inplace",
        "label": "address",
        "numberOfBytes": "20"
      },
      "t_array(t_address)dyn_storage": {
        "base": "t_address",
        "encoding": "dynamic_array",
        "label": "address[]",
        "numberOfBytes": "32"
      },
      "t_array(t_uint256)49_storage": {
        "base": "t_uint256",
        "encoding": "inplace",
        "label": "uint256[49]",
        "numberOfBytes": "1568"
      },
      "t_array(t_uint256)50_storage": {
        "base": "t_uint256",
        "encoding": "inplace",
        "label": "uint256[50]",
        "numberOfBytes": "1600"
      },
      "t_array(t_uint8)dyn_storage": {
        "base": "t_uint8",
        "encoding": "dynamic_array",
        "label": "uint8[]",
        "numberOfBytes": "32"
      },
      "t_bool": {
        "encoding": "inplace",
        "label": "bool",
        "numberOfBytes": "1"
      },
      "t_bytes32": {
        "encoding": "inplace",
        "label": "bytes32",
        "numberOfBytes": "32"
      },
      "t_contract(IExtRouter)11252": {
        "encoding": "inplace",
        "label": "contract IExtRouter",
        "numberOfBytes": "20"
      },
      "t_contract(INTERC20Factory)9753": {
        "encoding": "inplace",
        "label": "contract INTERC20Factory",
        "numberOfBytes": "20"
      },
      "t_contract(INTFactory)10151": {
        "encoding": "inplace",
        "label": "contract INTFactory",
        "numberOfBytes": "20"
      },
      "t_contract(IOracle)11379": {
        "encoding": "inplace",
        "label": "contract IOracle",
        "numberOfBytes": "20"
      },
      "t_contract(LockFactory)10912": {
        "encoding": "inplace",
        "label": "contract LockFactory",
        "numberOfBytes": "20"
      },
      "t_enum(TokenStatus)6823": {
        "encoding": "inplace",
        "label": "enum Bonding.TokenStatus",
        "numberOfBytes": "1"
      },
      "t_mapping(t_address,t_bool)": {
        "encoding": "mapping",
        "key": "t_address",
        "label": "mapping(address => bool)",
        "numberOfBytes": "32",
        "value": "t_bool"
      },
      "t_mapping(t_address,t_struct(BoostInfo)6861_storage)": {
        "encoding": "mapping",
        "key": "t_address",
        "label": "mapping(address => struct Bonding.BoostInfo)",
        "numberOfBytes": "32",
        "value": "t_struct(BoostInfo)6861_storage"
      },
      "t_mapping(t_address,t_struct(Token)6850_storage)": {
        "encoding": "mapping",
        "key": "t_address",
        "label": "mapping(address => struct Bonding.Token)",
        "numberOfBytes": "32",
        "value": "t_struct(Token)6850_storage"
      },
      "t_mapping(t_bytes32,t_struct(RoleData)34_storage)": {
        "encoding": "mapping",
        "key": "t_bytes32",
        "label": "mapping(bytes32 => struct AccessControlUpgradeable.RoleData)",
        "numberOfBytes": "32",
        "value": "t_struct(RoleData)34_storage"
      },
      "t_mapping(t_uint8,t_uint256)": {
        "encoding": "mapping",
        "key": "t_uint8",
        "label": "mapping(uint8 => uint256)",
        "numberOfBytes": "32",
        "value": "t_uint256"
      },
      "t_string_storage": {
        "encoding": "bytes",
        "label": "string",
        "numberOfBytes": "32"
      },
      "t_struct(BoostInfo)6861_storage": {
        "encoding": "inplace",
        "label": "struct Bonding.BoostInfo",
        "members": [
          {
            "astId": 6860,
            "contract": "src/Bonding.sol:Bonding",
            "label": "stage",
            "offset": 0,
            "slot": "0",
            "type": "t_uint8"
          }
        ],
        "numberOfBytes": "32"
      },
      "t_struct(RoleData)34_storage": {
        "encoding": "inplace",
        "label": "struct AccessControlUpgradeable.RoleData",
        "members": [
          {
            "astId": 31,
            "contract": "src/Bonding.sol:Bonding",
            "label": "members",
            "offset": 0,
            "slot": "0",
            "type": "t_mapping(t_address,t_bool)"
          },
          {
            "astId": 33,
            "contract": "src/Bonding.sol:Bonding",
            "label": "adminRole",
            "offset": 0,
            "slot": "1",
            "type": "t_bytes32"
          }
        ],
        "numberOfBytes": "64"
      },
      "t_struct(Token)6850_storage": {
        "encoding": "inplace",
        "label": "struct Bonding.Token",
        "members": [
          {
            "astId": 6825,
            "contract": "src/Bonding.sol:Bonding",
            "label": "creator",
            "offset": 0,
            "slot": "0",
            "type": "t_address"
          },
          {
            "astId": 6827,
            "contract": "src/Bonding.sol:Bonding",
            "label": "token",
            "offset": 0,
            "slot": "1",
            "type": "t_address"
          },
          {
            "astId": 6829,
            "contract": "src/Bonding.sol:Bonding",
            "label": "pair",
            "offset": 0,
            "slot": "2",
            "type": "t_address"
          },
          {
            "astId": 6831,
            "contract": "src/Bonding.sol:Bonding",
            "label": "locker",
            "offset": 0,
            "slot": "3",
            "type": "t_address"
          },
          {
            "astId": 6833,
            "contract": "src/Bonding.sol:Bonding",
            "label": "description",
            "offset": 0,
            "slot": "4",
            "type": "t_string_storage"
          },
          {
            "astId": 6836,
            "contract": "src/Bonding.sol:Bonding",
            "label": "cores",
            "offset": 0,
            "slot": "5",
            "type": "t_array(t_uint8)dyn_storage"
          },
          {
            "astId": 6838,
            "contract": "src/Bonding.sol:Bonding",
            "label": "image",
            "offset": 0,
            "slot": "6",
            "type": "t_string_storage"
          },
          {
            "astId": 6840,
            "contract": "src/Bonding.sol:Bonding",
            "label": "twitter",
            "offset": 0,
            "slot": "7",
            "type": "t_string_storage"
          },
          {
            "astId": 6842,
            "contract": "src/Bonding.sol:Bonding",
            "label": "telegram",
            "offset": 0,
            "slot": "8",
            "type": "t_string_storage"
          },
          {
            "astId": 6844,
            "contract": "src/Bonding.sol:Bonding",
            "label": "farcaster",
            "offset": 0,
            "slot": "9",
            "type": "t_string_storage"
          },
          {
            "astId": 6846,
            "contract": "src/Bonding.sol:Bonding",
            "label": "website",
            "offset": 0,
            "slot": "10",
            "type": "t_string_storage"
          },
          {
            "astId": 6849,
            "contract": "src/Bonding.sol:Bonding",
            "label": "status",
            "offset": 0,
            "slot": "11",
            "type": "t_enum(TokenStatus)6823"
          }
        ],
        "numberOfBytes": "384"
      },
      "t_uint256": {
        "encoding": "inplace",
        "label": "uint256",
        "numberOfBytes": "32"
      },
      "t_uint8": {
        "encoding": "inplace",
        "label": "uint8",
        "numberOfBytes": "1"
      }
    }
  }
}