{
  "address": "0xF4D2b646b0A945bc0c176C31f48964c5BCd4F05b",
  "abi": [
    {
      "inputs": [
        {
          "internalType": "address",
          "name": "_token",
          "type": "address"
        },
        {
          "internalType": "address",
          "name": "_assetToken",
          "type": "address"
        },
        {
          "internalType": "address",
          "name": "_bonding",
          "type": "address"
        },
        {
          "internalType": "uint256",
          "name": "_lockedTime",
          "type": "uint256"
        }
      ],
      "name": "createLock",
      "outputs": [
        {
          "internalType": "address",
          "name": "lock",
          "type": "address"
        }
      ],
      "stateMutability": "nonpayable",
      "type": "function"
    }
  ],
  "transactionHash": "0xeb10b38847070668d953cab4d90d2259d3bbf68c28a320fe5219cc12aee8359e",
  "args": [],
  "numDeployments": 1,
  "solcInputHash": "da7207b8f03934487eb0150a4b6761cb",
  "bytecode": "0x6080806040523461001657611049908161001b8239f35b5f80fdfe6080806040526004361015610012575f80fd5b5f90813560e01c6312729cc214610027575f80fd5b346100ea5760803660031901126100ea576001600160a01b0390600435828116908190036100e6576024358381168091036100e257604435908482168092036100de57610f25928385019385851067ffffffffffffffff8611176100ca5791859391608095936100ef8639835260208301526040820152606435606082015203019083f09081156100bf576020925060405191168152f35b6040513d84823e3d90fd5b634e487b7160e01b88526041600452602488fd5b8580fd5b8480fd5b8380fd5b5080fdfe6101003461010057601f610f2538819003918201601f19168301916001600160401b03831184841017610104578084926080946040528339810103126101005761004881610118565b9061005560208201610118565b606061006360408401610118565b9201519260a05260c05260e052608052604051610df8908161012d823960805181818161044201526105e4015260a0518181816101110152818161023001526107e0015260c051818181601f015281816102cd01528181610515015281816108d6015261096b015260e0518181816101bb0152818161025c0152818161047a01528181610570015281816106490152818161073901526108090152f35b5f80fd5b634e487b7160e01b5f52604160045260245ffd5b51906001600160a01b03821682036101005756fe608060408181526004918236101561005b575b50361561001d575f80fd5b7f00000000000000000000000000000000000000000000000000000000000000006001600160a01b0316330361004f57005b516282b42960e81b8152fd5b5f90813560e01c9081631083f761146109575750806321e84774146107b85780632f34d28214610713578063313c06a0146106ea57806337e6122a1461062357806340519a531461054e578063423c485a146104c65780636334a067146104a95780639845755914610465578063a8b382051461042a578063bb13cae514610208578063da3e339714610186578063e6adb749146101445763fc0c546a03610012579034610140578160031936011261014057517f00000000000000000000000000000000000000000000000000000000000000006001600160a01b03168152602090f35b5080fd5b509034610140576020366003190112610140579081906001600160a01b0361016a61099a565b1681526002602052206001815491015482519182526020820152f35b509034610140576060366003190112610140576101a161099a565b90602435906001600160a01b0390818316830361020457817f00000000000000000000000000000000000000000000000000000000000000001633036101f557506101f29394506044359216610c82565b80f35b5163e1b90b8760e01b81528590fd5b5f80fd5b509034610140578160031936011261014057805163fa1653bd60e01b81526001600160a01b037f000000000000000000000000000000000000000000000000000000000000000081168583018190526020927f0000000000000000000000000000000000000000000000000000000000000000831691908481602481865afa9081156104205787916103f3575b50156103e3578390602486518094819363c78418b960e01b83528b8301525afa9081156103d95785916103ac575b50845493858055827f000000000000000000000000000000000000000000000000000000000000000016803b156103a857868660248a8386519586948593632e1a7d4d60e01b85528401525af1801561039e57610370575b508580808088865af161032c610b71565b5015610361577fefb5cc9cd012f169d98024b62e929a9c2e25635b461ac3f684ff6158d2a1788794959650519485521692a280f35b5163b12d13eb60e01b81528690fd5b67ffffffffffffffff819792971161038b578652945f61031b565b634e487b7160e01b825260418852602482fd5b82513d89823e3d90fd5b8680fd5b6103cc9150833d85116103d2575b6103c481836109d1565b810190610da3565b5f6102c3565b503d6103ba565b84513d87823e3d90fd5b84516321554f7360e11b81528790fd5b6104139150853d8711610419575b61040b81836109d1565b810190610a62565b5f610295565b503d610401565b86513d89823e3d90fd5b509034610140578160031936011261014057602090517f00000000000000000000000000000000000000000000000000000000000000008152f35b509034610140578160031936011261014057517f00000000000000000000000000000000000000000000000000000000000000006001600160a01b03168152602090f35b509034610140578160031936011261014057602091549051908152f35b50913461054a57602036600319011261054a577f12197207b0a54de931fdf21dc8066c293dc29b9dd4875c6b64a36c6a36ff904091602091359061050b8286546109b0565b85556105428230337f00000000000000000000000000000000000000000000000000000000000000006001600160a01b0316610a07565b51908152a180f35b8280fd5b5091903461054a57602036600319011261054a578135916001600160a01b03907f000000000000000000000000000000000000000000000000000000000000000082163303610615575091602091610542827f2ba3ba3a9d6f7b2fc7c20e57ea65650f43fc6c3c29979a9e4413e80b5061c3679560015416808852600286528388206105db8382546109b0565b815560016106097f0000000000000000000000000000000000000000000000000000000000000000426109b0565b91015530903390610a07565b825163e1b90b8760e01b8152fd5b50913461054a57602036600319011261054a5761063e61099a565b6001600160a01b03907f0000000000000000000000000000000000000000000000000000000000000000821633036106da57816001541692838652600260205284862090600182015442106106cc575091602091836106c07f92b7540d4b36a3c993d2a8d3ec8a1fcb927cd686e85f19db44911e4959d51c1195548388610c82565b5495519586521693a380f35b85516309316dab60e41b8152fd5b835163e1b90b8760e01b81528390fd5b50903461014057816003193601126101405760015490516001600160a01b039091168152602090f35b50913461054a57602036600319011261054a5761072e61099a565b6001600160a01b03917f0000000000000000000000000000000000000000000000000000000000000000831633036107aa5750916020917f722f2571a13f56fad6fa923289bcb1dd6d7d57c8ccb2bdf278bb565771a2a747931690816bffffffffffffffffffffffff60a01b600154161760015551908152a180f35b835163e1b90b8760e01b8152fd5b50913461054a578260031936011261054a57815163fa1653bd60e01b81526001600160a01b037f000000000000000000000000000000000000000000000000000000000000000081168383018190527f00000000000000000000000000000000000000000000000000000000000000008216936020938481602481895afa90811561094d578891610930575b50156109225790602484928751968793849263c78418b960e01b84528301525afa80156103d9577fefb5cc9cd012f169d98024b62e929a9c2e25635b461ac3f684ff6158d2a17887938691610905575b508554868055855163a9059cbb60e01b858201526001600160a01b0383166024820152604480820183905281529095906108fb906108d36064826109d1565b847f000000000000000000000000000000000000000000000000000000000000000016610a7a565b519485521692a280f35b61091c9150833d85116103d2576103c481836109d1565b5f610894565b85516321554f7360e11b8152fd5b6109479150853d87116104195761040b81836109d1565b5f610844565b87513d8a823e3d90fd5b9050346101405781600319360112610140577f00000000000000000000000000000000000000000000000000000000000000006001600160a01b03168152602090f35b600435906001600160a01b038216820361020457565b919082018092116109bd57565b634e487b7160e01b5f52601160045260245ffd5b90601f8019910116810190811067ffffffffffffffff8211176109f357604052565b634e487b7160e01b5f52604160045260245ffd5b6040516323b872dd60e01b60208201526001600160a01b03928316602482015292909116604483015260648083019390935291815260a081019181831067ffffffffffffffff8411176109f357610a6092604052610a7a565b565b90816020910312610204575180151581036102045790565b60408051908101916001600160a01b031667ffffffffffffffff8311828410176109f357610ae9926040525f806020958685527f5361666545524332303a206c6f772d6c6576656c2063616c6c206661696c656487860152868151910182855af1610ae3610b71565b91610bb0565b805190828215928315610b59575b50505015610b025750565b6084906040519062461bcd60e51b82526004820152602a60248201527f5361666545524332303a204552433230206f7065726174696f6e20646964206e6044820152691bdd081cdd58d8d9595960b21b6064820152fd5b610b699350820181019101610a62565b5f8281610af7565b3d15610bab573d9067ffffffffffffffff82116109f35760405191610ba0601f8201601f1916602001846109d1565b82523d5f602084013e565b606090565b91929015610c125750815115610bc4575090565b3b15610bcd5790565b60405162461bcd60e51b815260206004820152601d60248201527f416464726573733a2063616c6c20746f206e6f6e2d636f6e74726163740000006044820152606490fd5b825190915015610c255750805190602001fd5b6040519062461bcd60e51b82528160208060048301528251908160248401525f935b828510610c69575050604492505f838284010152601f80199101168101030190fd5b8481018201518686016044015293810193859350610c47565b60405163095ea7b360e01b602082018181526001600160a01b038516602484015260448084019690965294825294939092610cbe6064856109d1565b83515f926001600160a01b039291858416918591829182855af190610ce1610b71565b82610d71575b5081610d66575b5015610cfe575b50505050509050565b60405196602088015216602486015280604486015260448552608085019085821067ffffffffffffffff831117610d525750610d479394610d429160405282610a7a565b610a7a565b805f80808080610cf5565b634e487b7160e01b81526041600452602490fd5b90503b15155f610cee565b80519192508115918215610d89575b5050905f610ce7565b610d9c9250602080918301019101610a62565b5f80610d80565b9081602091031261020457516001600160a01b0381168103610204579056fea2646970667358221220177445bc0e2475d001c9e0c1b886ef34088dca5bc5e801ede8a1066fec8bc16264736f6c63430008140033a2646970667358221220713558c5c5a5c16c865497213934003852058c21f84a05410bdacd52092205ac64736f6c63430008140033",
  "libraries": {},
  "devdoc": {
    "kind": "dev",
    "methods": {
      "createLock(address,address,address,uint256)": {
        "params": {
          "_assetToken": "Asset token address",
          "_bonding": "Bonding address",
          "_lockedTime": "The time to lock the lp token",
          "_token": "Token address"
        }
      }
    },
    "version": 1
  },
  "userdoc": {
    "kind": "user",
    "methods": {
      "createLock(address,address,address,uint256)": {
        "notice": "Creates a new ETH Lock for token"
      }
    },
    "version": 1
  },
  "storageLayout": {
    "storage": [],
    "types": null
  }
}