{
  "address": "0xB112c9FD936C07a502999378eCDb5A983d2ce7Ec",
  "abi": [
    {
      "inputs": [
        {
          "internalType": "address",
          "name": "_asset",
          "type": "address"
        },
        {
          "internalType": "address",
          "name": "_pair",
          "type": "address"
        }
      ],
      "stateMutability": "nonpayable",
      "type": "constructor"
    },
    {
      "anonymous": false,
      "inputs": [
        {
          "indexed": true,
          "internalType": "uint256",
          "name": "twapId",
          "type": "uint256"
        },
        {
          "indexed": false,
          "internalType": "uint256",
          "name": "timestamp",
          "type": "uint256"
        },
        {
          "indexed": false,
          "internalType": "uint256",
          "name": "priceCumulative",
          "type": "uint256"
        }
      ],
      "name": "AssetTwapUpdated",
      "type": "event"
    },
    {
      "inputs": [],
      "name": "asset",
      "outputs": [
        {
          "internalType": "address",
          "name": "",
          "type": "address"
        }
      ],
      "stateMutability": "view",
      "type": "function"
    },
    {
      "inputs": [
        {
          "internalType": "address",
          "name": "_asset",
          "type": "address"
        }
      ],
      "name": "getUnderlyingPrice",
      "outputs": [
        {
          "internalType": "uint256",
          "name": "price",
          "type": "uint256"
        }
      ],
      "stateMutability": "nonpayable",
      "type": "function"
    },
    {
      "inputs": [],
      "name": "isToken0",
      "outputs": [
        {
          "internalType": "bool",
          "name": "",
          "type": "bool"
        }
      ],
      "stateMutability": "view",
      "type": "function"
    },
    {
      "inputs": [],
      "name": "pair",
      "outputs": [
        {
          "internalType": "address",
          "name": "",
          "type": "address"
        }
      ],
      "stateMutability": "view",
      "type": "function"
    },
    {
      "inputs": [],
      "name": "pairToken",
      "outputs": [
        {
          "internalType": "address",
          "name": "",
          "type": "address"
        }
      ],
      "stateMutability": "view",
      "type": "function"
    },
    {
      "inputs": [],
      "name": "periodSize",
      "outputs": [
        {
          "internalType": "uint256",
          "name": "",
          "type": "uint256"
        }
      ],
      "stateMutability": "view",
      "type": "function"
    },
    {
      "inputs": [],
      "name": "priceFactor",
      "outputs": [
        {
          "internalType": "uint256",
          "name": "",
          "type": "uint256"
        }
      ],
      "stateMutability": "view",
      "type": "function"
    },
    {
      "inputs": [
        {
          "internalType": "uint256",
          "name": "",
          "type": "uint256"
        }
      ],
      "name": "twap",
      "outputs": [
        {
          "internalType": "uint256",
          "name": "timestamp",
          "type": "uint256"
        },
        {
          "internalType": "uint256",
          "name": "priceCumulative",
          "type": "uint256"
        }
      ],
      "stateMutability": "view",
      "type": "function"
    },
    {
      "inputs": [],
      "name": "twapLength",
      "outputs": [
        {
          "internalType": "uint256",
          "name": "",
          "type": "uint256"
        }
      ],
      "stateMutability": "view",
      "type": "function"
    }
  ],
  "transactionHash": "0x41e5cfd544c1ab8334b0e59eb0a10b3838d79163ef1770c6b8b89ec5cec50804",
  "args": [
    "0x5019Fe1867d8cCfd76d8D5Abd85dB5EFCe548fbA",
    "0xa77118183EF8e85749D9FDb2b92504f2B8e54f01"
  ],
  "numDeployments": 1,
  "solcInputHash": "7014596ee95382ae9f5ebee78a4ba426",
  "bytecode": "0x6101006040523480156200001257600080fd5b506040516200149338038062001493833981810160405260408110156200003857600080fd5b50805160209182015160408051630dfe168160e01b81529051929391926000926001600160a01b03851692630dfe16819260048083019392829003018186803b1580156200008557600080fd5b505afa1580156200009a573d6000803e3d6000fd5b505050506040513d6020811015620000b157600080fd5b50516040805163d21220a760e01b815290519192506000916001600160a01b0385169163d21220a7916004808301926020929190829003018186803b158015620000fa57600080fd5b505afa1580156200010f573d6000803e3d6000fd5b505050506040513d60208110156200012657600080fd5b505190506001600160a01b03828116908516146000816200014857836200014a565b825b905081806200016a5750856001600160a01b0316836001600160a01b0316145b620001bc576040805162461bcd60e51b815260206004820152601860248201527f6173736574206973206e6f7420696e2074686520706169720000000000000000604482015290519081900360640190fd5b606086811b6001600160601b03199081166080526000805460ff60a01b1916600160a01b86151502176001600160a01b0319166001600160a01b03898116919091179091559183901b1660a0526201518060c0526040805163313ce56760e01b81529051620002949284169163313ce567916004808301926020929190829003018186803b1580156200024e57600080fd5b505afa15801562000263573d6000803e3d6000fd5b505050506040513d60208110156200027a57600080fd5b505160249060ff16620002b9602090811b620006b517901c565b600a0a60e052620002ad6001600160e01b036200031816565b50505050505062000928565b8082038281111562000312576040805162461bcd60e51b815260206004820152601560248201527f64732d6d6174682d7375622d756e646572666c6f770000000000000000000000604482015290519081900360640190fd5b92915050565b600080620003456000809054906101000a90046001600160a01b03166200038460201b620003821760201c565b50600060018190555491935091506200038090600160a01b900460ff166200036e578162000370565b825b426001600160e01b03620005ab16565b5050565b600080806200039b6001600160e01b036200061116565b9050836001600160a01b0316635909c0d56040518163ffffffff1660e01b815260040160206040518083038186803b158015620003d757600080fd5b505afa158015620003ec573d6000803e3d6000fd5b505050506040513d60208110156200040357600080fd5b505160408051635a3d549360e01b815290519194506001600160a01b03861691635a3d549391600480820192602092909190829003018186803b1580156200044a57600080fd5b505afa1580156200045f573d6000803e3d6000fd5b505050506040513d60208110156200047657600080fd5b505160408051630240bc6b60e21b81529051919350600091829182916001600160a01b03891691630902f1ac916004808301926060929190829003018186803b158015620004c357600080fd5b505afa158015620004d8573d6000803e3d6000fd5b505050506040513d6060811015620004ef57600080fd5b5080516020820151604090920151909450909250905063ffffffff80821690851614620005a157600081850390508063ffffffff166200054d846001600160701b0316866001600160701b03166200061b60201b620007b01760201c565b600001516001600160e01b031602870196508063ffffffff166200058f856001600160701b0316856001600160701b03166200061b60201b620007b01760201c565b516001600160e01b0316029590950194505b5050509193909250565b6001805480820182556000818152600260209081526040918290209384018690559284905580518481529283018590528051919283927f18b99ff67a0832ef498d0a422145f8de1257fbdf0a3da79d9cd0550c6388b7ec929181900390910190a2505050565b63ffffffff421690565b6200062562000916565b60008211620006665760405162461bcd60e51b81526004018080602001828103825260268152602001806200146d6026913960400191505060405180910390fd5b8262000682575060408051602081019091526000815262000312565b6001600160901b0383116200072257600082607085901b81620006a157fe5b0490506001600160e01b0381111562000701576040805162461bcd60e51b815260206004820152601e60248201527f4669786564506f696e743a3a6672616374696f6e3a206f766572666c6f770000604482015290519081900360640190fd5b6040518060200160405280826001600160e01b031681525091505062000312565b60006200074084600160701b856200079f60201b6200091c1760201c565b90506001600160e01b0381111562000701576040805162461bcd60e51b815260206004820152601e60248201527f4669786564506f696e743a3a6672616374696f6e3a206f766572666c6f770000604482015290519081900360640190fd5b60008080620007b886866001600160e01b036200087516565b9150915060008480620007c757fe5b868809905082811115620007dc576001820391505b918290039181620007fd57848381620007f157fe5b0493505050506200086e565b84821062000852576040805162461bcd60e51b815260206004820152601a60248201527f46756c6c4d6174683a2046554c4c4449565f4f564552464c4f57000000000000604482015290519081900360640190fd5b620008688383876001600160e01b03620008a316565b93505050505b9392505050565b60008080600019848609905083850292508281039150828110156200089b576001820391505b509250929050565b60008181038216808381620008b457fe5b049250808581620008c157fe5b049450808160000381620008d157fe5b60028581038087028203028087028203028087028203028087028203028087028203028087028203029586029003909402930460010193909302939093010292915050565b60408051602081019091526000815290565b60805160601c60a05160601c60c05160e051610af562000978600039806101f6528061034252508061021a52806105b352806105e652508061019a52508061017652806102405250610af56000f3fe608060405234801561001057600080fd5b50600436106100935760003560e01c8063a8aa1b3111610066578063a8aa1b3114610114578063dcf93f321461011c578063dfb2866d14610138578063e4463eb214610140578063fc57d4df1461014857610093565b806314691ff61461009857806338d52e0f146100b25780633de35b79146100d65780636c1b80e3146100de575b600080fd5b6100a061016e565b60408051918252519081900360200190f35b6100ba610174565b604080516001600160a01b039092168252519081900360200190f35b6100ba610198565b6100fb600480360360208110156100f457600080fd5b50356101bc565b6040805192835260208301919091528051918290030190f35b6100ba6101d5565b6101246101e4565b604080519115158252519081900360200190f35b6100a06101f4565b6100a0610218565b6100a06004803603602081101561015e57600080fd5b50356001600160a01b031661023c565b60015481565b7f000000000000000000000000000000000000000000000000000000000000000081565b7f000000000000000000000000000000000000000000000000000000000000000081565b6002602052600090815260409020805460019091015482565b6000546001600160a01b031681565b600054600160a01b900460ff1681565b7f000000000000000000000000000000000000000000000000000000000000000081565b7f000000000000000000000000000000000000000000000000000000000000000081565b60007f00000000000000000000000000000000000000000000000000000000000000006001600160a01b0316826001600160a01b0316141561028357610280610288565b90505b919050565b60008054819081906102a2906001600160a01b0316610382565b509150915060008060149054906101000a900460ff166102c257816102c4565b825b905042600080806102d484610571565b92509250925080156102ea576102ea858561064f565b816102ff57600097505050505050505061037f565b610307610a74565b60408051602081019091528084610324898863ffffffff6106b516565b8161032b57fe5b046001600160e01b03169052905061036b610366827f000000000000000000000000000000000000000000000000000000000000000061070b565b61079f565b6001600160901b0316985050505050505050505b90565b600080600061038f6107a6565b9050836001600160a01b0316635909c0d56040518163ffffffff1660e01b815260040160206040518083038186803b1580156103ca57600080fd5b505afa1580156103de573d6000803e3d6000fd5b505050506040513d60208110156103f457600080fd5b505160408051635a3d549360e01b815290519194506001600160a01b03861691635a3d549391600480820192602092909190829003018186803b15801561043a57600080fd5b505afa15801561044e573d6000803e3d6000fd5b505050506040513d602081101561046457600080fd5b505160408051630240bc6b60e21b81529051919350600091829182916001600160a01b03891691630902f1ac916004808301926060929190829003018186803b1580156104b057600080fd5b505afa1580156104c4573d6000803e3d6000fd5b505050506040513d60608110156104da57600080fd5b5080516020820151604090920151909450909250905063ffffffff808216908516146105675780840363ffffffff81166105206001600160701b038086169087166107b0565b600001516001600160e01b031602870196508063ffffffff16610555856001600160701b0316856001600160701b03166107b0565b516001600160e01b0316029590950194505b5050509193909250565b60008060008061058c600180546106b590919063ffffffff16565b6000818152600260205260409020549091506105af90869063ffffffff6106b516565b92507f00000000000000000000000000000000000000000000000000000000000000008310159150600081118015610609575060027f00000000000000000000000000000000000000000000000000000000000000000483105b15610635576000190160008181526002602052604090205461063290869063ffffffff6106b516565b92505b600090815260026020526040902060010154949193509150565b6001805480820182556000818152600260209081526040918290209384018690559284905580518481529283018590528051919283927f18b99ff67a0832ef498d0a422145f8de1257fbdf0a3da79d9cd0550c6388b7ec929181900390910190a2505050565b80820382811115610705576040805162461bcd60e51b815260206004820152601560248201527464732d6d6174682d7375622d756e646572666c6f7760581b604482015290519081900360640190fd5b92915050565b610713610a86565b600082158061073957505082516001600160e01b03168281029083828161073657fe5b04145b61078a576040805162461bcd60e51b815260206004820152601960248201527f4669786564506f696e743a3a6d756c3a206f766572666c6f7700000000000000604482015290519081900360640190fd5b60408051602081019091529081529392505050565b5160701c90565b63ffffffff421690565b6107b8610a74565b600082116107f75760405162461bcd60e51b8152600401808060200182810382526026815260200180610a9a6026913960400191505060405180910390fd5b826108115750604080516020810190915260008152610705565b6001600160901b0383116108ad57600082607085901b8161082e57fe5b0490506001600160e01b0381111561088d576040805162461bcd60e51b815260206004820152601e60248201527f4669786564506f696e743a3a6672616374696f6e3a206f766572666c6f770000604482015290519081900360640190fd5b6040518060200160405280826001600160e01b0316815250915050610705565b60006108be84600160701b8561091c565b90506001600160e01b0381111561088d576040805162461bcd60e51b815260206004820152601e60248201527f4669786564506f696e743a3a6672616374696f6e3a206f766572666c6f770000604482015290519081900360640190fd5b600080600061092b86866109d7565b915091506000848061093957fe5b86880990508281111561094d576001820391505b91829003918161096b5784838161096057fe5b0493505050506109d0565b8482106109bf576040805162461bcd60e51b815260206004820152601a60248201527f46756c6c4d6174683a2046554c4c4449565f4f564552464c4f57000000000000604482015290519081900360640190fd5b6109ca838387610a04565b93505050505b9392505050565b60008080600019848609905083850292508281039150828110156109fc576001820391505b509250929050565b60008181038216808381610a1457fe5b049250808581610a2057fe5b049450808160000381610a2f57fe5b60028581038087028203028087028203028087028203028087028203028087028203028087028203029586029003909402930460010193909302939093010292915050565b60408051602081019091526000815290565b604051806020016040528060008152509056fe4669786564506f696e743a3a6672616374696f6e3a206469766973696f6e206279207a65726fa2646970667358221220414e20f2939a1220127aa1691010651273bbf5689df395c8a168b83c4c43fffa64736f6c634300060600334669786564506f696e743a3a6672616374696f6e3a206469766973696f6e206279207a65726f",
  "libraries": {},
  "devdoc": {
    "methods": {
      "getUnderlyingPrice(address)": {
        "details": "Get asset price.",
        "params": {
          "_asset": "the asset address to query"
        },
        "returns": {
          "price": "Asset price."
        }
      }
    }
  },
  "userdoc": {
    "methods": {}
  },
  "storageLayout": {
    "storage": [
      {
        "astId": 1773,
        "contract": "src/oracle/UniV2TWAP.sol:UniV2TWAP",
        "label": "pair",
        "offset": 0,
        "slot": "0",
        "type": "t_address"
      },
      {
        "astId": 1775,
        "contract": "src/oracle/UniV2TWAP.sol:UniV2TWAP",
        "label": "isToken0",
        "offset": 20,
        "slot": "0",
        "type": "t_bool"
      },
      {
        "astId": 1781,
        "contract": "src/oracle/UniV2TWAP.sol:UniV2TWAP",
        "label": "twapLength",
        "offset": 0,
        "slot": "1",
        "type": "t_uint256"
      },
      {
        "astId": 1790,
        "contract": "src/oracle/UniV2TWAP.sol:UniV2TWAP",
        "label": "twap",
        "offset": 0,
        "slot": "2",
        "type": "t_mapping(t_uint256,t_struct(Twap)1786_storage)"
      }
    ],
    "types": {
      "t_address": {
        "encoding": "inplace",
        "label": "address",
        "numberOfBytes": "20"
      },
      "t_bool": {
        "encoding": "inplace",
        "label": "bool",
        "numberOfBytes": "1"
      },
      "t_mapping(t_uint256,t_struct(Twap)1786_storage)": {
        "encoding": "mapping",
        "key": "t_uint256",
        "label": "mapping(uint256 => struct UniV2TWAP.Twap)",
        "numberOfBytes": "32",
        "value": "t_struct(Twap)1786_storage"
      },
      "t_struct(Twap)1786_storage": {
        "encoding": "inplace",
        "label": "struct UniV2TWAP.Twap",
        "members": [
          {
            "astId": 1783,
            "contract": "src/oracle/UniV2TWAP.sol:UniV2TWAP",
            "label": "timestamp",
            "offset": 0,
            "slot": "0",
            "type": "t_uint256"
          },
          {
            "astId": 1785,
            "contract": "src/oracle/UniV2TWAP.sol:UniV2TWAP",
            "label": "priceCumulative",
            "offset": 0,
            "slot": "1",
            "type": "t_uint256"
          }
        ],
        "numberOfBytes": "64"
      },
      "t_uint256": {
        "encoding": "inplace",
        "label": "uint256",
        "numberOfBytes": "32"
      }
    }
  }
}