{
  "address": "0x5Df7409F43e1E0211027836078dcf515DCA52615",
  "abi": [
    {
      "inputs": [],
      "stateMutability": "nonpayable",
      "type": "constructor"
    },
    {
      "inputs": [],
      "name": "AlreadyTrading",
      "type": "error"
    },
    {
      "inputs": [],
      "name": "InputArrayMismatch",
      "type": "error"
    },
    {
      "inputs": [],
      "name": "InsufficientAmount",
      "type": "error"
    },
    {
      "inputs": [],
      "name": "InvalidAssetPrice",
      "type": "error"
    },
    {
      "inputs": [],
      "name": "InvalidDelegatee",
      "type": "error"
    },
    {
      "inputs": [],
      "name": "InvalidLockTime",
      "type": "error"
    },
    {
      "inputs": [],
      "name": "InvalidLocker",
      "type": "error"
    },
    {
      "inputs": [],
      "name": "InvalidMarketCap",
      "type": "error"
    },
    {
      "inputs": [],
      "name": "InvalidOracle",
      "type": "error"
    },
    {
      "inputs": [],
      "name": "InvalidRate",
      "type": "error"
    },
    {
      "inputs": [],
      "name": "InvalidReserves",
      "type": "error"
    },
    {
      "inputs": [],
      "name": "InvalidStage",
      "type": "error"
    },
    {
      "inputs": [],
      "name": "InvalidThreshold",
      "type": "error"
    },
    {
      "inputs": [],
      "name": "InvalidToken",
      "type": "error"
    },
    {
      "inputs": [],
      "name": "LiquidityTooLow",
      "type": "error"
    },
    {
      "inputs": [],
      "name": "MarketCapTooLow",
      "type": "error"
    },
    {
      "inputs": [],
      "name": "NotTrading",
      "type": "error"
    },
    {
      "inputs": [],
      "name": "ProfileNotExist",
      "type": "error"
    },
    {
      "inputs": [],
      "name": "WrongBoostStage",
      "type": "error"
    },
    {
      "anonymous": false,
      "inputs": [
        {
          "indexed": false,
          "internalType": "address",
          "name": "newAssetToken",
          "type": "address"
        }
      ],
      "name": "AssetTokenSet",
      "type": "event"
    },
    {
      "anonymous": false,
      "inputs": [
        {
          "indexed": false,
          "internalType": "uint8",
          "name": "stage",
          "type": "uint8"
        },
        {
          "indexed": false,
          "internalType": "uint256",
          "name": "threshold",
          "type": "uint256"
        }
      ],
      "name": "BoostStageThresholdUpdated",
      "type": "event"
    },
    {
      "anonymous": false,
      "inputs": [
        {
          "indexed": true,
          "internalType": "address",
          "name": "token",
          "type": "address"
        },
        {
          "indexed": false,
          "internalType": "uint8",
          "name": "stage",
          "type": "uint8"
        },
        {
          "indexed": false,
          "internalType": "uint256",
          "name": "amount",
          "type": "uint256"
        },
        {
          "indexed": false,
          "internalType": "uint256",
          "name": "assetAmount",
          "type": "uint256"
        }
      ],
      "name": "Boosted",
      "type": "event"
    },
    {
      "anonymous": false,
      "inputs": [
        {
          "indexed": true,
          "internalType": "address",
          "name": "token",
          "type": "address"
        },
        {
          "indexed": true,
          "internalType": "address",
          "name": "delegatee",
          "type": "address"
        }
      ],
      "name": "DelegateLPTo",
      "type": "event"
    },
    {
      "anonymous": false,
      "inputs": [
        {
          "indexed": false,
          "internalType": "address",
          "name": "newExtRouter",
          "type": "address"
        }
      ],
      "name": "ExtRouterSet",
      "type": "event"
    },
    {
      "anonymous": false,
      "inputs": [
        {
          "indexed": false,
          "internalType": "address",
          "name": "newFactory",
          "type": "address"
        }
      ],
      "name": "FactorySet",
      "type": "event"
    },
    {
      "anonymous": false,
      "inputs": [
        {
          "indexed": false,
          "internalType": "uint256",
          "name": "newFee",
          "type": "uint256"
        },
        {
          "indexed": false,
          "internalType": "address",
          "name": "newFeeTo",
          "type": "address"
        }
      ],
      "name": "FeeSet",
      "type": "event"
    },
    {
      "anonymous": false,
      "inputs": [
        {
          "indexed": false,
          "internalType": "uint256",
          "name": "newMarketCap",
          "type": "uint256"
        }
      ],
      "name": "GradMarketCapSet",
      "type": "event"
    },
    {
      "anonymous": false,
      "inputs": [
        {
          "indexed": true,
          "internalType": "address",
          "name": "token",
          "type": "address"
        },
        {
          "indexed": true,
          "internalType": "address",
          "name": "lp",
          "type": "address"
        }
      ],
      "name": "Graduated",
      "type": "event"
    },
    {
      "anonymous": false,
      "inputs": [
        {
          "indexed": false,
          "internalType": "uint256",
          "name": "newMarketCap",
          "type": "uint256"
        }
      ],
      "name": "InitialMarketCapSet",
      "type": "event"
    },
    {
      "anonymous": false,
      "inputs": [
        {
          "indexed": false,
          "internalType": "uint256",
          "name": "newSupply",
          "type": "uint256"
        }
      ],
      "name": "InitializeSupplySet",
      "type": "event"
    },
    {
      "anonymous": false,
      "inputs": [
        {
          "indexed": false,
          "internalType": "uint8",
          "name": "version",
          "type": "uint8"
        }
      ],
      "name": "Initialized",
      "type": "event"
    },
    {
      "anonymous": false,
      "inputs": [
        {
          "indexed": true,
          "internalType": "address",
          "name": "token",
          "type": "address"
        },
        {
          "indexed": true,
          "internalType": "address",
          "name": "pair",
          "type": "address"
        },
        {
          "indexed": false,
          "internalType": "uint256",
          "name": "totalTokens",
          "type": "uint256"
        },
        {
          "indexed": false,
          "internalType": "uint8",
          "name": "tokenType",
          "type": "uint8"
        },
        {
          "indexed": false,
          "internalType": "uint256",
          "name": "timestamp",
          "type": "uint256"
        }
      ],
      "name": "Launched",
      "type": "event"
    },
    {
      "anonymous": false,
      "inputs": [
        {
          "indexed": false,
          "internalType": "address",
          "name": "newLockFactory",
          "type": "address"
        }
      ],
      "name": "LockFactorySet",
      "type": "event"
    },
    {
      "anonymous": false,
      "inputs": [
        {
          "indexed": false,
          "internalType": "uint256",
          "name": "newLockedTime",
          "type": "uint256"
        }
      ],
      "name": "LockedTimeSet",
      "type": "event"
    },
    {
      "anonymous": false,
      "inputs": [
        {
          "indexed": false,
          "internalType": "address",
          "name": "newOracle",
          "type": "address"
        }
      ],
      "name": "OracleSet",
      "type": "event"
    },
    {
      "anonymous": false,
      "inputs": [
        {
          "indexed": true,
          "internalType": "address",
          "name": "previousOwner",
          "type": "address"
        },
        {
          "indexed": true,
          "internalType": "address",
          "name": "newOwner",
          "type": "address"
        }
      ],
      "name": "OwnershipTransferStarted",
      "type": "event"
    },
    {
      "anonymous": false,
      "inputs": [
        {
          "indexed": true,
          "internalType": "address",
          "name": "previousOwner",
          "type": "address"
        },
        {
          "indexed": true,
          "internalType": "address",
          "name": "newOwner",
          "type": "address"
        }
      ],
      "name": "OwnershipTransferred",
      "type": "event"
    },
    {
      "anonymous": false,
      "inputs": [
        {
          "indexed": true,
          "internalType": "bytes32",
          "name": "role",
          "type": "bytes32"
        },
        {
          "indexed": true,
          "internalType": "bytes32",
          "name": "previousAdminRole",
          "type": "bytes32"
        },
        {
          "indexed": true,
          "internalType": "bytes32",
          "name": "newAdminRole",
          "type": "bytes32"
        }
      ],
      "name": "RoleAdminChanged",
      "type": "event"
    },
    {
      "anonymous": false,
      "inputs": [
        {
          "indexed": true,
          "internalType": "bytes32",
          "name": "role",
          "type": "bytes32"
        },
        {
          "indexed": true,
          "internalType": "address",
          "name": "account",
          "type": "address"
        },
        {
          "indexed": true,
          "internalType": "address",
          "name": "sender",
          "type": "address"
        }
      ],
      "name": "RoleGranted",
      "type": "event"
    },
    {
      "anonymous": false,
      "inputs": [
        {
          "indexed": true,
          "internalType": "bytes32",
          "name": "role",
          "type": "bytes32"
        },
        {
          "indexed": true,
          "internalType": "address",
          "name": "account",
          "type": "address"
        },
        {
          "indexed": true,
          "internalType": "address",
          "name": "sender",
          "type": "address"
        }
      ],
      "name": "RoleRevoked",
      "type": "event"
    },
    {
      "anonymous": false,
      "inputs": [
        {
          "indexed": false,
          "internalType": "address",
          "name": "newRouter",
          "type": "address"
        }
      ],
      "name": "RouterSet",
      "type": "event"
    },
    {
      "anonymous": false,
      "inputs": [
        {
          "indexed": false,
          "internalType": "address",
          "name": "newTokenFactory",
          "type": "address"
        }
      ],
      "name": "TokenFactorySet",
      "type": "event"
    },
    {
      "inputs": [],
      "name": "BOOSTER_ROLE",
      "outputs": [
        {
          "internalType": "bytes32",
          "name": "",
          "type": "bytes32"
        }
      ],
      "stateMutability": "view",
      "type": "function"
    },
    {
      "inputs": [],
      "name": "DEFAULT_ADMIN_ROLE",
      "outputs": [
        {
          "internalType": "bytes32",
          "name": "",
          "type": "bytes32"
        }
      ],
      "stateMutability": "view",
      "type": "function"
    },
    {
      "inputs": [],
      "name": "acceptOwnership",
      "outputs": [],
      "stateMutability": "nonpayable",
      "type": "function"
    },
    {
      "inputs": [],
      "name": "assetToken",
      "outputs": [
        {
          "internalType": "address",
          "name": "",
          "type": "address"
        }
      ],
      "stateMutability": "view",
      "type": "function"
    },
    {
      "inputs": [
        {
          "internalType": "string",
          "name": "name",
          "type": "string"
        },
        {
          "internalType": "string",
          "name": "ticker",
          "type": "string"
        },
        {
          "internalType": "uint8[]",
          "name": "cores",
          "type": "uint8[]"
        },
        {
          "internalType": "string",
          "name": "desc",
          "type": "string"
        },
        {
          "internalType": "string",
          "name": "img",
          "type": "string"
        },
        {
          "internalType": "string[4]",
          "name": "urls",
          "type": "string[4]"
        },
        {
          "internalType": "uint256",
          "name": "tokenAmount",
          "type": "uint256"
        },
        {
          "internalType": "uint256",
          "name": "assetAmount",
          "type": "uint256"
        },
        {
          "internalType": "uint256",
          "name": "tokenAmountMin",
          "type": "uint256"
        },
        {
          "internalType": "uint256",
          "name": "assetAmountMin",
          "type": "uint256"
        },
        {
          "internalType": "uint256",
          "name": "minLiquidity",
          "type": "uint256"
        },
        {
          "internalType": "uint256",
          "name": "deadline",
          "type": "uint256"
        }
      ],
      "name": "boost1",
      "outputs": [],
      "stateMutability": "nonpayable",
      "type": "function"
    },
    {
      "inputs": [
        {
          "internalType": "address",
          "name": "creator",
          "type": "address"
        },
        {
          "internalType": "string",
          "name": "name",
          "type": "string"
        },
        {
          "internalType": "string",
          "name": "ticker",
          "type": "string"
        },
        {
          "internalType": "uint8[]",
          "name": "cores",
          "type": "uint8[]"
        },
        {
          "internalType": "string",
          "name": "desc",
          "type": "string"
        },
        {
          "internalType": "string",
          "name": "img",
          "type": "string"
        },
        {
          "internalType": "string[4]",
          "name": "urls",
          "type": "string[4]"
        },
        {
          "internalType": "uint256",
          "name": "tokenAmount",
          "type": "uint256"
        },
        {
          "internalType": "uint256",
          "name": "assetAmount",
          "type": "uint256"
        },
        {
          "internalType": "uint256",
          "name": "tokenAmountMin",
          "type": "uint256"
        },
        {
          "internalType": "uint256",
          "name": "assetAmountMin",
          "type": "uint256"
        },
        {
          "internalType": "uint256",
          "name": "minLiquidity",
          "type": "uint256"
        },
        {
          "internalType": "uint256",
          "name": "deadline",
          "type": "uint256"
        }
      ],
      "name": "boost1For",
      "outputs": [],
      "stateMutability": "nonpayable",
      "type": "function"
    },
    {
      "inputs": [
        {
          "internalType": "address",
          "name": "token",
          "type": "address"
        },
        {
          "internalType": "uint256",
          "name": "tokenAmount",
          "type": "uint256"
        },
        {
          "internalType": "uint256",
          "name": "assetAmount",
          "type": "uint256"
        },
        {
          "internalType": "uint256",
          "name": "tokenAmountMin",
          "type": "uint256"
        },
        {
          "internalType": "uint256",
          "name": "assetAmountMin",
          "type": "uint256"
        },
        {
          "internalType": "uint256",
          "name": "minLiquidity",
          "type": "uint256"
        },
        {
          "internalType": "uint256",
          "name": "deadline",
          "type": "uint256"
        }
      ],
      "name": "boost2",
      "outputs": [],
      "stateMutability": "nonpayable",
      "type": "function"
    },
    {
      "inputs": [
        {
          "internalType": "address",
          "name": "token",
          "type": "address"
        },
        {
          "internalType": "uint256",
          "name": "tokenAmount",
          "type": "uint256"
        },
        {
          "internalType": "uint256",
          "name": "assetAmount",
          "type": "uint256"
        },
        {
          "internalType": "uint256",
          "name": "tokenAmountMin",
          "type": "uint256"
        },
        {
          "internalType": "uint256",
          "name": "assetAmountMin",
          "type": "uint256"
        },
        {
          "internalType": "uint256",
          "name": "minLiquidity",
          "type": "uint256"
        },
        {
          "internalType": "uint256",
          "name": "deadline",
          "type": "uint256"
        }
      ],
      "name": "boost3",
      "outputs": [],
      "stateMutability": "nonpayable",
      "type": "function"
    },
    {
      "inputs": [
        {
          "internalType": "address",
          "name": "",
          "type": "address"
        }
      ],
      "name": "boostInfo",
      "outputs": [
        {
          "internalType": "uint8",
          "name": "stage",
          "type": "uint8"
        }
      ],
      "stateMutability": "view",
      "type": "function"
    },
    {
      "inputs": [
        {
          "internalType": "uint256",
          "name": "",
          "type": "uint256"
        }
      ],
      "name": "boostInfos",
      "outputs": [
        {
          "internalType": "address",
          "name": "",
          "type": "address"
        }
      ],
      "stateMutability": "view",
      "type": "function"
    },
    {
      "inputs": [
        {
          "internalType": "uint8",
          "name": "",
          "type": "uint8"
        }
      ],
      "name": "boostStageThresholds",
      "outputs": [
        {
          "internalType": "uint256",
          "name": "",
          "type": "uint256"
        }
      ],
      "stateMutability": "view",
      "type": "function"
    },
    {
      "inputs": [
        {
          "internalType": "uint256",
          "name": "amountIn",
          "type": "uint256"
        },
        {
          "internalType": "address",
          "name": "tokenAddress",
          "type": "address"
        }
      ],
      "name": "buy",
      "outputs": [
        {
          "internalType": "bool",
          "name": "",
          "type": "bool"
        }
      ],
      "stateMutability": "nonpayable",
      "type": "function"
    },
    {
      "inputs": [
        {
          "internalType": "address",
          "name": "token",
          "type": "address"
        }
      ],
      "name": "calculateMarketCap",
      "outputs": [
        {
          "internalType": "uint256",
          "name": "",
          "type": "uint256"
        }
      ],
      "stateMutability": "nonpayable",
      "type": "function"
    },
    {
      "inputs": [
        {
          "internalType": "address",
          "name": "tokenAddr",
          "type": "address"
        },
        {
          "internalType": "address",
          "name": "delegatee",
          "type": "address"
        }
      ],
      "name": "delegateLPTo",
      "outputs": [],
      "stateMutability": "nonpayable",
      "type": "function"
    },
    {
      "inputs": [
        {
          "internalType": "address[]",
          "name": "tokens",
          "type": "address[]"
        },
        {
          "internalType": "address[]",
          "name": "delegatees",
          "type": "address[]"
        }
      ],
      "name": "delegateLPToBatch",
      "outputs": [],
      "stateMutability": "nonpayable",
      "type": "function"
    },
    {
      "inputs": [],
      "name": "extRouter",
      "outputs": [
        {
          "internalType": "contract IExtRouter",
          "name": "",
          "type": "address"
        }
      ],
      "stateMutability": "view",
      "type": "function"
    },
    {
      "inputs": [],
      "name": "factory",
      "outputs": [
        {
          "internalType": "contract INTFactory",
          "name": "",
          "type": "address"
        }
      ],
      "stateMutability": "view",
      "type": "function"
    },
    {
      "inputs": [],
      "name": "fee",
      "outputs": [
        {
          "internalType": "uint256",
          "name": "",
          "type": "uint256"
        }
      ],
      "stateMutability": "view",
      "type": "function"
    },
    {
      "inputs": [],
      "name": "feeTo",
      "outputs": [
        {
          "internalType": "address",
          "name": "",
          "type": "address"
        }
      ],
      "stateMutability": "view",
      "type": "function"
    },
    {
      "inputs": [],
      "name": "getBoostCount",
      "outputs": [
        {
          "internalType": "uint256",
          "name": "",
          "type": "uint256"
        }
      ],
      "stateMutability": "view",
      "type": "function"
    },
    {
      "inputs": [
        {
          "internalType": "address",
          "name": "token",
          "type": "address"
        }
      ],
      "name": "getBoostInfo",
      "outputs": [
        {
          "components": [
            {
              "internalType": "uint8",
              "name": "stage",
              "type": "uint8"
            }
          ],
          "internalType": "struct Bonding.BoostInfo",
          "name": "",
          "type": "tuple"
        }
      ],
      "stateMutability": "view",
      "type": "function"
    },
    {
      "inputs": [
        {
          "internalType": "bytes32",
          "name": "role",
          "type": "bytes32"
        }
      ],
      "name": "getRoleAdmin",
      "outputs": [
        {
          "internalType": "bytes32",
          "name": "",
          "type": "bytes32"
        }
      ],
      "stateMutability": "view",
      "type": "function"
    },
    {
      "inputs": [],
      "name": "getTokenCount",
      "outputs": [
        {
          "internalType": "uint256",
          "name": "",
          "type": "uint256"
        }
      ],
      "stateMutability": "view",
      "type": "function"
    },
    {
      "inputs": [
        {
          "internalType": "address",
          "name": "tokenAddress",
          "type": "address"
        }
      ],
      "name": "getTokenCreator",
      "outputs": [
        {
          "internalType": "address",
          "name": "",
          "type": "address"
        }
      ],
      "stateMutability": "view",
      "type": "function"
    },
    {
      "inputs": [
        {
          "internalType": "address",
          "name": "tokenAddress",
          "type": "address"
        }
      ],
      "name": "getTokenLocker",
      "outputs": [
        {
          "internalType": "address",
          "name": "",
          "type": "address"
        }
      ],
      "stateMutability": "view",
      "type": "function"
    },
    {
      "inputs": [],
      "name": "gradMarketCap",
      "outputs": [
        {
          "internalType": "uint256",
          "name": "",
          "type": "uint256"
        }
      ],
      "stateMutability": "view",
      "type": "function"
    },
    {
      "inputs": [
        {
          "internalType": "bytes32",
          "name": "role",
          "type": "bytes32"
        },
        {
          "internalType": "address",
          "name": "account",
          "type": "address"
        }
      ],
      "name": "grantRole",
      "outputs": [],
      "stateMutability": "nonpayable",
      "type": "function"
    },
    {
      "inputs": [
        {
          "internalType": "address",
          "name": "tokenAddress",
          "type": "address"
        }
      ],
      "name": "hasGraduated",
      "outputs": [
        {
          "internalType": "bool",
          "name": "",
          "type": "bool"
        }
      ],
      "stateMutability": "view",
      "type": "function"
    },
    {
      "inputs": [
        {
          "internalType": "bytes32",
          "name": "role",
          "type": "bytes32"
        },
        {
          "internalType": "address",
          "name": "account",
          "type": "address"
        }
      ],
      "name": "hasRole",
      "outputs": [
        {
          "internalType": "bool",
          "name": "",
          "type": "bool"
        }
      ],
      "stateMutability": "view",
      "type": "function"
    },
    {
      "inputs": [],
      "name": "initialMarketCap",
      "outputs": [
        {
          "internalType": "uint256",
          "name": "",
          "type": "uint256"
        }
      ],
      "stateMutability": "view",
      "type": "function"
    },
    {
      "inputs": [],
      "name": "initialSupply",
      "outputs": [
        {
          "internalType": "uint256",
          "name": "",
          "type": "uint256"
        }
      ],
      "stateMutability": "view",
      "type": "function"
    },
    {
      "inputs": [
        {
          "internalType": "address",
          "name": "assetToken_",
          "type": "address"
        },
        {
          "internalType": "address",
          "name": "factory_",
          "type": "address"
        },
        {
          "internalType": "address",
          "name": "feeTo_",
          "type": "address"
        },
        {
          "internalType": "uint256",
          "name": "fee_",
          "type": "uint256"
        },
        {
          "internalType": "uint256",
          "name": "initialSupply_",
          "type": "uint256"
        },
        {
          "internalType": "address",
          "name": "extRouter_",
          "type": "address"
        },
        {
          "internalType": "address",
          "name": "tokenFactory_",
          "type": "address"
        },
        {
          "internalType": "address",
          "name": "lockFactory_",
          "type": "address"
        },
        {
          "internalType": "uint256",
          "name": "lockedTime_",
          "type": "uint256"
        },
        {
          "internalType": "address",
          "name": "oracle_",
          "type": "address"
        },
        {
          "internalType": "uint256",
          "name": "initialMarketCap_",
          "type": "uint256"
        },
        {
          "internalType": "uint256",
          "name": "gradMarketCap_",
          "type": "uint256"
        }
      ],
      "name": "initialize",
      "outputs": [],
      "stateMutability": "nonpayable",
      "type": "function"
    },
    {
      "inputs": [
        {
          "internalType": "address",
          "name": "token",
          "type": "address"
        }
      ],
      "name": "isBoostToken",
      "outputs": [
        {
          "internalType": "bool",
          "name": "",
          "type": "bool"
        }
      ],
      "stateMutability": "view",
      "type": "function"
    },
    {
      "inputs": [
        {
          "internalType": "string",
          "name": "_name",
          "type": "string"
        },
        {
          "internalType": "string",
          "name": "_ticker",
          "type": "string"
        },
        {
          "internalType": "uint8[]",
          "name": "cores",
          "type": "uint8[]"
        },
        {
          "internalType": "string",
          "name": "desc",
          "type": "string"
        },
        {
          "internalType": "string",
          "name": "img",
          "type": "string"
        },
        {
          "internalType": "string[4]",
          "name": "urls",
          "type": "string[4]"
        },
        {
          "internalType": "uint256",
          "name": "purchaseAmount",
          "type": "uint256"
        }
      ],
      "name": "launch",
      "outputs": [
        {
          "internalType": "address",
          "name": "",
          "type": "address"
        },
        {
          "internalType": "address",
          "name": "",
          "type": "address"
        },
        {
          "internalType": "uint256",
          "name": "",
          "type": "uint256"
        }
      ],
      "stateMutability": "nonpayable",
      "type": "function"
    },
    {
      "inputs": [
        {
          "internalType": "address",
          "name": "_creator",
          "type": "address"
        },
        {
          "internalType": "string",
          "name": "_name",
          "type": "string"
        },
        {
          "internalType": "string",
          "name": "_ticker",
          "type": "string"
        },
        {
          "internalType": "uint8[]",
          "name": "cores",
          "type": "uint8[]"
        },
        {
          "internalType": "string",
          "name": "desc",
          "type": "string"
        },
        {
          "internalType": "string",
          "name": "img",
          "type": "string"
        },
        {
          "internalType": "string[4]",
          "name": "urls",
          "type": "string[4]"
        },
        {
          "internalType": "uint256",
          "name": "purchaseAmount",
          "type": "uint256"
        }
      ],
      "name": "launchFor",
      "outputs": [
        {
          "internalType": "address",
          "name": "",
          "type": "address"
        },
        {
          "internalType": "address",
          "name": "",
          "type": "address"
        },
        {
          "internalType": "uint256",
          "name": "",
          "type": "uint256"
        }
      ],
      "stateMutability": "nonpayable",
      "type": "function"
    },
    {
      "inputs": [],
      "name": "lockFactory",
      "outputs": [
        {
          "internalType": "contract LockFactory",
          "name": "",
          "type": "address"
        }
      ],
      "stateMutability": "view",
      "type": "function"
    },
    {
      "inputs": [],
      "name": "lockedTime",
      "outputs": [
        {
          "internalType": "uint256",
          "name": "",
          "type": "uint256"
        }
      ],
      "stateMutability": "view",
      "type": "function"
    },
    {
      "inputs": [],
      "name": "oracle",
      "outputs": [
        {
          "internalType": "contract IOracle",
          "name": "",
          "type": "address"
        }
      ],
      "stateMutability": "view",
      "type": "function"
    },
    {
      "inputs": [],
      "name": "owner",
      "outputs": [
        {
          "internalType": "address",
          "name": "",
          "type": "address"
        }
      ],
      "stateMutability": "view",
      "type": "function"
    },
    {
      "inputs": [],
      "name": "pendingOwner",
      "outputs": [
        {
          "internalType": "address",
          "name": "",
          "type": "address"
        }
      ],
      "stateMutability": "view",
      "type": "function"
    },
    {
      "inputs": [
        {
          "internalType": "address",
          "name": "token_",
          "type": "address"
        },
        {
          "internalType": "uint256",
          "name": "amountIn_",
          "type": "uint256"
        }
      ],
      "name": "quoteBuy",
      "outputs": [
        {
          "internalType": "uint256",
          "name": "",
          "type": "uint256"
        },
        {
          "internalType": "uint256",
          "name": "",
          "type": "uint256"
        }
      ],
      "stateMutability": "view",
      "type": "function"
    },
    {
      "inputs": [
        {
          "internalType": "address",
          "name": "token_",
          "type": "address"
        },
        {
          "internalType": "uint256",
          "name": "amountIn_",
          "type": "uint256"
        }
      ],
      "name": "quoteSell",
      "outputs": [
        {
          "internalType": "uint256",
          "name": "",
          "type": "uint256"
        },
        {
          "internalType": "uint256",
          "name": "",
          "type": "uint256"
        }
      ],
      "stateMutability": "view",
      "type": "function"
    },
    {
      "inputs": [],
      "name": "renounceOwnership",
      "outputs": [],
      "stateMutability": "nonpayable",
      "type": "function"
    },
    {
      "inputs": [
        {
          "internalType": "bytes32",
          "name": "role",
          "type": "bytes32"
        },
        {
          "internalType": "address",
          "name": "account",
          "type": "address"
        }
      ],
      "name": "renounceRole",
      "outputs": [],
      "stateMutability": "nonpayable",
      "type": "function"
    },
    {
      "inputs": [
        {
          "internalType": "bytes32",
          "name": "role",
          "type": "bytes32"
        },
        {
          "internalType": "address",
          "name": "account",
          "type": "address"
        }
      ],
      "name": "revokeRole",
      "outputs": [],
      "stateMutability": "nonpayable",
      "type": "function"
    },
    {
      "inputs": [
        {
          "internalType": "uint256",
          "name": "amountIn",
          "type": "uint256"
        },
        {
          "internalType": "address",
          "name": "tokenAddress",
          "type": "address"
        }
      ],
      "name": "sell",
      "outputs": [
        {
          "internalType": "bool",
          "name": "",
          "type": "bool"
        }
      ],
      "stateMutability": "nonpayable",
      "type": "function"
    },
    {
      "inputs": [
        {
          "internalType": "address",
          "name": "newAssetToken",
          "type": "address"
        }
      ],
      "name": "setAssetToken",
      "outputs": [],
      "stateMutability": "nonpayable",
      "type": "function"
    },
    {
      "inputs": [
        {
          "internalType": "uint8",
          "name": "stage",
          "type": "uint8"
        },
        {
          "internalType": "uint256",
          "name": "threshold",
          "type": "uint256"
        }
      ],
      "name": "setBoostStageThreshold",
      "outputs": [],
      "stateMutability": "nonpayable",
      "type": "function"
    },
    {
      "inputs": [
        {
          "internalType": "uint256[]",
          "name": "thresholds",
          "type": "uint256[]"
        }
      ],
      "name": "setBoostStageThresholds",
      "outputs": [],
      "stateMutability": "nonpayable",
      "type": "function"
    },
    {
      "inputs": [
        {
          "internalType": "address",
          "name": "newExtRouter",
          "type": "address"
        }
      ],
      "name": "setExtRouter",
      "outputs": [],
      "stateMutability": "nonpayable",
      "type": "function"
    },
    {
      "inputs": [
        {
          "internalType": "address",
          "name": "newFactory",
          "type": "address"
        }
      ],
      "name": "setFactory",
      "outputs": [],
      "stateMutability": "nonpayable",
      "type": "function"
    },
    {
      "inputs": [
        {
          "internalType": "uint256",
          "name": "newFee",
          "type": "uint256"
        },
        {
          "internalType": "address",
          "name": "newFeeTo",
          "type": "address"
        }
      ],
      "name": "setFee",
      "outputs": [],
      "stateMutability": "nonpayable",
      "type": "function"
    },
    {
      "inputs": [
        {
          "internalType": "uint256",
          "name": "newMarketCap",
          "type": "uint256"
        }
      ],
      "name": "setGradMarketCap",
      "outputs": [],
      "stateMutability": "nonpayable",
      "type": "function"
    },
    {
      "inputs": [
        {
          "internalType": "uint256",
          "name": "newMarketCap",
          "type": "uint256"
        }
      ],
      "name": "setInitialMarketCap",
      "outputs": [],
      "stateMutability": "nonpayable",
      "type": "function"
    },
    {
      "inputs": [
        {
          "internalType": "uint256",
          "name": "newSupply",
          "type": "uint256"
        }
      ],
      "name": "setInitialSupply",
      "outputs": [],
      "stateMutability": "nonpayable",
      "type": "function"
    },
    {
      "inputs": [
        {
          "internalType": "address",
          "name": "newLockFactory",
          "type": "address"
        }
      ],
      "name": "setLockFactory",
      "outputs": [],
      "stateMutability": "nonpayable",
      "type": "function"
    },
    {
      "inputs": [
        {
          "internalType": "uint256",
          "name": "newLockedTime",
          "type": "uint256"
        }
      ],
      "name": "setLockedTime",
      "outputs": [],
      "stateMutability": "nonpayable",
      "type": "function"
    },
    {
      "inputs": [
        {
          "internalType": "address",
          "name": "newOracle",
          "type": "address"
        }
      ],
      "name": "setOracle",
      "outputs": [],
      "stateMutability": "nonpayable",
      "type": "function"
    },
    {
      "inputs": [
        {
          "internalType": "address",
          "name": "newTokenFactory",
          "type": "address"
        }
      ],
      "name": "setTokenFactory",
      "outputs": [],
      "stateMutability": "nonpayable",
      "type": "function"
    },
    {
      "inputs": [
        {
          "internalType": "bytes4",
          "name": "interfaceId",
          "type": "bytes4"
        }
      ],
      "name": "supportsInterface",
      "outputs": [
        {
          "internalType": "bool",
          "name": "",
          "type": "bool"
        }
      ],
      "stateMutability": "view",
      "type": "function"
    },
    {
      "inputs": [],
      "name": "tokenFactory",
      "outputs": [
        {
          "internalType": "contract INTERC20Factory",
          "name": "",
          "type": "address"
        }
      ],
      "stateMutability": "view",
      "type": "function"
    },
    {
      "inputs": [
        {
          "internalType": "address",
          "name": "",
          "type": "address"
        }
      ],
      "name": "tokenInfo",
      "outputs": [
        {
          "internalType": "address",
          "name": "creator",
          "type": "address"
        },
        {
          "internalType": "address",
          "name": "token",
          "type": "address"
        },
        {
          "internalType": "address",
          "name": "pair",
          "type": "address"
        },
        {
          "internalType": "address",
          "name": "locker",
          "type": "address"
        },
        {
          "internalType": "string",
          "name": "description",
          "type": "string"
        },
        {
          "internalType": "string",
          "name": "image",
          "type": "string"
        },
        {
          "internalType": "string",
          "name": "twitter",
          "type": "string"
        },
        {
          "internalType": "string",
          "name": "telegram",
          "type": "string"
        },
        {
          "internalType": "string",
          "name": "farcaster",
          "type": "string"
        },
        {
          "internalType": "string",
          "name": "website",
          "type": "string"
        },
        {
          "internalType": "enum Bonding.TokenStatus",
          "name": "status",
          "type": "uint8"
        }
      ],
      "stateMutability": "view",
      "type": "function"
    },
    {
      "inputs": [
        {
          "internalType": "uint256",
          "name": "",
          "type": "uint256"
        }
      ],
      "name": "tokenInfos",
      "outputs": [
        {
          "internalType": "address",
          "name": "",
          "type": "address"
        }
      ],
      "stateMutability": "view",
      "type": "function"
    },
    {
      "inputs": [
        {
          "internalType": "address",
          "name": "newOwner",
          "type": "address"
        }
      ],
      "name": "transferOwnership",
      "outputs": [],
      "stateMutability": "nonpayable",
      "type": "function"
    }
  ],
  "transactionHash": "0xeafce9e63c334467ff428b59a6e914a35de85716b60909efff4754376da1e613",
  "args": [],
  "numDeployments": 1,
  "solcInputHash": "7bd6f3bf2fb06dddc402a5e51dab3df2",
  "bytecode": "0x60808060405234620000c4575f549060ff8260081c1662000072575060ff8082160362000037575b60405161547e9081620000c98239f35b60ff90811916175f557f7f26b83ff96e1f2b6a682f133852f6798a09c465da95921460cefb3847402498602060405160ff8152a15f62000027565b62461bcd60e51b815260206004820152602760248201527f496e697469616c697a61626c653a20636f6e747261637420697320696e697469604482015266616c697a696e6760c81b6064820152608490fd5b5f80fdfe60a0806040526004361015610012575f80fd5b5f90813560e01c908163017e7e58146127145750806301b964d2146126a557806301ffc9a71461264e57806302b6b15a146125735780630d63237f146125175780630d7a94f6146124ae5780631083f761146124845780631db9be1b1461245a578063248a9ca31461242d57806326bde5aa146123be5780632f2ff15d1461230f5780632f73a9f8146122a057806336568abe1461220d5780633744cfdd14612188578063378dc3dc146121695780633b5f19351461214a5780633c0b93aa1461207f57806341344d5d146120535780634189a68e14611f86578063456f5e1514611e805780634d86030314611e3f5780635481860514611d445780635823892a14611c955780635bb4780814611c265780635edb9eb014611c075780636140259614611bb8578063715018a614611ae157806372641aa614611aae57806377796ace14611a3f57806378a8956714611a2057806379ba50971461199b5780637adbf973146118b75780637c13774b1461185b5780637dc0d1d0146118315780637deb602514610fa95780637f7ee43114610eb15780638da5cb5b14610e8857806391d1485414610e3e578063a217fddf14610e22578063a240de0314610df8578063a3e01ce314610ca8578063a8b3820514610c89578063ae29d56814610c56578063b4f2e8b814610bda578063b758ba8814610b9f578063c17ac35a14610b45578063c1ba290714610b26578063c45a015514610afc578063c75ed64414610aa2578063c78418b914610a65578063c8379f8114610826578063d547741f146107e8578063d723a3d2146107aa578063d98b2f5c146106d3578063ddca3f43146106b4578063df1dcaa914610646578063e30c39781461061d578063e77772fe146105f3578063e84ca7cb146105b3578063f2fde38b14610545578063f5dab711146103f9578063f943ce0714610391578063fa1653bd1461032f5763feab61eb146102de575f80fd5b3461032c57604036600319011261032c576102f7612892565b6102ff612f22565b600360ff82161161031a57610317906024359061510d565b80f35b60405163e82a532960e01b8152600490fd5b80fd5b503461032c57602036600319011261032c576001600160a01b0361035161273a565b16815261013560205260ff600b6040832001541690600382101561037d57602082600260405191148152f35b634e487b7160e01b81526021600452602490fd5b503461032c57602036600319011261032c576004356103ae612f22565b80156103e7576020817f51dfcc99f9c590c7a4bcf74fc4e9ae6b407ec6689eb354e3215563a0b5bcd00d9261013c55604051908152a180f35b6040516338c51d2560e21b8152600490fd5b503461032c57602036600319011261032c576001600160a01b038061041c61273a565b16825261013560205260408220908082541691816001820154169180600283015416906003830154166004830161045290612a1a565b61045e60068501612a1a565b61046a60078601612a1a565b9161047760088701612a1a565b9361048460098801612a1a565b95610491600a8901612a1a565b97600b015460ff16986040519a8b5260208b015260408a015260608901526101608060808a015288016104c391612adc565b87810360a08901526104d491612adc565b86810360c08801526104e591612adc565b85810360e08701526104f691612adc565b84810361010086015261050891612adc565b83810361012085015261051a91612adc565b906003811015610531578293506101408301520390f35b634e487b7160e01b84526021600452602484fd5b503461032c57602036600319011261032c5761055f61273a565b610567612f22565b609780546001600160a01b0319166001600160a01b039283169081179091556065549091167f38d16b8cac22d99fc7c124b9cd0de2d3fa1faef420bfe791d8c362d765e227008380a380f35b503461032c57602036600319011261032c5760209060ff906040906001600160a01b036105de61273a565b16815261013784522054161515604051908152f35b503461032c578060031936011261032c5761012f546040516001600160a01b039091168152602090f35b503461032c578060031936011261032c576097546040516001600160a01b039091168152602090f35b503461032c57602036600319011261032c57600435610663612f22565b6301e133808111156106a2576020817fbeaba78e9fea37c532e9c93af5e8e120a48902131aeb7d3146e3ca49dec45a239261013a55604051908152a180f35b60405163abf20e8f60e01b8152600490fd5b503461032c578060031936011261032c57602061013254604051908152f35b503461032c57604036600319011261032c576106ed61273a565b61012e54610134546040805163a6b8918760e01b81526001600160a01b0393841660048201529183166024808401919091529290931660448201529035606482015291908280608481015b0381736FAbAC8069BC09cAD727fe49157ad69729222e8B5af4801561079d57604092829161076e575b5082519182526020820152f35b90506107909150823d8411610796575b61078881836127f9565b8101906132fe565b5f610761565b503d61077e565b50604051903d90823e3d90fd5b503461032c57602036600319011261032c5760209060ff906040906001600160a01b036107d561273a565b1681526101378452205416604051908152f35b503461032c57604036600319011261032c57610317600435610808612750565b9080845260fb6020526108216001604086200154612d1a565b612ead565b503461032c5761018036600319011261032c5761084161273a565b610849612750565b6001600160a01b039160443583811690819003610a615760a435848116809103610a615760c43591858316809303610a615760e435868116809103610a61576101243593878516809503610a615788549660ff8860081c161597888099610a54575b8015610a3d575b156109e15760ff1981166001178b55886109d0575b506108e160ff8b5460081c166108dc816130c1565b6130c1565b6108ea33613121565b89549861091260ff8b60081c16610900816130c1565b610909816130c1565b600180556130c1565b6001600160601b0360a01b978161013491168982541617905561012e91168782541617905561012f9086825416179055610130908582541617905561012d9084825416179055606435610132556084356101315561013390838254161790556101043561013a5561013b918254161790556101443561013c556101643561013d5561099b575080f35b61ff00191681557f7f26b83ff96e1f2b6a682f133852f6798a09c465da95921460cefb3847402498602060405160018152a180f35b61ffff1916610101178a555f6108c7565b60405162461bcd60e51b815260206004820152602e60248201527f496e697469616c697a61626c653a20636f6e747261637420697320616c72656160448201526d191e481a5b9a5d1a585b1a5e995960921b6064820152608490fd5b50303b1580156108b25750600160ff8216146108b2565b50600160ff8216106108ab565b5f80fd5b503461032c57602036600319011261032c576020906001600160a01b039060409082610a8f61273a565b1681526101358452205416604051908152f35b503461032c57602036600319011261032c57600435610abf612f22565b61013c5481106103e7576020817fc598615f3cd2c393145f278de5a6921fd815849d1ee5aab7b66bdda0efb33ada9261013d55604051908152a180f35b503461032c578060031936011261032c5761012e546040516001600160a01b039091168152602090f35b503461032c578060031936011261032c57602061013d54604051908152f35b503461032c57602036600319011261032c576040602091610b6461273a565b818351610b708161278d565b526001600160a01b031681526101378352206040519060ff90610b928361278d565b5416809152604051908152f35b503461032c578060031936011261032c5760206040517f62229496573be0b0846a2fb48a94de962b501adb0b8eaf7f99924b10a81a19fe8152f35b503461032c57604036600319011261032c577fc8242dc5446855370b781abbfc5d882af1d1a3cc29143216aba3558feb0ce9256040600435610c1a612750565b610c22612f22565b61013282905561012d80546001600160a01b0319166001600160a01b0392909216918217905582519182526020820152a180f35b503461032c57602036600319011261032c57604060209160ff610c77612892565b16815261013983522054604051908152f35b503461032c578060031936011261032c57602061013a54604051908152f35b503461032c57610cb7366129a8565b90610cc59692949396612b01565b60018060a01b039485841697885f5261013760205260405f2095600260ff610cef818a5416614bb9565b1603610de657610cfe8661519e565b60025f526101396020527fb43cc3dce73ad2c82cb640e429b0bd3222005d4a0d6ac642dad7ae5128bf1dc65411610dd4577f4e8e1b96afa9116446f71ff323ac93786664fcbea87475ece33519357750f790988a610da39760609a825f5261013560205260405f20908060028160038501541693610d978861013498610d8f8c878c54168861012d541630916138a8565b8730916138a8565b01541693541692614c0f565b915091805460ff610db5818316614bcb565b169060ff1916179055604051916002835260208301526040820152a280f35b604051639dc93e9f60e01b8152600490fd5b604051636dfb3ae160e01b8152600490fd5b503461032c578060031936011261032c57610133546040516001600160a01b039091168152602090f35b503461032c578060031936011261032c57602090604051908152f35b503461032c57604036600319011261032c576040610e5a612750565b91600435815260fb602052209060018060a01b03165f52602052602060ff60405f2054166040519015158152f35b503461032c578060031936011261032c576065546040516001600160a01b039091168152602090f35b503461032c576101a036600319011261032c57610ecc61273a565b6001600160401b0390602435828111610fa557610eed903690600401612835565b604435838111610fa157610f05903690600401612835565b606435848111610f9d57610f1d9036906004016128a2565b90608435858111610f9957610f36903690600401612835565b9260a435868111610f9557610f4f903690600401612835565b9460c435968711610f9557610f6b61031797369060040161290a565b610f73612b01565b6101843596610164359661014435966101243596610104359660e43596614684565b8780fd5b8680fd5b8580fd5b8480fd5b8380fd5b503461032c57604036600319011261032c57610fc3612750565b6001600160a01b0381168252610135602081905260408320600b015491929160ff16600381101561181d5760010361180b5761012e546101345460408051630fa0d38960e21b8152929091839182916110349133918a9160048035926001600160a01b039081169216908701613321565b0381736FAbAC8069BC09cAD727fe49157ad69729222e8B5af48015611800576117e2575b506110628361519e565b61013d541115611078575b602060405160018152f35b6001600160a01b038316825260205260408120600b8101805460ff166003811015610531576002146117d05760028201805460405163c66f245560e01b815293919291906001600160a01b0316602085600481845afa94851561179057869561179b575b50906020600492604051938480926316d3df1560e31b82525afa91821561179057869261175c575b5061012e54610134546001600160a01b039182169116736FAbAC8069BC09cAD727fe49157ad69729222e8B3b15610f955760405163e743240d60e01b8152600481019290925260248201526001600160a01b03881660448201528681606481736FAbAC8069BC09cAD727fe49157ad69729222e8B5af4801561172a57611749575b506001600160a01b0387163b15610f9d5760405163f1b50c1d60e01b81528681600481836001600160a01b038d165af1801561172a57908791611735575b50509061123c939291604080516111d9816127a8565b6002815281366020830137610134546001600160a01b03166111fa82613258565b526001600160a01b038a1661120e82613265565b5260018060a01b0361013354168251808099819463237c65f960e01b83528660048401526044830190613275565b6001602483015203915afa94851561172a5787956116e1575b50600301546001600160a01b031694853b15610f995760405163179a694160e11b81526001600160a01b03861660048201528781602481838b5af180156116d6579088916116c2575b50506113cc6113ba9160018060a01b036101345416938a5f9485809461137f604051916112ca836127a8565b6002835260403660208501378a6112e084613258565b526001600160a01b0386166112f484613265565b5261136c60405197611305896127a8565b6002895260403660208b01378261131b8a613258565b52806113268a613265565b5260405197611334896127a8565b6002895260403660208b01378361134a8a613258565b52816113558a613265565b52610133546001600160a01b039081169116614fea565b610133546001600160a01b03168b614fea565b6113de60018060a01b0361013354169460405198899788968795623c7cd360e91b87526001600488015260e0602488015260e4870190613275565b85810360031901604487015290614bdc565b83810360031901606485015290614bdc565b8260848301523060a48301524260c483015203925af19081156115f1578290839261160f575b508061141261141892613258565b50613265565b5061142d81886001600160a01b038916614fea565b863b1561160b57604051906340519a5360e01b825260048201528181602481838b5af180156115f1576115fc575b506040516370a0823160e01b8152306004820152956020876024816001600160a01b038d165afa9687156115f15782976115bd575b506040516370a0823160e01b815230600482015296602088602481875afa9283156115b1579261155d575b7f381d54fa425631e6266af114239150fae1d5db67bb65b4fa9ecc65013107e07e975080611543575b505080611523575b5050805460ff1916600217905580546001600160a01b0319166001600160a01b0392831690811790915593169180a35f808061106d565b61012d5461153c926001600160a01b0390911690614fb1565b5f806114ec565b611556916001600160a01b038b16614fb1565b5f806114e4565b91506020873d6020116115a9575b81611578602093836127f9565b81010312610a61577f381d54fa425631e6266af114239150fae1d5db67bb65b4fa9ecc65013107e07e9651916114bb565b3d915061156b565b604051903d90823e3d90fd5b9096506020813d6020116115e9575b816115d9602093836127f9565b81010312610a615751955f611490565b3d91506115cc565b6040513d84823e3d90fd5b61160590612766565b5f61145b565b5080fd5b9150503d908183823e61162282826127f9565b60408183810103126116be578051916001600160401b038311610fa557808201601f848401011215610fa557828201519061165c8261287b565b9361166a60405195866127f9565b8285526020850191840160208460051b838701010111610f9d57602081850101915b60208460051b838701010183106116ae57505050506020015190611418611404565b825181526020928301920161168c565b8280fd5b6116cb90612766565b610f9957865f61129e565b6040513d8a823e3d90fd5b9094506040813d604011611722575b816116fd604093836127f9565b81010312610f995761171a602061171383613244565b92016138f9565b50935f611255565b3d91506116f0565b6040513d89823e3d90fd5b61173e90612766565b610f9d57855f6111c3565b61175590969196612766565b945f611185565b9091506020813d602011611788575b81611778602093836127f9565b81010312610f9d5751905f611104565b3d915061176b565b6040513d88823e3d90fd5b9094506020813d6020116117c8575b816117b7602093836127f9565b81010312610f9d57519360206110dc565b3d91506117aa565b604051633a2cc0e960e11b8152600490fd5b6117fa9060403d6040116107965761078881836127f9565b50611058565b6040513d85823e3d90fd5b6040516305e1dfe360e11b8152600490fd5b634e487b7160e01b83526021600452602483fd5b503461032c578060031936011261032c5761013b546040516001600160a01b039091168152602090f35b503461032c57602036600319011261032c5760043561013680548210156116be579091527f39da2db355130acf428d669fbf1c14faa9d51399a25b793fc254bbbde66f02e201546040516001600160a01b039091168152602090f35b503461032c5760208060031936011261160b576118d261273a565b6118da612f22565b6040516301ca9e1160e71b81526001600160a01b03919091169190818160048187875af1908115611990578491611963575b50156119515761013b80546001600160a01b031916831790556040519182527f3f32684a32a11dabdbb8c0177de80aa3ae36a004d75210335b49e544e48cd0aa91a180f35b604051639589a27d60e01b8152600490fd5b90508181813d8311611989575b61197a81836127f9565b81010312610fa557515f61190c565b503d611970565b6040513d86823e3d90fd5b503461032c578060031936011261032c57609754336001600160a01b03909116036119c95761031733613121565b60405162461bcd60e51b815260206004820152602960248201527f4f776e61626c6532537465703a2063616c6c6572206973206e6f7420746865206044820152683732bb9037bbb732b960b91b6064820152608490fd5b503461032c578060031936011261032c57602061013654604051908152f35b503461032c57602036600319011261032c577f0454b4498edcb0a2c7058cfd107bb0e6551b3820f891c725db307ed66e740f206020611a7c61273a565b611a84612f22565b61013380546001600160a01b0319166001600160a01b03929092169182179055604051908152a180f35b503461032c57604036600319011261032c57610317611acb61273a565b611ad3612750565b90611adc612f22565b6145a4565b503461032c578060031936011261032c57611afa612f22565b60655481906001600160a01b0390611b13908216612e23565b6001600160601b0360a01b8060975416609755606554908116606555167f8be0079c531659141344cd1fd0a4f28419497f9722a3daafe3b4186f6b6457e08280a380805260fb6020526040812060205260ff60408220541615611b735780f35b60fb6020526040812060205260408120600160ff198254161790553381807f2f8788117e7eff1d82e926ec794901d17c78024a50270940304540a733656f0d8180a480f35b503461032c57602036600319011261032c577fedbbbd0f3b9ac5d8f4d9142fe0b31c73d786619eab0d7f8df600fe84282a4d436020600435611bf8612f22565b8061013155604051908152a180f35b503461032c578060031936011261032c57602061013854604051908152f35b503461032c57602036600319011261032c577f1edf3afd4ac789736e00d216cd88be164ddcef26a6eedcc30cdb0cb62f3741b16020611c6361273a565b611c6b612f22565b61012e80546001600160a01b0319166001600160a01b03929092169182179055604051908152a180f35b503461032c57604036600319011261032c576001600160401b036004358181116116be57611cc7903690600401612978565b9091602435908111610fa557611ce1903690600401612978565b9091611ceb612f22565b818103611d3257845b818110611cff578580f35b80611d2c611d18611d13600194868a614660565b614670565b611d26611d1384888a614660565b906145a4565b01611cf4565b6040516305e8333d60e11b8152600490fd5b503461032c57611d53366129a8565b90611d619692949396612b01565b60018060a01b039485841697888a5261013760205260408a2095600360ff611d8b818a5416614bb9565b1603610de657611d9a8661519e565b60038c5261013960205260408c205411610dd4577f4e8e1b96afa9116446f71ff323ac93786664fcbea87475ece33519357750f790988a611e0e9760609a60408f84815261013560205220908060028160038501541693610d978861013498610d8f8c878c54168861012d541630916138a8565b915091805460ff611e20818316614bcb565b169060ff1916179055604051916003835260208301526040820152a280f35b503461032c57602036600319011261032c576020906001600160a01b039060039060409083611e6c61273a565b168152610135855220015416604051908152f35b503461032c5761010036600319011261032c57611e9b61273a565b906001600160401b039060243582811161160b57611ebd903690600401612835565b916044358181116116be57611ed6903690600401612835565b606435828111610fa557611eee9036906004016128a2565b90608435838111610fa157611f07903690600401612835565b9260a435818111610f9d57611f20903690600401612835565b9460c43591821161032c57611f82611f56898989898989611f443660048c0161290a565b94611f4d6131ee565b60e43596613354565b60018055604080516001600160a01b039485168152939092166020840152908201529081906060820190565b0390f35b503461032c57604036600319011261032c57611fa0612750565b6001600160a01b03808216835261013560205260408320600b01549092919060ff16600381101561181d5760010361180b576040908361012e5416936101345416936120058351958693849363c682df7760e01b855233926004359160048701613321565b0381736FAbAC8069BC09cAD727fe49157ad69729222e8B5af49081156115b1575061203557602060405160018152f35b61204d9060403d6040116107965761078881836127f9565b5061106d565b503461032c57602036600319011261032c57602061207761207261273a565b61519e565b604051908152f35b503461032c5760e036600319011261032c576001600160401b036004358181116116be576120b1903690600401612835565b9160243582811161160b576120ca903690600401612835565b916044358181116116be576120e39036906004016128a2565b606435828111610fa5576120fb903690600401612835565b91608435818111610fa157612114903690600401612835565b9360a43591821161032c57611f82611f5688888888886121373660048b0161290a565b936121406131ee565b60c4359533613354565b503461032c578060031936011261032c57602061013c54604051908152f35b503461032c578060031936011261032c57602061013154604051908152f35b503461032c57602036600319011261032c576004356001600160401b03811161160b576121b9903690600401612978565b6121c4929192612f22565b600390818103611d3257825b60ff81168381101561220957906121ff612204926121f86121f084614bb9565b91868a614660565b359061510d565b614bcb565b6121d0565b8480f35b503461032c57604036600319011261032c57612227612750565b336001600160a01b038216036122435761031790600435612ead565b60405162461bcd60e51b815260206004820152602f60248201527f416363657373436f6e74726f6c3a2063616e206f6e6c792072656e6f756e636560448201526e103937b632b9903337b91039b2b63360891b6064820152608490fd5b503461032c57602036600319011261032c577fcf4be1c851767114c1f4b298dc84eab48d103473908393f6d408c82ba7cda0e860206122dd61273a565b6122e5612f22565b61012f80546001600160a01b0319166001600160a01b03929092169182179055604051908152a180f35b503461032c57604036600319011261032c5760043561232c612750565b81835260fb6020526123446001604085200154612d1a565b81835260fb602052604083209060018060a01b03169081845260205260ff60408420541615612371578280f35b81835260fb6020526040832081845260205260408320600160ff1982541617905533917f2f8788117e7eff1d82e926ec794901d17c78024a50270940304540a733656f0d8480a45f808280f35b503461032c57602036600319011261032c577fbdaa8f7ade01473981aef419539e6c190d409f50b144a7a796efd2777607920c60206123fb61273a565b612403612f22565b61013480546001600160a01b0319166001600160a01b03929092169182179055604051908152a180f35b503461032c57602036600319011261032c5760016040602092600435815260fb8452200154604051908152f35b503461032c578060031936011261032c57610130546040516001600160a01b039091168152602090f35b503461032c578060031936011261032c57610134546040516001600160a01b039091168152602090f35b503461032c57604036600319011261032c576124c861273a565b61012e546101345460408051631d486c9760e21b81526001600160a01b039384166004820152918316602480840191909152929093166044820152903560648201529190828060848101610738565b503461032c57602036600319011261032c5760043561013880548210156116be579091527ff79a63dcec80ed75c82f36161f17b9c2f407860160383a7be0a0ee7962c527ae01546040516001600160a01b039091168152602090f35b503461032c5761018036600319011261032c576001600160401b036004358181116116be576125a6903690600401612835565b602435828111610fa5576125be903690600401612835565b604435838111610fa1576125d69036906004016128a2565b606435848111610f9d576125ee903690600401612835565b90608435858111610f9957612607903690600401612835565b9260a435958611610f995761262361031796369060040161290a565b9461262c612b01565b610164359561014435956101243595610104359560e4359560c4359533614684565b503461032c57602036600319011261032c5760043563ffffffff60e01b811680910361160b57602090637965db0b60e01b8114908115612694575b506040519015158152f35b6301ffc9a760e01b14905082612689565b503461032c57602036600319011261032c577f3587ea62a24fc6959886ef88a458920ef0762b7ecbae1e87892c731869362d6960206126e261273a565b6126ea612f22565b61013080546001600160a01b0319166001600160a01b03929092169182179055604051908152a180f35b90503461160b578160031936011261160b5761012d546001600160a01b03168152602090f35b600435906001600160a01b0382168203610a6157565b602435906001600160a01b0382168203610a6157565b6001600160401b03811161277957604052565b634e487b7160e01b5f52604160045260245ffd5b602081019081106001600160401b0382111761277957604052565b606081019081106001600160401b0382111761277957604052565b604081019081106001600160401b0382111761277957604052565b608081019081106001600160401b0382111761277957604052565b90601f801991011681019081106001600160401b0382111761277957604052565b6001600160401b03811161277957601f01601f191660200190565b81601f82011215610a615780359061284c8261281a565b9261285a60405194856127f9565b82845260208383010111610a6157815f926020809301838601378301015290565b6001600160401b0381116127795760051b60200190565b6004359060ff82168203610a6157565b81601f82011215610a61578035916128b98361287b565b926128c760405194856127f9565b808452602092838086019260051b820101928311610a61578301905b8282106128f1575050505090565b813560ff81168103610a615781529083019083016128e3565b9080601f83011215610a6157604051916001600160401b03608084018181118582101761277957604052836080830192848411610a615780915b8483106129545750505050505090565b8235848111610a615760209161296d8884938601612835565b815201920191612944565b9181601f84011215610a61578235916001600160401b038311610a61576020808501948460051b010111610a6157565b60e0906003190112610a61576004356001600160a01b0381168103610a6157906024359060443590606435906084359060a4359060c43590565b90600182811c92168015612a10575b60208310146129fc57565b634e487b7160e01b5f52602260045260245ffd5b91607f16916129f1565b9060405191825f825492612a2d846129e2565b9081845260019485811690815f14612a985750600114612a58575b5050612a56925003836127f9565b565b909391505f52602090815f20935f915b818310612a80575050612a5693508201015f80612a48565b85548884018501529485019487945091830191612a68565b915050612a5694506020925060ff191682840152151560051b8201015f80612a48565b5f5b838110612acc5750505f910152565b8181015183820152602001612abd565b90602091612af581518092818552858086019101612abb565b601f01601f1916010190565b335f9081527f08f584bb5334faafa280854191c286de8f907d6af8dd5e653110c56d426e0054602090815260408083205490927f62229496573be0b0846a2fb48a94de962b501adb0b8eaf7f99924b10a81a19fe9160ff1615612b645750505050565b612b6d33612fc6565b91845190612b7a826127de565b60428252848201926060368537825115612d065760308453825190600191821015612d065790607860218501536041915b818311612c9957505050612c57576048612c53938693612c3793612c28985198899376020b1b1b2b9b9a1b7b73a3937b61d1030b1b1b7bab73a1604d1b8a860152612bff815180928c603789019101612abb565b8401917001034b99036b4b9b9b4b733903937b6329607d1b603784015251809386840190612abb565b010360288101875201856127f9565b5192839262461bcd60e51b845260048401526024830190612adc565b0390fd5b60648486519062461bcd60e51b825280600483015260248201527f537472696e67733a20686578206c656e67746820696e73756666696369656e746044820152fd5b909192600f81166010811015612cf2576f181899199a1a9b1b9c1cb0b131b232b360811b901a612cc98587612fa1565b5360041c928015612cde575f19019190612bab565b634e487b7160e01b82526011600452602482fd5b634e487b7160e01b83526032600452602483fd5b634e487b7160e01b81526032600452602490fd5b5f9080825260209060fb8252604092838120338252835260ff848220541615612d435750505050565b612d4c33612fc6565b91845190612d59826127de565b60428252848201926060368537825115612d065760308453825190600191821015612d065790607860218501536041915b818311612dde57505050612c57576048612c53938693612c3793612c28985198899376020b1b1b2b9b9a1b7b73a3937b61d1030b1b1b7bab73a1604d1b8a860152612bff815180928c603789019101612abb565b909192600f81166010811015612cf2576f181899199a1a9b1b9c1cb0b131b232b360811b901a612e0e8587612fa1565b5360041c928015612cde575f19019190612d8a565b6001600160a01b03165f8181527fc88390e7e62175be0932452175b6a7222b6b094ab0ef984a5153c620345d8975602052604081205490919060ff16612e67575050565b81805260fb602052604082208183526020526040822060ff19815416905533917ff6391f5c32d9c69d2a47ea670b442974b53935d1edc7fd64eb21e047a839171b8180a4565b905f9180835260fb602052604083209160018060a01b03169182845260205260ff604084205416612edd57505050565b80835260fb602052604083208284526020526040832060ff1981541690557ff6391f5c32d9c69d2a47ea670b442974b53935d1edc7fd64eb21e047a839171b339380a4565b6065546001600160a01b03163303612f3657565b606460405162461bcd60e51b815260206004820152602060248201527f4f776e61626c653a2063616c6c6572206973206e6f7420746865206f776e65726044820152fd5b81810292918115918404141715612f8d57565b634e487b7160e01b5f52601160045260245ffd5b908151811015612fb2570160200190565b634e487b7160e01b5f52603260045260245ffd5b60405190612fd3826127a8565b602a8252602082016040368237825115612fb257603090538151600190811015612fb257607860218401536029905b8082116130565750506130125790565b606460405162461bcd60e51b815260206004820152602060248201527f537472696e67733a20686578206c656e67746820696e73756666696369656e746044820152fd5b9091600f811660108110156130ad576f181899199a1a9b1b9c1cb0b131b232b360811b901a6130858486612fa1565b5360041c918015613099575f190190613002565b60245f634e487b7160e01b81526011600452fd5b60245f634e487b7160e01b81526032600452fd5b156130c857565b60405162461bcd60e51b815260206004820152602b60248201527f496e697469616c697a61626c653a20636f6e7472616374206973206e6f74206960448201526a6e697469616c697a696e6760a81b6064820152608490fd5b6065546001600160a01b0390613138908216612e23565b6001600160601b0360a01b8060975416609755816065549316918280928516176065555f93167f8be0079c531659141344cd1fd0a4f28419497f9722a3daafe3b4186f6b6457e08480a381805260fb6020526040822081835260205260ff604083205416156131a5575050565b81805260fb6020526040822081835260205260408220600160ff1982541617905533917f2f8788117e7eff1d82e926ec794901d17c78024a50270940304540a733656f0d8180a4565b6002600154146131ff576002600155565b60405162461bcd60e51b815260206004820152601f60248201527f5265656e7472616e637947756172643a207265656e7472616e742063616c6c006044820152606490fd5b51906001600160a01b0382168203610a6157565b805115612fb25760200190565b805160011015612fb25760400190565b9081518082526020808093019301915f5b828110613294575050505090565b83516001600160a01b031685529381019392810192600101613286565b90916132c86132dd93606084526060840190613275565b91600160208201526040818403910152612adc565b90565b81156132ea570490565b634e487b7160e01b5f52601260045260245ffd5b9190826040910312610a61576020825192015190565b91908203918211612f8d57565b6001600160a01b039182168152918116602083015260408201929092529181166060830152909116608082015260a00190565b610134546040516370a0823160e01b81523360048201525f9a9891979296919592949193906020816024816001600160a01b038d165afa801561389d578b918d91613864575b5010613852576133b7966101325498898061382f575b5050613ad0565b61012e54610134546040516364e329cb60e11b81526001600160a01b03808516600483015291821660248201529692939291602091889160449183918691165af195861561079d5781966137f3575b50604051613413816127a8565b600281526040366020830137610134546001600160a01b031661343582613258565b526001600160a01b03841661344982613265565b526101335460405163c45a015560e01b815290602090829060049082906001600160a01b03165afa9081156118005783916137b1575b506134ba916020916040519160018484015283835261349d836127c3565b85604051809681958294632a422c2b60e21b8452600484016132b1565b03926001600160a01b03165af180156115f157613778575b506001600160a01b0383163b1561032c57604051631e59818360e31b81526001600160a01b038781166004830152829082906024908290849089165af180156115f157613769575b509061013c54670de0b6b3a7640000908181029181830414901517156137555761013b546040516301ca9e1160e71b815291906020908390600490829088906001600160a01b03165af190811561199057849161371f575b61357c92506132e0565b61012e54610134546101315460408051630afbf7f360e01b81526001600160a01b03948516600482015292841660248401529287166044830152606482015260848101929092528160a481736FAbAC8069BC09cAD727fe49157ad69729222e8B5af48015611800579161366a91859493613701575b506001600160a01b038481168085526101356020908152604080872060020180546001600160a01b031916948d1694851790556101365481518181529283018890524291830191909152999291907f58d1495ede629d89cfe4c00a5ad620a9ba231de4b1a5040c7b355d43092ff86b90606090a3613314565b80613678575b505050929190565b61012e546101345460408051630fa0d38960e21b8152959093869384936136b5933393909290916001600160a01b03908116911660048701613321565b0381736FAbAC8069BC09cAD727fe49157ad69729222e8B5af49081156115b157506136e3575b808291613670565b6136fb9060403d6040116107965761078881836127f9565b506136db565b6137199060403d6040116107965761078881836127f9565b506135f1565b90506020823d60201161374d575b8161373a602093836127f9565b81010312610a615761357c915190613572565b3d915061372d565b634e487b7160e01b83526011600452602483fd5b61377290612766565b5f61351a565b6020813d6020116137a9575b81613791602093836127f9565b8101031261160b576137a290613244565b505f6134d2565b3d9150613784565b90506020813d6020116137eb575b816137cc602093836127f9565b810103126116be576134ba916137e3602092613244565b91509161347f565b3d91506137bf565b9095506020813d602011613827575b8161380f602093836127f9565b81010312610f9d5761382090613244565b945f613406565b3d9150613802565b61012d5461384b926001600160a01b03918216913391166138a8565b5f896133b0565b604051632ca2f52b60e11b8152600490fd5b9150506020813d602011613895575b81613880602093836127f9565b81010312613891578a90515f61339a565b8b80fd5b3d9150613873565b6040513d8e823e3d90fd5b6040516323b872dd60e01b60208201526001600160a01b0392831660248201529290911660448301526064820192909252612a56916138f482608481015b03601f1981018452836127f9565b613906565b51908115158203610a6157565b604051613963916001600160a01b031661391f826127c3565b5f806020958685527f5361666545524332303a206c6f772d6c6576656c2063616c6c206661696c656487860152868151910182855af161395d6139f2565b91613a21565b80518281159182156139d3575b505090501561397c5750565b6084906040519062461bcd60e51b82526004820152602a60248201527f5361666545524332303a204552433230206f7065726174696f6e20646964206e6044820152691bdd081cdd58d8d9595960b21b6064820152fd5b8380929350010312610a6157816139ea91016138f9565b80825f613970565b3d15613a1c573d90613a038261281a565b91613a1160405193846127f9565b82523d5f602084013e565b606090565b91929015613a835750815115613a35575090565b3b15613a3e5790565b60405162461bcd60e51b815260206004820152601d60248201527f416464726573733a2063616c6c20746f206e6f6e2d636f6e74726163740000006044820152606490fd5b825190915015613a965750805190602001fd5b60405162461bcd60e51b815260206004820152908190612c53906024830190612adc565b818110613ac5575050565b5f8155600101613aba565b9390613b689593979692602091613b565f60018060a01b0361012f541692613b2d602b60405183613b0a82955180928c8086019101612abb565b81016a08189e48125b9d1953995d60aa1b8a82015203600b8101845201826127f9565b610131546040516334f359f960e01b8152608060048201529b8c96879586946084860190612adc565b84810360031901602486015290612adc565b90604483015230606483015203925af194851561455d575f95614568575b50610130546101345461013a546040516309394e6160e11b81526001600160a01b03808a16600483015292831660248201523060448201526064810191909152969889979590929091602091879160849183915f91165af194851561455d575f95614521575b50835191602085015193606060408701519601519660405198896101808101106001600160401b036101808c011117612779576101808a0160405260018060a01b0316895260018060a01b038a1660208a01525f60408a015260018060a01b03166060890152608088015260a087015260c086015260e0850152610100840152610120830152610140820152600161016082015260018060a01b0382165f5261013560205260405f2060018060a01b038251166001600160601b0360a01b8254161781556001810160018060a01b036020840151166001600160601b0360a01b8254161790556002810160018060a01b036040840151166001600160601b0360a01b8254161790556003810160018060a01b036060840151166001600160601b0360a01b82541617905560808201518051906001600160401b038211612779578190613d3b60048501546129e2565b601f81116144ee575b50602090601f8311600114614480575f92614475575b50508160011b915f199060031b1c19161760048201555b60a08201518051906001600160401b03821161277957600160401b8211612779576020906005840154836005860155808410614421575b500190600583015f5260205f20905f5b8160051c81106143e25750601f1981168103614394575b50505060c08201518051906001600160401b038211612779578190613df760068501546129e2565b601f8111614361575b50602090601f83116001146142f3575f926142e8575b50508160011b915f199060031b1c19161760068201555b60e08201518051906001600160401b038211612779578190613e5260078501546129e2565b601f81116142b5575b50602090601f8311600114614247575f9261423c575b50508160011b915f199060031b1c19161760078201555b6101008201518051906001600160401b038211612779578190613eae60088501546129e2565b601f8111614209575b50602090601f831160011461419b575f92614190575b50508160011b915f199060031b1c19161760088201555b6101208201518051906001600160401b038211612779578190613f0a60098501546129e2565b601f811161415d575b50602090601f83116001146140ef575f926140e4575b50508160011b915f199060031b1c19161760098201555b600a81016101408301518051906001600160401b03821161277957613f6583546129e2565b601f81116140a9575b50602090601f831160011461403e579180600b949261016096945f92614033575b50508160011b915f199060031b1c19161790555b01910151600381101561401f5760ff80198354169116179055610136805490600160401b8210156127795760018201808255821015612fb2575f527f39da2db355130acf428d669fbf1c14faa9d51399a25b793fc254bbbde66f02e20180546001600160a01b0319166001600160a01b03909216919091179055565b634e487b7160e01b5f52602160045260245ffd5b015190505f80613f8f565b90601f19831691845f5260205f20925f5b81811061409157509260019285926101609896600b989610614079575b505050811b019055613fa3565b01515f1960f88460031b161c191690555f808061406c565b9293602060018192878601518155019501930161404f565b6140d490845f5260205f20601f850160051c810191602086106140da575b601f0160051c0190613aba565b5f613f6e565b90915081906140c7565b015190505f80613f29565b9250600984015f5260205f20905f935b601f1984168510614142576001945083601f1981161061412a575b505050811b016009820155613f40565b01515f1960f88460031b161c191690555f808061411a565b818101518355602094850194600190930192909101906140ff565b61418a90600986015f5260205f20601f850160051c810191602086106140da57601f0160051c0190613aba565b5f613f13565b015190505f80613ecd565b9250600884015f5260205f20905f935b601f19841685106141ee576001945083601f198116106141d6575b505050811b016008820155613ee4565b01515f1960f88460031b161c191690555f80806141c6565b818101518355602094850194600190930192909101906141ab565b61423690600886015f5260205f20601f850160051c810191602086106140da57601f0160051c0190613aba565b5f613eb7565b015190505f80613e71565b9250600784015f5260205f20905f935b601f198416851061429a576001945083601f19811610614282575b505050811b016007820155613e88565b01515f1960f88460031b161c191690555f8080614272565b81810151835560209485019460019093019290910190614257565b6142e290600786015f5260205f20601f850160051c810191602086106140da57601f0160051c0190613aba565b5f613e5b565b015190505f80613e16565b9250600684015f5260205f20905f935b601f1984168510614346576001945083601f1981161061432e575b505050811b016006820155613e2d565b01515f1960f88460031b161c191690555f808061431e565b81810151835560209485019460019093019290910190614303565b61438e90600686015f5260205f20601f850160051c810191602086106140da57601f0160051c0190613aba565b5f613e00565b5f925f5b601f198316830381106143b457505060051c01555f8080613dcf565b909360206143d96001928460ff895116919060ff809160031b9316831b921b19161790565b95019101614398565b5f805b602081106143fa575083820155600101613db8565b855190959160019160209160ff60038a901b81811b199092169216901b17920195016143e5565b61444f90600586015f52601f845f209181871680614455575b500160051c810190601f860160051c01613aba565b5f613da8565b5f199081848a0160051c86010191825491890360031b1c1690555f61443a565b015190505f80613d5a565b9250600484015f5260205f20905f935b601f19841685106144d3576001945083601f198116106144bb575b505050811b016004820155613d71565b01515f1960f88460031b161c191690555f80806144ab565b81810151835560209485019460019093019290910190614490565b61451b90600486015f5260205f20601f850160051c810191602086106140da57601f0160051c0190613aba565b5f613d44565b9094506020813d602011614555575b8161453d602093836127f9565b81010312610a615761454e90613244565b935f613bec565b3d9150614530565b6040513d5f823e3d90fd5b9094506020813d60201161459c575b81614584602093836127f9565b81010312610a615761459590613244565b935f613b86565b3d9150614577565b6001600160a01b0391821691905f90831561464e57821691828252610135602052600360408320015416801561463c57803b1561160b57818091602460405180948193631bf3091560e11b83528960048401525af180156115f157907f7363600ac233591b10e402fcff7bdaf80647430d9e03638e669d483495043322929161462d575b5080a3565b61463690612766565b5f614628565b60405163ab54b81360e01b8152600490fd5b60405163e04bb5d960e01b8152600490fd5b9190811015612fb25760051b0190565b356001600160a01b0381168103610a615790565b9594939291906020999d9b979c9860805261013b545f9a8b916004604051809481936301ca9e1160e71b835260018060a01b03165af18015614bae578b90614b76575b6146d49150608051612f7a565b808060011b0460021481151715614b625760018b5261013960205260408b205490670de0b6b3a764000091828102928184041490151715614b4e5760011b10614b3c5761472096613ad0565b6001600160a01b03811684526101356020526040808520905198919591906147478a6127a8565b60028a5260403660208c0137610134546001600160a01b03166147698b613258565b526001600160a01b03871661477d8b613265565b526101335460405163c45a015560e01b815290602090829060049082906001600160a01b03165afa90811561172a578791614af6575b506147f098999a602091604051916001848401528383526147d3836127c3565b89604051809d81958294632a422c2b60e21b8452600484016132b1565b03926001600160a01b03165af1978815611790578698614aba575b50600b8101805460ff19166002908117909155810180546001600160a01b0319166001600160a01b038a8116919091179091556003909101541696873b15610f9d5760405163179a694160e11b81526001600160a01b03821660048201528681602481838d5af1801561172a57614aa7575b5060405161488a8161278d565b600181526001600160a01b0388168752610137602052604087209051815460ff191660ff9190911617905561013854600160401b81101561277957600181018061013855811015612fb2576101385f527ff79a63dcec80ed75c82f36161f17b9c2f407860160383a7be0a0ee7962c527ae0180546001600160a01b0319166001600160a01b0389169081179091553b15610f9d5760405163f1b50c1d60e01b81528681600481836001600160a01b038d165af1801561172a57614a93575b506149dd9596979899610136546040519081526001602082015242604082015260018060a01b038316907f58d1495ede629d89cfe4c00a5ad620a9ba231de4b1a5040c7b355d43092ff86b606060018060a01b038d1692a36101345461012d546080516149c592909130916001600160a01b0391821691166138a8565b60805191898b60018060a01b03610134541692614c0f565b929150936149ee8561013154613314565b813b156116be5760405163da3e339760e01b81526001600160a01b038616600482015230602482015260448101919091529082908290606490829084905af180156115f157614a7f575b5050604080516001815260208101949094528301526001600160a01b0316907f4e8e1b96afa9116446f71ff323ac93786664fcbea87475ece33519357750f79090606090a2565b614a898291612766565b61032c5780614a38565b614a9d8791612766565b610f9d575f614948565b614ab390969196612766565b945f61487d565b9097506020813d602011614aee575b81614ad6602093836127f9565b81010312610f9d57614ae790613244565b965f61480b565b3d9150614ac9565b90506020813d602011614b34575b81614b11602093836127f9565b81010312610f99576147f098999a614b2a602092613244565b91509a99986147b3565b3d9150614b04565b604051634088b74160e01b8152600490fd5b634e487b7160e01b8c52601160045260248cfd5b634e487b7160e01b8b52601160045260248bfd5b506020813d602011614ba6575b81614b90602093836127f9565b81010312614ba2576146d490516146c7565b8a80fd5b3d9150614b83565b6040513d8d823e3d90fd5b60ff60019116019060ff8211612f8d57565b60ff1660ff8114612f8d5760010190565b9081518082526020808093019301915f5b828110614bfb575050505090565b835185529381019392810192600101614bed565b9897909996919392955f8096819560405191614c2a836127a8565b600283526040366020850137614c3f83613258565b6001600160a01b038c169052614c5483613265565b6001600160a01b038a16905260405194614c6d866127a8565b60028652604036602088013781614c8387613258565b5282614c8e87613265565b5260405197614c9c896127a8565b6002895260403660208b0137614cb189613258565b52614cbb88613265565b5261013380549092614cda916001600160a01b03908116908c16614fea565b8154614cf491906001600160a01b03908116908d16614fea565b54604051623c7cd360e91b81526001600482015260e060248201529b8c966001600160a01b039092169587958694919391614d339060e4870190613275565b906003199182878203016044880152614d4b91614bdc565b90858203016064860152614d5e91614bdc565b9160848401523060a484015260c483015203925af19687156115f15782958398614f1a575b5087614dad8183614d9d614d968b613258565b519a613265565b519a6001600160a01b0316614fea565b6001600160a01b03821690813b15610fa15784916024839260405194859384926340519a5360e01b845260048401525af1801561199057614f07575b506040516370a0823160e01b8082523060048301529091906020836024816001600160a01b0388165afa928315614efc578593614ec8575b506040519081523060048201526020816024816001600160a01b038a165afa9485156115b15794614e94575b5081614e7a575b50505080614e60575050565b61012d54612a56926001600160a01b039182169116614fb1565b614e8c926001600160a01b0316614fb1565b5f8080614e54565b9093506020813d602011614ec0575b81614eb0602093836127f9565b81010312610a615751925f614e4d565b3d9150614ea3565b9092506020813d602011614ef4575b81614ee4602093836127f9565b81010312610a615751915f614e21565b3d9150614ed7565b6040513d87823e3d90fd5b614f1390939193612766565b915f614de9565b955096503d8083873e614f2d81876127f9565b8501946040818703126116be5780516001600160401b038111610fa55781019580601f88011215610fa5578651614f638161287b565b97614f71604051998a6127f9565b8189526020808a019260051b820101928311610f9d57602001905b828210614fa15750505060200151965f614d83565b8151815260209182019101614f8c565b60405163a9059cbb60e01b60208201526001600160a01b0390921660248301526044820192909252612a56916138f482606481016138e6565b60405163095ea7b360e01b602082018181526001600160a01b0385166024840152604480840196909652948252949390926150266064856127f9565b83515f926001600160a01b039291858416918591829182855af1906150496139f2565b826150d3575b50816150c8575b5015615066575b50505050509050565b6040519660208801521660248601528060448601526044855260808501908582106001600160401b038311176150b457506150a993946138f49160405282613906565b805f8080808061505d565b634e487b7160e01b81526041600452602490fd5b90503b15155f615056565b805191925081159182156150eb575b5050905f61504f565b8192509060209181010312610fa157602061510691016138f9565b5f806150e2565b60ff16801561031a575f19810160ff8111612f8d5760ff165f52610139908160205260405f2054831115615178577f1d518eb390459a1912a9b14c91cc0e67b8449b23fe75f7766658bd86057cb1a392604092825f5260205280835f205582519182526020820152a1565b60405163aabd5a0960e01b8152600490fd5b51906001600160701b0382168203610a6157565b60018060a01b03809116905f9082825260209061013582526040918284209160ff600b8401541690600382101561543457811561542357908186939261013b54169483875180976301ca9e1160e71b82528160049b8c925af19586156154195785966153ea575b5085156153da576002015481169160010361532857509084869392815197888092630240bc6b60e21b82525afa801561531e57829683916152fb575b5095965b871580156152f3575b6152e35781908651948580926318160ddd60e01b82525afa9485156152d8575081946152a1575b50505061529d92615293670de0b6b3a7640000959361529893612f7a565b612f7a565b6132e0565b0490565b909180939450813d83116152d1575b6152ba81836127f9565b8101031261032c5750519082615293615298615275565b503d6152b0565b51913d9150823e3d90fd5b8551633dce448b60e11b81528490fd5b50861561524e565b9050615315919650853d87116107965761078881836127f9565b9590955f615241565b85513d84823e3d90fd5b95606081949392875192838092630240bc6b60e21b82525afa9081156153d0578390849261537b575b506001600160701b03809116911696610134541688105f1461537657955b9596615245565b61536f565b9150506060813d82116153c8575b81615396606093836127f9565b810103126116be576153a78161518a565b866153b384840161518a565b92015163ffffffff811603610fa5575f615351565b3d9150615389565b86513d85823e3d90fd5b8651631d59567b60e11b81528890fd5b9095508381813d8311615412575b61540281836127f9565b81010312610fa15751945f615205565b503d6153f8565b87513d87823e3d90fd5b845163c1ab6dc160e01b8152600490fd5b634e487b7160e01b86526021600452602486fdfea26469706673582212200b51befbf5d6b86387eeab4c2398208fdf5dd448a42f1d4774a858b9752ce16064736f6c63430008140033",
  "deployedBytecode": "0x60a0806040526004361015610012575f80fd5b5f90813560e01c908163017e7e58146127145750806301b964d2146126a557806301ffc9a71461264e57806302b6b15a146125735780630d63237f146125175780630d7a94f6146124ae5780631083f761146124845780631db9be1b1461245a578063248a9ca31461242d57806326bde5aa146123be5780632f2ff15d1461230f5780632f73a9f8146122a057806336568abe1461220d5780633744cfdd14612188578063378dc3dc146121695780633b5f19351461214a5780633c0b93aa1461207f57806341344d5d146120535780634189a68e14611f86578063456f5e1514611e805780634d86030314611e3f5780635481860514611d445780635823892a14611c955780635bb4780814611c265780635edb9eb014611c075780636140259614611bb8578063715018a614611ae157806372641aa614611aae57806377796ace14611a3f57806378a8956714611a2057806379ba50971461199b5780637adbf973146118b75780637c13774b1461185b5780637dc0d1d0146118315780637deb602514610fa95780637f7ee43114610eb15780638da5cb5b14610e8857806391d1485414610e3e578063a217fddf14610e22578063a240de0314610df8578063a3e01ce314610ca8578063a8b3820514610c89578063ae29d56814610c56578063b4f2e8b814610bda578063b758ba8814610b9f578063c17ac35a14610b45578063c1ba290714610b26578063c45a015514610afc578063c75ed64414610aa2578063c78418b914610a65578063c8379f8114610826578063d547741f146107e8578063d723a3d2146107aa578063d98b2f5c146106d3578063ddca3f43146106b4578063df1dcaa914610646578063e30c39781461061d578063e77772fe146105f3578063e84ca7cb146105b3578063f2fde38b14610545578063f5dab711146103f9578063f943ce0714610391578063fa1653bd1461032f5763feab61eb146102de575f80fd5b3461032c57604036600319011261032c576102f7612892565b6102ff612f22565b600360ff82161161031a57610317906024359061510d565b80f35b60405163e82a532960e01b8152600490fd5b80fd5b503461032c57602036600319011261032c576001600160a01b0361035161273a565b16815261013560205260ff600b6040832001541690600382101561037d57602082600260405191148152f35b634e487b7160e01b81526021600452602490fd5b503461032c57602036600319011261032c576004356103ae612f22565b80156103e7576020817f51dfcc99f9c590c7a4bcf74fc4e9ae6b407ec6689eb354e3215563a0b5bcd00d9261013c55604051908152a180f35b6040516338c51d2560e21b8152600490fd5b503461032c57602036600319011261032c576001600160a01b038061041c61273a565b16825261013560205260408220908082541691816001820154169180600283015416906003830154166004830161045290612a1a565b61045e60068501612a1a565b61046a60078601612a1a565b9161047760088701612a1a565b9361048460098801612a1a565b95610491600a8901612a1a565b97600b015460ff16986040519a8b5260208b015260408a015260608901526101608060808a015288016104c391612adc565b87810360a08901526104d491612adc565b86810360c08801526104e591612adc565b85810360e08701526104f691612adc565b84810361010086015261050891612adc565b83810361012085015261051a91612adc565b906003811015610531578293506101408301520390f35b634e487b7160e01b84526021600452602484fd5b503461032c57602036600319011261032c5761055f61273a565b610567612f22565b609780546001600160a01b0319166001600160a01b039283169081179091556065549091167f38d16b8cac22d99fc7c124b9cd0de2d3fa1faef420bfe791d8c362d765e227008380a380f35b503461032c57602036600319011261032c5760209060ff906040906001600160a01b036105de61273a565b16815261013784522054161515604051908152f35b503461032c578060031936011261032c5761012f546040516001600160a01b039091168152602090f35b503461032c578060031936011261032c576097546040516001600160a01b039091168152602090f35b503461032c57602036600319011261032c57600435610663612f22565b6301e133808111156106a2576020817fbeaba78e9fea37c532e9c93af5e8e120a48902131aeb7d3146e3ca49dec45a239261013a55604051908152a180f35b60405163abf20e8f60e01b8152600490fd5b503461032c578060031936011261032c57602061013254604051908152f35b503461032c57604036600319011261032c576106ed61273a565b61012e54610134546040805163a6b8918760e01b81526001600160a01b0393841660048201529183166024808401919091529290931660448201529035606482015291908280608481015b038173__$57bf2248a10612b83e4be7103a658af84f$__5af4801561079d57604092829161076e575b5082519182526020820152f35b90506107909150823d8411610796575b61078881836127f9565b8101906132fe565b5f610761565b503d61077e565b50604051903d90823e3d90fd5b503461032c57602036600319011261032c5760209060ff906040906001600160a01b036107d561273a565b1681526101378452205416604051908152f35b503461032c57604036600319011261032c57610317600435610808612750565b9080845260fb6020526108216001604086200154612d1a565b612ead565b503461032c5761018036600319011261032c5761084161273a565b610849612750565b6001600160a01b039160443583811690819003610a615760a435848116809103610a615760c43591858316809303610a615760e435868116809103610a61576101243593878516809503610a615788549660ff8860081c161597888099610a54575b8015610a3d575b156109e15760ff1981166001178b55886109d0575b506108e160ff8b5460081c166108dc816130c1565b6130c1565b6108ea33613121565b89549861091260ff8b60081c16610900816130c1565b610909816130c1565b600180556130c1565b6001600160601b0360a01b978161013491168982541617905561012e91168782541617905561012f9086825416179055610130908582541617905561012d9084825416179055606435610132556084356101315561013390838254161790556101043561013a5561013b918254161790556101443561013c556101643561013d5561099b575080f35b61ff00191681557f7f26b83ff96e1f2b6a682f133852f6798a09c465da95921460cefb3847402498602060405160018152a180f35b61ffff1916610101178a555f6108c7565b60405162461bcd60e51b815260206004820152602e60248201527f496e697469616c697a61626c653a20636f6e747261637420697320616c72656160448201526d191e481a5b9a5d1a585b1a5e995960921b6064820152608490fd5b50303b1580156108b25750600160ff8216146108b2565b50600160ff8216106108ab565b5f80fd5b503461032c57602036600319011261032c576020906001600160a01b039060409082610a8f61273a565b1681526101358452205416604051908152f35b503461032c57602036600319011261032c57600435610abf612f22565b61013c5481106103e7576020817fc598615f3cd2c393145f278de5a6921fd815849d1ee5aab7b66bdda0efb33ada9261013d55604051908152a180f35b503461032c578060031936011261032c5761012e546040516001600160a01b039091168152602090f35b503461032c578060031936011261032c57602061013d54604051908152f35b503461032c57602036600319011261032c576040602091610b6461273a565b818351610b708161278d565b526001600160a01b031681526101378352206040519060ff90610b928361278d565b5416809152604051908152f35b503461032c578060031936011261032c5760206040517f62229496573be0b0846a2fb48a94de962b501adb0b8eaf7f99924b10a81a19fe8152f35b503461032c57604036600319011261032c577fc8242dc5446855370b781abbfc5d882af1d1a3cc29143216aba3558feb0ce9256040600435610c1a612750565b610c22612f22565b61013282905561012d80546001600160a01b0319166001600160a01b0392909216918217905582519182526020820152a180f35b503461032c57602036600319011261032c57604060209160ff610c77612892565b16815261013983522054604051908152f35b503461032c578060031936011261032c57602061013a54604051908152f35b503461032c57610cb7366129a8565b90610cc59692949396612b01565b60018060a01b039485841697885f5261013760205260405f2095600260ff610cef818a5416614bb9565b1603610de657610cfe8661519e565b60025f526101396020527fb43cc3dce73ad2c82cb640e429b0bd3222005d4a0d6ac642dad7ae5128bf1dc65411610dd4577f4e8e1b96afa9116446f71ff323ac93786664fcbea87475ece33519357750f790988a610da39760609a825f5261013560205260405f20908060028160038501541693610d978861013498610d8f8c878c54168861012d541630916138a8565b8730916138a8565b01541693541692614c0f565b915091805460ff610db5818316614bcb565b169060ff1916179055604051916002835260208301526040820152a280f35b604051639dc93e9f60e01b8152600490fd5b604051636dfb3ae160e01b8152600490fd5b503461032c578060031936011261032c57610133546040516001600160a01b039091168152602090f35b503461032c578060031936011261032c57602090604051908152f35b503461032c57604036600319011261032c576040610e5a612750565b91600435815260fb602052209060018060a01b03165f52602052602060ff60405f2054166040519015158152f35b503461032c578060031936011261032c576065546040516001600160a01b039091168152602090f35b503461032c576101a036600319011261032c57610ecc61273a565b6001600160401b0390602435828111610fa557610eed903690600401612835565b604435838111610fa157610f05903690600401612835565b606435848111610f9d57610f1d9036906004016128a2565b90608435858111610f9957610f36903690600401612835565b9260a435868111610f9557610f4f903690600401612835565b9460c435968711610f9557610f6b61031797369060040161290a565b610f73612b01565b6101843596610164359661014435966101243596610104359660e43596614684565b8780fd5b8680fd5b8580fd5b8480fd5b8380fd5b503461032c57604036600319011261032c57610fc3612750565b6001600160a01b0381168252610135602081905260408320600b015491929160ff16600381101561181d5760010361180b5761012e546101345460408051630fa0d38960e21b8152929091839182916110349133918a9160048035926001600160a01b039081169216908701613321565b038173__$57bf2248a10612b83e4be7103a658af84f$__5af48015611800576117e2575b506110628361519e565b61013d541115611078575b602060405160018152f35b6001600160a01b038316825260205260408120600b8101805460ff166003811015610531576002146117d05760028201805460405163c66f245560e01b815293919291906001600160a01b0316602085600481845afa94851561179057869561179b575b50906020600492604051938480926316d3df1560e31b82525afa91821561179057869261175c575b5061012e54610134546001600160a01b03918216911673__$57bf2248a10612b83e4be7103a658af84f$__3b15610f955760405163e743240d60e01b8152600481019290925260248201526001600160a01b0388166044820152868160648173__$57bf2248a10612b83e4be7103a658af84f$__5af4801561172a57611749575b506001600160a01b0387163b15610f9d5760405163f1b50c1d60e01b81528681600481836001600160a01b038d165af1801561172a57908791611735575b50509061123c939291604080516111d9816127a8565b6002815281366020830137610134546001600160a01b03166111fa82613258565b526001600160a01b038a1661120e82613265565b5260018060a01b0361013354168251808099819463237c65f960e01b83528660048401526044830190613275565b6001602483015203915afa94851561172a5787956116e1575b50600301546001600160a01b031694853b15610f995760405163179a694160e11b81526001600160a01b03861660048201528781602481838b5af180156116d6579088916116c2575b50506113cc6113ba9160018060a01b036101345416938a5f9485809461137f604051916112ca836127a8565b6002835260403660208501378a6112e084613258565b526001600160a01b0386166112f484613265565b5261136c60405197611305896127a8565b6002895260403660208b01378261131b8a613258565b52806113268a613265565b5260405197611334896127a8565b6002895260403660208b01378361134a8a613258565b52816113558a613265565b52610133546001600160a01b039081169116614fea565b610133546001600160a01b03168b614fea565b6113de60018060a01b0361013354169460405198899788968795623c7cd360e91b87526001600488015260e0602488015260e4870190613275565b85810360031901604487015290614bdc565b83810360031901606485015290614bdc565b8260848301523060a48301524260c483015203925af19081156115f1578290839261160f575b508061141261141892613258565b50613265565b5061142d81886001600160a01b038916614fea565b863b1561160b57604051906340519a5360e01b825260048201528181602481838b5af180156115f1576115fc575b506040516370a0823160e01b8152306004820152956020876024816001600160a01b038d165afa9687156115f15782976115bd575b506040516370a0823160e01b815230600482015296602088602481875afa9283156115b1579261155d575b7f381d54fa425631e6266af114239150fae1d5db67bb65b4fa9ecc65013107e07e975080611543575b505080611523575b5050805460ff1916600217905580546001600160a01b0319166001600160a01b0392831690811790915593169180a35f808061106d565b61012d5461153c926001600160a01b0390911690614fb1565b5f806114ec565b611556916001600160a01b038b16614fb1565b5f806114e4565b91506020873d6020116115a9575b81611578602093836127f9565b81010312610a61577f381d54fa425631e6266af114239150fae1d5db67bb65b4fa9ecc65013107e07e9651916114bb565b3d915061156b565b604051903d90823e3d90fd5b9096506020813d6020116115e9575b816115d9602093836127f9565b81010312610a615751955f611490565b3d91506115cc565b6040513d84823e3d90fd5b61160590612766565b5f61145b565b5080fd5b9150503d908183823e61162282826127f9565b60408183810103126116be578051916001600160401b038311610fa557808201601f848401011215610fa557828201519061165c8261287b565b9361166a60405195866127f9565b8285526020850191840160208460051b838701010111610f9d57602081850101915b60208460051b838701010183106116ae57505050506020015190611418611404565b825181526020928301920161168c565b8280fd5b6116cb90612766565b610f9957865f61129e565b6040513d8a823e3d90fd5b9094506040813d604011611722575b816116fd604093836127f9565b81010312610f995761171a602061171383613244565b92016138f9565b50935f611255565b3d91506116f0565b6040513d89823e3d90fd5b61173e90612766565b610f9d57855f6111c3565b61175590969196612766565b945f611185565b9091506020813d602011611788575b81611778602093836127f9565b81010312610f9d5751905f611104565b3d915061176b565b6040513d88823e3d90fd5b9094506020813d6020116117c8575b816117b7602093836127f9565b81010312610f9d57519360206110dc565b3d91506117aa565b604051633a2cc0e960e11b8152600490fd5b6117fa9060403d6040116107965761078881836127f9565b50611058565b6040513d85823e3d90fd5b6040516305e1dfe360e11b8152600490fd5b634e487b7160e01b83526021600452602483fd5b503461032c578060031936011261032c5761013b546040516001600160a01b039091168152602090f35b503461032c57602036600319011261032c5760043561013680548210156116be579091527f39da2db355130acf428d669fbf1c14faa9d51399a25b793fc254bbbde66f02e201546040516001600160a01b039091168152602090f35b503461032c5760208060031936011261160b576118d261273a565b6118da612f22565b6040516301ca9e1160e71b81526001600160a01b03919091169190818160048187875af1908115611990578491611963575b50156119515761013b80546001600160a01b031916831790556040519182527f3f32684a32a11dabdbb8c0177de80aa3ae36a004d75210335b49e544e48cd0aa91a180f35b604051639589a27d60e01b8152600490fd5b90508181813d8311611989575b61197a81836127f9565b81010312610fa557515f61190c565b503d611970565b6040513d86823e3d90fd5b503461032c578060031936011261032c57609754336001600160a01b03909116036119c95761031733613121565b60405162461bcd60e51b815260206004820152602960248201527f4f776e61626c6532537465703a2063616c6c6572206973206e6f7420746865206044820152683732bb9037bbb732b960b91b6064820152608490fd5b503461032c578060031936011261032c57602061013654604051908152f35b503461032c57602036600319011261032c577f0454b4498edcb0a2c7058cfd107bb0e6551b3820f891c725db307ed66e740f206020611a7c61273a565b611a84612f22565b61013380546001600160a01b0319166001600160a01b03929092169182179055604051908152a180f35b503461032c57604036600319011261032c57610317611acb61273a565b611ad3612750565b90611adc612f22565b6145a4565b503461032c578060031936011261032c57611afa612f22565b60655481906001600160a01b0390611b13908216612e23565b6001600160601b0360a01b8060975416609755606554908116606555167f8be0079c531659141344cd1fd0a4f28419497f9722a3daafe3b4186f6b6457e08280a380805260fb6020526040812060205260ff60408220541615611b735780f35b60fb6020526040812060205260408120600160ff198254161790553381807f2f8788117e7eff1d82e926ec794901d17c78024a50270940304540a733656f0d8180a480f35b503461032c57602036600319011261032c577fedbbbd0f3b9ac5d8f4d9142fe0b31c73d786619eab0d7f8df600fe84282a4d436020600435611bf8612f22565b8061013155604051908152a180f35b503461032c578060031936011261032c57602061013854604051908152f35b503461032c57602036600319011261032c577f1edf3afd4ac789736e00d216cd88be164ddcef26a6eedcc30cdb0cb62f3741b16020611c6361273a565b611c6b612f22565b61012e80546001600160a01b0319166001600160a01b03929092169182179055604051908152a180f35b503461032c57604036600319011261032c576001600160401b036004358181116116be57611cc7903690600401612978565b9091602435908111610fa557611ce1903690600401612978565b9091611ceb612f22565b818103611d3257845b818110611cff578580f35b80611d2c611d18611d13600194868a614660565b614670565b611d26611d1384888a614660565b906145a4565b01611cf4565b6040516305e8333d60e11b8152600490fd5b503461032c57611d53366129a8565b90611d619692949396612b01565b60018060a01b039485841697888a5261013760205260408a2095600360ff611d8b818a5416614bb9565b1603610de657611d9a8661519e565b60038c5261013960205260408c205411610dd4577f4e8e1b96afa9116446f71ff323ac93786664fcbea87475ece33519357750f790988a611e0e9760609a60408f84815261013560205220908060028160038501541693610d978861013498610d8f8c878c54168861012d541630916138a8565b915091805460ff611e20818316614bcb565b169060ff1916179055604051916003835260208301526040820152a280f35b503461032c57602036600319011261032c576020906001600160a01b039060039060409083611e6c61273a565b168152610135855220015416604051908152f35b503461032c5761010036600319011261032c57611e9b61273a565b906001600160401b039060243582811161160b57611ebd903690600401612835565b916044358181116116be57611ed6903690600401612835565b606435828111610fa557611eee9036906004016128a2565b90608435838111610fa157611f07903690600401612835565b9260a435818111610f9d57611f20903690600401612835565b9460c43591821161032c57611f82611f56898989898989611f443660048c0161290a565b94611f4d6131ee565b60e43596613354565b60018055604080516001600160a01b039485168152939092166020840152908201529081906060820190565b0390f35b503461032c57604036600319011261032c57611fa0612750565b6001600160a01b03808216835261013560205260408320600b01549092919060ff16600381101561181d5760010361180b576040908361012e5416936101345416936120058351958693849363c682df7760e01b855233926004359160048701613321565b038173__$57bf2248a10612b83e4be7103a658af84f$__5af49081156115b1575061203557602060405160018152f35b61204d9060403d6040116107965761078881836127f9565b5061106d565b503461032c57602036600319011261032c57602061207761207261273a565b61519e565b604051908152f35b503461032c5760e036600319011261032c576001600160401b036004358181116116be576120b1903690600401612835565b9160243582811161160b576120ca903690600401612835565b916044358181116116be576120e39036906004016128a2565b606435828111610fa5576120fb903690600401612835565b91608435818111610fa157612114903690600401612835565b9360a43591821161032c57611f82611f5688888888886121373660048b0161290a565b936121406131ee565b60c4359533613354565b503461032c578060031936011261032c57602061013c54604051908152f35b503461032c578060031936011261032c57602061013154604051908152f35b503461032c57602036600319011261032c576004356001600160401b03811161160b576121b9903690600401612978565b6121c4929192612f22565b600390818103611d3257825b60ff81168381101561220957906121ff612204926121f86121f084614bb9565b91868a614660565b359061510d565b614bcb565b6121d0565b8480f35b503461032c57604036600319011261032c57612227612750565b336001600160a01b038216036122435761031790600435612ead565b60405162461bcd60e51b815260206004820152602f60248201527f416363657373436f6e74726f6c3a2063616e206f6e6c792072656e6f756e636560448201526e103937b632b9903337b91039b2b63360891b6064820152608490fd5b503461032c57602036600319011261032c577fcf4be1c851767114c1f4b298dc84eab48d103473908393f6d408c82ba7cda0e860206122dd61273a565b6122e5612f22565b61012f80546001600160a01b0319166001600160a01b03929092169182179055604051908152a180f35b503461032c57604036600319011261032c5760043561232c612750565b81835260fb6020526123446001604085200154612d1a565b81835260fb602052604083209060018060a01b03169081845260205260ff60408420541615612371578280f35b81835260fb6020526040832081845260205260408320600160ff1982541617905533917f2f8788117e7eff1d82e926ec794901d17c78024a50270940304540a733656f0d8480a45f808280f35b503461032c57602036600319011261032c577fbdaa8f7ade01473981aef419539e6c190d409f50b144a7a796efd2777607920c60206123fb61273a565b612403612f22565b61013480546001600160a01b0319166001600160a01b03929092169182179055604051908152a180f35b503461032c57602036600319011261032c5760016040602092600435815260fb8452200154604051908152f35b503461032c578060031936011261032c57610130546040516001600160a01b039091168152602090f35b503461032c578060031936011261032c57610134546040516001600160a01b039091168152602090f35b503461032c57604036600319011261032c576124c861273a565b61012e546101345460408051631d486c9760e21b81526001600160a01b039384166004820152918316602480840191909152929093166044820152903560648201529190828060848101610738565b503461032c57602036600319011261032c5760043561013880548210156116be579091527ff79a63dcec80ed75c82f36161f17b9c2f407860160383a7be0a0ee7962c527ae01546040516001600160a01b039091168152602090f35b503461032c5761018036600319011261032c576001600160401b036004358181116116be576125a6903690600401612835565b602435828111610fa5576125be903690600401612835565b604435838111610fa1576125d69036906004016128a2565b606435848111610f9d576125ee903690600401612835565b90608435858111610f9957612607903690600401612835565b9260a435958611610f995761262361031796369060040161290a565b9461262c612b01565b610164359561014435956101243595610104359560e4359560c4359533614684565b503461032c57602036600319011261032c5760043563ffffffff60e01b811680910361160b57602090637965db0b60e01b8114908115612694575b506040519015158152f35b6301ffc9a760e01b14905082612689565b503461032c57602036600319011261032c577f3587ea62a24fc6959886ef88a458920ef0762b7ecbae1e87892c731869362d6960206126e261273a565b6126ea612f22565b61013080546001600160a01b0319166001600160a01b03929092169182179055604051908152a180f35b90503461160b578160031936011261160b5761012d546001600160a01b03168152602090f35b600435906001600160a01b0382168203610a6157565b602435906001600160a01b0382168203610a6157565b6001600160401b03811161277957604052565b634e487b7160e01b5f52604160045260245ffd5b602081019081106001600160401b0382111761277957604052565b606081019081106001600160401b0382111761277957604052565b604081019081106001600160401b0382111761277957604052565b608081019081106001600160401b0382111761277957604052565b90601f801991011681019081106001600160401b0382111761277957604052565b6001600160401b03811161277957601f01601f191660200190565b81601f82011215610a615780359061284c8261281a565b9261285a60405194856127f9565b82845260208383010111610a6157815f926020809301838601378301015290565b6001600160401b0381116127795760051b60200190565b6004359060ff82168203610a6157565b81601f82011215610a61578035916128b98361287b565b926128c760405194856127f9565b808452602092838086019260051b820101928311610a61578301905b8282106128f1575050505090565b813560ff81168103610a615781529083019083016128e3565b9080601f83011215610a6157604051916001600160401b03608084018181118582101761277957604052836080830192848411610a615780915b8483106129545750505050505090565b8235848111610a615760209161296d8884938601612835565b815201920191612944565b9181601f84011215610a61578235916001600160401b038311610a61576020808501948460051b010111610a6157565b60e0906003190112610a61576004356001600160a01b0381168103610a6157906024359060443590606435906084359060a4359060c43590565b90600182811c92168015612a10575b60208310146129fc57565b634e487b7160e01b5f52602260045260245ffd5b91607f16916129f1565b9060405191825f825492612a2d846129e2565b9081845260019485811690815f14612a985750600114612a58575b5050612a56925003836127f9565b565b909391505f52602090815f20935f915b818310612a80575050612a5693508201015f80612a48565b85548884018501529485019487945091830191612a68565b915050612a5694506020925060ff191682840152151560051b8201015f80612a48565b5f5b838110612acc5750505f910152565b8181015183820152602001612abd565b90602091612af581518092818552858086019101612abb565b601f01601f1916010190565b335f9081527f08f584bb5334faafa280854191c286de8f907d6af8dd5e653110c56d426e0054602090815260408083205490927f62229496573be0b0846a2fb48a94de962b501adb0b8eaf7f99924b10a81a19fe9160ff1615612b645750505050565b612b6d33612fc6565b91845190612b7a826127de565b60428252848201926060368537825115612d065760308453825190600191821015612d065790607860218501536041915b818311612c9957505050612c57576048612c53938693612c3793612c28985198899376020b1b1b2b9b9a1b7b73a3937b61d1030b1b1b7bab73a1604d1b8a860152612bff815180928c603789019101612abb565b8401917001034b99036b4b9b9b4b733903937b6329607d1b603784015251809386840190612abb565b010360288101875201856127f9565b5192839262461bcd60e51b845260048401526024830190612adc565b0390fd5b60648486519062461bcd60e51b825280600483015260248201527f537472696e67733a20686578206c656e67746820696e73756666696369656e746044820152fd5b909192600f81166010811015612cf2576f181899199a1a9b1b9c1cb0b131b232b360811b901a612cc98587612fa1565b5360041c928015612cde575f19019190612bab565b634e487b7160e01b82526011600452602482fd5b634e487b7160e01b83526032600452602483fd5b634e487b7160e01b81526032600452602490fd5b5f9080825260209060fb8252604092838120338252835260ff848220541615612d435750505050565b612d4c33612fc6565b91845190612d59826127de565b60428252848201926060368537825115612d065760308453825190600191821015612d065790607860218501536041915b818311612dde57505050612c57576048612c53938693612c3793612c28985198899376020b1b1b2b9b9a1b7b73a3937b61d1030b1b1b7bab73a1604d1b8a860152612bff815180928c603789019101612abb565b909192600f81166010811015612cf2576f181899199a1a9b1b9c1cb0b131b232b360811b901a612e0e8587612fa1565b5360041c928015612cde575f19019190612d8a565b6001600160a01b03165f8181527fc88390e7e62175be0932452175b6a7222b6b094ab0ef984a5153c620345d8975602052604081205490919060ff16612e67575050565b81805260fb602052604082208183526020526040822060ff19815416905533917ff6391f5c32d9c69d2a47ea670b442974b53935d1edc7fd64eb21e047a839171b8180a4565b905f9180835260fb602052604083209160018060a01b03169182845260205260ff604084205416612edd57505050565b80835260fb602052604083208284526020526040832060ff1981541690557ff6391f5c32d9c69d2a47ea670b442974b53935d1edc7fd64eb21e047a839171b339380a4565b6065546001600160a01b03163303612f3657565b606460405162461bcd60e51b815260206004820152602060248201527f4f776e61626c653a2063616c6c6572206973206e6f7420746865206f776e65726044820152fd5b81810292918115918404141715612f8d57565b634e487b7160e01b5f52601160045260245ffd5b908151811015612fb2570160200190565b634e487b7160e01b5f52603260045260245ffd5b60405190612fd3826127a8565b602a8252602082016040368237825115612fb257603090538151600190811015612fb257607860218401536029905b8082116130565750506130125790565b606460405162461bcd60e51b815260206004820152602060248201527f537472696e67733a20686578206c656e67746820696e73756666696369656e746044820152fd5b9091600f811660108110156130ad576f181899199a1a9b1b9c1cb0b131b232b360811b901a6130858486612fa1565b5360041c918015613099575f190190613002565b60245f634e487b7160e01b81526011600452fd5b60245f634e487b7160e01b81526032600452fd5b156130c857565b60405162461bcd60e51b815260206004820152602b60248201527f496e697469616c697a61626c653a20636f6e7472616374206973206e6f74206960448201526a6e697469616c697a696e6760a81b6064820152608490fd5b6065546001600160a01b0390613138908216612e23565b6001600160601b0360a01b8060975416609755816065549316918280928516176065555f93167f8be0079c531659141344cd1fd0a4f28419497f9722a3daafe3b4186f6b6457e08480a381805260fb6020526040822081835260205260ff604083205416156131a5575050565b81805260fb6020526040822081835260205260408220600160ff1982541617905533917f2f8788117e7eff1d82e926ec794901d17c78024a50270940304540a733656f0d8180a4565b6002600154146131ff576002600155565b60405162461bcd60e51b815260206004820152601f60248201527f5265656e7472616e637947756172643a207265656e7472616e742063616c6c006044820152606490fd5b51906001600160a01b0382168203610a6157565b805115612fb25760200190565b805160011015612fb25760400190565b9081518082526020808093019301915f5b828110613294575050505090565b83516001600160a01b031685529381019392810192600101613286565b90916132c86132dd93606084526060840190613275565b91600160208201526040818403910152612adc565b90565b81156132ea570490565b634e487b7160e01b5f52601260045260245ffd5b9190826040910312610a61576020825192015190565b91908203918211612f8d57565b6001600160a01b039182168152918116602083015260408201929092529181166060830152909116608082015260a00190565b610134546040516370a0823160e01b81523360048201525f9a9891979296919592949193906020816024816001600160a01b038d165afa801561389d578b918d91613864575b5010613852576133b7966101325498898061382f575b5050613ad0565b61012e54610134546040516364e329cb60e11b81526001600160a01b03808516600483015291821660248201529692939291602091889160449183918691165af195861561079d5781966137f3575b50604051613413816127a8565b600281526040366020830137610134546001600160a01b031661343582613258565b526001600160a01b03841661344982613265565b526101335460405163c45a015560e01b815290602090829060049082906001600160a01b03165afa9081156118005783916137b1575b506134ba916020916040519160018484015283835261349d836127c3565b85604051809681958294632a422c2b60e21b8452600484016132b1565b03926001600160a01b03165af180156115f157613778575b506001600160a01b0383163b1561032c57604051631e59818360e31b81526001600160a01b038781166004830152829082906024908290849089165af180156115f157613769575b509061013c54670de0b6b3a7640000908181029181830414901517156137555761013b546040516301ca9e1160e71b815291906020908390600490829088906001600160a01b03165af190811561199057849161371f575b61357c92506132e0565b61012e54610134546101315460408051630afbf7f360e01b81526001600160a01b03948516600482015292841660248401529287166044830152606482015260848101929092528160a48173__$57bf2248a10612b83e4be7103a658af84f$__5af48015611800579161366a91859493613701575b506001600160a01b038481168085526101356020908152604080872060020180546001600160a01b031916948d1694851790556101365481518181529283018890524291830191909152999291907f58d1495ede629d89cfe4c00a5ad620a9ba231de4b1a5040c7b355d43092ff86b90606090a3613314565b80613678575b505050929190565b61012e546101345460408051630fa0d38960e21b8152959093869384936136b5933393909290916001600160a01b03908116911660048701613321565b038173__$57bf2248a10612b83e4be7103a658af84f$__5af49081156115b157506136e3575b808291613670565b6136fb9060403d6040116107965761078881836127f9565b506136db565b6137199060403d6040116107965761078881836127f9565b506135f1565b90506020823d60201161374d575b8161373a602093836127f9565b81010312610a615761357c915190613572565b3d915061372d565b634e487b7160e01b83526011600452602483fd5b61377290612766565b5f61351a565b6020813d6020116137a9575b81613791602093836127f9565b8101031261160b576137a290613244565b505f6134d2565b3d9150613784565b90506020813d6020116137eb575b816137cc602093836127f9565b810103126116be576134ba916137e3602092613244565b91509161347f565b3d91506137bf565b9095506020813d602011613827575b8161380f602093836127f9565b81010312610f9d5761382090613244565b945f613406565b3d9150613802565b61012d5461384b926001600160a01b03918216913391166138a8565b5f896133b0565b604051632ca2f52b60e11b8152600490fd5b9150506020813d602011613895575b81613880602093836127f9565b81010312613891578a90515f61339a565b8b80fd5b3d9150613873565b6040513d8e823e3d90fd5b6040516323b872dd60e01b60208201526001600160a01b0392831660248201529290911660448301526064820192909252612a56916138f482608481015b03601f1981018452836127f9565b613906565b51908115158203610a6157565b604051613963916001600160a01b031661391f826127c3565b5f806020958685527f5361666545524332303a206c6f772d6c6576656c2063616c6c206661696c656487860152868151910182855af161395d6139f2565b91613a21565b80518281159182156139d3575b505090501561397c5750565b6084906040519062461bcd60e51b82526004820152602a60248201527f5361666545524332303a204552433230206f7065726174696f6e20646964206e6044820152691bdd081cdd58d8d9595960b21b6064820152fd5b8380929350010312610a6157816139ea91016138f9565b80825f613970565b3d15613a1c573d90613a038261281a565b91613a1160405193846127f9565b82523d5f602084013e565b606090565b91929015613a835750815115613a35575090565b3b15613a3e5790565b60405162461bcd60e51b815260206004820152601d60248201527f416464726573733a2063616c6c20746f206e6f6e2d636f6e74726163740000006044820152606490fd5b825190915015613a965750805190602001fd5b60405162461bcd60e51b815260206004820152908190612c53906024830190612adc565b818110613ac5575050565b5f8155600101613aba565b9390613b689593979692602091613b565f60018060a01b0361012f541692613b2d602b60405183613b0a82955180928c8086019101612abb565b81016a08189e48125b9d1953995d60aa1b8a82015203600b8101845201826127f9565b610131546040516334f359f960e01b8152608060048201529b8c96879586946084860190612adc565b84810360031901602486015290612adc565b90604483015230606483015203925af194851561455d575f95614568575b50610130546101345461013a546040516309394e6160e11b81526001600160a01b03808a16600483015292831660248201523060448201526064810191909152969889979590929091602091879160849183915f91165af194851561455d575f95614521575b50835191602085015193606060408701519601519660405198896101808101106001600160401b036101808c011117612779576101808a0160405260018060a01b0316895260018060a01b038a1660208a01525f60408a015260018060a01b03166060890152608088015260a087015260c086015260e0850152610100840152610120830152610140820152600161016082015260018060a01b0382165f5261013560205260405f2060018060a01b038251166001600160601b0360a01b8254161781556001810160018060a01b036020840151166001600160601b0360a01b8254161790556002810160018060a01b036040840151166001600160601b0360a01b8254161790556003810160018060a01b036060840151166001600160601b0360a01b82541617905560808201518051906001600160401b038211612779578190613d3b60048501546129e2565b601f81116144ee575b50602090601f8311600114614480575f92614475575b50508160011b915f199060031b1c19161760048201555b60a08201518051906001600160401b03821161277957600160401b8211612779576020906005840154836005860155808410614421575b500190600583015f5260205f20905f5b8160051c81106143e25750601f1981168103614394575b50505060c08201518051906001600160401b038211612779578190613df760068501546129e2565b601f8111614361575b50602090601f83116001146142f3575f926142e8575b50508160011b915f199060031b1c19161760068201555b60e08201518051906001600160401b038211612779578190613e5260078501546129e2565b601f81116142b5575b50602090601f8311600114614247575f9261423c575b50508160011b915f199060031b1c19161760078201555b6101008201518051906001600160401b038211612779578190613eae60088501546129e2565b601f8111614209575b50602090601f831160011461419b575f92614190575b50508160011b915f199060031b1c19161760088201555b6101208201518051906001600160401b038211612779578190613f0a60098501546129e2565b601f811161415d575b50602090601f83116001146140ef575f926140e4575b50508160011b915f199060031b1c19161760098201555b600a81016101408301518051906001600160401b03821161277957613f6583546129e2565b601f81116140a9575b50602090601f831160011461403e579180600b949261016096945f92614033575b50508160011b915f199060031b1c19161790555b01910151600381101561401f5760ff80198354169116179055610136805490600160401b8210156127795760018201808255821015612fb2575f527f39da2db355130acf428d669fbf1c14faa9d51399a25b793fc254bbbde66f02e20180546001600160a01b0319166001600160a01b03909216919091179055565b634e487b7160e01b5f52602160045260245ffd5b015190505f80613f8f565b90601f19831691845f5260205f20925f5b81811061409157509260019285926101609896600b989610614079575b505050811b019055613fa3565b01515f1960f88460031b161c191690555f808061406c565b9293602060018192878601518155019501930161404f565b6140d490845f5260205f20601f850160051c810191602086106140da575b601f0160051c0190613aba565b5f613f6e565b90915081906140c7565b015190505f80613f29565b9250600984015f5260205f20905f935b601f1984168510614142576001945083601f1981161061412a575b505050811b016009820155613f40565b01515f1960f88460031b161c191690555f808061411a565b818101518355602094850194600190930192909101906140ff565b61418a90600986015f5260205f20601f850160051c810191602086106140da57601f0160051c0190613aba565b5f613f13565b015190505f80613ecd565b9250600884015f5260205f20905f935b601f19841685106141ee576001945083601f198116106141d6575b505050811b016008820155613ee4565b01515f1960f88460031b161c191690555f80806141c6565b818101518355602094850194600190930192909101906141ab565b61423690600886015f5260205f20601f850160051c810191602086106140da57601f0160051c0190613aba565b5f613eb7565b015190505f80613e71565b9250600784015f5260205f20905f935b601f198416851061429a576001945083601f19811610614282575b505050811b016007820155613e88565b01515f1960f88460031b161c191690555f8080614272565b81810151835560209485019460019093019290910190614257565b6142e290600786015f5260205f20601f850160051c810191602086106140da57601f0160051c0190613aba565b5f613e5b565b015190505f80613e16565b9250600684015f5260205f20905f935b601f1984168510614346576001945083601f1981161061432e575b505050811b016006820155613e2d565b01515f1960f88460031b161c191690555f808061431e565b81810151835560209485019460019093019290910190614303565b61438e90600686015f5260205f20601f850160051c810191602086106140da57601f0160051c0190613aba565b5f613e00565b5f925f5b601f198316830381106143b457505060051c01555f8080613dcf565b909360206143d96001928460ff895116919060ff809160031b9316831b921b19161790565b95019101614398565b5f805b602081106143fa575083820155600101613db8565b855190959160019160209160ff60038a901b81811b199092169216901b17920195016143e5565b61444f90600586015f52601f845f209181871680614455575b500160051c810190601f860160051c01613aba565b5f613da8565b5f199081848a0160051c86010191825491890360031b1c1690555f61443a565b015190505f80613d5a565b9250600484015f5260205f20905f935b601f19841685106144d3576001945083601f198116106144bb575b505050811b016004820155613d71565b01515f1960f88460031b161c191690555f80806144ab565b81810151835560209485019460019093019290910190614490565b61451b90600486015f5260205f20601f850160051c810191602086106140da57601f0160051c0190613aba565b5f613d44565b9094506020813d602011614555575b8161453d602093836127f9565b81010312610a615761454e90613244565b935f613bec565b3d9150614530565b6040513d5f823e3d90fd5b9094506020813d60201161459c575b81614584602093836127f9565b81010312610a615761459590613244565b935f613b86565b3d9150614577565b6001600160a01b0391821691905f90831561464e57821691828252610135602052600360408320015416801561463c57803b1561160b57818091602460405180948193631bf3091560e11b83528960048401525af180156115f157907f7363600ac233591b10e402fcff7bdaf80647430d9e03638e669d483495043322929161462d575b5080a3565b61463690612766565b5f614628565b60405163ab54b81360e01b8152600490fd5b60405163e04bb5d960e01b8152600490fd5b9190811015612fb25760051b0190565b356001600160a01b0381168103610a615790565b9594939291906020999d9b979c9860805261013b545f9a8b916004604051809481936301ca9e1160e71b835260018060a01b03165af18015614bae578b90614b76575b6146d49150608051612f7a565b808060011b0460021481151715614b625760018b5261013960205260408b205490670de0b6b3a764000091828102928184041490151715614b4e5760011b10614b3c5761472096613ad0565b6001600160a01b03811684526101356020526040808520905198919591906147478a6127a8565b60028a5260403660208c0137610134546001600160a01b03166147698b613258565b526001600160a01b03871661477d8b613265565b526101335460405163c45a015560e01b815290602090829060049082906001600160a01b03165afa90811561172a578791614af6575b506147f098999a602091604051916001848401528383526147d3836127c3565b89604051809d81958294632a422c2b60e21b8452600484016132b1565b03926001600160a01b03165af1978815611790578698614aba575b50600b8101805460ff19166002908117909155810180546001600160a01b0319166001600160a01b038a8116919091179091556003909101541696873b15610f9d5760405163179a694160e11b81526001600160a01b03821660048201528681602481838d5af1801561172a57614aa7575b5060405161488a8161278d565b600181526001600160a01b0388168752610137602052604087209051815460ff191660ff9190911617905561013854600160401b81101561277957600181018061013855811015612fb2576101385f527ff79a63dcec80ed75c82f36161f17b9c2f407860160383a7be0a0ee7962c527ae0180546001600160a01b0319166001600160a01b0389169081179091553b15610f9d5760405163f1b50c1d60e01b81528681600481836001600160a01b038d165af1801561172a57614a93575b506149dd9596979899610136546040519081526001602082015242604082015260018060a01b038316907f58d1495ede629d89cfe4c00a5ad620a9ba231de4b1a5040c7b355d43092ff86b606060018060a01b038d1692a36101345461012d546080516149c592909130916001600160a01b0391821691166138a8565b60805191898b60018060a01b03610134541692614c0f565b929150936149ee8561013154613314565b813b156116be5760405163da3e339760e01b81526001600160a01b038616600482015230602482015260448101919091529082908290606490829084905af180156115f157614a7f575b5050604080516001815260208101949094528301526001600160a01b0316907f4e8e1b96afa9116446f71ff323ac93786664fcbea87475ece33519357750f79090606090a2565b614a898291612766565b61032c5780614a38565b614a9d8791612766565b610f9d575f614948565b614ab390969196612766565b945f61487d565b9097506020813d602011614aee575b81614ad6602093836127f9565b81010312610f9d57614ae790613244565b965f61480b565b3d9150614ac9565b90506020813d602011614b34575b81614b11602093836127f9565b81010312610f99576147f098999a614b2a602092613244565b91509a99986147b3565b3d9150614b04565b604051634088b74160e01b8152600490fd5b634e487b7160e01b8c52601160045260248cfd5b634e487b7160e01b8b52601160045260248bfd5b506020813d602011614ba6575b81614b90602093836127f9565b81010312614ba2576146d490516146c7565b8a80fd5b3d9150614b83565b6040513d8d823e3d90fd5b60ff60019116019060ff8211612f8d57565b60ff1660ff8114612f8d5760010190565b9081518082526020808093019301915f5b828110614bfb575050505090565b835185529381019392810192600101614bed565b9897909996919392955f8096819560405191614c2a836127a8565b600283526040366020850137614c3f83613258565b6001600160a01b038c169052614c5483613265565b6001600160a01b038a16905260405194614c6d866127a8565b60028652604036602088013781614c8387613258565b5282614c8e87613265565b5260405197614c9c896127a8565b6002895260403660208b0137614cb189613258565b52614cbb88613265565b5261013380549092614cda916001600160a01b03908116908c16614fea565b8154614cf491906001600160a01b03908116908d16614fea565b54604051623c7cd360e91b81526001600482015260e060248201529b8c966001600160a01b039092169587958694919391614d339060e4870190613275565b906003199182878203016044880152614d4b91614bdc565b90858203016064860152614d5e91614bdc565b9160848401523060a484015260c483015203925af19687156115f15782958398614f1a575b5087614dad8183614d9d614d968b613258565b519a613265565b519a6001600160a01b0316614fea565b6001600160a01b03821690813b15610fa15784916024839260405194859384926340519a5360e01b845260048401525af1801561199057614f07575b506040516370a0823160e01b8082523060048301529091906020836024816001600160a01b0388165afa928315614efc578593614ec8575b506040519081523060048201526020816024816001600160a01b038a165afa9485156115b15794614e94575b5081614e7a575b50505080614e60575050565b61012d54612a56926001600160a01b039182169116614fb1565b614e8c926001600160a01b0316614fb1565b5f8080614e54565b9093506020813d602011614ec0575b81614eb0602093836127f9565b81010312610a615751925f614e4d565b3d9150614ea3565b9092506020813d602011614ef4575b81614ee4602093836127f9565b81010312610a615751915f614e21565b3d9150614ed7565b6040513d87823e3d90fd5b614f1390939193612766565b915f614de9565b955096503d8083873e614f2d81876127f9565b8501946040818703126116be5780516001600160401b038111610fa55781019580601f88011215610fa5578651614f638161287b565b97614f71604051998a6127f9565b8189526020808a019260051b820101928311610f9d57602001905b828210614fa15750505060200151965f614d83565b8151815260209182019101614f8c565b60405163a9059cbb60e01b60208201526001600160a01b0390921660248301526044820192909252612a56916138f482606481016138e6565b60405163095ea7b360e01b602082018181526001600160a01b0385166024840152604480840196909652948252949390926150266064856127f9565b83515f926001600160a01b039291858416918591829182855af1906150496139f2565b826150d3575b50816150c8575b5015615066575b50505050509050565b6040519660208801521660248601528060448601526044855260808501908582106001600160401b038311176150b457506150a993946138f49160405282613906565b805f8080808061505d565b634e487b7160e01b81526041600452602490fd5b90503b15155f615056565b805191925081159182156150eb575b5050905f61504f565b8192509060209181010312610fa157602061510691016138f9565b5f806150e2565b60ff16801561031a575f19810160ff8111612f8d5760ff165f52610139908160205260405f2054831115615178577f1d518eb390459a1912a9b14c91cc0e67b8449b23fe75f7766658bd86057cb1a392604092825f5260205280835f205582519182526020820152a1565b60405163aabd5a0960e01b8152600490fd5b51906001600160701b0382168203610a6157565b60018060a01b03809116905f9082825260209061013582526040918284209160ff600b8401541690600382101561543457811561542357908186939261013b54169483875180976301ca9e1160e71b82528160049b8c925af19586156154195785966153ea575b5085156153da576002015481169160010361532857509084869392815197888092630240bc6b60e21b82525afa801561531e57829683916152fb575b5095965b871580156152f3575b6152e35781908651948580926318160ddd60e01b82525afa9485156152d8575081946152a1575b50505061529d92615293670de0b6b3a7640000959361529893612f7a565b612f7a565b6132e0565b0490565b909180939450813d83116152d1575b6152ba81836127f9565b8101031261032c5750519082615293615298615275565b503d6152b0565b51913d9150823e3d90fd5b8551633dce448b60e11b81528490fd5b50861561524e565b9050615315919650853d87116107965761078881836127f9565b9590955f615241565b85513d84823e3d90fd5b95606081949392875192838092630240bc6b60e21b82525afa9081156153d0578390849261537b575b506001600160701b03809116911696610134541688105f1461537657955b9596615245565b61536f565b9150506060813d82116153c8575b81615396606093836127f9565b810103126116be576153a78161518a565b866153b384840161518a565b92015163ffffffff811603610fa5575f615351565b3d9150615389565b86513d85823e3d90fd5b8651631d59567b60e11b81528890fd5b9095508381813d8311615412575b61540281836127f9565b81010312610fa15751945f615205565b503d6153f8565b87513d87823e3d90fd5b845163c1ab6dc160e01b8152600490fd5b634e487b7160e01b86526021600452602486fdfea26469706673582212200b51befbf5d6b86387eeab4c2398208fdf5dd448a42f1d4774a858b9752ce16064736f6c63430008140033",
  "libraries": {
    "INTRouterLibrary": "0x6FAbAC8069BC09cAD727fe49157ad69729222e8B"
  },
  "devdoc": {
    "events": {
      "Initialized(uint8)": {
        "details": "Triggered when the contract has been initialized or reinitialized."
      },
      "RoleAdminChanged(bytes32,bytes32,bytes32)": {
        "details": "Emitted when `newAdminRole` is set as ``role``'s admin role, replacing `previousAdminRole` `DEFAULT_ADMIN_ROLE` is the starting admin for all roles, despite {RoleAdminChanged} not being emitted signaling this. _Available since v3.1._"
      },
      "RoleGranted(bytes32,address,address)": {
        "details": "Emitted when `account` is granted `role`. `sender` is the account that originated the contract call, an admin role bearer except when using {AccessControl-_setupRole}."
      },
      "RoleRevoked(bytes32,address,address)": {
        "details": "Emitted when `account` is revoked `role`. `sender` is the account that originated the contract call:   - if using `revokeRole`, it is the admin role bearer   - if using `renounceRole`, it is the role bearer (i.e. `account`)"
      }
    },
    "kind": "dev",
    "methods": {
      "acceptOwnership()": {
        "details": "The new owner accepts the ownership transfer."
      },
      "boost1(string,string,uint8[],string,string,string[4],uint256,uint256,uint256,uint256,uint256,uint256)": {
        "details": "Only callable by owner. Adds liquidity via external router",
        "params": {
          "assetAmount": "Amount of asset tokens to add as liquidity",
          "assetAmountMin": "Minimum amount of asset tokens that must be added as liquidity",
          "cores": "Array of core values",
          "deadline": "Timestamp after which the transaction will revert",
          "desc": "Description of the token",
          "img": "Image URL for the token",
          "minLiquidity": "Minimum amount of liquidity tokens that must be minted",
          "name": "The name of the token",
          "ticker": "The ticker symbol of the token",
          "tokenAmount": "Amount of tokens to add as liquidity",
          "tokenAmountMin": "Minimum amount of tokens that must be added as liquidity",
          "urls": "Array of 4 URLs (twitter, telegram, farcaster, website)"
        }
      },
      "boost1For(address,string,string,uint8[],string,string,string[4],uint256,uint256,uint256,uint256,uint256,uint256)": {
        "details": "Only callable by owner. Adds liquidity via external router",
        "params": {
          "assetAmount": "Amount of asset tokens to add as liquidity",
          "assetAmountMin": "Minimum amount of asset tokens that must be added as liquidity",
          "cores": "Array of core values",
          "creator": "The creator of the token",
          "deadline": "Timestamp after which the transaction will revert",
          "desc": "Description of the token",
          "img": "Image URL for the token",
          "minLiquidity": "Minimum amount of liquidity tokens that must be minted",
          "name": "The name of the token",
          "ticker": "The ticker symbol of the token",
          "tokenAmount": "Amount of tokens to add as liquidity",
          "tokenAmountMin": "Minimum amount of tokens that must be added as liquidity",
          "urls": "Array of 4 URLs (twitter, telegram, farcaster, website)"
        }
      },
      "boost2(address,uint256,uint256,uint256,uint256,uint256,uint256)": {
        "details": "Only callable by booster. Adds liquidity via external router",
        "params": {
          "assetAmount": "Amount of asset tokens to add as liquidity",
          "assetAmountMin": "Minimum amount of asset tokens that must be added as liquidity",
          "deadline": "Timestamp after which the transaction will revert",
          "minLiquidity": "Minimum amount of liquidity tokens that must be minted",
          "token": "Address of token to boost",
          "tokenAmount": "Amount of tokens to add as liquidity",
          "tokenAmountMin": "Minimum amount of tokens that must be added as liquidity"
        }
      },
      "boost3(address,uint256,uint256,uint256,uint256,uint256,uint256)": {
        "details": "Only callable by owner. Adds liquidity via external router",
        "params": {
          "assetAmount": "Amount of asset tokens to add as liquidity",
          "assetAmountMin": "Minimum amount of asset tokens that must be added as liquidity",
          "deadline": "Timestamp after which the transaction will revert",
          "minLiquidity": "Minimum amount of liquidity tokens that must be minted",
          "token": "Address of token to boost",
          "tokenAmount": "Amount of tokens to add as liquidity",
          "tokenAmountMin": "Minimum amount of tokens that must be added as liquidity"
        }
      },
      "calculateMarketCap(address)": {
        "params": {
          "token": "The token address to calculate market cap for"
        },
        "returns": {
          "_0": "marketCap The calculated market cap in asset token value in 18 decimals"
        }
      },
      "constructor": {
        "custom:oz-upgrades-unsafe-allow": "constructor"
      },
      "delegateLPTo(address,address)": {
        "details": "Delegate LP token to the specified address.",
        "params": {
          "delegatee": "The address to delegate the LP token to.",
          "tokenAddr": "The address of the token to delegate its LP token."
        }
      },
      "delegateLPToBatch(address[],address[])": {
        "details": "Delegate LP token to the specified address for multiple tokens.",
        "params": {
          "delegatees": "The addresses to delegate the LP tokens to.",
          "tokens": "The addresses of the tokens to delegate their LP tokens."
        }
      },
      "getBoostCount()": {
        "returns": {
          "_0": "The length of boostInfos array"
        }
      },
      "getRoleAdmin(bytes32)": {
        "details": "Returns the admin role that controls `role`. See {grantRole} and {revokeRole}. To change a role's admin, use {_setRoleAdmin}."
      },
      "getTokenCount()": {
        "returns": {
          "_0": "The length of tokenInfos array"
        }
      },
      "grantRole(bytes32,address)": {
        "details": "Grants `role` to `account`. If `account` had not been already granted `role`, emits a {RoleGranted} event. Requirements: - the caller must have ``role``'s admin role. May emit a {RoleGranted} event."
      },
      "hasRole(bytes32,address)": {
        "details": "Returns `true` if `account` has been granted `role`."
      },
      "owner()": {
        "details": "Returns the address of the current owner."
      },
      "pendingOwner()": {
        "details": "Returns the address of the pending owner."
      },
      "renounceOwnership()": {
        "details": "Leaves the contract without owner. It will not be possible to call `onlyOwner` functions. Can only be called by the current owner. NOTE: Renouncing ownership will leave the contract without an owner, thereby disabling any functionality that is only available to the owner."
      },
      "renounceRole(bytes32,address)": {
        "details": "Revokes `role` from the calling account. Roles are often managed via {grantRole} and {revokeRole}: this function's purpose is to provide a mechanism for accounts to lose their privileges if they are compromised (such as when a trusted device is misplaced). If the calling account had been revoked `role`, emits a {RoleRevoked} event. Requirements: - the caller must be `account`. May emit a {RoleRevoked} event."
      },
      "revokeRole(bytes32,address)": {
        "details": "Revokes `role` from `account`. If `account` had been granted `role`, emits a {RoleRevoked} event. Requirements: - the caller must have ``role``'s admin role. May emit a {RoleRevoked} event."
      },
      "setAssetToken(address)": {
        "details": "Set the asset token address",
        "params": {
          "newAssetToken": "The new asset token address"
        }
      },
      "setBoostStageThreshold(uint8,uint256)": {
        "params": {
          "stage": "The boost stage number (1-3)",
          "threshold": "The threshold amount required for this stage"
        }
      },
      "setBoostStageThresholds(uint256[])": {
        "params": {
          "thresholds": "Array of threshold amounts for stages 1-3"
        }
      },
      "setExtRouter(address)": {
        "details": "Set the external router address",
        "params": {
          "newExtRouter": "The new external router address"
        }
      },
      "setFactory(address)": {
        "details": "Set the factory address",
        "params": {
          "newFactory": "The new factory address"
        }
      },
      "setFee(uint256,address)": {
        "details": "Set the fee and fee recipient",
        "params": {
          "newFee": "New fee amount",
          "newFeeTo": "New fee recipient"
        }
      },
      "setGradMarketCap(uint256)": {
        "details": "Set the graduation market cap threshold",
        "params": {
          "newMarketCap": "The new graduation market cap threshold"
        }
      },
      "setInitialMarketCap(uint256)": {
        "details": "Set the initial market cap threshold",
        "params": {
          "newMarketCap": "The new initial market cap threshold"
        }
      },
      "setInitialSupply(uint256)": {
        "details": "Set the initial supply for generating a new token",
        "params": {
          "newSupply": "New initial supply"
        }
      },
      "setLockFactory(address)": {
        "details": "Set the lock factory address",
        "params": {
          "newLockFactory": "The new lock factory address"
        }
      },
      "setLockedTime(uint256)": {
        "details": "Set the locked time for lp tokens that locked in the locker contract",
        "params": {
          "newLockedTime": "The new locked time"
        }
      },
      "setOracle(address)": {
        "details": "Set the oracle address",
        "params": {
          "newOracle": "The new oracle address"
        }
      },
      "setTokenFactory(address)": {
        "details": "Set the token factory address",
        "params": {
          "newTokenFactory": "The new token factory address"
        }
      },
      "supportsInterface(bytes4)": {
        "details": "See {IERC165-supportsInterface}."
      },
      "transferOwnership(address)": {
        "details": "Starts the ownership transfer of the contract to a new account. Replaces the pending transfer if there is one. Can only be called by the current owner."
      }
    },
    "version": 1
  },
  "userdoc": {
    "errors": {
      "ProfileNotExist()": [
        {
          "notice": "============================================ =                  ERRORS                  = ============================================"
        }
      ]
    },
    "events": {
      "Launched(address,address,uint256,uint8,uint256)": {
        "notice": "============================================ =                 EVENTS                   = ============================================"
      }
    },
    "kind": "user",
    "methods": {
      "boost1(string,string,uint8[],string,string,string[4],uint256,uint256,uint256,uint256,uint256,uint256)": {
        "notice": "Boost liquidity for a token by adding token and asset pairs"
      },
      "boost1For(address,string,string,uint8[],string,string,string[4],uint256,uint256,uint256,uint256,uint256,uint256)": {
        "notice": "Boost liquidity for a token by adding token and asset pairs"
      },
      "boost2(address,uint256,uint256,uint256,uint256,uint256,uint256)": {
        "notice": "Boost Stage 2 for a token by adding token and asset pairs"
      },
      "boost3(address,uint256,uint256,uint256,uint256,uint256,uint256)": {
        "notice": "Boost Stage 3 for a token by adding token and asset pairs"
      },
      "calculateMarketCap(address)": {
        "notice": "Calculate the market cap of a token using oracle price and liquidity reserves"
      },
      "delegateLPTo(address,address)": {
        "notice": "LP token should have been released in its locker contract."
      },
      "delegateLPToBatch(address[],address[])": {
        "notice": "LP token should have been released in its locker contract."
      },
      "getBoostCount()": {
        "notice": "Get the total number of boost created through bonding"
      },
      "getTokenCount()": {
        "notice": "Get the total number of tokens created through bonding"
      },
      "setAssetToken(address)": {
        "notice": "Owner should ensure the asset token address is correct"
      },
      "setBoostStageThreshold(uint8,uint256)": {
        "notice": "Set threshold for a boost stage"
      },
      "setBoostStageThresholds(uint256[])": {
        "notice": "Set thresholds for all boost stages in one transaction"
      },
      "setExtRouter(address)": {
        "notice": "Owner should ensure the external router address is correct"
      },
      "setFactory(address)": {
        "notice": "Owner should ensure the factory address is correct"
      },
      "setLockFactory(address)": {
        "notice": "Owner should ensure the lock factory address is correct"
      },
      "setTokenFactory(address)": {
        "notice": "Owner should ensure the token factory address is correct"
      }
    },
    "version": 1
  },
  "storageLayout": {
    "storage": [
      {
        "astId": 4328,
        "contract": "src/Bonding.sol:Bonding",
        "label": "_initialized",
        "offset": 0,
        "slot": "0",
        "type": "t_uint8"
      },
      {
        "astId": 4331,
        "contract": "src/Bonding.sol:Bonding",
        "label": "_initializing",
        "offset": 1,
        "slot": "0",
        "type": "t_bool"
      },
      {
        "astId": 4504,
        "contract": "src/Bonding.sol:Bonding",
        "label": "_status",
        "offset": 0,
        "slot": "1",
        "type": "t_uint256"
      },
      {
        "astId": 4573,
        "contract": "src/Bonding.sol:Bonding",
        "label": "__gap",
        "offset": 0,
        "slot": "2",
        "type": "t_array(t_uint256)49_storage"
      },
      {
        "astId": 5660,
        "contract": "src/Bonding.sol:Bonding",
        "label": "__gap",
        "offset": 0,
        "slot": "51",
        "type": "t_array(t_uint256)50_storage"
      },
      {
        "astId": 4200,
        "contract": "src/Bonding.sol:Bonding",
        "label": "_owner",
        "offset": 0,
        "slot": "101",
        "type": "t_address"
      },
      {
        "astId": 4320,
        "contract": "src/Bonding.sol:Bonding",
        "label": "__gap",
        "offset": 0,
        "slot": "102",
        "type": "t_array(t_uint256)49_storage"
      },
      {
        "astId": 4109,
        "contract": "src/Bonding.sol:Bonding",
        "label": "_pendingOwner",
        "offset": 0,
        "slot": "151",
        "type": "t_address"
      },
      {
        "astId": 4188,
        "contract": "src/Bonding.sol:Bonding",
        "label": "__gap",
        "offset": 0,
        "slot": "152",
        "type": "t_array(t_uint256)49_storage"
      },
      {
        "astId": 5933,
        "contract": "src/Bonding.sol:Bonding",
        "label": "__gap",
        "offset": 0,
        "slot": "201",
        "type": "t_array(t_uint256)50_storage"
      },
      {
        "astId": 3714,
        "contract": "src/Bonding.sol:Bonding",
        "label": "_roles",
        "offset": 0,
        "slot": "251",
        "type": "t_mapping(t_bytes32,t_struct(RoleData)3709_storage)"
      },
      {
        "astId": 4009,
        "contract": "src/Bonding.sol:Bonding",
        "label": "__gap",
        "offset": 0,
        "slot": "252",
        "type": "t_array(t_uint256)49_storage"
      },
      {
        "astId": 12015,
        "contract": "src/Bonding.sol:Bonding",
        "label": "feeTo",
        "offset": 0,
        "slot": "301",
        "type": "t_address"
      },
      {
        "astId": 12018,
        "contract": "src/Bonding.sol:Bonding",
        "label": "factory",
        "offset": 0,
        "slot": "302",
        "type": "t_contract(INTFactory)15135"
      },
      {
        "astId": 12021,
        "contract": "src/Bonding.sol:Bonding",
        "label": "tokenFactory",
        "offset": 0,
        "slot": "303",
        "type": "t_contract(INTERC20Factory)14737"
      },
      {
        "astId": 12024,
        "contract": "src/Bonding.sol:Bonding",
        "label": "lockFactory",
        "offset": 0,
        "slot": "304",
        "type": "t_contract(LockFactory)16059"
      },
      {
        "astId": 12026,
        "contract": "src/Bonding.sol:Bonding",
        "label": "initialSupply",
        "offset": 0,
        "slot": "305",
        "type": "t_uint256"
      },
      {
        "astId": 12028,
        "contract": "src/Bonding.sol:Bonding",
        "label": "fee",
        "offset": 0,
        "slot": "306",
        "type": "t_uint256"
      },
      {
        "astId": 12031,
        "contract": "src/Bonding.sol:Bonding",
        "label": "extRouter",
        "offset": 0,
        "slot": "307",
        "type": "t_contract(IExtRouter)16399"
      },
      {
        "astId": 12033,
        "contract": "src/Bonding.sol:Bonding",
        "label": "assetToken",
        "offset": 0,
        "slot": "308",
        "type": "t_address"
      },
      {
        "astId": 12069,
        "contract": "src/Bonding.sol:Bonding",
        "label": "tokenInfo",
        "offset": 0,
        "slot": "309",
        "type": "t_mapping(t_address,t_struct(Token)12064_storage)"
      },
      {
        "astId": 12072,
        "contract": "src/Bonding.sol:Bonding",
        "label": "tokenInfos",
        "offset": 0,
        "slot": "310",
        "type": "t_array(t_address)dyn_storage"
      },
      {
        "astId": 12080,
        "contract": "src/Bonding.sol:Bonding",
        "label": "boostInfo",
        "offset": 0,
        "slot": "311",
        "type": "t_mapping(t_address,t_struct(BoostInfo)12075_storage)"
      },
      {
        "astId": 12083,
        "contract": "src/Bonding.sol:Bonding",
        "label": "boostInfos",
        "offset": 0,
        "slot": "312",
        "type": "t_array(t_address)dyn_storage"
      },
      {
        "astId": 12092,
        "contract": "src/Bonding.sol:Bonding",
        "label": "boostStageThresholds",
        "offset": 0,
        "slot": "313",
        "type": "t_mapping(t_uint8,t_uint256)"
      },
      {
        "astId": 12094,
        "contract": "src/Bonding.sol:Bonding",
        "label": "lockedTime",
        "offset": 0,
        "slot": "314",
        "type": "t_uint256"
      },
      {
        "astId": 12097,
        "contract": "src/Bonding.sol:Bonding",
        "label": "oracle",
        "offset": 0,
        "slot": "315",
        "type": "t_contract(IOracle)16541"
      },
      {
        "astId": 12099,
        "contract": "src/Bonding.sol:Bonding",
        "label": "initialMarketCap",
        "offset": 0,
        "slot": "316",
        "type": "t_uint256"
      },
      {
        "astId": 12101,
        "contract": "src/Bonding.sol:Bonding",
        "label": "gradMarketCap",
        "offset": 0,
        "slot": "317",
        "type": "t_uint256"
      }
    ],
    "types": {
      "t_address": {
        "encoding": "inplace",
        "label": "address",
        "numberOfBytes": "20"
      },
      "t_array(t_address)dyn_storage": {
        "base": "t_address",
        "encoding": "dynamic_array",
        "label": "address[]",
        "numberOfBytes": "32"
      },
      "t_array(t_uint256)49_storage": {
        "base": "t_uint256",
        "encoding": "inplace",
        "label": "uint256[49]",
        "numberOfBytes": "1568"
      },
      "t_array(t_uint256)50_storage": {
        "base": "t_uint256",
        "encoding": "inplace",
        "label": "uint256[50]",
        "numberOfBytes": "1600"
      },
      "t_array(t_uint8)dyn_storage": {
        "base": "t_uint8",
        "encoding": "dynamic_array",
        "label": "uint8[]",
        "numberOfBytes": "32"
      },
      "t_bool": {
        "encoding": "inplace",
        "label": "bool",
        "numberOfBytes": "1"
      },
      "t_bytes32": {
        "encoding": "inplace",
        "label": "bytes32",
        "numberOfBytes": "32"
      },
      "t_contract(IExtRouter)16399": {
        "encoding": "inplace",
        "label": "contract IExtRouter",
        "numberOfBytes": "20"
      },
      "t_contract(INTERC20Factory)14737": {
        "encoding": "inplace",
        "label": "contract INTERC20Factory",
        "numberOfBytes": "20"
      },
      "t_contract(INTFactory)15135": {
        "encoding": "inplace",
        "label": "contract INTFactory",
        "numberOfBytes": "20"
      },
      "t_contract(IOracle)16541": {
        "encoding": "inplace",
        "label": "contract IOracle",
        "numberOfBytes": "20"
      },
      "t_contract(LockFactory)16059": {
        "encoding": "inplace",
        "label": "contract LockFactory",
        "numberOfBytes": "20"
      },
      "t_enum(TokenStatus)12037": {
        "encoding": "inplace",
        "label": "enum Bonding.TokenStatus",
        "numberOfBytes": "1"
      },
      "t_mapping(t_address,t_bool)": {
        "encoding": "mapping",
        "key": "t_address",
        "label": "mapping(address => bool)",
        "numberOfBytes": "32",
        "value": "t_bool"
      },
      "t_mapping(t_address,t_struct(BoostInfo)12075_storage)": {
        "encoding": "mapping",
        "key": "t_address",
        "label": "mapping(address => struct Bonding.BoostInfo)",
        "numberOfBytes": "32",
        "value": "t_struct(BoostInfo)12075_storage"
      },
      "t_mapping(t_address,t_struct(Token)12064_storage)": {
        "encoding": "mapping",
        "key": "t_address",
        "label": "mapping(address => struct Bonding.Token)",
        "numberOfBytes": "32",
        "value": "t_struct(Token)12064_storage"
      },
      "t_mapping(t_bytes32,t_struct(RoleData)3709_storage)": {
        "encoding": "mapping",
        "key": "t_bytes32",
        "label": "mapping(bytes32 => struct AccessControlUpgradeable.RoleData)",
        "numberOfBytes": "32",
        "value": "t_struct(RoleData)3709_storage"
      },
      "t_mapping(t_uint8,t_uint256)": {
        "encoding": "mapping",
        "key": "t_uint8",
        "label": "mapping(uint8 => uint256)",
        "numberOfBytes": "32",
        "value": "t_uint256"
      },
      "t_string_storage": {
        "encoding": "bytes",
        "label": "string",
        "numberOfBytes": "32"
      },
      "t_struct(BoostInfo)12075_storage": {
        "encoding": "inplace",
        "label": "struct Bonding.BoostInfo",
        "members": [
          {
            "astId": 12074,
            "contract": "src/Bonding.sol:Bonding",
            "label": "stage",
            "offset": 0,
            "slot": "0",
            "type": "t_uint8"
          }
        ],
        "numberOfBytes": "32"
      },
      "t_struct(RoleData)3709_storage": {
        "encoding": "inplace",
        "label": "struct AccessControlUpgradeable.RoleData",
        "members": [
          {
            "astId": 3706,
            "contract": "src/Bonding.sol:Bonding",
            "label": "members",
            "offset": 0,
            "slot": "0",
            "type": "t_mapping(t_address,t_bool)"
          },
          {
            "astId": 3708,
            "contract": "src/Bonding.sol:Bonding",
            "label": "adminRole",
            "offset": 0,
            "slot": "1",
            "type": "t_bytes32"
          }
        ],
        "numberOfBytes": "64"
      },
      "t_struct(Token)12064_storage": {
        "encoding": "inplace",
        "label": "struct Bonding.Token",
        "members": [
          {
            "astId": 12039,
            "contract": "src/Bonding.sol:Bonding",
            "label": "creator",
            "offset": 0,
            "slot": "0",
            "type": "t_address"
          },
          {
            "astId": 12041,
            "contract": "src/Bonding.sol:Bonding",
            "label": "token",
            "offset": 0,
            "slot": "1",
            "type": "t_address"
          },
          {
            "astId": 12043,
            "contract": "src/Bonding.sol:Bonding",
            "label": "pair",
            "offset": 0,
            "slot": "2",
            "type": "t_address"
          },
          {
            "astId": 12045,
            "contract": "src/Bonding.sol:Bonding",
            "label": "locker",
            "offset": 0,
            "slot": "3",
            "type": "t_address"
          },
          {
            "astId": 12047,
            "contract": "src/Bonding.sol:Bonding",
            "label": "description",
            "offset": 0,
            "slot": "4",
            "type": "t_string_storage"
          },
          {
            "astId": 12050,
            "contract": "src/Bonding.sol:Bonding",
            "label": "cores",
            "offset": 0,
            "slot": "5",
            "type": "t_array(t_uint8)dyn_storage"
          },
          {
            "astId": 12052,
            "contract": "src/Bonding.sol:Bonding",
            "label": "image",
            "offset": 0,
            "slot": "6",
            "type": "t_string_storage"
          },
          {
            "astId": 12054,
            "contract": "src/Bonding.sol:Bonding",
            "label": "twitter",
            "offset": 0,
            "slot": "7",
            "type": "t_string_storage"
          },
          {
            "astId": 12056,
            "contract": "src/Bonding.sol:Bonding",
            "label": "telegram",
            "offset": 0,
            "slot": "8",
            "type": "t_string_storage"
          },
          {
            "astId": 12058,
            "contract": "src/Bonding.sol:Bonding",
            "label": "farcaster",
            "offset": 0,
            "slot": "9",
            "type": "t_string_storage"
          },
          {
            "astId": 12060,
            "contract": "src/Bonding.sol:Bonding",
            "label": "website",
            "offset": 0,
            "slot": "10",
            "type": "t_string_storage"
          },
          {
            "astId": 12063,
            "contract": "src/Bonding.sol:Bonding",
            "label": "status",
            "offset": 0,
            "slot": "11",
            "type": "t_enum(TokenStatus)12037"
          }
        ],
        "numberOfBytes": "384"
      },
      "t_uint256": {
        "encoding": "inplace",
        "label": "uint256",
        "numberOfBytes": "32"
      },
      "t_uint8": {
        "encoding": "inplace",
        "label": "uint8",
        "numberOfBytes": "1"
      }
    }
  }
}