{
  "address": "0x1467Ee5513F2219bdE6798C73326928b6C4bA7CB",
  "abi": [
    {
      "inputs": [
        {
          "internalType": "string",
          "name": "name",
          "type": "string"
        },
        {
          "internalType": "string",
          "name": "symbol",
          "type": "string"
        },
        {
          "internalType": "uint256",
          "name": "totalSupply",
          "type": "uint256"
        },
        {
          "internalType": "address",
          "name": "initialOwner",
          "type": "address"
        }
      ],
      "name": "createToken",
      "outputs": [
        {
          "internalType": "address",
          "name": "token",
          "type": "address"
        }
      ],
      "stateMutability": "nonpayable",
      "type": "function"
    }
  ],
  "transactionHash": "0x7be421aff244be80244c22b62c24d176f532fa5b589c972290c992a09aa7c949",
  "args": [],
  "numDeployments": 2,
  "solcInputHash": "a2c808855066638bf6d87f79fbe97e91",
  "bytecode": "0x6080806040523461001657611f5f908161001b8239f35b5f80fdfe60806040526004361015610011575f80fd5b5f803560e01c6334f359f914610025575f80fd5b3461011a57608036600319011261011a5767ffffffffffffffff6004358181116101165761005790369060040161011d565b6024358281116101125761006f90369060040161011d565b6001600160a01b039290606435848116919082900361010e5760405193611d54808601948511868610176100fa57859493926100be6060936100cc936101d68939608087526080870190610197565b908582036020870152610197565b9260443560408201520152039083f09081156100ef576020925060405191168152f35b6040513d84823e3d90fd5b634e487b7160e01b88526041600452602488fd5b8580fd5b8380fd5b8280fd5b80fd5b81601f8201121561017f5780359067ffffffffffffffff928383116101835760405193601f8401601f19908116603f0116850190811185821017610183576040528284526020838301011161017f57815f926020809301838601378301015290565b5f80fd5b634e487b7160e01b5f52604160045260245ffd5b91908251928382525f5b8481106101c1575050825f602080949584010152601f8019910116010190565b6020818301810151848301820152016101a156fe61016060409080825234620005575762001d5480380380916200002382856200055b565b83398101608082820312620005575781516001600160401b03939084811162000557578262000054918501620005a2565b916020908185015190868211620005575762000072918601620005a2565b82850151606090950151946001600160a01b038616929183870362000557578451978589018981108282111762000460578652600197888a52848a0198603160f81b8a52885190838211620004605760038054928284811c941680156200054c575b898510146200053857601f93848111620004f0575b50808985821160011462000480575f9162000474575b505f1982841b1c191690831b1781555b855190858211620004605760049687548481811c9116801562000455575b8b8210146200044257858111620003fa575b50899085841160011462000391579383949184925f9562000385575b50501b925f19911b1c19161784555b620001758962000645565b996101209a8b52620001878c620007e0565b996101409a8b528781519101209b8c60e052519020916101009b838d524660a052895193888501917f8b73c3c69bb8fe3d512ecc4cf759cc79239f7b179b0ffacaa9a75d522b39400f83528b86015260608501524660808501523060a085015260a0845260c0840194848610908611176200037257848a52835190206080523060c05262000220906200021a33620005fd565b620005fd565b8615620003315750505060ff60095460a01c16620002f5575b60025490828201809211620002e257506002555f8381528083528481208054830190558451918252917fddf252ad1be2c89b69c2b068fc378daa952ba7f163c4a11628f55a4df523b3ef91a36009805460ff60a01b1916600160a01b1790555161142593909290846200092f85396080518461114b015260a05184611217015260c05184611115015260e0518461119a015251836111c001525182610708015251816107320152f35b601190634e487b7160e01b5f525260245ffd5b5f8052600a835260ff855f20541615806200031f575b156200023957845163a24e573d60e01b8152fd5b50835f5260ff855f205416156200030b565b610104606493927f45524332303a206d696e7420746f20746865207a65726f206164647265737300928862461bcd60e51b865260c483015260e48201520152fd5b604186634e487b7160e01b5f525260245ffd5b015193505f806200015b565b9190601f19841692895f52848c5f20948d5f905b89838310620003e15750505010620003c7575b50505050811b0184556200016a565b01519060f8845f19921b161c191690555f808080620003b8565b8686015189559097019694850194889350018e620003a5565b885f528a5f208680860160051c8201928d871062000438575b0160051c019085905b8281106200042c5750506200013f565b5f81550185906200041c565b9250819262000413565b602289634e487b7160e01b5f525260245ffd5b90607f16906200012d565b634e487b7160e01b5f52604160045260245ffd5b90508c01515f620000ff565b5f8481528b812086945091908f90601f198516908e5b828210620004ce5750508411620004b6575b505050811b0181556200010f565b01515f1983861b60f8161c191690555f808e620004a8565b929484849395979892960151815501940192018f909187959493928e62000496565b825f52895f208580840160051c8201928c85106200052e575b0160051c019084905b82811062000522575050620000e9565b5f815501849062000512565b9250819262000509565b634e487b7160e01b5f52602260045260245ffd5b93607f1693620000d4565b5f80fd5b601f909101601f19168101906001600160401b038211908210176200046057604052565b5f5b838110620005915750505f910152565b818101518382015260200162000581565b81601f82011215620005575780516001600160401b038111620004605760405192620005d9601f8301601f1916602001856200055b565b818452602082840101116200055757620005fa91602080850191016200057f565b90565b600980546001600160a01b039283166001600160a01b0319821681179092559091167f8be0079c531659141344cd1fd0a4f28419497f9722a3daafe3b4186f6b6457e05f80a3565b80516020919082811015620006c4575090601f8251116200068257808251920151908083106200067457501790565b825f19910360031b1b161790565b604490620006b69260405193849263305a27a960e01b8452806004850152825192839182602487015286860191016200057f565b601f01601f19168101030190fd5b6001600160401b03811162000460576005928354926001938481811c91168015620007d5575b838210146200053857601f8111620007a1575b5081601f84116001146200073b57509282939183925f946200072f575b50501b915f199060031b1c191617905560ff90565b015192505f806200071a565b919083601f198116875f52845f20945f905b888383106200078657505050106200076d575b505050811b01905560ff90565b01515f1960f88460031b161c191690555f808062000760565b8587015188559096019594850194879350908101906200074d565b855f5284601f845f209201871c820191601f8601881c015b828110620007c9575050620006fd565b5f8155018590620007b9565b90607f1690620006ea565b8051602090818110156200080d5750601f8251116200068257808251920151908083106200067457501790565b906001600160401b0382116200046057600654926001938481811c9116801562000923575b838210146200053857601f8111620008ec575b5081601f84116001146200088457509282939183925f9462000878575b50501b915f199060031b1c19161760065560ff90565b015192505f8062000862565b919083601f19811660065f52845f20945f905b88838310620008d15750505010620008b8575b505050811b0160065560ff90565b01515f1960f88460031b161c191690555f8080620008aa565b85870151885590960195948501948793509081019062000897565b60065f5284601f845f20920160051c820191601f860160051c015b8281106200091757505062000845565b5f815501859062000907565b90607f16906200083256fe60806040818152600480361015610014575f80fd5b5f92833560e01c90816306fdde0314610a9357508063095ea7b314610a6957806318160ddd14610a4a57806323b872dd14610981578063313ce567146109655780633644e5151461094157806339509351146108da57806370a08231146108a3578063715018a6146108465780637ecebe001461080e57806384b0196e146106f1578063892dfdf6146106ca5780638da5cb5b146106a157806395d89b41146105b7578063a457c2d714610513578063a9059cbb146104e2578063cba0e996146104a4578063d505accf146102eb578063dd62ed3e146102a2578063f1b50c1d14610252578063f2cc0c18146101e05763f2fde38b14610112575f80fd5b346101dc5760203660031901126101dc5761012b610ba2565b90610134610bd2565b6001600160a01b0391821692831561018a575050600954826bffffffffffffffffffffffff60a01b821617600955167f8be0079c531659141344cd1fd0a4f28419497f9722a3daafe3b4186f6b6457e08380a380f35b906020608492519162461bcd60e51b8352820152602660248201527f4f776e61626c653a206e6577206f776e657220697320746865207a65726f206160448201526564647265737360d01b6064820152fd5b8280fd5b50503461024e57602036600319011261024e5760207f99e6fac281d5d0ec44b5e6ff60bbc23b07cb5920750f363b81089c7c1075d3d59161021f610ba2565b610227610bd2565b6001600160a01b0316808552600a8352818520805460ff191660011790559051908152a180f35b5080fd5b833461029f578060031936011261029f5761026b610bd2565b6009805460ff60a01b191690557faf7d697ef0ba633b3eae6ce87f1d049667fd2e034bfa7f83c89314a9592827e08180a180f35b80fd5b50503461024e578060031936011261024e57806020926102c0610ba2565b6102c8610bbc565b6001600160a01b0391821683526001865283832091168252845220549051908152f35b5082903461024e5760e036600319011261024e57610307610ba2565b61030f610bbc565b906044359260643560843560ff811681036104a05781421161045d5760018060a01b0390818516928389526007602052898920908154916001830190558a519060208201927f6e71edae12b1b97f4d1f60370fef10105fa2faae0126114a169c64845d6126c98452868d840152858a1660608401528a608084015260a083015260c082015260c0815260e0810181811067ffffffffffffffff82111761044a578b525190206103f2916103ea916103c4611112565b908c519161190160f01b83526002830152602282015260c43591604260a4359220611085565b919091610f6d565b16036104075750610404939450610e6f565b80f35b606490602087519162461bcd60e51b8352820152601e60248201527f45524332305065726d69743a20696e76616c6964207369676e617475726500006044820152fd5b634e487b7160e01b8b526041875260248bfd5b875162461bcd60e51b8152602081850152601d60248201527f45524332305065726d69743a206578706972656420646561646c696e650000006044820152606490fd5b8680fd5b50503461024e57602036600319011261024e5760209160ff9082906001600160a01b036104cf610ba2565b168152600a855220541690519015158152f35b50503461024e578060031936011261024e5760209061050c610502610ba2565b6024359033610cb4565b5160018152f35b50823461029f578260031936011261029f5761052d610ba2565b918360243592338152600160205281812060018060a01b03861682526020522054908282106105665760208561050c8585038733610e6f565b608490602086519162461bcd60e51b8352820152602560248201527f45524332303a2064656372656173656420616c6c6f77616e63652062656c6f77604482015264207a65726f60d81b6064820152fd5b5090346101dc57826003193601126101dc57805191838154906105d982610c2a565b80865292600192808416908115610676575060011461061a575b6106168686610604828b0383610c92565b51918291602083526020830190610b64565b0390f35b815294507f8a35acfbc15ff81a39ae7d344fd709f28e8600b4aa8c65c6b64bfe7fe36bd19b5b82861061065e5750505061060482602061061695820101945f6105f3565b80546020878701810191909152909501948101610640565b905061061697508693506020925061060494915060ff191682840152151560051b820101945f6105f3565b50503461024e578160031936011261024e5760095490516001600160a01b039091168152602090f35b50503461024e578160031936011261024e5760209060ff60095460a01c1690519015158152f35b5090346101dc57826003193601126101dc5761072c7f000000000000000000000000000000000000000000000000000000000000000061123d565b926107567f0000000000000000000000000000000000000000000000000000000000000000611337565b908251926020928385019585871067ffffffffffffffff8811176107fb575092806107b18388966107a4998b9996528686528151998a99600f60f81b8b5260e0868c015260e08b0190610b64565b91898303908a0152610b64565b924660608801523060808801528460a088015286840360c088015251928381520193925b8281106107e457505050500390f35b8351855286955093810193928101926001016107d5565b634e487b7160e01b845260419052602483fd5b50503461024e57602036600319011261024e5760209181906001600160a01b03610836610ba2565b1681526007845220549051908152f35b833461029f578060031936011261029f5761085f610bd2565b600980546001600160a01b0319811690915581906001600160a01b03167f8be0079c531659141344cd1fd0a4f28419497f9722a3daafe3b4186f6b6457e08280a380f35b50503461024e57602036600319011261024e5760209181906001600160a01b036108cb610ba2565b16815280845220549051908152f35b50913461029f578160031936011261029f576108f4610ba2565b338252600160209081528383206001600160a01b038316845290528282205460243581019290831061092e5760208461050c858533610e6f565b634e487b7160e01b815260118552602490fd5b50503461024e578160031936011261024e5760209061095e611112565b9051908152f35b50503461024e578160031936011261024e576020905160128152f35b5082903461024e57606036600319011261024e5761099d610ba2565b6109a5610bbc565b91846044359460018060a01b038416815260016020528181203382526020522054905f1982036109de575b60208661050c878787610cb4565b848210610a0757509183916109fc6020969561050c95033383610e6f565b9193948193506109d0565b606490602087519162461bcd60e51b8352820152601d60248201527f45524332303a20696e73756666696369656e7420616c6c6f77616e63650000006044820152fd5b50503461024e578160031936011261024e576020906002549051908152f35b50503461024e578060031936011261024e5760209061050c610a89610ba2565b6024359033610e6f565b849084346101dc57826003193601126101dc5782600354610ab381610c2a565b80855291600191808316908115610b3c5750600114610adf575b50505061060482610616940383610c92565b9450600385527fc2575a0e9e593c00f959f8c92f12db2869c3395a3b0502d05e2516446f71f85b5b828610610b24575050506106048260206106169582010194610acd565b80546020878701810191909152909501948101610b07565b61061697508693506020925061060494915060ff191682840152151560051b82010194610acd565b91908251928382525f5b848110610b8e575050825f602080949584010152601f8019910116010190565b602081830181015184830182015201610b6e565b600435906001600160a01b0382168203610bb857565b5f80fd5b602435906001600160a01b0382168203610bb857565b6009546001600160a01b03163303610be657565b606460405162461bcd60e51b815260206004820152602060248201527f4f776e61626c653a2063616c6c6572206973206e6f7420746865206f776e65726044820152fd5b90600182811c92168015610c58575b6020831014610c4457565b634e487b7160e01b5f52602260045260245ffd5b91607f1691610c39565b6040810190811067ffffffffffffffff821117610c7e57604052565b634e487b7160e01b5f52604160045260245ffd5b90601f8019910116810190811067ffffffffffffffff821117610c7e57604052565b6001600160a01b03908116918215610e1c5716918215610dcb5760ff60095460a01c16610d8b575b5f82815280602052604081205491808310610d3757604082827fddf252ad1be2c89b69c2b068fc378daa952ba7f163c4a11628f55a4df523b3ef958760209652828652038282205586815220818154019055604051908152a3565b60405162461bcd60e51b815260206004820152602660248201527f45524332303a207472616e7366657220616d6f756e7420657863656564732062604482015265616c616e636560d01b6064820152608490fd5b815f52600a60205260ff60405f2054161580610db9575b15610cdc5760405163a24e573d60e01b8152600490fd5b50825f5260ff60405f20541615610da2565b60405162461bcd60e51b815260206004820152602360248201527f45524332303a207472616e7366657220746f20746865207a65726f206164647260448201526265737360e81b6064820152608490fd5b60405162461bcd60e51b815260206004820152602560248201527f45524332303a207472616e736665722066726f6d20746865207a65726f206164604482015264647265737360d81b6064820152608490fd5b6001600160a01b03908116918215610f1c5716918215610ecc5760207f8c5be1e5ebec7d5bd14f71427d1e84f3dd0314c0f7b2291e5b200ac8c7c3b92591835f526001825260405f20855f5282528060405f2055604051908152a3565b60405162461bcd60e51b815260206004820152602260248201527f45524332303a20617070726f766520746f20746865207a65726f206164647265604482015261737360f01b6064820152608490fd5b60405162461bcd60e51b8152602060048201526024808201527f45524332303a20617070726f76652066726f6d20746865207a65726f206164646044820152637265737360e01b6064820152608490fd5b60058110156110715780610f7e5750565b60018103610fcb5760405162461bcd60e51b815260206004820152601860248201527f45434453413a20696e76616c6964207369676e617475726500000000000000006044820152606490fd5b600281036110185760405162461bcd60e51b815260206004820152601f60248201527f45434453413a20696e76616c6964207369676e6174757265206c656e677468006044820152606490fd5b60031461102157565b60405162461bcd60e51b815260206004820152602260248201527f45434453413a20696e76616c6964207369676e6174757265202773272076616c604482015261756560f01b6064820152608490fd5b634e487b7160e01b5f52602160045260245ffd5b9291907f7fffffffffffffffffffffffffffffff5d576e7357a4501ddfe92f46681b20a083116111075791608094939160ff6020946040519485521684840152604083015260608201525f93849182805260015afa156110fa5781516001600160a01b038116156110f4579190565b50600190565b50604051903d90823e3d90fd5b505050505f90600390565b307f00000000000000000000000000000000000000000000000000000000000000006001600160a01b03161480611214575b1561116d577f000000000000000000000000000000000000000000000000000000000000000090565b60405160208101907f8b73c3c69bb8fe3d512ecc4cf759cc79239f7b179b0ffacaa9a75d522b39400f82527f000000000000000000000000000000000000000000000000000000000000000060408201527f000000000000000000000000000000000000000000000000000000000000000060608201524660808201523060a082015260a0815260c0810181811067ffffffffffffffff821117610c7e5760405251902090565b507f00000000000000000000000000000000000000000000000000000000000000004614611144565b60ff811461127b5760ff811690601f8211611269576040519161125f83610c62565b8252602082015290565b604051632cd44ac360e21b8152600490fd5b50604051600554815f61128d83610c2a565b8083529260019081811690811561131557506001146112b7575b506112b492500382610c92565b90565b60055f90815291507f036b6384b5eca791c62761152d0c79bb0604c104a5fb6f4eb0703f3154bb3db05b8483106112fa57506112b493505081016020015f6112a7565b819350908160209254838589010152019101909184926112e1565b9050602092506112b494915060ff191682840152151560051b8201015f6112a7565b60ff81146113595760ff811690601f8211611269576040519161125f83610c62565b50604051600654815f61136b83610c2a565b80835292600190818116908115611315575060011461139157506112b492500382610c92565b60065f90815291507ff652222313e28459528d920b65115c16c04f3efc82aaedc97be59f3f377c0d3f5b8483106113d457506112b493505081016020015f6112a7565b819350908160209254838589010152019101909184926113bb56fea2646970667358221220a5af0fd5392c39ee9a7540027ebf989e68517fa4851caf26d17c77e314613e6564736f6c63430008140033a2646970667358221220317bbaa99cd63a9a1fe7afd63cadba07acf73097632e5e0b6cceb68d5c2d8f2364736f6c63430008140033",
  "libraries": {},
  "devdoc": {
    "kind": "dev",
    "methods": {
      "createToken(string,string,uint256,address)": {
        "params": {
          "initialOwner": "Initial Owner",
          "name": "Token name",
          "symbol": "Token symbol",
          "totalSupply": "Initial total supply"
        },
        "returns": {
          "token": "The address of the new token"
        }
      }
    },
    "version": 1
  },
  "userdoc": {
    "kind": "user",
    "methods": {
      "createToken(string,string,uint256,address)": {
        "notice": "Creates a new INTERC20 token"
      }
    },
    "version": 1
  },
  "storageLayout": {
    "storage": [],
    "types": null
  }
}