{
  "address": "0x82E2dE70cc0a69942Beb7a722BDc0088c7351788",
  "abi": [
    {
      "inputs": [],
      "stateMutability": "nonpayable",
      "type": "constructor"
    },
    {
      "inputs": [],
      "name": "BuyFeeTooHigh",
      "type": "error"
    },
    {
      "inputs": [],
      "name": "SameTreasuryFeeRatio",
      "type": "error"
    },
    {
      "inputs": [],
      "name": "SellFeeTooHigh",
      "type": "error"
    },
    {
      "inputs": [],
      "name": "TokenIsZeroAddress",
      "type": "error"
    },
    {
      "inputs": [],
      "name": "TreasuryFeeRatioTooHigh",
      "type": "error"
    },
    {
      "inputs": [],
      "name": "TreasuryIsZeroAddress",
      "type": "error"
    },
    {
      "anonymous": false,
      "inputs": [
        {
          "indexed": false,
          "internalType": "uint256",
          "name": "oldFee",
          "type": "uint256"
        },
        {
          "indexed": false,
          "internalType": "uint256",
          "name": "newFee",
          "type": "uint256"
        }
      ],
      "name": "BuyFeeUpdated",
      "type": "event"
    },
    {
      "anonymous": false,
      "inputs": [
        {
          "indexed": false,
          "internalType": "uint8",
          "name": "version",
          "type": "uint8"
        }
      ],
      "name": "Initialized",
      "type": "event"
    },
    {
      "anonymous": false,
      "inputs": [
        {
          "indexed": true,
          "internalType": "address",
          "name": "tokenA",
          "type": "address"
        },
        {
          "indexed": true,
          "internalType": "address",
          "name": "tokenB",
          "type": "address"
        },
        {
          "indexed": false,
          "internalType": "address",
          "name": "pair",
          "type": "address"
        },
        {
          "indexed": false,
          "internalType": "uint256",
          "name": "totalPairs",
          "type": "uint256"
        }
      ],
      "name": "PairCreated",
      "type": "event"
    },
    {
      "anonymous": false,
      "inputs": [
        {
          "indexed": true,
          "internalType": "bytes32",
          "name": "role",
          "type": "bytes32"
        },
        {
          "indexed": true,
          "internalType": "bytes32",
          "name": "previousAdminRole",
          "type": "bytes32"
        },
        {
          "indexed": true,
          "internalType": "bytes32",
          "name": "newAdminRole",
          "type": "bytes32"
        }
      ],
      "name": "RoleAdminChanged",
      "type": "event"
    },
    {
      "anonymous": false,
      "inputs": [
        {
          "indexed": true,
          "internalType": "bytes32",
          "name": "role",
          "type": "bytes32"
        },
        {
          "indexed": true,
          "internalType": "address",
          "name": "account",
          "type": "address"
        },
        {
          "indexed": true,
          "internalType": "address",
          "name": "sender",
          "type": "address"
        }
      ],
      "name": "RoleGranted",
      "type": "event"
    },
    {
      "anonymous": false,
      "inputs": [
        {
          "indexed": true,
          "internalType": "bytes32",
          "name": "role",
          "type": "bytes32"
        },
        {
          "indexed": true,
          "internalType": "address",
          "name": "account",
          "type": "address"
        },
        {
          "indexed": true,
          "internalType": "address",
          "name": "sender",
          "type": "address"
        }
      ],
      "name": "RoleRevoked",
      "type": "event"
    },
    {
      "anonymous": false,
      "inputs": [
        {
          "indexed": false,
          "internalType": "uint256",
          "name": "oldFee",
          "type": "uint256"
        },
        {
          "indexed": false,
          "internalType": "uint256",
          "name": "newFee",
          "type": "uint256"
        }
      ],
      "name": "SellFeeUpdated",
      "type": "event"
    },
    {
      "anonymous": false,
      "inputs": [
        {
          "indexed": false,
          "internalType": "uint256",
          "name": "oldRatio",
          "type": "uint256"
        },
        {
          "indexed": false,
          "internalType": "uint256",
          "name": "newRatio",
          "type": "uint256"
        }
      ],
      "name": "TreasuryFeeRatioUpdated",
      "type": "event"
    },
    {
      "anonymous": false,
      "inputs": [
        {
          "indexed": false,
          "internalType": "address",
          "name": "oldTreasury",
          "type": "address"
        },
        {
          "indexed": false,
          "internalType": "address",
          "name": "newTreasury",
          "type": "address"
        }
      ],
      "name": "TreasuryUpdated",
      "type": "event"
    },
    {
      "inputs": [],
      "name": "ADMIN_ROLE",
      "outputs": [
        {
          "internalType": "bytes32",
          "name": "",
          "type": "bytes32"
        }
      ],
      "stateMutability": "view",
      "type": "function"
    },
    {
      "inputs": [],
      "name": "CREATOR_ROLE",
      "outputs": [
        {
          "internalType": "bytes32",
          "name": "",
          "type": "bytes32"
        }
      ],
      "stateMutability": "view",
      "type": "function"
    },
    {
      "inputs": [],
      "name": "DEFAULT_ADMIN_ROLE",
      "outputs": [
        {
          "internalType": "bytes32",
          "name": "",
          "type": "bytes32"
        }
      ],
      "stateMutability": "view",
      "type": "function"
    },
    {
      "inputs": [],
      "name": "allPairsLength",
      "outputs": [
        {
          "internalType": "uint256",
          "name": "",
          "type": "uint256"
        }
      ],
      "stateMutability": "view",
      "type": "function"
    },
    {
      "inputs": [],
      "name": "buyFee",
      "outputs": [
        {
          "internalType": "uint256",
          "name": "",
          "type": "uint256"
        }
      ],
      "stateMutability": "view",
      "type": "function"
    },
    {
      "inputs": [
        {
          "internalType": "address",
          "name": "tokenA",
          "type": "address"
        },
        {
          "internalType": "address",
          "name": "tokenB",
          "type": "address"
        }
      ],
      "name": "createPair",
      "outputs": [
        {
          "internalType": "address",
          "name": "",
          "type": "address"
        }
      ],
      "stateMutability": "nonpayable",
      "type": "function"
    },
    {
      "inputs": [
        {
          "internalType": "address",
          "name": "tokenA",
          "type": "address"
        },
        {
          "internalType": "address",
          "name": "tokenB",
          "type": "address"
        }
      ],
      "name": "getPair",
      "outputs": [
        {
          "internalType": "address",
          "name": "",
          "type": "address"
        }
      ],
      "stateMutability": "view",
      "type": "function"
    },
    {
      "inputs": [
        {
          "internalType": "bytes32",
          "name": "role",
          "type": "bytes32"
        }
      ],
      "name": "getRoleAdmin",
      "outputs": [
        {
          "internalType": "bytes32",
          "name": "",
          "type": "bytes32"
        }
      ],
      "stateMutability": "view",
      "type": "function"
    },
    {
      "inputs": [
        {
          "internalType": "bytes32",
          "name": "role",
          "type": "bytes32"
        },
        {
          "internalType": "address",
          "name": "account",
          "type": "address"
        }
      ],
      "name": "grantRole",
      "outputs": [],
      "stateMutability": "nonpayable",
      "type": "function"
    },
    {
      "inputs": [
        {
          "internalType": "bytes32",
          "name": "role",
          "type": "bytes32"
        },
        {
          "internalType": "address",
          "name": "account",
          "type": "address"
        }
      ],
      "name": "hasRole",
      "outputs": [
        {
          "internalType": "bool",
          "name": "",
          "type": "bool"
        }
      ],
      "stateMutability": "view",
      "type": "function"
    },
    {
      "inputs": [
        {
          "internalType": "address",
          "name": "treasury_",
          "type": "address"
        },
        {
          "internalType": "uint256",
          "name": "buyFee_",
          "type": "uint256"
        },
        {
          "internalType": "uint256",
          "name": "sellFee_",
          "type": "uint256"
        },
        {
          "internalType": "uint256",
          "name": "treasuryFeeRatio_",
          "type": "uint256"
        }
      ],
      "name": "initialize",
      "outputs": [],
      "stateMutability": "nonpayable",
      "type": "function"
    },
    {
      "inputs": [
        {
          "internalType": "uint256",
          "name": "",
          "type": "uint256"
        }
      ],
      "name": "pairs",
      "outputs": [
        {
          "internalType": "address",
          "name": "",
          "type": "address"
        }
      ],
      "stateMutability": "view",
      "type": "function"
    },
    {
      "inputs": [
        {
          "internalType": "bytes32",
          "name": "role",
          "type": "bytes32"
        },
        {
          "internalType": "address",
          "name": "account",
          "type": "address"
        }
      ],
      "name": "renounceRole",
      "outputs": [],
      "stateMutability": "nonpayable",
      "type": "function"
    },
    {
      "inputs": [
        {
          "internalType": "bytes32",
          "name": "role",
          "type": "bytes32"
        },
        {
          "internalType": "address",
          "name": "account",
          "type": "address"
        }
      ],
      "name": "revokeRole",
      "outputs": [],
      "stateMutability": "nonpayable",
      "type": "function"
    },
    {
      "inputs": [],
      "name": "router",
      "outputs": [
        {
          "internalType": "address",
          "name": "",
          "type": "address"
        }
      ],
      "stateMutability": "view",
      "type": "function"
    },
    {
      "inputs": [],
      "name": "sellFee",
      "outputs": [
        {
          "internalType": "uint256",
          "name": "",
          "type": "uint256"
        }
      ],
      "stateMutability": "view",
      "type": "function"
    },
    {
      "inputs": [
        {
          "internalType": "address",
          "name": "newTreasury",
          "type": "address"
        },
        {
          "internalType": "uint256",
          "name": "newBuyFee",
          "type": "uint256"
        },
        {
          "internalType": "uint256",
          "name": "newSellFee",
          "type": "uint256"
        },
        {
          "internalType": "uint256",
          "name": "newTreasuryFeeRatio",
          "type": "uint256"
        }
      ],
      "name": "setFeeParams",
      "outputs": [],
      "stateMutability": "nonpayable",
      "type": "function"
    },
    {
      "inputs": [
        {
          "internalType": "address",
          "name": "router_",
          "type": "address"
        }
      ],
      "name": "setRouter",
      "outputs": [],
      "stateMutability": "nonpayable",
      "type": "function"
    },
    {
      "inputs": [
        {
          "internalType": "bytes4",
          "name": "interfaceId",
          "type": "bytes4"
        }
      ],
      "name": "supportsInterface",
      "outputs": [
        {
          "internalType": "bool",
          "name": "",
          "type": "bool"
        }
      ],
      "stateMutability": "view",
      "type": "function"
    },
    {
      "inputs": [],
      "name": "treasury",
      "outputs": [
        {
          "internalType": "address",
          "name": "",
          "type": "address"
        }
      ],
      "stateMutability": "view",
      "type": "function"
    },
    {
      "inputs": [],
      "name": "treasuryFeeRatio",
      "outputs": [
        {
          "internalType": "uint256",
          "name": "",
          "type": "uint256"
        }
      ],
      "stateMutability": "view",
      "type": "function"
    }
  ],
  "transactionHash": "0x6b48d4d361ad8b902c0d69aa5d4840997024ed3b5f8eff5b25e02dda08e474e5",
  "args": [],
  "numDeployments": 1,
  "solcInputHash": "7bd6f3bf2fb06dddc402a5e51dab3df2",
  "bytecode": "0x608080604052346100bf575f549060ff8260081c1661006d575060ff80821603610033575b60405161222290816100c48239f35b60ff90811916175f557f7f26b83ff96e1f2b6a682f133852f6798a09c465da95921460cefb3847402498602060405160ff8152a15f610024565b62461bcd60e51b815260206004820152602760248201527f496e697469616c697a61626c653a20636f6e747261637420697320696e697469604482015266616c697a696e6760c81b6064820152608490fd5b5f80fdfe608060408181526004918236101562000016575f80fd5b5f92833560e01c91826301ffc9a71462000d2557508163248a9ca31462000cf85781632b14ca561462000cd75781632f2ff15d1462000c2357816336568abe1462000b8a578163470624021462000b695781634ec81af11462000947578163574f2ba3146200092657816361d027b314620008fb57816375b238fc14620008be5781638aeda25a146200088157816391b900ef146200071657816391d1485414620006cb578163a217fddf14620006ae578163ab9d2fba146200068d578163b91ac7881462000647578163c0d7865514620005fe578163c9c6539614620001e8578163d547741f146200019d57508063e6a43905146200014c5763f887ea40146200011f575f80fd5b34620001485781600319360112620001485760cb5490516001600160a01b039091168152602090f35b5080fd5b50346200014857806003193601126200014857602091816200016d62000d98565b916200017862000d7d565b6001600160a01b03938416825260c98652828220908416825285522054915191168152f35b91905034620001e45780600319360112620001e457620001e19135620001db6001620001c862000d7d565b9383875260656020528620015462001037565b620011cb565b80f35b8280fd5b83833462000148578060031936011262000148576200020662000d98565b926200021162000d7d565b7f828634d95e775031b9ff576b159a8509d3053581a8c9c4d7d86899e0afcd882f9485855260209560658752848620338752875260ff8587205416156200040a5750600260975414620003c75760026097556001600160a01b03908116918215620003b7578116928315620003a9578451610e228082019082821067ffffffffffffffff83111762000396576060918391620013cb8339308152868b820152878982015203019087f080156200038c5782169583815260c9885285812085825288528581206001600160601b0360a01b90888282541617905560c989528682208583528952878783209182541617905560ca549168010000000000000000831015620003795750508060016200032b920160ca5562000ddf565b819291549060031b9187831b921b19161790557f0d3648bd0f6ba80134a33ba9275ac585d9d315f0ad8355cddefde31afa28d0e98360ca5481519087825288820152a3600160975551908152f35b634e487b7160e01b825260419052602490fd5b85513d88823e3d90fd5b634e487b7160e01b895260418452602489fd5b8451639bb8530d60e01b8152fd5b8451639bb8530d60e01b81528490fd5b835162461bcd60e51b8152808401879052601f60248201527f5265656e7472616e637947756172643a207265656e7472616e742063616c6c006044820152606490fd5b92949150506200041a3362001253565b91835190620004298262001177565b60428252868201926060368537825115620005eb5760308453825190600191821015620005d85790607860218501536041915b8183116200056957505050620005285783620004f7604888956200051a95620004e79560449a9951968793620004bd8b86019b76020b1b1b2b9b9a1b7b73a3937b61d1030b1b1b7bab73a1604d1b8d52825192839160378901910162001154565b8401917001034b99036b4b9b9b4b733903937b6329607d1b60378401525180938684019062001154565b01036028810185520183620011a8565b5195869462461bcd60e51b86528501525180928160248601528585019062001154565b601f01601f19168101030190fd5b606485878087519262461bcd60e51b845283015260248201527f537472696e67733a20686578206c656e67746820696e73756666696369656e746044820152fd5b909192600f81166010811015620005c5576f181899199a1a9b1b9c1cb0b131b232b360811b901a6200059c858762001241565b53881c928015620005b2575f190191906200045c565b634e487b7160e01b825260118952602482fd5b634e487b7160e01b835260328a52602483fd5b634e487b7160e01b815260328852602490fd5b634e487b7160e01b815260328752602490fd5b83346200064457602036600319011262000644576200061c62000d98565b6200062662000e29565b60018060a01b03166001600160601b0360a01b60cb54161760cb5580f35b80fd5b905034620001e4576020366003190112620001e457359160ca548310156200064457506200067760209262000ddf565b905491519160018060a01b039160031b1c168152f35b505034620001485781600319360112620001485760209060cf549051908152f35b505034620001485781600319360112620001485751908152602090f35b905034620001e45781600319360112620001e4578160209360ff92620006f062000d7d565b90358252606586528282206001600160a01b039091168252855220549151911615158152f35b91905034620001e4576200072a3662000daf565b94919290936200073962000e29565b6001600160a01b03918216928315620008735760648511620008655760648611620008575760648711620008495750807f4ab5be82436d353e61ca18726e984e561f5c1cc7c6d38b29d2553c790434705a7f3e2833ed114df567cf991e8cec08813818eb67c6dc80eaa85392d17f16cbfdff9260cc549481519086168152866020820152a17f28e297c7c282931a994191b735b01eaf17558295f761512a7047f4e1b8dc3b0b8160cd548151908152876020820152a17f5bafec153d96f8ef37761b64348732b41a6b477401d244a5070f9f82d689adce8160ce548151908152886020820152a160cf548151908152876020820152a16001600160a01b0319161760cc5560cd5560ce5560cf5580f35b9051639d5524db60e01b8152fd5b9051636a412e1d60e11b8152fd5b905163e044531760e01b8152fd5b90516375388c4960e01b8152fd5b5050346200014857816003193601126200014857602090517f828634d95e775031b9ff576b159a8509d3053581a8c9c4d7d86899e0afcd882f8152f35b5050346200014857816003193601126200014857602090517fa49807205ce4d355092ef5a8a18f56e8913cf4a201fbe287825b095693c217758152f35b505034620001485781600319360112620001485760cc5490516001600160a01b039091168152602090f35b505034620001485781600319360112620001485760209060ca549051908152f35b905034620001e4576200095a3662000daf565b9286929192549460ff8660081c16159586809762000b5b575b801562000b42575b1562000ae85760ff198181166001178a55908762000ad6575b50620009bd60ff8a5460081c16620009ac8162001369565b620009b78162001369565b62001369565b60016097558880526065602052878920338a5260205260ff888a2054161562000a8b575b506064831162000a7d576064841162000a6f576064851162000a61575060018060a01b03166001600160601b0360a01b60cc54161760cc5560cd5560ce5560cf5562000a2b575080f35b60207f7f26b83ff96e1f2b6a682f133852f6798a09c465da95921460cefb38474024989161ff001984541684555160018152a180f35b8651639d5524db60e01b8152fd5b8651636a412e1d60e11b8152fd5b865163e044531760e01b8152fd5b8880526065602052878920338a526020526001888a20918254161790553333897f2f8788117e7eff1d82e926ec794901d17c78024a50270940304540a733656f0d8180a45f620009e1565b61ffff19166101011789555f62000994565b875162461bcd60e51b8152602081840152602e60248201527f496e697469616c697a61626c653a20636f6e747261637420697320616c72656160448201526d191e481a5b9a5d1a585b1a5e995960921b6064820152608490fd5b50303b1580156200097b5750600160ff8216146200097b565b50600160ff82161062000973565b505034620001485781600319360112620001485760209060cd549051908152f35b83915034620001485782600319360112620001485762000ba962000d7d565b90336001600160a01b0383160362000bc85790620001e19135620011cb565b608490602085519162461bcd60e51b8352820152602f60248201527f416363657373436f6e74726f6c3a2063616e206f6e6c792072656e6f756e636560448201526e103937b632b9903337b91039b2b63360891b6064820152fd5b905034620001e45781600319360112620001e457359062000c4362000d7d565b90828452606560205262000c5d6001828620015462001037565b828452606560209081528185206001600160a01b039093168086529290528084205460ff161562000c8c578380f35b82845260656020528084208285526020528320600160ff1982541617905533917f2f8788117e7eff1d82e926ec794901d17c78024a50270940304540a733656f0d8480a45f80808380f35b505034620001485781600319360112620001485760209060ce549051908152f35b905034620001e4576020366003190112620001e45781602093600192358152606585522001549051908152f35b849134620001e4576020366003190112620001e4573563ffffffff60e01b8116809103620001e45760209250637965db0b60e01b811490811562000d6b575b5015158152f35b6301ffc9a760e01b1490508362000d64565b602435906001600160a01b038216820362000d9457565b5f80fd5b600435906001600160a01b038216820362000d9457565b608090600319011262000d94576004356001600160a01b038116810362000d945790602435906044359060643590565b60ca5481101562000e155760ca5f527f42d72674974f694b5f5159593243114d38a5c39c89d6b62fee061ff523240ee101905f90565b634e487b7160e01b5f52603260045260245ffd5b335f9081527f2c01dc0041dfb6d4238a91e5a638996136aed16f837d5beb45610732cf9bf4b06020908152604080832054909291907fa49807205ce4d355092ef5a8a18f56e8913cf4a201fbe287825b095693c217759060ff161562000e8f5750505050565b62000e9a3362001253565b9084519062000ea98262001177565b60428252838201946060368737825115620010235760308653825190600191821015620010235790607860218501536041915b81831162000fb15750505062000f6f578462000f4a60486200051a93604497985198899162000f3a8984019876020b1b1b2b9b9a1b7b73a3937b61d1030b1b1b7bab73a1604d1b8a52620004bd815180928d60378901910162001154565b01036028810189520187620011a8565b5194859362461bcd60e51b855260048501525180928160248601528585019062001154565b60648386519062461bcd60e51b825280600483015260248201527f537472696e67733a20686578206c656e67746820696e73756666696369656e746044820152fd5b909192600f811660108110156200100f576f181899199a1a9b1b9c1cb0b131b232b360811b901a62000fe4858762001241565b5360041c92801562000ffb575f1901919062000edc565b634e487b7160e01b82526011600452602482fd5b634e487b7160e01b83526032600452602483fd5b634e487b7160e01b81526032600452602490fd5b5f818152602060658152604092838320338452825260ff8484205416156200105f5750505050565b6200106a3362001253565b90845190620010798262001177565b60428252838201946060368737825115620010235760308653825190600191821015620010235790607860218501536041915b8183116200110a5750505062000f6f578462000f4a60486200051a93604497985198899162000f3a8984019876020b1b1b2b9b9a1b7b73a3937b61d1030b1b1b7bab73a1604d1b8a52620004bd815180928d60378901910162001154565b909192600f811660108110156200100f576f181899199a1a9b1b9c1cb0b131b232b360811b901a6200113d858762001241565b5360041c92801562000ffb575f19019190620010ac565b5f5b838110620011665750505f910152565b818101518382015260200162001156565b6080810190811067ffffffffffffffff8211176200119457604052565b634e487b7160e01b5f52604160045260245ffd5b90601f8019910116810190811067ffffffffffffffff8211176200119457604052565b905f918083526065602052604083209160018060a01b03169182845260205260ff604084205416620011fc57505050565b8083526065602052604083208284526020526040832060ff1981541690557ff6391f5c32d9c69d2a47ea670b442974b53935d1edc7fd64eb21e047a839171b339380a4565b90815181101562000e15570160200190565b604051906060820182811067ffffffffffffffff8211176200119457604052602a825260208201604036823782511562000e155760309053815160019081101562000e1557607860218401536029905b808211620012f9575050620012b55790565b606460405162461bcd60e51b815260206004820152602060248201527f537472696e67733a20686578206c656e67746820696e73756666696369656e746044820152fd5b9091600f8116601081101562001355576f181899199a1a9b1b9c1cb0b131b232b360811b901a6200132b848662001241565b5360041c91801562001341575f190190620012a3565b60245f634e487b7160e01b81526011600452fd5b60245f634e487b7160e01b81526032600452fd5b156200137157565b60405162461bcd60e51b815260206004820152602b60248201527f496e697469616c697a61626c653a20636f6e7472616374206973206e6f74206960448201526a6e697469616c697a696e6760a81b6064820152608490fdfe60e03461012957601f610e2238819003918201601f191683019291906001600160401b0384118385101761012d5781606092849260409687528339810103126101295761004b81610141565b906100638361005c60208401610141565b9201610141565b60015f55916001600160a01b03808216156101185780831615610107578316156100f65760805260a05260c05251610ccc90816101568239608051818181610183015281816102ea01528181610401015281816105c4015281816106fc01526107c9015260a0518181816101e30152818161074c01526108ea015260c05181818160e701528181610258015261033a0152f35b8351639bb8530d60e01b8152600490fd5b8451639bb8530d60e01b8152600490fd5b845163015c275360e31b8152600490fd5b5f80fd5b634e487b7160e01b5f52604160045260245ffd5b51906001600160a01b03821682036101295756fe6080604081815260049081361015610015575f80fd5b5f92833560e01c9081630902f1ac1461093d575080630e06dfc9146109195780630fc63d10146108d55780631b2ef1ca1461078f5780632ccb1b30146106c45780635673b02d146105825780635c52a5f2146103b85780635c921eb9146102b25780635c9d6938146102875780635f64b55b146102435780637464fc3d14610224578063b69ef8a8146101b6578063c45a01551461016e5763c66f2455146100bb575f80fd5b3461015857826003193601126101585780516370a0823160e01b815230928101929092526020826024817f00000000000000000000000000000000000000000000000000000000000000006001600160a01b03165afa918215610164578392610129575b6020838351908152f35b9091506020813d821161015c575b81610144602093836109ab565b81010312610158576020925051905f61011f565b8280fd5b3d9150610137565b81513d85823e3d90fd5b8382346101b257816003193601126101b257517f00000000000000000000000000000000000000000000000000000000000000006001600160a01b03168152602090f35b5080fd5b503461015857826003193601126101585780516370a0823160e01b815230928101929092526020826024817f00000000000000000000000000000000000000000000000000000000000000006001600160a01b03165afa918215610164578392610129576020838351908152f35b8382346101b257816003193601126101b2576020906003549051908152f35b8382346101b257816003193601126101b257517f00000000000000000000000000000000000000000000000000000000000000006001600160a01b03168152602090f35b8382346101b257816003193601126101b2576020906102ab60025460015490610c78565b9051908152f35b508290346101b257806003193601126101b2576102cd610961565b81516303e21fa960e61b81526001600160a01b03929060208187817f000000000000000000000000000000000000000000000000000000000000000088165afa9081156103ae579084918691610380575b50163303610371578282161561036257509061035f91602435917f000000000000000000000000000000000000000000000000000000000000000016610c3a565b80f35b516311d000e160e31b81528490fd5b51630693060f60e01b81528490fd5b6103a1915060203d81116103a7575b61039981836109ab565b8101906109cd565b8761031e565b503d61038f565b82513d87823e3d90fd5b50823461057f57606036600319011261057f576103d3610961565b6001600160a01b0393602435858116919082900361057b5784516303e21fa960e61b815260209690878184817f000000000000000000000000000000000000000000000000000000000000000086165afa908115610571579082918791610554575b501633036105455783169081156105375782156105295750845163095ea7b360e01b8782018181526001600160a01b03959095166024830152604480358184015282529093859081906104896064886109ab565b86519082875af1610498610b29565b816104f9575b50806104ef575b156104b4575b86865160018152f35b6104e5946104e0928751928984015260248301526044820152604481526104da8161097b565b82610a32565b610a32565b82808080806104ab565b50823b15156104a5565b80518015925089908315610511575b5050508861049e565b6105219350820181019101610a1a565b888881610508565b8551639bb8530d60e01b8152fd5b85516311d000e160e31b8152fd5b508451630693060f60e01b8152fd5b61056b9150893d8b116103a75761039981836109ab565b89610435565b87513d88823e3d90fd5b8380fd5b80fd5b5090346101585760803660031901126101585781516303e21fa960e61b8152602093823592606435926044359260243592916001600160a01b039190898185817f000000000000000000000000000000000000000000000000000000000000000087165afa9182156106b9579161069c575b5016330361068e5791818593610639608096946106347f298c349c742327269dc8de6ad66687767310c948ea309df826f5bd103e19d207996001546109ec565b610a0d565b61064985610634866002546109ec565b906003548a51906106598261097b565b828252838d8301528b820152606042910152600155600255429055865193845287840152858301526060820152a15160018152f35b8551630693060f60e01b8152fd5b6106b39150893d8b116103a75761039981836109ab565b5f6105f4565b8951903d90823e3d90fd5b508290346101b257806003193601126101b2576106df610961565b81516303e21fa960e61b81526001600160a01b03929060208187817f000000000000000000000000000000000000000000000000000000000000000088165afa9081156103ae579084918691610771575b50163303610371578282161561036257509061035f91602435917f000000000000000000000000000000000000000000000000000000000000000016610c3a565b610789915060203d81116103a75761039981836109ab565b87610730565b50903461015857816003193601126101585781516303e21fa960e61b8152602093823592602435929091906001600160a01b0390878185817f000000000000000000000000000000000000000000000000000000000000000086165afa9081156108cb5783916108ae575b5016330361089f578154610890578284029084820484148515171561087d5750917fcc9c58b575eabd3f6a1ee653e91fcea3ff546867ffc3782a3bbca1f9b6dbb8df93918593845161084b8161097b565b848152838982015281868201526060429101528360015582600255600355429055825191825285820152a15160018152f35b634e487b7160e01b815260118352602490fd5b508351631bbdf5c560e31b8152fd5b508351630693060f60e01b8152fd5b6108c59150883d8a116103a75761039981836109ab565b5f6107fa565b87513d85823e3d90fd5b8382346101b257816003193601126101b257517f00000000000000000000000000000000000000000000000000000000000000006001600160a01b03168152602090f35b8382346101b257816003193601126101b2576020906102ab60015460025490610c78565b9050833461057f578060031936011261057f57506001546002549082526020820152f35b600435906001600160a01b038216820361097757565b5f80fd5b6080810190811067ffffffffffffffff82111761099757604052565b634e487b7160e01b5f52604160045260245ffd5b90601f8019910116810190811067ffffffffffffffff82111761099757604052565b9081602091031261097757516001600160a01b03811681036109775790565b919082018092116109f957565b634e487b7160e01b5f52601160045260245ffd5b919082039182116109f957565b90816020910312610977575180151581036109775790565b60408051908101916001600160a01b031667ffffffffffffffff83118284101761099757610aa1926040525f806020958685527f5361666545524332303a206c6f772d6c6576656c2063616c6c206661696c656487860152868151910182855af1610a9b610b29565b91610b68565b805190828215928315610b11575b50505015610aba5750565b6084906040519062461bcd60e51b82526004820152602a60248201527f5361666545524332303a204552433230206f7065726174696f6e20646964206e6044820152691bdd081cdd58d8d9595960b21b6064820152fd5b610b219350820181019101610a1a565b5f8281610aaf565b3d15610b63573d9067ffffffffffffffff82116109975760405191610b58601f8201601f1916602001846109ab565b82523d5f602084013e565b606090565b91929015610bca5750815115610b7c575090565b3b15610b855790565b60405162461bcd60e51b815260206004820152601d60248201527f416464726573733a2063616c6c20746f206e6f6e2d636f6e74726163740000006044820152606490fd5b825190915015610bdd5750805190602001fd5b6040519062461bcd60e51b82528160208060048301528251908160248401525f935b828510610c21575050604492505f838284010152601f80199101168101030190fd5b8481018201518686016044015293810193859350610bff565b60405163a9059cbb60e01b60208201526001600160a01b03929092166024830152604480830193909352918152610c76916104e06064836109ab565b565b8115610c82570490565b634e487b7160e01b5f52601260045260245ffdfea26469706673582212209629b5701b019cfd3855594893ce472bfddaa8f1cd8efa819df08eacfb99f99664736f6c63430008140033a264697066735822122001aa8ac147ce9b5cc44b5b08ef06de743d91892c7d1b1d3d6d609034d5ae745464736f6c63430008140033",
  "libraries": {},
  "devdoc": {
    "events": {
      "Initialized(uint8)": {
        "details": "Triggered when the contract has been initialized or reinitialized."
      },
      "RoleAdminChanged(bytes32,bytes32,bytes32)": {
        "details": "Emitted when `newAdminRole` is set as ``role``'s admin role, replacing `previousAdminRole` `DEFAULT_ADMIN_ROLE` is the starting admin for all roles, despite {RoleAdminChanged} not being emitted signaling this. _Available since v3.1._"
      },
      "RoleGranted(bytes32,address,address)": {
        "details": "Emitted when `account` is granted `role`. `sender` is the account that originated the contract call, an admin role bearer except when using {AccessControl-_setupRole}."
      },
      "RoleRevoked(bytes32,address,address)": {
        "details": "Emitted when `account` is revoked `role`. `sender` is the account that originated the contract call:   - if using `revokeRole`, it is the admin role bearer   - if using `renounceRole`, it is the role bearer (i.e. `account`)"
      }
    },
    "kind": "dev",
    "methods": {
      "constructor": {
        "custom:oz-upgrades-unsafe-allow": "constructor"
      },
      "getRoleAdmin(bytes32)": {
        "details": "Returns the admin role that controls `role`. See {grantRole} and {revokeRole}. To change a role's admin, use {_setRoleAdmin}."
      },
      "grantRole(bytes32,address)": {
        "details": "Grants `role` to `account`. If `account` had not been already granted `role`, emits a {RoleGranted} event. Requirements: - the caller must have ``role``'s admin role. May emit a {RoleGranted} event."
      },
      "hasRole(bytes32,address)": {
        "details": "Returns `true` if `account` has been granted `role`."
      },
      "renounceRole(bytes32,address)": {
        "details": "Revokes `role` from the calling account. Roles are often managed via {grantRole} and {revokeRole}: this function's purpose is to provide a mechanism for accounts to lose their privileges if they are compromised (such as when a trusted device is misplaced). If the calling account had been revoked `role`, emits a {RoleRevoked} event. Requirements: - the caller must be `account`. May emit a {RoleRevoked} event."
      },
      "revokeRole(bytes32,address)": {
        "details": "Revokes `role` from `account`. If `account` had been granted `role`, emits a {RoleRevoked} event. Requirements: - the caller must have ``role``'s admin role. May emit a {RoleRevoked} event."
      },
      "supportsInterface(bytes4)": {
        "details": "See {IERC165-supportsInterface}."
      }
    },
    "version": 1
  },
  "userdoc": {
    "kind": "user",
    "methods": {},
    "version": 1
  },
  "storageLayout": {
    "storage": [
      {
        "astId": 4328,
        "contract": "src/INTFactory.sol:INTFactory",
        "label": "_initialized",
        "offset": 0,
        "slot": "0",
        "type": "t_uint8"
      },
      {
        "astId": 4331,
        "contract": "src/INTFactory.sol:INTFactory",
        "label": "_initializing",
        "offset": 1,
        "slot": "0",
        "type": "t_bool"
      },
      {
        "astId": 5660,
        "contract": "src/INTFactory.sol:INTFactory",
        "label": "__gap",
        "offset": 0,
        "slot": "1",
        "type": "t_array(t_uint256)50_storage"
      },
      {
        "astId": 5933,
        "contract": "src/INTFactory.sol:INTFactory",
        "label": "__gap",
        "offset": 0,
        "slot": "51",
        "type": "t_array(t_uint256)50_storage"
      },
      {
        "astId": 3714,
        "contract": "src/INTFactory.sol:INTFactory",
        "label": "_roles",
        "offset": 0,
        "slot": "101",
        "type": "t_mapping(t_bytes32,t_struct(RoleData)3709_storage)"
      },
      {
        "astId": 4009,
        "contract": "src/INTFactory.sol:INTFactory",
        "label": "__gap",
        "offset": 0,
        "slot": "102",
        "type": "t_array(t_uint256)49_storage"
      },
      {
        "astId": 4504,
        "contract": "src/INTFactory.sol:INTFactory",
        "label": "_status",
        "offset": 0,
        "slot": "151",
        "type": "t_uint256"
      },
      {
        "astId": 4573,
        "contract": "src/INTFactory.sol:INTFactory",
        "label": "__gap",
        "offset": 0,
        "slot": "152",
        "type": "t_array(t_uint256)49_storage"
      },
      {
        "astId": 14765,
        "contract": "src/INTFactory.sol:INTFactory",
        "label": "_pair",
        "offset": 0,
        "slot": "201",
        "type": "t_mapping(t_address,t_mapping(t_address,t_address))"
      },
      {
        "astId": 14768,
        "contract": "src/INTFactory.sol:INTFactory",
        "label": "pairs",
        "offset": 0,
        "slot": "202",
        "type": "t_array(t_address)dyn_storage"
      },
      {
        "astId": 14770,
        "contract": "src/INTFactory.sol:INTFactory",
        "label": "router",
        "offset": 0,
        "slot": "203",
        "type": "t_address"
      },
      {
        "astId": 14772,
        "contract": "src/INTFactory.sol:INTFactory",
        "label": "treasury",
        "offset": 0,
        "slot": "204",
        "type": "t_address"
      },
      {
        "astId": 14774,
        "contract": "src/INTFactory.sol:INTFactory",
        "label": "buyFee",
        "offset": 0,
        "slot": "205",
        "type": "t_uint256"
      },
      {
        "astId": 14776,
        "contract": "src/INTFactory.sol:INTFactory",
        "label": "sellFee",
        "offset": 0,
        "slot": "206",
        "type": "t_uint256"
      },
      {
        "astId": 14778,
        "contract": "src/INTFactory.sol:INTFactory",
        "label": "treasuryFeeRatio",
        "offset": 0,
        "slot": "207",
        "type": "t_uint256"
      }
    ],
    "types": {
      "t_address": {
        "encoding": "inplace",
        "label": "address",
        "numberOfBytes": "20"
      },
      "t_array(t_address)dyn_storage": {
        "base": "t_address",
        "encoding": "dynamic_array",
        "label": "address[]",
        "numberOfBytes": "32"
      },
      "t_array(t_uint256)49_storage": {
        "base": "t_uint256",
        "encoding": "inplace",
        "label": "uint256[49]",
        "numberOfBytes": "1568"
      },
      "t_array(t_uint256)50_storage": {
        "base": "t_uint256",
        "encoding": "inplace",
        "label": "uint256[50]",
        "numberOfBytes": "1600"
      },
      "t_bool": {
        "encoding": "inplace",
        "label": "bool",
        "numberOfBytes": "1"
      },
      "t_bytes32": {
        "encoding": "inplace",
        "label": "bytes32",
        "numberOfBytes": "32"
      },
      "t_mapping(t_address,t_address)": {
        "encoding": "mapping",
        "key": "t_address",
        "label": "mapping(address => address)",
        "numberOfBytes": "32",
        "value": "t_address"
      },
      "t_mapping(t_address,t_bool)": {
        "encoding": "mapping",
        "key": "t_address",
        "label": "mapping(address => bool)",
        "numberOfBytes": "32",
        "value": "t_bool"
      },
      "t_mapping(t_address,t_mapping(t_address,t_address))": {
        "encoding": "mapping",
        "key": "t_address",
        "label": "mapping(address => mapping(address => address))",
        "numberOfBytes": "32",
        "value": "t_mapping(t_address,t_address)"
      },
      "t_mapping(t_bytes32,t_struct(RoleData)3709_storage)": {
        "encoding": "mapping",
        "key": "t_bytes32",
        "label": "mapping(bytes32 => struct AccessControlUpgradeable.RoleData)",
        "numberOfBytes": "32",
        "value": "t_struct(RoleData)3709_storage"
      },
      "t_struct(RoleData)3709_storage": {
        "encoding": "inplace",
        "label": "struct AccessControlUpgradeable.RoleData",
        "members": [
          {
            "astId": 3706,
            "contract": "src/INTFactory.sol:INTFactory",
            "label": "members",
            "offset": 0,
            "slot": "0",
            "type": "t_mapping(t_address,t_bool)"
          },
          {
            "astId": 3708,
            "contract": "src/INTFactory.sol:INTFactory",
            "label": "adminRole",
            "offset": 0,
            "slot": "1",
            "type": "t_bytes32"
          }
        ],
        "numberOfBytes": "64"
      },
      "t_uint256": {
        "encoding": "inplace",
        "label": "uint256",
        "numberOfBytes": "32"
      },
      "t_uint8": {
        "encoding": "inplace",
        "label": "uint8",
        "numberOfBytes": "1"
      }
    }
  }
}