{
  "address": "0x3E0B5C006775C227C50121b943b6341Bfd50255b",
  "abi": [
    {
      "inputs": [
        {
          "internalType": "address",
          "name": "_token",
          "type": "address"
        },
        {
          "internalType": "address",
          "name": "_lzEndpoint",
          "type": "address"
        }
      ],
      "stateMutability": "nonpayable",
      "type": "constructor"
    },
    {
      "inputs": [],
      "name": "InvalidDelegate",
      "type": "error"
    },
    {
      "inputs": [],
      "name": "InvalidEndpointCall",
      "type": "error"
    },
    {
      "inputs": [],
      "name": "InvalidLocalDecimals",
      "type": "error"
    },
    {
      "inputs": [
        {
          "internalType": "bytes",
          "name": "options",
          "type": "bytes"
        }
      ],
      "name": "InvalidOptions",
      "type": "error"
    },
    {
      "inputs": [],
      "name": "LzTokenUnavailable",
      "type": "error"
    },
    {
      "inputs": [
        {
          "internalType": "uint32",
          "name": "eid",
          "type": "uint32"
        }
      ],
      "name": "NoPeer",
      "type": "error"
    },
    {
      "inputs": [
        {
          "internalType": "uint256",
          "name": "msgValue",
          "type": "uint256"
        }
      ],
      "name": "NotEnoughNative",
      "type": "error"
    },
    {
      "inputs": [
        {
          "internalType": "address",
          "name": "addr",
          "type": "address"
        }
      ],
      "name": "OnlyEndpoint",
      "type": "error"
    },
    {
      "inputs": [
        {
          "internalType": "uint32",
          "name": "eid",
          "type": "uint32"
        },
        {
          "internalType": "bytes32",
          "name": "sender",
          "type": "bytes32"
        }
      ],
      "name": "OnlyPeer",
      "type": "error"
    },
    {
      "inputs": [],
      "name": "OnlySelf",
      "type": "error"
    },
    {
      "inputs": [
        {
          "internalType": "bytes",
          "name": "result",
          "type": "bytes"
        }
      ],
      "name": "SimulationResult",
      "type": "error"
    },
    {
      "inputs": [
        {
          "internalType": "uint256",
          "name": "amountLD",
          "type": "uint256"
        },
        {
          "internalType": "uint256",
          "name": "minAmountLD",
          "type": "uint256"
        }
      ],
      "name": "SlippageExceeded",
      "type": "error"
    },
    {
      "anonymous": false,
      "inputs": [
        {
          "components": [
            {
              "internalType": "uint32",
              "name": "eid",
              "type": "uint32"
            },
            {
              "internalType": "uint16",
              "name": "msgType",
              "type": "uint16"
            },
            {
              "internalType": "bytes",
              "name": "options",
              "type": "bytes"
            }
          ],
          "indexed": false,
          "internalType": "struct EnforcedOptionParam[]",
          "name": "_enforcedOptions",
          "type": "tuple[]"
        }
      ],
      "name": "EnforcedOptionSet",
      "type": "event"
    },
    {
      "anonymous": false,
      "inputs": [
        {
          "indexed": false,
          "internalType": "uint8",
          "name": "version",
          "type": "uint8"
        }
      ],
      "name": "Initialized",
      "type": "event"
    },
    {
      "anonymous": false,
      "inputs": [
        {
          "indexed": false,
          "internalType": "address",
          "name": "inspector",
          "type": "address"
        }
      ],
      "name": "MsgInspectorSet",
      "type": "event"
    },
    {
      "anonymous": false,
      "inputs": [
        {
          "indexed": true,
          "internalType": "bytes32",
          "name": "guid",
          "type": "bytes32"
        },
        {
          "indexed": false,
          "internalType": "uint32",
          "name": "srcEid",
          "type": "uint32"
        },
        {
          "indexed": true,
          "internalType": "address",
          "name": "toAddress",
          "type": "address"
        },
        {
          "indexed": false,
          "internalType": "uint256",
          "name": "amountReceivedLD",
          "type": "uint256"
        }
      ],
      "name": "OFTReceived",
      "type": "event"
    },
    {
      "anonymous": false,
      "inputs": [
        {
          "indexed": true,
          "internalType": "bytes32",
          "name": "guid",
          "type": "bytes32"
        },
        {
          "indexed": false,
          "internalType": "uint32",
          "name": "dstEid",
          "type": "uint32"
        },
        {
          "indexed": true,
          "internalType": "address",
          "name": "fromAddress",
          "type": "address"
        },
        {
          "indexed": false,
          "internalType": "uint256",
          "name": "amountSentLD",
          "type": "uint256"
        },
        {
          "indexed": false,
          "internalType": "uint256",
          "name": "amountReceivedLD",
          "type": "uint256"
        }
      ],
      "name": "OFTSent",
      "type": "event"
    },
    {
      "anonymous": false,
      "inputs": [
        {
          "indexed": true,
          "internalType": "address",
          "name": "previousOwner",
          "type": "address"
        },
        {
          "indexed": true,
          "internalType": "address",
          "name": "newOwner",
          "type": "address"
        }
      ],
      "name": "OwnershipTransferStarted",
      "type": "event"
    },
    {
      "anonymous": false,
      "inputs": [
        {
          "indexed": true,
          "internalType": "address",
          "name": "previousOwner",
          "type": "address"
        },
        {
          "indexed": true,
          "internalType": "address",
          "name": "newOwner",
          "type": "address"
        }
      ],
      "name": "OwnershipTransferred",
      "type": "event"
    },
    {
      "anonymous": false,
      "inputs": [
        {
          "indexed": false,
          "internalType": "address",
          "name": "account",
          "type": "address"
        }
      ],
      "name": "Paused",
      "type": "event"
    },
    {
      "anonymous": false,
      "inputs": [
        {
          "indexed": false,
          "internalType": "uint32",
          "name": "eid",
          "type": "uint32"
        },
        {
          "indexed": false,
          "internalType": "bytes32",
          "name": "peer",
          "type": "bytes32"
        }
      ],
      "name": "PeerSet",
      "type": "event"
    },
    {
      "anonymous": false,
      "inputs": [
        {
          "indexed": false,
          "internalType": "address",
          "name": "preCrimeAddress",
          "type": "address"
        }
      ],
      "name": "PreCrimeSet",
      "type": "event"
    },
    {
      "anonymous": false,
      "inputs": [
        {
          "indexed": true,
          "internalType": "bytes32",
          "name": "role",
          "type": "bytes32"
        },
        {
          "indexed": true,
          "internalType": "bytes32",
          "name": "previousAdminRole",
          "type": "bytes32"
        },
        {
          "indexed": true,
          "internalType": "bytes32",
          "name": "newAdminRole",
          "type": "bytes32"
        }
      ],
      "name": "RoleAdminChanged",
      "type": "event"
    },
    {
      "anonymous": false,
      "inputs": [
        {
          "indexed": true,
          "internalType": "bytes32",
          "name": "role",
          "type": "bytes32"
        },
        {
          "indexed": true,
          "internalType": "address",
          "name": "account",
          "type": "address"
        },
        {
          "indexed": true,
          "internalType": "address",
          "name": "sender",
          "type": "address"
        }
      ],
      "name": "RoleGranted",
      "type": "event"
    },
    {
      "anonymous": false,
      "inputs": [
        {
          "indexed": true,
          "internalType": "bytes32",
          "name": "role",
          "type": "bytes32"
        },
        {
          "indexed": true,
          "internalType": "address",
          "name": "account",
          "type": "address"
        },
        {
          "indexed": true,
          "internalType": "address",
          "name": "sender",
          "type": "address"
        }
      ],
      "name": "RoleRevoked",
      "type": "event"
    },
    {
      "anonymous": false,
      "inputs": [
        {
          "indexed": false,
          "internalType": "address",
          "name": "token",
          "type": "address"
        }
      ],
      "name": "TokenInit",
      "type": "event"
    },
    {
      "anonymous": false,
      "inputs": [
        {
          "indexed": false,
          "internalType": "address",
          "name": "account",
          "type": "address"
        }
      ],
      "name": "Unpaused",
      "type": "event"
    },
    {
      "inputs": [],
      "name": "DEFAULT_ADMIN_ROLE",
      "outputs": [
        {
          "internalType": "bytes32",
          "name": "",
          "type": "bytes32"
        }
      ],
      "stateMutability": "view",
      "type": "function"
    },
    {
      "inputs": [],
      "name": "SEND",
      "outputs": [
        {
          "internalType": "uint16",
          "name": "",
          "type": "uint16"
        }
      ],
      "stateMutability": "view",
      "type": "function"
    },
    {
      "inputs": [],
      "name": "SEND_AND_CALL",
      "outputs": [
        {
          "internalType": "uint16",
          "name": "",
          "type": "uint16"
        }
      ],
      "stateMutability": "view",
      "type": "function"
    },
    {
      "inputs": [],
      "name": "acceptOwnership",
      "outputs": [],
      "stateMutability": "nonpayable",
      "type": "function"
    },
    {
      "inputs": [
        {
          "components": [
            {
              "internalType": "uint32",
              "name": "srcEid",
              "type": "uint32"
            },
            {
              "internalType": "bytes32",
              "name": "sender",
              "type": "bytes32"
            },
            {
              "internalType": "uint64",
              "name": "nonce",
              "type": "uint64"
            }
          ],
          "internalType": "struct Origin",
          "name": "origin",
          "type": "tuple"
        }
      ],
      "name": "allowInitializePath",
      "outputs": [
        {
          "internalType": "bool",
          "name": "",
          "type": "bool"
        }
      ],
      "stateMutability": "view",
      "type": "function"
    },
    {
      "inputs": [],
      "name": "approvalRequired",
      "outputs": [
        {
          "internalType": "bool",
          "name": "",
          "type": "bool"
        }
      ],
      "stateMutability": "pure",
      "type": "function"
    },
    {
      "inputs": [
        {
          "internalType": "uint32",
          "name": "_eid",
          "type": "uint32"
        },
        {
          "internalType": "uint16",
          "name": "_msgType",
          "type": "uint16"
        },
        {
          "internalType": "bytes",
          "name": "_extraOptions",
          "type": "bytes"
        }
      ],
      "name": "combineOptions",
      "outputs": [
        {
          "internalType": "bytes",
          "name": "",
          "type": "bytes"
        }
      ],
      "stateMutability": "view",
      "type": "function"
    },
    {
      "inputs": [],
      "name": "decimalConversionRate",
      "outputs": [
        {
          "internalType": "uint256",
          "name": "",
          "type": "uint256"
        }
      ],
      "stateMutability": "view",
      "type": "function"
    },
    {
      "inputs": [],
      "name": "endpoint",
      "outputs": [
        {
          "internalType": "contract ILayerZeroEndpointV2",
          "name": "",
          "type": "address"
        }
      ],
      "stateMutability": "view",
      "type": "function"
    },
    {
      "inputs": [
        {
          "internalType": "uint32",
          "name": "eid",
          "type": "uint32"
        },
        {
          "internalType": "uint16",
          "name": "msgType",
          "type": "uint16"
        }
      ],
      "name": "enforcedOptions",
      "outputs": [
        {
          "internalType": "bytes",
          "name": "enforcedOption",
          "type": "bytes"
        }
      ],
      "stateMutability": "view",
      "type": "function"
    },
    {
      "inputs": [
        {
          "internalType": "bytes32",
          "name": "role",
          "type": "bytes32"
        }
      ],
      "name": "getRoleAdmin",
      "outputs": [
        {
          "internalType": "bytes32",
          "name": "",
          "type": "bytes32"
        }
      ],
      "stateMutability": "view",
      "type": "function"
    },
    {
      "inputs": [
        {
          "internalType": "bytes32",
          "name": "role",
          "type": "bytes32"
        },
        {
          "internalType": "address",
          "name": "account",
          "type": "address"
        }
      ],
      "name": "grantRole",
      "outputs": [],
      "stateMutability": "nonpayable",
      "type": "function"
    },
    {
      "inputs": [
        {
          "internalType": "bytes32",
          "name": "_role",
          "type": "bytes32"
        },
        {
          "internalType": "address",
          "name": "_account",
          "type": "address"
        }
      ],
      "name": "hasRole",
      "outputs": [
        {
          "internalType": "bool",
          "name": "",
          "type": "bool"
        }
      ],
      "stateMutability": "view",
      "type": "function"
    },
    {
      "inputs": [
        {
          "internalType": "address",
          "name": "_token",
          "type": "address"
        }
      ],
      "name": "initialize",
      "outputs": [],
      "stateMutability": "nonpayable",
      "type": "function"
    },
    {
      "inputs": [
        {
          "components": [
            {
              "internalType": "uint32",
              "name": "srcEid",
              "type": "uint32"
            },
            {
              "internalType": "bytes32",
              "name": "sender",
              "type": "bytes32"
            },
            {
              "internalType": "uint64",
              "name": "nonce",
              "type": "uint64"
            }
          ],
          "internalType": "struct Origin",
          "name": "",
          "type": "tuple"
        },
        {
          "internalType": "bytes",
          "name": "",
          "type": "bytes"
        },
        {
          "internalType": "address",
          "name": "_sender",
          "type": "address"
        }
      ],
      "name": "isComposeMsgSender",
      "outputs": [
        {
          "internalType": "bool",
          "name": "",
          "type": "bool"
        }
      ],
      "stateMutability": "view",
      "type": "function"
    },
    {
      "inputs": [
        {
          "internalType": "uint32",
          "name": "_eid",
          "type": "uint32"
        },
        {
          "internalType": "bytes32",
          "name": "_peer",
          "type": "bytes32"
        }
      ],
      "name": "isPeer",
      "outputs": [
        {
          "internalType": "bool",
          "name": "",
          "type": "bool"
        }
      ],
      "stateMutability": "view",
      "type": "function"
    },
    {
      "inputs": [
        {
          "components": [
            {
              "internalType": "uint32",
              "name": "srcEid",
              "type": "uint32"
            },
            {
              "internalType": "bytes32",
              "name": "sender",
              "type": "bytes32"
            },
            {
              "internalType": "uint64",
              "name": "nonce",
              "type": "uint64"
            }
          ],
          "internalType": "struct Origin",
          "name": "_origin",
          "type": "tuple"
        },
        {
          "internalType": "bytes32",
          "name": "_guid",
          "type": "bytes32"
        },
        {
          "internalType": "bytes",
          "name": "_message",
          "type": "bytes"
        },
        {
          "internalType": "address",
          "name": "_executor",
          "type": "address"
        },
        {
          "internalType": "bytes",
          "name": "_extraData",
          "type": "bytes"
        }
      ],
      "name": "lzReceive",
      "outputs": [],
      "stateMutability": "payable",
      "type": "function"
    },
    {
      "inputs": [
        {
          "components": [
            {
              "components": [
                {
                  "internalType": "uint32",
                  "name": "srcEid",
                  "type": "uint32"
                },
                {
                  "internalType": "bytes32",
                  "name": "sender",
                  "type": "bytes32"
                },
                {
                  "internalType": "uint64",
                  "name": "nonce",
                  "type": "uint64"
                }
              ],
              "internalType": "struct Origin",
              "name": "origin",
              "type": "tuple"
            },
            {
              "internalType": "uint32",
              "name": "dstEid",
              "type": "uint32"
            },
            {
              "internalType": "address",
              "name": "receiver",
              "type": "address"
            },
            {
              "internalType": "bytes32",
              "name": "guid",
              "type": "bytes32"
            },
            {
              "internalType": "uint256",
              "name": "value",
              "type": "uint256"
            },
            {
              "internalType": "address",
              "name": "executor",
              "type": "address"
            },
            {
              "internalType": "bytes",
              "name": "message",
              "type": "bytes"
            },
            {
              "internalType": "bytes",
              "name": "extraData",
              "type": "bytes"
            }
          ],
          "internalType": "struct InboundPacket[]",
          "name": "_packets",
          "type": "tuple[]"
        }
      ],
      "name": "lzReceiveAndRevert",
      "outputs": [],
      "stateMutability": "payable",
      "type": "function"
    },
    {
      "inputs": [
        {
          "components": [
            {
              "internalType": "uint32",
              "name": "srcEid",
              "type": "uint32"
            },
            {
              "internalType": "bytes32",
              "name": "sender",
              "type": "bytes32"
            },
            {
              "internalType": "uint64",
              "name": "nonce",
              "type": "uint64"
            }
          ],
          "internalType": "struct Origin",
          "name": "_origin",
          "type": "tuple"
        },
        {
          "internalType": "bytes32",
          "name": "_guid",
          "type": "bytes32"
        },
        {
          "internalType": "bytes",
          "name": "_message",
          "type": "bytes"
        },
        {
          "internalType": "address",
          "name": "_executor",
          "type": "address"
        },
        {
          "internalType": "bytes",
          "name": "_extraData",
          "type": "bytes"
        }
      ],
      "name": "lzReceiveSimulate",
      "outputs": [],
      "stateMutability": "payable",
      "type": "function"
    },
    {
      "inputs": [],
      "name": "msgInspector",
      "outputs": [
        {
          "internalType": "address",
          "name": "",
          "type": "address"
        }
      ],
      "stateMutability": "view",
      "type": "function"
    },
    {
      "inputs": [
        {
          "internalType": "uint32",
          "name": "",
          "type": "uint32"
        },
        {
          "internalType": "bytes32",
          "name": "",
          "type": "bytes32"
        }
      ],
      "name": "nextNonce",
      "outputs": [
        {
          "internalType": "uint64",
          "name": "nonce",
          "type": "uint64"
        }
      ],
      "stateMutability": "view",
      "type": "function"
    },
    {
      "inputs": [],
      "name": "oApp",
      "outputs": [
        {
          "internalType": "address",
          "name": "",
          "type": "address"
        }
      ],
      "stateMutability": "view",
      "type": "function"
    },
    {
      "inputs": [],
      "name": "oAppVersion",
      "outputs": [
        {
          "internalType": "uint64",
          "name": "senderVersion",
          "type": "uint64"
        },
        {
          "internalType": "uint64",
          "name": "receiverVersion",
          "type": "uint64"
        }
      ],
      "stateMutability": "pure",
      "type": "function"
    },
    {
      "inputs": [],
      "name": "oftVersion",
      "outputs": [
        {
          "internalType": "bytes4",
          "name": "interfaceId",
          "type": "bytes4"
        },
        {
          "internalType": "uint64",
          "name": "version",
          "type": "uint64"
        }
      ],
      "stateMutability": "pure",
      "type": "function"
    },
    {
      "inputs": [],
      "name": "owner",
      "outputs": [
        {
          "internalType": "address",
          "name": "",
          "type": "address"
        }
      ],
      "stateMutability": "view",
      "type": "function"
    },
    {
      "inputs": [],
      "name": "pause",
      "outputs": [],
      "stateMutability": "nonpayable",
      "type": "function"
    },
    {
      "inputs": [],
      "name": "paused",
      "outputs": [
        {
          "internalType": "bool",
          "name": "",
          "type": "bool"
        }
      ],
      "stateMutability": "view",
      "type": "function"
    },
    {
      "inputs": [
        {
          "internalType": "uint32",
          "name": "eid",
          "type": "uint32"
        }
      ],
      "name": "peers",
      "outputs": [
        {
          "internalType": "bytes32",
          "name": "peer",
          "type": "bytes32"
        }
      ],
      "stateMutability": "view",
      "type": "function"
    },
    {
      "inputs": [],
      "name": "pendingOwner",
      "outputs": [
        {
          "internalType": "address",
          "name": "",
          "type": "address"
        }
      ],
      "stateMutability": "view",
      "type": "function"
    },
    {
      "inputs": [],
      "name": "preCrime",
      "outputs": [
        {
          "internalType": "address",
          "name": "",
          "type": "address"
        }
      ],
      "stateMutability": "view",
      "type": "function"
    },
    {
      "inputs": [
        {
          "components": [
            {
              "internalType": "uint32",
              "name": "dstEid",
              "type": "uint32"
            },
            {
              "internalType": "bytes32",
              "name": "to",
              "type": "bytes32"
            },
            {
              "internalType": "uint256",
              "name": "amountLD",
              "type": "uint256"
            },
            {
              "internalType": "uint256",
              "name": "minAmountLD",
              "type": "uint256"
            },
            {
              "internalType": "bytes",
              "name": "extraOptions",
              "type": "bytes"
            },
            {
              "internalType": "bytes",
              "name": "composeMsg",
              "type": "bytes"
            },
            {
              "internalType": "bytes",
              "name": "oftCmd",
              "type": "bytes"
            }
          ],
          "internalType": "struct SendParam",
          "name": "_sendParam",
          "type": "tuple"
        }
      ],
      "name": "quoteOFT",
      "outputs": [
        {
          "components": [
            {
              "internalType": "uint256",
              "name": "minAmountLD",
              "type": "uint256"
            },
            {
              "internalType": "uint256",
              "name": "maxAmountLD",
              "type": "uint256"
            }
          ],
          "internalType": "struct OFTLimit",
          "name": "oftLimit",
          "type": "tuple"
        },
        {
          "components": [
            {
              "internalType": "int256",
              "name": "feeAmountLD",
              "type": "int256"
            },
            {
              "internalType": "string",
              "name": "description",
              "type": "string"
            }
          ],
          "internalType": "struct OFTFeeDetail[]",
          "name": "oftFeeDetails",
          "type": "tuple[]"
        },
        {
          "components": [
            {
              "internalType": "uint256",
              "name": "amountSentLD",
              "type": "uint256"
            },
            {
              "internalType": "uint256",
              "name": "amountReceivedLD",
              "type": "uint256"
            }
          ],
          "internalType": "struct OFTReceipt",
          "name": "oftReceipt",
          "type": "tuple"
        }
      ],
      "stateMutability": "view",
      "type": "function"
    },
    {
      "inputs": [
        {
          "components": [
            {
              "internalType": "uint32",
              "name": "dstEid",
              "type": "uint32"
            },
            {
              "internalType": "bytes32",
              "name": "to",
              "type": "bytes32"
            },
            {
              "internalType": "uint256",
              "name": "amountLD",
              "type": "uint256"
            },
            {
              "internalType": "uint256",
              "name": "minAmountLD",
              "type": "uint256"
            },
            {
              "internalType": "bytes",
              "name": "extraOptions",
              "type": "bytes"
            },
            {
              "internalType": "bytes",
              "name": "composeMsg",
              "type": "bytes"
            },
            {
              "internalType": "bytes",
              "name": "oftCmd",
              "type": "bytes"
            }
          ],
          "internalType": "struct SendParam",
          "name": "_sendParam",
          "type": "tuple"
        },
        {
          "internalType": "bool",
          "name": "_payInLzToken",
          "type": "bool"
        }
      ],
      "name": "quoteSend",
      "outputs": [
        {
          "components": [
            {
              "internalType": "uint256",
              "name": "nativeFee",
              "type": "uint256"
            },
            {
              "internalType": "uint256",
              "name": "lzTokenFee",
              "type": "uint256"
            }
          ],
          "internalType": "struct MessagingFee",
          "name": "msgFee",
          "type": "tuple"
        }
      ],
      "stateMutability": "view",
      "type": "function"
    },
    {
      "inputs": [],
      "name": "renounceOwnership",
      "outputs": [],
      "stateMutability": "nonpayable",
      "type": "function"
    },
    {
      "inputs": [
        {
          "internalType": "bytes32",
          "name": "role",
          "type": "bytes32"
        },
        {
          "internalType": "address",
          "name": "account",
          "type": "address"
        }
      ],
      "name": "renounceRole",
      "outputs": [],
      "stateMutability": "nonpayable",
      "type": "function"
    },
    {
      "inputs": [
        {
          "internalType": "bytes32",
          "name": "role",
          "type": "bytes32"
        },
        {
          "internalType": "address",
          "name": "account",
          "type": "address"
        }
      ],
      "name": "revokeRole",
      "outputs": [],
      "stateMutability": "nonpayable",
      "type": "function"
    },
    {
      "inputs": [
        {
          "components": [
            {
              "internalType": "uint32",
              "name": "dstEid",
              "type": "uint32"
            },
            {
              "internalType": "bytes32",
              "name": "to",
              "type": "bytes32"
            },
            {
              "internalType": "uint256",
              "name": "amountLD",
              "type": "uint256"
            },
            {
              "internalType": "uint256",
              "name": "minAmountLD",
              "type": "uint256"
            },
            {
              "internalType": "bytes",
              "name": "extraOptions",
              "type": "bytes"
            },
            {
              "internalType": "bytes",
              "name": "composeMsg",
              "type": "bytes"
            },
            {
              "internalType": "bytes",
              "name": "oftCmd",
              "type": "bytes"
            }
          ],
          "internalType": "struct SendParam",
          "name": "_sendParam",
          "type": "tuple"
        },
        {
          "components": [
            {
              "internalType": "uint256",
              "name": "nativeFee",
              "type": "uint256"
            },
            {
              "internalType": "uint256",
              "name": "lzTokenFee",
              "type": "uint256"
            }
          ],
          "internalType": "struct MessagingFee",
          "name": "_fee",
          "type": "tuple"
        },
        {
          "internalType": "address",
          "name": "_refundAddress",
          "type": "address"
        }
      ],
      "name": "send",
      "outputs": [
        {
          "components": [
            {
              "internalType": "bytes32",
              "name": "guid",
              "type": "bytes32"
            },
            {
              "internalType": "uint64",
              "name": "nonce",
              "type": "uint64"
            },
            {
              "components": [
                {
                  "internalType": "uint256",
                  "name": "nativeFee",
                  "type": "uint256"
                },
                {
                  "internalType": "uint256",
                  "name": "lzTokenFee",
                  "type": "uint256"
                }
              ],
              "internalType": "struct MessagingFee",
              "name": "fee",
              "type": "tuple"
            }
          ],
          "internalType": "struct MessagingReceipt",
          "name": "msgReceipt",
          "type": "tuple"
        },
        {
          "components": [
            {
              "internalType": "uint256",
              "name": "amountSentLD",
              "type": "uint256"
            },
            {
              "internalType": "uint256",
              "name": "amountReceivedLD",
              "type": "uint256"
            }
          ],
          "internalType": "struct OFTReceipt",
          "name": "oftReceipt",
          "type": "tuple"
        }
      ],
      "stateMutability": "payable",
      "type": "function"
    },
    {
      "inputs": [
        {
          "internalType": "address",
          "name": "_delegate",
          "type": "address"
        }
      ],
      "name": "setDelegate",
      "outputs": [],
      "stateMutability": "nonpayable",
      "type": "function"
    },
    {
      "inputs": [
        {
          "components": [
            {
              "internalType": "uint32",
              "name": "eid",
              "type": "uint32"
            },
            {
              "internalType": "uint16",
              "name": "msgType",
              "type": "uint16"
            },
            {
              "internalType": "bytes",
              "name": "options",
              "type": "bytes"
            }
          ],
          "internalType": "struct EnforcedOptionParam[]",
          "name": "_enforcedOptions",
          "type": "tuple[]"
        }
      ],
      "name": "setEnforcedOptions",
      "outputs": [],
      "stateMutability": "nonpayable",
      "type": "function"
    },
    {
      "inputs": [
        {
          "internalType": "address",
          "name": "_msgInspector",
          "type": "address"
        }
      ],
      "name": "setMsgInspector",
      "outputs": [],
      "stateMutability": "nonpayable",
      "type": "function"
    },
    {
      "inputs": [
        {
          "internalType": "uint32",
          "name": "_eid",
          "type": "uint32"
        },
        {
          "internalType": "bytes32",
          "name": "_peer",
          "type": "bytes32"
        }
      ],
      "name": "setPeer",
      "outputs": [],
      "stateMutability": "nonpayable",
      "type": "function"
    },
    {
      "inputs": [
        {
          "internalType": "address",
          "name": "_preCrime",
          "type": "address"
        }
      ],
      "name": "setPreCrime",
      "outputs": [],
      "stateMutability": "nonpayable",
      "type": "function"
    },
    {
      "inputs": [],
      "name": "sharedDecimals",
      "outputs": [
        {
          "internalType": "uint8",
          "name": "",
          "type": "uint8"
        }
      ],
      "stateMutability": "view",
      "type": "function"
    },
    {
      "inputs": [
        {
          "internalType": "bytes4",
          "name": "interfaceId",
          "type": "bytes4"
        }
      ],
      "name": "supportsInterface",
      "outputs": [
        {
          "internalType": "bool",
          "name": "",
          "type": "bool"
        }
      ],
      "stateMutability": "view",
      "type": "function"
    },
    {
      "inputs": [],
      "name": "token",
      "outputs": [
        {
          "internalType": "address",
          "name": "",
          "type": "address"
        }
      ],
      "stateMutability": "view",
      "type": "function"
    },
    {
      "inputs": [
        {
          "internalType": "address",
          "name": "_newOwner",
          "type": "address"
        }
      ],
      "name": "transferOwnership",
      "outputs": [],
      "stateMutability": "nonpayable",
      "type": "function"
    },
    {
      "inputs": [],
      "name": "unpause",
      "outputs": [],
      "stateMutability": "nonpayable",
      "type": "function"
    }
  ],
  "transactionHash": "0x664334b664f78a328a3d50ecba51bfa849e16d1df3edfb0361930cc8fc97feb5",
  "args": [
    "0x5019Fe1867d8cCfd76d8D5Abd85dB5EFCe548fbA",
    "0x1a44076050125825900e736c501f859c50fE728c"
  ],
  "numDeployments": 1,
  "solcInputHash": "e4cce26a9a12d5a9f73b1c7607b8d1d7",
  "bytecode": "0x60c060409080825234620004ae575f90828162003a218038038091620000268285620004b2565b833981010312620004aa576200003c81620004ea565b6200004b6020809301620004ea565b845163313ce56760e01b8082529194909290916004916001600160a01b039081169186868581865afa958615620004a05785966200047c575b5081855460101c1662000097816200051a565b62000434575b50620000a9336200051a565b15620003ea575b600180546001600160a01b0319908116909155855462010000600160b01b0319811633601081811b62010000600160b01b03169290921789558c519395939290911c83167f8be0079c531659141344cd1fd0a4f28419497f9722a3daafe3b4186f6b6457e08980a38160ff199a8b60035416600355166080523315620003dc575060805116803b15620003d857908594939291858b51809263ca5eb5e160e01b82523388830152816024998a925af18015620003ce57620003a0575b5060ff809716600681106200039057600519018781116200037e578716604d81116200037e57600a0a60a052895190815287818581865afa9081156200037457908791879162000340575b5016156200030d57817f851ad97d3083977faaabf40c70f1f53f0aea0337774b10190b71c00b0363128d92889260085416176008558951908152a1825491848360081c16620002bb575050828082160362000282575b85516134aa90816200057782396080518181816105ed01528181610b5c01528181610f5901528181611a1301528181611b2f01528181612438015281816124e601526132d0015260a051818181610aa60152818161137301528181611889015281816126c101528181612812015261285f0152f35b7f7f26b83ff96e1f2b6a682f133852f6798a09c465da95921460cefb3847402498948391161790558351908152a15f808080806200020d565b875162461bcd60e51b81529182018690526027908201527f496e697469616c697a61626c653a20636f6e747261637420697320696e697469604482015266616c697a696e6760c81b6064820152608490fd5b885162461bcd60e51b8152808401889052600e818601526d496e76616c696420746f6b656e5f60901b6044820152606490fd5b620003659150893d8b116200036c575b6200035c8183620004b2565b810190620004ff565b5f620001b7565b503d62000350565b8a513d88823e3d90fd5b634e487b7160e01b8752601185528587fd5b8a516301e9714b60e41b81528590fd5b9095906001600160401b038111620003bc578a52945f6200016c565b634e487b7160e01b8252604185528582fd5b8b513d89823e3d90fd5b8580fd5b632d618d8160e21b81528590fd5b848052600287528885203386528752888520600160ff198254161790553333867f2f8788117e7eff1d82e926ec794901d17c78024a50270940304540a733656f0d8180a4620000b0565b858052600288528986208187528852898620805460ff191690553390867ff6391f5c32d9c69d2a47ea670b442974b53935d1edc7fd64eb21e047a839171b8180a45f6200009d565b62000498919650873d89116200036c576200035c8183620004b2565b945f62000084565b89513d87823e3d90fd5b5080fd5b5f80fd5b601f909101601f19168101906001600160401b03821190821017620004d657604052565b634e487b7160e01b5f52604160045260245ffd5b51906001600160a01b0382168203620004ae57565b90816020910312620004ae575160ff81168103620004ae5790565b6001600160a01b039081165f8181527fac33ff75c19e70fe83507db0d683fd3465c996598dc972688b7ace676c89077b602052604081205460ff169290831562000565575b50505090565b5460101c161490505f80806200055f56fe60806040526004361015610011575f80fd5b5f3560e01c806301ffc9a7146102ef5780630d35b415146102ea578063111ecdad146102e557806313137d65146102e0578063134d4f25146102db578063156a0d0f146102d657806317442b70146102d15780631f5e133414610263578063248a9ca3146102cc5780632f2ff15d146102c75780633400288b146102c257806336568abe146102bd5780633b6f743b146102b85780633f4ba83a146102b357806352ae2879146102ae5780635535d461146102a95780635a0dfe4d146102a45780635c975abb1461029f5780635e280f111461029a5780636fc1b31e14610295578063715018a61461029057806379ba50971461028b5780637d25a05e1461028657806382413eac146102815780638456cb591461027c578063857749b0146102775780638da5cb5b1461027257806391d148541461026d578063963efcaa146102685780639f68b96414610263578063a217fddf1461025e578063b731ea0a14610259578063b98bd07014610254578063bb0b6a531461024f578063bc70b3541461024a578063bd815db014610245578063c4d66de814610240578063c7c7f5b31461023b578063ca5eb5e114610236578063d045a0dc14610231578063d42438851461022c578063d547741f14610227578063e30c397814610222578063f2fde38b1461021d578063fc0c546a146102185763ff7bd03d14610213575f80fd5b611d49565b611d21565b611cac565b611c84565b611c44565b611bd4565b611a7b565b6119e3565b611816565b6116db565b61158b565b611537565b6114fe565b611424565b6113b0565b611396565b61081d565b61135c565b611332565b611307565b6112ec565b6111db565b61117d565b611157565b6110d3565b610ff8565b610f88565b610f44565b610f22565b610edc565b610e72565b610c94565b610c01565b610a49565b6109a7565b610922565b610865565b610838565b6107fc565b6107d6565b6107bb565b6105d2565b6104f7565b610445565b346103455760203660031901126103455760043563ffffffff60e01b811680910361034557602090637965db0b60e01b8114908115610334575b506040519015158152f35b6301ffc9a760e01b1490505f610329565b5f80fd5b908160e09103126103455790565b5f5b8381106103685750505f910152565b8181015183820152602001610359565b9060209161039181518092818552858086019101610357565b601f01601f1916010190565b9392916103b88560a081019360208091805184520151910152565b60409160a083870152815180915260c086019160c08260051b880101936020809201935f915b848310610406575050505050509060606104049294019060208091805184520151910152565b565b90919293949584806104356001938d60bf1990820301875285838c518051845201519181858201520190610378565b98019301930191949392906103de565b34610345576020366003190112610345576001600160401b0360043581811161034557610476903690600401610349565b9061047f612258565b50610488612258565b506040519061049682610d1a565b5f825260208201526104e96104cd604051936104b185610d68565b5f85526104bd81611d98565b5060406060820135910135612856565b6104d5611dd8565b91825260208201526040519384938461039d565b0390f35b5f91031261034557565b34610345575f366003190112610345576007546040516001600160a01b039091168152602090f35b606090600319011261034557600490565b9181601f84011215610345578235916001600160401b038311610345576020838186019501011161034557565b6001600160a01b0381160361034557565b600319810160e081126103455760601361034557600491606435916001600160401b039060843582811161034557816105a8918701610530565b9390939260a4356105b88161055d565b9260c435918211610345576105ce918801610530565b9091565b6105db3661056e565b50929492506001600160a01b039190507f000000000000000000000000000000000000000000000000000000000000000082163381036107a357833561062081610914565b61062981611da2565b90602086013580920361076e5750506106516106458388612998565b6001600160a01b031690565b91610677610667610662838a6129a4565b612804565b61067087611d98565b5084612fe0565b8097602883116106c7575b505050506106c26106a05f8051602061345583398151915294611d98565b956040519384931696836020909392919363ffffffff60408201951681520152565b0390a3005b906106f292916106ec6106dc60408a016127bd565b936106e68a611d98565b926129b6565b926128b0565b90803b1561034557604051633e5ac80960e11b8152915f918391829084908290610721908c8a600485016127c7565b03925af18015610769575f80516020613455833981519152946106c2926106a092610750575b88919650610682565b8061075d61076392610d55565b806104ed565b5f610747565b611d8d565b61077781610914565b60405163309afaf360e21b815263ffffffff9190911660048201526024810191909152604490fd5b0390fd5b6040516391ac5e4f60e01b8152336004820152602490fd5b34610345575f36600319011261034557602060405160028152f35b34610345575f366003190112610345576040805162b9270b60e21b815260016020820152f35b34610345575f36600319011261034557604080516001815260026020820152f35b34610345575f36600319011261034557602060405160018152f35b34610345576020366003190112610345576004355f5260026020526020600160405f200154604051908152f35b34610345576040366003190112610345576004356024356108858161055d565b5f91808352600260205261089f6001604085200154612ad7565b6108a9828261322c565b156108b2578280f35b8083526002602090815260408085206001600160a01b0385165f90815292529020805460ff1916600117905533916001600160a01b0316907f2f8788117e7eff1d82e926ec794901d17c78024a50270940304540a733656f0d8480a45f808280f35b63ffffffff81160361034557565b34610345576040366003190112610345577f238399d427b947898edb290f5ff0f9109849b1c3ba196a42e35f00c50a54b98b60043561096081610914565b6024359061096c612c91565b63ffffffff81165f5260046020528160405f20556109a2604051928392836020909392919363ffffffff60408201951681520152565b0390a1005b34610345576040366003190112610345576024356109c48161055d565b336001600160a01b038216036109e2576109e090600435612c24565b005b60405162461bcd60e51b815260206004820152602f60248201527f416363657373436f6e74726f6c3a2063616e206f6e6c792072656e6f756e636560448201526e103937b632b9903337b91039b2b63360891b6064820152608490fd5b8015150361034557565b3461034557604080600319360112610345576004356001600160401b03811161034557610a7a903690600401610349565b90602435610a8781610a3f565b610a8f612258565b506060830135833593610aa185610914565b610ad77f0000000000000000000000000000000000000000000000000000000000000000610ad28187850135612838565b6127f1565b91808310610be457508392610af3610b589693610b3d936126b0565b90610afd85610914565b610b05612258565b50610b0f85611da2565b610b26610b1a611de5565b63ffffffff9097168752565b602086015285850152606084015215156080830152565b815180948192631bb8518b60e31b83523090600484016122ac565b03817f00000000000000000000000000000000000000000000000000000000000000006001600160a01b03165afa908115610769576104e9925f92610bb5575b505191829182815181526020918201519181019190915260400190565b81610bd69293503d8411610bdd575b610bce8183610d9e565b810190612298565b905f610b98565b503d610bc4565b826044918651916371c4efed60e01b835260048301526024820152fd5b34610345575f36600319011261034557610c19612c91565b60035460ff811615610c585760ff19166003557f5db9ee0a495bf2e6ff9c91a7834c1ba4fdd244a5e8aa4e537bd38aeae4b073aa6020604051338152a1005b60405162461bcd60e51b815260206004820152601460248201527314185d5cd8589b194e881b9bdd081c185d5cd95960621b6044820152606490fd5b34610345575f366003190112610345576020604051308152f35b6024359061ffff8216820361034557565b359061ffff8216820361034557565b90600182811c92168015610cfc575b6020831014610ce857565b634e487b7160e01b5f52602260045260245ffd5b91607f1691610cdd565b634e487b7160e01b5f52604160045260245ffd5b604081019081106001600160401b03821117610d3557604052565b610d06565b606081019081106001600160401b03821117610d3557604052565b6001600160401b038111610d3557604052565b602081019081106001600160401b03821117610d3557604052565b60a081019081106001600160401b03821117610d3557604052565b90601f801991011681019081106001600160401b03821117610d3557604052565b9060405191825f825492610dd284610cce565b9081845260019485811690815f14610e3b5750600114610dfb575b505061040492500383610d9e565b909391505f52602090815f20935f915b818310610e2357505061040493508201015f80610ded565b85548884018501529485019487945091830191610e0b565b91505061040494506020925060ff191682840152151560051b8201015f80610ded565b906020610e6f928181520190610378565b90565b34610345576040366003190112610345576104e9610ec8610ec3600435610e9881610914565b63ffffffff610ea5610cae565b91165f52600660205260405f209061ffff165f5260205260405f2090565b610dbf565b604051918291602083526020830190610378565b34610345576040366003190112610345576020610f18600435610efe81610914565b6024359063ffffffff165f52600460205260405f20541490565b6040519015158152f35b34610345575f36600319011261034557602060ff600354166040519015158152f35b34610345575f366003190112610345576040517f00000000000000000000000000000000000000000000000000000000000000006001600160a01b03168152602090f35b34610345576020366003190112610345577ff0be4f1e87349231d80c36b33f9e8639658eeaf474014dee15a3e6a4d44141976020600435610fc88161055d565b610fd0612c91565b600780546001600160a01b0319166001600160a01b03929092169182179055604051908152a1005b34610345575f806003193601126110d057611011612c91565b805481906001600160a01b039061102c9060101c8216612bae565b611034613186565b15611086575b600180546001600160a01b0319169055815462010000600160b01b03198116835560101c167f8be0079c531659141344cd1fd0a4f28419497f9722a3daafe3b4186f6b6457e08280a380f35b81805260026020526040822060205260408220600160ff198254161790553382807f2f8788117e7eff1d82e926ec794901d17c78024a50270940304540a733656f0d8180a461103a565b80fd5b34610345575f36600319011261034557600154336001600160a01b0390911603611100576109e033613044565b60405162461bcd60e51b815260206004820152602960248201527f4f776e61626c6532537465703a2063616c6c6572206973206e6f7420746865206044820152683732bb9037bbb732b960b91b6064820152608490fd5b3461034557604036600319011261034557611173600435610914565b60206040515f8152f35b346103455760a0366003190112610345576111973661051f565b506064356001600160401b038111610345576111b7903690600401610530565b505060206084356111c78161055d565b6040516001600160a01b0390911630148152f35b34610345575f366003190112610345576111f433613129565b1561123a57611201612f9c565b600160ff1960035416176003557f62e78cea01bee320cd4e420270b5ea74000d11b0c9f74754ebdbfc544b05a2586020604051338152a1005b61079f61124633612e8b565b6112cc6048611253612f0b565b9260405193849176020b1b1b2b9b9a1b7b73a3937b61d1030b1b1b7bab73a1604d1b602084015261128e815180926020603787019101610357565b82017001034b99036b4b9b9b4b733903937b6329607d1b60378201526112bd8251809360208785019101610357565b01036028810184520182610d9e565b60405162461bcd60e51b8152602060048201529182916024830190610378565b34610345575f36600319011261034557602060405160068152f35b34610345575f366003190112610345575f5460405160109190911c6001600160a01b03168152602090f35b34610345576040366003190112610345576020610f186024356113548161055d565b60043561322c565b34610345575f3660031901126103455760206040517f00000000000000000000000000000000000000000000000000000000000000008152f35b34610345575f3660031901126103455760206040515f8152f35b34610345575f366003190112610345576005546040516001600160a01b039091168152602090f35b906020600319830112610345576004356001600160401b039283821161034557806023830112156103455781600401359384116103455760248460051b83010111610345576024019190565b3461034557611432366113d8565b9061143b612c91565b61144482611df2565b90604061145381519384610d9e565b8383526020938484019060051b8301923684116103455780915b84831061147d576109e086612051565b6001600160401b0390833582811161034557830191606083360312610345578551926114a884610d3a565b80356114b381610914565b84526114c08a8201610cbf565b8a8501528681013591821161034557019036601f830112156103455788926114ef849336908581359101611e24565b8782015281520192019161146d565b346103455760203660031901126103455763ffffffff60043561152081610914565b165f526004602052602060405f2054604051908152f35b346103455760603660031901126103455760043561155481610914565b61155c610cae565b604435906001600160401b038211610345576104e992611583610ec8933690600401610530565b929091612184565b611594366113d8565b5f5b8181106115fe57604051638e9e709960e01b81525f81600481335afa80156107695761079f915f916115dd575b50604051638351eea760e01b815291829160048301610e5e565b6115f8913d8091833e6115f08183610d9e565b810190612a79565b826115c3565b6116098183856129d2565b9061163961163561161984611d98565b60208501359063ffffffff165f52600460205260405f20541490565b1590565b6116d15761164b610100830183612644565b9261165860e082016129f5565b90611667610120820182612644565b959095303b15610345575f9461169c60c092604051998a9788968795633411683760e21b875260a08a01358a600489016129ff565b03920135305af1918215610769576116b9926116be575b50611e6e565b611596565b8061075d6116cb92610d55565b5f6116b3565b6116b99150611e6e565b34610345576020366003190112610345576004356116f88161055d565b6117395f549161171f60ff8460081c1615809481956117b7575b8115611797575b50613252565b82611730600160ff195f5416175f55565b611780576132b5565b61173f57005b61174d61ff00195f54165f55565b604051600181527f7f26b83ff96e1f2b6a682f133852f6798a09c465da95921460cefb38474024989080602081016109a2565b61179261010061ff00195f5416175f55565b6132b5565b303b159150816117a9575b505f611719565b6001915060ff16145f6117a2565b600160ff8216109150611712565b916080610404929493611805604060c0830197805184526001600160401b0360208201511660208501520151604083019060208091805184520151910152565b019060208091805184520151910152565b6080366003190112610345576004356001600160401b03811161034557611841903690600401610349565b6040806023193601126103455760643561185a8161055d565b61186261231a565b5061186b612258565b5060608301359161187c8435610914565b611884612f9c565b6118b57f0000000000000000000000000000000000000000000000000000000000000000610ad28184880135612838565b928084106119c657506008546118d7906106459081906001600160a01b031681565b91823b15610345578151632770a7eb60e21b815233600482015260248101859052925f908490604490829084905af1908115610769576104e99361193e926119b3575b5061192585876126b0565b61192e88611d98565b9161193836612340565b926123bb565b92611947611dd8565b948186528160208701527f85496b760a4b7f8d66384b9df21b381f5d1b1e79f229a47aaf4c232edc2fe59a6119a6611980875193611d98565b9385519181839233978460409194939263ffffffff606083019616825260208201520152565b0390a351928392836117c5565b8061075d6119c092610d55565b5f61191a565b839060449251916371c4efed60e01b835260048301526024820152fd5b34610345575f60203660031901126110d057600435611a018161055d565b611a09612c91565b6001600160a01b037f0000000000000000000000000000000000000000000000000000000000000000811691839190833b15611a775760249083604051958694859363ca5eb5e160e01b85521660048401525af1801561076957611a6b575080f35b611a7490610d55565b80f35b8280fd5b611a843661056e565b5050509290303303611bc257611a9d6106458583612998565b93611abe611aae61066283856129a4565b611ab785611d98565b5086612fe0565b9160288211611b0d575b5050611ae15f8051602061345583398151915292611d98565b6040805163ffffffff909216825260208201929092526001600160a01b039094169390819081016106c2565b9082611b2c926106ec611b22604088016127bd565b936106e688611d98565b917f00000000000000000000000000000000000000000000000000000000000000006001600160a01b0316803b1561034557604051633e5ac80960e11b8152935f918591829084908290611b85908b8d600485016127c7565b03925af1908115610769575f8051602061345583398151915293611ae192611baf575b5092611ac8565b8061075d611bbc92610d55565b5f611ba8565b60405163029a949d60e31b8152600490fd5b34610345576020366003190112610345577fd48d879cef83a1c0bdda516f27b13ddb1b3f8bbac1c9e1511bb2a659c24277606020600435611c148161055d565b611c1c612c91565b600580546001600160a01b0319166001600160a01b03929092169182179055604051908152a1005b34610345576040366003190112610345576109e0602435600435611c678261055d565b805f526002602052611c7f600160405f200154612ad7565b612c24565b34610345575f366003190112610345576001546040516001600160a01b039091168152602090f35b3461034557602036600319011261034557600435611cc98161055d565b611cd1612c91565b60018060a01b0380911690816bffffffffffffffffffffffff60a01b60015416176001555f5460101c167f38d16b8cac22d99fc7c124b9cd0de2d3fa1faef420bfe791d8c362d765e227005f80a3005b34610345575f366003190112610345576008546040516001600160a01b039091168152602090f35b34610345576060366003190112610345576020611d653661051f565b63ffffffff8135611d7581610914565b165f526004825260405f205482604051920135148152f35b6040513d5f823e3d90fd5b35610e6f81610914565b63ffffffff16805f52600460205260405f2054908115611dc0575090565b6024906040519063f6ff4fb760e01b82526004820152fd5b6040519061040482610d1a565b6040519061040482610d83565b6001600160401b038111610d355760051b60200190565b6001600160401b038111610d3557601f01601f191660200190565b929192611e3082611e09565b91611e3e6040519384610d9e565b829481845281830111610345578281602093845f960137010152565b634e487b7160e01b5f52601160045260245ffd5b5f198114611e7c5760010190565b611e5a565b634e487b7160e01b5f52603260045260245ffd5b8051821015611ea95760209160051b010190565b611e81565b90601f8111611ebc57505050565b5f91825260208220906020601f850160051c83019410611ef7575b601f0160051c01915b828110611eec57505050565b818155600101611ee0565b9092508290611ed7565b91909182516001600160401b038111610d3557611f2881611f228454610cce565b84611eae565b602080601f8311600114611f625750819293945f92611f57575b50508160011b915f199060031b1c1916179055565b015190505f80611f42565b90601f19831695611f76855f5260205f2090565b925f905b888210611fb157505083600195969710611f99575b505050811b019055565b01515f1960f88460031b161c191690555f8080611f8f565b80600185968294968601518155019501930190611f7a565b602080820190808352835180925260409283810182858560051b8401019601945f925b858410611ffd575050505050505090565b909192939495968580612040600193603f19868203018852868c5163ffffffff815116835261ffff85820151168584015201519060609081898201520190610378565b990194019401929594939190611fec565b905f91825b81518110156120de576120d9906120d4604061207e816120768588611e95565b510151612220565b6120cf8161208c8588611e95565b5101519163ffffffff61209f8689611e95565b515116895261ffff602091600683528a20916120bb878a611e95565b5101511661ffff165f5260205260405f2090565b611f01565b611e6e565b612056565b507fbe4864a8e820971c0247f5992e2da559595f7bf076a21cb5928d443d2a13b6749192506121139060405191829182611fc9565b0390a1565b6020908361040493959495604051968361213b8995518092888089019101610357565b84019185830137015f83820152038085520183610d9e565b908060209392818452848401375f828201840152601f01601f1916010190565b916020610e6f938181520191612153565b6121ae9163ffffffff610ec392165f52600660205260405f209061ffff165f5260205260405f2090565b80511561221457821561220e5760028310156121e1575061079f604051928392639a6d49cd60e01b845260048401612173565b6121f46121ef368585611e24565b612220565b8260021161034557610e6f92600119019160020190612118565b91505090565b50610e6f913691611e24565b600361ffff600283015116036122335750565b604051639a6d49cd60e01b81526020600482015290819061079f906024830190610378565b6040519061226582610d1a565b5f6020838281520152565b91908260409103126103455760405161228881610d1a565b6020808294805184520151910152565b9060408282031261034557610e6f91612270565b906020909392936040835263ffffffff815116604084015281810151606084015260806123006122ea604084015160a08488015260e0870190610378565b6060840151868203603f190160a0880152610378565b910151151560c08401526001600160a01b03909416910152565b6040519061232782610d3a565b815f81525f6020820152604061233b612258565b910152565b6040906023190112610345576040519061235982610d1a565b60243582526044356020830152565b6001600160401b0381160361034557565b90608082820312610345576123b390604080519361239685610d3a565b8051855260208101516123a881612368565b602086015201612270565b604082015290565b6124186080949261243496946123cf61231a565b5060206123dc86516124aa565b95019182518061249b575b506123f185611da2565b9251151592612401610b1a611de5565b602086015260408501526060840152151585830152565b6040518095819482936302637a4560e41b8452600484016122ac565b03917f00000000000000000000000000000000000000000000000000000000000000006001600160a01b03165af1908115610769575f91612473575090565b610e6f915060803d8111612494575b61248c8183610d9e565b810190612379565b503d612482565b6124a4906124cc565b5f6123e7565b8034036124b45790565b6040516304fb820960e51b8152346004820152602490fd5b60405163393f876560e21b81526020906001600160a01b037f00000000000000000000000000000000000000000000000000000000000000008116918381600481865afa908115610769575f9161260e575b50169283156125fc57610404935f806125c79460405194878601916323b872dd60e01b8352336024880152604487015260648601526064855261256085610d83565b6040519461256d86610d1a565b8786527f5361666545524332303a206c6f772d6c6576656c2063616c6c206661696c656488870152519082855af13d156125f4573d916125ac83611e09565b926125ba6040519485610d9e565b83523d5f8785013e612d4a565b80519182159283156125dc575b505050612ceb565b6125ec9350820181019101612676565b5f80806125d4565b606091612d4a565b6040516329b99a9560e11b8152600490fd5b908482813d831161263d575b6126248183610d9e565b810103126110d05750516126378161055d565b5f61251e565b503d61261a565b903590601e198136030182121561034557018035906001600160401b0382116103455760200191813603831361034557565b908160209103126103455751610e6f81610a3f565b90916126a2610e6f93604084526040840190610378565b916020818403910152610378565b90916127146126f26126e661273a957f000000000000000000000000000000000000000000000000000000000000000090612838565b6001600160401b031690565b61270961270260a0860186612644565b3691611e24565b90602085013561290d565b93909283945f146127b5576002905b61158361272f82611d98565b916080810190612644565b60075490926001600160a01b0390911690838261275657505050565b60405163043a78eb60e01b81529260209284928391829161277a916004840161268b565b03915afa80156107695761278b5750565b6127ab9060203d81116127ae575b6127a38183610d9e565b810190612676565b50565b503d612799565b600190612723565b35610e6f81612368565b610e6f939260809260018060a01b0316825260208201525f60408201528160608201520190610378565b81810292918115918404141715611e7c57565b610e6f906001600160401b037f000000000000000000000000000000000000000000000000000000000000000091166127f1565b8115612842570490565b634e487b7160e01b5f52601260045260245ffd5b61288590610ad27f00000000000000000000000000000000000000000000000000000000000000008092612838565b9182918084106128925750565b83604491604051916371c4efed60e01b835260048301526024820152fd5b604c9193610e6f936040519586936001600160401b0360c01b9060c01b16602085015263ffffffff60e01b9060e01b166028840152602c8301526128fd8151809260208686019101610357565b810103602c810184520182610d9e565b8251158015939061296b576129689160689160405194859260208401526001600160401b0360c01b9060c01b1660408301523360488301526129588151809260208686019101610357565b8101036048810184520182610d9e565b91565b50906040519160208301526001600160401b0360c01b9060c01b1660408201526028815261296881610d3a565b90602011610345573590565b90602811610345576020013560c01c90565b908060281161034557610e6f9136916027190190602801611e24565b9190811015611ea95760051b8101359061013e1981360301821215610345570190565b35610e6f8161055d565b929093612a5b926001600160401b036040610e6f9a98999763ffffffff8135612a2781610914565b168852602081013560208901520135612a3f81612368565b166040860152606085015260e0608085015260e0840191612153565b6001600160a01b0390941660a082015280840360c090910152612153565b602081830312610345578051906001600160401b038211610345570181601f82011215610345578051612aab81611e09565b92612ab96040519485610d9e565b8184526020828401011161034557610e6f9160208085019101610357565b612ae1338261322c565b15612ae95750565b612af233612e8b565b612afa612ddb565b916030612b0684612e06565b536078612b1284612e13565b5360415b60018111612b6c5761079f846112cc604886612b328715612e40565b60405193849176020b1b1b2b9b9a1b7b73a3937b61d1030b1b1b7bab73a1604d1b602084015261128e815180926020603787019101610357565b90600f8116906010821015611ea957612ba9916f181899199a1a9b1b9c1cb0b131b232b360811b901a612b9f8487612e23565b5360041c91612e34565b612b16565b612bb7816131ee565b612bbe5750565b6001600160a01b03165f8181527fac33ff75c19e70fe83507db0d683fd3465c996598dc972688b7ace676c89077b60205260408120805460ff191690553391907ff6391f5c32d9c69d2a47ea670b442974b53935d1edc7fd64eb21e047a839171b8180a4565b612c2e828261322c565b612c36575050565b5f8181526002602090815260408083206001600160a01b03861684529091529020805460ff1916905533916001600160a01b0316907ff6391f5c32d9c69d2a47ea670b442974b53935d1edc7fd64eb21e047a839171b5f80a4565b5f5460101c6001600160a01b03163303612ca757565b606460405162461bcd60e51b815260206004820152602060248201527f4f776e61626c653a2063616c6c6572206973206e6f7420746865206f776e65726044820152fd5b15612cf257565b60405162461bcd60e51b815260206004820152602a60248201527f5361666545524332303a204552433230206f7065726174696f6e20646964206e6044820152691bdd081cdd58d8d9595960b21b6064820152608490fd5b91929015612dac5750815115612d5e575090565b3b15612d675790565b60405162461bcd60e51b815260206004820152601d60248201527f416464726573733a2063616c6c20746f206e6f6e2d636f6e74726163740000006044820152606490fd5b825190915015612dbf5750805190602001fd5b60405162461bcd60e51b815290819061079f9060048301610e5e565b60405190608082018281106001600160401b03821117610d3557604052604282526060366020840137565b805115611ea95760200190565b805160011015611ea95760210190565b908151811015611ea9570160200190565b8015611e7c575f190190565b15612e4757565b606460405162461bcd60e51b815260206004820152602060248201527f537472696e67733a20686578206c656e67746820696e73756666696369656e746044820152fd5b60405190612e9882610d3a565b602a825260403660208401376030612eaf83612e06565b536078612ebb83612e13565b536029905b60018211612ed357610e6f915015612e40565b600f8116906010821015611ea957612f05916f181899199a1a9b1b9c1cb0b131b232b360811b901a612b9f8486612e23565b90612ec0565b7f65d7a28e3265b37a6474929f336521b332c1681b933f6cb9f3376673440d862a612f34612ddb565b906030612f4083612e06565b536078612f4c83612e13565b536041905b60018211612f6457610e6f915015612e40565b600f8116906010821015611ea957612f96916f181899199a1a9b1b9c1cb0b131b232b360811b901a612b9f8486612e23565b90612f51565b60ff60035416612fa857565b60405162461bcd60e51b815260206004820152601060248201526f14185d5cd8589b194e881c185d5cd95960821b6044820152606490fd5b612fe8612f9c565b6008546001600160a01b0316803b15610345576040516340c10f1960e01b81526001600160a01b03929092166004830152602482018390525f908290604490829084905af180156107695761303b575090565b610e6f90610d55565b5f80547f8be0079c531659141344cd1fd0a4f28419497f9722a3daafe3b4186f6b6457e0906001600160a01b03906130809060101c8216612bae565b613089846131ee565b156130cf575b600180546001600160a01b0319169055825462010000600160b01b03198116601086811b62010000600160b01b0316919091178555948216941c169180a3565b8280526002602090815260408085206001600160a01b0387165f90815292529020805460ff1916600117905533848216847f2f8788117e7eff1d82e926ec794901d17c78024a50270940304540a733656f0d8180a461308f565b6001600160a01b0381165f9081527faa2c41c8db999cab41dbf71397ccd99cf3349690c12e02929b93abbcc53e5b936020526040902060ff905b5416908115613170575090565b905060018060a01b03805f5460101c1691161490565b5f80527fac33ff75c19e70fe83507db0d683fd3465c996598dc972688b7ace676c89077b6020527f6ee3efecae883df2d7ccda22610b4ca771a299e707cb0d65c4ec97dc4e6668ad5460ff1680156131db5790565b505f5460101c6001600160a01b03161590565b6001600160a01b0381165f9081527fac33ff75c19e70fe83507db0d683fd3465c996598dc972688b7ace676c89077b6020526040902060ff90613163565b5f52600260205260ff6131638260405f209060018060a01b03165f5260205260405f2090565b1561325957565b60405162461bcd60e51b815260206004820152602e60248201527f496e697469616c697a61626c653a20636f6e747261637420697320616c72656160448201526d191e481a5b9a5d1a585b1a5e995960921b6064820152608490fd5b6132be33613044565b6132c6612c91565b6001600160a01b037f00000000000000000000000000000000000000000000000000000000000000008116803b1561034557604051809163ca5eb5e160e01b82528160245f948580943360048401525af1801561076957613408575b5060405163313ce56760e01b81529183169190602082600481865afa9182156107695781926133c1575b5050916133a76121139261338560ff7f851ad97d3083977faaabf40c70f1f53f0aea0337774b10190b71c00b0363128d96161515613417565b60018060a01b03166bffffffffffffffffffffffff60a01b6008541617600855565b6040516001600160a01b0390911681529081906020820190565b9091506020813d8211613400575b816133dc60209383610d9e565b810103126133fc57519060ff821682036110d057506133a761211361334c565b5080fd5b3d91506133cf565b61341190610d55565b5f613322565b1561341e57565b60405162461bcd60e51b815260206004820152600e60248201526d496e76616c696420746f6b656e5f60901b6044820152606490fdfeefed6d3500546b29533b128a29e3a94d70788727f0507505ac12eaf2e578fd9ca2646970667358221220da20c5d5a064dfd3703caf80bdc71060df231749d58196b3c178e98192e7f10364736f6c63430008140033",
  "libraries": {},
  "devdoc": {
    "details": "This contract serves as an adapter for int tokens,      allowing for the seamless interaction with the OFT protocol.      It inherits from OFTERC20AdapterUpgradeable to leverage its functionality.",
    "events": {
      "Initialized(uint8)": {
        "details": "Triggered when the contract has been initialized or reinitialized."
      },
      "Paused(address)": {
        "details": "Emitted when the pause is triggered by `account`."
      },
      "PreCrimeSet(address)": {
        "details": "Emitted when the preCrime contract address is set.",
        "params": {
          "preCrimeAddress": "The address of the preCrime contract."
        }
      },
      "RoleAdminChanged(bytes32,bytes32,bytes32)": {
        "details": "Emitted when `newAdminRole` is set as ``role``'s admin role, replacing `previousAdminRole` `DEFAULT_ADMIN_ROLE` is the starting admin for all roles, despite {RoleAdminChanged} not being emitted signaling this. _Available since v3.1._"
      },
      "RoleGranted(bytes32,address,address)": {
        "details": "Emitted when `account` is granted `role`. `sender` is the account that originated the contract call, an admin role bearer except when using {AccessControl-_setupRole}."
      },
      "RoleRevoked(bytes32,address,address)": {
        "details": "Emitted when `account` is revoked `role`. `sender` is the account that originated the contract call:   - if using `revokeRole`, it is the admin role bearer   - if using `renounceRole`, it is the role bearer (i.e. `account`)"
      },
      "Unpaused(address)": {
        "details": "Emitted when the pause is lifted by `account`."
      }
    },
    "kind": "dev",
    "methods": {
      "acceptOwnership()": {
        "details": "The new owner accepts the ownership transfer."
      },
      "allowInitializePath((uint32,bytes32,uint64))": {
        "details": "This indicates to the endpoint that the OApp has enabled msgs for this particular path to be received.This defaults to assuming if a peer has been set, its initialized. Can be overridden by the OApp if there is other logic to determine this.",
        "params": {
          "origin": "The origin information containing the source endpoint and sender address."
        },
        "returns": {
          "_0": "Whether the path has been initialized."
        }
      },
      "approvalRequired()": {
        "details": "This function returns true if approval is required, false otherwise.",
        "returns": {
          "_0": "A boolean indicating whether approval is required."
        }
      },
      "combineOptions(uint32,uint16,bytes)": {
        "details": "If there is an enforced lzReceive option: - {gasLimit: 200k, msg.value: 1 ether} AND a caller supplies a lzReceive option: {gasLimit: 100k, msg.value: 0.5 ether} - The resulting options will be {gasLimit: 300k, msg.value: 1.5 ether} when the message is executed on the remote lzReceive() function.This presence of duplicated options is handled off-chain in the verifier/executor.",
        "params": {
          "_eid": "The endpoint ID.",
          "_extraOptions": "Additional options passed by the caller.",
          "_msgType": "The OAPP message type."
        },
        "returns": {
          "_0": "options The combination of caller specified options AND enforced options."
        }
      },
      "getRoleAdmin(bytes32)": {
        "details": "Returns the admin role that controls `role`. See {grantRole} and {revokeRole}. To change a role's admin, use {_setRoleAdmin}."
      },
      "grantRole(bytes32,address)": {
        "details": "Grants `role` to `account`. If `account` had not been already granted `role`, emits a {RoleGranted} event. Requirements: - the caller must have ``role``'s admin role. May emit a {RoleGranted} event."
      },
      "hasRole(bytes32,address)": {
        "details": "Checks if an account has a specific role. This function overrides the hasRole function in the AccessControl contract. It returns true if the account has the role or is the owner of the contract.",
        "params": {
          "_account": "The account to be checked.",
          "_role": "The role to be checked."
        },
        "returns": {
          "_0": "True if the account has the role or is the owner, false otherwise."
        }
      },
      "initialize(address)": {
        "details": "Initializes the contract by transferring ownership and setting the delegate.",
        "params": {
          "_token": "The address of the ERC20 token to be adapted."
        }
      },
      "isComposeMsgSender((uint32,bytes32,uint64),bytes,address)": {
        "details": "_origin The origin information containing the source endpoint and sender address.  - srcEid: The source chain endpoint ID.  - sender: The sender address on the src chain.  - nonce: The nonce of the message._message The lzReceive payload.Applications can optionally choose to implement separate composeMsg senders that are NOT the bridging layer.The default sender IS the OAppReceiver implementer.",
        "params": {
          "_sender": "The sender address."
        },
        "returns": {
          "_0": "isSender Is a valid sender."
        }
      },
      "isPeer(uint32,bytes32)": {
        "details": "Check if the peer is considered 'trusted' by the OApp.Enables OAppPreCrimeSimulator to check whether a potential Inbound Packet is from a trusted source.",
        "params": {
          "_eid": "The endpoint ID to check.",
          "_peer": "The peer to check."
        },
        "returns": {
          "_0": "Whether the peer passed is considered 'trusted' by the OApp."
        }
      },
      "lzReceive((uint32,bytes32,uint64),bytes32,bytes,address,bytes)": {
        "details": "Entry point for receiving messages or packets from the endpoint.Entry point for receiving msg/packet from the LayerZero endpoint.",
        "params": {
          "_executor": "The address of the executor for the received message.",
          "_extraData": "Additional arbitrary data provided by the corresponding executor.",
          "_guid": "The unique identifier for the received LayerZero message.",
          "_message": "The payload of the received message.",
          "_origin": "The origin information containing the source endpoint and sender address.  - srcEid: The source chain endpoint ID.  - sender: The sender address on the src chain.  - nonce: The nonce of the message."
        }
      },
      "lzReceiveAndRevert(((uint32,bytes32,uint64),uint32,address,bytes32,uint256,address,bytes,bytes)[])": {
        "details": "Interface for pre-crime simulations. Always reverts at the end with the simulation results.WARNING: MUST revert at the end with the simulation results.Gives the preCrime implementation the ability to mock sending packets to the lzReceive function, WITHOUT actually executing them.",
        "params": {
          "_packets": "An array of InboundPacket objects representing received packets to be delivered."
        }
      },
      "lzReceiveSimulate((uint32,bytes32,uint64),bytes32,bytes,address,bytes)": {
        "details": "Is effectively an internal function because msg.sender must be address(this). Allows resetting the call stack for 'internal' calls.",
        "params": {
          "_executor": "The executor address for the packet.",
          "_extraData": "Additional data for the packet.",
          "_guid": "The unique identifier of the packet.",
          "_message": "The message payload of the packet.",
          "_origin": "The origin information containing the source endpoint and sender address.  - srcEid: The source chain endpoint ID.  - sender: The sender address on the src chain.  - nonce: The nonce of the message."
        }
      },
      "nextNonce(uint32,bytes32)": {
        "details": "_srcEid The source endpoint ID._sender The sender address.The path nonce starts from 1. If 0 is returned it means that there is NO nonce ordered enforcement.Is required by the off-chain executor to determine the OApp expects msg execution is ordered.This is also enforced by the OApp.By default this is NOT enabled. ie. nextNonce is hardcoded to return 0.",
        "returns": {
          "nonce": "The next nonce."
        }
      },
      "oApp()": {
        "details": "Retrieves the address of the OApp contract.The simulator contract is the base contract for the OApp by default.If the simulator is a separate contract, override this function.",
        "returns": {
          "_0": "The address of the OApp contract."
        }
      },
      "oAppVersion()": {
        "returns": {
          "receiverVersion": "The version of the OAppReceiver.sol implementation.",
          "senderVersion": "The version of the OAppSender.sol implementation."
        }
      },
      "oftVersion()": {
        "details": "interfaceId: This specific interface ID is '0x02e49c2c'.version: Indicates a cross-chain compatible msg encoding with other OFTs.If a new feature is added to the OFT cross-chain msg encoding, the version will be incremented. ie. localOFT version(x,1) CAN send messages to remoteOFT version(x,1)",
        "returns": {
          "interfaceId": "The interface ID.",
          "version": "The version."
        }
      },
      "owner()": {
        "details": "Returns the address of the current owner."
      },
      "pause()": {
        "details": "Pauses all token transfers and other state-changing operations in the contract. This function can only be called by an account with the PAUSER_ROLE."
      },
      "paused()": {
        "details": "Returns true if the contract is paused, and false otherwise."
      },
      "pendingOwner()": {
        "details": "Returns the address of the pending owner."
      },
      "quoteOFT((uint32,bytes32,uint256,uint256,bytes,bytes,bytes))": {
        "params": {
          "_sendParam": "The parameters for the send operation."
        },
        "returns": {
          "oftFeeDetails": "The details of OFT fees.",
          "oftLimit": "The OFT limit information.",
          "oftReceipt": "The OFT receipt information."
        }
      },
      "quoteSend((uint32,bytes32,uint256,uint256,bytes,bytes,bytes),bool)": {
        "details": "MessagingFee: LayerZero msg fee  - nativeFee: The native fee.  - lzTokenFee: The lzToken fee.",
        "params": {
          "_payInLzToken": "Flag indicating whether the caller is paying in the LZ token.",
          "_sendParam": "The parameters for the send() operation."
        },
        "returns": {
          "msgFee": "The calculated LayerZero messaging fee from the send() operation."
        }
      },
      "renounceOwnership()": {
        "details": "Leaves the contract without owner. It will not be possible to call `onlyOwner` functions. Can only be called by the current owner. NOTE: Renouncing ownership will leave the contract without an owner, thereby disabling any functionality that is only available to the owner."
      },
      "renounceRole(bytes32,address)": {
        "details": "Revokes `role` from the calling account. Roles are often managed via {grantRole} and {revokeRole}: this function's purpose is to provide a mechanism for accounts to lose their privileges if they are compromised (such as when a trusted device is misplaced). If the calling account had been revoked `role`, emits a {RoleRevoked} event. Requirements: - the caller must be `account`. May emit a {RoleRevoked} event."
      },
      "revokeRole(bytes32,address)": {
        "details": "Revokes `role` from `account`. If `account` had been granted `role`, emits a {RoleRevoked} event. Requirements: - the caller must have ``role``'s admin role. May emit a {RoleRevoked} event."
      },
      "send((uint32,bytes32,uint256,uint256,bytes,bytes,bytes),(uint256,uint256),address)": {
        "details": "Executes the send operation.MessagingReceipt: LayerZero msg receipt  - guid: The unique identifier for the sent message.  - nonce: The nonce of the sent message.  - fee: The LayerZero fee incurred for the message.",
        "params": {
          "_fee": "The calculated fee for the send() operation.      - nativeFee: The native fee.      - lzTokenFee: The lzToken fee.",
          "_refundAddress": "The address to receive any excess funds.",
          "_sendParam": "The parameters for the send operation."
        },
        "returns": {
          "msgReceipt": "The receipt for the send operation.",
          "oftReceipt": "The OFT receipt information."
        }
      },
      "setDelegate(address)": {
        "details": "Only the owner/admin of the OApp can call this function.Provides the ability for a delegate to set configs, on behalf of the OApp, directly on the Endpoint contract.",
        "params": {
          "_delegate": "The address of the delegate to be set."
        }
      },
      "setEnforcedOptions((uint32,uint16,bytes)[])": {
        "details": "Sets the enforced options for specific endpoint and message type combinations.Only the owner/admin of the OApp can call this function.Provides a way for the OApp to enforce things like paying for PreCrime, AND/OR minimum dst lzReceive gas amounts etc.These enforced options can vary as the potential options/execution on the remote may differ as per the msgType. eg. Amount of lzReceive() gas necessary to deliver a lzCompose() message adds overhead you dont want to pay if you are only making a standard LayerZero message ie. lzReceive() WITHOUT sendCompose().",
        "params": {
          "_enforcedOptions": "An array of EnforcedOptionParam structures specifying enforced options."
        }
      },
      "setMsgInspector(address)": {
        "details": "Sets the message inspector address for the OFT.This is an optional contract that can be used to inspect both 'message' and 'options'.Set it to address(0) to disable it, or set it to a contract address to enable it.",
        "params": {
          "_msgInspector": "The address of the message inspector."
        }
      },
      "setPeer(uint32,bytes32)": {
        "details": "Only the owner/admin of the OApp can call this function.Indicates that the peer is trusted to send LayerZero messages to this OApp.Set this to bytes32(0) to remove the peer address.Peer is a bytes32 to accommodate non-evm chains.",
        "params": {
          "_eid": "The endpoint ID.",
          "_peer": "The address of the peer to be associated with the corresponding endpoint."
        }
      },
      "setPreCrime(address)": {
        "details": "Sets the preCrime contract address.",
        "params": {
          "_preCrime": "The address of the preCrime contract."
        }
      },
      "sharedDecimals()": {
        "details": "Retrieves the shared decimals of the OFT.Sets an implicit cap on the amount of tokens, over uint64.max() will need some sort of outbound cap / totalSupply cap Lowest common decimal denominator between chains. Defaults to 6 decimal places to provide up to 18,446,744,073,709.551615 units (max uint64). For tokens exceeding this totalSupply(), they will need to override the sharedDecimals function with something smaller. ie. 4 sharedDecimals would be 1,844,674,407,370,955.1615",
        "returns": {
          "_0": "The shared decimals of the OFT."
        }
      },
      "supportsInterface(bytes4)": {
        "details": "See {IERC165-supportsInterface}."
      },
      "token()": {
        "details": "Get the address of the inner token."
      },
      "transferOwnership(address)": {
        "details": "Public function to transfer ownership of the contract to a new owner. This function overrides the transferOwnership function in both Ownable and Ownable2Step contracts.",
        "params": {
          "_newOwner": "The address of the new owner to whom ownership will be transferred."
        }
      },
      "unpause()": {
        "details": "Unpauses all token transfers and state-changing operations in the contract. This function can only be called by the contract owner."
      }
    },
    "title": "int OFT Adapter Contract",
    "version": 1
  },
  "userdoc": {
    "kind": "user",
    "methods": {
      "allowInitializePath((uint32,bytes32,uint64))": {
        "notice": "Checks if the path initialization is allowed based on the provided origin."
      },
      "approvalRequired()": {
        "notice": "Checks if approval is required to send the 'token()'."
      },
      "combineOptions(uint32,uint16,bytes)": {
        "notice": "Combines options for a given endpoint and message type."
      },
      "endpoint()": {
        "notice": "Retrieves the LayerZero endpoint associated with the OApp."
      },
      "isComposeMsgSender((uint32,bytes32,uint64),bytes,address)": {
        "notice": "Indicates whether an address is an approved composeMsg sender to the Endpoint."
      },
      "nextNonce(uint32,bytes32)": {
        "notice": "Retrieves the next nonce for a given source endpoint and sender address."
      },
      "oAppVersion()": {
        "notice": "Retrieves the OApp version information."
      },
      "oftVersion()": {
        "notice": "Retrieves interfaceID and the version of the OFT."
      },
      "peers(uint32)": {
        "notice": "Retrieves the peer (OApp) associated with a corresponding endpoint."
      },
      "quoteOFT((uint32,bytes32,uint256,uint256,bytes,bytes,bytes))": {
        "notice": "Provides a quote for OFT-related operations."
      },
      "quoteSend((uint32,bytes32,uint256,uint256,bytes,bytes,bytes),bool)": {
        "notice": "Provides a quote for the send() operation."
      },
      "setDelegate(address)": {
        "notice": "Sets the delegate address for the OApp."
      },
      "setPeer(uint32,bytes32)": {
        "notice": "Sets the peer address (OApp instance) for a corresponding endpoint."
      }
    },
    "version": 1
  },
  "storageLayout": {
    "storage": [
      {
        "astId": 8402,
        "contract": "src/oft/INTAdapter.sol:INTOFTAdapter",
        "label": "_initialized",
        "offset": 0,
        "slot": "0",
        "type": "t_uint8"
      },
      {
        "astId": 8405,
        "contract": "src/oft/INTAdapter.sol:INTOFTAdapter",
        "label": "_initializing",
        "offset": 1,
        "slot": "0",
        "type": "t_bool"
      },
      {
        "astId": 7314,
        "contract": "src/oft/INTAdapter.sol:INTOFTAdapter",
        "label": "_owner",
        "offset": 2,
        "slot": "0",
        "type": "t_address"
      },
      {
        "astId": 7427,
        "contract": "src/oft/INTAdapter.sol:INTOFTAdapter",
        "label": "_pendingOwner",
        "offset": 0,
        "slot": "1",
        "type": "t_address"
      },
      {
        "astId": 6942,
        "contract": "src/oft/INTAdapter.sol:INTOFTAdapter",
        "label": "_roles",
        "offset": 0,
        "slot": "2",
        "type": "t_mapping(t_bytes32,t_struct(RoleData)6937_storage)"
      },
      {
        "astId": 8582,
        "contract": "src/oft/INTAdapter.sol:INTOFTAdapter",
        "label": "_paused",
        "offset": 0,
        "slot": "3",
        "type": "t_bool"
      },
      {
        "astId": 64,
        "contract": "src/oft/INTAdapter.sol:INTOFTAdapter",
        "label": "peers",
        "offset": 0,
        "slot": "4",
        "type": "t_mapping(t_uint32,t_bytes32)"
      },
      {
        "astId": 1903,
        "contract": "src/oft/INTAdapter.sol:INTOFTAdapter",
        "label": "preCrime",
        "offset": 0,
        "slot": "5",
        "type": "t_address"
      },
      {
        "astId": 680,
        "contract": "src/oft/INTAdapter.sol:INTOFTAdapter",
        "label": "enforcedOptions",
        "offset": 0,
        "slot": "6",
        "type": "t_mapping(t_uint32,t_mapping(t_uint16,t_bytes_storage))"
      },
      {
        "astId": 871,
        "contract": "src/oft/INTAdapter.sol:INTOFTAdapter",
        "label": "msgInspector",
        "offset": 0,
        "slot": "7",
        "type": "t_address"
      },
      {
        "astId": 18303,
        "contract": "src/oft/INTAdapter.sol:INTOFTAdapter",
        "label": "token_",
        "offset": 0,
        "slot": "8",
        "type": "t_contract(IERC20)9402"
      }
    ],
    "types": {
      "t_address": {
        "encoding": "inplace",
        "label": "address",
        "numberOfBytes": "20"
      },
      "t_bool": {
        "encoding": "inplace",
        "label": "bool",
        "numberOfBytes": "1"
      },
      "t_bytes32": {
        "encoding": "inplace",
        "label": "bytes32",
        "numberOfBytes": "32"
      },
      "t_bytes_storage": {
        "encoding": "bytes",
        "label": "bytes",
        "numberOfBytes": "32"
      },
      "t_contract(IERC20)9402": {
        "encoding": "inplace",
        "label": "contract IERC20",
        "numberOfBytes": "20"
      },
      "t_mapping(t_address,t_bool)": {
        "encoding": "mapping",
        "key": "t_address",
        "label": "mapping(address => bool)",
        "numberOfBytes": "32",
        "value": "t_bool"
      },
      "t_mapping(t_bytes32,t_struct(RoleData)6937_storage)": {
        "encoding": "mapping",
        "key": "t_bytes32",
        "label": "mapping(bytes32 => struct AccessControl.RoleData)",
        "numberOfBytes": "32",
        "value": "t_struct(RoleData)6937_storage"
      },
      "t_mapping(t_uint16,t_bytes_storage)": {
        "encoding": "mapping",
        "key": "t_uint16",
        "label": "mapping(uint16 => bytes)",
        "numberOfBytes": "32",
        "value": "t_bytes_storage"
      },
      "t_mapping(t_uint32,t_bytes32)": {
        "encoding": "mapping",
        "key": "t_uint32",
        "label": "mapping(uint32 => bytes32)",
        "numberOfBytes": "32",
        "value": "t_bytes32"
      },
      "t_mapping(t_uint32,t_mapping(t_uint16,t_bytes_storage))": {
        "encoding": "mapping",
        "key": "t_uint32",
        "label": "mapping(uint32 => mapping(uint16 => bytes))",
        "numberOfBytes": "32",
        "value": "t_mapping(t_uint16,t_bytes_storage)"
      },
      "t_struct(RoleData)6937_storage": {
        "encoding": "inplace",
        "label": "struct AccessControl.RoleData",
        "members": [
          {
            "astId": 6934,
            "contract": "src/oft/INTAdapter.sol:INTOFTAdapter",
            "label": "members",
            "offset": 0,
            "slot": "0",
            "type": "t_mapping(t_address,t_bool)"
          },
          {
            "astId": 6936,
            "contract": "src/oft/INTAdapter.sol:INTOFTAdapter",
            "label": "adminRole",
            "offset": 0,
            "slot": "1",
            "type": "t_bytes32"
          }
        ],
        "numberOfBytes": "64"
      },
      "t_uint16": {
        "encoding": "inplace",
        "label": "uint16",
        "numberOfBytes": "2"
      },
      "t_uint32": {
        "encoding": "inplace",
        "label": "uint32",
        "numberOfBytes": "4"
      },
      "t_uint8": {
        "encoding": "inplace",
        "label": "uint8",
        "numberOfBytes": "1"
      }
    }
  }
}