{
  "address": "0x137a6477d6f6ECb6C79710e4ec595e9F20497753",
  "abi": [
    {
      "inputs": [],
      "name": "ExceedMintCap",
      "type": "error"
    },
    {
      "inputs": [],
      "name": "SameMintCap",
      "type": "error"
    },
    {
      "anonymous": false,
      "inputs": [
        {
          "indexed": true,
          "internalType": "address",
          "name": "owner",
          "type": "address"
        },
        {
          "indexed": true,
          "internalType": "address",
          "name": "spender",
          "type": "address"
        },
        {
          "indexed": false,
          "internalType": "uint256",
          "name": "value",
          "type": "uint256"
        }
      ],
      "name": "Approval",
      "type": "event"
    },
    {
      "anonymous": false,
      "inputs": [],
      "name": "EIP712DomainChanged",
      "type": "event"
    },
    {
      "anonymous": false,
      "inputs": [
        {
          "indexed": false,
          "internalType": "uint8",
          "name": "version",
          "type": "uint8"
        }
      ],
      "name": "Initialized",
      "type": "event"
    },
    {
      "anonymous": false,
      "inputs": [
        {
          "indexed": false,
          "internalType": "uint256",
          "name": "oldMintCap",
          "type": "uint256"
        },
        {
          "indexed": false,
          "internalType": "uint256",
          "name": "newMintCap",
          "type": "uint256"
        }
      ],
      "name": "NewMintCap",
      "type": "event"
    },
    {
      "anonymous": false,
      "inputs": [
        {
          "indexed": true,
          "internalType": "address",
          "name": "previousOwner",
          "type": "address"
        },
        {
          "indexed": true,
          "internalType": "address",
          "name": "newOwner",
          "type": "address"
        }
      ],
      "name": "OwnershipTransferStarted",
      "type": "event"
    },
    {
      "anonymous": false,
      "inputs": [
        {
          "indexed": true,
          "internalType": "address",
          "name": "previousOwner",
          "type": "address"
        },
        {
          "indexed": true,
          "internalType": "address",
          "name": "newOwner",
          "type": "address"
        }
      ],
      "name": "OwnershipTransferred",
      "type": "event"
    },
    {
      "anonymous": false,
      "inputs": [
        {
          "indexed": true,
          "internalType": "bytes32",
          "name": "role",
          "type": "bytes32"
        },
        {
          "indexed": true,
          "internalType": "bytes32",
          "name": "previousAdminRole",
          "type": "bytes32"
        },
        {
          "indexed": true,
          "internalType": "bytes32",
          "name": "newAdminRole",
          "type": "bytes32"
        }
      ],
      "name": "RoleAdminChanged",
      "type": "event"
    },
    {
      "anonymous": false,
      "inputs": [
        {
          "indexed": true,
          "internalType": "bytes32",
          "name": "role",
          "type": "bytes32"
        },
        {
          "indexed": true,
          "internalType": "address",
          "name": "account",
          "type": "address"
        },
        {
          "indexed": true,
          "internalType": "address",
          "name": "sender",
          "type": "address"
        }
      ],
      "name": "RoleGranted",
      "type": "event"
    },
    {
      "anonymous": false,
      "inputs": [
        {
          "indexed": true,
          "internalType": "bytes32",
          "name": "role",
          "type": "bytes32"
        },
        {
          "indexed": true,
          "internalType": "address",
          "name": "account",
          "type": "address"
        },
        {
          "indexed": true,
          "internalType": "address",
          "name": "sender",
          "type": "address"
        }
      ],
      "name": "RoleRevoked",
      "type": "event"
    },
    {
      "anonymous": false,
      "inputs": [
        {
          "indexed": true,
          "internalType": "address",
          "name": "from",
          "type": "address"
        },
        {
          "indexed": true,
          "internalType": "address",
          "name": "to",
          "type": "address"
        },
        {
          "indexed": false,
          "internalType": "uint256",
          "name": "value",
          "type": "uint256"
        }
      ],
      "name": "Transfer",
      "type": "event"
    },
    {
      "inputs": [],
      "name": "BRIDGE_ROLE",
      "outputs": [
        {
          "internalType": "bytes32",
          "name": "",
          "type": "bytes32"
        }
      ],
      "stateMutability": "view",
      "type": "function"
    },
    {
      "inputs": [],
      "name": "DEFAULT_ADMIN_ROLE",
      "outputs": [
        {
          "internalType": "bytes32",
          "name": "",
          "type": "bytes32"
        }
      ],
      "stateMutability": "view",
      "type": "function"
    },
    {
      "inputs": [],
      "name": "DOMAIN_SEPARATOR",
      "outputs": [
        {
          "internalType": "bytes32",
          "name": "",
          "type": "bytes32"
        }
      ],
      "stateMutability": "view",
      "type": "function"
    },
    {
      "inputs": [
        {
          "internalType": "uint256",
          "name": "_newMintCap",
          "type": "uint256"
        }
      ],
      "name": "_setMintCap",
      "outputs": [],
      "stateMutability": "nonpayable",
      "type": "function"
    },
    {
      "inputs": [],
      "name": "acceptOwnership",
      "outputs": [],
      "stateMutability": "nonpayable",
      "type": "function"
    },
    {
      "inputs": [
        {
          "internalType": "address",
          "name": "owner",
          "type": "address"
        },
        {
          "internalType": "address",
          "name": "spender",
          "type": "address"
        }
      ],
      "name": "allowance",
      "outputs": [
        {
          "internalType": "uint256",
          "name": "",
          "type": "uint256"
        }
      ],
      "stateMutability": "view",
      "type": "function"
    },
    {
      "inputs": [
        {
          "internalType": "address",
          "name": "spender",
          "type": "address"
        },
        {
          "internalType": "uint256",
          "name": "amount",
          "type": "uint256"
        }
      ],
      "name": "approve",
      "outputs": [
        {
          "internalType": "bool",
          "name": "",
          "type": "bool"
        }
      ],
      "stateMutability": "nonpayable",
      "type": "function"
    },
    {
      "inputs": [
        {
          "internalType": "address",
          "name": "account",
          "type": "address"
        }
      ],
      "name": "balanceOf",
      "outputs": [
        {
          "internalType": "uint256",
          "name": "",
          "type": "uint256"
        }
      ],
      "stateMutability": "view",
      "type": "function"
    },
    {
      "inputs": [
        {
          "internalType": "address",
          "name": "from",
          "type": "address"
        },
        {
          "internalType": "uint256",
          "name": "amount",
          "type": "uint256"
        }
      ],
      "name": "burn",
      "outputs": [],
      "stateMutability": "nonpayable",
      "type": "function"
    },
    {
      "inputs": [],
      "name": "decimals",
      "outputs": [
        {
          "internalType": "uint8",
          "name": "",
          "type": "uint8"
        }
      ],
      "stateMutability": "view",
      "type": "function"
    },
    {
      "inputs": [
        {
          "internalType": "address",
          "name": "spender",
          "type": "address"
        },
        {
          "internalType": "uint256",
          "name": "subtractedValue",
          "type": "uint256"
        }
      ],
      "name": "decreaseAllowance",
      "outputs": [
        {
          "internalType": "bool",
          "name": "",
          "type": "bool"
        }
      ],
      "stateMutability": "nonpayable",
      "type": "function"
    },
    {
      "inputs": [],
      "name": "eip712Domain",
      "outputs": [
        {
          "internalType": "bytes1",
          "name": "fields",
          "type": "bytes1"
        },
        {
          "internalType": "string",
          "name": "name",
          "type": "string"
        },
        {
          "internalType": "string",
          "name": "version",
          "type": "string"
        },
        {
          "internalType": "uint256",
          "name": "chainId",
          "type": "uint256"
        },
        {
          "internalType": "address",
          "name": "verifyingContract",
          "type": "address"
        },
        {
          "internalType": "bytes32",
          "name": "salt",
          "type": "bytes32"
        },
        {
          "internalType": "uint256[]",
          "name": "extensions",
          "type": "uint256[]"
        }
      ],
      "stateMutability": "view",
      "type": "function"
    },
    {
      "inputs": [
        {
          "internalType": "bytes32",
          "name": "role",
          "type": "bytes32"
        }
      ],
      "name": "getRoleAdmin",
      "outputs": [
        {
          "internalType": "bytes32",
          "name": "",
          "type": "bytes32"
        }
      ],
      "stateMutability": "view",
      "type": "function"
    },
    {
      "inputs": [
        {
          "internalType": "bytes32",
          "name": "role",
          "type": "bytes32"
        },
        {
          "internalType": "address",
          "name": "account",
          "type": "address"
        }
      ],
      "name": "grantRole",
      "outputs": [],
      "stateMutability": "nonpayable",
      "type": "function"
    },
    {
      "inputs": [
        {
          "internalType": "bytes32",
          "name": "role",
          "type": "bytes32"
        },
        {
          "internalType": "address",
          "name": "account",
          "type": "address"
        }
      ],
      "name": "hasRole",
      "outputs": [
        {
          "internalType": "bool",
          "name": "",
          "type": "bool"
        }
      ],
      "stateMutability": "view",
      "type": "function"
    },
    {
      "inputs": [
        {
          "internalType": "address",
          "name": "spender",
          "type": "address"
        },
        {
          "internalType": "uint256",
          "name": "addedValue",
          "type": "uint256"
        }
      ],
      "name": "increaseAllowance",
      "outputs": [
        {
          "internalType": "bool",
          "name": "",
          "type": "bool"
        }
      ],
      "stateMutability": "nonpayable",
      "type": "function"
    },
    {
      "inputs": [
        {
          "internalType": "uint256",
          "name": "_mintCap",
          "type": "uint256"
        }
      ],
      "name": "initialize",
      "outputs": [],
      "stateMutability": "nonpayable",
      "type": "function"
    },
    {
      "inputs": [
        {
          "internalType": "address",
          "name": "to",
          "type": "address"
        },
        {
          "internalType": "uint256",
          "name": "amount",
          "type": "uint256"
        }
      ],
      "name": "mint",
      "outputs": [],
      "stateMutability": "nonpayable",
      "type": "function"
    },
    {
      "inputs": [],
      "name": "mintCap",
      "outputs": [
        {
          "internalType": "uint256",
          "name": "",
          "type": "uint256"
        }
      ],
      "stateMutability": "view",
      "type": "function"
    },
    {
      "inputs": [],
      "name": "name",
      "outputs": [
        {
          "internalType": "string",
          "name": "",
          "type": "string"
        }
      ],
      "stateMutability": "view",
      "type": "function"
    },
    {
      "inputs": [
        {
          "internalType": "address",
          "name": "owner",
          "type": "address"
        }
      ],
      "name": "nonces",
      "outputs": [
        {
          "internalType": "uint256",
          "name": "",
          "type": "uint256"
        }
      ],
      "stateMutability": "view",
      "type": "function"
    },
    {
      "inputs": [],
      "name": "owner",
      "outputs": [
        {
          "internalType": "address",
          "name": "",
          "type": "address"
        }
      ],
      "stateMutability": "view",
      "type": "function"
    },
    {
      "inputs": [],
      "name": "pendingOwner",
      "outputs": [
        {
          "internalType": "address",
          "name": "",
          "type": "address"
        }
      ],
      "stateMutability": "view",
      "type": "function"
    },
    {
      "inputs": [
        {
          "internalType": "address",
          "name": "owner",
          "type": "address"
        },
        {
          "internalType": "address",
          "name": "spender",
          "type": "address"
        },
        {
          "internalType": "uint256",
          "name": "value",
          "type": "uint256"
        },
        {
          "internalType": "uint256",
          "name": "deadline",
          "type": "uint256"
        },
        {
          "internalType": "uint8",
          "name": "v",
          "type": "uint8"
        },
        {
          "internalType": "bytes32",
          "name": "r",
          "type": "bytes32"
        },
        {
          "internalType": "bytes32",
          "name": "s",
          "type": "bytes32"
        }
      ],
      "name": "permit",
      "outputs": [],
      "stateMutability": "nonpayable",
      "type": "function"
    },
    {
      "inputs": [],
      "name": "renounceOwnership",
      "outputs": [],
      "stateMutability": "nonpayable",
      "type": "function"
    },
    {
      "inputs": [
        {
          "internalType": "bytes32",
          "name": "role",
          "type": "bytes32"
        },
        {
          "internalType": "address",
          "name": "account",
          "type": "address"
        }
      ],
      "name": "renounceRole",
      "outputs": [],
      "stateMutability": "nonpayable",
      "type": "function"
    },
    {
      "inputs": [
        {
          "internalType": "bytes32",
          "name": "role",
          "type": "bytes32"
        },
        {
          "internalType": "address",
          "name": "account",
          "type": "address"
        }
      ],
      "name": "revokeRole",
      "outputs": [],
      "stateMutability": "nonpayable",
      "type": "function"
    },
    {
      "inputs": [
        {
          "internalType": "bytes4",
          "name": "interfaceId",
          "type": "bytes4"
        }
      ],
      "name": "supportsInterface",
      "outputs": [
        {
          "internalType": "bool",
          "name": "",
          "type": "bool"
        }
      ],
      "stateMutability": "view",
      "type": "function"
    },
    {
      "inputs": [],
      "name": "symbol",
      "outputs": [
        {
          "internalType": "string",
          "name": "",
          "type": "string"
        }
      ],
      "stateMutability": "view",
      "type": "function"
    },
    {
      "inputs": [],
      "name": "totalSupply",
      "outputs": [
        {
          "internalType": "uint256",
          "name": "",
          "type": "uint256"
        }
      ],
      "stateMutability": "view",
      "type": "function"
    },
    {
      "inputs": [
        {
          "internalType": "address",
          "name": "to",
          "type": "address"
        },
        {
          "internalType": "uint256",
          "name": "amount",
          "type": "uint256"
        }
      ],
      "name": "transfer",
      "outputs": [
        {
          "internalType": "bool",
          "name": "",
          "type": "bool"
        }
      ],
      "stateMutability": "nonpayable",
      "type": "function"
    },
    {
      "inputs": [
        {
          "internalType": "address",
          "name": "from",
          "type": "address"
        },
        {
          "internalType": "address",
          "name": "to",
          "type": "address"
        },
        {
          "internalType": "uint256",
          "name": "amount",
          "type": "uint256"
        }
      ],
      "name": "transferFrom",
      "outputs": [
        {
          "internalType": "bool",
          "name": "",
          "type": "bool"
        }
      ],
      "stateMutability": "nonpayable",
      "type": "function"
    },
    {
      "inputs": [
        {
          "internalType": "address",
          "name": "newOwner",
          "type": "address"
        }
      ],
      "name": "transferOwnership",
      "outputs": [],
      "stateMutability": "nonpayable",
      "type": "function"
    },
    {
      "inputs": [],
      "name": "upgrade",
      "outputs": [],
      "stateMutability": "nonpayable",
      "type": "function"
    }
  ],
  "transactionHash": "0x548fd4ccb202c1a7a5cead043ff2c86fa5fcde6a62a9de6b2ad531557fe5ed19",
  "args": [],
  "numDeployments": 1,
  "solcInputHash": "a2c808855066638bf6d87f79fbe97e91",
  "bytecode": "0x608080604052346100c0575f549060ff8260081c1661006e575060ff80821603610034575b604051612c5f9081620000c58239f35b60ff90811916175f557f7f26b83ff96e1f2b6a682f133852f6798a09c465da95921460cefb3847402498602060405160ff8152a15f610024565b62461bcd60e51b815260206004820152602760248201527f496e697469616c697a61626c653a20636f6e747261637420697320696e697469604482015266616c697a696e6760c81b6064820152608490fd5b5f80fdfe60806040818152600480361015610014575f80fd5b5f92833560e01c90816301ffc9a714611c405750806306fdde0314611ba9578063095ea7b314611b7f57806318160ddd14611b6057806323b872dd14611a94578063248a9ca314611a6a5780632f2ff15d146119be578063313ce567146119a25780633644e5151461197e57806336568abe146118ec578063395093511461189c57806340c10f19146117af57806370a0823114611777578063715018a61461169e57806376c71ca11461167e57806379ba5097146115f95780637ecebe00146115c057806384b0196e1461148f5780638da5cb5b1461146657806391d148541461142057806395d89b411461134a5780639dc29fac1461121f578063a217fddf14611204578063a457c2d714611160578063a9059cbb1461112f578063b5bfddea146110f4578063d291c52014611085578063d505accf14610ece578063d547741f14610e90578063d55ec69714610906578063dd62ed3e146108bd578063e30c397814610890578063f2fde38b1461081f5763fe4b84df14610196575f80fd5b3461081b57602090816003193601126108175783549060ff8260081c16159081809261080a575b80156107f3575b6101cd90612a7b565b6001809360ff19908483838316178a556107e2575b5087549060ff8260081c1615928391829485936107d6575b80156107c0575b61020a90612a7b565b83161789556107af575b5060ff875460081c169061022782612b0a565b61022f612ade565b9061024a61023b612b6a565b9361024581612b0a565b612b0a565b81519267ffffffffffffffff938481116106c7578061026a60fe546121f1565b94601f95868111610752575b508a908d8784116001146106e557926106da575b50505f19600383901b1c191690881b1760fe555b8051908482116106c75781906102b560ff546121f1565b85811161066d575b508990858311600114610602578c926105f7575b50505f19600383901b1c191690871b1760ff555b6102f960ff8a5460081c1661024581612b0a565b610302336129a9565b833561012d556105d4575b610315612ade565b9260ff895460081c169361032885612b0a565b6103488951956103378761202c565b888752603160f81b8a880152612b0a565b80518481116105c157806101309261036084546121f1565b868111610565575b508a908d8784116001146104fa57926104ef575b50505f19600383901b1c191690881b1790555b83519283116104dc57508190610131936103a985546121f1565b828111610481575b508791831160011461041857899261040d575b50505f19600383901b1c191690841b1790555b8461012e558461012f556103e9578380f35b5f80516020612bea8339815191529261ff0019855416855551908152a15f80808380f35b015190505f806103c4565b848a528693505f80516020612baa8339815191529190601f1984168b5b8a82821061046b5750508411610453575b505050811b0190556103d7565b01515f1960f88460031b161c191690555f8080610446565b8385015186558a97909501949384019301610435565b90919250848a525f80516020612baa8339815191528380860160051c8201928a87106104d3575b9186958a929594930160051c01915b8281106104c55750506103b1565b8c81558695508991016104b7565b925081926104a8565b634e487b7160e01b895260419052602488fd5b015190505f8061037c565b8581528b94505f80516020612b8a833981519152929190601f198516908e5b82821061054e5750508411610536575b505050811b01905561038f565b01515f1960f88460031b161c191690555f8080610529565b8385015186558e979095019493840193018e610519565b909150838d525f80516020612b8a8339815191528680850160051c8201928d86106105b8575b859493910160051c909101908b908f5b8382106105aa57505050610368565b81558594508c91018f61059b565b9250819261058b565b634e487b7160e01b8b526041835260248bfd5b61ff001988541688555f80516020612bea833981519152868851878152a161030d565b015190505f806102d1565b60ff8d528993505f80516020612c0a8339815191529190601f1984168e5b8d828210610657575050841161063f575b505050811b0160ff556102e5565b01515f1960f88460031b161c191690555f8080610631565b8385015186558d97909501949384019301610620565b90915060ff8c525f80516020612c0a8339815191528580850160051c8201928c86106106be575b918b91869594930160051c01915b8281106106b05750506102bd565b8e81558594508b91016106a2565b92508192610694565b634e487b7160e01b8b526041865260248bfd5b015190505f8061028a565b60fe81528b94505f80516020612bca833981519152929190601f198516908e5b82821061073b5750508411610723575b505050811b0160fe5561029e565b01515f1960f88460031b161c191690555f8080610715565b8385015186558e979095019493840193018e610705565b90915060fe8d525f80516020612bca8339815191528680850160051c8201928d86106107a6575b859493910160051c909101908b908f5b83821061079857505050610276565b81558594508c91018f610789565b92508192610779565b61ffff19166101011787555f610214565b50303b158015610201575060ff84168214610201565b508160ff8516106101fa565b61ffff19166101011788555f6101e2565b50303b1580156101c4575060ff83166001146101c4565b50600160ff8416106101bd565b8380fd5b8280fd5b833461088d57602036600319011261088d57610839611cda565b610841612199565b60c980546001600160a01b0319166001600160a01b039283169081179091556097549091167f38d16b8cac22d99fc7c124b9cd0de2d3fa1faef420bfe791d8c362d765e227008380a380f35b80fd5b5050346108b957816003193601126108b95760c95490516001600160a01b039091168152602090f35b5080fd5b5050346108b957806003193601126108b957806020926108db611cda565b6108e3611cf4565b6001600160a01b03918216835260fc865283832091168252845220549051908152f35b503461081b578260031936011261081b5782549061010260ff92838160081c161580610e84575b61093690612a7b565b61ffff19161780855590610948612199565b610950612ade565b6109668461095c612b6a565b9460081c16612b0a565b80519267ffffffffffffffff93848111610d9e578061098660fe546121f1565b93601f94858111610e2b575b50602090858311600114610dbc578a92610db1575b50508160011b915f199060031b1c19161760fe555b805190848211610d9e5781906109d287546121f1565b848111610d46575b50602090848311600114610cd9578992610cce575b50508160011b915f199060031b1c19161784555b610a0b612ade565b93865460081c1691610a1c83612b0a565b855194610a288661202c565b610a40600194858852603160f81b6020890152612b0a565b8051858111610cbb578061013092610a5884546121f1565b868111610c61575b50602090868311600114610bf8578b92610bed575b50505f19600383901b1c191690851b1790555b8451938411610bda575061013193610aa085546121f1565b828111610b8b575b506020918411600114610b0c5792806020959381935f80516020612bea83398151915298968a94610b01575b50501b915f199060031b1c19161790555b8361012e558361012f5561ff001984541684555160028152a180f35b015192505f80610ad4565b8487529192915f80516020612baa8339815191529190601f198416885b818110610b755750915f80516020612bea8339815191529795939185602098969410610b5d575b505050811b019055610ae5565b01515f1960f88460031b161c191690555f8080610b50565b8284015185559386019360209384019301610b29565b8588525f80516020612baa8339815191528380870160051c82019260208810610bd1575b0160051c019084905b828110610bc6575050610aa8565b898155018490610bb8565b92508192610baf565b634e487b7160e01b875260419052602486fd5b015190505f80610a75565b848c528793505f80516020612b8a8339815191529190601f1984168d5b818110610c4957508411610c31575b505050811b019055610a88565b01515f1960f88460031b161c191690555f8080610c24565b8284015185558a969094019360209384019301610c15565b909150838b525f80516020612b8a8339815191528680850160051c82019260208610610cb2575b918991869594930160051c01915b828110610ca4575050610a60565b8d8155859450899101610c96565b92508192610c88565b634e487b7160e01b895260418352602489fd5b015190505f806109ef565b878a525f80516020612c0a8339815191529250601f1984168a5b818110610d2e5750908460019594939210610d16575b505050811b018455610a03565b01515f1960f88460031b161c191690555f8080610d09565b92936020600181928786015181550195019301610cf3565b9091508689525f80516020612c0a8339815191528480850160051c82019260208610610d95575b9085949392910160051c01905b818110610d8757506109da565b8a8155849350600101610d7a565b92508192610d6d565b634e487b7160e01b885260418452602488fd5b015190505f806109a7565b60fe8b525f80516020612bca8339815191529250601f1984168b5b818110610e135750908460019594939210610dfb575b505050811b0160fe556109bc565b01515f1960f88460031b161c191690555f8080610ded565b92936020600181928786015181550195019301610dd7565b90915060fe8a525f80516020612bca8339815191528580850160051c82019260208610610e7b575b9085949392910160051c01905b818110610e6d5750610992565b8b8155849350600101610e60565b92508192610e53565b5060028185161061092d565b50903461081b578060031936011261081b57610ecb9135610ec66001610eb4611cf4565b93838752606560205286200154611f23565b612124565b80f35b508290346108b95760e03660031901126108b957610eea611cda565b610ef2611cf4565b906044359260643560843560ff811681036110815781421161103e5760018060a01b039081851692838952610162602052898920908154916001830190558a519060208201927f6e71edae12b1b97f4d1f60370fef10105fa2faae0126114a169c64845d6126c98452868d840152858a1660608401528a608084015260a083015260c082015260c0815260e0810181811067ffffffffffffffff82111761102b578b52519020610fd691610fce91610fa86128c0565b908c519161190160f01b83526002830152602282015260c43591604260a4359220612833565b91909161271b565b1603610fe85750610ecb9394506124ec565b606490602087519162461bcd60e51b8352820152601e60248201527f45524332305065726d69743a20696e76616c6964207369676e617475726500006044820152fd5b634e487b7160e01b8b526041875260248bfd5b875162461bcd60e51b8152602081850152601d60248201527f45524332305065726d69743a206578706972656420646561646c696e650000006044820152606490fd5b8680fd5b509190346108b95760203660031901126108b9578235926110a4612199565b61012d938454918282146110e65750807fd1213bd32c36531d10d742b4e9399fb34761d17ff26a0385a7622764a819415594955582519182526020820152a180f35b835163360aa78560e11b8152fd5b5050346108b957816003193601126108b957602090517f52ba824bfabc2bcfcdf7f0edbb486ebb05e1836c90e78047efeb949990f72e5f8152f35b5050346108b957806003193601126108b95760209061115961114f611cda565b602435903361237d565b5160018152f35b50823461088d578260031936011261088d5761117a611cda565b91836024359233815260fc60205281812060018060a01b03861682526020522054908282106111b35760208561115985850387336124ec565b608490602086519162461bcd60e51b8352820152602560248201527f45524332303a2064656372656173656420616c6c6f77616e63652062656c6f77604482015264207a65726f60d81b6064820152fd5b5050346108b957816003193601126108b95751908152602090f35b508290346108b957826003193601126108b95761123a611cda565b60243590611246611d0a565b6001600160a01b03169182156112fd5782845260fb60205284842054908282106112af57508184957fddf252ad1be2c89b69c2b068fc378daa952ba7f163c4a11628f55a4df523b3ef9360209386885260fb855203818720558160fd540360fd5551908152a380f35b608490602087519162461bcd60e51b8352820152602260248201527f45524332303a206275726e20616d6f756e7420657863656564732062616c616e604482015261636560f01b6064820152fd5b608490602086519162461bcd60e51b8352820152602160248201527f45524332303a206275726e2066726f6d20746865207a65726f206164647265736044820152607360f81b6064820152fd5b5050346108b957816003193601126108b9578051908260ff5461136c816121f1565b808552916001918083169081156113f857506001146113ae575b505050611398826113aa940383612078565b51918291602083526020830190611cb5565b0390f35b945060ff85525f80516020612c0a8339815191525b8286106113e0575050506113988260206113aa9582010194611386565b805460208787018101919091529095019481016113c3565b6113aa97508693506020925061139894915060ff191682840152151560051b82010194611386565b503461081b578160031936011261081b578160209360ff92611440611cf4565b90358252606586528282206001600160a01b039091168252855220549151911615158152f35b5050346108b957816003193601126108b95760975490516001600160a01b039091168152602090f35b50903461081b578260031936011261081b5761012e5415806115b5575b1561157a576114b9612229565b926114c26122d6565b908251926020928385019585871067ffffffffffffffff8811176115675750928061151d838896611510998b9996528686528151998a99600f60f81b8b5260e0868c015260e08b0190611cb5565b91898303908a0152611cb5565b924660608801523060808801528460a088015286840360c088015251928381520193925b82811061155057505050500390f35b835185528695509381019392810192600101611541565b634e487b7160e01b845260419052602483fd5b906020606492519162461bcd60e51b835282015260156024820152741152540dcc4c8e88155b9a5b9a5d1a585b1a5e9959605a1b6044820152fd5b5061012f54156114ac565b5050346108b95760203660031901126108b95760209181906001600160a01b036115e8611cda565b168152610162845220549051908152f35b50903461081b578260031936011261081b5760c954336001600160a01b03909116036116295782610ecb336129a9565b906020608492519162461bcd60e51b8352820152602960248201527f4f776e61626c6532537465703a2063616c6c6572206973206e6f7420746865206044820152683732bb9037bbb732b960b91b6064820152fd5b5050346108b957816003193601126108b95760209061012d549051908152f35b5050346108b957816003193601126108b9576116b8612199565b60975482906001600160a01b03906116d190821661209a565b6bffffffffffffffffffffffff60a01b8060c9541660c955609754908116609755167f8be0079c531659141344cd1fd0a4f28419497f9722a3daafe3b4186f6b6457e08280a3818052606560205280822060205260ff818320541615611735575080f35b60656020528082206020528120600160ff198254161790553381807f2f8788117e7eff1d82e926ec794901d17c78024a50270940304540a733656f0d8180a480f35b5050346108b95760203660031901126108b95760209181906001600160a01b0361179f611cda565b16815260fb845220549051908152f35b50903461081b578060031936011261081b576117c9611cda565b90602435916117d6611d0a565b60fd54906117e4848361235c565b61012d541061188c576001600160a01b03169384156118495750827fddf252ad1be2c89b69c2b068fc378daa952ba7f163c4a11628f55a4df523b3ef9261182e879560209461235c565b60fd5585855260fb835280852082815401905551908152a380f35b606490602084519162461bcd60e51b8352820152601f60248201527f45524332303a206d696e7420746f20746865207a65726f2061646472657373006044820152fd5b8251631211f45960e31b81528590fd5b5050346108b957806003193601126108b9576111596020926118e56118bf611cda565b33835260fc86528483206001600160a01b0382168452865291849020546024359061235c565b90336124ec565b508290346108b957826003193601126108b957611907611cf4565b90336001600160a01b038316036119235790610ecb9135612124565b608490602085519162461bcd60e51b8352820152602f60248201527f416363657373436f6e74726f6c3a2063616e206f6e6c792072656e6f756e636560448201526e103937b632b9903337b91039b2b63360891b6064820152fd5b5050346108b957816003193601126108b95760209061199b6128c0565b9051908152f35b5050346108b957816003193601126108b9576020905160128152f35b503461081b578160031936011261081b5735906119d9611cf4565b9082845260656020526119f160018286200154611f23565b828452606560209081528185206001600160a01b039093168086529290528084205460ff1615611a1f578380f35b82845260656020528084208285526020528320600160ff1982541617905533917f2f8788117e7eff1d82e926ec794901d17c78024a50270940304540a733656f0d8480a45f80808380f35b503461081b57602036600319011261081b5781602093600192358152606585522001549051908152f35b508290346108b95760603660031901126108b957611ab0611cda565b611ab8611cf4565b6001600160a01b038216845260fc602090815285852033865290529284902054604435939260018201611af4575b60208661115987878761237d565b848210611b1d5750918391611b1260209695611159950333836124ec565b919394819350611ae6565b606490602087519162461bcd60e51b8352820152601d60248201527f45524332303a20696e73756666696369656e7420616c6c6f77616e63650000006044820152fd5b5050346108b957816003193601126108b95760209060fd549051908152f35b5050346108b957806003193601126108b957602090611159611b9f611cda565b60243590336124ec565b5050346108b957816003193601126108b9578051908260fe54611bcb816121f1565b808552916001918083169081156113f85750600114611bf657505050611398826113aa940383612078565b945060fe85525f80516020612bca8339815191525b828610611c28575050506113988260206113aa9582010194611386565b80546020878701810191909152909501948101611c0b565b9250503461081b57602036600319011261081b573563ffffffff60e01b811680910361081b5760209250637965db0b60e01b8114908115611c83575b5015158152f35b6301ffc9a760e01b1490505f611c7c565b5f5b838110611ca55750505f910152565b8181015183820152602001611c96565b90602091611cce81518092818552858086019101611c94565b601f01601f1916010190565b600435906001600160a01b0382168203611cf057565b5f80fd5b602435906001600160a01b0382168203611cf057565b335f9081527f97347db157f507b4e5838e2eca5449e8264c30fda7f00f5e7b4dd3caf58927ba602090815260408083205490927f52ba824bfabc2bcfcdf7f0edbb486ebb05e1836c90e78047efeb949990f72e5f9160ff1615611d6d5750505050565b611d763361260f565b91845190611d838261205c565b60428252848201926060368537825115611f0f5760308453825190600191821015611f0f5790607860218501536041915b818311611ea257505050611e60576048611e5c938693611e4093611e31985198899376020b1b1b2b9b9a1b7b73a3937b61d1030b1b1b7bab73a1604d1b8a860152611e08815180928c603789019101611c94565b8401917001034b99036b4b9b9b4b733903937b6329607d1b603784015251809386840190611c94565b01036028810187520185612078565b5192839262461bcd60e51b845260048401526024830190611cb5565b0390fd5b60648486519062461bcd60e51b825280600483015260248201527f537472696e67733a20686578206c656e67746820696e73756666696369656e746044820152fd5b909192600f81166010811015611efb576f181899199a1a9b1b9c1cb0b131b232b360811b901a611ed285876125ea565b5360041c928015611ee7575f19019190611db4565b634e487b7160e01b82526011600452602482fd5b634e487b7160e01b83526032600452602483fd5b634e487b7160e01b81526032600452602490fd5b5f9080825260209060658252604092838120338252835260ff848220541615611f4c5750505050565b611f553361260f565b91845190611f628261205c565b60428252848201926060368537825115611f0f5760308453825190600191821015611f0f5790607860218501536041915b818311611fe757505050611e60576048611e5c938693611e4093611e31985198899376020b1b1b2b9b9a1b7b73a3937b61d1030b1b1b7bab73a1604d1b8a860152611e08815180928c603789019101611c94565b909192600f81166010811015611efb576f181899199a1a9b1b9c1cb0b131b232b360811b901a61201785876125ea565b5360041c928015611ee7575f19019190611f93565b6040810190811067ffffffffffffffff82111761204857604052565b634e487b7160e01b5f52604160045260245ffd5b6080810190811067ffffffffffffffff82111761204857604052565b90601f8019910116810190811067ffffffffffffffff82111761204857604052565b6001600160a01b03165f8181527fffdfc1249c027f9191656349feb0761381bb32c9f557e01f419fd08754bf5a1b602052604081205490919060ff166120de575050565b8180526065602052604082208183526020526040822060ff19815416905533917ff6391f5c32d9c69d2a47ea670b442974b53935d1edc7fd64eb21e047a839171b8180a4565b905f918083526065602052604083209160018060a01b03169182845260205260ff60408420541661215457505050565b8083526065602052604083208284526020526040832060ff1981541690557ff6391f5c32d9c69d2a47ea670b442974b53935d1edc7fd64eb21e047a839171b339380a4565b6097546001600160a01b031633036121ad57565b606460405162461bcd60e51b815260206004820152602060248201527f4f776e61626c653a2063616c6c6572206973206e6f7420746865206f776e65726044820152fd5b90600182811c9216801561221f575b602083101461220b57565b634e487b7160e01b5f52602260045260245ffd5b91607f1691612200565b604051905f8261013091825461223e816121f1565b808452936001918083169081156122b25750600114612268575b505061226692500383612078565b565b5f90815291505f80516020612b8a8339815191525b848310612297575061226693505081016020015f80612258565b81935090816020925483858a0101520191019091859261227d565b9150506020925061226694915060ff191682840152151560051b8201015f80612258565b604051905f826101319182546122eb816121f1565b808452936001918083169081156122b2575060011461231257505061226692500383612078565b5f90815291505f80516020612baa8339815191525b848310612341575061226693505081016020015f80612258565b81935090816020925483858a01015201910190918592612327565b9190820180921161236957565b634e487b7160e01b5f52601160045260245ffd5b6001600160a01b039081169182156124995716918215612448575f82815260fb6020526040812054918083106123f457604082827fddf252ad1be2c89b69c2b068fc378daa952ba7f163c4a11628f55a4df523b3ef95876020965260fb8652038282205586815220818154019055604051908152a3565b60405162461bcd60e51b815260206004820152602660248201527f45524332303a207472616e7366657220616d6f756e7420657863656564732062604482015265616c616e636560d01b6064820152608490fd5b60405162461bcd60e51b815260206004820152602360248201527f45524332303a207472616e7366657220746f20746865207a65726f206164647260448201526265737360e81b6064820152608490fd5b60405162461bcd60e51b815260206004820152602560248201527f45524332303a207472616e736665722066726f6d20746865207a65726f206164604482015264647265737360d81b6064820152608490fd5b6001600160a01b0390811691821561259957169182156125495760207f8c5be1e5ebec7d5bd14f71427d1e84f3dd0314c0f7b2291e5b200ac8c7c3b92591835f5260fc825260405f20855f5282528060405f2055604051908152a3565b60405162461bcd60e51b815260206004820152602260248201527f45524332303a20617070726f766520746f20746865207a65726f206164647265604482015261737360f01b6064820152608490fd5b60405162461bcd60e51b8152602060048201526024808201527f45524332303a20617070726f76652066726f6d20746865207a65726f206164646044820152637265737360e01b6064820152608490fd5b9081518110156125fb570160200190565b634e487b7160e01b5f52603260045260245ffd5b604051906060820182811067ffffffffffffffff82111761204857604052602a82526020820160403682378251156125fb576030905381516001908110156125fb57607860218401536029905b8082116126b057505061266c5790565b606460405162461bcd60e51b815260206004820152602060248201527f537472696e67733a20686578206c656e67746820696e73756666696369656e746044820152fd5b9091600f81166010811015612707576f181899199a1a9b1b9c1cb0b131b232b360811b901a6126df84866125ea565b5360041c9180156126f3575f19019061265c565b60245f634e487b7160e01b81526011600452fd5b60245f634e487b7160e01b81526032600452fd5b600581101561281f578061272c5750565b600181036127795760405162461bcd60e51b815260206004820152601860248201527f45434453413a20696e76616c6964207369676e617475726500000000000000006044820152606490fd5b600281036127c65760405162461bcd60e51b815260206004820152601f60248201527f45434453413a20696e76616c6964207369676e6174757265206c656e677468006044820152606490fd5b6003146127cf57565b60405162461bcd60e51b815260206004820152602260248201527f45434453413a20696e76616c6964207369676e6174757265202773272076616c604482015261756560f01b6064820152608490fd5b634e487b7160e01b5f52602160045260245ffd5b9291907f7fffffffffffffffffffffffffffffff5d576e7357a4501ddfe92f46681b20a083116128b55791608094939160ff6020946040519485521684840152604083015260608201525f93849182805260015afa156128a85781516001600160a01b038116156128a2579190565b50600190565b50604051903d90823e3d90fd5b505050505f90600390565b6128c8612936565b6128d0612982565b6040519060208201927f8b73c3c69bb8fe3d512ecc4cf759cc79239f7b179b0ffacaa9a75d522b39400f8452604083015260608201524660808201523060a082015260a0815260c0810181811067ffffffffffffffff8211176120485760405251902090565b61293e612229565b805190811561294e576020012090565b505061012e54801561295d5790565b507fc5d2460186f7233c927e7db2dcc703c0e500b653ca82273b7bfad8045d85a47090565b61298a6122d6565b805190811561299a576020012090565b505061012f54801561295d5790565b6097546001600160a01b03906129c090821661209a565b6bffffffffffffffffffffffff60a01b8060c9541660c955816097549316918280928516176097555f93167f8be0079c531659141344cd1fd0a4f28419497f9722a3daafe3b4186f6b6457e08480a381805260656020526040822081835260205260ff60408320541615612a32575050565b81805260656020526040822081835260205260408220600160ff1982541617905533917f2f8788117e7eff1d82e926ec794901d17c78024a50270940304540a733656f0d8180a4565b15612a8257565b60405162461bcd60e51b815260206004820152602e60248201527f496e697469616c697a61626c653a20636f6e747261637420697320616c72656160448201526d191e481a5b9a5d1a585b1a5e995960921b6064820152608490fd5b60405190612aeb8261202c565b601082526f125b9d1953995d08141c9bdd1bd8dbdb60821b6020830152565b15612b1157565b60405162461bcd60e51b815260206004820152602b60248201527f496e697469616c697a61626c653a20636f6e7472616374206973206e6f74206960448201526a6e697469616c697a696e6760a81b6064820152608490fd5b60405190612b778261202c565b600382526212539560ea1b602083015256fe2f605e086faac1d93117bbfbc18835d434e9405fadc1ca66faf4b864746daf34bd987ad6ccdb7c7567f7335ea839f95dc944431abcf935b6924f70215963db7354075df80ec1ae6ac9100e1fd0ebf3246c17f5c933137af392011f4c5f61513a7f26b83ff96e1f2b6a682f133852f6798a09c465da95921460cefb3847402498e08ec2af2cfc251225e1968fd6ca21e4044f129bffa95bac3503be8bdb30a367a2646970667358221220f70f24c478f5deb16e15fd2a86a6e4bae2b3f255e7353aff20bcae0ff502ffa864736f6c63430008140033",
  "libraries": {},
  "devdoc": {
    "events": {
      "Approval(address,address,uint256)": {
        "details": "Emitted when the allowance of a `spender` for an `owner` is set by a call to {approve}. `value` is the new allowance."
      },
      "EIP712DomainChanged()": {
        "details": "MAY be emitted to signal that the domain could have changed."
      },
      "Initialized(uint8)": {
        "details": "Triggered when the contract has been initialized or reinitialized."
      },
      "RoleAdminChanged(bytes32,bytes32,bytes32)": {
        "details": "Emitted when `newAdminRole` is set as ``role``'s admin role, replacing `previousAdminRole` `DEFAULT_ADMIN_ROLE` is the starting admin for all roles, despite {RoleAdminChanged} not being emitted signaling this. _Available since v3.1._"
      },
      "RoleGranted(bytes32,address,address)": {
        "details": "Emitted when `account` is granted `role`. `sender` is the account that originated the contract call, an admin role bearer except when using {AccessControl-_setupRole}."
      },
      "RoleRevoked(bytes32,address,address)": {
        "details": "Emitted when `account` is revoked `role`. `sender` is the account that originated the contract call:   - if using `revokeRole`, it is the admin role bearer   - if using `renounceRole`, it is the role bearer (i.e. `account`)"
      },
      "Transfer(address,address,uint256)": {
        "details": "Emitted when `value` tokens are moved from one account (`from`) to another (`to`). Note that `value` may be zero."
      }
    },
    "kind": "dev",
    "methods": {
      "DOMAIN_SEPARATOR()": {
        "details": "See {IERC20Permit-DOMAIN_SEPARATOR}."
      },
      "_setMintCap(uint256)": {
        "details": "Set the mint cap",
        "params": {
          "_newMintCap": "New mint cap value"
        }
      },
      "acceptOwnership()": {
        "details": "The new owner accepts the ownership transfer."
      },
      "allowance(address,address)": {
        "details": "See {IERC20-allowance}."
      },
      "approve(address,uint256)": {
        "details": "See {IERC20-approve}. NOTE: If `amount` is the maximum `uint256`, the allowance is not updated on `transferFrom`. This is semantically equivalent to an infinite approval. Requirements: - `spender` cannot be the zero address."
      },
      "balanceOf(address)": {
        "details": "See {IERC20-balanceOf}."
      },
      "decimals()": {
        "details": "Returns the number of decimals used to get its user representation. For example, if `decimals` equals `2`, a balance of `505` tokens should be displayed to a user as `5.05` (`505 / 10 ** 2`). Tokens usually opt for a value of 18, imitating the relationship between Ether and Wei. This is the default value returned by this function, unless it's overridden. NOTE: This information is only used for _display_ purposes: it in no way affects any of the arithmetic of the contract, including {IERC20-balanceOf} and {IERC20-transfer}."
      },
      "decreaseAllowance(address,uint256)": {
        "details": "Atomically decreases the allowance granted to `spender` by the caller. This is an alternative to {approve} that can be used as a mitigation for problems described in {IERC20-approve}. Emits an {Approval} event indicating the updated allowance. Requirements: - `spender` cannot be the zero address. - `spender` must have allowance for the caller of at least `subtractedValue`."
      },
      "eip712Domain()": {
        "details": "See {EIP-5267}. _Available since v4.9._"
      },
      "getRoleAdmin(bytes32)": {
        "details": "Returns the admin role that controls `role`. See {grantRole} and {revokeRole}. To change a role's admin, use {_setRoleAdmin}."
      },
      "grantRole(bytes32,address)": {
        "details": "Grants `role` to `account`. If `account` had not been already granted `role`, emits a {RoleGranted} event. Requirements: - the caller must have ``role``'s admin role. May emit a {RoleGranted} event."
      },
      "hasRole(bytes32,address)": {
        "details": "Returns `true` if `account` has been granted `role`."
      },
      "increaseAllowance(address,uint256)": {
        "details": "Atomically increases the allowance granted to `spender` by the caller. This is an alternative to {approve} that can be used as a mitigation for problems described in {IERC20-approve}. Emits an {Approval} event indicating the updated allowance. Requirements: - `spender` cannot be the zero address."
      },
      "name()": {
        "details": "Returns the name of the token."
      },
      "nonces(address)": {
        "details": "See {IERC20Permit-nonces}."
      },
      "owner()": {
        "details": "Returns the address of the current owner."
      },
      "pendingOwner()": {
        "details": "Returns the address of the pending owner."
      },
      "permit(address,address,uint256,uint256,uint8,bytes32,bytes32)": {
        "details": "See {IERC20Permit-permit}."
      },
      "renounceOwnership()": {
        "details": "Leaves the contract without owner. It will not be possible to call `onlyOwner` functions. Can only be called by the current owner. NOTE: Renouncing ownership will leave the contract without an owner, thereby disabling any functionality that is only available to the owner."
      },
      "renounceRole(bytes32,address)": {
        "details": "Revokes `role` from the calling account. Roles are often managed via {grantRole} and {revokeRole}: this function's purpose is to provide a mechanism for accounts to lose their privileges if they are compromised (such as when a trusted device is misplaced). If the calling account had been revoked `role`, emits a {RoleRevoked} event. Requirements: - the caller must be `account`. May emit a {RoleRevoked} event."
      },
      "revokeRole(bytes32,address)": {
        "details": "Revokes `role` from `account`. If `account` had been granted `role`, emits a {RoleRevoked} event. Requirements: - the caller must have ``role``'s admin role. May emit a {RoleRevoked} event."
      },
      "supportsInterface(bytes4)": {
        "details": "See {IERC165-supportsInterface}."
      },
      "symbol()": {
        "details": "Returns the symbol of the token, usually a shorter version of the name."
      },
      "totalSupply()": {
        "details": "See {IERC20-totalSupply}."
      },
      "transfer(address,uint256)": {
        "details": "See {IERC20-transfer}. Requirements: - `to` cannot be the zero address. - the caller must have a balance of at least `amount`."
      },
      "transferFrom(address,address,uint256)": {
        "details": "See {IERC20-transferFrom}. Emits an {Approval} event indicating the updated allowance. This is not required by the EIP. See the note at the beginning of {ERC20}. NOTE: Does not update the allowance if the current allowance is the maximum `uint256`. Requirements: - `from` and `to` cannot be the zero address. - `from` must have a balance of at least `amount`. - the caller must have allowance for ``from``'s tokens of at least `amount`."
      },
      "transferOwnership(address)": {
        "details": "Starts the ownership transfer of the contract to a new account. Replaces the pending transfer if there is one. Can only be called by the current owner."
      }
    },
    "version": 1
  },
  "userdoc": {
    "kind": "user",
    "methods": {},
    "version": 1
  },
  "storageLayout": {
    "storage": [
      {
        "astId": 678,
        "contract": "src/L2INTPermit.sol:L2INTPermit",
        "label": "_initialized",
        "offset": 0,
        "slot": "0",
        "type": "t_uint8"
      },
      {
        "astId": 681,
        "contract": "src/L2INTPermit.sol:L2INTPermit",
        "label": "_initializing",
        "offset": 1,
        "slot": "0",
        "type": "t_bool"
      },
      {
        "astId": 2237,
        "contract": "src/L2INTPermit.sol:L2INTPermit",
        "label": "__gap",
        "offset": 0,
        "slot": "1",
        "type": "t_array(t_uint256)50_storage"
      },
      {
        "astId": 3234,
        "contract": "src/L2INTPermit.sol:L2INTPermit",
        "label": "__gap",
        "offset": 0,
        "slot": "51",
        "type": "t_array(t_uint256)50_storage"
      },
      {
        "astId": 39,
        "contract": "src/L2INTPermit.sol:L2INTPermit",
        "label": "_roles",
        "offset": 0,
        "slot": "101",
        "type": "t_mapping(t_bytes32,t_struct(RoleData)34_storage)"
      },
      {
        "astId": 334,
        "contract": "src/L2INTPermit.sol:L2INTPermit",
        "label": "__gap",
        "offset": 0,
        "slot": "102",
        "type": "t_array(t_uint256)49_storage"
      },
      {
        "astId": 525,
        "contract": "src/L2INTPermit.sol:L2INTPermit",
        "label": "_owner",
        "offset": 0,
        "slot": "151",
        "type": "t_address"
      },
      {
        "astId": 645,
        "contract": "src/L2INTPermit.sol:L2INTPermit",
        "label": "__gap",
        "offset": 0,
        "slot": "152",
        "type": "t_array(t_uint256)49_storage"
      },
      {
        "astId": 434,
        "contract": "src/L2INTPermit.sol:L2INTPermit",
        "label": "_pendingOwner",
        "offset": 0,
        "slot": "201",
        "type": "t_address"
      },
      {
        "astId": 513,
        "contract": "src/L2INTPermit.sol:L2INTPermit",
        "label": "__gap",
        "offset": 0,
        "slot": "202",
        "type": "t_array(t_uint256)49_storage"
      },
      {
        "astId": 943,
        "contract": "src/L2INTPermit.sol:L2INTPermit",
        "label": "_balances",
        "offset": 0,
        "slot": "251",
        "type": "t_mapping(t_address,t_uint256)"
      },
      {
        "astId": 949,
        "contract": "src/L2INTPermit.sol:L2INTPermit",
        "label": "_allowances",
        "offset": 0,
        "slot": "252",
        "type": "t_mapping(t_address,t_mapping(t_address,t_uint256))"
      },
      {
        "astId": 951,
        "contract": "src/L2INTPermit.sol:L2INTPermit",
        "label": "_totalSupply",
        "offset": 0,
        "slot": "253",
        "type": "t_uint256"
      },
      {
        "astId": 953,
        "contract": "src/L2INTPermit.sol:L2INTPermit",
        "label": "_name",
        "offset": 0,
        "slot": "254",
        "type": "t_string_storage"
      },
      {
        "astId": 955,
        "contract": "src/L2INTPermit.sol:L2INTPermit",
        "label": "_symbol",
        "offset": 0,
        "slot": "255",
        "type": "t_string_storage"
      },
      {
        "astId": 1535,
        "contract": "src/L2INTPermit.sol:L2INTPermit",
        "label": "__gap",
        "offset": 0,
        "slot": "256",
        "type": "t_array(t_uint256)45_storage"
      },
      {
        "astId": 12099,
        "contract": "src/L2INTPermit.sol:L2INTPermit",
        "label": "mintCap",
        "offset": 0,
        "slot": "301",
        "type": "t_uint256"
      },
      {
        "astId": 2925,
        "contract": "src/L2INTPermit.sol:L2INTPermit",
        "label": "_hashedName",
        "offset": 0,
        "slot": "302",
        "type": "t_bytes32"
      },
      {
        "astId": 2928,
        "contract": "src/L2INTPermit.sol:L2INTPermit",
        "label": "_hashedVersion",
        "offset": 0,
        "slot": "303",
        "type": "t_bytes32"
      },
      {
        "astId": 2930,
        "contract": "src/L2INTPermit.sol:L2INTPermit",
        "label": "_name",
        "offset": 0,
        "slot": "304",
        "type": "t_string_storage"
      },
      {
        "astId": 2932,
        "contract": "src/L2INTPermit.sol:L2INTPermit",
        "label": "_version",
        "offset": 0,
        "slot": "305",
        "type": "t_string_storage"
      },
      {
        "astId": 3190,
        "contract": "src/L2INTPermit.sol:L2INTPermit",
        "label": "__gap",
        "offset": 0,
        "slot": "306",
        "type": "t_array(t_uint256)48_storage"
      },
      {
        "astId": 1640,
        "contract": "src/L2INTPermit.sol:L2INTPermit",
        "label": "_nonces",
        "offset": 0,
        "slot": "354",
        "type": "t_mapping(t_address,t_struct(Counter)2244_storage)"
      },
      {
        "astId": 1648,
        "contract": "src/L2INTPermit.sol:L2INTPermit",
        "label": "_PERMIT_TYPEHASH_DEPRECATED_SLOT",
        "offset": 0,
        "slot": "355",
        "type": "t_bytes32"
      },
      {
        "astId": 1804,
        "contract": "src/L2INTPermit.sol:L2INTPermit",
        "label": "__gap",
        "offset": 0,
        "slot": "356",
        "type": "t_array(t_uint256)49_storage"
      }
    ],
    "types": {
      "t_address": {
        "encoding": "inplace",
        "label": "address",
        "numberOfBytes": "20"
      },
      "t_array(t_uint256)45_storage": {
        "base": "t_uint256",
        "encoding": "inplace",
        "label": "uint256[45]",
        "numberOfBytes": "1440"
      },
      "t_array(t_uint256)48_storage": {
        "base": "t_uint256",
        "encoding": "inplace",
        "label": "uint256[48]",
        "numberOfBytes": "1536"
      },
      "t_array(t_uint256)49_storage": {
        "base": "t_uint256",
        "encoding": "inplace",
        "label": "uint256[49]",
        "numberOfBytes": "1568"
      },
      "t_array(t_uint256)50_storage": {
        "base": "t_uint256",
        "encoding": "inplace",
        "label": "uint256[50]",
        "numberOfBytes": "1600"
      },
      "t_bool": {
        "encoding": "inplace",
        "label": "bool",
        "numberOfBytes": "1"
      },
      "t_bytes32": {
        "encoding": "inplace",
        "label": "bytes32",
        "numberOfBytes": "32"
      },
      "t_mapping(t_address,t_bool)": {
        "encoding": "mapping",
        "key": "t_address",
        "label": "mapping(address => bool)",
        "numberOfBytes": "32",
        "value": "t_bool"
      },
      "t_mapping(t_address,t_mapping(t_address,t_uint256))": {
        "encoding": "mapping",
        "key": "t_address",
        "label": "mapping(address => mapping(address => uint256))",
        "numberOfBytes": "32",
        "value": "t_mapping(t_address,t_uint256)"
      },
      "t_mapping(t_address,t_struct(Counter)2244_storage)": {
        "encoding": "mapping",
        "key": "t_address",
        "label": "mapping(address => struct CountersUpgradeable.Counter)",
        "numberOfBytes": "32",
        "value": "t_struct(Counter)2244_storage"
      },
      "t_mapping(t_address,t_uint256)": {
        "encoding": "mapping",
        "key": "t_address",
        "label": "mapping(address => uint256)",
        "numberOfBytes": "32",
        "value": "t_uint256"
      },
      "t_mapping(t_bytes32,t_struct(RoleData)34_storage)": {
        "encoding": "mapping",
        "key": "t_bytes32",
        "label": "mapping(bytes32 => struct AccessControlUpgradeable.RoleData)",
        "numberOfBytes": "32",
        "value": "t_struct(RoleData)34_storage"
      },
      "t_string_storage": {
        "encoding": "bytes",
        "label": "string",
        "numberOfBytes": "32"
      },
      "t_struct(Counter)2244_storage": {
        "encoding": "inplace",
        "label": "struct CountersUpgradeable.Counter",
        "members": [
          {
            "astId": 2243,
            "contract": "src/L2INTPermit.sol:L2INTPermit",
            "label": "_value",
            "offset": 0,
            "slot": "0",
            "type": "t_uint256"
          }
        ],
        "numberOfBytes": "32"
      },
      "t_struct(RoleData)34_storage": {
        "encoding": "inplace",
        "label": "struct AccessControlUpgradeable.RoleData",
        "members": [
          {
            "astId": 31,
            "contract": "src/L2INTPermit.sol:L2INTPermit",
            "label": "members",
            "offset": 0,
            "slot": "0",
            "type": "t_mapping(t_address,t_bool)"
          },
          {
            "astId": 33,
            "contract": "src/L2INTPermit.sol:L2INTPermit",
            "label": "adminRole",
            "offset": 0,
            "slot": "1",
            "type": "t_bytes32"
          }
        ],
        "numberOfBytes": "64"
      },
      "t_uint256": {
        "encoding": "inplace",
        "label": "uint256",
        "numberOfBytes": "32"
      },
      "t_uint8": {
        "encoding": "inplace",
        "label": "uint8",
        "numberOfBytes": "1"
      }
    }
  }
}