{
  "address": "0x04a1Cd6e86C3FF51424377B878ce1b24cfcB92Ec",
  "abi": [
    {
      "inputs": [
        {
          "internalType": "address",
          "name": "_token",
          "type": "address"
        },
        {
          "internalType": "address",
          "name": "_assetToken",
          "type": "address"
        },
        {
          "internalType": "address",
          "name": "_bonding",
          "type": "address"
        },
        {
          "internalType": "uint256",
          "name": "_lockedTime",
          "type": "uint256"
        }
      ],
      "name": "createLock",
      "outputs": [
        {
          "internalType": "address",
          "name": "lock",
          "type": "address"
        }
      ],
      "stateMutability": "nonpayable",
      "type": "function"
    }
  ],
  "transactionHash": "0x778df890e5717a7903c735ce3602ba3a8ea66227561bdf15fcc389f8305d6958",
  "args": [],
  "numDeployments": 1,
  "solcInputHash": "7bd6f3bf2fb06dddc402a5e51dab3df2",
  "bytecode": "0x6080806040523461001657610df7908161001b8239f35b5f80fdfe6080806040526004361015610012575f80fd5b5f90813560e01c6312729cc214610027575f80fd5b346100ea5760803660031901126100ea576001600160a01b0390600435828116908190036100e6576024358381168091036100e257604435908482168092036100de57610cd3928385019385851067ffffffffffffffff8611176100ca5791859391608095936100ef8639835260208301526040820152606435606082015203019083f09081156100bf576020925060405191168152f35b6040513d84823e3d90fd5b634e487b7160e01b88526041600452602488fd5b8580fd5b8480fd5b8380fd5b5080fdfe610100346100e457601f610cd338819003918201601f19168301916001600160401b038311848410176100e8578084926080946040528339810103126100e457610048816100fc565b90610055602082016100fc565b6060610063604084016100fc565b9201519260a05260c05260e052608052604051610bc2908161011182396080518181816101d20152610374015260a05181818160c40152610570015260c0518181816102a5015281816106660152610750015260e05181818161016d0152818161020a01528181610300015281816103d9015281816104c901526105990152f35b5f80fd5b634e487b7160e01b5f52604160045260245ffd5b51906001600160a01b03821682036100e45756fe6080604081815260049182361015610015575f80fd5b5f92833560e01c9182631083f7611461073c5750816321e84774146105485781632f34d282146104a3578163313c06a01461047a57816337e6122a146103b357816340519a53146102de578163423c485a146102565781636334a0671461023957816398457559146101f5578163a8b38205146101ba578163da3e33971461013857508063e6adb749146100f75763fc0c546a146100b1575f80fd5b346100f357816003193601126100f357517f00000000000000000000000000000000000000000000000000000000000000006001600160a01b03168152602090f35b5080fd5b50346100f35760203660031901126100f3579081906001600160a01b0361011c61077f565b1681526002602052206001815491015482519182526020820152f35b8383346100f35760603660031901126100f35761015361077f565b90602435906001600160a01b039081831683036101b657817f00000000000000000000000000000000000000000000000000000000000000001633036101a757506101a49394506044359216610a6b565b80f35b5163e1b90b8760e01b81528590fd5b8480fd5b5050346100f357816003193601126100f357602090517f00000000000000000000000000000000000000000000000000000000000000008152f35b5050346100f357816003193601126100f357517f00000000000000000000000000000000000000000000000000000000000000006001600160a01b03168152602090f35b5050346100f357816003193601126100f357602091549051908152f35b9050346102da5760203660031901126102da577f12197207b0a54de931fdf21dc8066c293dc29b9dd4875c6b64a36c6a36ff904091602091359061029b828654610799565b85556102d28230337f00000000000000000000000000000000000000000000000000000000000000006001600160a01b03166107f0565b51908152a180f35b8280fd5b919050346102da5760203660031901126102da578135916001600160a01b03907f0000000000000000000000000000000000000000000000000000000000000000821633036103a55750916020916102d2827f2ba3ba3a9d6f7b2fc7c20e57ea65650f43fc6c3c29979a9e4413e80b5061c36795600154168088526002865283882061036b838254610799565b815560016103997f000000000000000000000000000000000000000000000000000000000000000042610799565b910155309033906107f0565b825163e1b90b8760e01b8152fd5b9050346102da5760203660031901126102da576103ce61077f565b6001600160a01b03907f00000000000000000000000000000000000000000000000000000000000000008216330361046a578160015416928386526002602052848620906001820154421061045c575091602091836104507f92b7540d4b36a3c993d2a8d3ec8a1fcb927cd686e85f19db44911e4959d51c1195548388610a6b565b5495519586521693a380f35b85516309316dab60e41b8152fd5b835163e1b90b8760e01b81528390fd5b5050346100f357816003193601126100f35760015490516001600160a01b039091168152602090f35b9050346102da5760203660031901126102da576104be61077f565b6001600160a01b03917f00000000000000000000000000000000000000000000000000000000000000008316330361053a5750916020917f722f2571a13f56fad6fa923289bcb1dd6d7d57c8ccb2bdf278bb565771a2a747931690816bffffffffffffffffffffffff60a01b600154161760015551908152a180f35b835163e1b90b8760e01b8152fd5b9050346102da57826003193601126102da57815163fa1653bd60e01b81526001600160a01b037f000000000000000000000000000000000000000000000000000000000000000081168383018190527f00000000000000000000000000000000000000000000000000000000000000008216936020938481602481895afa908115610732578891610705575b50156106f75790602484928751968793849263c78418b960e01b84528301525afa80156106ed578590610695575b8554868055855163a9059cbb60e01b858201526001600160a01b03831660248201526044808201839052815290957fefb5cc9cd012f169d98024b62e929a9c2e25635b461ac3f684ff6158d2a1788795509061068b906106636064826107ba565b847f000000000000000000000000000000000000000000000000000000000000000016610863565b519485521692a280f35b50918181813d83116106e6575b6106ac81836107ba565b810103126101b657519180831683036101b6577fefb5cc9cd012f169d98024b62e929a9c2e25635b461ac3f684ff6158d2a1788792610602565b503d6106a2565b84513d87823e3d90fd5b85516321554f7360e11b8152fd5b6107259150853d871161072b575b61071d81836107ba565b81019061084b565b5f6105d4565b503d610713565b87513d8a823e3d90fd5b8490346100f357816003193601126100f3577f00000000000000000000000000000000000000000000000000000000000000006001600160a01b03168152602090f35b600435906001600160a01b038216820361079557565b5f80fd5b919082018092116107a657565b634e487b7160e01b5f52601160045260245ffd5b90601f8019910116810190811067ffffffffffffffff8211176107dc57604052565b634e487b7160e01b5f52604160045260245ffd5b6040516323b872dd60e01b60208201526001600160a01b03928316602482015292909116604483015260648083019390935291815260a081019181831067ffffffffffffffff8411176107dc5761084992604052610863565b565b90816020910312610795575180151581036107955790565b60408051908101916001600160a01b031667ffffffffffffffff8311828410176107dc576108d2926040525f806020958685527f5361666545524332303a206c6f772d6c6576656c2063616c6c206661696c656487860152868151910182855af16108cc61095a565b91610999565b805190828215928315610942575b505050156108eb5750565b6084906040519062461bcd60e51b82526004820152602a60248201527f5361666545524332303a204552433230206f7065726174696f6e20646964206e6044820152691bdd081cdd58d8d9595960b21b6064820152fd5b610952935082018101910161084b565b5f82816108e0565b3d15610994573d9067ffffffffffffffff82116107dc5760405191610989601f8201601f1916602001846107ba565b82523d5f602084013e565b606090565b919290156109fb57508151156109ad575090565b3b156109b65790565b60405162461bcd60e51b815260206004820152601d60248201527f416464726573733a2063616c6c20746f206e6f6e2d636f6e74726163740000006044820152606490fd5b825190915015610a0e5750805190602001fd5b6040519062461bcd60e51b82528160208060048301528251908160248401525f935b828510610a52575050604492505f838284010152601f80199101168101030190fd5b8481018201518686016044015293810193859350610a30565b60405163095ea7b360e01b602082018181526001600160a01b038516602484015260448084019690965294825294939092610aa76064856107ba565b83515f926001600160a01b039291858416918591829182855af190610aca61095a565b82610b5a575b5081610b4f575b5015610ae7575b50505050509050565b60405196602088015216602486015280604486015260448552608085019085821067ffffffffffffffff831117610b3b5750610b309394610b2b9160405282610863565b610863565b805f80808080610ade565b634e487b7160e01b81526041600452602490fd5b90503b15155f610ad7565b80519192508115918215610b72575b5050905f610ad0565b610b85925060208091830101910161084b565b5f80610b6956fea2646970667358221220979e47d15fe5eda5d8aad180c3cee3226490ac935ec4c80ccd2b17013223815164736f6c63430008140033a264697066735822122037d0f307e730703fd9e893643f501775a642e721fefca989864fadd1d5902b1464736f6c63430008140033",
  "libraries": {},
  "devdoc": {
    "kind": "dev",
    "methods": {
      "createLock(address,address,address,uint256)": {
        "params": {
          "_assetToken": "Asset token address",
          "_bonding": "Bonding address",
          "_lockedTime": "The time to lock the lp token",
          "_token": "Token address"
        }
      }
    },
    "version": 1
  },
  "userdoc": {
    "kind": "user",
    "methods": {
      "createLock(address,address,address,uint256)": {
        "notice": "Creates a new Lock for token"
      }
    },
    "version": 1
  },
  "storageLayout": {
    "storage": [],
    "types": null
  }
}