{
  "address": "0xeEEdAd0A699f5f565E9a68A5769fF4168aE29936",
  "abi": [
    {
      "inputs": [
        {
          "internalType": "address",
          "name": "weth_",
          "type": "address"
        }
      ],
      "stateMutability": "nonpayable",
      "type": "constructor"
    },
    {
      "inputs": [],
      "name": "AlreadyTrading",
      "type": "error"
    },
    {
      "inputs": [],
      "name": "ETHTransferFailed",
      "type": "error"
    },
    {
      "inputs": [],
      "name": "InputArrayMismatch",
      "type": "error"
    },
    {
      "inputs": [],
      "name": "InsufficientAmount",
      "type": "error"
    },
    {
      "inputs": [],
      "name": "InvalidAssetPrice",
      "type": "error"
    },
    {
      "inputs": [],
      "name": "InvalidDelegatee",
      "type": "error"
    },
    {
      "inputs": [],
      "name": "InvalidLockTime",
      "type": "error"
    },
    {
      "inputs": [],
      "name": "InvalidLocker",
      "type": "error"
    },
    {
      "inputs": [],
      "name": "InvalidMarketCap",
      "type": "error"
    },
    {
      "inputs": [],
      "name": "InvalidOracle",
      "type": "error"
    },
    {
      "inputs": [],
      "name": "InvalidRate",
      "type": "error"
    },
    {
      "inputs": [],
      "name": "InvalidReserves",
      "type": "error"
    },
    {
      "inputs": [],
      "name": "InvalidStage",
      "type": "error"
    },
    {
      "inputs": [],
      "name": "InvalidThreshold",
      "type": "error"
    },
    {
      "inputs": [],
      "name": "InvalidToken",
      "type": "error"
    },
    {
      "inputs": [],
      "name": "LiquidityTooLow",
      "type": "error"
    },
    {
      "inputs": [],
      "name": "MarketCapTooLow",
      "type": "error"
    },
    {
      "inputs": [],
      "name": "NotTrading",
      "type": "error"
    },
    {
      "inputs": [],
      "name": "NotWETHMode",
      "type": "error"
    },
    {
      "inputs": [],
      "name": "ProfileNotExist",
      "type": "error"
    },
    {
      "inputs": [],
      "name": "Unauthorized",
      "type": "error"
    },
    {
      "inputs": [],
      "name": "WrongBoostStage",
      "type": "error"
    },
    {
      "anonymous": false,
      "inputs": [
        {
          "indexed": false,
          "internalType": "address",
          "name": "newAssetToken",
          "type": "address"
        }
      ],
      "name": "AssetTokenSet",
      "type": "event"
    },
    {
      "anonymous": false,
      "inputs": [
        {
          "indexed": false,
          "internalType": "uint8",
          "name": "stage",
          "type": "uint8"
        },
        {
          "indexed": false,
          "internalType": "uint256",
          "name": "threshold",
          "type": "uint256"
        }
      ],
      "name": "BoostStageThresholdUpdated",
      "type": "event"
    },
    {
      "anonymous": false,
      "inputs": [
        {
          "indexed": true,
          "internalType": "address",
          "name": "token",
          "type": "address"
        },
        {
          "indexed": false,
          "internalType": "uint8",
          "name": "stage",
          "type": "uint8"
        },
        {
          "indexed": false,
          "internalType": "uint256",
          "name": "amount",
          "type": "uint256"
        },
        {
          "indexed": false,
          "internalType": "uint256",
          "name": "assetAmount",
          "type": "uint256"
        }
      ],
      "name": "Boosted",
      "type": "event"
    },
    {
      "anonymous": false,
      "inputs": [
        {
          "indexed": true,
          "internalType": "address",
          "name": "token",
          "type": "address"
        },
        {
          "indexed": true,
          "internalType": "address",
          "name": "delegatee",
          "type": "address"
        }
      ],
      "name": "DelegateLPTo",
      "type": "event"
    },
    {
      "anonymous": false,
      "inputs": [
        {
          "indexed": false,
          "internalType": "address",
          "name": "newExtRouter",
          "type": "address"
        }
      ],
      "name": "ExtRouterSet",
      "type": "event"
    },
    {
      "anonymous": false,
      "inputs": [
        {
          "indexed": false,
          "internalType": "address",
          "name": "newFactory",
          "type": "address"
        }
      ],
      "name": "FactorySet",
      "type": "event"
    },
    {
      "anonymous": false,
      "inputs": [
        {
          "indexed": false,
          "internalType": "uint256",
          "name": "newFee",
          "type": "uint256"
        },
        {
          "indexed": false,
          "internalType": "address",
          "name": "newFeeTo",
          "type": "address"
        }
      ],
      "name": "FeeSet",
      "type": "event"
    },
    {
      "anonymous": false,
      "inputs": [
        {
          "indexed": false,
          "internalType": "uint256",
          "name": "newMarketCap",
          "type": "uint256"
        }
      ],
      "name": "GradMarketCapSet",
      "type": "event"
    },
    {
      "anonymous": false,
      "inputs": [
        {
          "indexed": true,
          "internalType": "address",
          "name": "token",
          "type": "address"
        },
        {
          "indexed": true,
          "internalType": "address",
          "name": "lp",
          "type": "address"
        }
      ],
      "name": "Graduated",
      "type": "event"
    },
    {
      "anonymous": false,
      "inputs": [
        {
          "indexed": false,
          "internalType": "uint256",
          "name": "newMarketCap",
          "type": "uint256"
        }
      ],
      "name": "InitialMarketCapSet",
      "type": "event"
    },
    {
      "anonymous": false,
      "inputs": [
        {
          "indexed": false,
          "internalType": "uint256",
          "name": "newSupply",
          "type": "uint256"
        }
      ],
      "name": "InitializeSupplySet",
      "type": "event"
    },
    {
      "anonymous": false,
      "inputs": [
        {
          "indexed": false,
          "internalType": "uint8",
          "name": "version",
          "type": "uint8"
        }
      ],
      "name": "Initialized",
      "type": "event"
    },
    {
      "anonymous": false,
      "inputs": [
        {
          "indexed": true,
          "internalType": "address",
          "name": "token",
          "type": "address"
        },
        {
          "indexed": true,
          "internalType": "address",
          "name": "pair",
          "type": "address"
        },
        {
          "indexed": false,
          "internalType": "uint256",
          "name": "totalTokens",
          "type": "uint256"
        },
        {
          "indexed": false,
          "internalType": "uint8",
          "name": "tokenType",
          "type": "uint8"
        },
        {
          "indexed": false,
          "internalType": "uint256",
          "name": "timestamp",
          "type": "uint256"
        }
      ],
      "name": "Launched",
      "type": "event"
    },
    {
      "anonymous": false,
      "inputs": [
        {
          "indexed": false,
          "internalType": "address",
          "name": "newLockFactory",
          "type": "address"
        }
      ],
      "name": "LockFactorySet",
      "type": "event"
    },
    {
      "anonymous": false,
      "inputs": [
        {
          "indexed": false,
          "internalType": "uint256",
          "name": "newLockedTime",
          "type": "uint256"
        }
      ],
      "name": "LockedTimeSet",
      "type": "event"
    },
    {
      "anonymous": false,
      "inputs": [
        {
          "indexed": false,
          "internalType": "address",
          "name": "newOracle",
          "type": "address"
        }
      ],
      "name": "OracleSet",
      "type": "event"
    },
    {
      "anonymous": false,
      "inputs": [
        {
          "indexed": true,
          "internalType": "address",
          "name": "previousOwner",
          "type": "address"
        },
        {
          "indexed": true,
          "internalType": "address",
          "name": "newOwner",
          "type": "address"
        }
      ],
      "name": "OwnershipTransferStarted",
      "type": "event"
    },
    {
      "anonymous": false,
      "inputs": [
        {
          "indexed": true,
          "internalType": "address",
          "name": "previousOwner",
          "type": "address"
        },
        {
          "indexed": true,
          "internalType": "address",
          "name": "newOwner",
          "type": "address"
        }
      ],
      "name": "OwnershipTransferred",
      "type": "event"
    },
    {
      "anonymous": false,
      "inputs": [
        {
          "indexed": true,
          "internalType": "bytes32",
          "name": "role",
          "type": "bytes32"
        },
        {
          "indexed": true,
          "internalType": "bytes32",
          "name": "previousAdminRole",
          "type": "bytes32"
        },
        {
          "indexed": true,
          "internalType": "bytes32",
          "name": "newAdminRole",
          "type": "bytes32"
        }
      ],
      "name": "RoleAdminChanged",
      "type": "event"
    },
    {
      "anonymous": false,
      "inputs": [
        {
          "indexed": true,
          "internalType": "bytes32",
          "name": "role",
          "type": "bytes32"
        },
        {
          "indexed": true,
          "internalType": "address",
          "name": "account",
          "type": "address"
        },
        {
          "indexed": true,
          "internalType": "address",
          "name": "sender",
          "type": "address"
        }
      ],
      "name": "RoleGranted",
      "type": "event"
    },
    {
      "anonymous": false,
      "inputs": [
        {
          "indexed": true,
          "internalType": "bytes32",
          "name": "role",
          "type": "bytes32"
        },
        {
          "indexed": true,
          "internalType": "address",
          "name": "account",
          "type": "address"
        },
        {
          "indexed": true,
          "internalType": "address",
          "name": "sender",
          "type": "address"
        }
      ],
      "name": "RoleRevoked",
      "type": "event"
    },
    {
      "anonymous": false,
      "inputs": [
        {
          "indexed": false,
          "internalType": "address",
          "name": "newRouter",
          "type": "address"
        }
      ],
      "name": "RouterSet",
      "type": "event"
    },
    {
      "anonymous": false,
      "inputs": [
        {
          "indexed": false,
          "internalType": "address",
          "name": "newTokenFactory",
          "type": "address"
        }
      ],
      "name": "TokenFactorySet",
      "type": "event"
    },
    {
      "stateMutability": "payable",
      "type": "fallback"
    },
    {
      "inputs": [],
      "name": "BOOSTER_ROLE",
      "outputs": [
        {
          "internalType": "bytes32",
          "name": "",
          "type": "bytes32"
        }
      ],
      "stateMutability": "view",
      "type": "function"
    },
    {
      "inputs": [],
      "name": "DEFAULT_ADMIN_ROLE",
      "outputs": [
        {
          "internalType": "bytes32",
          "name": "",
          "type": "bytes32"
        }
      ],
      "stateMutability": "view",
      "type": "function"
    },
    {
      "inputs": [],
      "name": "acceptOwnership",
      "outputs": [],
      "stateMutability": "nonpayable",
      "type": "function"
    },
    {
      "inputs": [],
      "name": "assetToken",
      "outputs": [
        {
          "internalType": "address",
          "name": "",
          "type": "address"
        }
      ],
      "stateMutability": "view",
      "type": "function"
    },
    {
      "inputs": [
        {
          "internalType": "string",
          "name": "name",
          "type": "string"
        },
        {
          "internalType": "string",
          "name": "ticker",
          "type": "string"
        },
        {
          "internalType": "uint8[]",
          "name": "cores",
          "type": "uint8[]"
        },
        {
          "internalType": "string",
          "name": "desc",
          "type": "string"
        },
        {
          "internalType": "string",
          "name": "img",
          "type": "string"
        },
        {
          "internalType": "string[4]",
          "name": "urls",
          "type": "string[4]"
        },
        {
          "internalType": "uint256",
          "name": "tokenAmount",
          "type": "uint256"
        },
        {
          "internalType": "uint256",
          "name": "assetAmount",
          "type": "uint256"
        },
        {
          "internalType": "uint256",
          "name": "tokenAmountMin",
          "type": "uint256"
        },
        {
          "internalType": "uint256",
          "name": "assetAmountMin",
          "type": "uint256"
        },
        {
          "internalType": "uint256",
          "name": "minLiquidity",
          "type": "uint256"
        },
        {
          "internalType": "uint256",
          "name": "deadline",
          "type": "uint256"
        }
      ],
      "name": "boost1",
      "outputs": [],
      "stateMutability": "nonpayable",
      "type": "function"
    },
    {
      "inputs": [
        {
          "internalType": "address",
          "name": "creator",
          "type": "address"
        },
        {
          "internalType": "string",
          "name": "name",
          "type": "string"
        },
        {
          "internalType": "string",
          "name": "ticker",
          "type": "string"
        },
        {
          "internalType": "uint8[]",
          "name": "cores",
          "type": "uint8[]"
        },
        {
          "internalType": "string",
          "name": "desc",
          "type": "string"
        },
        {
          "internalType": "string",
          "name": "img",
          "type": "string"
        },
        {
          "internalType": "string[4]",
          "name": "urls",
          "type": "string[4]"
        },
        {
          "internalType": "uint256",
          "name": "tokenAmount",
          "type": "uint256"
        },
        {
          "internalType": "uint256",
          "name": "assetAmount",
          "type": "uint256"
        },
        {
          "internalType": "uint256",
          "name": "tokenAmountMin",
          "type": "uint256"
        },
        {
          "internalType": "uint256",
          "name": "assetAmountMin",
          "type": "uint256"
        },
        {
          "internalType": "uint256",
          "name": "minLiquidity",
          "type": "uint256"
        },
        {
          "internalType": "uint256",
          "name": "deadline",
          "type": "uint256"
        }
      ],
      "name": "boost1For",
      "outputs": [],
      "stateMutability": "nonpayable",
      "type": "function"
    },
    {
      "inputs": [
        {
          "internalType": "address",
          "name": "token",
          "type": "address"
        },
        {
          "internalType": "uint256",
          "name": "tokenAmount",
          "type": "uint256"
        },
        {
          "internalType": "uint256",
          "name": "assetAmount",
          "type": "uint256"
        },
        {
          "internalType": "uint256",
          "name": "tokenAmountMin",
          "type": "uint256"
        },
        {
          "internalType": "uint256",
          "name": "assetAmountMin",
          "type": "uint256"
        },
        {
          "internalType": "uint256",
          "name": "minLiquidity",
          "type": "uint256"
        },
        {
          "internalType": "uint256",
          "name": "deadline",
          "type": "uint256"
        }
      ],
      "name": "boost2",
      "outputs": [],
      "stateMutability": "nonpayable",
      "type": "function"
    },
    {
      "inputs": [
        {
          "internalType": "address",
          "name": "token",
          "type": "address"
        },
        {
          "internalType": "uint256",
          "name": "tokenAmount",
          "type": "uint256"
        },
        {
          "internalType": "uint256",
          "name": "assetAmount",
          "type": "uint256"
        },
        {
          "internalType": "uint256",
          "name": "tokenAmountMin",
          "type": "uint256"
        },
        {
          "internalType": "uint256",
          "name": "assetAmountMin",
          "type": "uint256"
        },
        {
          "internalType": "uint256",
          "name": "minLiquidity",
          "type": "uint256"
        },
        {
          "internalType": "uint256",
          "name": "deadline",
          "type": "uint256"
        }
      ],
      "name": "boost3",
      "outputs": [],
      "stateMutability": "nonpayable",
      "type": "function"
    },
    {
      "inputs": [
        {
          "internalType": "address",
          "name": "",
          "type": "address"
        }
      ],
      "name": "boostInfo",
      "outputs": [
        {
          "internalType": "uint8",
          "name": "stage",
          "type": "uint8"
        }
      ],
      "stateMutability": "view",
      "type": "function"
    },
    {
      "inputs": [
        {
          "internalType": "uint256",
          "name": "",
          "type": "uint256"
        }
      ],
      "name": "boostInfos",
      "outputs": [
        {
          "internalType": "address",
          "name": "",
          "type": "address"
        }
      ],
      "stateMutability": "view",
      "type": "function"
    },
    {
      "inputs": [
        {
          "internalType": "uint8",
          "name": "",
          "type": "uint8"
        }
      ],
      "name": "boostStageThresholds",
      "outputs": [
        {
          "internalType": "uint256",
          "name": "",
          "type": "uint256"
        }
      ],
      "stateMutability": "view",
      "type": "function"
    },
    {
      "inputs": [
        {
          "internalType": "uint256",
          "name": "amountIn",
          "type": "uint256"
        },
        {
          "internalType": "address",
          "name": "tokenAddress",
          "type": "address"
        }
      ],
      "name": "buy",
      "outputs": [
        {
          "internalType": "bool",
          "name": "",
          "type": "bool"
        }
      ],
      "stateMutability": "nonpayable",
      "type": "function"
    },
    {
      "inputs": [
        {
          "internalType": "address",
          "name": "tokenAddress",
          "type": "address"
        }
      ],
      "name": "buyWithETH",
      "outputs": [
        {
          "internalType": "bool",
          "name": "",
          "type": "bool"
        }
      ],
      "stateMutability": "payable",
      "type": "function"
    },
    {
      "inputs": [
        {
          "internalType": "address",
          "name": "token",
          "type": "address"
        }
      ],
      "name": "calculateMarketCap",
      "outputs": [
        {
          "internalType": "uint256",
          "name": "",
          "type": "uint256"
        }
      ],
      "stateMutability": "nonpayable",
      "type": "function"
    },
    {
      "inputs": [
        {
          "internalType": "address",
          "name": "tokenAddr",
          "type": "address"
        },
        {
          "internalType": "address",
          "name": "delegatee",
          "type": "address"
        }
      ],
      "name": "delegateLPTo",
      "outputs": [],
      "stateMutability": "nonpayable",
      "type": "function"
    },
    {
      "inputs": [
        {
          "internalType": "address[]",
          "name": "tokens",
          "type": "address[]"
        },
        {
          "internalType": "address[]",
          "name": "delegatees",
          "type": "address[]"
        }
      ],
      "name": "delegateLPToBatch",
      "outputs": [],
      "stateMutability": "nonpayable",
      "type": "function"
    },
    {
      "inputs": [],
      "name": "extRouter",
      "outputs": [
        {
          "internalType": "contract IExtRouter",
          "name": "",
          "type": "address"
        }
      ],
      "stateMutability": "view",
      "type": "function"
    },
    {
      "inputs": [],
      "name": "factory",
      "outputs": [
        {
          "internalType": "contract INTFactory",
          "name": "",
          "type": "address"
        }
      ],
      "stateMutability": "view",
      "type": "function"
    },
    {
      "inputs": [],
      "name": "fee",
      "outputs": [
        {
          "internalType": "uint256",
          "name": "",
          "type": "uint256"
        }
      ],
      "stateMutability": "view",
      "type": "function"
    },
    {
      "inputs": [],
      "name": "feeTo",
      "outputs": [
        {
          "internalType": "address",
          "name": "",
          "type": "address"
        }
      ],
      "stateMutability": "view",
      "type": "function"
    },
    {
      "inputs": [],
      "name": "getBoostCount",
      "outputs": [
        {
          "internalType": "uint256",
          "name": "",
          "type": "uint256"
        }
      ],
      "stateMutability": "view",
      "type": "function"
    },
    {
      "inputs": [
        {
          "internalType": "address",
          "name": "token",
          "type": "address"
        }
      ],
      "name": "getBoostInfo",
      "outputs": [
        {
          "components": [
            {
              "internalType": "uint8",
              "name": "stage",
              "type": "uint8"
            }
          ],
          "internalType": "struct Bonding.BoostInfo",
          "name": "",
          "type": "tuple"
        }
      ],
      "stateMutability": "view",
      "type": "function"
    },
    {
      "inputs": [
        {
          "internalType": "bytes32",
          "name": "role",
          "type": "bytes32"
        }
      ],
      "name": "getRoleAdmin",
      "outputs": [
        {
          "internalType": "bytes32",
          "name": "",
          "type": "bytes32"
        }
      ],
      "stateMutability": "view",
      "type": "function"
    },
    {
      "inputs": [],
      "name": "getTokenCount",
      "outputs": [
        {
          "internalType": "uint256",
          "name": "",
          "type": "uint256"
        }
      ],
      "stateMutability": "view",
      "type": "function"
    },
    {
      "inputs": [
        {
          "internalType": "address",
          "name": "tokenAddress",
          "type": "address"
        }
      ],
      "name": "getTokenCreator",
      "outputs": [
        {
          "internalType": "address",
          "name": "",
          "type": "address"
        }
      ],
      "stateMutability": "view",
      "type": "function"
    },
    {
      "inputs": [
        {
          "internalType": "address",
          "name": "tokenAddress",
          "type": "address"
        }
      ],
      "name": "getTokenLocker",
      "outputs": [
        {
          "internalType": "address",
          "name": "",
          "type": "address"
        }
      ],
      "stateMutability": "view",
      "type": "function"
    },
    {
      "inputs": [],
      "name": "gradMarketCap",
      "outputs": [
        {
          "internalType": "uint256",
          "name": "",
          "type": "uint256"
        }
      ],
      "stateMutability": "view",
      "type": "function"
    },
    {
      "inputs": [
        {
          "internalType": "bytes32",
          "name": "role",
          "type": "bytes32"
        },
        {
          "internalType": "address",
          "name": "account",
          "type": "address"
        }
      ],
      "name": "grantRole",
      "outputs": [],
      "stateMutability": "nonpayable",
      "type": "function"
    },
    {
      "inputs": [
        {
          "internalType": "address",
          "name": "tokenAddress",
          "type": "address"
        }
      ],
      "name": "hasGraduated",
      "outputs": [
        {
          "internalType": "bool",
          "name": "",
          "type": "bool"
        }
      ],
      "stateMutability": "view",
      "type": "function"
    },
    {
      "inputs": [
        {
          "internalType": "bytes32",
          "name": "role",
          "type": "bytes32"
        },
        {
          "internalType": "address",
          "name": "account",
          "type": "address"
        }
      ],
      "name": "hasRole",
      "outputs": [
        {
          "internalType": "bool",
          "name": "",
          "type": "bool"
        }
      ],
      "stateMutability": "view",
      "type": "function"
    },
    {
      "inputs": [],
      "name": "initialMarketCap",
      "outputs": [
        {
          "internalType": "uint256",
          "name": "",
          "type": "uint256"
        }
      ],
      "stateMutability": "view",
      "type": "function"
    },
    {
      "inputs": [],
      "name": "initialSupply",
      "outputs": [
        {
          "internalType": "uint256",
          "name": "",
          "type": "uint256"
        }
      ],
      "stateMutability": "view",
      "type": "function"
    },
    {
      "inputs": [
        {
          "internalType": "address",
          "name": "assetToken_",
          "type": "address"
        },
        {
          "internalType": "address",
          "name": "factory_",
          "type": "address"
        },
        {
          "internalType": "address",
          "name": "feeTo_",
          "type": "address"
        },
        {
          "internalType": "uint256",
          "name": "fee_",
          "type": "uint256"
        },
        {
          "internalType": "uint256",
          "name": "initialSupply_",
          "type": "uint256"
        },
        {
          "internalType": "address",
          "name": "extRouter_",
          "type": "address"
        },
        {
          "internalType": "address",
          "name": "tokenFactory_",
          "type": "address"
        },
        {
          "internalType": "address",
          "name": "lockFactory_",
          "type": "address"
        },
        {
          "internalType": "uint256",
          "name": "lockedTime_",
          "type": "uint256"
        },
        {
          "internalType": "address",
          "name": "oracle_",
          "type": "address"
        },
        {
          "internalType": "uint256",
          "name": "initialMarketCap_",
          "type": "uint256"
        },
        {
          "internalType": "uint256",
          "name": "gradMarketCap_",
          "type": "uint256"
        }
      ],
      "name": "initialize",
      "outputs": [],
      "stateMutability": "nonpayable",
      "type": "function"
    },
    {
      "inputs": [
        {
          "internalType": "address",
          "name": "token",
          "type": "address"
        }
      ],
      "name": "isBoostToken",
      "outputs": [
        {
          "internalType": "bool",
          "name": "",
          "type": "bool"
        }
      ],
      "stateMutability": "view",
      "type": "function"
    },
    {
      "inputs": [
        {
          "internalType": "string",
          "name": "_name",
          "type": "string"
        },
        {
          "internalType": "string",
          "name": "_ticker",
          "type": "string"
        },
        {
          "internalType": "uint8[]",
          "name": "cores",
          "type": "uint8[]"
        },
        {
          "internalType": "string",
          "name": "desc",
          "type": "string"
        },
        {
          "internalType": "string",
          "name": "img",
          "type": "string"
        },
        {
          "internalType": "string[4]",
          "name": "urls",
          "type": "string[4]"
        },
        {
          "internalType": "uint256",
          "name": "payAmount",
          "type": "uint256"
        }
      ],
      "name": "launch",
      "outputs": [
        {
          "internalType": "address",
          "name": "",
          "type": "address"
        },
        {
          "internalType": "address",
          "name": "",
          "type": "address"
        },
        {
          "internalType": "uint256",
          "name": "",
          "type": "uint256"
        }
      ],
      "stateMutability": "nonpayable",
      "type": "function"
    },
    {
      "inputs": [
        {
          "internalType": "address",
          "name": "_creator",
          "type": "address"
        },
        {
          "internalType": "string",
          "name": "_name",
          "type": "string"
        },
        {
          "internalType": "string",
          "name": "_ticker",
          "type": "string"
        },
        {
          "internalType": "uint8[]",
          "name": "cores",
          "type": "uint8[]"
        },
        {
          "internalType": "string",
          "name": "desc",
          "type": "string"
        },
        {
          "internalType": "string",
          "name": "img",
          "type": "string"
        },
        {
          "internalType": "string[4]",
          "name": "urls",
          "type": "string[4]"
        },
        {
          "internalType": "uint256",
          "name": "payAmount",
          "type": "uint256"
        }
      ],
      "name": "launchFor",
      "outputs": [
        {
          "internalType": "address",
          "name": "",
          "type": "address"
        },
        {
          "internalType": "address",
          "name": "",
          "type": "address"
        },
        {
          "internalType": "uint256",
          "name": "",
          "type": "uint256"
        }
      ],
      "stateMutability": "nonpayable",
      "type": "function"
    },
    {
      "inputs": [
        {
          "internalType": "address",
          "name": "_creator",
          "type": "address"
        },
        {
          "internalType": "string",
          "name": "_name",
          "type": "string"
        },
        {
          "internalType": "string",
          "name": "_ticker",
          "type": "string"
        },
        {
          "internalType": "uint8[]",
          "name": "cores",
          "type": "uint8[]"
        },
        {
          "internalType": "string",
          "name": "desc",
          "type": "string"
        },
        {
          "internalType": "string",
          "name": "img",
          "type": "string"
        },
        {
          "internalType": "string[4]",
          "name": "urls",
          "type": "string[4]"
        }
      ],
      "name": "launchForWithETH",
      "outputs": [
        {
          "internalType": "address",
          "name": "",
          "type": "address"
        },
        {
          "internalType": "address",
          "name": "",
          "type": "address"
        },
        {
          "internalType": "uint256",
          "name": "",
          "type": "uint256"
        }
      ],
      "stateMutability": "payable",
      "type": "function"
    },
    {
      "inputs": [
        {
          "internalType": "string",
          "name": "_name",
          "type": "string"
        },
        {
          "internalType": "string",
          "name": "_ticker",
          "type": "string"
        },
        {
          "internalType": "uint8[]",
          "name": "cores",
          "type": "uint8[]"
        },
        {
          "internalType": "string",
          "name": "desc",
          "type": "string"
        },
        {
          "internalType": "string",
          "name": "img",
          "type": "string"
        },
        {
          "internalType": "string[4]",
          "name": "urls",
          "type": "string[4]"
        }
      ],
      "name": "launchWithETH",
      "outputs": [
        {
          "internalType": "address",
          "name": "",
          "type": "address"
        },
        {
          "internalType": "address",
          "name": "",
          "type": "address"
        },
        {
          "internalType": "uint256",
          "name": "",
          "type": "uint256"
        }
      ],
      "stateMutability": "payable",
      "type": "function"
    },
    {
      "inputs": [],
      "name": "lockFactory",
      "outputs": [
        {
          "internalType": "contract LockFactory",
          "name": "",
          "type": "address"
        }
      ],
      "stateMutability": "view",
      "type": "function"
    },
    {
      "inputs": [],
      "name": "lockedTime",
      "outputs": [
        {
          "internalType": "uint256",
          "name": "",
          "type": "uint256"
        }
      ],
      "stateMutability": "view",
      "type": "function"
    },
    {
      "inputs": [],
      "name": "oracle",
      "outputs": [
        {
          "internalType": "contract IOracle",
          "name": "",
          "type": "address"
        }
      ],
      "stateMutability": "view",
      "type": "function"
    },
    {
      "inputs": [],
      "name": "owner",
      "outputs": [
        {
          "internalType": "address",
          "name": "",
          "type": "address"
        }
      ],
      "stateMutability": "view",
      "type": "function"
    },
    {
      "inputs": [],
      "name": "pendingOwner",
      "outputs": [
        {
          "internalType": "address",
          "name": "",
          "type": "address"
        }
      ],
      "stateMutability": "view",
      "type": "function"
    },
    {
      "inputs": [
        {
          "internalType": "address",
          "name": "token_",
          "type": "address"
        },
        {
          "internalType": "uint256",
          "name": "amountIn_",
          "type": "uint256"
        }
      ],
      "name": "quoteBuy",
      "outputs": [
        {
          "internalType": "uint256",
          "name": "",
          "type": "uint256"
        },
        {
          "internalType": "uint256",
          "name": "",
          "type": "uint256"
        }
      ],
      "stateMutability": "view",
      "type": "function"
    },
    {
      "inputs": [
        {
          "internalType": "address",
          "name": "token_",
          "type": "address"
        },
        {
          "internalType": "uint256",
          "name": "amountIn_",
          "type": "uint256"
        }
      ],
      "name": "quoteSell",
      "outputs": [
        {
          "internalType": "uint256",
          "name": "",
          "type": "uint256"
        },
        {
          "internalType": "uint256",
          "name": "",
          "type": "uint256"
        }
      ],
      "stateMutability": "view",
      "type": "function"
    },
    {
      "inputs": [],
      "name": "renounceOwnership",
      "outputs": [],
      "stateMutability": "nonpayable",
      "type": "function"
    },
    {
      "inputs": [
        {
          "internalType": "bytes32",
          "name": "role",
          "type": "bytes32"
        },
        {
          "internalType": "address",
          "name": "account",
          "type": "address"
        }
      ],
      "name": "renounceRole",
      "outputs": [],
      "stateMutability": "nonpayable",
      "type": "function"
    },
    {
      "inputs": [
        {
          "internalType": "bytes32",
          "name": "role",
          "type": "bytes32"
        },
        {
          "internalType": "address",
          "name": "account",
          "type": "address"
        }
      ],
      "name": "revokeRole",
      "outputs": [],
      "stateMutability": "nonpayable",
      "type": "function"
    },
    {
      "inputs": [
        {
          "internalType": "uint256",
          "name": "amountIn",
          "type": "uint256"
        },
        {
          "internalType": "address",
          "name": "tokenAddress",
          "type": "address"
        }
      ],
      "name": "sell",
      "outputs": [
        {
          "internalType": "bool",
          "name": "",
          "type": "bool"
        }
      ],
      "stateMutability": "nonpayable",
      "type": "function"
    },
    {
      "inputs": [
        {
          "internalType": "uint256",
          "name": "amountIn",
          "type": "uint256"
        },
        {
          "internalType": "address",
          "name": "tokenAddress",
          "type": "address"
        }
      ],
      "name": "sellForETH",
      "outputs": [
        {
          "internalType": "bool",
          "name": "success",
          "type": "bool"
        }
      ],
      "stateMutability": "nonpayable",
      "type": "function"
    },
    {
      "inputs": [
        {
          "internalType": "address",
          "name": "newAssetToken",
          "type": "address"
        }
      ],
      "name": "setAssetToken",
      "outputs": [],
      "stateMutability": "nonpayable",
      "type": "function"
    },
    {
      "inputs": [
        {
          "internalType": "uint8",
          "name": "stage",
          "type": "uint8"
        },
        {
          "internalType": "uint256",
          "name": "threshold",
          "type": "uint256"
        }
      ],
      "name": "setBoostStageThreshold",
      "outputs": [],
      "stateMutability": "nonpayable",
      "type": "function"
    },
    {
      "inputs": [
        {
          "internalType": "uint256[]",
          "name": "thresholds",
          "type": "uint256[]"
        }
      ],
      "name": "setBoostStageThresholds",
      "outputs": [],
      "stateMutability": "nonpayable",
      "type": "function"
    },
    {
      "inputs": [
        {
          "internalType": "address",
          "name": "newExtRouter",
          "type": "address"
        }
      ],
      "name": "setExtRouter",
      "outputs": [],
      "stateMutability": "nonpayable",
      "type": "function"
    },
    {
      "inputs": [
        {
          "internalType": "address",
          "name": "newFactory",
          "type": "address"
        }
      ],
      "name": "setFactory",
      "outputs": [],
      "stateMutability": "nonpayable",
      "type": "function"
    },
    {
      "inputs": [
        {
          "internalType": "uint256",
          "name": "newFee",
          "type": "uint256"
        },
        {
          "internalType": "address",
          "name": "newFeeTo",
          "type": "address"
        }
      ],
      "name": "setFee",
      "outputs": [],
      "stateMutability": "nonpayable",
      "type": "function"
    },
    {
      "inputs": [
        {
          "internalType": "uint256",
          "name": "newMarketCap",
          "type": "uint256"
        }
      ],
      "name": "setGradMarketCap",
      "outputs": [],
      "stateMutability": "nonpayable",
      "type": "function"
    },
    {
      "inputs": [
        {
          "internalType": "uint256",
          "name": "newMarketCap",
          "type": "uint256"
        }
      ],
      "name": "setInitialMarketCap",
      "outputs": [],
      "stateMutability": "nonpayable",
      "type": "function"
    },
    {
      "inputs": [
        {
          "internalType": "uint256",
          "name": "newSupply",
          "type": "uint256"
        }
      ],
      "name": "setInitialSupply",
      "outputs": [],
      "stateMutability": "nonpayable",
      "type": "function"
    },
    {
      "inputs": [
        {
          "internalType": "address",
          "name": "newLockFactory",
          "type": "address"
        }
      ],
      "name": "setLockFactory",
      "outputs": [],
      "stateMutability": "nonpayable",
      "type": "function"
    },
    {
      "inputs": [
        {
          "internalType": "uint256",
          "name": "newLockedTime",
          "type": "uint256"
        }
      ],
      "name": "setLockedTime",
      "outputs": [],
      "stateMutability": "nonpayable",
      "type": "function"
    },
    {
      "inputs": [
        {
          "internalType": "address",
          "name": "newOracle",
          "type": "address"
        }
      ],
      "name": "setOracle",
      "outputs": [],
      "stateMutability": "nonpayable",
      "type": "function"
    },
    {
      "inputs": [
        {
          "internalType": "address",
          "name": "newTokenFactory",
          "type": "address"
        }
      ],
      "name": "setTokenFactory",
      "outputs": [],
      "stateMutability": "nonpayable",
      "type": "function"
    },
    {
      "inputs": [
        {
          "internalType": "bytes4",
          "name": "interfaceId",
          "type": "bytes4"
        }
      ],
      "name": "supportsInterface",
      "outputs": [
        {
          "internalType": "bool",
          "name": "",
          "type": "bool"
        }
      ],
      "stateMutability": "view",
      "type": "function"
    },
    {
      "inputs": [],
      "name": "tokenFactory",
      "outputs": [
        {
          "internalType": "contract INTERC20Factory",
          "name": "",
          "type": "address"
        }
      ],
      "stateMutability": "view",
      "type": "function"
    },
    {
      "inputs": [
        {
          "internalType": "address",
          "name": "",
          "type": "address"
        }
      ],
      "name": "tokenInfo",
      "outputs": [
        {
          "internalType": "address",
          "name": "creator",
          "type": "address"
        },
        {
          "internalType": "address",
          "name": "token",
          "type": "address"
        },
        {
          "internalType": "address",
          "name": "pair",
          "type": "address"
        },
        {
          "internalType": "address",
          "name": "locker",
          "type": "address"
        },
        {
          "internalType": "string",
          "name": "description",
          "type": "string"
        },
        {
          "internalType": "string",
          "name": "image",
          "type": "string"
        },
        {
          "internalType": "string",
          "name": "twitter",
          "type": "string"
        },
        {
          "internalType": "string",
          "name": "telegram",
          "type": "string"
        },
        {
          "internalType": "string",
          "name": "farcaster",
          "type": "string"
        },
        {
          "internalType": "string",
          "name": "website",
          "type": "string"
        },
        {
          "internalType": "enum Bonding.TokenStatus",
          "name": "status",
          "type": "uint8"
        }
      ],
      "stateMutability": "view",
      "type": "function"
    },
    {
      "inputs": [
        {
          "internalType": "uint256",
          "name": "",
          "type": "uint256"
        }
      ],
      "name": "tokenInfos",
      "outputs": [
        {
          "internalType": "address",
          "name": "",
          "type": "address"
        }
      ],
      "stateMutability": "view",
      "type": "function"
    },
    {
      "inputs": [
        {
          "internalType": "address",
          "name": "newOwner",
          "type": "address"
        }
      ],
      "name": "transferOwnership",
      "outputs": [],
      "stateMutability": "nonpayable",
      "type": "function"
    },
    {
      "inputs": [],
      "name": "weth",
      "outputs": [
        {
          "internalType": "address",
          "name": "",
          "type": "address"
        }
      ],
      "stateMutability": "view",
      "type": "function"
    },
    {
      "stateMutability": "payable",
      "type": "receive"
    }
  ],
  "transactionHash": "0x15864d2dde853b474dd4ccc522a41741fcf7c5782086bd48813ede98fecd6404",
  "args": [
    "0x62fB5AaDdc4bd26C6DC50fa5dE679CAa6fa8B44b"
  ],
  "numDeployments": 1,
  "solcInputHash": "965fc97b803bac1204dfa7bf0143a3f8",
  "bytecode": "0x60a0346200012257601f62005b7038819003918201601f19168301916001600160401b0383118484101762000126578084926020946040528339810103126200012257516001600160a01b038116810362000122575f5460ff8160081c16620000cd5760ff8082160362000092575b50608052604051615a3590816200013b8239608051818181610a250152611bda0152f35b60ff90811916175f557f7f26b83ff96e1f2b6a682f133852f6798a09c465da95921460cefb3847402498602060405160ff8152a15f6200006e565b60405162461bcd60e51b815260206004820152602760248201527f496e697469616c697a61626c653a20636f6e747261637420697320696e697469604482015266616c697a696e6760c81b6064820152608490fd5b5f80fd5b634e487b7160e01b5f52604160045260245ffdfe60a060408181526004918236101561007d575b50361561005c57906020606492519162461bcd60e51b8352820152602060248201527f44697265637420455448207472616e7366657273206e6f7420616c6c6f7765646044820152fd5b610134546001600160a01b0316330361007157005b516282b42960e81b8152fd5b5f90813560e01c908163017e7e581461228b5750806301b964d21461221b57806301ffc9a7146121c557806302b6b15a146120ef5780630d63237f146120985780630d7a94f6146120345780631083f7611461200a5780631db9be1b14611fe0578063248a9ca314611fb557806326bde5aa14611f455780632f2ff15d14611e985780632f73a9f814611e2857806336568abe14611d975780633744cfdd14611d12578063378dc3dc14611cf25780633b5f193514611cd25780633c0b93aa14611c095780633fc8cef314611bc557806341344d5d14611b985780634189a68e14611b6d578063444aa92f14611af0578063456f5e1514611a1e5780634d860303146119de57806354818605146118d25780635823892a146118265780635bb47808146117b65780635e7b8d95146116ee5780635edb9eb0146116ce578063614025961461167f578063715018a6146115ab57806372641aa61461157957806377796ace1461150957806378a89567146114e957806379ba5097146114635780637adbf973146113785780637c13774b146113215780637dc0d1d0146112f75780637deb6025146112885780637f7ee431146111a95780638da5cb5b146111805780638f876f8c1461108b57806391d1485414611044578063a217fddf14611029578063a240de0314610fff578063a3e01ce314610ec3578063a8b3820514610ea3578063ae29d56814610e71578063b4f2e8b814610df7578063b758ba8814610dbc578063c17ac35a14610d64578063c1ba290714610d44578063c45a015514610d1a578063c75ed64414610cbe578063c78418b914610c82578063c8379f811461095d578063d547741f14610921578063d723a3d2146108e4578063d98b2f5c14610817578063ddca3f43146107f7578063df1dcaa91461078b578063e30c397814610762578063e77772fe14610738578063e84ca7cb146106f9578063ee3cd15b14610649578063f2fde38b146105db578063f5dab71114610494578063f943ce071461042e578063fa1653bd146103ca5763feab61eb036100125791346103c657816003193601126103c65761039561240d565b9161039e612a9d565b600360ff8416116103b957836103b66024358561554e565b80f35b5163e82a532960e01b8152fd5b8280fd5b5082903461042b57602036600319011261042b576001600160a01b036103ee6122b1565b16815261013560205260ff600b848320015416916003831015610418576020836002865191148152f35b634e487b7160e01b825260219052602490fd5b80fd5b509190346103c65760203660031901126103c65781359161044d612a9d565b82156104865750816020917f51dfcc99f9c590c7a4bcf74fc4e9ae6b407ec6689eb354e3215563a0b5bcd00d9361013c5551908152a180f35b90516338c51d2560e21b8152fd5b503461042b57602036600319011261042b576001600160a01b03806104b76122b1565b1682526101356020528282208181541693826001830154169280600284015416906003840154168784016104ea90612595565b6104f660068601612595565b9061050360078701612595565b9261051060088801612595565b9461051d60098901612595565b9661052a600a8a01612595565b98600b015460ff169981519c8d5260208d01528b015260608a01526101608060808b0152890161055991612657565b88810360a08a015261056a91612657565b87810360c089015261057b91612657565b86810360e088015261058c91612657565b85810361010087015261059e91612657565b8481036101208601526105b091612657565b9160038210156105c857508293506101408301520390f35b634e487b7160e01b815260218552602490fd5b503461042b57602036600319011261042b576105f56122b1565b6105fd612a9d565b609780546001600160a01b0319166001600160a01b039283169081179091556065549091167f38d16b8cac22d99fc7c124b9cd0de2d3fa1faef420bfe791d8c362d765e227008380a380f35b503461042b578160031936011261042b576106706106656122cb565b309033908635614116565b61013454909291506001600160a01b0316803b156106f5578180916024865180948193632e1a7d4d60e01b8352888b8401525af180156106eb576106dc575b5080808093335af16106bf612f9d565b50156106cf576020905160018152f35b5163b12d13eb60e01b8152fd5b6106e5906122e1565b5f6106af565b84513d84823e3d90fd5b5080fd5b5090346106f55760203660031901126106f55760209160ff9082906001600160a01b036107246122b1565b168152610137855220541615159051908152f35b5090346106f557816003193601126106f55761012f5490516001600160a01b039091168152602090f35b5090346106f557816003193601126106f55760975490516001600160a01b039091168152602090f35b509190346103c65760203660031901126103c6578135916107aa612a9d565b6301e133808311156107e95750816020917fbeaba78e9fea37c532e9c93af5e8e120a48902131aeb7d3146e3ca49dec45a239361013a5551908152a180f35b905163abf20e8f60e01b8152fd5b5090346106f557816003193601126106f557602090610132549051908152f35b5082346106f557826003193601126106f557826108326122b1565b61012e5461013454835163a6b8918760e01b81526001600160a01b03928316958101958652908216602086015291166040840152602435606084015291829081906080015b038173090BF41f1A0d492f4f411A368A4d63376f60b8305af49081156108da5782916108ab575b5082519182526020820152f35b90506108cd9150823d84116108d3575b6108c58183612374565b81019061311f565b8361089e565b503d6108bb565b83513d84823e3d90fd5b5090346106f55760203660031901126106f55760209160ff9082906001600160a01b0361090f6122b1565b16815261013785522054169051908152f35b509190346103c657806003193601126103c6576103b6913561095860016109466122cb565b9383875260fb60205286200154612895565b612a28565b5091346103c6576101803660031901126103c6576109796122b1565b6109816122cb565b906044356001600160a01b0381168103610c7e5760a435916001600160a01b0383168303610c7a5760c435926001600160a01b0384168403610c765760e435926001600160a01b0384168403610c725761012435936001600160a01b0385168503610c6e5789549760ff8960081c16159889809a610c61575b8015610c4a575b610a0a9061589d565b60ff1981166001178c5589610c39575b506001600160a01b037f0000000000000000000000000000000000000000000000000000000000000000811690861603610c2b575089549560ff8760081c161596878098610c1e575b8015610c07575b610a739061589d565b60ff1981166001178c5587610bf6575b50610a9d60ff8c5460081c16610a9881615900565b615900565b610aa633612c3c565b8a5497610ace60ff8a60081c16610abc81615900565b610ac581615900565b60018055615900565b61013480546001600160a01b03199081166001600160a01b039889161790915561012e805482169288169290921790915561012f8054821692871692909217909155610130805482169286169290921790915561012d8054821692851692909217909155606435610132556084356101315561013380548216928416929092179091556101043561013a5561013b8054909116929091169190911790556101443561013c556101643561013d55610bbf575b50610b89575080f35b60207f7f26b83ff96e1f2b6a682f133852f6798a09c465da95921460cefb38474024989161ff001984541684555160018152a180f35b61ff00191683557f7f26b83ff96e1f2b6a682f133852f6798a09c465da95921460cefb38474024986020835160018152a15f610b80565b61ffff1916610101178b555f610a83565b50303b158015610a6a575060ff8116600114610a6a565b50600160ff821610610a63565b8951633bb31a5160e21b8152fd5b61ffff1916610101178b555f610a1a565b50303b158015610a01575060ff8116600114610a01565b50600160ff8216106109fa565b8980fd5b8880fd5b8780fd5b8680fd5b8580fd5b5090346106f55760203660031901126106f5576020916001600160a01b0390829082610cac6122b1565b16815261013585522054169051908152f35b509190346103c65760203660031901126103c657813591610cdd612a9d565b61013c5483106104865750816020917fc598615f3cd2c393145f278de5a6921fd815849d1ee5aab7b66bdda0efb33ada9361013d5551908152a180f35b5090346106f557816003193601126106f55761012e5490516001600160a01b039091168152602090f35b5090346106f557816003193601126106f55760209061013d549051908152f35b5090346106f55760203660031901126106f55780602092610d836122b1565b818351610d8f81612308565b526001600160a01b031681526101378452208151919060ff90610db184612308565b541680925251908152f35b5090346106f557816003193601126106f557602090517f62229496573be0b0846a2fb48a94de962b501adb0b8eaf7f99924b10a81a19fe8152f35b509190346103c657806003193601126103c6577fc8242dc5446855370b781abbfc5d882af1d1a3cc29143216aba3558feb0ce9259135610e356122cb565b610e3d612a9d565b61013282905561012d80546001600160a01b0319166001600160a01b0392909216918217905582519182526020820152a180f35b5090346106f55760203660031901126106f5578060209260ff610e9261240d565b168152610139845220549051908152f35b5090346106f557816003193601126106f55760209061013a549051908152f35b5091346103c657610ed336612523565b94610ee598969894919493929361267c565b6001600160a01b03898116808c52610137602052888c208054919b909a909291610f119060ff16614ffa565b60ff16600203610ff1578c8a610f26856155f1565b9160028152610139602052205411610fe3575092610fb495928b7f4e8e1b96afa9116446f71ff323ac93786664fcbea87475ece33519357750f7909b9996938b99968f9c8d8460609f5261013560205220908060028160038501541693610fa88861013498610fa08c878c54168861012d54163091612e53565b873091612e53565b01541693541692615050565b92915092805460ff610fc781831661500c565b169060ff1916179055805192600284526020840152820152a280f35b8951639dc93e9f60e01b8152fd5b8951636dfb3ae160e01b8152fd5b5090346106f557816003193601126106f5576101335490516001600160a01b039091168152602090f35b5090346106f557816003193601126106f55751908152602090f35b5091346103c657816003193601126103c6578160209360ff926110656122cb565b9035825260fb86528282206001600160a01b039091168252855220549151911615158152f35b5060c036600319011261042b576001600160401b0383358181116103c6576110b690369086016123b0565b9360243582811161117c576110ce90369083016123b0565b604435838111611178576110e5903690840161241d565b91606435848111610c7e576110fd90369083016123b0565b93608435818111610c7a5761111590369084016123b0565b9560a43591821161042b575091611139611148969492611174999694369101612485565b94611142612d09565b33615960565b6001805592516001600160a01b0392831681529116602082015260408101919091529081906060820190565b0390f35b8480fd5b8380fd5b5090346106f557816003193601126106f55760655490516001600160a01b039091168152602090f35b5082346106f5576101a03660031901126106f5576111c56122b1565b6001600160401b0390602435828111611178576111e590369085016123b0565b604435838111610c7e576111fc90369086016123b0565b606435848111610c7a57611213903690870161241d565b91608435858111610c765761122b90369088016123b0565b9360a435868111610c725761124390369089016123b0565b9560c435908111610c72576103b69761125e91369101612485565b61126661267c565b6101843596610164359661014435966101243596610104359660e43596614aa8565b503461042b578160031936011261042b576112a16122cb565b9060018060a01b038216815261013560205260ff600b8483200154169060038210156105c857506001036112e9576112e09060209333913391356141ff565b50505160018152f35b50516305e1dfe360e11b8152fd5b5090346106f557816003193601126106f55761013b5490516001600160a01b039091168152602090f35b5091346103c65760203660031901126103c65735610136805482101561117c576020935260018060a01b03907f39da2db355130acf428d669fbf1c14faa9d51399a25b793fc254bbbde66f02e20154169051908152f35b5090346106f557602090816003193601126103c6576113956122b1565b9061139e612a9d565b61013454815163fc57d4df60e01b81526001600160a01b0391821687820152921691838160248188875af190811561145957859161142c575b501561141d5761013b80546001600160a01b03191683179055519081529192507f3f32684a32a11dabdbb8c0177de80aa3ae36a004d75210335b49e544e48cd0aa91a180f35b51639589a27d60e01b81528490fd5b90508381813d8311611452575b6114438183612374565b8101031261117857515f6113d7565b503d611439565b82513d87823e3d90fd5b509190346103c657826003193601126103c657609754336001600160a01b039091160361149457826103b633612c3c565b906020608492519162461bcd60e51b8352820152602960248201527f4f776e61626c6532537465703a2063616c6c6572206973206e6f7420746865206044820152683732bb9037bbb732b960b91b6064820152fd5b5090346106f557816003193601126106f557602090610136549051908152f35b5090346106f55760203660031901126106f55760207f0454b4498edcb0a2c7058cfd107bb0e6551b3820f891c725db307ed66e740f20916115486122b1565b611550612a9d565b61013380546001600160a01b0319166001600160a01b039290921691821790559051908152a180f35b5090346106f55736600319011261042b576103b66115956122b1565b61159d6122cb565b906115a6612a9d565b6149c8565b5090346106f557816003193601126106f5576115c5612a9d565b60655482906001600160a01b03906115de90821661299e565b6001600160601b0360a01b8060975416609755606554908116606555167f8be0079c531659141344cd1fd0a4f28419497f9722a3daafe3b4186f6b6457e08280a381805260fb60205280822060205260ff81832054161561163d575080f35b60fb6020528082206020528120600160ff198254161790553381807f2f8788117e7eff1d82e926ec794901d17c78024a50270940304540a733656f0d8180a480f35b5091346103c65760203660031901126103c6577fedbbbd0f3b9ac5d8f4d9142fe0b31c73d786619eab0d7f8df600fe84282a4d439160209135906116c1612a9d565b816101315551908152a180f35b5090346106f557816003193601126106f557602090610138549051908152f35b5060e036600319011261042b576117036122b1565b926001600160401b039060243582811161117c5761172490369083016123b0565b6044358381116111785761173b90369084016123b0565b90606435848111610c7e57611753903690850161241d565b92608435858111610c7a5761176b90369083016123b0565b9460a435818111610c765761178390369084016123b0565b9660c43591821161042b5750916117a861117499969492611148989694369101612485565b956117b1612d09565b615960565b5090346106f55760203660031901126106f55760207f1edf3afd4ac789736e00d216cd88be164ddcef26a6eedcc30cdb0cb62f3741b1916117f56122b1565b6117fd612a9d565b61012e80546001600160a01b0319166001600160a01b039290921691821790559051908152a180f35b509190346103c657806003193601126103c6576001600160401b039180358381116111785761185890369083016124f3565b9093602435908111610c7e5761187190369084016124f3565b92909361187c612a9d565b8383036118c5575050845b818110611892578580f35b806118bf6118ab6118a6600194868a614a84565b614a94565b6118b96118a684888a614a84565b906149c8565b01611887565b516305e8333d60e11b8152fd5b5091346103c6576118e236612523565b946118f498969894919493929361267c565b6001600160a01b03898116808c52610137602052888c208054919b909a9092916119209060ff16614ffa565b60ff16600303610ff1578c8a611935856155f1565b9160038152610139602052205411610fe35750926119af95928b7f4e8e1b96afa9116446f71ff323ac93786664fcbea87475ece33519357750f7909b9996938b99968f9c8d8460609f5261013560205220908060028160038501541693610fa88861013498610fa08c878c54168861012d54163091612e53565b92915092805460ff6119c281831661500c565b169060ff1916179055805192600384526020840152820152a280f35b5090346106f55760203660031901126106f5576020916001600160a01b0390600390839083611a0b6122b1565b1681526101358652200154169051908152f35b5091346103c6576101003660031901126103c657611a3a6122b1565b926001600160401b036024358181116103c657611a5a90369085016123b0565b9260443582811161117c57611a7290369083016123b0565b60643583811161117857611a89903690840161241d565b91608435848111610c7e57611aa190369083016123b0565b9360a435818111610c7a57611ab990369084016123b0565b9560c43591821161042b575091611ade61117499969492611148989694369101612485565b94611ae7612d09565b60e43596612d6c565b509160203660031901126103c657611b066122b1565b610134549093906001600160a01b0316803b156106f5578190845193848092630d0e30db60e41b825234905af1908115611b625750926112e091602094611b53575b5033903090346141ff565b611b5c906122e1565b5f611b48565b8351903d90823e3d90fd5b503461042b578160031936011261042b57506112e0602092611b8d6122cb565b903391339135614116565b5090346106f55760203660031901126106f557602090611bbe611bb96122b1565b6155f1565b9051908152f35b5090346106f557816003193601126106f557517f00000000000000000000000000000000000000000000000000000000000000006001600160a01b03168152602090f35b5091346103c65760e03660031901126103c6576001600160401b039281358481116106f557611c3b90369084016123b0565b936024358181116103c657611c5390369085016123b0565b9260443582811161117c57611c6b903690830161241d565b9060643583811161117857611c8390369083016123b0565b92608435818111610c7e57611c9b90369084016123b0565b9460a43591821161042b575091611cbf611148969492611174999694369101612485565b93611cc8612d09565b60c4359533612d6c565b5090346106f557816003193601126106f55760209061013c549051908152f35b5090346106f557816003193601126106f557602090610131549051908152f35b5090346106f55760203660031901126106f55782356001600160401b0381116103c657611d4290369085016124f3565b9093611d4c612a9d565b6003928383036118c5575050825b60ff811683811015611d935790611d89611d8e92611d82611d7a84614ffa565b91868a614a84565b359061554e565b61500c565b611d5a565b8480f35b5082346106f557826003193601126106f557611db16122cb565b90336001600160a01b03831603611dcd57906103b69135612a28565b608490602085519162461bcd60e51b8352820152602f60248201527f416363657373436f6e74726f6c3a2063616e206f6e6c792072656e6f756e636560448201526e103937b632b9903337b91039b2b63360891b6064820152fd5b5090346106f55760203660031901126106f55760207fcf4be1c851767114c1f4b298dc84eab48d103473908393f6d408c82ba7cda0e891611e676122b1565b611e6f612a9d565b61012f80546001600160a01b0319166001600160a01b039290921691821790559051908152a180f35b5091346103c657816003193601126103c6573590611eb46122cb565b9082845260fb602052611ecc60018286200154612895565b82845260fb60209081528185206001600160a01b039093168086529290528084205460ff1615611efa578380f35b82845260fb6020528084208285526020528320600160ff1982541617905533917f2f8788117e7eff1d82e926ec794901d17c78024a50270940304540a733656f0d8480a45f80808380f35b5090346106f55760203660031901126106f55760207fbdaa8f7ade01473981aef419539e6c190d409f50b144a7a796efd2777607920c91611f846122b1565b611f8c612a9d565b61013480546001600160a01b0319166001600160a01b039290921691821790559051908152a180f35b5091346103c65760203660031901126103c6578160209360019235815260fb85522001549051908152f35b5090346106f557816003193601126106f5576101305490516001600160a01b039091168152602090f35b5090346106f557816003193601126106f5576101345490516001600160a01b039091168152602090f35b5082346106f557826003193601126106f5578261204f6122b1565b61012e54610134548351631d486c9760e21b81526001600160a01b0392831695810195865290821660208601529116604084015260243560608401529182908190608001610877565b5091346103c65760203660031901126103c65735610138805482101561117c576020935260018060a01b03907ff79a63dcec80ed75c82f36161f17b9c2f407860160383a7be0a0ee7962c527ae0154169051908152f35b5082346106f5576101803660031901126106f5576001600160401b03813581811161117c5761212190369084016123b0565b906024358181116111785761213990369085016123b0565b604435828111610c7e57612150903690860161241d565b606435838111610c7a5761216790369087016123b0565b91608435848111610c765761217f90369088016123b0565b9360a435908111610c76576103b69661219a91369101612485565b946121a361267c565b610164359561014435956101243595610104359560e4359560c4359533614aa8565b5091346103c65760203660031901126103c657359063ffffffff60e01b82168092036103c65760209250637965db0b60e01b821491821561220a575b50519015158152f35b6301ffc9a760e01b1491505f612201565b5090346106f55760203660031901126106f55760207f3587ea62a24fc6959886ef88a458920ef0762b7ecbae1e87892c731869362d699161225a6122b1565b612262612a9d565b61013080546001600160a01b0319166001600160a01b039290921691821790559051908152a180f35b9050346106f557816003193601126106f55761012d546001600160a01b03168152602090f35b600435906001600160a01b03821682036122c757565b5f80fd5b602435906001600160a01b03821682036122c757565b6001600160401b0381116122f457604052565b634e487b7160e01b5f52604160045260245ffd5b602081019081106001600160401b038211176122f457604052565b604081019081106001600160401b038211176122f457604052565b606081019081106001600160401b038211176122f457604052565b608081019081106001600160401b038211176122f457604052565b90601f801991011681019081106001600160401b038211176122f457604052565b6001600160401b0381116122f457601f01601f191660200190565b81601f820112156122c7578035906123c782612395565b926123d56040519485612374565b828452602083830101116122c757815f926020809301838601378301015290565b6001600160401b0381116122f45760051b60200190565b6004359060ff821682036122c757565b81601f820112156122c757803591612434836123f6565b926124426040519485612374565b808452602092838086019260051b8201019283116122c7578301905b82821061246c575050505090565b813560ff811681036122c757815290830190830161245e565b9080601f830112156122c757604051916001600160401b0360808401818111858210176122f4576040528360808301928484116122c75780915b8483106124cf5750505050505090565b82358481116122c7576020916124e888849386016123b0565b8152019201916124bf565b9181601f840112156122c7578235916001600160401b0383116122c7576020808501948460051b0101116122c757565b60e09060031901126122c7576004356001600160a01b03811681036122c757906024359060443590606435906084359060a4359060c43590565b90600182811c9216801561258b575b602083101461257757565b634e487b7160e01b5f52602260045260245ffd5b91607f169161256c565b9060405191825f8254926125a88461255d565b9081845260019485811690815f1461261357506001146125d3575b50506125d192500383612374565b565b909391505f52602090815f20935f915b8183106125fb5750506125d193508201015f806125c3565b855488840185015294850194879450918301916125e3565b9150506125d194506020925060ff191682840152151560051b8201015f806125c3565b5f5b8381106126475750505f910152565b8181015183820152602001612638565b9060209161267081518092818552858086019101612636565b601f01601f1916010190565b335f9081527f08f584bb5334faafa280854191c286de8f907d6af8dd5e653110c56d426e0054602090815260408083205490927f62229496573be0b0846a2fb48a94de962b501adb0b8eaf7f99924b10a81a19fe9160ff16156126df5750505050565b6126e833612b41565b918451906126f582612359565b6042825284820192606036853782511561288157603084538251906001918210156128815790607860218501536041915b818311612814575050506127d25760486127ce9386936127b2936127a3985198899376020b1b1b2b9b9a1b7b73a3937b61d1030b1b1b7bab73a1604d1b8a86015261277a815180928c603789019101612636565b8401917001034b99036b4b9b9b4b733903937b6329607d1b603784015251809386840190612636565b01036028810187520185612374565b5192839262461bcd60e51b845260048401526024830190612657565b0390fd5b60648486519062461bcd60e51b825280600483015260248201527f537472696e67733a20686578206c656e67746820696e73756666696369656e746044820152fd5b909192600f8116601081101561286d576f181899199a1a9b1b9c1cb0b131b232b360811b901a6128448587612b1c565b5360041c928015612859575f19019190612726565b634e487b7160e01b82526011600452602482fd5b634e487b7160e01b83526032600452602483fd5b634e487b7160e01b81526032600452602490fd5b5f9080825260209060fb8252604092838120338252835260ff8482205416156128be5750505050565b6128c733612b41565b918451906128d482612359565b6042825284820192606036853782511561288157603084538251906001918210156128815790607860218501536041915b818311612959575050506127d25760486127ce9386936127b2936127a3985198899376020b1b1b2b9b9a1b7b73a3937b61d1030b1b1b7bab73a1604d1b8a86015261277a815180928c603789019101612636565b909192600f8116601081101561286d576f181899199a1a9b1b9c1cb0b131b232b360811b901a6129898587612b1c565b5360041c928015612859575f19019190612905565b6001600160a01b03165f8181527fc88390e7e62175be0932452175b6a7222b6b094ab0ef984a5153c620345d8975602052604081205490919060ff166129e2575050565b81805260fb602052604082208183526020526040822060ff19815416905533917ff6391f5c32d9c69d2a47ea670b442974b53935d1edc7fd64eb21e047a839171b8180a4565b905f9180835260fb602052604083209160018060a01b03169182845260205260ff604084205416612a5857505050565b80835260fb602052604083208284526020526040832060ff1981541690557ff6391f5c32d9c69d2a47ea670b442974b53935d1edc7fd64eb21e047a839171b339380a4565b6065546001600160a01b03163303612ab157565b606460405162461bcd60e51b815260206004820152602060248201527f4f776e61626c653a2063616c6c6572206973206e6f7420746865206f776e65726044820152fd5b81810292918115918404141715612b0857565b634e487b7160e01b5f52601160045260245ffd5b908151811015612b2d570160200190565b634e487b7160e01b5f52603260045260245ffd5b60405190612b4e8261233e565b602a8252602082016040368237825115612b2d57603090538151600190811015612b2d57607860218401536029905b808211612bd1575050612b8d5790565b606460405162461bcd60e51b815260206004820152602060248201527f537472696e67733a20686578206c656e67746820696e73756666696369656e746044820152fd5b9091600f81166010811015612c28576f181899199a1a9b1b9c1cb0b131b232b360811b901a612c008486612b1c565b5360041c918015612c14575f190190612b7d565b60245f634e487b7160e01b81526011600452fd5b60245f634e487b7160e01b81526032600452fd5b6065546001600160a01b0390612c5390821661299e565b6001600160601b0360a01b8060975416609755816065549316918280928516176065555f93167f8be0079c531659141344cd1fd0a4f28419497f9722a3daafe3b4186f6b6457e08480a381805260fb6020526040822081835260205260ff60408320541615612cc0575050565b81805260fb6020526040822081835260205260408220600160ff1982541617905533917f2f8788117e7eff1d82e926ec794901d17c78024a50270940304540a733656f0d8180a4565b600260015414612d1a576002600155565b60405162461bcd60e51b815260206004820152601f60248201527f5265656e7472616e637947756172643a207265656e7472616e742063616c6c006044820152606490fd5b91908203918211612b0857565b939096949195926101325496878710612e0257610134546040516370a0823160e01b81523360048201526001600160a01b039182169a91906020816024818f5afa8015612e48578a915f91612e14575b5010612e025789612de29b81612de9575b505050612ddc33993399612d5f565b9661316f565b9192909190565b612dfa9261012d5416903390612e53565b5f8981612dcd565b604051632ca2f52b60e11b8152600490fd5b91506020823d8211612e40575b81612e2e60209383612374565b8101031261042b57508990515f612dbc565b3d9150612e21565b6040513d5f823e3d90fd5b6040516323b872dd60e01b60208201526001600160a01b03928316602482015292909116604483015260648201929092526125d191612e9f82608481015b03601f198101845283612374565b612eb1565b519081151582036122c757565b604051612f0e916001600160a01b0316612eca82612323565b5f806020958685527f5361666545524332303a206c6f772d6c6576656c2063616c6c206661696c656487860152868151910182855af1612f08612f9d565b91612fcc565b8051828115918215612f7e575b5050905015612f275750565b6084906040519062461bcd60e51b82526004820152602a60248201527f5361666545524332303a204552433230206f7065726174696f6e20646964206e6044820152691bdd081cdd58d8d9595960b21b6064820152fd5b83809293500103126122c75781612f959101612ea4565b80825f612f1b565b3d15612fc7573d90612fae82612395565b91612fbc6040519384612374565b82523d5f602084013e565b606090565b9192901561302e5750815115612fe0575090565b3b15612fe95790565b60405162461bcd60e51b815260206004820152601d60248201527f416464726573733a2063616c6c20746f206e6f6e2d636f6e74726163740000006044820152606490fd5b8251909150156130415750805190602001fd5b60405162461bcd60e51b8152602060048201529081906127ce906024830190612657565b51906001600160a01b03821682036122c757565b805115612b2d5760200190565b805160011015612b2d5760400190565b9081518082526020808093019301915f5b8281106130b5575050505090565b83516001600160a01b0316855293810193928101926001016130a7565b90916130e96130fe93606084526060840190613096565b91600160208201526040818403910152612657565b90565b811561310b570490565b634e487b7160e01b5f52601260045260245ffd5b91908260409103126122c7576020825192015190565b6001600160a01b0391821681529181166020830152604082019290925291811660608301529182166080820152911660a082015260c00190565b9161318495939160209b999a9897959361364d565b61012e54610134546040516364e329cb60e11b81526001600160a01b0380851660048301529182166024820152979294925f929091899160449183918691165af196871561362a5781976135ee575b506040516131e08161233e565b600281526040366020830137610134546001600160a01b031661320282613079565b526001600160a01b03851661321682613086565b526101335460405163c45a015560e01b815290602090829060049082906001600160a01b03165afa9081156134f95783916135ac575b50613287916020916040519160018484015283835261326a83612323565b85604051809681958294632a422c2b60e21b8452600484016130d2565b03926001600160a01b03165af1801561356857613573575b506001600160a01b0384163b1561042b57604051631e59818360e31b81526001600160a01b03888116600483015282908290602490829084908a165af1801561356857613559575b509061013c54670de0b6b3a764000081818102048114821517156135455761013b546101345460405163fc57d4df60e01b81526001600160a01b039182166004820152939291602091859160249183918a91165af191821561353a578592613504575b613355935002613101565b61012e54610134546101315460408051630afbf7f360e01b81526001600160a01b03948516600482015292841660248401529288166044830152606482015260848101929092528160a48173090BF41f1A0d492f4f411A368A4d63376f60b8305af480156134f9576134db575b506001600160a01b038481168084526101356020908152604080862060020180546001600160a01b031916948c1694851790556101365481518181529283018790524291830191909152989291907f58d1495ede629d89cfe4c00a5ad620a9ba231de4b1a5040c7b355d43092ff86b90606090a383613445575b50505050929190565b61012e546101345460408051633c529ea760e01b81529690948794859461348394929391928b92916001600160a01b03918216911660048801613135565b038173090BF41f1A0d492f4f411A368A4d63376f60b8305af49081156134cf57506134b1575b80808061343c565b6134c99060403d6040116108d3576108c58183612374565b506134a9565b604051903d90823e3d90fd5b6134f39060403d6040116108d3576108c58183612374565b506133c2565b6040513d85823e3d90fd5b91506020833d602011613532575b8161351f60209383612374565b810103126122c75761335592519161334a565b3d9150613512565b6040513d87823e3d90fd5b634e487b7160e01b84526011600452602484fd5b613562906122e1565b5f6132e7565b6040513d84823e3d90fd5b6020813d6020116135a4575b8161358c60209383612374565b810103126106f55761359d90613065565b505f61329f565b3d915061357f565b90506020813d6020116135e6575b816135c760209383612374565b810103126103c657613287916135de602092613065565b91509161324c565b3d91506135ba565b9096506020813d602011613622575b8161360a60209383612374565b81010312610c7a5761361b90613065565b955f6131d3565b3d91506135fd565b50604051903d90823e3d90fd5b818110613642575050565b5f8155600101613637565b93906136e595939796926020916136d35f60018060a01b0361012f5416926136aa602b6040518361368782955180928c8086019101612636565b81016a08189e48125b9d1953995d60aa1b8a82015203600b810184520182612374565b610131546040516334f359f960e01b8152608060048201529b8c96879586946084860190612657565b84810360031901602486015290612657565b90604483015230606483015203925af1948515612e48575f956140da575b50610130546101345461013a546040516309394e6160e11b81526001600160a01b03808a16600483015292831660248201523060448201526064810191909152969889979590929091602091879160849183915f91165af1948515612e48575f9561409e575b50835191602085015193606060408701519601519660405198896101808101106001600160401b036101808c0111176122f4576101808a0160405260018060a01b0316895260018060a01b038a1660208a01525f60408a015260018060a01b03166060890152608088015260a087015260c086015260e0850152610100840152610120830152610140820152600161016082015260018060a01b0382165f5261013560205260405f2060018060a01b038251166001600160601b0360a01b8254161781556001810160018060a01b036020840151166001600160601b0360a01b8254161790556002810160018060a01b036040840151166001600160601b0360a01b8254161790556003810160018060a01b036060840151166001600160601b0360a01b82541617905560808201518051906001600160401b0382116122f45781906138b8600485015461255d565b601f811161406b575b50602090601f8311600114613ffd575f92613ff2575b50508160011b915f199060031b1c19161760048201555b60a08201518051906001600160401b0382116122f457600160401b82116122f4576020906005840154836005860155808410613f9e575b500190600583015f5260205f20905f5b8160051c8110613f5f5750601f1981168103613f11575b50505060c08201518051906001600160401b0382116122f4578190613974600685015461255d565b601f8111613ede575b50602090601f8311600114613e70575f92613e65575b50508160011b915f199060031b1c19161760068201555b60e08201518051906001600160401b0382116122f45781906139cf600785015461255d565b601f8111613e32575b50602090601f8311600114613dc4575f92613db9575b50508160011b915f199060031b1c19161760078201555b6101008201518051906001600160401b0382116122f4578190613a2b600885015461255d565b601f8111613d86575b50602090601f8311600114613d18575f92613d0d575b50508160011b915f199060031b1c19161760088201555b6101208201518051906001600160401b0382116122f4578190613a87600985015461255d565b601f8111613cda575b50602090601f8311600114613c6c575f92613c61575b50508160011b915f199060031b1c19161760098201555b600a81016101408301518051906001600160401b0382116122f457613ae2835461255d565b601f8111613c26575b50602090601f8311600114613bbb579180600b949261016096945f92613bb0575b50508160011b915f199060031b1c19161790555b019101516003811015613b9c5760ff80198354169116179055610136805490600160401b8210156122f45760018201808255821015612b2d575f527f39da2db355130acf428d669fbf1c14faa9d51399a25b793fc254bbbde66f02e20180546001600160a01b0319166001600160a01b03909216919091179055565b634e487b7160e01b5f52602160045260245ffd5b015190505f80613b0c565b90601f19831691845f5260205f20925f5b818110613c0e57509260019285926101609896600b989610613bf6575b505050811b019055613b20565b01515f1960f88460031b161c191690555f8080613be9565b92936020600181928786015181550195019301613bcc565b613c5190845f5260205f20601f850160051c81019160208610613c57575b601f0160051c0190613637565b5f613aeb565b9091508190613c44565b015190505f80613aa6565b9250600984015f5260205f20905f935b601f1984168510613cbf576001945083601f19811610613ca7575b505050811b016009820155613abd565b01515f1960f88460031b161c191690555f8080613c97565b81810151835560209485019460019093019290910190613c7c565b613d0790600986015f5260205f20601f850160051c81019160208610613c5757601f0160051c0190613637565b5f613a90565b015190505f80613a4a565b9250600884015f5260205f20905f935b601f1984168510613d6b576001945083601f19811610613d53575b505050811b016008820155613a61565b01515f1960f88460031b161c191690555f8080613d43565b81810151835560209485019460019093019290910190613d28565b613db390600886015f5260205f20601f850160051c81019160208610613c5757601f0160051c0190613637565b5f613a34565b015190505f806139ee565b9250600784015f5260205f20905f935b601f1984168510613e17576001945083601f19811610613dff575b505050811b016007820155613a05565b01515f1960f88460031b161c191690555f8080613def565b81810151835560209485019460019093019290910190613dd4565b613e5f90600786015f5260205f20601f850160051c81019160208610613c5757601f0160051c0190613637565b5f6139d8565b015190505f80613993565b9250600684015f5260205f20905f935b601f1984168510613ec3576001945083601f19811610613eab575b505050811b0160068201556139aa565b01515f1960f88460031b161c191690555f8080613e9b565b81810151835560209485019460019093019290910190613e80565b613f0b90600686015f5260205f20601f850160051c81019160208610613c5757601f0160051c0190613637565b5f61397d565b5f925f5b601f19831683038110613f3157505060051c01555f808061394c565b90936020613f566001928460ff895116919060ff809160031b9316831b921b19161790565b95019101613f15565b5f805b60208110613f77575083820155600101613935565b855190959160019160209160ff60038a901b81811b199092169216901b1792019501613f62565b613fcc90600586015f52601f845f209181871680613fd2575b500160051c810190601f860160051c01613637565b5f613925565b5f199081848a0160051c86010191825491890360031b1c1690555f613fb7565b015190505f806138d7565b9250600484015f5260205f20905f935b601f1984168510614050576001945083601f19811610614038575b505050811b0160048201556138ee565b01515f1960f88460031b161c191690555f8080614028565b8181015183556020948501946001909301929091019061400d565b61409890600486015f5260205f20601f850160051c81019160208610613c5757601f0160051c0190613637565b5f6138c1565b9094506020813d6020116140d2575b816140ba60209383612374565b810103126122c7576140cb90613065565b935f613769565b3d91506140ad565b9094506020813d60201161410e575b816140f660209383612374565b810103126122c75761410790613065565b935f613703565b3d91506140e9565b6001600160a01b038083165f9081526101356020526040808220600b015490979691959394939060ff1660038110156141eb576001036141da57829161417e9189959461012e54169361013454169486519788968796627e8ae960e01b885260048801613135565b038173090BF41f1A0d492f4f411A368A4d63376f60b8305af49384156141cf5782946141ab575b50509190565b6141c693945080919250903d106108d3576108c58183612374565b91905f806141a5565b51913d9150823e3d90fd5b87516305e1dfe360e11b8152600490fd5b634e487b7160e01b87526021600452602487fd5b61012e546101345460408051633c529ea760e01b815273090BF41f1A0d492f4f411A368A4d63376f60b83098909790965f959294899485946142559493928a926001600160a01b03908116911660048801613135565b0381885af4801561362a57819482916149a3575b509394614275836155f1565b61013d54111561428457505050565b6001600160a01b038316825261013560205260408220600b8101805460ff16600381101561498f5760021461497d5760028201805460405163c66f245560e01b815294919391906001600160a01b0316602086600481845afa9586156148e2578796614948575b5090602060049392604051948580926316d3df1560e31b82525afa9283156148e2578793614914575b5061012e54610134546001600160a01b039081169116823b15610c72579060648992604051948593849263e743240d60e01b84526004840152602483015260018060a01b038d1660448301525af480156148e257614901575b506001600160a01b0387163b15610c7e5760405163f1b50c1d60e01b81528681600481836001600160a01b038d165af180156148e2579087916148ed575b505090614424939291604080516143c18161233e565b6002815281366020830137610134546001600160a01b03166143e282613079565b526001600160a01b038a166143f682613086565b5260018060a01b0361013354168251808099819463237c65f960e01b83528660048401526044830190613096565b6001602483015203915afa9485156148e2578795614899575b50600301546001600160a01b031694853b15610c7a5760405163179a694160e11b81526001600160a01b03861660048201528781602481838b5af1801561488e5789918991614877575b50506145a2916145b560018060a01b036101345416945f94858094614567604051916144b28361233e565b6002835260403660208501378a6144c884613079565b526001600160a01b0389166144dc84613086565b52614554604051966144ed8861233e565b6002885260403660208a01378261450389613079565b528061450e89613086565b526040519a61451c8c61233e565b60028c5260403660208e0137836145328d613079565b528161453d8d613086565b52610133546001600160a01b03908116911661542b565b610133546001600160a01b03168b61542b565b6145c460018060a01b0361013354169460405198899788968795623c7cd360e91b87526001600488015260e0602488015260e4870190613096565b600319938487830301604488015261501d565b9184830301606485015261501d565b8260848301523060a48301524260c483015203925af190811561356857829083926147cc575b50806145f86145fe92613079565b50613086565b5061461381886001600160a01b03891661542b565b863b156106f557604051906340519a5360e01b825260048201528181602481838b5af18015613568576147bd575b506040516370a0823160e01b80825230600483015296906020816024816001600160a01b038e165afa9081156134f957839161478b575b50604051978852306004890152602088602481875afa9283156134cf5792614737575b7f381d54fa425631e6266af114239150fae1d5db67bb65b4fa9ecc65013107e07e97508061471d575b5050806146fd575b5050805460ff1916600217905580546001600160a01b0319166001600160a01b0392831690811790915593169180a3565b61012d54614716926001600160a01b03909116906153f2565b5f806146cc565b614730916001600160a01b038b166153f2565b5f806146c4565b91506020873d602011614783575b8161475260209383612374565b810103126122c7577f381d54fa425631e6266af114239150fae1d5db67bb65b4fa9ecc65013107e07e96519161469b565b3d9150614745565b90506020813d6020116147b5575b816147a660209383612374565b810103126122c757515f614678565b3d9150614799565b6147c6906122e1565b5f614641565b9150503d8083833e6147de8183612374565b8101906040818303126103c6578051916001600160401b03831161117c5780601f84840101121561117c578282015190614817826123f6565b936148256040519586612374565b828552602085019160208460051b838701010111610c7e57602081850101915b60208460051b83870101018310614867575050505060200151906145fe6145ea565b8251815260209283019201614845565b6148829192506122e1565b610c7a5787875f614487565b6040513d8a823e3d90fd5b9094506040813d6040116148da575b816148b560409383612374565b81010312610c7a576148d260206148cb83613065565b9201612ea4565b50935f61443d565b3d91506148a8565b6040513d89823e3d90fd5b6148f6906122e1565b610c7e57855f6143ab565b61490d909691966122e1565b945f61436d565b9092506020813d602011614940575b8161493060209383612374565b81010312610c7a5751915f614314565b3d9150614923565b9095506020813d602011614975575b8161496460209383612374565b81010312610c7a57519460206142eb565b3d9150614957565b604051633a2cc0e960e11b8152600490fd5b634e487b7160e01b85526021600452602485fd5b90506149bf91945060403d6040116108d3576108c58183612374565b9390935f614269565b6001600160a01b0391821691905f908315614a72578216918282526101356020526003604083200154168015614a6057803b156106f557818091602460405180948193631bf3091560e11b83528960048401525af1801561356857907f7363600ac233591b10e402fcff7bdaf80647430d9e03638e669d4834950433229291614a51575b5080a3565b614a5a906122e1565b5f614a4c565b60405163ab54b81360e01b8152600490fd5b60405163e04bb5d960e01b8152600490fd5b9190811015612b2d5760051b0190565b356001600160a01b03811681036122c75790565b9594939291906020999d9b979c9860805261013b545f9a8b91602460018060a01b036101345416604051948593849263fc57d4df60e01b8452600484015260018060a01b03165af18015614fef578b90614fb7575b614b0a9150608051612af5565b808060011b0460021481151715614fa35760018b5261013960205260408b205490670de0b6b3a764000091828102928184041490151715614f8f5760011b10614f7d57614b569661364d565b6001600160a01b0381168452610135602052604080852090519891959190614b7d8a61233e565b60028a5260403660208c0137610134546001600160a01b0316614b9f8b613079565b526001600160a01b038716614bb38b613086565b526101335460405163c45a015560e01b815290602090829060049082906001600160a01b03165afa9081156148e2578791614f37575b50614c2698999a60209160405191600184840152838352614c0983612323565b89604051809d81958294632a422c2b60e21b8452600484016130d2565b03926001600160a01b03165af1978815614f2c578698614ef0575b50600b8101805460ff19166002908117909155810180546001600160a01b0319166001600160a01b038a8116919091179091556003909101541696873b15610c7e5760405163179a694160e11b81526001600160a01b03821660048201528681602481838d5af180156148e257614edd575b50604051614cc081612308565b600181526001600160a01b0388168752610137602052604087209051815460ff191660ff9190911617905561013854600160401b8110156122f457600181018061013855811015612b2d576101385f527ff79a63dcec80ed75c82f36161f17b9c2f407860160383a7be0a0ee7962c527ae0180546001600160a01b0319166001600160a01b0389169081179091553b15610c7e5760405163f1b50c1d60e01b81528681600481836001600160a01b038d165af180156148e257614ec9575b50614e139596979899610136546040519081526001602082015242604082015260018060a01b038316907f58d1495ede629d89cfe4c00a5ad620a9ba231de4b1a5040c7b355d43092ff86b606060018060a01b038d1692a36101345461012d54608051614dfb92909130916001600160a01b039182169116612e53565b60805191898b60018060a01b03610134541692615050565b92915093614e248561013154612d5f565b813b156103c65760405163da3e339760e01b81526001600160a01b038616600482015230602482015260448101919091529082908290606490829084905af1801561356857614eb5575b5050604080516001815260208101949094528301526001600160a01b0316907f4e8e1b96afa9116446f71ff323ac93786664fcbea87475ece33519357750f79090606090a2565b614ebf82916122e1565b61042b5780614e6e565b614ed387916122e1565b610c7e575f614d7e565b614ee9909691966122e1565b945f614cb3565b9097506020813d602011614f24575b81614f0c60209383612374565b81010312610c7e57614f1d90613065565b965f614c41565b3d9150614eff565b6040513d88823e3d90fd5b90506020813d602011614f75575b81614f5260209383612374565b81010312610c7a57614c2698999a614f6b602092613065565b91509a9998614be9565b3d9150614f45565b604051634088b74160e01b8152600490fd5b634e487b7160e01b8c52601160045260248cfd5b634e487b7160e01b8b52601160045260248bfd5b506020813d602011614fe7575b81614fd160209383612374565b81010312614fe357614b0a9051614afd565b8a80fd5b3d9150614fc4565b6040513d8d823e3d90fd5b60ff60019116019060ff8211612b0857565b60ff1660ff8114612b085760010190565b9081518082526020808093019301915f5b82811061503c575050505090565b83518552938101939281019260010161502e565b9897909996919392955f809681956040519161506b8361233e565b60028352604036602085013761508083613079565b6001600160a01b038c16905261509583613086565b6001600160a01b038a169052604051946150ae8661233e565b600286526040366020880137816150c487613079565b52826150cf87613086565b52604051976150dd8961233e565b6002895260403660208b01376150f289613079565b526150fc88613086565b526101338054909261511b916001600160a01b03908116908c1661542b565b815461513591906001600160a01b03908116908d1661542b565b54604051623c7cd360e91b81526001600482015260e060248201529b8c966001600160a01b0390921695879586949193916151749060e4870190613096565b90600319918287820301604488015261518c9161501d565b9085820301606486015261519f9161501d565b9160848401523060a484015260c483015203925af1968715613568578295839861535b575b50876151ee81836151de6151d78b613079565b519a613086565b519a6001600160a01b031661542b565b6001600160a01b03821690813b156111785784916024839260405194859384926340519a5360e01b845260048401525af180156153505761533d575b506040516370a0823160e01b8082523060048301529091906020836024816001600160a01b0388165afa92831561353a578593615309575b506040519081523060048201526020816024816001600160a01b038a165afa9485156134cf57946152d5575b50816152bb575b505050806152a1575050565b61012d546125d1926001600160a01b0391821691166153f2565b6152cd926001600160a01b03166153f2565b5f8080615295565b9093506020813d602011615301575b816152f160209383612374565b810103126122c75751925f61528e565b3d91506152e4565b9092506020813d602011615335575b8161532560209383612374565b810103126122c75751915f615262565b3d9150615318565b615349909391936122e1565b915f61522a565b6040513d86823e3d90fd5b955096503d8083873e61536e8187612374565b8501946040818703126103c65780516001600160401b03811161117c5781019580601f8801121561117c5786516153a4816123f6565b976153b2604051998a612374565b8189526020808a019260051b820101928311610c7e57602001905b8282106153e25750505060200151965f6151c4565b81518152602091820191016153cd565b60405163a9059cbb60e01b60208201526001600160a01b03909216602483015260448201929092526125d191612e9f8260648101612e91565b60405163095ea7b360e01b602082018181526001600160a01b038516602484015260448084019690965294825294939092615467606485612374565b83515f926001600160a01b039291858416918591829182855af19061548a612f9d565b82615514575b5081615509575b50156154a7575b50505050509050565b6040519660208801521660248601528060448601526044855260808501908582106001600160401b038311176154f557506154ea9394612e9f9160405282612eb1565b805f8080808061549e565b634e487b7160e01b81526041600452602490fd5b90503b15155f615497565b8051919250811591821561552c575b5050905f615490565b81925090602091810103126111785760206155479101612ea4565b5f80615523565b60ff1680156155cb575f19810160ff8111612b085760ff165f52610139908160205260405f20548311156155b9577f1d518eb390459a1912a9b14c91cc0e67b8449b23fe75f7766658bd86057cb1a392604092825f5260205280835f205582519182526020820152a1565b60405163aabd5a0960e01b8152600490fd5b60405163e82a532960e01b8152600490fd5b51906001600160701b03821682036122c757565b60018060a01b03809116905f828152602090610135825260409182822060ff600b8201541690600382101561588957811561587857908392918661013b5416966101349184828454169960248a51809a819363fc57d4df60e01b835260049e8f8401525af196871561586e57869761583f575b50861561582f576002015481169260010361577d5750509084869392815197888092630240bc6b60e21b82525afa80156157735782968391615750575b5095965b87158015615748575b6157385781908651948580926318160ddd60e01b82525afa9485156141cf57508194615701575b5050506156fd926156f3670de0b6b3a764000095936156f893612af5565b612af5565b613101565b0490565b909180939450813d8311615731575b61571a8183612374565b8101031261042b57505190826156f36156f86156d5565b503d615710565b8551633dce448b60e11b81528490fd5b5086156156ae565b905061576a919650853d87116108d3576108c58183612374565b9590955f6156a1565b85513d84823e3d90fd5b8651630240bc6b60e21b815291979493926060908390879082905afa91821561582557849085936157d0575b506001600160701b03809116921697541688105f146157cb57955b95966156a5565b6157c4565b9250506060823d821161581d575b816157eb60609383612374565b8101031261117c576157fc826155dd565b876158088585016155dd565b93015163ffffffff811603611178575f6157a9565b3d91506157de565b87513d86823e3d90fd5b8751631d59567b60e11b81528990fd5b9096508481813d8311615867575b6158578183612374565b81010312610c7e5751955f615664565b503d61584d565b88513d88823e3d90fd5b845163c1ab6dc160e01b8152600490fd5b634e487b7160e01b84526021600452602484fd5b156158a457565b60405162461bcd60e51b815260206004820152602e60248201527f496e697469616c697a61626c653a20636f6e747261637420697320616c72656160448201526d191e481a5b9a5d1a585b1a5e995960921b6064820152608490fd5b1561590757565b60405162461bcd60e51b815260206004820152602b60248201527f496e697469616c697a61626c653a20636f6e7472616374206973206e6f74206960448201526a6e697469616c697a696e6760a81b6064820152608490fd5b93959192959490946101325496873410612e025761013480546001600160a01b0399908a1691823b156122c7575f60049360405194858092630d0e30db60e41b825234905af18015612e4857612de29b6159cb9484926159f0575b50816159d5575b50505034612d5f565b943397309761316f565b806159e89354169061012d5416906153f2565b5f81816159c2565b6159f9906122e1565b5f6159bb56fea2646970667358221220cc8a9f34ed6ff51a5725fb15c8c90814e6c07909b2a5a736f93a61c1b7a8ccf964736f6c63430008140033",
  "deployedBytecode": "0x60a060408181526004918236101561007d575b50361561005c57906020606492519162461bcd60e51b8352820152602060248201527f44697265637420455448207472616e7366657273206e6f7420616c6c6f7765646044820152fd5b610134546001600160a01b0316330361007157005b516282b42960e81b8152fd5b5f90813560e01c908163017e7e581461228b5750806301b964d21461221b57806301ffc9a7146121c557806302b6b15a146120ef5780630d63237f146120985780630d7a94f6146120345780631083f7611461200a5780631db9be1b14611fe0578063248a9ca314611fb557806326bde5aa14611f455780632f2ff15d14611e985780632f73a9f814611e2857806336568abe14611d975780633744cfdd14611d12578063378dc3dc14611cf25780633b5f193514611cd25780633c0b93aa14611c095780633fc8cef314611bc557806341344d5d14611b985780634189a68e14611b6d578063444aa92f14611af0578063456f5e1514611a1e5780634d860303146119de57806354818605146118d25780635823892a146118265780635bb47808146117b65780635e7b8d95146116ee5780635edb9eb0146116ce578063614025961461167f578063715018a6146115ab57806372641aa61461157957806377796ace1461150957806378a89567146114e957806379ba5097146114635780637adbf973146113785780637c13774b146113215780637dc0d1d0146112f75780637deb6025146112885780637f7ee431146111a95780638da5cb5b146111805780638f876f8c1461108b57806391d1485414611044578063a217fddf14611029578063a240de0314610fff578063a3e01ce314610ec3578063a8b3820514610ea3578063ae29d56814610e71578063b4f2e8b814610df7578063b758ba8814610dbc578063c17ac35a14610d64578063c1ba290714610d44578063c45a015514610d1a578063c75ed64414610cbe578063c78418b914610c82578063c8379f811461095d578063d547741f14610921578063d723a3d2146108e4578063d98b2f5c14610817578063ddca3f43146107f7578063df1dcaa91461078b578063e30c397814610762578063e77772fe14610738578063e84ca7cb146106f9578063ee3cd15b14610649578063f2fde38b146105db578063f5dab71114610494578063f943ce071461042e578063fa1653bd146103ca5763feab61eb036100125791346103c657816003193601126103c65761039561240d565b9161039e612a9d565b600360ff8416116103b957836103b66024358561554e565b80f35b5163e82a532960e01b8152fd5b8280fd5b5082903461042b57602036600319011261042b576001600160a01b036103ee6122b1565b16815261013560205260ff600b848320015416916003831015610418576020836002865191148152f35b634e487b7160e01b825260219052602490fd5b80fd5b509190346103c65760203660031901126103c65781359161044d612a9d565b82156104865750816020917f51dfcc99f9c590c7a4bcf74fc4e9ae6b407ec6689eb354e3215563a0b5bcd00d9361013c5551908152a180f35b90516338c51d2560e21b8152fd5b503461042b57602036600319011261042b576001600160a01b03806104b76122b1565b1682526101356020528282208181541693826001830154169280600284015416906003840154168784016104ea90612595565b6104f660068601612595565b9061050360078701612595565b9261051060088801612595565b9461051d60098901612595565b9661052a600a8a01612595565b98600b015460ff169981519c8d5260208d01528b015260608a01526101608060808b0152890161055991612657565b88810360a08a015261056a91612657565b87810360c089015261057b91612657565b86810360e088015261058c91612657565b85810361010087015261059e91612657565b8481036101208601526105b091612657565b9160038210156105c857508293506101408301520390f35b634e487b7160e01b815260218552602490fd5b503461042b57602036600319011261042b576105f56122b1565b6105fd612a9d565b609780546001600160a01b0319166001600160a01b039283169081179091556065549091167f38d16b8cac22d99fc7c124b9cd0de2d3fa1faef420bfe791d8c362d765e227008380a380f35b503461042b578160031936011261042b576106706106656122cb565b309033908635614116565b61013454909291506001600160a01b0316803b156106f5578180916024865180948193632e1a7d4d60e01b8352888b8401525af180156106eb576106dc575b5080808093335af16106bf612f9d565b50156106cf576020905160018152f35b5163b12d13eb60e01b8152fd5b6106e5906122e1565b5f6106af565b84513d84823e3d90fd5b5080fd5b5090346106f55760203660031901126106f55760209160ff9082906001600160a01b036107246122b1565b168152610137855220541615159051908152f35b5090346106f557816003193601126106f55761012f5490516001600160a01b039091168152602090f35b5090346106f557816003193601126106f55760975490516001600160a01b039091168152602090f35b509190346103c65760203660031901126103c6578135916107aa612a9d565b6301e133808311156107e95750816020917fbeaba78e9fea37c532e9c93af5e8e120a48902131aeb7d3146e3ca49dec45a239361013a5551908152a180f35b905163abf20e8f60e01b8152fd5b5090346106f557816003193601126106f557602090610132549051908152f35b5082346106f557826003193601126106f557826108326122b1565b61012e5461013454835163a6b8918760e01b81526001600160a01b03928316958101958652908216602086015291166040840152602435606084015291829081906080015b038173__$57bf2248a10612b83e4be7103a658af84f$__5af49081156108da5782916108ab575b5082519182526020820152f35b90506108cd9150823d84116108d3575b6108c58183612374565b81019061311f565b8361089e565b503d6108bb565b83513d84823e3d90fd5b5090346106f55760203660031901126106f55760209160ff9082906001600160a01b0361090f6122b1565b16815261013785522054169051908152f35b509190346103c657806003193601126103c6576103b6913561095860016109466122cb565b9383875260fb60205286200154612895565b612a28565b5091346103c6576101803660031901126103c6576109796122b1565b6109816122cb565b906044356001600160a01b0381168103610c7e5760a435916001600160a01b0383168303610c7a5760c435926001600160a01b0384168403610c765760e435926001600160a01b0384168403610c725761012435936001600160a01b0385168503610c6e5789549760ff8960081c16159889809a610c61575b8015610c4a575b610a0a9061589d565b60ff1981166001178c5589610c39575b506001600160a01b037f0000000000000000000000000000000000000000000000000000000000000000811690861603610c2b575089549560ff8760081c161596878098610c1e575b8015610c07575b610a739061589d565b60ff1981166001178c5587610bf6575b50610a9d60ff8c5460081c16610a9881615900565b615900565b610aa633612c3c565b8a5497610ace60ff8a60081c16610abc81615900565b610ac581615900565b60018055615900565b61013480546001600160a01b03199081166001600160a01b039889161790915561012e805482169288169290921790915561012f8054821692871692909217909155610130805482169286169290921790915561012d8054821692851692909217909155606435610132556084356101315561013380548216928416929092179091556101043561013a5561013b8054909116929091169190911790556101443561013c556101643561013d55610bbf575b50610b89575080f35b60207f7f26b83ff96e1f2b6a682f133852f6798a09c465da95921460cefb38474024989161ff001984541684555160018152a180f35b61ff00191683557f7f26b83ff96e1f2b6a682f133852f6798a09c465da95921460cefb38474024986020835160018152a15f610b80565b61ffff1916610101178b555f610a83565b50303b158015610a6a575060ff8116600114610a6a565b50600160ff821610610a63565b8951633bb31a5160e21b8152fd5b61ffff1916610101178b555f610a1a565b50303b158015610a01575060ff8116600114610a01565b50600160ff8216106109fa565b8980fd5b8880fd5b8780fd5b8680fd5b8580fd5b5090346106f55760203660031901126106f5576020916001600160a01b0390829082610cac6122b1565b16815261013585522054169051908152f35b509190346103c65760203660031901126103c657813591610cdd612a9d565b61013c5483106104865750816020917fc598615f3cd2c393145f278de5a6921fd815849d1ee5aab7b66bdda0efb33ada9361013d5551908152a180f35b5090346106f557816003193601126106f55761012e5490516001600160a01b039091168152602090f35b5090346106f557816003193601126106f55760209061013d549051908152f35b5090346106f55760203660031901126106f55780602092610d836122b1565b818351610d8f81612308565b526001600160a01b031681526101378452208151919060ff90610db184612308565b541680925251908152f35b5090346106f557816003193601126106f557602090517f62229496573be0b0846a2fb48a94de962b501adb0b8eaf7f99924b10a81a19fe8152f35b509190346103c657806003193601126103c6577fc8242dc5446855370b781abbfc5d882af1d1a3cc29143216aba3558feb0ce9259135610e356122cb565b610e3d612a9d565b61013282905561012d80546001600160a01b0319166001600160a01b0392909216918217905582519182526020820152a180f35b5090346106f55760203660031901126106f5578060209260ff610e9261240d565b168152610139845220549051908152f35b5090346106f557816003193601126106f55760209061013a549051908152f35b5091346103c657610ed336612523565b94610ee598969894919493929361267c565b6001600160a01b03898116808c52610137602052888c208054919b909a909291610f119060ff16614ffa565b60ff16600203610ff1578c8a610f26856155f1565b9160028152610139602052205411610fe3575092610fb495928b7f4e8e1b96afa9116446f71ff323ac93786664fcbea87475ece33519357750f7909b9996938b99968f9c8d8460609f5261013560205220908060028160038501541693610fa88861013498610fa08c878c54168861012d54163091612e53565b873091612e53565b01541693541692615050565b92915092805460ff610fc781831661500c565b169060ff1916179055805192600284526020840152820152a280f35b8951639dc93e9f60e01b8152fd5b8951636dfb3ae160e01b8152fd5b5090346106f557816003193601126106f5576101335490516001600160a01b039091168152602090f35b5090346106f557816003193601126106f55751908152602090f35b5091346103c657816003193601126103c6578160209360ff926110656122cb565b9035825260fb86528282206001600160a01b039091168252855220549151911615158152f35b5060c036600319011261042b576001600160401b0383358181116103c6576110b690369086016123b0565b9360243582811161117c576110ce90369083016123b0565b604435838111611178576110e5903690840161241d565b91606435848111610c7e576110fd90369083016123b0565b93608435818111610c7a5761111590369084016123b0565b9560a43591821161042b575091611139611148969492611174999694369101612485565b94611142612d09565b33615960565b6001805592516001600160a01b0392831681529116602082015260408101919091529081906060820190565b0390f35b8480fd5b8380fd5b5090346106f557816003193601126106f55760655490516001600160a01b039091168152602090f35b5082346106f5576101a03660031901126106f5576111c56122b1565b6001600160401b0390602435828111611178576111e590369085016123b0565b604435838111610c7e576111fc90369086016123b0565b606435848111610c7a57611213903690870161241d565b91608435858111610c765761122b90369088016123b0565b9360a435868111610c725761124390369089016123b0565b9560c435908111610c72576103b69761125e91369101612485565b61126661267c565b6101843596610164359661014435966101243596610104359660e43596614aa8565b503461042b578160031936011261042b576112a16122cb565b9060018060a01b038216815261013560205260ff600b8483200154169060038210156105c857506001036112e9576112e09060209333913391356141ff565b50505160018152f35b50516305e1dfe360e11b8152fd5b5090346106f557816003193601126106f55761013b5490516001600160a01b039091168152602090f35b5091346103c65760203660031901126103c65735610136805482101561117c576020935260018060a01b03907f39da2db355130acf428d669fbf1c14faa9d51399a25b793fc254bbbde66f02e20154169051908152f35b5090346106f557602090816003193601126103c6576113956122b1565b9061139e612a9d565b61013454815163fc57d4df60e01b81526001600160a01b0391821687820152921691838160248188875af190811561145957859161142c575b501561141d5761013b80546001600160a01b03191683179055519081529192507f3f32684a32a11dabdbb8c0177de80aa3ae36a004d75210335b49e544e48cd0aa91a180f35b51639589a27d60e01b81528490fd5b90508381813d8311611452575b6114438183612374565b8101031261117857515f6113d7565b503d611439565b82513d87823e3d90fd5b509190346103c657826003193601126103c657609754336001600160a01b039091160361149457826103b633612c3c565b906020608492519162461bcd60e51b8352820152602960248201527f4f776e61626c6532537465703a2063616c6c6572206973206e6f7420746865206044820152683732bb9037bbb732b960b91b6064820152fd5b5090346106f557816003193601126106f557602090610136549051908152f35b5090346106f55760203660031901126106f55760207f0454b4498edcb0a2c7058cfd107bb0e6551b3820f891c725db307ed66e740f20916115486122b1565b611550612a9d565b61013380546001600160a01b0319166001600160a01b039290921691821790559051908152a180f35b5090346106f55736600319011261042b576103b66115956122b1565b61159d6122cb565b906115a6612a9d565b6149c8565b5090346106f557816003193601126106f5576115c5612a9d565b60655482906001600160a01b03906115de90821661299e565b6001600160601b0360a01b8060975416609755606554908116606555167f8be0079c531659141344cd1fd0a4f28419497f9722a3daafe3b4186f6b6457e08280a381805260fb60205280822060205260ff81832054161561163d575080f35b60fb6020528082206020528120600160ff198254161790553381807f2f8788117e7eff1d82e926ec794901d17c78024a50270940304540a733656f0d8180a480f35b5091346103c65760203660031901126103c6577fedbbbd0f3b9ac5d8f4d9142fe0b31c73d786619eab0d7f8df600fe84282a4d439160209135906116c1612a9d565b816101315551908152a180f35b5090346106f557816003193601126106f557602090610138549051908152f35b5060e036600319011261042b576117036122b1565b926001600160401b039060243582811161117c5761172490369083016123b0565b6044358381116111785761173b90369084016123b0565b90606435848111610c7e57611753903690850161241d565b92608435858111610c7a5761176b90369083016123b0565b9460a435818111610c765761178390369084016123b0565b9660c43591821161042b5750916117a861117499969492611148989694369101612485565b956117b1612d09565b615960565b5090346106f55760203660031901126106f55760207f1edf3afd4ac789736e00d216cd88be164ddcef26a6eedcc30cdb0cb62f3741b1916117f56122b1565b6117fd612a9d565b61012e80546001600160a01b0319166001600160a01b039290921691821790559051908152a180f35b509190346103c657806003193601126103c6576001600160401b039180358381116111785761185890369083016124f3565b9093602435908111610c7e5761187190369084016124f3565b92909361187c612a9d565b8383036118c5575050845b818110611892578580f35b806118bf6118ab6118a6600194868a614a84565b614a94565b6118b96118a684888a614a84565b906149c8565b01611887565b516305e8333d60e11b8152fd5b5091346103c6576118e236612523565b946118f498969894919493929361267c565b6001600160a01b03898116808c52610137602052888c208054919b909a9092916119209060ff16614ffa565b60ff16600303610ff1578c8a611935856155f1565b9160038152610139602052205411610fe35750926119af95928b7f4e8e1b96afa9116446f71ff323ac93786664fcbea87475ece33519357750f7909b9996938b99968f9c8d8460609f5261013560205220908060028160038501541693610fa88861013498610fa08c878c54168861012d54163091612e53565b92915092805460ff6119c281831661500c565b169060ff1916179055805192600384526020840152820152a280f35b5090346106f55760203660031901126106f5576020916001600160a01b0390600390839083611a0b6122b1565b1681526101358652200154169051908152f35b5091346103c6576101003660031901126103c657611a3a6122b1565b926001600160401b036024358181116103c657611a5a90369085016123b0565b9260443582811161117c57611a7290369083016123b0565b60643583811161117857611a89903690840161241d565b91608435848111610c7e57611aa190369083016123b0565b9360a435818111610c7a57611ab990369084016123b0565b9560c43591821161042b575091611ade61117499969492611148989694369101612485565b94611ae7612d09565b60e43596612d6c565b509160203660031901126103c657611b066122b1565b610134549093906001600160a01b0316803b156106f5578190845193848092630d0e30db60e41b825234905af1908115611b625750926112e091602094611b53575b5033903090346141ff565b611b5c906122e1565b5f611b48565b8351903d90823e3d90fd5b503461042b578160031936011261042b57506112e0602092611b8d6122cb565b903391339135614116565b5090346106f55760203660031901126106f557602090611bbe611bb96122b1565b6155f1565b9051908152f35b5090346106f557816003193601126106f557517f00000000000000000000000000000000000000000000000000000000000000006001600160a01b03168152602090f35b5091346103c65760e03660031901126103c6576001600160401b039281358481116106f557611c3b90369084016123b0565b936024358181116103c657611c5390369085016123b0565b9260443582811161117c57611c6b903690830161241d565b9060643583811161117857611c8390369083016123b0565b92608435818111610c7e57611c9b90369084016123b0565b9460a43591821161042b575091611cbf611148969492611174999694369101612485565b93611cc8612d09565b60c4359533612d6c565b5090346106f557816003193601126106f55760209061013c549051908152f35b5090346106f557816003193601126106f557602090610131549051908152f35b5090346106f55760203660031901126106f55782356001600160401b0381116103c657611d4290369085016124f3565b9093611d4c612a9d565b6003928383036118c5575050825b60ff811683811015611d935790611d89611d8e92611d82611d7a84614ffa565b91868a614a84565b359061554e565b61500c565b611d5a565b8480f35b5082346106f557826003193601126106f557611db16122cb565b90336001600160a01b03831603611dcd57906103b69135612a28565b608490602085519162461bcd60e51b8352820152602f60248201527f416363657373436f6e74726f6c3a2063616e206f6e6c792072656e6f756e636560448201526e103937b632b9903337b91039b2b63360891b6064820152fd5b5090346106f55760203660031901126106f55760207fcf4be1c851767114c1f4b298dc84eab48d103473908393f6d408c82ba7cda0e891611e676122b1565b611e6f612a9d565b61012f80546001600160a01b0319166001600160a01b039290921691821790559051908152a180f35b5091346103c657816003193601126103c6573590611eb46122cb565b9082845260fb602052611ecc60018286200154612895565b82845260fb60209081528185206001600160a01b039093168086529290528084205460ff1615611efa578380f35b82845260fb6020528084208285526020528320600160ff1982541617905533917f2f8788117e7eff1d82e926ec794901d17c78024a50270940304540a733656f0d8480a45f80808380f35b5090346106f55760203660031901126106f55760207fbdaa8f7ade01473981aef419539e6c190d409f50b144a7a796efd2777607920c91611f846122b1565b611f8c612a9d565b61013480546001600160a01b0319166001600160a01b039290921691821790559051908152a180f35b5091346103c65760203660031901126103c6578160209360019235815260fb85522001549051908152f35b5090346106f557816003193601126106f5576101305490516001600160a01b039091168152602090f35b5090346106f557816003193601126106f5576101345490516001600160a01b039091168152602090f35b5082346106f557826003193601126106f5578261204f6122b1565b61012e54610134548351631d486c9760e21b81526001600160a01b0392831695810195865290821660208601529116604084015260243560608401529182908190608001610877565b5091346103c65760203660031901126103c65735610138805482101561117c576020935260018060a01b03907ff79a63dcec80ed75c82f36161f17b9c2f407860160383a7be0a0ee7962c527ae0154169051908152f35b5082346106f5576101803660031901126106f5576001600160401b03813581811161117c5761212190369084016123b0565b906024358181116111785761213990369085016123b0565b604435828111610c7e57612150903690860161241d565b606435838111610c7a5761216790369087016123b0565b91608435848111610c765761217f90369088016123b0565b9360a435908111610c76576103b69661219a91369101612485565b946121a361267c565b610164359561014435956101243595610104359560e4359560c4359533614aa8565b5091346103c65760203660031901126103c657359063ffffffff60e01b82168092036103c65760209250637965db0b60e01b821491821561220a575b50519015158152f35b6301ffc9a760e01b1491505f612201565b5090346106f55760203660031901126106f55760207f3587ea62a24fc6959886ef88a458920ef0762b7ecbae1e87892c731869362d699161225a6122b1565b612262612a9d565b61013080546001600160a01b0319166001600160a01b039290921691821790559051908152a180f35b9050346106f557816003193601126106f55761012d546001600160a01b03168152602090f35b600435906001600160a01b03821682036122c757565b5f80fd5b602435906001600160a01b03821682036122c757565b6001600160401b0381116122f457604052565b634e487b7160e01b5f52604160045260245ffd5b602081019081106001600160401b038211176122f457604052565b604081019081106001600160401b038211176122f457604052565b606081019081106001600160401b038211176122f457604052565b608081019081106001600160401b038211176122f457604052565b90601f801991011681019081106001600160401b038211176122f457604052565b6001600160401b0381116122f457601f01601f191660200190565b81601f820112156122c7578035906123c782612395565b926123d56040519485612374565b828452602083830101116122c757815f926020809301838601378301015290565b6001600160401b0381116122f45760051b60200190565b6004359060ff821682036122c757565b81601f820112156122c757803591612434836123f6565b926124426040519485612374565b808452602092838086019260051b8201019283116122c7578301905b82821061246c575050505090565b813560ff811681036122c757815290830190830161245e565b9080601f830112156122c757604051916001600160401b0360808401818111858210176122f4576040528360808301928484116122c75780915b8483106124cf5750505050505090565b82358481116122c7576020916124e888849386016123b0565b8152019201916124bf565b9181601f840112156122c7578235916001600160401b0383116122c7576020808501948460051b0101116122c757565b60e09060031901126122c7576004356001600160a01b03811681036122c757906024359060443590606435906084359060a4359060c43590565b90600182811c9216801561258b575b602083101461257757565b634e487b7160e01b5f52602260045260245ffd5b91607f169161256c565b9060405191825f8254926125a88461255d565b9081845260019485811690815f1461261357506001146125d3575b50506125d192500383612374565b565b909391505f52602090815f20935f915b8183106125fb5750506125d193508201015f806125c3565b855488840185015294850194879450918301916125e3565b9150506125d194506020925060ff191682840152151560051b8201015f806125c3565b5f5b8381106126475750505f910152565b8181015183820152602001612638565b9060209161267081518092818552858086019101612636565b601f01601f1916010190565b335f9081527f08f584bb5334faafa280854191c286de8f907d6af8dd5e653110c56d426e0054602090815260408083205490927f62229496573be0b0846a2fb48a94de962b501adb0b8eaf7f99924b10a81a19fe9160ff16156126df5750505050565b6126e833612b41565b918451906126f582612359565b6042825284820192606036853782511561288157603084538251906001918210156128815790607860218501536041915b818311612814575050506127d25760486127ce9386936127b2936127a3985198899376020b1b1b2b9b9a1b7b73a3937b61d1030b1b1b7bab73a1604d1b8a86015261277a815180928c603789019101612636565b8401917001034b99036b4b9b9b4b733903937b6329607d1b603784015251809386840190612636565b01036028810187520185612374565b5192839262461bcd60e51b845260048401526024830190612657565b0390fd5b60648486519062461bcd60e51b825280600483015260248201527f537472696e67733a20686578206c656e67746820696e73756666696369656e746044820152fd5b909192600f8116601081101561286d576f181899199a1a9b1b9c1cb0b131b232b360811b901a6128448587612b1c565b5360041c928015612859575f19019190612726565b634e487b7160e01b82526011600452602482fd5b634e487b7160e01b83526032600452602483fd5b634e487b7160e01b81526032600452602490fd5b5f9080825260209060fb8252604092838120338252835260ff8482205416156128be5750505050565b6128c733612b41565b918451906128d482612359565b6042825284820192606036853782511561288157603084538251906001918210156128815790607860218501536041915b818311612959575050506127d25760486127ce9386936127b2936127a3985198899376020b1b1b2b9b9a1b7b73a3937b61d1030b1b1b7bab73a1604d1b8a86015261277a815180928c603789019101612636565b909192600f8116601081101561286d576f181899199a1a9b1b9c1cb0b131b232b360811b901a6129898587612b1c565b5360041c928015612859575f19019190612905565b6001600160a01b03165f8181527fc88390e7e62175be0932452175b6a7222b6b094ab0ef984a5153c620345d8975602052604081205490919060ff166129e2575050565b81805260fb602052604082208183526020526040822060ff19815416905533917ff6391f5c32d9c69d2a47ea670b442974b53935d1edc7fd64eb21e047a839171b8180a4565b905f9180835260fb602052604083209160018060a01b03169182845260205260ff604084205416612a5857505050565b80835260fb602052604083208284526020526040832060ff1981541690557ff6391f5c32d9c69d2a47ea670b442974b53935d1edc7fd64eb21e047a839171b339380a4565b6065546001600160a01b03163303612ab157565b606460405162461bcd60e51b815260206004820152602060248201527f4f776e61626c653a2063616c6c6572206973206e6f7420746865206f776e65726044820152fd5b81810292918115918404141715612b0857565b634e487b7160e01b5f52601160045260245ffd5b908151811015612b2d570160200190565b634e487b7160e01b5f52603260045260245ffd5b60405190612b4e8261233e565b602a8252602082016040368237825115612b2d57603090538151600190811015612b2d57607860218401536029905b808211612bd1575050612b8d5790565b606460405162461bcd60e51b815260206004820152602060248201527f537472696e67733a20686578206c656e67746820696e73756666696369656e746044820152fd5b9091600f81166010811015612c28576f181899199a1a9b1b9c1cb0b131b232b360811b901a612c008486612b1c565b5360041c918015612c14575f190190612b7d565b60245f634e487b7160e01b81526011600452fd5b60245f634e487b7160e01b81526032600452fd5b6065546001600160a01b0390612c5390821661299e565b6001600160601b0360a01b8060975416609755816065549316918280928516176065555f93167f8be0079c531659141344cd1fd0a4f28419497f9722a3daafe3b4186f6b6457e08480a381805260fb6020526040822081835260205260ff60408320541615612cc0575050565b81805260fb6020526040822081835260205260408220600160ff1982541617905533917f2f8788117e7eff1d82e926ec794901d17c78024a50270940304540a733656f0d8180a4565b600260015414612d1a576002600155565b60405162461bcd60e51b815260206004820152601f60248201527f5265656e7472616e637947756172643a207265656e7472616e742063616c6c006044820152606490fd5b91908203918211612b0857565b939096949195926101325496878710612e0257610134546040516370a0823160e01b81523360048201526001600160a01b039182169a91906020816024818f5afa8015612e48578a915f91612e14575b5010612e025789612de29b81612de9575b505050612ddc33993399612d5f565b9661316f565b9192909190565b612dfa9261012d5416903390612e53565b5f8981612dcd565b604051632ca2f52b60e11b8152600490fd5b91506020823d8211612e40575b81612e2e60209383612374565b8101031261042b57508990515f612dbc565b3d9150612e21565b6040513d5f823e3d90fd5b6040516323b872dd60e01b60208201526001600160a01b03928316602482015292909116604483015260648201929092526125d191612e9f82608481015b03601f198101845283612374565b612eb1565b519081151582036122c757565b604051612f0e916001600160a01b0316612eca82612323565b5f806020958685527f5361666545524332303a206c6f772d6c6576656c2063616c6c206661696c656487860152868151910182855af1612f08612f9d565b91612fcc565b8051828115918215612f7e575b5050905015612f275750565b6084906040519062461bcd60e51b82526004820152602a60248201527f5361666545524332303a204552433230206f7065726174696f6e20646964206e6044820152691bdd081cdd58d8d9595960b21b6064820152fd5b83809293500103126122c75781612f959101612ea4565b80825f612f1b565b3d15612fc7573d90612fae82612395565b91612fbc6040519384612374565b82523d5f602084013e565b606090565b9192901561302e5750815115612fe0575090565b3b15612fe95790565b60405162461bcd60e51b815260206004820152601d60248201527f416464726573733a2063616c6c20746f206e6f6e2d636f6e74726163740000006044820152606490fd5b8251909150156130415750805190602001fd5b60405162461bcd60e51b8152602060048201529081906127ce906024830190612657565b51906001600160a01b03821682036122c757565b805115612b2d5760200190565b805160011015612b2d5760400190565b9081518082526020808093019301915f5b8281106130b5575050505090565b83516001600160a01b0316855293810193928101926001016130a7565b90916130e96130fe93606084526060840190613096565b91600160208201526040818403910152612657565b90565b811561310b570490565b634e487b7160e01b5f52601260045260245ffd5b91908260409103126122c7576020825192015190565b6001600160a01b0391821681529181166020830152604082019290925291811660608301529182166080820152911660a082015260c00190565b9161318495939160209b999a9897959361364d565b61012e54610134546040516364e329cb60e11b81526001600160a01b0380851660048301529182166024820152979294925f929091899160449183918691165af196871561362a5781976135ee575b506040516131e08161233e565b600281526040366020830137610134546001600160a01b031661320282613079565b526001600160a01b03851661321682613086565b526101335460405163c45a015560e01b815290602090829060049082906001600160a01b03165afa9081156134f95783916135ac575b50613287916020916040519160018484015283835261326a83612323565b85604051809681958294632a422c2b60e21b8452600484016130d2565b03926001600160a01b03165af1801561356857613573575b506001600160a01b0384163b1561042b57604051631e59818360e31b81526001600160a01b03888116600483015282908290602490829084908a165af1801561356857613559575b509061013c54670de0b6b3a764000081818102048114821517156135455761013b546101345460405163fc57d4df60e01b81526001600160a01b039182166004820152939291602091859160249183918a91165af191821561353a578592613504575b613355935002613101565b61012e54610134546101315460408051630afbf7f360e01b81526001600160a01b03948516600482015292841660248401529288166044830152606482015260848101929092528160a48173__$57bf2248a10612b83e4be7103a658af84f$__5af480156134f9576134db575b506001600160a01b038481168084526101356020908152604080862060020180546001600160a01b031916948c1694851790556101365481518181529283018790524291830191909152989291907f58d1495ede629d89cfe4c00a5ad620a9ba231de4b1a5040c7b355d43092ff86b90606090a383613445575b50505050929190565b61012e546101345460408051633c529ea760e01b81529690948794859461348394929391928b92916001600160a01b03918216911660048801613135565b038173__$57bf2248a10612b83e4be7103a658af84f$__5af49081156134cf57506134b1575b80808061343c565b6134c99060403d6040116108d3576108c58183612374565b506134a9565b604051903d90823e3d90fd5b6134f39060403d6040116108d3576108c58183612374565b506133c2565b6040513d85823e3d90fd5b91506020833d602011613532575b8161351f60209383612374565b810103126122c75761335592519161334a565b3d9150613512565b6040513d87823e3d90fd5b634e487b7160e01b84526011600452602484fd5b613562906122e1565b5f6132e7565b6040513d84823e3d90fd5b6020813d6020116135a4575b8161358c60209383612374565b810103126106f55761359d90613065565b505f61329f565b3d915061357f565b90506020813d6020116135e6575b816135c760209383612374565b810103126103c657613287916135de602092613065565b91509161324c565b3d91506135ba565b9096506020813d602011613622575b8161360a60209383612374565b81010312610c7a5761361b90613065565b955f6131d3565b3d91506135fd565b50604051903d90823e3d90fd5b818110613642575050565b5f8155600101613637565b93906136e595939796926020916136d35f60018060a01b0361012f5416926136aa602b6040518361368782955180928c8086019101612636565b81016a08189e48125b9d1953995d60aa1b8a82015203600b810184520182612374565b610131546040516334f359f960e01b8152608060048201529b8c96879586946084860190612657565b84810360031901602486015290612657565b90604483015230606483015203925af1948515612e48575f956140da575b50610130546101345461013a546040516309394e6160e11b81526001600160a01b03808a16600483015292831660248201523060448201526064810191909152969889979590929091602091879160849183915f91165af1948515612e48575f9561409e575b50835191602085015193606060408701519601519660405198896101808101106001600160401b036101808c0111176122f4576101808a0160405260018060a01b0316895260018060a01b038a1660208a01525f60408a015260018060a01b03166060890152608088015260a087015260c086015260e0850152610100840152610120830152610140820152600161016082015260018060a01b0382165f5261013560205260405f2060018060a01b038251166001600160601b0360a01b8254161781556001810160018060a01b036020840151166001600160601b0360a01b8254161790556002810160018060a01b036040840151166001600160601b0360a01b8254161790556003810160018060a01b036060840151166001600160601b0360a01b82541617905560808201518051906001600160401b0382116122f45781906138b8600485015461255d565b601f811161406b575b50602090601f8311600114613ffd575f92613ff2575b50508160011b915f199060031b1c19161760048201555b60a08201518051906001600160401b0382116122f457600160401b82116122f4576020906005840154836005860155808410613f9e575b500190600583015f5260205f20905f5b8160051c8110613f5f5750601f1981168103613f11575b50505060c08201518051906001600160401b0382116122f4578190613974600685015461255d565b601f8111613ede575b50602090601f8311600114613e70575f92613e65575b50508160011b915f199060031b1c19161760068201555b60e08201518051906001600160401b0382116122f45781906139cf600785015461255d565b601f8111613e32575b50602090601f8311600114613dc4575f92613db9575b50508160011b915f199060031b1c19161760078201555b6101008201518051906001600160401b0382116122f4578190613a2b600885015461255d565b601f8111613d86575b50602090601f8311600114613d18575f92613d0d575b50508160011b915f199060031b1c19161760088201555b6101208201518051906001600160401b0382116122f4578190613a87600985015461255d565b601f8111613cda575b50602090601f8311600114613c6c575f92613c61575b50508160011b915f199060031b1c19161760098201555b600a81016101408301518051906001600160401b0382116122f457613ae2835461255d565b601f8111613c26575b50602090601f8311600114613bbb579180600b949261016096945f92613bb0575b50508160011b915f199060031b1c19161790555b019101516003811015613b9c5760ff80198354169116179055610136805490600160401b8210156122f45760018201808255821015612b2d575f527f39da2db355130acf428d669fbf1c14faa9d51399a25b793fc254bbbde66f02e20180546001600160a01b0319166001600160a01b03909216919091179055565b634e487b7160e01b5f52602160045260245ffd5b015190505f80613b0c565b90601f19831691845f5260205f20925f5b818110613c0e57509260019285926101609896600b989610613bf6575b505050811b019055613b20565b01515f1960f88460031b161c191690555f8080613be9565b92936020600181928786015181550195019301613bcc565b613c5190845f5260205f20601f850160051c81019160208610613c57575b601f0160051c0190613637565b5f613aeb565b9091508190613c44565b015190505f80613aa6565b9250600984015f5260205f20905f935b601f1984168510613cbf576001945083601f19811610613ca7575b505050811b016009820155613abd565b01515f1960f88460031b161c191690555f8080613c97565b81810151835560209485019460019093019290910190613c7c565b613d0790600986015f5260205f20601f850160051c81019160208610613c5757601f0160051c0190613637565b5f613a90565b015190505f80613a4a565b9250600884015f5260205f20905f935b601f1984168510613d6b576001945083601f19811610613d53575b505050811b016008820155613a61565b01515f1960f88460031b161c191690555f8080613d43565b81810151835560209485019460019093019290910190613d28565b613db390600886015f5260205f20601f850160051c81019160208610613c5757601f0160051c0190613637565b5f613a34565b015190505f806139ee565b9250600784015f5260205f20905f935b601f1984168510613e17576001945083601f19811610613dff575b505050811b016007820155613a05565b01515f1960f88460031b161c191690555f8080613def565b81810151835560209485019460019093019290910190613dd4565b613e5f90600786015f5260205f20601f850160051c81019160208610613c5757601f0160051c0190613637565b5f6139d8565b015190505f80613993565b9250600684015f5260205f20905f935b601f1984168510613ec3576001945083601f19811610613eab575b505050811b0160068201556139aa565b01515f1960f88460031b161c191690555f8080613e9b565b81810151835560209485019460019093019290910190613e80565b613f0b90600686015f5260205f20601f850160051c81019160208610613c5757601f0160051c0190613637565b5f61397d565b5f925f5b601f19831683038110613f3157505060051c01555f808061394c565b90936020613f566001928460ff895116919060ff809160031b9316831b921b19161790565b95019101613f15565b5f805b60208110613f77575083820155600101613935565b855190959160019160209160ff60038a901b81811b199092169216901b1792019501613f62565b613fcc90600586015f52601f845f209181871680613fd2575b500160051c810190601f860160051c01613637565b5f613925565b5f199081848a0160051c86010191825491890360031b1c1690555f613fb7565b015190505f806138d7565b9250600484015f5260205f20905f935b601f1984168510614050576001945083601f19811610614038575b505050811b0160048201556138ee565b01515f1960f88460031b161c191690555f8080614028565b8181015183556020948501946001909301929091019061400d565b61409890600486015f5260205f20601f850160051c81019160208610613c5757601f0160051c0190613637565b5f6138c1565b9094506020813d6020116140d2575b816140ba60209383612374565b810103126122c7576140cb90613065565b935f613769565b3d91506140ad565b9094506020813d60201161410e575b816140f660209383612374565b810103126122c75761410790613065565b935f613703565b3d91506140e9565b6001600160a01b038083165f9081526101356020526040808220600b015490979691959394939060ff1660038110156141eb576001036141da57829161417e9189959461012e54169361013454169486519788968796627e8ae960e01b885260048801613135565b038173__$57bf2248a10612b83e4be7103a658af84f$__5af49384156141cf5782946141ab575b50509190565b6141c693945080919250903d106108d3576108c58183612374565b91905f806141a5565b51913d9150823e3d90fd5b87516305e1dfe360e11b8152600490fd5b634e487b7160e01b87526021600452602487fd5b61012e546101345460408051633c529ea760e01b815273__$57bf2248a10612b83e4be7103a658af84f$__98909790965f959294899485946142559493928a926001600160a01b03908116911660048801613135565b0381885af4801561362a57819482916149a3575b509394614275836155f1565b61013d54111561428457505050565b6001600160a01b038316825261013560205260408220600b8101805460ff16600381101561498f5760021461497d5760028201805460405163c66f245560e01b815294919391906001600160a01b0316602086600481845afa9586156148e2578796614948575b5090602060049392604051948580926316d3df1560e31b82525afa9283156148e2578793614914575b5061012e54610134546001600160a01b039081169116823b15610c72579060648992604051948593849263e743240d60e01b84526004840152602483015260018060a01b038d1660448301525af480156148e257614901575b506001600160a01b0387163b15610c7e5760405163f1b50c1d60e01b81528681600481836001600160a01b038d165af180156148e2579087916148ed575b505090614424939291604080516143c18161233e565b6002815281366020830137610134546001600160a01b03166143e282613079565b526001600160a01b038a166143f682613086565b5260018060a01b0361013354168251808099819463237c65f960e01b83528660048401526044830190613096565b6001602483015203915afa9485156148e2578795614899575b50600301546001600160a01b031694853b15610c7a5760405163179a694160e11b81526001600160a01b03861660048201528781602481838b5af1801561488e5789918991614877575b50506145a2916145b560018060a01b036101345416945f94858094614567604051916144b28361233e565b6002835260403660208501378a6144c884613079565b526001600160a01b0389166144dc84613086565b52614554604051966144ed8861233e565b6002885260403660208a01378261450389613079565b528061450e89613086565b526040519a61451c8c61233e565b60028c5260403660208e0137836145328d613079565b528161453d8d613086565b52610133546001600160a01b03908116911661542b565b610133546001600160a01b03168b61542b565b6145c460018060a01b0361013354169460405198899788968795623c7cd360e91b87526001600488015260e0602488015260e4870190613096565b600319938487830301604488015261501d565b9184830301606485015261501d565b8260848301523060a48301524260c483015203925af190811561356857829083926147cc575b50806145f86145fe92613079565b50613086565b5061461381886001600160a01b03891661542b565b863b156106f557604051906340519a5360e01b825260048201528181602481838b5af18015613568576147bd575b506040516370a0823160e01b80825230600483015296906020816024816001600160a01b038e165afa9081156134f957839161478b575b50604051978852306004890152602088602481875afa9283156134cf5792614737575b7f381d54fa425631e6266af114239150fae1d5db67bb65b4fa9ecc65013107e07e97508061471d575b5050806146fd575b5050805460ff1916600217905580546001600160a01b0319166001600160a01b0392831690811790915593169180a3565b61012d54614716926001600160a01b03909116906153f2565b5f806146cc565b614730916001600160a01b038b166153f2565b5f806146c4565b91506020873d602011614783575b8161475260209383612374565b810103126122c7577f381d54fa425631e6266af114239150fae1d5db67bb65b4fa9ecc65013107e07e96519161469b565b3d9150614745565b90506020813d6020116147b5575b816147a660209383612374565b810103126122c757515f614678565b3d9150614799565b6147c6906122e1565b5f614641565b9150503d8083833e6147de8183612374565b8101906040818303126103c6578051916001600160401b03831161117c5780601f84840101121561117c578282015190614817826123f6565b936148256040519586612374565b828552602085019160208460051b838701010111610c7e57602081850101915b60208460051b83870101018310614867575050505060200151906145fe6145ea565b8251815260209283019201614845565b6148829192506122e1565b610c7a5787875f614487565b6040513d8a823e3d90fd5b9094506040813d6040116148da575b816148b560409383612374565b81010312610c7a576148d260206148cb83613065565b9201612ea4565b50935f61443d565b3d91506148a8565b6040513d89823e3d90fd5b6148f6906122e1565b610c7e57855f6143ab565b61490d909691966122e1565b945f61436d565b9092506020813d602011614940575b8161493060209383612374565b81010312610c7a5751915f614314565b3d9150614923565b9095506020813d602011614975575b8161496460209383612374565b81010312610c7a57519460206142eb565b3d9150614957565b604051633a2cc0e960e11b8152600490fd5b634e487b7160e01b85526021600452602485fd5b90506149bf91945060403d6040116108d3576108c58183612374565b9390935f614269565b6001600160a01b0391821691905f908315614a72578216918282526101356020526003604083200154168015614a6057803b156106f557818091602460405180948193631bf3091560e11b83528960048401525af1801561356857907f7363600ac233591b10e402fcff7bdaf80647430d9e03638e669d4834950433229291614a51575b5080a3565b614a5a906122e1565b5f614a4c565b60405163ab54b81360e01b8152600490fd5b60405163e04bb5d960e01b8152600490fd5b9190811015612b2d5760051b0190565b356001600160a01b03811681036122c75790565b9594939291906020999d9b979c9860805261013b545f9a8b91602460018060a01b036101345416604051948593849263fc57d4df60e01b8452600484015260018060a01b03165af18015614fef578b90614fb7575b614b0a9150608051612af5565b808060011b0460021481151715614fa35760018b5261013960205260408b205490670de0b6b3a764000091828102928184041490151715614f8f5760011b10614f7d57614b569661364d565b6001600160a01b0381168452610135602052604080852090519891959190614b7d8a61233e565b60028a5260403660208c0137610134546001600160a01b0316614b9f8b613079565b526001600160a01b038716614bb38b613086565b526101335460405163c45a015560e01b815290602090829060049082906001600160a01b03165afa9081156148e2578791614f37575b50614c2698999a60209160405191600184840152838352614c0983612323565b89604051809d81958294632a422c2b60e21b8452600484016130d2565b03926001600160a01b03165af1978815614f2c578698614ef0575b50600b8101805460ff19166002908117909155810180546001600160a01b0319166001600160a01b038a8116919091179091556003909101541696873b15610c7e5760405163179a694160e11b81526001600160a01b03821660048201528681602481838d5af180156148e257614edd575b50604051614cc081612308565b600181526001600160a01b0388168752610137602052604087209051815460ff191660ff9190911617905561013854600160401b8110156122f457600181018061013855811015612b2d576101385f527ff79a63dcec80ed75c82f36161f17b9c2f407860160383a7be0a0ee7962c527ae0180546001600160a01b0319166001600160a01b0389169081179091553b15610c7e5760405163f1b50c1d60e01b81528681600481836001600160a01b038d165af180156148e257614ec9575b50614e139596979899610136546040519081526001602082015242604082015260018060a01b038316907f58d1495ede629d89cfe4c00a5ad620a9ba231de4b1a5040c7b355d43092ff86b606060018060a01b038d1692a36101345461012d54608051614dfb92909130916001600160a01b039182169116612e53565b60805191898b60018060a01b03610134541692615050565b92915093614e248561013154612d5f565b813b156103c65760405163da3e339760e01b81526001600160a01b038616600482015230602482015260448101919091529082908290606490829084905af1801561356857614eb5575b5050604080516001815260208101949094528301526001600160a01b0316907f4e8e1b96afa9116446f71ff323ac93786664fcbea87475ece33519357750f79090606090a2565b614ebf82916122e1565b61042b5780614e6e565b614ed387916122e1565b610c7e575f614d7e565b614ee9909691966122e1565b945f614cb3565b9097506020813d602011614f24575b81614f0c60209383612374565b81010312610c7e57614f1d90613065565b965f614c41565b3d9150614eff565b6040513d88823e3d90fd5b90506020813d602011614f75575b81614f5260209383612374565b81010312610c7a57614c2698999a614f6b602092613065565b91509a9998614be9565b3d9150614f45565b604051634088b74160e01b8152600490fd5b634e487b7160e01b8c52601160045260248cfd5b634e487b7160e01b8b52601160045260248bfd5b506020813d602011614fe7575b81614fd160209383612374565b81010312614fe357614b0a9051614afd565b8a80fd5b3d9150614fc4565b6040513d8d823e3d90fd5b60ff60019116019060ff8211612b0857565b60ff1660ff8114612b085760010190565b9081518082526020808093019301915f5b82811061503c575050505090565b83518552938101939281019260010161502e565b9897909996919392955f809681956040519161506b8361233e565b60028352604036602085013761508083613079565b6001600160a01b038c16905261509583613086565b6001600160a01b038a169052604051946150ae8661233e565b600286526040366020880137816150c487613079565b52826150cf87613086565b52604051976150dd8961233e565b6002895260403660208b01376150f289613079565b526150fc88613086565b526101338054909261511b916001600160a01b03908116908c1661542b565b815461513591906001600160a01b03908116908d1661542b565b54604051623c7cd360e91b81526001600482015260e060248201529b8c966001600160a01b0390921695879586949193916151749060e4870190613096565b90600319918287820301604488015261518c9161501d565b9085820301606486015261519f9161501d565b9160848401523060a484015260c483015203925af1968715613568578295839861535b575b50876151ee81836151de6151d78b613079565b519a613086565b519a6001600160a01b031661542b565b6001600160a01b03821690813b156111785784916024839260405194859384926340519a5360e01b845260048401525af180156153505761533d575b506040516370a0823160e01b8082523060048301529091906020836024816001600160a01b0388165afa92831561353a578593615309575b506040519081523060048201526020816024816001600160a01b038a165afa9485156134cf57946152d5575b50816152bb575b505050806152a1575050565b61012d546125d1926001600160a01b0391821691166153f2565b6152cd926001600160a01b03166153f2565b5f8080615295565b9093506020813d602011615301575b816152f160209383612374565b810103126122c75751925f61528e565b3d91506152e4565b9092506020813d602011615335575b8161532560209383612374565b810103126122c75751915f615262565b3d9150615318565b615349909391936122e1565b915f61522a565b6040513d86823e3d90fd5b955096503d8083873e61536e8187612374565b8501946040818703126103c65780516001600160401b03811161117c5781019580601f8801121561117c5786516153a4816123f6565b976153b2604051998a612374565b8189526020808a019260051b820101928311610c7e57602001905b8282106153e25750505060200151965f6151c4565b81518152602091820191016153cd565b60405163a9059cbb60e01b60208201526001600160a01b03909216602483015260448201929092526125d191612e9f8260648101612e91565b60405163095ea7b360e01b602082018181526001600160a01b038516602484015260448084019690965294825294939092615467606485612374565b83515f926001600160a01b039291858416918591829182855af19061548a612f9d565b82615514575b5081615509575b50156154a7575b50505050509050565b6040519660208801521660248601528060448601526044855260808501908582106001600160401b038311176154f557506154ea9394612e9f9160405282612eb1565b805f8080808061549e565b634e487b7160e01b81526041600452602490fd5b90503b15155f615497565b8051919250811591821561552c575b5050905f615490565b81925090602091810103126111785760206155479101612ea4565b5f80615523565b60ff1680156155cb575f19810160ff8111612b085760ff165f52610139908160205260405f20548311156155b9577f1d518eb390459a1912a9b14c91cc0e67b8449b23fe75f7766658bd86057cb1a392604092825f5260205280835f205582519182526020820152a1565b60405163aabd5a0960e01b8152600490fd5b60405163e82a532960e01b8152600490fd5b51906001600160701b03821682036122c757565b60018060a01b03809116905f828152602090610135825260409182822060ff600b8201541690600382101561588957811561587857908392918661013b5416966101349184828454169960248a51809a819363fc57d4df60e01b835260049e8f8401525af196871561586e57869761583f575b50861561582f576002015481169260010361577d5750509084869392815197888092630240bc6b60e21b82525afa80156157735782968391615750575b5095965b87158015615748575b6157385781908651948580926318160ddd60e01b82525afa9485156141cf57508194615701575b5050506156fd926156f3670de0b6b3a764000095936156f893612af5565b612af5565b613101565b0490565b909180939450813d8311615731575b61571a8183612374565b8101031261042b57505190826156f36156f86156d5565b503d615710565b8551633dce448b60e11b81528490fd5b5086156156ae565b905061576a919650853d87116108d3576108c58183612374565b9590955f6156a1565b85513d84823e3d90fd5b8651630240bc6b60e21b815291979493926060908390879082905afa91821561582557849085936157d0575b506001600160701b03809116921697541688105f146157cb57955b95966156a5565b6157c4565b9250506060823d821161581d575b816157eb60609383612374565b8101031261117c576157fc826155dd565b876158088585016155dd565b93015163ffffffff811603611178575f6157a9565b3d91506157de565b87513d86823e3d90fd5b8751631d59567b60e11b81528990fd5b9096508481813d8311615867575b6158578183612374565b81010312610c7e5751955f615664565b503d61584d565b88513d88823e3d90fd5b845163c1ab6dc160e01b8152600490fd5b634e487b7160e01b84526021600452602484fd5b156158a457565b60405162461bcd60e51b815260206004820152602e60248201527f496e697469616c697a61626c653a20636f6e747261637420697320616c72656160448201526d191e481a5b9a5d1a585b1a5e995960921b6064820152608490fd5b1561590757565b60405162461bcd60e51b815260206004820152602b60248201527f496e697469616c697a61626c653a20636f6e7472616374206973206e6f74206960448201526a6e697469616c697a696e6760a81b6064820152608490fd5b93959192959490946101325496873410612e025761013480546001600160a01b0399908a1691823b156122c7575f60049360405194858092630d0e30db60e41b825234905af18015612e4857612de29b6159cb9484926159f0575b50816159d5575b50505034612d5f565b943397309761316f565b806159e89354169061012d5416906153f2565b5f81816159c2565b6159f9906122e1565b5f6159bb56fea2646970667358221220cc8a9f34ed6ff51a5725fb15c8c90814e6c07909b2a5a736f93a61c1b7a8ccf964736f6c63430008140033",
  "libraries": {
    "INTRouterLibrary": "0x090BF41f1A0d492f4f411A368A4d63376f60b830"
  },
  "devdoc": {
    "events": {
      "Initialized(uint8)": {
        "details": "Triggered when the contract has been initialized or reinitialized."
      },
      "RoleAdminChanged(bytes32,bytes32,bytes32)": {
        "details": "Emitted when `newAdminRole` is set as ``role``'s admin role, replacing `previousAdminRole` `DEFAULT_ADMIN_ROLE` is the starting admin for all roles, despite {RoleAdminChanged} not being emitted signaling this. _Available since v3.1._"
      },
      "RoleGranted(bytes32,address,address)": {
        "details": "Emitted when `account` is granted `role`. `sender` is the account that originated the contract call, an admin role bearer except when using {AccessControl-_setupRole}."
      },
      "RoleRevoked(bytes32,address,address)": {
        "details": "Emitted when `account` is revoked `role`. `sender` is the account that originated the contract call:   - if using `revokeRole`, it is the admin role bearer   - if using `renounceRole`, it is the role bearer (i.e. `account`)"
      }
    },
    "kind": "dev",
    "methods": {
      "acceptOwnership()": {
        "details": "The new owner accepts the ownership transfer."
      },
      "boost1(string,string,uint8[],string,string,string[4],uint256,uint256,uint256,uint256,uint256,uint256)": {
        "details": "Only callable by owner. Adds liquidity via external router",
        "params": {
          "assetAmount": "Amount of asset tokens to add as liquidity",
          "assetAmountMin": "Minimum amount of asset tokens that must be added as liquidity",
          "cores": "Array of core values",
          "deadline": "Timestamp after which the transaction will revert",
          "desc": "Description of the token",
          "img": "Image URL for the token",
          "minLiquidity": "Minimum amount of liquidity tokens that must be minted",
          "name": "The name of the token",
          "ticker": "The ticker symbol of the token",
          "tokenAmount": "Amount of tokens to add as liquidity",
          "tokenAmountMin": "Minimum amount of tokens that must be added as liquidity",
          "urls": "Array of 4 URLs (twitter, telegram, farcaster, website)"
        }
      },
      "boost1For(address,string,string,uint8[],string,string,string[4],uint256,uint256,uint256,uint256,uint256,uint256)": {
        "details": "Only callable by owner. Adds liquidity via external router",
        "params": {
          "assetAmount": "Amount of asset tokens to add as liquidity",
          "assetAmountMin": "Minimum amount of asset tokens that must be added as liquidity",
          "cores": "Array of core values",
          "creator": "The creator of the token",
          "deadline": "Timestamp after which the transaction will revert",
          "desc": "Description of the token",
          "img": "Image URL for the token",
          "minLiquidity": "Minimum amount of liquidity tokens that must be minted",
          "name": "The name of the token",
          "ticker": "The ticker symbol of the token",
          "tokenAmount": "Amount of tokens to add as liquidity",
          "tokenAmountMin": "Minimum amount of tokens that must be added as liquidity",
          "urls": "Array of 4 URLs (twitter, telegram, farcaster, website)"
        }
      },
      "boost2(address,uint256,uint256,uint256,uint256,uint256,uint256)": {
        "details": "Only callable by booster. Adds liquidity via external router",
        "params": {
          "assetAmount": "Amount of asset tokens to add as liquidity",
          "assetAmountMin": "Minimum amount of asset tokens that must be added as liquidity",
          "deadline": "Timestamp after which the transaction will revert",
          "minLiquidity": "Minimum amount of liquidity tokens that must be minted",
          "token": "Address of token to boost",
          "tokenAmount": "Amount of tokens to add as liquidity",
          "tokenAmountMin": "Minimum amount of tokens that must be added as liquidity"
        }
      },
      "boost3(address,uint256,uint256,uint256,uint256,uint256,uint256)": {
        "details": "Only callable by owner. Adds liquidity via external router",
        "params": {
          "assetAmount": "Amount of asset tokens to add as liquidity",
          "assetAmountMin": "Minimum amount of asset tokens that must be added as liquidity",
          "deadline": "Timestamp after which the transaction will revert",
          "minLiquidity": "Minimum amount of liquidity tokens that must be minted",
          "token": "Address of token to boost",
          "tokenAmount": "Amount of tokens to add as liquidity",
          "tokenAmountMin": "Minimum amount of tokens that must be added as liquidity"
        }
      },
      "calculateMarketCap(address)": {
        "params": {
          "token": "The token address to calculate market cap for"
        },
        "returns": {
          "_0": "marketCap The calculated market cap in asset token value in 18 decimals"
        }
      },
      "delegateLPTo(address,address)": {
        "details": "Delegate LP token to the specified address.",
        "params": {
          "delegatee": "The address to delegate the LP token to.",
          "tokenAddr": "The address of the token to delegate its LP token."
        }
      },
      "delegateLPToBatch(address[],address[])": {
        "details": "Delegate LP token to the specified address for multiple tokens.",
        "params": {
          "delegatees": "The addresses to delegate the LP tokens to.",
          "tokens": "The addresses of the tokens to delegate their LP tokens."
        }
      },
      "getBoostCount()": {
        "returns": {
          "_0": "The length of boostInfos array"
        }
      },
      "getRoleAdmin(bytes32)": {
        "details": "Returns the admin role that controls `role`. See {grantRole} and {revokeRole}. To change a role's admin, use {_setRoleAdmin}."
      },
      "getTokenCount()": {
        "returns": {
          "_0": "The length of tokenInfos array"
        }
      },
      "grantRole(bytes32,address)": {
        "details": "Grants `role` to `account`. If `account` had not been already granted `role`, emits a {RoleGranted} event. Requirements: - the caller must have ``role``'s admin role. May emit a {RoleGranted} event."
      },
      "hasRole(bytes32,address)": {
        "details": "Returns `true` if `account` has been granted `role`."
      },
      "owner()": {
        "details": "Returns the address of the current owner."
      },
      "pendingOwner()": {
        "details": "Returns the address of the pending owner."
      },
      "renounceOwnership()": {
        "details": "Leaves the contract without owner. It will not be possible to call `onlyOwner` functions. Can only be called by the current owner. NOTE: Renouncing ownership will leave the contract without an owner, thereby disabling any functionality that is only available to the owner."
      },
      "renounceRole(bytes32,address)": {
        "details": "Revokes `role` from the calling account. Roles are often managed via {grantRole} and {revokeRole}: this function's purpose is to provide a mechanism for accounts to lose their privileges if they are compromised (such as when a trusted device is misplaced). If the calling account had been revoked `role`, emits a {RoleRevoked} event. Requirements: - the caller must be `account`. May emit a {RoleRevoked} event."
      },
      "revokeRole(bytes32,address)": {
        "details": "Revokes `role` from `account`. If `account` had been granted `role`, emits a {RoleRevoked} event. Requirements: - the caller must have ``role``'s admin role. May emit a {RoleRevoked} event."
      },
      "setAssetToken(address)": {
        "details": "Set the asset token address",
        "params": {
          "newAssetToken": "The new asset token address"
        }
      },
      "setBoostStageThreshold(uint8,uint256)": {
        "params": {
          "stage": "The boost stage number (1-3)",
          "threshold": "The threshold amount required for this stage"
        }
      },
      "setBoostStageThresholds(uint256[])": {
        "params": {
          "thresholds": "Array of threshold amounts for stages 1-3"
        }
      },
      "setExtRouter(address)": {
        "details": "Set the external router address",
        "params": {
          "newExtRouter": "The new external router address"
        }
      },
      "setFactory(address)": {
        "details": "Set the factory address",
        "params": {
          "newFactory": "The new factory address"
        }
      },
      "setFee(uint256,address)": {
        "details": "Set the fee and fee recipient",
        "params": {
          "newFee": "New fee amount",
          "newFeeTo": "New fee recipient"
        }
      },
      "setGradMarketCap(uint256)": {
        "details": "Set the graduation market cap threshold",
        "params": {
          "newMarketCap": "The new graduation market cap threshold"
        }
      },
      "setInitialMarketCap(uint256)": {
        "details": "Set the initial market cap threshold",
        "params": {
          "newMarketCap": "The new initial market cap threshold"
        }
      },
      "setInitialSupply(uint256)": {
        "details": "Set the initial supply for generating a new token",
        "params": {
          "newSupply": "New initial supply"
        }
      },
      "setLockFactory(address)": {
        "details": "Set the lock factory address",
        "params": {
          "newLockFactory": "The new lock factory address"
        }
      },
      "setLockedTime(uint256)": {
        "details": "Set the locked time for lp tokens that locked in the locker contract",
        "params": {
          "newLockedTime": "The new locked time"
        }
      },
      "setOracle(address)": {
        "details": "Set the oracle address",
        "params": {
          "newOracle": "The new oracle address"
        }
      },
      "setTokenFactory(address)": {
        "details": "Set the token factory address",
        "params": {
          "newTokenFactory": "The new token factory address"
        }
      },
      "supportsInterface(bytes4)": {
        "details": "See {IERC165-supportsInterface}."
      },
      "transferOwnership(address)": {
        "details": "Starts the ownership transfer of the contract to a new account. Replaces the pending transfer if there is one. Can only be called by the current owner."
      }
    },
    "version": 1
  },
  "userdoc": {
    "errors": {
      "ProfileNotExist()": [
        {
          "notice": "============================================ =                  ERRORS                  = ============================================"
        }
      ]
    },
    "events": {
      "Launched(address,address,uint256,uint8,uint256)": {
        "notice": "============================================ =                 EVENTS                   = ============================================"
      }
    },
    "kind": "user",
    "methods": {
      "boost1(string,string,uint8[],string,string,string[4],uint256,uint256,uint256,uint256,uint256,uint256)": {
        "notice": "Boost liquidity for a token by adding token and asset pairs"
      },
      "boost1For(address,string,string,uint8[],string,string,string[4],uint256,uint256,uint256,uint256,uint256,uint256)": {
        "notice": "Boost liquidity for a token by adding token and asset pairs"
      },
      "boost2(address,uint256,uint256,uint256,uint256,uint256,uint256)": {
        "notice": "Boost Stage 2 for a token by adding token and asset pairs"
      },
      "boost3(address,uint256,uint256,uint256,uint256,uint256,uint256)": {
        "notice": "Boost Stage 3 for a token by adding token and asset pairs"
      },
      "calculateMarketCap(address)": {
        "notice": "Calculate the market cap of a token using oracle price and liquidity reserves"
      },
      "delegateLPTo(address,address)": {
        "notice": "LP token should have been released in its locker contract."
      },
      "delegateLPToBatch(address[],address[])": {
        "notice": "LP token should have been released in its locker contract."
      },
      "getBoostCount()": {
        "notice": "Get the total number of boost created through bonding"
      },
      "getTokenCount()": {
        "notice": "Get the total number of tokens created through bonding"
      },
      "setAssetToken(address)": {
        "notice": "Owner should ensure the asset token address is correct"
      },
      "setBoostStageThreshold(uint8,uint256)": {
        "notice": "Set threshold for a boost stage"
      },
      "setBoostStageThresholds(uint256[])": {
        "notice": "Set thresholds for all boost stages in one transaction"
      },
      "setExtRouter(address)": {
        "notice": "Owner should ensure the external router address is correct"
      },
      "setFactory(address)": {
        "notice": "Owner should ensure the factory address is correct"
      },
      "setLockFactory(address)": {
        "notice": "Owner should ensure the lock factory address is correct"
      },
      "setTokenFactory(address)": {
        "notice": "Owner should ensure the token factory address is correct"
      }
    },
    "version": 1
  },
  "storageLayout": {
    "storage": [
      {
        "astId": 653,
        "contract": "src/BondingETH.sol:BondingETH",
        "label": "_initialized",
        "offset": 0,
        "slot": "0",
        "type": "t_uint8"
      },
      {
        "astId": 656,
        "contract": "src/BondingETH.sol:BondingETH",
        "label": "_initializing",
        "offset": 1,
        "slot": "0",
        "type": "t_bool"
      },
      {
        "astId": 829,
        "contract": "src/BondingETH.sol:BondingETH",
        "label": "_status",
        "offset": 0,
        "slot": "1",
        "type": "t_uint256"
      },
      {
        "astId": 898,
        "contract": "src/BondingETH.sol:BondingETH",
        "label": "__gap",
        "offset": 0,
        "slot": "2",
        "type": "t_array(t_uint256)49_storage"
      },
      {
        "astId": 1270,
        "contract": "src/BondingETH.sol:BondingETH",
        "label": "__gap",
        "offset": 0,
        "slot": "51",
        "type": "t_array(t_uint256)50_storage"
      },
      {
        "astId": 525,
        "contract": "src/BondingETH.sol:BondingETH",
        "label": "_owner",
        "offset": 0,
        "slot": "101",
        "type": "t_address"
      },
      {
        "astId": 645,
        "contract": "src/BondingETH.sol:BondingETH",
        "label": "__gap",
        "offset": 0,
        "slot": "102",
        "type": "t_array(t_uint256)49_storage"
      },
      {
        "astId": 434,
        "contract": "src/BondingETH.sol:BondingETH",
        "label": "_pendingOwner",
        "offset": 0,
        "slot": "151",
        "type": "t_address"
      },
      {
        "astId": 513,
        "contract": "src/BondingETH.sol:BondingETH",
        "label": "__gap",
        "offset": 0,
        "slot": "152",
        "type": "t_array(t_uint256)49_storage"
      },
      {
        "astId": 1543,
        "contract": "src/BondingETH.sol:BondingETH",
        "label": "__gap",
        "offset": 0,
        "slot": "201",
        "type": "t_array(t_uint256)50_storage"
      },
      {
        "astId": 39,
        "contract": "src/BondingETH.sol:BondingETH",
        "label": "_roles",
        "offset": 0,
        "slot": "251",
        "type": "t_mapping(t_bytes32,t_struct(RoleData)34_storage)"
      },
      {
        "astId": 334,
        "contract": "src/BondingETH.sol:BondingETH",
        "label": "__gap",
        "offset": 0,
        "slot": "252",
        "type": "t_array(t_uint256)49_storage"
      },
      {
        "astId": 6801,
        "contract": "src/BondingETH.sol:BondingETH",
        "label": "feeTo",
        "offset": 0,
        "slot": "301",
        "type": "t_address"
      },
      {
        "astId": 6804,
        "contract": "src/BondingETH.sol:BondingETH",
        "label": "factory",
        "offset": 0,
        "slot": "302",
        "type": "t_contract(INTFactory)10211"
      },
      {
        "astId": 6807,
        "contract": "src/BondingETH.sol:BondingETH",
        "label": "tokenFactory",
        "offset": 0,
        "slot": "303",
        "type": "t_contract(INTERC20Factory)9813"
      },
      {
        "astId": 6810,
        "contract": "src/BondingETH.sol:BondingETH",
        "label": "lockFactory",
        "offset": 0,
        "slot": "304",
        "type": "t_contract(LockFactory)10972"
      },
      {
        "astId": 6812,
        "contract": "src/BondingETH.sol:BondingETH",
        "label": "initialSupply",
        "offset": 0,
        "slot": "305",
        "type": "t_uint256"
      },
      {
        "astId": 6814,
        "contract": "src/BondingETH.sol:BondingETH",
        "label": "fee",
        "offset": 0,
        "slot": "306",
        "type": "t_uint256"
      },
      {
        "astId": 6817,
        "contract": "src/BondingETH.sol:BondingETH",
        "label": "extRouter",
        "offset": 0,
        "slot": "307",
        "type": "t_contract(IExtRouter)11122"
      },
      {
        "astId": 6819,
        "contract": "src/BondingETH.sol:BondingETH",
        "label": "assetToken",
        "offset": 0,
        "slot": "308",
        "type": "t_address"
      },
      {
        "astId": 6855,
        "contract": "src/BondingETH.sol:BondingETH",
        "label": "tokenInfo",
        "offset": 0,
        "slot": "309",
        "type": "t_mapping(t_address,t_struct(Token)6850_storage)"
      },
      {
        "astId": 6858,
        "contract": "src/BondingETH.sol:BondingETH",
        "label": "tokenInfos",
        "offset": 0,
        "slot": "310",
        "type": "t_array(t_address)dyn_storage"
      },
      {
        "astId": 6866,
        "contract": "src/BondingETH.sol:BondingETH",
        "label": "boostInfo",
        "offset": 0,
        "slot": "311",
        "type": "t_mapping(t_address,t_struct(BoostInfo)6861_storage)"
      },
      {
        "astId": 6869,
        "contract": "src/BondingETH.sol:BondingETH",
        "label": "boostInfos",
        "offset": 0,
        "slot": "312",
        "type": "t_array(t_address)dyn_storage"
      },
      {
        "astId": 6878,
        "contract": "src/BondingETH.sol:BondingETH",
        "label": "boostStageThresholds",
        "offset": 0,
        "slot": "313",
        "type": "t_mapping(t_uint8,t_uint256)"
      },
      {
        "astId": 6880,
        "contract": "src/BondingETH.sol:BondingETH",
        "label": "lockedTime",
        "offset": 0,
        "slot": "314",
        "type": "t_uint256"
      },
      {
        "astId": 6883,
        "contract": "src/BondingETH.sol:BondingETH",
        "label": "oracle",
        "offset": 0,
        "slot": "315",
        "type": "t_contract(IOracle)11249"
      },
      {
        "astId": 6885,
        "contract": "src/BondingETH.sol:BondingETH",
        "label": "initialMarketCap",
        "offset": 0,
        "slot": "316",
        "type": "t_uint256"
      },
      {
        "astId": 6887,
        "contract": "src/BondingETH.sol:BondingETH",
        "label": "gradMarketCap",
        "offset": 0,
        "slot": "317",
        "type": "t_uint256"
      }
    ],
    "types": {
      "t_address": {
        "encoding": "inplace",
        "label": "address",
        "numberOfBytes": "20"
      },
      "t_array(t_address)dyn_storage": {
        "base": "t_address",
        "encoding": "dynamic_array",
        "label": "address[]",
        "numberOfBytes": "32"
      },
      "t_array(t_uint256)49_storage": {
        "base": "t_uint256",
        "encoding": "inplace",
        "label": "uint256[49]",
        "numberOfBytes": "1568"
      },
      "t_array(t_uint256)50_storage": {
        "base": "t_uint256",
        "encoding": "inplace",
        "label": "uint256[50]",
        "numberOfBytes": "1600"
      },
      "t_array(t_uint8)dyn_storage": {
        "base": "t_uint8",
        "encoding": "dynamic_array",
        "label": "uint8[]",
        "numberOfBytes": "32"
      },
      "t_bool": {
        "encoding": "inplace",
        "label": "bool",
        "numberOfBytes": "1"
      },
      "t_bytes32": {
        "encoding": "inplace",
        "label": "bytes32",
        "numberOfBytes": "32"
      },
      "t_contract(IExtRouter)11122": {
        "encoding": "inplace",
        "label": "contract IExtRouter",
        "numberOfBytes": "20"
      },
      "t_contract(INTERC20Factory)9813": {
        "encoding": "inplace",
        "label": "contract INTERC20Factory",
        "numberOfBytes": "20"
      },
      "t_contract(INTFactory)10211": {
        "encoding": "inplace",
        "label": "contract INTFactory",
        "numberOfBytes": "20"
      },
      "t_contract(IOracle)11249": {
        "encoding": "inplace",
        "label": "contract IOracle",
        "numberOfBytes": "20"
      },
      "t_contract(LockFactory)10972": {
        "encoding": "inplace",
        "label": "contract LockFactory",
        "numberOfBytes": "20"
      },
      "t_enum(TokenStatus)6823": {
        "encoding": "inplace",
        "label": "enum Bonding.TokenStatus",
        "numberOfBytes": "1"
      },
      "t_mapping(t_address,t_bool)": {
        "encoding": "mapping",
        "key": "t_address",
        "label": "mapping(address => bool)",
        "numberOfBytes": "32",
        "value": "t_bool"
      },
      "t_mapping(t_address,t_struct(BoostInfo)6861_storage)": {
        "encoding": "mapping",
        "key": "t_address",
        "label": "mapping(address => struct Bonding.BoostInfo)",
        "numberOfBytes": "32",
        "value": "t_struct(BoostInfo)6861_storage"
      },
      "t_mapping(t_address,t_struct(Token)6850_storage)": {
        "encoding": "mapping",
        "key": "t_address",
        "label": "mapping(address => struct Bonding.Token)",
        "numberOfBytes": "32",
        "value": "t_struct(Token)6850_storage"
      },
      "t_mapping(t_bytes32,t_struct(RoleData)34_storage)": {
        "encoding": "mapping",
        "key": "t_bytes32",
        "label": "mapping(bytes32 => struct AccessControlUpgradeable.RoleData)",
        "numberOfBytes": "32",
        "value": "t_struct(RoleData)34_storage"
      },
      "t_mapping(t_uint8,t_uint256)": {
        "encoding": "mapping",
        "key": "t_uint8",
        "label": "mapping(uint8 => uint256)",
        "numberOfBytes": "32",
        "value": "t_uint256"
      },
      "t_string_storage": {
        "encoding": "bytes",
        "label": "string",
        "numberOfBytes": "32"
      },
      "t_struct(BoostInfo)6861_storage": {
        "encoding": "inplace",
        "label": "struct Bonding.BoostInfo",
        "members": [
          {
            "astId": 6860,
            "contract": "src/BondingETH.sol:BondingETH",
            "label": "stage",
            "offset": 0,
            "slot": "0",
            "type": "t_uint8"
          }
        ],
        "numberOfBytes": "32"
      },
      "t_struct(RoleData)34_storage": {
        "encoding": "inplace",
        "label": "struct AccessControlUpgradeable.RoleData",
        "members": [
          {
            "astId": 31,
            "contract": "src/BondingETH.sol:BondingETH",
            "label": "members",
            "offset": 0,
            "slot": "0",
            "type": "t_mapping(t_address,t_bool)"
          },
          {
            "astId": 33,
            "contract": "src/BondingETH.sol:BondingETH",
            "label": "adminRole",
            "offset": 0,
            "slot": "1",
            "type": "t_bytes32"
          }
        ],
        "numberOfBytes": "64"
      },
      "t_struct(Token)6850_storage": {
        "encoding": "inplace",
        "label": "struct Bonding.Token",
        "members": [
          {
            "astId": 6825,
            "contract": "src/BondingETH.sol:BondingETH",
            "label": "creator",
            "offset": 0,
            "slot": "0",
            "type": "t_address"
          },
          {
            "astId": 6827,
            "contract": "src/BondingETH.sol:BondingETH",
            "label": "token",
            "offset": 0,
            "slot": "1",
            "type": "t_address"
          },
          {
            "astId": 6829,
            "contract": "src/BondingETH.sol:BondingETH",
            "label": "pair",
            "offset": 0,
            "slot": "2",
            "type": "t_address"
          },
          {
            "astId": 6831,
            "contract": "src/BondingETH.sol:BondingETH",
            "label": "locker",
            "offset": 0,
            "slot": "3",
            "type": "t_address"
          },
          {
            "astId": 6833,
            "contract": "src/BondingETH.sol:BondingETH",
            "label": "description",
            "offset": 0,
            "slot": "4",
            "type": "t_string_storage"
          },
          {
            "astId": 6836,
            "contract": "src/BondingETH.sol:BondingETH",
            "label": "cores",
            "offset": 0,
            "slot": "5",
            "type": "t_array(t_uint8)dyn_storage"
          },
          {
            "astId": 6838,
            "contract": "src/BondingETH.sol:BondingETH",
            "label": "image",
            "offset": 0,
            "slot": "6",
            "type": "t_string_storage"
          },
          {
            "astId": 6840,
            "contract": "src/BondingETH.sol:BondingETH",
            "label": "twitter",
            "offset": 0,
            "slot": "7",
            "type": "t_string_storage"
          },
          {
            "astId": 6842,
            "contract": "src/BondingETH.sol:BondingETH",
            "label": "telegram",
            "offset": 0,
            "slot": "8",
            "type": "t_string_storage"
          },
          {
            "astId": 6844,
            "contract": "src/BondingETH.sol:BondingETH",
            "label": "farcaster",
            "offset": 0,
            "slot": "9",
            "type": "t_string_storage"
          },
          {
            "astId": 6846,
            "contract": "src/BondingETH.sol:BondingETH",
            "label": "website",
            "offset": 0,
            "slot": "10",
            "type": "t_string_storage"
          },
          {
            "astId": 6849,
            "contract": "src/BondingETH.sol:BondingETH",
            "label": "status",
            "offset": 0,
            "slot": "11",
            "type": "t_enum(TokenStatus)6823"
          }
        ],
        "numberOfBytes": "384"
      },
      "t_uint256": {
        "encoding": "inplace",
        "label": "uint256",
        "numberOfBytes": "32"
      },
      "t_uint8": {
        "encoding": "inplace",
        "label": "uint8",
        "numberOfBytes": "1"
      }
    }
  }
}