{
  "address": "0x744D48eD2377031DA1848eDaa9278377600E655C",
  "abi": [
    {
      "inputs": [
        {
          "internalType": "string",
          "name": "name",
          "type": "string"
        },
        {
          "internalType": "string",
          "name": "symbol",
          "type": "string"
        },
        {
          "internalType": "uint256",
          "name": "totalSupply",
          "type": "uint256"
        },
        {
          "internalType": "address",
          "name": "initialOwner",
          "type": "address"
        }
      ],
      "name": "createToken",
      "outputs": [
        {
          "internalType": "address",
          "name": "token",
          "type": "address"
        }
      ],
      "stateMutability": "nonpayable",
      "type": "function"
    }
  ],
  "transactionHash": "0xbf2d4dc9e854c492a919045cb702b1d9ebbbf6eef8c7cb3a91b822f018d23de2",
  "args": [],
  "numDeployments": 1,
  "solcInputHash": "04ccc9a02bce4a9a296b969a041d7eba",
  "bytecode": "0x6080806040523461001657611354908161001b8239f35b5f80fdfe60806040526004361015610011575f80fd5b5f803560e01c6334f359f914610025575f80fd5b3461011a57608036600319011261011a5767ffffffffffffffff6004358181116101165761005790369060040161011d565b6024358281116101125761006f90369060040161011d565b6001600160a01b039290606435848116919082900361010e5760405193611149808601948511868610176100fa57859493926100be6060936100cc936101d68939608087526080870190610197565b908582036020870152610197565b9260443560408201520152039083f09081156100ef576020925060405191168152f35b6040513d84823e3d90fd5b634e487b7160e01b88526041600452602488fd5b8580fd5b8380fd5b8280fd5b80fd5b81601f8201121561017f5780359067ffffffffffffffff928383116101835760405193601f8401601f19908116603f0116850190811185821017610183576040528284526020838301011161017f57815f926020809301838601378301015290565b5f80fd5b634e487b7160e01b5f52604160045260245ffd5b91908251928382525f5b8481106101c1575050825f602080949584010152601f8019910116010190565b6020818301810151848301820152016101a156fe60406080815234620004485762001149803803806200001e816200044c565b9283398101608082820312620004485781516001600160401b0392908381116200044857826200005091830162000472565b92602092838301519082821162000448576200006e91840162000472565b906060868401519301519460018060a01b03861695868103620004485781519280841162000351576003928354946001918287811c971680156200043d575b8a88101462000429578190601f97888111620003d6575b508a9088831160011462000371575f9262000365575b50505f1982871b1c191690821b1784555b8551918211620003515760049586548281811c9116801562000346575b8a8210146200033357868111620002eb575b5088908684116001146200027b5783926200015a969284925f956200026f575b50501b925f19911b1c19161784555b6200015433620004e2565b620004e2565b84156200022d575060ff60055460a01c16620001f1575b60025490828201809211620001de57506002555f8381528083528481208054830190558451918252917fddf252ad1be2c89b69c2b068fc378daa952ba7f163c4a11628f55a4df523b3ef91a36005805460ff60a01b1916600160a01b17905551610c1e90816200052b8239f35b601190634e487b7160e01b5f525260245ffd5b5f80526006835260ff855f20541615806200021b575b156200017157845163a24e573d60e01b8152fd5b50835f5260ff855f2054161562000207565b855162461bcd60e51b815291820184905260248201527f45524332303a206d696e7420746f20746865207a65726f206164647265737300604482015260649150fd5b015193505f806200013a565b91939490601f19841692885f528a5f20935f5b8c828210620002d657505090856200015a9897969594939210620002bc575b50505050811b01845562000149565b01519060f8845f19921b161c191690555f808080620002ad565b8385015187559588019593840193016200028e565b875f52895f208780860160051c8201928c871062000329575b0160051c019083905b8281106200031d5750506200011a565b5f81550183906200030d565b9250819262000304565b602288634e487b7160e01b5f525260245ffd5b90607f169062000108565b634e487b7160e01b5f52604160045260245ffd5b015190505f80620000da565b5f8881528c8120869550929190601f198516908e5b828210620003be5750508411620003a6575b505050811b018455620000eb565b01515f1983891b60f8161c191690555f808062000398565b83850151865588979095019493840193018e62000386565b909150865f528a5f208880850160051c8201928d86106200041f575b918691869594930160051c01915b82811062000410575050620000c4565b5f815585945086910162000400565b92508192620003f2565b634e487b7160e01b5f52602260045260245ffd5b96607f1696620000ad565b5f80fd5b6040519190601f01601f191682016001600160401b038111838210176200035157604052565b919080601f84011215620004485782516001600160401b0381116200035157602090620004a8601f8201601f191683016200044c565b9281845282828701011162000448575f5b818110620004ce5750825f9394955001015290565b8581018301518482018401528201620004b9565b600580546001600160a01b039283166001600160a01b0319821681179092559091167f8be0079c531659141344cd1fd0a4f28419497f9722a3daafe3b4186f6b6457e05f80a356fe60806040818152600480361015610014575f80fd5b5f92833560e01c90816306fdde031461076b57508063095ea7b31461074157806318160ddd1461072257806323b872dd14610659578063313ce5671461063d57806339509351146105d657806370a082311461059f578063715018a614610542578063892dfdf61461051b5780638da5cb5b146104f257806395d89b41146103d2578063a457c2d71461032e578063a9059cbb146102fd578063cba0e996146102bf578063dd62ed3e14610276578063f1b50c1d14610226578063f2cc0c18146101b45763f2fde38b146100e6575f80fd5b346101b05760203660031901126101b0576100ff6108a7565b906101086108d7565b6001600160a01b0391821692831561015e575050600554826bffffffffffffffffffffffff60a01b821617600555167f8be0079c531659141344cd1fd0a4f28419497f9722a3daafe3b4186f6b6457e08380a380f35b906020608492519162461bcd60e51b8352820152602660248201527f4f776e61626c653a206e6577206f776e657220697320746865207a65726f206160448201526564647265737360d01b6064820152fd5b8280fd5b5050346102225760203660031901126102225760207f99e6fac281d5d0ec44b5e6ff60bbc23b07cb5920750f363b81089c7c1075d3d5916101f36108a7565b6101fb6108d7565b6001600160a01b031680855260068352818520805460ff191660011790559051908152a180f35b5080fd5b833461027357806003193601126102735761023f6108d7565b6005805460ff60a01b191690557faf7d697ef0ba633b3eae6ce87f1d049667fd2e034bfa7f83c89314a9592827e08180a180f35b80fd5b505034610222578060031936011261022257806020926102946108a7565b61029c6108c1565b6001600160a01b0391821683526001865283832091168252845220549051908152f35b5050346102225760203660031901126102225760209160ff9082906001600160a01b036102ea6108a7565b1681526006855220541690519015158152f35b50503461022257806003193601126102225760209061032761031d6108a7565b602435903361092f565b5160018152f35b5082346102735782600319360112610273576103486108a7565b918360243592338152600160205281812060018060a01b0386168252602052205490828210610381576020856103278585038733610aea565b608490602086519162461bcd60e51b8352820152602560248201527f45524332303a2064656372656173656420616c6c6f77616e63652062656c6f77604482015264207a65726f60d81b6064820152fd5b50919034610222578160031936011261022257805190828454600181811c908083169283156104e8575b60209384841081146104d5578388529081156104b95750600114610464575b505050829003601f01601f191682019267ffffffffffffffff841183851017610451575082918261044d925282610860565b0390f35b634e487b7160e01b815260418552602490fd5b8787529192508591837f8a35acfbc15ff81a39ae7d344fd709f28e8600b4aa8c65c6b64bfe7fe36bd19b5b8385106104a557505050508301015f808061041b565b80548886018301529301928490820161048f565b60ff1916878501525050151560051b84010190505f808061041b565b634e487b7160e01b895260228a52602489fd5b91607f16916103fc565b50503461022257816003193601126102225760055490516001600160a01b039091168152602090f35b50503461022257816003193601126102225760209060ff60055460a01c1690519015158152f35b833461027357806003193601126102735761055b6108d7565b600580546001600160a01b0319811690915581906001600160a01b03167f8be0079c531659141344cd1fd0a4f28419497f9722a3daafe3b4186f6b6457e08280a380f35b5050346102225760203660031901126102225760209181906001600160a01b036105c76108a7565b16815280845220549051908152f35b5091346102735781600319360112610273576105f06108a7565b338252600160209081528383206001600160a01b038316845290528282205460243581019290831061062a57602084610327858533610aea565b634e487b7160e01b815260118552602490fd5b5050346102225781600319360112610222576020905160128152f35b50829034610222576060366003190112610222576106756108a7565b61067d6108c1565b91846044359460018060a01b038416815260016020528181203382526020522054905f1982036106b6575b60208661032787878761092f565b8482106106df57509183916106d46020969561032795033383610aea565b9193948193506106a8565b606490602087519162461bcd60e51b8352820152601d60248201527f45524332303a20696e73756666696369656e7420616c6c6f77616e63650000006044820152fd5b5050346102225781600319360112610222576020906002549051908152f35b5050346102225780600319360112610222576020906103276107616108a7565b6024359033610aea565b84915083346101b057826003193601126101b05782600354600181811c90808316928315610856575b60209384841081146104d55783885290811561083a57506001146107e457505050829003601f01601f191682019267ffffffffffffffff841183851017610451575082918261044d925282610860565b600387529192508591837fc2575a0e9e593c00f959f8c92f12db2869c3395a3b0502d05e2516446f71f85b5b838510610826575050505083010185808061041b565b805488860183015293019284908201610810565b60ff1916878501525050151560051b840101905085808061041b565b91607f1691610794565b602080825282518183018190529093925f5b82811061089357505060409293505f838284010152601f8019910116010190565b818101860151848201604001528501610872565b600435906001600160a01b03821682036108bd57565b5f80fd5b602435906001600160a01b03821682036108bd57565b6005546001600160a01b031633036108eb57565b606460405162461bcd60e51b815260206004820152602060248201527f4f776e61626c653a2063616c6c6572206973206e6f7420746865206f776e65726044820152fd5b6001600160a01b03908116918215610a975716918215610a465760ff60055460a01c16610a06575b5f828152806020526040812054918083106109b257604082827fddf252ad1be2c89b69c2b068fc378daa952ba7f163c4a11628f55a4df523b3ef958760209652828652038282205586815220818154019055604051908152a3565b60405162461bcd60e51b815260206004820152602660248201527f45524332303a207472616e7366657220616d6f756e7420657863656564732062604482015265616c616e636560d01b6064820152608490fd5b815f52600660205260ff60405f2054161580610a34575b156109575760405163a24e573d60e01b8152600490fd5b50825f5260ff60405f20541615610a1d565b60405162461bcd60e51b815260206004820152602360248201527f45524332303a207472616e7366657220746f20746865207a65726f206164647260448201526265737360e81b6064820152608490fd5b60405162461bcd60e51b815260206004820152602560248201527f45524332303a207472616e736665722066726f6d20746865207a65726f206164604482015264647265737360d81b6064820152608490fd5b6001600160a01b03908116918215610b975716918215610b475760207f8c5be1e5ebec7d5bd14f71427d1e84f3dd0314c0f7b2291e5b200ac8c7c3b92591835f526001825260405f20855f5282528060405f2055604051908152a3565b60405162461bcd60e51b815260206004820152602260248201527f45524332303a20617070726f766520746f20746865207a65726f206164647265604482015261737360f01b6064820152608490fd5b60405162461bcd60e51b8152602060048201526024808201527f45524332303a20617070726f76652066726f6d20746865207a65726f206164646044820152637265737360e01b6064820152608490fdfea264697066735822122074cc039f183773e3db3ff27ce07731df2bacb4f1f33d8a2704c9c9ba148e3ad764736f6c63430008140033a2646970667358221220828da031955b0bc4f568c65c157214437573f09d7f33795af0be890e2848c2b364736f6c63430008140033",
  "libraries": {},
  "devdoc": {
    "kind": "dev",
    "methods": {
      "createToken(string,string,uint256,address)": {
        "params": {
          "initialOwner": "Initial Owner",
          "name": "Token name",
          "symbol": "Token symbol",
          "totalSupply": "Initial total supply"
        },
        "returns": {
          "token": "The address of the new token"
        }
      }
    },
    "version": 1
  },
  "userdoc": {
    "kind": "user",
    "methods": {
      "createToken(string,string,uint256,address)": {
        "notice": "Creates a new INTERC20 token"
      }
    },
    "version": 1
  },
  "storageLayout": {
    "storage": [],
    "types": null
  }
}