{
  "address": "0xD4d928B56e2b7d77F6d1CdF8cea2E990Cf882Fc9",
  "abi": [
    {
      "inputs": [],
      "name": "AssetTokenIsZeroAddress",
      "type": "error"
    },
    {
      "inputs": [],
      "name": "FactoryIsZeroAddress",
      "type": "error"
    },
    {
      "inputs": [],
      "name": "InputAmountIsZero",
      "type": "error"
    },
    {
      "inputs": [],
      "name": "RecipientIsZeroAddress",
      "type": "error"
    },
    {
      "inputs": [],
      "name": "TokenIsZeroAddress",
      "type": "error"
    },
    {
      "anonymous": false,
      "inputs": [
        {
          "indexed": true,
          "internalType": "address",
          "name": "account",
          "type": "address"
        },
        {
          "indexed": true,
          "internalType": "address",
          "name": "token",
          "type": "address"
        },
        {
          "indexed": false,
          "internalType": "uint256",
          "name": "tokenAmount",
          "type": "uint256"
        },
        {
          "indexed": false,
          "internalType": "uint256",
          "name": "assetAmount",
          "type": "uint256"
        },
        {
          "indexed": false,
          "internalType": "uint256",
          "name": "assetFee",
          "type": "uint256"
        },
        {
          "indexed": false,
          "internalType": "uint256",
          "name": "tokenReserve",
          "type": "uint256"
        },
        {
          "indexed": false,
          "internalType": "uint256",
          "name": "assetReserve",
          "type": "uint256"
        },
        {
          "indexed": false,
          "internalType": "uint256",
          "name": "timestamp",
          "type": "uint256"
        }
      ],
      "name": "Buy",
      "type": "event"
    },
    {
      "anonymous": false,
      "inputs": [
        {
          "indexed": true,
          "internalType": "address",
          "name": "token",
          "type": "address"
        },
        {
          "indexed": false,
          "internalType": "uint256",
          "name": "tokenReserve",
          "type": "uint256"
        },
        {
          "indexed": false,
          "internalType": "uint256",
          "name": "assetReserve",
          "type": "uint256"
        }
      ],
      "name": "InitialLiquidityAdded",
      "type": "event"
    },
    {
      "anonymous": false,
      "inputs": [
        {
          "indexed": true,
          "internalType": "address",
          "name": "account",
          "type": "address"
        },
        {
          "indexed": true,
          "internalType": "address",
          "name": "token",
          "type": "address"
        },
        {
          "indexed": false,
          "internalType": "uint256",
          "name": "tokenAmount",
          "type": "uint256"
        },
        {
          "indexed": false,
          "internalType": "uint256",
          "name": "assetAmount",
          "type": "uint256"
        },
        {
          "indexed": false,
          "internalType": "uint256",
          "name": "assetFee",
          "type": "uint256"
        },
        {
          "indexed": false,
          "internalType": "uint256",
          "name": "tokenReserve",
          "type": "uint256"
        },
        {
          "indexed": false,
          "internalType": "uint256",
          "name": "assetReserve",
          "type": "uint256"
        },
        {
          "indexed": false,
          "internalType": "uint256",
          "name": "timestamp",
          "type": "uint256"
        }
      ],
      "name": "Sell",
      "type": "event"
    },
    {
      "inputs": [
        {
          "internalType": "contract INTFactory",
          "name": "factory",
          "type": "INTFactory"
        },
        {
          "internalType": "address",
          "name": "assetToken",
          "type": "address"
        },
        {
          "internalType": "address",
          "name": "token",
          "type": "address"
        },
        {
          "internalType": "uint256",
          "name": "amountIn",
          "type": "uint256"
        }
      ],
      "name": "quoteBuy",
      "outputs": [
        {
          "internalType": "uint256",
          "name": "amountOut",
          "type": "uint256"
        },
        {
          "internalType": "uint256",
          "name": "txFee",
          "type": "uint256"
        }
      ],
      "stateMutability": "view",
      "type": "function"
    },
    {
      "inputs": [
        {
          "internalType": "contract INTFactory",
          "name": "factory",
          "type": "INTFactory"
        },
        {
          "internalType": "address",
          "name": "assetToken",
          "type": "address"
        },
        {
          "internalType": "address",
          "name": "token",
          "type": "address"
        },
        {
          "internalType": "uint256",
          "name": "amountIn",
          "type": "uint256"
        }
      ],
      "name": "quoteSell",
      "outputs": [
        {
          "internalType": "uint256",
          "name": "amountOut",
          "type": "uint256"
        },
        {
          "internalType": "uint256",
          "name": "txFee",
          "type": "uint256"
        }
      ],
      "stateMutability": "view",
      "type": "function"
    }
  ],
  "transactionHash": "0x312a9c326bd7ac306f2d95d596df84046084152ca9c609189b3d587f007ab1a6",
  "args": [],
  "numDeployments": 3,
  "solcInputHash": "c1c7d9f7fb968a9dca8ae6dc66da337e",
  "bytecode": "0x6080806040523461001c5761169d90816100218239308160080152f35b5f80fdfe608080604052307f0000000000000000000000000000000000000000000000000000000000000000146004361015610035575f80fd5b5f91823560e01c9081630afbf7f314610e04575080633e834e241461091e5780637521b25c14610907578063a6b89187146108e4578063c682df77146102be5763e743240d14610083575f80fd5b6101d65760603660031901126101d65761009b610f8c565b6100a3610fa2565b6100ab610fb8565b916001600160a01b0390818416156102ac5760405163e6a4390560e01b81526001600160a01b03948516600482015292909316602483015283926020929083908290604490829086165afa9081156101fc57849161027f575b501660405163c66f245560e01b81528281600481855afa9081156101fc57849161024e575b506040516316d3df1560e31b81528381600481865afa93841561024357859461020c575b5050813b1561020757604051635c921eb960e01b81523060048201526024810191909152838160448183865af19081156101fc5784916101e8575b5050803b156101e4576040516302ccb1b360e41b8152306004820152602481019290925282908290604490829084905af180156101d9576101c65750f35b6101cf9061105d565b6101d65780f35b80fd5b6040513d84823e3d90fd5b5050fd5b6101f19061105d565b6101e457825f610188565b6040513d86823e3d90fd5b505050fd5b819550809294503d831161023c575b61022581836110a1565b8101031261023857839251915f8061014d565b5f80fd5b503d61021b565b6040513d87823e3d90fd5b809450838092503d8311610278575b61026781836110a1565b81010312610238578392515f610129565b503d61025d565b61029f9150833d85116102a5575b61029781836110a1565b8101906111e4565b5f610104565b503d61028d565b604051639bb8530d60e01b8152600490fd5b506101d6576102cc36610fce565b909491939290916001600160a01b038616156102ac576001600160a01b038316156108d25784156108c05760405163e6a4390560e01b81526001600160a01b0380881660048301528316602482015295602087806044810103816001600160a01b0389165afa9687156101d957829761089f575b5061034d86828588611345565b9095909390610367888a886001600160a01b03871661160c565b6001600160a01b0389163b156107f057604051635c921eb960e01b81526001600160a01b03871660048201526024810188905284818b8183816044810103926001600160a01b03165af180156102435790859161088b575b50506040516355ce97dd60e11b81525f92906020816004816001600160a01b0387165afa9081156101fc578491610858575b5090602060646104036004948a6110c3565b6040516361d027b360e01b8152919004949093849182906001600160a01b03165afa9182156101fc578492610837575b5061043e8388611108565b604051634d86030360e01b81526001600160a01b038716600482015290939092602084602481305afa93841561082c57869461080b575b506001600160a01b038d163b1561080757604051635c921eb960e01b81526001600160a01b039091166004820152602481019190915284818d8183816044810103926001600160a01b03165af18015610243576107f4575b506001600160a01b038b163b156107f057604051635c921eb960e01b81523060048201526024810184905284818d8183816044810103926001600160a01b03165af18015610243579085916107dc575b505060405163095ea7b360e01b602082018181526001600160a01b038581166024850152604484018790529193909116908690819061056985606481015b03601f1981018752866110a1565b84519082855af16105786114fb565b816107ad575b50806107a3575b1561075f575b5050506001600160a01b031690813b1561075b57829160248392604051948593849263211e242d60e11b845260048401525af180156101d957610747575b5050604051635673b02d60e01b815260048101879052602481018390526044810183905260648101869052602081608481866001600160a01b038d165af1801561073c579760409160049961070d575b508151630240bc6b60e21b815298899182906001600160a01b03165afa9081156101d95760409783926106b4575b508751878152602081018790526040810194909452606084019290925260808301524260a08301526001600160a01b039081169216907f594898f0701a8fbcf3e869135bc2a2d8194e98a46765b1f6ef41138fe049ebb8908060c081015b0390a382519182526020820152f35b7f594898f0701a8fbcf3e869135bc2a2d8194e98a46765b1f6ef41138fe049ebb893506106a59492506106fc90893d8b11610706575b6106f481836110a1565b810190611203565b9294909350610647565b503d6106ea565b61072e9060203d602011610735575b61072681836110a1565b8101906113ec565b505f610619565b503d61071c565b6040513d85823e3d90fd5b610751829161105d565b6101d657806105c9565b8280fd5b61079661079b9360405190602082015260018060a01b03861660248201528760448201526044815261079081611085565b82611404565b611404565b5f808061058b565b50803b1515610585565b80518015925082156107c2575b50505f61057e565b6107d592506020809183010191016113ec565b5f806107ba565b6107e59061105d565b6107f057835f61051d565b8380fd5b6108009094919461105d565b925f6104cd565b8580fd5b61082591945060203d6020116102a55761029781836110a1565b925f610475565b6040513d88823e3d90fd5b61085191925060203d6020116102a55761029781836110a1565b905f610433565b90506020813d602011610883575b81610873602093836110a1565b810103126107f0575160206103f1565b3d9150610866565b6108949061105d565b6107f057835f6103bf565b6108b991975060203d6020116102a55761029781836110a1565b955f610340565b604051632f44ea3760e01b8152600490fd5b6040516311d000e160e31b8152600490fd5b60406108fb6108f23661101c565b92919091611345565b82519182526020820152f35b60406108fb6109153661101c565b92919091611122565b506101d65761092c36610fce565b919392906001600160a01b038116156102ac576001600160a01b038316156108d25784156108c05760405163e6a4390560e01b81526001600160a01b03828116600483015283811660248301528516948793916020816044818a5afa9081156102435784848a928894610de1575b506109a59394611122565b9490966109b2868a611108565b936109c885858a6001600160a01b03851661160c565b6040516355ce97dd60e11b815290602082600481865afa9182156101fc578492610dac575b50602060646109fe6004948b6110c3565b0493604051938480926361d027b360e01b82525afa9182156101fc578492610d8b575b50610a2c8389611108565b604051634d86030360e01b81526001600160a01b038916600482015290939092602084602481305afa93841561082c578694610d64575b50610a7991908b6001600160a01b03851661160c565b610a8e83308b6001600160a01b03851661160c565b60405163095ea7b360e01b602082018181526001600160a01b03851660248401526044830186905290929086908190610aca856064810161055b565b845190826001600160a01b0386165af1610ae26114fb565b81610d35575b5080610d22575b15610ccc575b5050506001600160a01b0316803b1561075b5760248392604051948593849263211e242d60e11b845260048401525af18015610c9b57610cbd575b506001600160a01b0316803b15610cb9576040516302ccb1b360e41b81526001600160a01b038616600482015260248101879052888160448183865af18015610c9b57610ca6575b5060405190635673b02d60e01b82528860048301528660248301528260448301528860648301526020826084818c855af1908115610c9b57600492604092610c7c575b508151630240bc6b60e21b815292839182905afa908115610c7157917f30df0cd28c6e48e6fe24bcab9f36b5052aef24c98ba64b6ef2ba66b659e9a29e9391899360409a9491610c4c575b50895188815260208101929092526040820195909552606081019290925260808201939093524260a08201526001600160a01b0392831693909216918060c081016106a5565b6106a5929450610c6991508a3d8c11610706576106f481836110a1565b909391610c06565b6040513d8a823e3d90fd5b610c949060203d6020116107355761072681836110a1565b505f610bbb565b6040513d8b823e3d90fd5b610cb29098919861105d565b965f610b78565b8780fd5b610cc69061105d565b5f610b30565b610d0c610d1a9360405190602082015260018060a01b038616602482015287604482015260448152610cfd81611085565b6001600160a01b038316611404565b6001600160a01b0316611404565b5f8080610af5565b506001600160a01b0381163b1515610aef565b8051801592508215610d4a575b50505f610ae8565b610d5d92506020809183010191016113ec565b5f80610d42565b610a7992919450610d839060203d6020116102a55761029781836110a1565b939091610a63565b610da591925060203d6020116102a55761029781836110a1565b905f610a21565b91506020823d602011610dd9575b81610dc7602093836110a1565b810103126107f05790519060206109ed565b3d9150610dba565b6109a59450610dfe9060203d6020116102a55761029781836110a1565b9361099a565b919050610f885760a0366003190112610f8857610e1f610f8c565b90610e28610fa2565b610e30610fb8565b60643593608435936001600160a01b038084169390918415610f79575060405163e6a4390560e01b81526001600160a01b03918216600482015294166024850152602093879290919085908390604490829085165afa91821561073c5785926044918591610f5c575b5060405163a9059cbb60e01b858201526001600160a01b038216602482015260448082018b90528152610ed790610ed16064826110a1565b87611404565b6040519485938492630d9778e560e11b84528b60048501528a6024850152165af1801561082c5760409650610f3f575b507ffceec8344ad03a63e2303215f42c4071fadc71c9ae6a9fedb959dc03a3ce9fce8580518681528585820152a28351928352820152f35b610f5590833d85116107355761072681836110a1565b505f610f07565b610f739150843d86116102a55761029781836110a1565b5f610e99565b639bb8530d60e01b8152600490fd5b5080fd5b600435906001600160a01b038216820361023857565b602435906001600160a01b038216820361023857565b604435906001600160a01b038216820361023857565b60a0906003190112610238576001600160a01b036004358181168103610238579160243582811681036102385791604435916064358281168103610238579160843590811681036102385790565b6080906003190112610238576001600160a01b0360043581811681036102385791602435828116810361023857916044359081168103610238579060643590565b67ffffffffffffffff811161107157604052565b634e487b7160e01b5f52604160045260245ffd5b6080810190811067ffffffffffffffff82111761107157604052565b90601f8019910116810190811067ffffffffffffffff82111761107157604052565b818102929181159184041417156110d657565b634e487b7160e01b5f52601160045260245ffd5b81156110f4570490565b634e487b7160e01b5f52601260045260245ffd5b919082039182116110d657565b919082018092116110d657565b6001600160a01b0391838316156102ac576020936111409183611219565b9391949092600460405180948193632383120160e11b8352165afa80156111d95785915f916111a3575b5061119a9261118e60646111866111a0989795611194956110c3565b048098611108565b90611115565b906110ea565b90611108565b91565b91506020823d82116111d1575b816111bd602093836110a1565b810103126101d6575051849061119a61116a565b3d91506111b0565b6040513d5f823e3d90fd5b9081602091031261023857516001600160a01b03811681036102385790565b9190826040910312610238576020825192015190565b6040805163e6a4390560e01b81526001600160a01b03948516600482015292841660248401526020939092909184908290604490829086165afa90811561133b575f9161131e575b501692815191630240bc6b60e21b83528083600481885afa938415611314575f9384956112ec575b50806004939496835194858092637464fc3d60e01b82525afa9182156112e357505f916112b7575b50905090565b82813d83116112dc575b6112cb81836110a1565b810103126101d6575051805f6112b1565b503d6112c1565b513d5f823e3d90fd5b819550600493945061130a90833d8511610706576106f481836110a1565b9590949350611289565b50513d5f823e3d90fd5b6113359150843d86116102a55761029781836110a1565b5f611261565b83513d5f823e3d90fd5b926001600160a01b039290838216156102ac5761119a61119461136e6113789460209689611219565b9291949094611115565b9260046040518094819363158a652b60e11b8352165afa80156111d95782915f916113b6575b506113ae6111a0926064926110c3565b048092611108565b91506020823d82116113e4575b816113d0602093836110a1565b810103126101d657505181906113ae61139e565b3d91506113c3565b90816020910312610238575180151581036102385790565b60408051908101916001600160a01b031667ffffffffffffffff83118284101761107157611473926040525f806020958685527f5361666545524332303a206c6f772d6c6576656c2063616c6c206661696c656487860152868151910182855af161146d6114fb565b9161153a565b8051908282159283156114e3575b5050501561148c5750565b6084906040519062461bcd60e51b82526004820152602a60248201527f5361666545524332303a204552433230206f7065726174696f6e20646964206e6044820152691bdd081cdd58d8d9595960b21b6064820152fd5b6114f393508201810191016113ec565b5f8281611481565b3d15611535573d9067ffffffffffffffff8211611071576040519161152a601f8201601f1916602001846110a1565b82523d5f602084013e565b606090565b9192901561159c575081511561154e575090565b3b156115575790565b60405162461bcd60e51b815260206004820152601d60248201527f416464726573733a2063616c6c20746f206e6f6e2d636f6e74726163740000006044820152606490fd5b8251909150156115af5750805190602001fd5b6040519062461bcd60e51b82528160208060048301528251908160248401525f935b8285106115f3575050604492505f838284010152601f80199101168101030190fd5b84810182015186860160440152938101938593506115d1565b6040516323b872dd60e01b60208201526001600160a01b03928316602482015292909116604483015260648083019390935291815260a081019181831067ffffffffffffffff8411176110715761166592604052611404565b56fea2646970667358221220cb493f5deaaadc60ed0383997b2ed080269ca37e4d179c6183fdc4b1c648283c64736f6c63430008140033",
  "libraries": {},
  "devdoc": {
    "kind": "dev",
    "methods": {},
    "version": 1
  },
  "userdoc": {
    "kind": "user",
    "methods": {},
    "version": 1
  },
  "storageLayout": {
    "storage": [],
    "types": null
  }
}