{
  "address": "0x269b6231438f92ed2Bc803418e43a57070F586Da",
  "abi": [
    {
      "inputs": [
        {
          "internalType": "address",
          "name": "_asset",
          "type": "address"
        },
        {
          "internalType": "address",
          "name": "_pair",
          "type": "address"
        }
      ],
      "stateMutability": "nonpayable",
      "type": "constructor"
    },
    {
      "anonymous": false,
      "inputs": [
        {
          "indexed": true,
          "internalType": "uint256",
          "name": "twapId",
          "type": "uint256"
        },
        {
          "indexed": false,
          "internalType": "uint256",
          "name": "timestamp",
          "type": "uint256"
        },
        {
          "indexed": false,
          "internalType": "uint256",
          "name": "priceCumulative",
          "type": "uint256"
        }
      ],
      "name": "AssetTwapUpdated",
      "type": "event"
    },
    {
      "inputs": [],
      "name": "asset",
      "outputs": [
        {
          "internalType": "address",
          "name": "",
          "type": "address"
        }
      ],
      "stateMutability": "view",
      "type": "function"
    },
    {
      "inputs": [],
      "name": "getAssetPrice",
      "outputs": [
        {
          "internalType": "uint256",
          "name": "",
          "type": "uint256"
        }
      ],
      "stateMutability": "nonpayable",
      "type": "function"
    },
    {
      "inputs": [],
      "name": "isToken0",
      "outputs": [
        {
          "internalType": "bool",
          "name": "",
          "type": "bool"
        }
      ],
      "stateMutability": "view",
      "type": "function"
    },
    {
      "inputs": [],
      "name": "pair",
      "outputs": [
        {
          "internalType": "address",
          "name": "",
          "type": "address"
        }
      ],
      "stateMutability": "view",
      "type": "function"
    },
    {
      "inputs": [],
      "name": "pairToken",
      "outputs": [
        {
          "internalType": "address",
          "name": "",
          "type": "address"
        }
      ],
      "stateMutability": "view",
      "type": "function"
    },
    {
      "inputs": [],
      "name": "periodSize",
      "outputs": [
        {
          "internalType": "uint256",
          "name": "",
          "type": "uint256"
        }
      ],
      "stateMutability": "view",
      "type": "function"
    },
    {
      "inputs": [],
      "name": "priceFactor",
      "outputs": [
        {
          "internalType": "uint256",
          "name": "",
          "type": "uint256"
        }
      ],
      "stateMutability": "view",
      "type": "function"
    },
    {
      "inputs": [
        {
          "internalType": "uint256",
          "name": "",
          "type": "uint256"
        }
      ],
      "name": "twap",
      "outputs": [
        {
          "internalType": "uint256",
          "name": "timestamp",
          "type": "uint256"
        },
        {
          "internalType": "uint256",
          "name": "priceCumulative",
          "type": "uint256"
        }
      ],
      "stateMutability": "view",
      "type": "function"
    },
    {
      "inputs": [],
      "name": "twapLength",
      "outputs": [
        {
          "internalType": "uint256",
          "name": "",
          "type": "uint256"
        }
      ],
      "stateMutability": "view",
      "type": "function"
    }
  ],
  "transactionHash": "0xfd81b7e2393bb1765ac83f123c9d6a1c49a355831930ff7c66bef933da0afe82",
  "args": [
    "0x216cE14DdbA7E4C42f7a7B9411ba4D9b3C41b060",
    "0x3B13e6c0A80CBD20F1bc60E25B9e0746E34Df2Dc"
  ],
  "numDeployments": 1,
  "solcInputHash": "b4a37250fb37cd232038b4ef0e270f7f",
  "bytecode": "0x6101006040523480156200001257600080fd5b506040516200143338038062001433833981810160405260408110156200003857600080fd5b50805160209182015160408051630dfe168160e01b81529051929391926000926001600160a01b03851692630dfe16819260048083019392829003018186803b1580156200008557600080fd5b505afa1580156200009a573d6000803e3d6000fd5b505050506040513d6020811015620000b157600080fd5b50516040805163d21220a760e01b815290519192506000916001600160a01b0385169163d21220a7916004808301926020929190829003018186803b158015620000fa57600080fd5b505afa1580156200010f573d6000803e3d6000fd5b505050506040513d60208110156200012657600080fd5b505190506001600160a01b03828116908516146000816200014857836200014a565b825b905081806200016a5750856001600160a01b0316836001600160a01b0316145b620001bc576040805162461bcd60e51b815260206004820152601860248201527f6173736574206973206e6f7420696e2074686520706169720000000000000000604482015290519081900360640190fd5b606086811b6001600160601b03199081166080526000805460ff60a01b1916600160a01b86151502176001600160a01b0319166001600160a01b03898116919091179091559183901b1660a0526201518060c0526040805163313ce56760e01b81529051620002949284169163313ce567916004808301926020929190829003018186803b1580156200024e57600080fd5b505afa15801562000263573d6000803e3d6000fd5b505050506040513d60208110156200027a57600080fd5b505160249060ff16620002b9602090811b6200065a17901c565b600a0a60e052620002ad6001600160e01b036200031816565b50505050505062000928565b8082038281111562000312576040805162461bcd60e51b815260206004820152601560248201527f64732d6d6174682d7375622d756e646572666c6f770000000000000000000000604482015290519081900360640190fd5b92915050565b600080620003456000809054906101000a90046001600160a01b03166200038460201b620003271760201c565b50600060018190555491935091506200038090600160a01b900460ff166200036e578162000370565b825b426001600160e01b03620005ab16565b5050565b600080806200039b6001600160e01b036200061116565b9050836001600160a01b0316635909c0d56040518163ffffffff1660e01b815260040160206040518083038186803b158015620003d757600080fd5b505afa158015620003ec573d6000803e3d6000fd5b505050506040513d60208110156200040357600080fd5b505160408051635a3d549360e01b815290519194506001600160a01b03861691635a3d549391600480820192602092909190829003018186803b1580156200044a57600080fd5b505afa1580156200045f573d6000803e3d6000fd5b505050506040513d60208110156200047657600080fd5b505160408051630240bc6b60e21b81529051919350600091829182916001600160a01b03891691630902f1ac916004808301926060929190829003018186803b158015620004c357600080fd5b505afa158015620004d8573d6000803e3d6000fd5b505050506040513d6060811015620004ef57600080fd5b5080516020820151604090920151909450909250905063ffffffff80821690851614620005a157600081850390508063ffffffff166200054d846001600160701b0316866001600160701b03166200061b60201b620007551760201c565b600001516001600160e01b031602870196508063ffffffff166200058f856001600160701b0316856001600160701b03166200061b60201b620007551760201c565b516001600160e01b0316029590950194505b5050509193909250565b6001805480820182556000818152600260209081526040918290209384018690559284905580518481529283018590528051919283927f18b99ff67a0832ef498d0a422145f8de1257fbdf0a3da79d9cd0550c6388b7ec929181900390910190a2505050565b63ffffffff421690565b6200062562000916565b60008211620006665760405162461bcd60e51b81526004018080602001828103825260268152602001806200140d6026913960400191505060405180910390fd5b8262000682575060408051602081019091526000815262000312565b6001600160901b0383116200072257600082607085901b81620006a157fe5b0490506001600160e01b0381111562000701576040805162461bcd60e51b815260206004820152601e60248201527f4669786564506f696e743a3a6672616374696f6e3a206f766572666c6f770000604482015290519081900360640190fd5b6040518060200160405280826001600160e01b031681525091505062000312565b60006200074084600160701b856200079f60201b620008c11760201c565b90506001600160e01b0381111562000701576040805162461bcd60e51b815260206004820152601e60248201527f4669786564506f696e743a3a6672616374696f6e3a206f766572666c6f770000604482015290519081900360640190fd5b60008080620007b886866001600160e01b036200087516565b9150915060008480620007c757fe5b868809905082811115620007dc576001820391505b918290039181620007fd57848381620007f157fe5b0493505050506200086e565b84821062000852576040805162461bcd60e51b815260206004820152601a60248201527f46756c6c4d6174683a2046554c4c4449565f4f564552464c4f57000000000000604482015290519081900360640190fd5b620008688383876001600160e01b03620008a316565b93505050505b9392505050565b60008080600019848609905083850292508281039150828110156200089b576001820391505b509250929050565b60008181038216808381620008b457fe5b049250808581620008c157fe5b049450808160000381620008d157fe5b60028581038087028203028087028203028087028203028087028203028087028203028087028203029586029003909402930460010193909302939093010292915050565b60408051602081019091526000815290565b60805160601c60a05160601c60c05160e051610a9a62000973600039806101d852806102e85250806101fc5280610558528061058b52508061017c5250806101585250610a9a6000f3fe608060405234801561001057600080fd5b50600436106100935760003560e01c8063a8aa1b3111610066578063a8aa1b3114610114578063dcf93f321461011c578063dfb2866d14610138578063e4463eb214610140578063e54f08801461014857610093565b806314691ff61461009857806338d52e0f146100b25780633de35b79146100d65780636c1b80e3146100de575b600080fd5b6100a0610150565b60408051918252519081900360200190f35b6100ba610156565b604080516001600160a01b039092168252519081900360200190f35b6100ba61017a565b6100fb600480360360208110156100f457600080fd5b503561019e565b6040805192835260208301919091528051918290030190f35b6100ba6101b7565b6101246101c6565b604080519115158252519081900360200190f35b6100a06101d6565b6100a06101fa565b6100a061021e565b60015481565b7f000000000000000000000000000000000000000000000000000000000000000081565b7f000000000000000000000000000000000000000000000000000000000000000081565b6002602052600090815260409020805460019091015482565b6000546001600160a01b031681565b600054600160a01b900460ff1681565b7f000000000000000000000000000000000000000000000000000000000000000081565b7f000000000000000000000000000000000000000000000000000000000000000081565b600061022861022e565b90505b90565b6000805481908190610248906001600160a01b0316610327565b509150915060008060149054906101000a900460ff16610268578161026a565b825b9050426000808061027a84610516565b92509250925080156102905761029085856105f4565b816102a557600097505050505050505061022b565b6102ad610a19565b604080516020810190915280846102ca898863ffffffff61065a16565b816102d157fe5b046001600160e01b03169052905061031161030c827f00000000000000000000000000000000000000000000000000000000000000006106b0565b610744565b6001600160901b03169850505050505050505090565b600080600061033461074b565b9050836001600160a01b0316635909c0d56040518163ffffffff1660e01b815260040160206040518083038186803b15801561036f57600080fd5b505afa158015610383573d6000803e3d6000fd5b505050506040513d602081101561039957600080fd5b505160408051635a3d549360e01b815290519194506001600160a01b03861691635a3d549391600480820192602092909190829003018186803b1580156103df57600080fd5b505afa1580156103f3573d6000803e3d6000fd5b505050506040513d602081101561040957600080fd5b505160408051630240bc6b60e21b81529051919350600091829182916001600160a01b03891691630902f1ac916004808301926060929190829003018186803b15801561045557600080fd5b505afa158015610469573d6000803e3d6000fd5b505050506040513d606081101561047f57600080fd5b5080516020820151604090920151909450909250905063ffffffff8082169085161461050c5780840363ffffffff81166104c56001600160701b03808616908716610755565b600001516001600160e01b031602870196508063ffffffff166104fa856001600160701b0316856001600160701b0316610755565b516001600160e01b0316029590950194505b5050509193909250565b6000806000806105316001805461065a90919063ffffffff16565b60008181526002602052604090205490915061055490869063ffffffff61065a16565b92507f000000000000000000000000000000000000000000000000000000000000000083101591506000811180156105ae575060027f00000000000000000000000000000000000000000000000000000000000000000483105b156105da57600019016000818152600260205260409020546105d790869063ffffffff61065a16565b92505b600090815260026020526040902060010154949193509150565b6001805480820182556000818152600260209081526040918290209384018690559284905580518481529283018590528051919283927f18b99ff67a0832ef498d0a422145f8de1257fbdf0a3da79d9cd0550c6388b7ec929181900390910190a2505050565b808203828111156106aa576040805162461bcd60e51b815260206004820152601560248201527464732d6d6174682d7375622d756e646572666c6f7760581b604482015290519081900360640190fd5b92915050565b6106b8610a2b565b60008215806106de57505082516001600160e01b0316828102908382816106db57fe5b04145b61072f576040805162461bcd60e51b815260206004820152601960248201527f4669786564506f696e743a3a6d756c3a206f766572666c6f7700000000000000604482015290519081900360640190fd5b60408051602081019091529081529392505050565b5160701c90565b63ffffffff421690565b61075d610a19565b6000821161079c5760405162461bcd60e51b8152600401808060200182810382526026815260200180610a3f6026913960400191505060405180910390fd5b826107b657506040805160208101909152600081526106aa565b6001600160901b03831161085257600082607085901b816107d357fe5b0490506001600160e01b03811115610832576040805162461bcd60e51b815260206004820152601e60248201527f4669786564506f696e743a3a6672616374696f6e3a206f766572666c6f770000604482015290519081900360640190fd5b6040518060200160405280826001600160e01b03168152509150506106aa565b600061086384600160701b856108c1565b90506001600160e01b03811115610832576040805162461bcd60e51b815260206004820152601e60248201527f4669786564506f696e743a3a6672616374696f6e3a206f766572666c6f770000604482015290519081900360640190fd5b60008060006108d0868661097c565b91509150600084806108de57fe5b8688099050828111156108f2576001820391505b9182900391816109105784838161090557fe5b049350505050610975565b848210610964576040805162461bcd60e51b815260206004820152601a60248201527f46756c6c4d6174683a2046554c4c4449565f4f564552464c4f57000000000000604482015290519081900360640190fd5b61096f8383876109a9565b93505050505b9392505050565b60008080600019848609905083850292508281039150828110156109a1576001820391505b509250929050565b600081810382168083816109b957fe5b0492508085816109c557fe5b0494508081600003816109d457fe5b60028581038087028203028087028203028087028203028087028203028087028203028087028203029586029003909402930460010193909302939093010292915050565b60408051602081019091526000815290565b604051806020016040528060008152509056fe4669786564506f696e743a3a6672616374696f6e3a206469766973696f6e206279207a65726fa264697066735822122031340ddf40f59097ae33244a7a409556017c25157afa2ab9b7b66694465e7c5b64736f6c634300060600334669786564506f696e743a3a6672616374696f6e3a206469766973696f6e206279207a65726f",
  "libraries": {},
  "devdoc": {
    "methods": {
      "getAssetPrice()": {
        "details": "Get asset price.",
        "returns": {
          "_0": "Asset price."
        }
      }
    }
  },
  "userdoc": {
    "methods": {}
  },
  "storageLayout": {
    "storage": [
      {
        "astId": 1773,
        "contract": "src/oracle/UniV2TWAP.sol:UniV2TWAP",
        "label": "pair",
        "offset": 0,
        "slot": "0",
        "type": "t_address"
      },
      {
        "astId": 1775,
        "contract": "src/oracle/UniV2TWAP.sol:UniV2TWAP",
        "label": "isToken0",
        "offset": 20,
        "slot": "0",
        "type": "t_bool"
      },
      {
        "astId": 1781,
        "contract": "src/oracle/UniV2TWAP.sol:UniV2TWAP",
        "label": "twapLength",
        "offset": 0,
        "slot": "1",
        "type": "t_uint256"
      },
      {
        "astId": 1790,
        "contract": "src/oracle/UniV2TWAP.sol:UniV2TWAP",
        "label": "twap",
        "offset": 0,
        "slot": "2",
        "type": "t_mapping(t_uint256,t_struct(Twap)1786_storage)"
      }
    ],
    "types": {
      "t_address": {
        "encoding": "inplace",
        "label": "address",
        "numberOfBytes": "20"
      },
      "t_bool": {
        "encoding": "inplace",
        "label": "bool",
        "numberOfBytes": "1"
      },
      "t_mapping(t_uint256,t_struct(Twap)1786_storage)": {
        "encoding": "mapping",
        "key": "t_uint256",
        "label": "mapping(uint256 => struct UniV2TWAP.Twap)",
        "numberOfBytes": "32",
        "value": "t_struct(Twap)1786_storage"
      },
      "t_struct(Twap)1786_storage": {
        "encoding": "inplace",
        "label": "struct UniV2TWAP.Twap",
        "members": [
          {
            "astId": 1783,
            "contract": "src/oracle/UniV2TWAP.sol:UniV2TWAP",
            "label": "timestamp",
            "offset": 0,
            "slot": "0",
            "type": "t_uint256"
          },
          {
            "astId": 1785,
            "contract": "src/oracle/UniV2TWAP.sol:UniV2TWAP",
            "label": "priceCumulative",
            "offset": 0,
            "slot": "1",
            "type": "t_uint256"
          }
        ],
        "numberOfBytes": "64"
      },
      "t_uint256": {
        "encoding": "inplace",
        "label": "uint256",
        "numberOfBytes": "32"
      }
    }
  }
}