{
  "address": "0x264053dEDC0a04D66AE6Eb1bc7bf111b2a38C7b1",
  "abi": [
    {
      "inputs": [
        {
          "internalType": "address",
          "name": "_bonding",
          "type": "address"
        }
      ],
      "stateMutability": "nonpayable",
      "type": "constructor"
    },
    {
      "inputs": [],
      "name": "bonding",
      "outputs": [
        {
          "internalType": "contract Bonding",
          "name": "",
          "type": "address"
        }
      ],
      "stateMutability": "view",
      "type": "function"
    },
    {
      "inputs": [
        {
          "internalType": "uint256",
          "name": "start",
          "type": "uint256"
        },
        {
          "internalType": "uint256",
          "name": "size",
          "type": "uint256"
        }
      ],
      "name": "getTokenData",
      "outputs": [
        {
          "components": [
            {
              "internalType": "address",
              "name": "creator",
              "type": "address"
            },
            {
              "internalType": "address",
              "name": "token",
              "type": "address"
            },
            {
              "internalType": "address",
              "name": "pair",
              "type": "address"
            },
            {
              "internalType": "address",
              "name": "locker",
              "type": "address"
            },
            {
              "internalType": "string",
              "name": "description",
              "type": "string"
            },
            {
              "internalType": "string",
              "name": "image",
              "type": "string"
            },
            {
              "internalType": "string",
              "name": "twitter",
              "type": "string"
            },
            {
              "internalType": "string",
              "name": "telegram",
              "type": "string"
            },
            {
              "internalType": "string",
              "name": "farcaster",
              "type": "string"
            },
            {
              "internalType": "string",
              "name": "website",
              "type": "string"
            },
            {
              "internalType": "enum Bonding.TokenStatus",
              "name": "status",
              "type": "uint8"
            },
            {
              "internalType": "string",
              "name": "name",
              "type": "string"
            },
            {
              "internalType": "string",
              "name": "ticker",
              "type": "string"
            },
            {
              "internalType": "uint256",
              "name": "supply",
              "type": "uint256"
            }
          ],
          "internalType": "struct TokenDataReader.Token[]",
          "name": "infos",
          "type": "tuple[]"
        }
      ],
      "stateMutability": "view",
      "type": "function"
    }
  ],
  "transactionHash": "0x4fa45903a16c4a4ae514b526e1c4842a74dd0224199af1b7e5a92ef09327f0b3",
  "args": [
    "0x60870256F2e48d9a36c287641689D1C57f928CFb"
  ],
  "numDeployments": 1,
  "solcInputHash": "8d974d57f018678bd7c308048af3be77",
  "bytecode": "0x60a03461008057601f61099938819003918201601f19168301916001600160401b038311848410176100845780849260209460405283398101031261008057516001600160a01b038116908190036100805760805260405161090090816100998239608051818181605c0152818161028a015281816102ff015261077f0152f35b5f80fd5b634e487b7160e01b5f52604160045260245ffdfe6080806040526004361015610012575f80fd5b5f3560e01c908163984575591461076d575063b3a89aaa14610032575f80fd5b3461046c57604036600319011261046c576040516378a8956760e01b8152602435906020816004817f00000000000000000000000000000000000000000000000000000000000000006001600160a01b03165afa908115610478575f9161073b575b5060043581116106fb5750505f5b6100ab81610823565b906100b960405192836107f4565b808252601f196100c882610823565b015f5b8181106106625750505f5b818110610260578260405160208101916020825280518093526040820192602060408260051b8501019201935f5b8281106101115784840385f35b848403603f19018252855180516001600160a01b039081168652602080830151821690870152604080830151821690870152606080830151909116908601526080808201516101c0918701829052949593949293926101e7916101d3916101bf916101ad9161019a9161018791908901906107cf565b60a08088015190898303908a01526107cf565b60c08087015190888303908901526107cf565b60e085015186820360e08801526107cf565b6101008085015190868303908701526107cf565b6101208084015190858303908601526107cf565b610140918281015193600385101561024c5761023361021f6020959460019787968501526101608086015190858303908601526107cf565b6101808085015190848303908501526107cf565b6101a09283015191909201529701969493019101610104565b634e487b7160e01b5f52602160045260245ffd5b61026c81600435610816565b604051637c13774b60e01b81526004810191909152906020826024817f00000000000000000000000000000000000000000000000000000000000000006001600160a01b03165afa918215610478575f92610626575b50835181101561061257600581901b84016020015160405163f5dab71160e01b81526001600160a01b0384811660048301525f90829060249082907f0000000000000000000000000000000000000000000000000000000000000000165afa908115610478575f915f915f915f915f915f915f915f915f915f915f916104bf575b50600381101561024c576101408c01526101208b01526101008a015260e089015260c088015260a087015260808601526001600160a01b03908116606086015290811660408086019190915291811660208501529182168352516306fdde0360e01b8152905f908290600490829088165afa908115610478575f916104a5575b506101608201526040516395d89b4160e01b81525f816004816001600160a01b0388165afa938415610478576004946020925f91610483575b506101808401526040516318160ddd60e01b815294859182906001600160a01b03165afa928315610478575f9361043e575b50916101a06001930152016100d6565b92506020833d602011610470575b81610459602093836107f4565b8101031261046c579151916101a061042e565b5f80fd5b3d915061044c565b6040513d5f823e3d90fd5b61049f91503d805f833e61049781836107f4565b8101906108a4565b5f6103fc565b6104b991503d805f833e61049781836107f4565b5f6103c3565b9a50505050505050505050503d805f833e6104da81836107f4565b61016082828101031261046c576104f08261083b565b916104fd6020820161083b565b9261050a6040830161083b565b926105176060840161083b565b92608081015167ffffffffffffffff811161046c5761053b9083830190830161084f565b9260a082015167ffffffffffffffff811161046c5761055f9084840190840161084f565b9260c083015167ffffffffffffffff811161046c576105839082850190850161084f565b9260e081015167ffffffffffffffff811161046c576105a79083830190830161084f565b9261010082015167ffffffffffffffff811161046c576105cc9084840190840161084f565b926101208301519067ffffffffffffffff821161046c57610140916105f591850190850161084f565b92015190600382101561046c57999897969594939291905f610343565b634e487b7160e01b5f52603260045260245ffd5b9091506020813d60201161065a575b81610642602093836107f4565b8101031261046c576106539061083b565b905f6102c2565b3d9150610635565b604051906101c082019180831067ffffffffffffffff8411176106e7576020926040525f81525f838201525f604082015260605f818301528060808301528060a08301528060c08301528060e083015280610100830152806101208301525f610140830152806101608301526101808201525f6101a0820152828287010152016100cb565b634e487b7160e01b5f52604160045260245ffd5b8061070883600435610816565b11610714575b506100a2565b600435810391508111610727575f61070e565b634e487b7160e01b5f52601160045260245ffd5b90506020813d602011610765575b81610756602093836107f4565b8101031261046c57515f610094565b3d9150610749565b3461046c575f36600319011261046c577f00000000000000000000000000000000000000000000000000000000000000006001600160a01b03168152602090f35b5f5b8381106107bf5750505f910152565b81810151838201526020016107b0565b906020916107e8815180928185528580860191016107ae565b601f01601f1916010190565b90601f8019910116810190811067ffffffffffffffff8211176106e757604052565b9190820180921161072757565b67ffffffffffffffff81116106e75760051b60200190565b51906001600160a01b038216820361046c57565b81601f8201121561046c57805167ffffffffffffffff81116106e75760405192610883601f8301601f1916602001856107f4565b8184526020828401011161046c576108a191602080850191016107ae565b90565b9060208282031261046c57815167ffffffffffffffff811161046c576108a1920161084f56fea2646970667358221220c7d13c5f04b642b65d12eb6e9a2a5ad1f661defd9542b5cd8f972848f7aaf56764736f6c63430008140033",
  "libraries": {},
  "devdoc": {
    "kind": "dev",
    "methods": {
      "getTokenData(uint256,uint256)": {
        "params": {
          "size": "The number of tokens to return",
          "start": "The starting index in tokenInfos array"
        },
        "returns": {
          "infos": "Array of Token structs containing token info"
        }
      }
    },
    "version": 1
  },
  "userdoc": {
    "kind": "user",
    "methods": {
      "getTokenData(uint256,uint256)": {
        "notice": "Get token data for a range of tokens"
      }
    },
    "version": 1
  },
  "storageLayout": {
    "storage": [],
    "types": null
  }
}