{
  "address": "0xbDEd9401548167EBa335d27B9716CC72777D8f42",
  "abi": [
    {
      "inputs": [],
      "name": "ExceedMintCap",
      "type": "error"
    },
    {
      "inputs": [],
      "name": "SameMintCap",
      "type": "error"
    },
    {
      "anonymous": false,
      "inputs": [
        {
          "indexed": true,
          "internalType": "address",
          "name": "owner",
          "type": "address"
        },
        {
          "indexed": true,
          "internalType": "address",
          "name": "spender",
          "type": "address"
        },
        {
          "indexed": false,
          "internalType": "uint256",
          "name": "value",
          "type": "uint256"
        }
      ],
      "name": "Approval",
      "type": "event"
    },
    {
      "anonymous": false,
      "inputs": [],
      "name": "EIP712DomainChanged",
      "type": "event"
    },
    {
      "anonymous": false,
      "inputs": [
        {
          "indexed": false,
          "internalType": "uint8",
          "name": "version",
          "type": "uint8"
        }
      ],
      "name": "Initialized",
      "type": "event"
    },
    {
      "anonymous": false,
      "inputs": [
        {
          "indexed": false,
          "internalType": "uint256",
          "name": "oldMintCap",
          "type": "uint256"
        },
        {
          "indexed": false,
          "internalType": "uint256",
          "name": "newMintCap",
          "type": "uint256"
        }
      ],
      "name": "NewMintCap",
      "type": "event"
    },
    {
      "anonymous": false,
      "inputs": [
        {
          "indexed": true,
          "internalType": "address",
          "name": "previousOwner",
          "type": "address"
        },
        {
          "indexed": true,
          "internalType": "address",
          "name": "newOwner",
          "type": "address"
        }
      ],
      "name": "OwnershipTransferStarted",
      "type": "event"
    },
    {
      "anonymous": false,
      "inputs": [
        {
          "indexed": true,
          "internalType": "address",
          "name": "previousOwner",
          "type": "address"
        },
        {
          "indexed": true,
          "internalType": "address",
          "name": "newOwner",
          "type": "address"
        }
      ],
      "name": "OwnershipTransferred",
      "type": "event"
    },
    {
      "anonymous": false,
      "inputs": [
        {
          "indexed": true,
          "internalType": "bytes32",
          "name": "role",
          "type": "bytes32"
        },
        {
          "indexed": true,
          "internalType": "bytes32",
          "name": "previousAdminRole",
          "type": "bytes32"
        },
        {
          "indexed": true,
          "internalType": "bytes32",
          "name": "newAdminRole",
          "type": "bytes32"
        }
      ],
      "name": "RoleAdminChanged",
      "type": "event"
    },
    {
      "anonymous": false,
      "inputs": [
        {
          "indexed": true,
          "internalType": "bytes32",
          "name": "role",
          "type": "bytes32"
        },
        {
          "indexed": true,
          "internalType": "address",
          "name": "account",
          "type": "address"
        },
        {
          "indexed": true,
          "internalType": "address",
          "name": "sender",
          "type": "address"
        }
      ],
      "name": "RoleGranted",
      "type": "event"
    },
    {
      "anonymous": false,
      "inputs": [
        {
          "indexed": true,
          "internalType": "bytes32",
          "name": "role",
          "type": "bytes32"
        },
        {
          "indexed": true,
          "internalType": "address",
          "name": "account",
          "type": "address"
        },
        {
          "indexed": true,
          "internalType": "address",
          "name": "sender",
          "type": "address"
        }
      ],
      "name": "RoleRevoked",
      "type": "event"
    },
    {
      "anonymous": false,
      "inputs": [
        {
          "indexed": true,
          "internalType": "address",
          "name": "from",
          "type": "address"
        },
        {
          "indexed": true,
          "internalType": "address",
          "name": "to",
          "type": "address"
        },
        {
          "indexed": false,
          "internalType": "uint256",
          "name": "value",
          "type": "uint256"
        }
      ],
      "name": "Transfer",
      "type": "event"
    },
    {
      "inputs": [],
      "name": "BRIDGE_ROLE",
      "outputs": [
        {
          "internalType": "bytes32",
          "name": "",
          "type": "bytes32"
        }
      ],
      "stateMutability": "view",
      "type": "function"
    },
    {
      "inputs": [],
      "name": "DEFAULT_ADMIN_ROLE",
      "outputs": [
        {
          "internalType": "bytes32",
          "name": "",
          "type": "bytes32"
        }
      ],
      "stateMutability": "view",
      "type": "function"
    },
    {
      "inputs": [],
      "name": "DOMAIN_SEPARATOR",
      "outputs": [
        {
          "internalType": "bytes32",
          "name": "",
          "type": "bytes32"
        }
      ],
      "stateMutability": "view",
      "type": "function"
    },
    {
      "inputs": [
        {
          "internalType": "uint256",
          "name": "_newMintCap",
          "type": "uint256"
        }
      ],
      "name": "_setMintCap",
      "outputs": [],
      "stateMutability": "nonpayable",
      "type": "function"
    },
    {
      "inputs": [],
      "name": "acceptOwnership",
      "outputs": [],
      "stateMutability": "nonpayable",
      "type": "function"
    },
    {
      "inputs": [
        {
          "internalType": "address",
          "name": "owner",
          "type": "address"
        },
        {
          "internalType": "address",
          "name": "spender",
          "type": "address"
        }
      ],
      "name": "allowance",
      "outputs": [
        {
          "internalType": "uint256",
          "name": "",
          "type": "uint256"
        }
      ],
      "stateMutability": "view",
      "type": "function"
    },
    {
      "inputs": [
        {
          "internalType": "address",
          "name": "spender",
          "type": "address"
        },
        {
          "internalType": "uint256",
          "name": "amount",
          "type": "uint256"
        }
      ],
      "name": "approve",
      "outputs": [
        {
          "internalType": "bool",
          "name": "",
          "type": "bool"
        }
      ],
      "stateMutability": "nonpayable",
      "type": "function"
    },
    {
      "inputs": [
        {
          "internalType": "address",
          "name": "account",
          "type": "address"
        }
      ],
      "name": "balanceOf",
      "outputs": [
        {
          "internalType": "uint256",
          "name": "",
          "type": "uint256"
        }
      ],
      "stateMutability": "view",
      "type": "function"
    },
    {
      "inputs": [
        {
          "internalType": "address",
          "name": "from",
          "type": "address"
        },
        {
          "internalType": "uint256",
          "name": "amount",
          "type": "uint256"
        }
      ],
      "name": "burn",
      "outputs": [],
      "stateMutability": "nonpayable",
      "type": "function"
    },
    {
      "inputs": [],
      "name": "decimals",
      "outputs": [
        {
          "internalType": "uint8",
          "name": "",
          "type": "uint8"
        }
      ],
      "stateMutability": "view",
      "type": "function"
    },
    {
      "inputs": [
        {
          "internalType": "address",
          "name": "spender",
          "type": "address"
        },
        {
          "internalType": "uint256",
          "name": "subtractedValue",
          "type": "uint256"
        }
      ],
      "name": "decreaseAllowance",
      "outputs": [
        {
          "internalType": "bool",
          "name": "",
          "type": "bool"
        }
      ],
      "stateMutability": "nonpayable",
      "type": "function"
    },
    {
      "inputs": [],
      "name": "eip712Domain",
      "outputs": [
        {
          "internalType": "bytes1",
          "name": "fields",
          "type": "bytes1"
        },
        {
          "internalType": "string",
          "name": "name",
          "type": "string"
        },
        {
          "internalType": "string",
          "name": "version",
          "type": "string"
        },
        {
          "internalType": "uint256",
          "name": "chainId",
          "type": "uint256"
        },
        {
          "internalType": "address",
          "name": "verifyingContract",
          "type": "address"
        },
        {
          "internalType": "bytes32",
          "name": "salt",
          "type": "bytes32"
        },
        {
          "internalType": "uint256[]",
          "name": "extensions",
          "type": "uint256[]"
        }
      ],
      "stateMutability": "view",
      "type": "function"
    },
    {
      "inputs": [
        {
          "internalType": "bytes32",
          "name": "role",
          "type": "bytes32"
        }
      ],
      "name": "getRoleAdmin",
      "outputs": [
        {
          "internalType": "bytes32",
          "name": "",
          "type": "bytes32"
        }
      ],
      "stateMutability": "view",
      "type": "function"
    },
    {
      "inputs": [
        {
          "internalType": "bytes32",
          "name": "role",
          "type": "bytes32"
        },
        {
          "internalType": "address",
          "name": "account",
          "type": "address"
        }
      ],
      "name": "grantRole",
      "outputs": [],
      "stateMutability": "nonpayable",
      "type": "function"
    },
    {
      "inputs": [
        {
          "internalType": "bytes32",
          "name": "role",
          "type": "bytes32"
        },
        {
          "internalType": "address",
          "name": "account",
          "type": "address"
        }
      ],
      "name": "hasRole",
      "outputs": [
        {
          "internalType": "bool",
          "name": "",
          "type": "bool"
        }
      ],
      "stateMutability": "view",
      "type": "function"
    },
    {
      "inputs": [
        {
          "internalType": "address",
          "name": "spender",
          "type": "address"
        },
        {
          "internalType": "uint256",
          "name": "addedValue",
          "type": "uint256"
        }
      ],
      "name": "increaseAllowance",
      "outputs": [
        {
          "internalType": "bool",
          "name": "",
          "type": "bool"
        }
      ],
      "stateMutability": "nonpayable",
      "type": "function"
    },
    {
      "inputs": [
        {
          "internalType": "address",
          "name": "to",
          "type": "address"
        },
        {
          "internalType": "uint256",
          "name": "_mintCap",
          "type": "uint256"
        }
      ],
      "name": "initialize",
      "outputs": [],
      "stateMutability": "nonpayable",
      "type": "function"
    },
    {
      "inputs": [
        {
          "internalType": "address",
          "name": "to",
          "type": "address"
        },
        {
          "internalType": "uint256",
          "name": "amount",
          "type": "uint256"
        }
      ],
      "name": "mint",
      "outputs": [],
      "stateMutability": "nonpayable",
      "type": "function"
    },
    {
      "inputs": [],
      "name": "mintCap",
      "outputs": [
        {
          "internalType": "uint256",
          "name": "",
          "type": "uint256"
        }
      ],
      "stateMutability": "view",
      "type": "function"
    },
    {
      "inputs": [],
      "name": "name",
      "outputs": [
        {
          "internalType": "string",
          "name": "",
          "type": "string"
        }
      ],
      "stateMutability": "view",
      "type": "function"
    },
    {
      "inputs": [
        {
          "internalType": "address",
          "name": "owner",
          "type": "address"
        }
      ],
      "name": "nonces",
      "outputs": [
        {
          "internalType": "uint256",
          "name": "",
          "type": "uint256"
        }
      ],
      "stateMutability": "view",
      "type": "function"
    },
    {
      "inputs": [],
      "name": "owner",
      "outputs": [
        {
          "internalType": "address",
          "name": "",
          "type": "address"
        }
      ],
      "stateMutability": "view",
      "type": "function"
    },
    {
      "inputs": [],
      "name": "pendingOwner",
      "outputs": [
        {
          "internalType": "address",
          "name": "",
          "type": "address"
        }
      ],
      "stateMutability": "view",
      "type": "function"
    },
    {
      "inputs": [
        {
          "internalType": "address",
          "name": "owner",
          "type": "address"
        },
        {
          "internalType": "address",
          "name": "spender",
          "type": "address"
        },
        {
          "internalType": "uint256",
          "name": "value",
          "type": "uint256"
        },
        {
          "internalType": "uint256",
          "name": "deadline",
          "type": "uint256"
        },
        {
          "internalType": "uint8",
          "name": "v",
          "type": "uint8"
        },
        {
          "internalType": "bytes32",
          "name": "r",
          "type": "bytes32"
        },
        {
          "internalType": "bytes32",
          "name": "s",
          "type": "bytes32"
        }
      ],
      "name": "permit",
      "outputs": [],
      "stateMutability": "nonpayable",
      "type": "function"
    },
    {
      "inputs": [],
      "name": "renounceOwnership",
      "outputs": [],
      "stateMutability": "nonpayable",
      "type": "function"
    },
    {
      "inputs": [
        {
          "internalType": "bytes32",
          "name": "role",
          "type": "bytes32"
        },
        {
          "internalType": "address",
          "name": "account",
          "type": "address"
        }
      ],
      "name": "renounceRole",
      "outputs": [],
      "stateMutability": "nonpayable",
      "type": "function"
    },
    {
      "inputs": [
        {
          "internalType": "bytes32",
          "name": "role",
          "type": "bytes32"
        },
        {
          "internalType": "address",
          "name": "account",
          "type": "address"
        }
      ],
      "name": "revokeRole",
      "outputs": [],
      "stateMutability": "nonpayable",
      "type": "function"
    },
    {
      "inputs": [
        {
          "internalType": "bytes4",
          "name": "interfaceId",
          "type": "bytes4"
        }
      ],
      "name": "supportsInterface",
      "outputs": [
        {
          "internalType": "bool",
          "name": "",
          "type": "bool"
        }
      ],
      "stateMutability": "view",
      "type": "function"
    },
    {
      "inputs": [],
      "name": "symbol",
      "outputs": [
        {
          "internalType": "string",
          "name": "",
          "type": "string"
        }
      ],
      "stateMutability": "view",
      "type": "function"
    },
    {
      "inputs": [],
      "name": "totalSupply",
      "outputs": [
        {
          "internalType": "uint256",
          "name": "",
          "type": "uint256"
        }
      ],
      "stateMutability": "view",
      "type": "function"
    },
    {
      "inputs": [
        {
          "internalType": "address",
          "name": "to",
          "type": "address"
        },
        {
          "internalType": "uint256",
          "name": "amount",
          "type": "uint256"
        }
      ],
      "name": "transfer",
      "outputs": [
        {
          "internalType": "bool",
          "name": "",
          "type": "bool"
        }
      ],
      "stateMutability": "nonpayable",
      "type": "function"
    },
    {
      "inputs": [
        {
          "internalType": "address",
          "name": "from",
          "type": "address"
        },
        {
          "internalType": "address",
          "name": "to",
          "type": "address"
        },
        {
          "internalType": "uint256",
          "name": "amount",
          "type": "uint256"
        }
      ],
      "name": "transferFrom",
      "outputs": [
        {
          "internalType": "bool",
          "name": "",
          "type": "bool"
        }
      ],
      "stateMutability": "nonpayable",
      "type": "function"
    },
    {
      "inputs": [
        {
          "internalType": "address",
          "name": "newOwner",
          "type": "address"
        }
      ],
      "name": "transferOwnership",
      "outputs": [],
      "stateMutability": "nonpayable",
      "type": "function"
    },
    {
      "inputs": [],
      "name": "upgrade",
      "outputs": [],
      "stateMutability": "nonpayable",
      "type": "function"
    }
  ],
  "transactionHash": "0xf538b6ed3e8c20daf746b9e28d7df66130acaa98b296c4402ade622cc3131749",
  "args": [],
  "numDeployments": 1,
  "solcInputHash": "a2c808855066638bf6d87f79fbe97e91",
  "bytecode": "0x608080604052346100c0575f549060ff8260081c1661006e575060ff80821603610034575b604051612c689081620000c58239f35b60ff90811916175f557f7f26b83ff96e1f2b6a682f133852f6798a09c465da95921460cefb3847402498602060405160ff8152a15f610024565b62461bcd60e51b815260206004820152602760248201527f496e697469616c697a61626c653a20636f6e747261637420697320696e697469604482015266616c697a696e6760c81b6064820152608490fd5b5f80fdfe6080806040526004361015610012575f80fd5b5f3560e01c90816301ffc9a714611c895750806306fdde0314611bf9578063095ea7b314611bd357806318160ddd14611bb657806323b872dd14611afd578063248a9ca314611ad05780632f2ff15d14611a28578063313ce56714611a0d5780633644e515146119eb57806336568abe14611959578063395093511461190c57806340c10f191461183057806370a08231146117f8578063715018a6146116ea57806376c71ca1146116cc57806379ba5097146116485780637ecebe001461160f57806384b0196e146114f35780638da5cb5b146114cb57806391d148541461148257806395d89b41146113b25780639dc29fac14611298578063a217fddf1461127e578063a457c2d7146111db578063a9059cbb146111aa578063b5bfddea14611170578063cd6dc68714610a1f578063d291c520146109b1578063d505accf1461080e578063d547741f146107cf578063d55ec69714610277578063dd62ed3e1461022a578063e30c3978146102025763f2fde38b14610192575f80fd5b346101fe5760203660031901126101fe576101ab611d22565b6101b36121c9565b60c980546001600160a01b0319166001600160a01b039283169081179091556097549091167f38d16b8cac22d99fc7c124b9cd0de2d3fa1faef420bfe791d8c362d765e227005f80a3005b5f80fd5b346101fe575f3660031901126101fe5760c9546040516001600160a01b039091168152602090f35b346101fe5760403660031901126101fe57610243611d22565b61024b611d38565b9060018060a01b038091165f5260fc60205260405f2091165f52602052602060405f2054604051908152f35b346101fe575f3660031901126101fe575f5461010260ff91828160081c1615806107c3575b6102a590612a84565b61ffff19161790815f556102b76121c9565b6102bf612ae7565b6102d5826102cb612b73565b9460081c16612b13565b805167ffffffffffffffff9081811161054857806102f460fe54612221565b93601f9485811161076a575b506020908583116001146106f9575f926106ee575b50508160011b915f199060031b1c19161760fe555b83518181116105485761033d8454612221565b8381116106a2575b50602094838211600114610636579481929394955f9261062b575b50508160011b915f199060031b1c19161783555b61037c612ae7565b925f5460081c169161038d83612b13565b6040519361039a85612070565b6103b2600194858752603160f81b6020880152612b13565b80518381116105485780610130926103ca8454612221565b8581116105d1575b50602090858311600114610567575f9261055c575b50505f19600383901b1c191690851b1790555b835191821161054857610131936104118554612221565b8281116104f9575b50602091831160011461048f579282939183925f94610484575b50501b915f199060031b1c19161790555b5f61012e555f61012f5561ff00195f54165f557f7f26b83ff96e1f2b6a682f133852f6798a09c465da95921460cefb3847402498602060405160028152a1005b015192508580610433565b90601f19831691855f52835f80516020612bb3833981519152935f5b878282106104e0575050106104c8575b505050811b019055610444565b01515f1960f88460031b161c191690558380806104bb565b84860151875590950194602094850194879350016104ab565b855f525f80516020612bb38339815191528380860160051c8201926020871061053f575b0160051c019085905b828110610534575050610419565b5f8155018590610526565b9250819261051d565b634e487b7160e01b5f52604160045260245ffd5b0151905087806103e7565b90879350601f19831691855f525f80516020612b93833981519152925f5b8181106105b9575084116105a1575b505050811b0190556103fa565b01515f1960f88460031b161c19169055878080610594565b8284015185558a969094019360209384019301610585565b909150835f525f80516020612b938339815191528580850160051c82019260208610610622575b918991869594930160051c01915b8281106106145750506103d2565b5f8155859450899101610606565b925081926105f8565b015190508580610360565b601f19821695855f525f80516020612c13833981519152915f5b88811061068a57508360019596979810610672575b505050811b018355610374565b01515f1960f88460031b161c19169055858080610665565b91926020600181928685015181550194019201610650565b845f525f80516020612c138339815191528480840160051c820192602085106106e5575b0160051c01905b8181106106da5750610345565b5f81556001016106cd565b925081926106c6565b015190508680610315565b60fe5f9081525f80516020612bd38339815191529350601f198516905b818110610752575090846001959493921061073a575b505050811b0160fe5561032a565b01515f1960f88460031b161c1916905586808061072c565b92936020600181928786015181550195019301610716565b90915060fe5f525f80516020612bd38339815191528580850160051c820192602086106107ba575b9085949392910160051c01905b8181106107ac5750610300565b5f815584935060010161079f565b92508192610792565b5060028184161061029c565b346101fe5760403660031901126101fe5761080c6004356107ee611d38565b90805f526065602052610807600160405f200154611f67565b612154565b005b346101fe5760e03660031901126101fe57610827611d22565b61082f611d38565b6044359060843560643560ff821682036101fe5780421161096c5760018060a01b039081861692835f5261016260205260405f20908154916001830190556040519260208401927f6e71edae12b1b97f4d1f60370fef10105fa2faae0126114a169c64845d6126c98452866040860152858816606086015288608086015260a085015260c084015260c0835260e083019183831067ffffffffffffffff8411176105485761091893610910936040525190206108e96128c9565b906040519161190160f01b83526002830152602282015260c43591604260a435922061283c565b919091612724565b16036109275761080c926124f5565b60405162461bcd60e51b815260206004820152601e60248201527f45524332305065726d69743a20696e76616c6964207369676e617475726500006044820152606490fd5b60405162461bcd60e51b815260206004820152601d60248201527f45524332305065726d69743a206578706972656420646561646c696e650000006044820152606490fd5b346101fe5760203660031901126101fe576004356109cd6121c9565b61012d8054808314610a0d57827fd1213bd32c36531d10d742b4e9399fb34761d17ff26a0385a7622764a8194155936040935582519182526020820152a1005b60405163360aa78560e11b8152600490fd5b346101fe5760403660031901126101fe57610a38611d22565b5f54600160ff8260081c161591828093611164575b801561114e575b610a5d90612a84565b60ff1981811683175f55908361113d575b505f549060ff8260081c161592839182948593611131575b801561111b575b610a9690612a84565b8316175f5561110a575b5060ff5f5460081c1692610ab384612b13565b610abb612ae7565b93610ad6610ac7612b73565b91610ad181612b13565b612b13565b845167ffffffffffffffff81116105485780610af360fe54612221565b96601f97888111611099575b50602090888311600114611028575f9261101d575b50508160011b915f199060031b1c19161760fe555b80519067ffffffffffffffff8211610548578190610b4860ff54612221565b878111610fc4575b50602090878311600114610f53575f92610f48575b50508160011b915f199060031b1c19161760ff555b610b8e60ff5f5460081c16610ad181612b13565b610b97336129b2565b6001600160a01b03168015610f035760fd546b033b2e3c9fd0803ce8000000808201809211610eef5760205f80516020612bf3833981519152915f9360fd5584845260fb825260408420818154019055604051908152a360243561012d55610eb6575b610c02612ae7565b9160ff5f5460081c1692610c1584612b13565b610c3860405194610c2586612070565b60018652603160f81b6020870152612b13565b805167ffffffffffffffff8111610548578061013092610c588454612221565b858111610e5e575b50602090858311600114610df0575f92610de5575b50508160011b915f199060031b1c19161790555b825167ffffffffffffffff81116105485761013191610ca88354612221565b818111610d99575b506020908211600114610d2d57819293945f92610d22575b50508160011b915f199060031b1c19161790555b5f61012e555f61012f55610cec57005b61ff00195f54165f557f7f26b83ff96e1f2b6a682f133852f6798a09c465da95921460cefb3847402498602060405160018152a1005b015190508480610cc8565b601f19821690835f525f80516020612bb3833981519152915f5b818110610d8157509583600195969710610d69575b505050811b019055610cdc565b01515f1960f88460031b161c19169055848080610d5c565b9192602060018192868b015181550194019201610d47565b835f525f80516020612bb38339815191528280850160051c82019260208610610ddc575b0160051c01905b818110610dd15750610cb0565b5f8155600101610dc4565b92508192610dbd565b015190508680610c75565b5f8581525f80516020612b938339815191529350601f198516905b818110610e465750908460019594939210610e2e575b505050811b019055610c89565b01515f1960f88460031b161c19169055868080610e21565b92936020600181928786015181550195019301610e0b565b909150835f525f80516020612b938339815191528580850160051c82019260208610610ead575b9085949392910160051c01905b818110610e9f5750610c60565b5f8155849350600101610e92565b92508192610e85565b61ff00195f54165f557f7f26b83ff96e1f2b6a682f133852f6798a09c465da95921460cefb3847402498602060405160018152a1610bfa565b634e487b7160e01b5f52601160045260245ffd5b60405162461bcd60e51b815260206004820152602481018590527f45524332303a206d696e7420746f20746865207a65726f2061646472657373006044820152606490fd5b015190508680610b65565b60ff5f9081525f80516020612c138339815191529350601f198516905b818110610fac5750908460019594939210610f94575b505050811b0160ff55610b7a565b01515f1960f88460031b161c19169055868080610f86565b92936020600181928786015181550195019301610f70565b90915060ff5f525f80516020612c138339815191528780850160051c82019260208610611014575b9085949392910160051c01905b8181106110065750610b50565b5f8155849350600101610ff9565b92508192610fec565b015190508780610b14565b60fe5f9081525f80516020612bd38339815191529350601f198516905b8181106110815750908460019594939210611069575b505050811b0160fe55610b29565b01515f1960f88460031b161c1916905587808061105b565b92936020600181928786015181550195019301611045565b90915060fe5f528780840160051c5f80516020612bd38339815191520191602085106110f5575b90849392910160051c5f80516020612bd383398151915201905b8181106110e75750610aff565b5f81558493506001016110da565b5f80516020612bd383398151915292506110c0565b61ffff1916610101175f5583610aa0565b50303b158015610a8d575060ff84168214610a8d565b508160ff851610610a86565b61ffff1916610101175f5584610a6e565b50303b158015610a54575060ff81168214610a54565b508160ff821610610a4d565b346101fe575f3660031901126101fe5760206040517f52ba824bfabc2bcfcdf7f0edbb486ebb05e1836c90e78047efeb949990f72e5f8152f35b346101fe5760403660031901126101fe576111d06111c6611d22565b6024359033612399565b602060405160018152f35b346101fe5760403660031901126101fe576111f4611d22565b60243590335f5260fc60205260405f2060018060a01b0382165f5260205260405f20549180831061122b576111d0920390336124f5565b60405162461bcd60e51b815260206004820152602560248201527f45524332303a2064656372656173656420616c6c6f77616e63652062656c6f77604482015264207a65726f60d81b6064820152608490fd5b346101fe575f3660031901126101fe5760206040515f8152f35b346101fe5760403660031901126101fe576112b1611d22565b602435906112bd611d4e565b6001600160a01b0316801561136357805f5260fb60205260405f205491808310611313576020815f80516020612bf3833981519152925f9585875260fb84520360408620558060fd540360fd55604051908152a3005b60405162461bcd60e51b815260206004820152602260248201527f45524332303a206275726e20616d6f756e7420657863656564732062616c616e604482015261636560f01b6064820152608490fd5b60405162461bcd60e51b815260206004820152602160248201527f45524332303a206275726e2066726f6d20746865207a65726f206164647265736044820152607360f81b6064820152608490fd5b346101fe575f3660031901126101fe576040515f60ff546113d281612221565b8084529060019081811690811561145b5750600114611414575b611410846113fc818603826120a8565b604051918291602083526020830190611cfd565b0390f35b60ff5f90815292505f80516020612c138339815191525b8284106114435750505081016020016113fc826113ec565b8054602085870181019190915290930192810161142b565b60ff191660208087019190915292151560051b850190920192506113fc91508390506113ec565b346101fe5760403660031901126101fe5761149b611d38565b6004355f52606560205260405f209060018060a01b03165f52602052602060ff60405f2054166040519015158152f35b346101fe575f3660031901126101fe576097546040516001600160a01b039091168152602090f35b346101fe575f3660031901126101fe5761012e541580611604575b156115c75761151b612259565b611523612306565b60405160208082019282841067ffffffffffffffff85111761054857918161157c859461156e97966040525f8452604051978897600f60f81b895260e0858a015260e0890190611cfd565b908782036040890152611cfd565b914660608701523060808701525f60a087015285830360c087015251918281520192915f5b8281106115b057505050500390f35b8351855286955093810193928101926001016115a1565b60405162461bcd60e51b81526020600482015260156024820152741152540dcc4c8e88155b9a5b9a5d1a585b1a5e9959605a1b6044820152606490fd5b5061012f541561150e565b346101fe5760203660031901126101fe576001600160a01b03611630611d22565b165f52610162602052602060405f2054604051908152f35b346101fe575f3660031901126101fe5760c954336001600160a01b03909116036116755761080c336129b2565b60405162461bcd60e51b815260206004820152602960248201527f4f776e61626c6532537465703a2063616c6c6572206973206e6f7420746865206044820152683732bb9037bbb732b960b91b6064820152608490fd5b346101fe575f3660031901126101fe57602061012d54604051908152f35b346101fe575f3660031901126101fe576117026121c9565b6097545f906001600160a01b039061171b9082166120ca565b6bffffffffffffffffffffffff60a01b8060c9541660c955609754908116609755167f8be0079c531659141344cd1fd0a4f28419497f9722a3daafe3b4186f6b6457e08280a35f80527fffdfc1249c027f9191656349feb0761381bb32c9f557e01f419fd08754bf5a1b6020527f6b4cb65b7694db44bd2882e0b662f078c83992ca0eeedb73892db4ff06bef7545460ff16156117b457005b606560205260405f2060205260405f20600160ff19825416179055335f807f2f8788117e7eff1d82e926ec794901d17c78024a50270940304540a733656f0d8180a4005b346101fe5760203660031901126101fe576001600160a01b03611819611d22565b165f5260fb602052602060405f2054604051908152f35b346101fe5760403660031901126101fe57611849611d22565b60243590611855611d4e565b60fd5490611863838361238c565b61012d54106118fa576001600160a01b03169182156118b5576020816118985f80516020612bf3833981519152935f9561238c565b60fd5584845260fb825260408420818154019055604051908152a3005b60405162461bcd60e51b815260206004820152601f60248201527f45524332303a206d696e7420746f20746865207a65726f2061646472657373006044820152606490fd5b604051631211f45960e31b8152600490fd5b346101fe5760403660031901126101fe576111d0611928611d22565b335f5260fc60205260405f2060018060a01b0382165f5260205261195260243560405f205461238c565b90336124f5565b346101fe5760403660031901126101fe57611972611d38565b336001600160a01b0382160361198e5761080c90600435612154565b60405162461bcd60e51b815260206004820152602f60248201527f416363657373436f6e74726f6c3a2063616e206f6e6c792072656e6f756e636560448201526e103937b632b9903337b91039b2b63360891b6064820152608490fd5b346101fe575f3660031901126101fe576020611a056128c9565b604051908152f35b346101fe575f3660031901126101fe57602060405160128152f35b346101fe5760403660031901126101fe57600435611a44611d38565b815f526065602052611a5c600160405f200154611f67565b815f52606560205260405f209060018060a01b031690815f5260205260ff60405f20541615611a8757005b815f52606560205260405f20815f5260205260405f20600160ff1982541617905533917f2f8788117e7eff1d82e926ec794901d17c78024a50270940304540a733656f0d5f80a4005b346101fe5760203660031901126101fe576004355f5260656020526020600160405f200154604051908152f35b346101fe5760603660031901126101fe57611b16611d22565b611b1e611d38565b6044359060018060a01b0383165f5260fc60205260405f20335f5260205260405f2054925f198403611b55575b6111d09350612399565b828410611b7157611b6c836111d0950333836124f5565b611b4b565b60405162461bcd60e51b815260206004820152601d60248201527f45524332303a20696e73756666696369656e7420616c6c6f77616e63650000006044820152606490fd5b346101fe575f3660031901126101fe57602060fd54604051908152f35b346101fe5760403660031901126101fe576111d0611bef611d22565b60243590336124f5565b346101fe575f3660031901126101fe576040515f60fe54611c1981612221565b8084529060019081811690811561145b5750600114611c4257611410846113fc818603826120a8565b60fe5f90815292505f80516020612bd38339815191525b828410611c715750505081016020016113fc826113ec565b80546020858701810191909152909301928101611c59565b346101fe5760203660031901126101fe576004359063ffffffff60e01b82168092036101fe57602091637965db0b60e01b8114908115611ccb575b5015158152f35b6301ffc9a760e01b14905083611cc4565b5f5b838110611ced5750505f910152565b8181015183820152602001611cde565b90602091611d1681518092818552858086019101611cdc565b601f01601f1916010190565b600435906001600160a01b03821682036101fe57565b602435906001600160a01b03821682036101fe57565b335f9081527f97347db157f507b4e5838e2eca5449e8264c30fda7f00f5e7b4dd3caf58927ba602090815260408083205490927f52ba824bfabc2bcfcdf7f0edbb486ebb05e1836c90e78047efeb949990f72e5f9160ff1615611db15750505050565b611dba33612618565b91845190611dc78261208c565b60428252848201926060368537825115611f535760308453825190600191821015611f535790607860218501536041915b818311611ee657505050611ea4576048611ea0938693611e8493611e75985198899376020b1b1b2b9b9a1b7b73a3937b61d1030b1b1b7bab73a1604d1b8a860152611e4c815180928c603789019101611cdc565b8401917001034b99036b4b9b9b4b733903937b6329607d1b603784015251809386840190611cdc565b010360288101875201856120a8565b5192839262461bcd60e51b845260048401526024830190611cfd565b0390fd5b60648486519062461bcd60e51b825280600483015260248201527f537472696e67733a20686578206c656e67746820696e73756666696369656e746044820152fd5b909192600f81166010811015611f3f576f181899199a1a9b1b9c1cb0b131b232b360811b901a611f1685876125f3565b5360041c928015611f2b575f19019190611df8565b634e487b7160e01b82526011600452602482fd5b634e487b7160e01b83526032600452602483fd5b634e487b7160e01b81526032600452602490fd5b5f9080825260209060658252604092838120338252835260ff848220541615611f905750505050565b611f9933612618565b91845190611fa68261208c565b60428252848201926060368537825115611f535760308453825190600191821015611f535790607860218501536041915b81831161202b57505050611ea4576048611ea0938693611e8493611e75985198899376020b1b1b2b9b9a1b7b73a3937b61d1030b1b1b7bab73a1604d1b8a860152611e4c815180928c603789019101611cdc565b909192600f81166010811015611f3f576f181899199a1a9b1b9c1cb0b131b232b360811b901a61205b85876125f3565b5360041c928015611f2b575f19019190611fd7565b6040810190811067ffffffffffffffff82111761054857604052565b6080810190811067ffffffffffffffff82111761054857604052565b90601f8019910116810190811067ffffffffffffffff82111761054857604052565b6001600160a01b03165f8181527fffdfc1249c027f9191656349feb0761381bb32c9f557e01f419fd08754bf5a1b602052604081205490919060ff1661210e575050565b8180526065602052604082208183526020526040822060ff19815416905533917ff6391f5c32d9c69d2a47ea670b442974b53935d1edc7fd64eb21e047a839171b8180a4565b905f918083526065602052604083209160018060a01b03169182845260205260ff60408420541661218457505050565b8083526065602052604083208284526020526040832060ff1981541690557ff6391f5c32d9c69d2a47ea670b442974b53935d1edc7fd64eb21e047a839171b339380a4565b6097546001600160a01b031633036121dd57565b606460405162461bcd60e51b815260206004820152602060248201527f4f776e61626c653a2063616c6c6572206973206e6f7420746865206f776e65726044820152fd5b90600182811c9216801561224f575b602083101461223b57565b634e487b7160e01b5f52602260045260245ffd5b91607f1691612230565b604051905f8261013091825461226e81612221565b808452936001918083169081156122e25750600114612298575b5050612296925003836120a8565b565b5f90815291505f80516020612b938339815191525b8483106122c7575061229693505081016020015f80612288565b81935090816020925483858a010152019101909185926122ad565b9150506020925061229694915060ff191682840152151560051b8201015f80612288565b604051905f8261013191825461231b81612221565b808452936001918083169081156122e25750600114612342575050612296925003836120a8565b5f90815291505f80516020612bb38339815191525b848310612371575061229693505081016020015f80612288565b81935090816020925483858a01015201910190918592612357565b91908201809211610eef57565b6001600160a01b039081169182156124a25716918215612451575f82815260fb6020526040812054918083106123fd57604082825f80516020612bf383398151915295876020965260fb8652038282205586815220818154019055604051908152a3565b60405162461bcd60e51b815260206004820152602660248201527f45524332303a207472616e7366657220616d6f756e7420657863656564732062604482015265616c616e636560d01b6064820152608490fd5b60405162461bcd60e51b815260206004820152602360248201527f45524332303a207472616e7366657220746f20746865207a65726f206164647260448201526265737360e81b6064820152608490fd5b60405162461bcd60e51b815260206004820152602560248201527f45524332303a207472616e736665722066726f6d20746865207a65726f206164604482015264647265737360d81b6064820152608490fd5b6001600160a01b039081169182156125a257169182156125525760207f8c5be1e5ebec7d5bd14f71427d1e84f3dd0314c0f7b2291e5b200ac8c7c3b92591835f5260fc825260405f20855f5282528060405f2055604051908152a3565b60405162461bcd60e51b815260206004820152602260248201527f45524332303a20617070726f766520746f20746865207a65726f206164647265604482015261737360f01b6064820152608490fd5b60405162461bcd60e51b8152602060048201526024808201527f45524332303a20617070726f76652066726f6d20746865207a65726f206164646044820152637265737360e01b6064820152608490fd5b908151811015612604570160200190565b634e487b7160e01b5f52603260045260245ffd5b604051906060820182811067ffffffffffffffff82111761054857604052602a82526020820160403682378251156126045760309053815160019081101561260457607860218401536029905b8082116126b95750506126755790565b606460405162461bcd60e51b815260206004820152602060248201527f537472696e67733a20686578206c656e67746820696e73756666696369656e746044820152fd5b9091600f81166010811015612710576f181899199a1a9b1b9c1cb0b131b232b360811b901a6126e884866125f3565b5360041c9180156126fc575f190190612665565b60245f634e487b7160e01b81526011600452fd5b60245f634e487b7160e01b81526032600452fd5b600581101561282857806127355750565b600181036127825760405162461bcd60e51b815260206004820152601860248201527f45434453413a20696e76616c6964207369676e617475726500000000000000006044820152606490fd5b600281036127cf5760405162461bcd60e51b815260206004820152601f60248201527f45434453413a20696e76616c6964207369676e6174757265206c656e677468006044820152606490fd5b6003146127d857565b60405162461bcd60e51b815260206004820152602260248201527f45434453413a20696e76616c6964207369676e6174757265202773272076616c604482015261756560f01b6064820152608490fd5b634e487b7160e01b5f52602160045260245ffd5b9291907f7fffffffffffffffffffffffffffffff5d576e7357a4501ddfe92f46681b20a083116128be5791608094939160ff6020946040519485521684840152604083015260608201525f93849182805260015afa156128b15781516001600160a01b038116156128ab579190565b50600190565b50604051903d90823e3d90fd5b505050505f90600390565b6128d161293f565b6128d961298b565b6040519060208201927f8b73c3c69bb8fe3d512ecc4cf759cc79239f7b179b0ffacaa9a75d522b39400f8452604083015260608201524660808201523060a082015260a0815260c0810181811067ffffffffffffffff8211176105485760405251902090565b612947612259565b8051908115612957576020012090565b505061012e5480156129665790565b507fc5d2460186f7233c927e7db2dcc703c0e500b653ca82273b7bfad8045d85a47090565b612993612306565b80519081156129a3576020012090565b505061012f5480156129665790565b6097546001600160a01b03906129c99082166120ca565b6bffffffffffffffffffffffff60a01b8060c9541660c955816097549316918280928516176097555f93167f8be0079c531659141344cd1fd0a4f28419497f9722a3daafe3b4186f6b6457e08480a381805260656020526040822081835260205260ff60408320541615612a3b575050565b81805260656020526040822081835260205260408220600160ff1982541617905533917f2f8788117e7eff1d82e926ec794901d17c78024a50270940304540a733656f0d8180a4565b15612a8b57565b60405162461bcd60e51b815260206004820152602e60248201527f496e697469616c697a61626c653a20636f6e747261637420697320616c72656160448201526d191e481a5b9a5d1a585b1a5e995960921b6064820152608490fd5b60405190612af482612070565b601082526f125b9d1953995d08141c9bdd1bd8dbdb60821b6020830152565b15612b1a57565b60405162461bcd60e51b815260206004820152602b60248201527f496e697469616c697a61626c653a20636f6e7472616374206973206e6f74206960448201526a6e697469616c697a696e6760a81b6064820152608490fd5b60405190612b8082612070565b600382526212539560ea1b602083015256fe2f605e086faac1d93117bbfbc18835d434e9405fadc1ca66faf4b864746daf34bd987ad6ccdb7c7567f7335ea839f95dc944431abcf935b6924f70215963db7354075df80ec1ae6ac9100e1fd0ebf3246c17f5c933137af392011f4c5f61513addf252ad1be2c89b69c2b068fc378daa952ba7f163c4a11628f55a4df523b3efe08ec2af2cfc251225e1968fd6ca21e4044f129bffa95bac3503be8bdb30a367a2646970667358221220fde814d759a928aa8a6eb3e511f399294f17c7f17784c8d7912d2d466e08f36564736f6c63430008140033",
  "libraries": {},
  "devdoc": {
    "events": {
      "Approval(address,address,uint256)": {
        "details": "Emitted when the allowance of a `spender` for an `owner` is set by a call to {approve}. `value` is the new allowance."
      },
      "EIP712DomainChanged()": {
        "details": "MAY be emitted to signal that the domain could have changed."
      },
      "Initialized(uint8)": {
        "details": "Triggered when the contract has been initialized or reinitialized."
      },
      "RoleAdminChanged(bytes32,bytes32,bytes32)": {
        "details": "Emitted when `newAdminRole` is set as ``role``'s admin role, replacing `previousAdminRole` `DEFAULT_ADMIN_ROLE` is the starting admin for all roles, despite {RoleAdminChanged} not being emitted signaling this. _Available since v3.1._"
      },
      "RoleGranted(bytes32,address,address)": {
        "details": "Emitted when `account` is granted `role`. `sender` is the account that originated the contract call, an admin role bearer except when using {AccessControl-_setupRole}."
      },
      "RoleRevoked(bytes32,address,address)": {
        "details": "Emitted when `account` is revoked `role`. `sender` is the account that originated the contract call:   - if using `revokeRole`, it is the admin role bearer   - if using `renounceRole`, it is the role bearer (i.e. `account`)"
      },
      "Transfer(address,address,uint256)": {
        "details": "Emitted when `value` tokens are moved from one account (`from`) to another (`to`). Note that `value` may be zero."
      }
    },
    "kind": "dev",
    "methods": {
      "DOMAIN_SEPARATOR()": {
        "details": "See {IERC20Permit-DOMAIN_SEPARATOR}."
      },
      "_setMintCap(uint256)": {
        "details": "Set the mint cap",
        "params": {
          "_newMintCap": "New mint cap value"
        }
      },
      "acceptOwnership()": {
        "details": "The new owner accepts the ownership transfer."
      },
      "allowance(address,address)": {
        "details": "See {IERC20-allowance}."
      },
      "approve(address,uint256)": {
        "details": "See {IERC20-approve}. NOTE: If `amount` is the maximum `uint256`, the allowance is not updated on `transferFrom`. This is semantically equivalent to an infinite approval. Requirements: - `spender` cannot be the zero address."
      },
      "balanceOf(address)": {
        "details": "See {IERC20-balanceOf}."
      },
      "decimals()": {
        "details": "Returns the number of decimals used to get its user representation. For example, if `decimals` equals `2`, a balance of `505` tokens should be displayed to a user as `5.05` (`505 / 10 ** 2`). Tokens usually opt for a value of 18, imitating the relationship between Ether and Wei. This is the default value returned by this function, unless it's overridden. NOTE: This information is only used for _display_ purposes: it in no way affects any of the arithmetic of the contract, including {IERC20-balanceOf} and {IERC20-transfer}."
      },
      "decreaseAllowance(address,uint256)": {
        "details": "Atomically decreases the allowance granted to `spender` by the caller. This is an alternative to {approve} that can be used as a mitigation for problems described in {IERC20-approve}. Emits an {Approval} event indicating the updated allowance. Requirements: - `spender` cannot be the zero address. - `spender` must have allowance for the caller of at least `subtractedValue`."
      },
      "eip712Domain()": {
        "details": "See {EIP-5267}. _Available since v4.9._"
      },
      "getRoleAdmin(bytes32)": {
        "details": "Returns the admin role that controls `role`. See {grantRole} and {revokeRole}. To change a role's admin, use {_setRoleAdmin}."
      },
      "grantRole(bytes32,address)": {
        "details": "Grants `role` to `account`. If `account` had not been already granted `role`, emits a {RoleGranted} event. Requirements: - the caller must have ``role``'s admin role. May emit a {RoleGranted} event."
      },
      "hasRole(bytes32,address)": {
        "details": "Returns `true` if `account` has been granted `role`."
      },
      "increaseAllowance(address,uint256)": {
        "details": "Atomically increases the allowance granted to `spender` by the caller. This is an alternative to {approve} that can be used as a mitigation for problems described in {IERC20-approve}. Emits an {Approval} event indicating the updated allowance. Requirements: - `spender` cannot be the zero address."
      },
      "name()": {
        "details": "Returns the name of the token."
      },
      "nonces(address)": {
        "details": "See {IERC20Permit-nonces}."
      },
      "owner()": {
        "details": "Returns the address of the current owner."
      },
      "pendingOwner()": {
        "details": "Returns the address of the pending owner."
      },
      "permit(address,address,uint256,uint256,uint8,bytes32,bytes32)": {
        "details": "See {IERC20Permit-permit}."
      },
      "renounceOwnership()": {
        "details": "Leaves the contract without owner. It will not be possible to call `onlyOwner` functions. Can only be called by the current owner. NOTE: Renouncing ownership will leave the contract without an owner, thereby disabling any functionality that is only available to the owner."
      },
      "renounceRole(bytes32,address)": {
        "details": "Revokes `role` from the calling account. Roles are often managed via {grantRole} and {revokeRole}: this function's purpose is to provide a mechanism for accounts to lose their privileges if they are compromised (such as when a trusted device is misplaced). If the calling account had been revoked `role`, emits a {RoleRevoked} event. Requirements: - the caller must be `account`. May emit a {RoleRevoked} event."
      },
      "revokeRole(bytes32,address)": {
        "details": "Revokes `role` from `account`. If `account` had been granted `role`, emits a {RoleRevoked} event. Requirements: - the caller must have ``role``'s admin role. May emit a {RoleRevoked} event."
      },
      "supportsInterface(bytes4)": {
        "details": "See {IERC165-supportsInterface}."
      },
      "symbol()": {
        "details": "Returns the symbol of the token, usually a shorter version of the name."
      },
      "totalSupply()": {
        "details": "See {IERC20-totalSupply}."
      },
      "transfer(address,uint256)": {
        "details": "See {IERC20-transfer}. Requirements: - `to` cannot be the zero address. - the caller must have a balance of at least `amount`."
      },
      "transferFrom(address,address,uint256)": {
        "details": "See {IERC20-transferFrom}. Emits an {Approval} event indicating the updated allowance. This is not required by the EIP. See the note at the beginning of {ERC20}. NOTE: Does not update the allowance if the current allowance is the maximum `uint256`. Requirements: - `from` and `to` cannot be the zero address. - `from` must have a balance of at least `amount`. - the caller must have allowance for ``from``'s tokens of at least `amount`."
      },
      "transferOwnership(address)": {
        "details": "Starts the ownership transfer of the contract to a new account. Replaces the pending transfer if there is one. Can only be called by the current owner."
      }
    },
    "version": 1
  },
  "userdoc": {
    "kind": "user",
    "methods": {},
    "version": 1
  },
  "storageLayout": {
    "storage": [
      {
        "astId": 678,
        "contract": "src/INTPermit.sol:INTPermit",
        "label": "_initialized",
        "offset": 0,
        "slot": "0",
        "type": "t_uint8"
      },
      {
        "astId": 681,
        "contract": "src/INTPermit.sol:INTPermit",
        "label": "_initializing",
        "offset": 1,
        "slot": "0",
        "type": "t_bool"
      },
      {
        "astId": 2237,
        "contract": "src/INTPermit.sol:INTPermit",
        "label": "__gap",
        "offset": 0,
        "slot": "1",
        "type": "t_array(t_uint256)50_storage"
      },
      {
        "astId": 3234,
        "contract": "src/INTPermit.sol:INTPermit",
        "label": "__gap",
        "offset": 0,
        "slot": "51",
        "type": "t_array(t_uint256)50_storage"
      },
      {
        "astId": 39,
        "contract": "src/INTPermit.sol:INTPermit",
        "label": "_roles",
        "offset": 0,
        "slot": "101",
        "type": "t_mapping(t_bytes32,t_struct(RoleData)34_storage)"
      },
      {
        "astId": 334,
        "contract": "src/INTPermit.sol:INTPermit",
        "label": "__gap",
        "offset": 0,
        "slot": "102",
        "type": "t_array(t_uint256)49_storage"
      },
      {
        "astId": 525,
        "contract": "src/INTPermit.sol:INTPermit",
        "label": "_owner",
        "offset": 0,
        "slot": "151",
        "type": "t_address"
      },
      {
        "astId": 645,
        "contract": "src/INTPermit.sol:INTPermit",
        "label": "__gap",
        "offset": 0,
        "slot": "152",
        "type": "t_array(t_uint256)49_storage"
      },
      {
        "astId": 434,
        "contract": "src/INTPermit.sol:INTPermit",
        "label": "_pendingOwner",
        "offset": 0,
        "slot": "201",
        "type": "t_address"
      },
      {
        "astId": 513,
        "contract": "src/INTPermit.sol:INTPermit",
        "label": "__gap",
        "offset": 0,
        "slot": "202",
        "type": "t_array(t_uint256)49_storage"
      },
      {
        "astId": 943,
        "contract": "src/INTPermit.sol:INTPermit",
        "label": "_balances",
        "offset": 0,
        "slot": "251",
        "type": "t_mapping(t_address,t_uint256)"
      },
      {
        "astId": 949,
        "contract": "src/INTPermit.sol:INTPermit",
        "label": "_allowances",
        "offset": 0,
        "slot": "252",
        "type": "t_mapping(t_address,t_mapping(t_address,t_uint256))"
      },
      {
        "astId": 951,
        "contract": "src/INTPermit.sol:INTPermit",
        "label": "_totalSupply",
        "offset": 0,
        "slot": "253",
        "type": "t_uint256"
      },
      {
        "astId": 953,
        "contract": "src/INTPermit.sol:INTPermit",
        "label": "_name",
        "offset": 0,
        "slot": "254",
        "type": "t_string_storage"
      },
      {
        "astId": 955,
        "contract": "src/INTPermit.sol:INTPermit",
        "label": "_symbol",
        "offset": 0,
        "slot": "255",
        "type": "t_string_storage"
      },
      {
        "astId": 1535,
        "contract": "src/INTPermit.sol:INTPermit",
        "label": "__gap",
        "offset": 0,
        "slot": "256",
        "type": "t_array(t_uint256)45_storage"
      },
      {
        "astId": 10919,
        "contract": "src/INTPermit.sol:INTPermit",
        "label": "mintCap",
        "offset": 0,
        "slot": "301",
        "type": "t_uint256"
      },
      {
        "astId": 2925,
        "contract": "src/INTPermit.sol:INTPermit",
        "label": "_hashedName",
        "offset": 0,
        "slot": "302",
        "type": "t_bytes32"
      },
      {
        "astId": 2928,
        "contract": "src/INTPermit.sol:INTPermit",
        "label": "_hashedVersion",
        "offset": 0,
        "slot": "303",
        "type": "t_bytes32"
      },
      {
        "astId": 2930,
        "contract": "src/INTPermit.sol:INTPermit",
        "label": "_name",
        "offset": 0,
        "slot": "304",
        "type": "t_string_storage"
      },
      {
        "astId": 2932,
        "contract": "src/INTPermit.sol:INTPermit",
        "label": "_version",
        "offset": 0,
        "slot": "305",
        "type": "t_string_storage"
      },
      {
        "astId": 3190,
        "contract": "src/INTPermit.sol:INTPermit",
        "label": "__gap",
        "offset": 0,
        "slot": "306",
        "type": "t_array(t_uint256)48_storage"
      },
      {
        "astId": 1640,
        "contract": "src/INTPermit.sol:INTPermit",
        "label": "_nonces",
        "offset": 0,
        "slot": "354",
        "type": "t_mapping(t_address,t_struct(Counter)2244_storage)"
      },
      {
        "astId": 1648,
        "contract": "src/INTPermit.sol:INTPermit",
        "label": "_PERMIT_TYPEHASH_DEPRECATED_SLOT",
        "offset": 0,
        "slot": "355",
        "type": "t_bytes32"
      },
      {
        "astId": 1804,
        "contract": "src/INTPermit.sol:INTPermit",
        "label": "__gap",
        "offset": 0,
        "slot": "356",
        "type": "t_array(t_uint256)49_storage"
      }
    ],
    "types": {
      "t_address": {
        "encoding": "inplace",
        "label": "address",
        "numberOfBytes": "20"
      },
      "t_array(t_uint256)45_storage": {
        "base": "t_uint256",
        "encoding": "inplace",
        "label": "uint256[45]",
        "numberOfBytes": "1440"
      },
      "t_array(t_uint256)48_storage": {
        "base": "t_uint256",
        "encoding": "inplace",
        "label": "uint256[48]",
        "numberOfBytes": "1536"
      },
      "t_array(t_uint256)49_storage": {
        "base": "t_uint256",
        "encoding": "inplace",
        "label": "uint256[49]",
        "numberOfBytes": "1568"
      },
      "t_array(t_uint256)50_storage": {
        "base": "t_uint256",
        "encoding": "inplace",
        "label": "uint256[50]",
        "numberOfBytes": "1600"
      },
      "t_bool": {
        "encoding": "inplace",
        "label": "bool",
        "numberOfBytes": "1"
      },
      "t_bytes32": {
        "encoding": "inplace",
        "label": "bytes32",
        "numberOfBytes": "32"
      },
      "t_mapping(t_address,t_bool)": {
        "encoding": "mapping",
        "key": "t_address",
        "label": "mapping(address => bool)",
        "numberOfBytes": "32",
        "value": "t_bool"
      },
      "t_mapping(t_address,t_mapping(t_address,t_uint256))": {
        "encoding": "mapping",
        "key": "t_address",
        "label": "mapping(address => mapping(address => uint256))",
        "numberOfBytes": "32",
        "value": "t_mapping(t_address,t_uint256)"
      },
      "t_mapping(t_address,t_struct(Counter)2244_storage)": {
        "encoding": "mapping",
        "key": "t_address",
        "label": "mapping(address => struct CountersUpgradeable.Counter)",
        "numberOfBytes": "32",
        "value": "t_struct(Counter)2244_storage"
      },
      "t_mapping(t_address,t_uint256)": {
        "encoding": "mapping",
        "key": "t_address",
        "label": "mapping(address => uint256)",
        "numberOfBytes": "32",
        "value": "t_uint256"
      },
      "t_mapping(t_bytes32,t_struct(RoleData)34_storage)": {
        "encoding": "mapping",
        "key": "t_bytes32",
        "label": "mapping(bytes32 => struct AccessControlUpgradeable.RoleData)",
        "numberOfBytes": "32",
        "value": "t_struct(RoleData)34_storage"
      },
      "t_string_storage": {
        "encoding": "bytes",
        "label": "string",
        "numberOfBytes": "32"
      },
      "t_struct(Counter)2244_storage": {
        "encoding": "inplace",
        "label": "struct CountersUpgradeable.Counter",
        "members": [
          {
            "astId": 2243,
            "contract": "src/INTPermit.sol:INTPermit",
            "label": "_value",
            "offset": 0,
            "slot": "0",
            "type": "t_uint256"
          }
        ],
        "numberOfBytes": "32"
      },
      "t_struct(RoleData)34_storage": {
        "encoding": "inplace",
        "label": "struct AccessControlUpgradeable.RoleData",
        "members": [
          {
            "astId": 31,
            "contract": "src/INTPermit.sol:INTPermit",
            "label": "members",
            "offset": 0,
            "slot": "0",
            "type": "t_mapping(t_address,t_bool)"
          },
          {
            "astId": 33,
            "contract": "src/INTPermit.sol:INTPermit",
            "label": "adminRole",
            "offset": 0,
            "slot": "1",
            "type": "t_bytes32"
          }
        ],
        "numberOfBytes": "64"
      },
      "t_uint256": {
        "encoding": "inplace",
        "label": "uint256",
        "numberOfBytes": "32"
      },
      "t_uint8": {
        "encoding": "inplace",
        "label": "uint8",
        "numberOfBytes": "1"
      }
    }
  }
}